:020000040800F2
:10000000E81500205977000815480008174800082F
:100010001B4800081F480008234800080000000093
:100020000000000000000000000000002748000859
:1000300029480008000000002B4800082D4800084F
:1000400073770008737700087377000873770008E8
:1000500073770008737700087377000873770008D8
:1000600073770008737700087377000873770008C8
:1000700073770008737700087377000873770008B8
:10008000A93E00081D3C000873770008737700083C
:10009000CD2C000873770008737700087377000889
:1000A0007377000873770008737700087377000888
:1000B0007377000873770008737700087377000878
:1000C0007377000873770008737700087377000868
:1000D00073770008737700089D3E0008C942000846
:1000E0007377000873770008737700087377000848
:1000F0007377000873770008737700087377000838
:100100007377000873770008737700087377000827
:100110007377000873770008373800087377000892
:10012000737700087377000899390008737700081F
:1001300073770008737700087377000873770008F7
:10014000F52D0008737700087377000873770008AF
:100150007377000873770008737700083D44000840
:1001600073770008737700087377000873770008C7
:1001700073770008737700087377000873770008B7
:1001800073770008737700084B4500087377000801
:100190007377000873770008737700087377000897
:1001A00000000000000000007377000800F002F873
:1001B00000F05CF80AA090E8000C82448344AAF1A5
:1001C0000107DA4501D100F051F8AFF2090EBAE8A3
:1001D0000F0013F0010F18BFFB1A43F0010318477B
:1001E00020C8000040C800000A444FF0000C10F87E
:1001F000013B13F0070408BF10F8014B1D1108BFA5
:1002000010F8015B641E05D010F8016B641E01F844
:10021000016BF9D113F0080F1EBF10F8014BAD1C94
:100220000C1B09D16D1E58BF01F801CBFAD505E0B2
:1002300014F8016B01F8016B6D1EF9D59142D6D30C
:10024000704700000023002400250026103A28BF34
:1002500078C1FBD8520728BF30C148BF0B60704738
:100260001FB50BF0D2FD1FBD10B510BD09F099FDF3
:100270001146FFF7F5FF00F009F809F0B7FD03B4E8
:10028000FFF7F2FF03BC09F0B7FD00004FF4A060D8
:1002900004F0F0FB02F03EFC002433E0264890F925
:1002A0000000082805DA24480078C01C40B2224922
:1002B000087022490968C1F34F0003F0B2F904EB5A
:1002C00044021F4B03EB4202917804EB440213F803
:1002D000120003F092F905462946092003F09BF924
:1002E00004EB4401164A02EB41018D8805EBD57100
:1002F000481002F0F5FD03F023F91E2002F0F0FD96
:10030000601C641C162CC9DB00200E490860082103
:10031000012000F059FB01200B4908700BE00B484D
:1003200000684FF47A71B0FBF1F201FB120010B9D2
:10033000082001490870F2E7000000202C18004056
:10034000A6C20008B88242420E000020D40300205A
:10035000FE490870704710B5C024FD490988A1F511
:100360008060002801DB014600E0414240F2962215
:10037000914201DC012100E000210C43F44949884D
:10038000A1F58060002801DB014600E0414240F217
:100390009622914201DC012100E0002144EA41045F
:1003A000EB498988A1F58060002801DB014600E067
:1003B000414240F29622914201DC012100E00021FD
:1003C00044EA8104E249C988A1F58060002801DB84
:1003D000014600E0414240F29622914201DC0121B7
:1003E00000E0002144EAC104D948007A012807D07E
:1003F000D748007A022803D0D548007A032801D1D3
:10040000012000E0002044EA0014D148407A01288D
:1004100007D0CF48407A022803D0CD48407A03283D
:1004200001D1012000E0002044EA4014FF2C07D055
:100430000320FFF78DFF1422C549C64809F0FCFBD5
:1004400010BDC2480078704710B5FFF7FAFF0828C2
:100450007ED2DFE800F011041E872B65584B002385
:100460001A461946184607F013FA00231A46194689
:10047000184607F03CFA82E000231A46194618464F
:1004800007F006FA00231A461946184607F02FFA15
:1004900075E000231A461946184607F0F9F90023BB
:1004A0001A461946184607F022FA68E0AA4CE48872
:1004B00023B2A94CA48822B2A84CA48C21B2A74C88
:1004C000248C20B207F0E4F9A54B93ED070ABDEEAA
:1004D000C00A10EE103A1AB2A24B1B8A19B2A14BF5
:1004E0009B8C18B2002307F002FA48E000231A465A
:1004F0001946184607F0CCF900231A461946184643
:1005000007F0F5F93BE000231A461946184607F0B4
:10051000BFF900231A461946184607F0E8F92EE0FD
:100520008D4CE48823B28C4CA48822B28B4CA48CD2
:1005300021B28A4C248C20B207F0AAF9884B93EDA3
:10054000070ABDEEC00A10EE103A1AB2854B00E061
:1005500008E01B8A19B2834B9B8C18B2002307F06A
:10056000C6F90CE000231A461946184607F090F920
:1005700000231A461946184607F0B9F900BF00BF14
:1005800010BD10B572490988714A52881144704AE9
:10059000928811446E4AD2881144A1F580500028F7
:1005A00001DB014600E04142082901DD00F05BF972
:1005B00010BD10B5FFF745FF082847D2DFE800F06F
:1005C0001F0427372F3D38366748006842F2107104
:1005D000884213D9FFF7D5FF0020FFF7B9FE9FED42
:1005E000630A604880ED030A614890ED000AF2EE6C
:1005F000040A20EE200A5B4880ED080A26E000F09D
:10060000E9FD0220FFF7A4FE01F02BF91EE0062011
:10061000FFF79EFE00F0DEFD01F023F916E000F08A
:10062000D9FD01F01EF901F071F80FE00EE00DE0C8
:1006300001F06CF800F0CEFD08E002F0FFF800F0E9
:10064000C9FD01F00EF901F061F800BF00BF10BD57
:1006500010B5FFF7F6FE47490870FFF7F2FE0828CD
:1006600005D2DFE800F00504065B07B5371CB7E0EC
:10067000B6E0B5E03648007A032802D10620FFF73D
:1006800067FE3348007A032807D13B4800780328E7
:1006900003D12F48407A012800D000BFA0E02C49A8
:1006A000C97C61B92A49897C49B92949B1F90A004B
:1006B000002801DB014600E04142032902DD04205D
:1006C000FFF746FE2248007A022802D10520FFF7F4
:1006D0003FFE85E01E48007A01280DD1244890EDA8
:1006E000000AF2EE040A20EE200A1E4880ED080AF5
:1006F0000420FFF72DFE10E01548007A02280CD1E7
:100700001B4890ED000AF2EE040A20EE200A15487C
:1007100080ED080A0520FFF71BFE61E0174800681E
:10072000401C16490860164991F8361051BB08491B
:100730000988074A52881144054A92881144044A9C
:10074000D2881144A1F5805000281CE0040000204C
:1007500014060020C4060020AE0300203408002048
:100760008408002034000020D403002000E8E04585
:1007700004060020060000200500002008000020DC
:10078000FC02002015E001DB014600E041420A299D
:100790000FDA3C4890ED000AF2EE040A20EE200A3F
:1007A000394880ED080A0420FFF7D2FD00203749C0
:1007B0000860374890F8360048B934480068B0F50A
:1007C000FA5F04D900203149086000F04CF807E0D6
:1007D0003048007A032802D10620FFF7B9FD00BF98
:1007E00000BF2C48407A2C49087010BD10B507F0A6
:1007F000DFFE2A4800680521B0FBF1F201FB120080
:1008000008B902F0ADF801F0C7F9FFF721FFFFF7D3
:10081000D0FEFFF719FEFFF79EFD20480068782103
:10082000B0FBF1F201FB120078B91D4890F900000D
:10083000002805DD1A480078401E40B218490870AB
:10084000174890F9000002F00EFC10BDF0EE400ACF
:10085000F5EEC00AF1EE10FA02DBB0EE600A704766
:10086000B1EE600AFBE7BFF34F8F0E48006800F45B
:10087000E0600D490843001D0A490860BFF34F8F2F
:1008800000BFFEE70406002034000020080000201E
:10089000FC0200201406002005000020D4030020E4
:1008A000000000200CED00E00000FA0510B5FB4848
:1008B00000780A2832DAF948007800282EDDF84856
:1008C00000684FF41661B0FBF1F201FB1200F3492E
:1008D00009784900C1EB011101EB8101B0EB410F37
:1008E0002BD8EF4800684FF41661B0FBF1F201FB22
:1008F000120028B94FF48041EA4805F0F9F81CE0ED
:10090000E74800689621B0FBF1F201FB1200A0B9A4
:100910004FF48041E34805F0F6F80EE0DF48007838
:100920000A2805DB4FF48041DE4805F0E3F804E0D7
:100930004FF48041DB4805F0DBF8DB4800780A28FB
:1009400032DAD948007800282EDDD54800684FF407
:100950001661B0FBF1F201FB1200D349097849009E
:10096000C1EB011101EB8101B0EB410F2BD8CC4859
:1009700000684FF41661B0FBF1F201FB120028B9D8
:100980004FF40061C94805F0B3F81CE0C4480068A2
:100990009621B0FBF1F201FB1200A0B94FF4006107
:1009A000C24805F0B0F80EE0BF4800780A2805DB21
:1009B0004FF40061BD4805F09DF804E04FF400617C
:1009C000BA4805F095F810BD0A2801DD0A2200E0BA
:1009D0000246B24B1A700A2901DD0A2200E00A46DB
:1009E000B14B1A70704710B5B148007820B101289A
:1009F00022D0022860D140E0AE480078401CAD49CA
:100A000008700846007850280ADB0120A8490870C1
:100A10005020A84908700020A7490870A74908700D
:100A2000A4480078C0F15000A5494870A14800785A
:100A30000870002088703FE09F480078401C9E4965
:100A400008700846007850280BDB0220984908708F
:100A50000020984908705020974908700020974955
:100A6000087000209649487093480078C0F1500003
:100A700008709148007888701EE090480078401C0B
:100A80008E49087008460078502809DB0020884904
:100A90000870884908708849087050208749087094
:100AA000864800788649487000200870834800789E
:100AB000C0F15000887000BF00BF00204FE08149A6
:100AC000095C11B1012948D124E07F4901EB800183
:100AD00091ED000ADFED7D0A30EE200A7A4901EB44
:100AE000800181ED000A784901EB800191ED000A57
:100AF000DFED770AB4EEE00AF1EE10FA09DB9FEDC4
:100B0000740A714901EB800181ED000A01216D4AEF
:100B1000115422E06C4901EB800191ED000ADFEDF8
:100B20006B0A30EE600A684901EB800181ED000A32
:100B3000654901EB800191ED000AB5EEC00AF1EEC6
:100B400010FA09D89FED630A5F4901EB800181ED3E
:100B5000000A00215B4A115400BF00BF401C052859
:100B6000ADDB574840785649C87008460178417156
:100B70008178017100785249887108464178017284
:100B80008178C17180784E49487208460178C172F7
:100B90004178817200784A490873084681788173E8
:100BA0004178417300201EE0002119E000EB400273
:100BB000434B1A44525C00EE102AB8EE400A424AF7
:100BC00002EB8002D2ED000A20EE200ABCEEC00A41
:100BD00010EE102A00EB4003394C23445A54491CB0
:100BE0000329E3DB401C0528DEDB10BD027802F0A0
:100BF0000101027852100270027842EAC1120270BA
:100C0000704710B5264800686421B0FBF1F201FB83
:100C10001200002841D100BF12E000210DE02E4A51
:100C20001278024102F00102642312FB03F200EB8E
:100C30004003234C23445A54491C0329EFDB401C36
:100C40000528EADB2448FFF7D1FF24480078401C40
:100C5000224908700878C11700EB5171C910A0EB48
:100C6000C10141B91E490978052904DC1C480078F6
:100C7000401C1B49087000200BE0002106E06422A4
:100C800000EB40030E4C23445A54491C0329F6DB65
:100C9000401C134909788842EFDB10BD0C0000208E
:100CA000D4030020001402400D0000200010024078
:100CB0000F00002010000020110000201200002072
:100CC000D806002013000020180000200AD7233C7B
:100CD000CDCCCC3E000000002C0000202D000020D8
:100CE0002E00002010B52148007810B9FFF789FFC9
:100CF00001E0FFF778FE05211D4803F040FD03F0F9
:100D000015FD10BD0278D10902785206120E02704C
:100D100002780A4302707047164800684FF4FA716F
:100D2000B0FBF1F201FB1200F0B9002012E0124911
:100D30000978642211FB02F100EB40020C4B1A44CB
:100D40005170002100EB4002995400EB40021A441C
:100D50009170401C0528EADB0748007808B901209B
:100D600000E0002004490870704700000E000020D9
:100D7000D8060020D40300202F000020F0EE400A07
:100D80009FEDF80A9FEDF81A11EE200A704770B532
:100D90002DED0A8B04460D46F44800680F21B0FB88
:100DA000F1F201FB120000287DD1F1498988A1F5FB
:100DB00080600AF0CEFC41EC1C0B9FEDEE0B53EC77
:100DC000102B0AF0F1FC41EC1B0B9FEDEC0B53ECEC
:100DD000102B0AF037FB41EC190BEA4890ED080A9A
:100DE00010EE101A08460AF09FFF41EC1A0B53EC64
:100DF000192B0AF07FFA41EC180B0AF049FAE14985
:100E00000862084690ED080ADFEDDF0AB4EEE00A5A
:100E1000F1EE10FA06DD90ED080ADFEDDC0A30EEA7
:100E2000600A02E0D74890ED080AD64880ED080A2B
:100E300090ED080ADFEDD60AB4EEE00AF1EE10FA02
:100E400006D290ED080ADFEDD10A30EE200A02E06A
:100E5000CC4890ED080ACB4880ED080AC449C988FF
:100E6000A1F580600AF075FC41EC1C0B9FEDC90BED
:100E700053EC102B0AF098FC41EC1B0B9FEDBF0BC1
:100E800053EC102B0AF0DEFA41EC190BBD4890ED43
:100E9000030A10EE101A08460AF046FF41EC1A0B3E
:100EA00053EC192B00E02CE00AF024FA41EC180B6B
:100EB0000AF0EEF9B349C860084690ED030ADFED89
:100EC000B70AB4EEE00AF1EE10FA02D29FEDB30ACF
:100ED00002E0AC4890ED030AAA4880ED030A90EDC9
:100EE000030ADFEDAF0AB4EEE00AF1EE10FA02DD1C
:100EF0009FEDAB0A02E0A34890ED030AA14880ED04
:100F0000030ABDEC0A8B70BD10B5A6480078012815
:100F10000FD0A448007860B99548007A012802D023
:100F2000A148407F28B997490C3101F11400FFF71F
:100F30002EFF9FED9E0A9E4880ED000A8B480068B8
:100F40001E21B0FBF1F201FB120028B98D490C31D2
:100F500001F1140001F003F88A48D0ED030A90ED86
:100F6000000AB8EEC00A30EEC00ADFED920AB4EE15
:100F7000E00AF1EE10FA16DD006800F5005001EE0F
:100F8000100AB8EEC11AF0EE410A7E4890ED031A3D
:100F9000B0EE410A884807F073FFBDEEC00A7948F9
:100FA00080ED020A39E07748D0ED030A90ED000A9F
:100FB000B8EEC00A30EEC00ADFED800AB4EEE00AF7
:100FC000F1EE10FA16D20068A0F5005001EE100AFA
:100FD000B8EEC11AF0EE410A6A4890ED031AB0EE7D
:100FE000410A754807F04CFFBDEEC00A654880ED28
:100FF000020A12E0634890ED001AB8EEC11AF0EE52
:10100000410A90ED031AB0EE410A6B4807F038FF31
:10101000BDEEC00A5B4880ED020A5A4890ED080A0E
:101020006748D0ED000AB2EE041A00EEC10ADFED07
:10103000560AB4EEE00AF1EE10FA17DDD0ED001A10
:101040009FED521AB2EE042A01EE821AF0EE410A26
:101050004C4890ED081AB0EE410A5A4807F010FFCC
:10106000BDEEC00A474880ED070A3EE0454890EDD6
:10107000080A5348D0ED000AB2EE041A00EEC10A85
:10108000DFED430AB4EEE00AF1EE10FA17D2D0ED2C
:10109000001A9FED3E1AB2EE042A11EE821AF0EE0B
:1010A000410A384890ED081AB0EE410A454807F069
:1010B000E7FEBDEEC00A334880ED070A15E0404860
:1010C00090ED001AF2EE041A21EE211AF0EE410A18
:1010D0002C4890ED081AB0EE410A3A4807F0D0FECD
:1010E000BDEEC00A274880ED070A374890ED091A7F
:1010F000B1EE411AF0EE410A224890ED021AB8EE24
:10110000C11AB0EE410A314807F0BAFEBDEEC00A7E
:101110001C4880ED040A2C4890ED0A1AF0EE410AB2
:10112000184890ED071AB8EEC11AB0EE410A2848E7
:1011300007F0A6FEBDEEC00A124880ED090AD0ED08
:10114000030AB0EE600AFFF719FE0E48D0ED040A5C
:10115000F8EEE00A30EE200ABDEEC00A80ED040A87
:1011600010BD000000CA3C47D122EF40D40300204C
:10117000140600200000000000804640000000002F
:1011800000A08440340000200000E14400006145DC
:101190000000E1C400000000000039400090B545A7
:1011A0000040E24564010020280F002000000000FC
:1011B00054060020000080455C000020000080C52F
:1011C00004060020E0000020F00C00209E0000201B
:1011D0002201002010B5FFF797FE10BD014695488B
:1011E00090ED000AF7EE000A70EEC00A924890ED0A
:1011F000000AB8EEC00A60EE800A00EE101AB8EEDF
:10120000C00A8C4890ED001A40EE010ABDEEE00ADB
:101210008A4880ED000A0068874A106087480068A5
:101220007047421A00EE902AF8EEE00AB1EE601A1A
:10123000DFED831AC1EE210AB0EE001A60EE810ADA
:101240009FED801A60EE810AB0EE600A704770B5BB
:101250000246002000217C4B1B68934202DA7A4B45
:101260001B6800E013461A46774B1B6D934202DD64
:10127000754B1B6D00E013461A46002106E0724BC9
:1012800053F83130934200DC02E0491C0B29F6DBB5
:1012900000BF092901DD092300E00B4619466A4C0D
:1012A0004B1C04EBC3035B6804EBC10464681B1BA9
:1012B000654C54F83140A41A6343634C54F83150E0
:1012C00026464C1C56F834402C1B93FBF4F3344652
:1012D00004EBC1046468181970BD01460020704712
:1012E0005A48007801287CD15948007820B101285B
:1012F00028D0022825D185E05648008800EB8000E0
:1013000041F2A86101EBC00000EE100AB8EEC00A7D
:10131000514880ED030A406828B950480068401CD5
:101320004E49086002E000204C4908604B480068C4
:10133000B0F5967F05D30020484908600120444954
:10134000087073E046484349098800EB8100D0EDFE
:10135000000A414890ED000AB8EEC00A30EE800A5B
:101360003F483C49098800EB810080ED000A3D4878
:101370003849098800EB8100D0ED000A364890ED2D
:10138000040AB8EEC00A30EE800A364831490988AE
:1013900000EB810080ED000A30480068401C2F49B6
:1013A000086008460068B0F5167F2AD30020086060
:1013B0000220274908702A482649098800EB810045
:1013C00090ED000ADFED280A80EE201A244821491A
:1013D000098800EB810080ED001A22481D49098828
:1013E00000E024E000EB810090ED000ADFED1E0A32
:1013F00080EE201A1B481749098800EB810080ED18
:10140000001A13E013480088232808DA11480088DE
:10141000401C1049088000200D49087005E000209C
:101420000A4908700B490880704700BF00BF00BF21
:10143000FAE70000740100206C0100207001002018
:1014400000000046DA0F494020BE00086601002077
:10145000670100206801002034000020780100208E
:10146000F40600209407002000001644B0EE401A55
:10147000F7EE001AB0EE610AA64890F8380001288D
:1014800007D10320A4490870DFEDA41AB0EE610A69
:1014900048E0A348007820B1012809D0022815D1DE
:1014A0000DE0DFEDA01A70EEE11AF0EE610A14E033
:1014B000F3EE0E1A70EEE11AF0EE610A0DE0F3EEB3
:1014C0000E1A70EEE11AF0EE610A06E0F3EE0E1A63
:1014D00070EEE11AF0EE610A00BF00BFDFED921A74
:1014E0009FED922A42EE201AB0EE610AF7EE001A42
:1014F000B4EEE10AF1EE10FA02DDF7EE001A01E0B7
:10150000F0EE401AB0EE610ADFED891AB4EEE10A9E
:10151000F1EE10FA02D2DFED861A01E0F0EE401A89
:10152000B0EE610A704710B5FEF78BFF04283CD17E
:1015300000BF80480088A0F580607F49B1F90010A5
:10154000401A01280CDD7B480088A0F580600A283D
:1015500006DD7A480088401C00B2784908801FE008
:1015600074480088A0F580607349B1F90010401AF2
:10157000B0F1FF3F0DDA6F480088A0F5806010F1F0
:101580000A0F06DA6D480088401E00B26B490880D9
:1015900006E068480088A0F5806000B267490880CE
:1015A0006648B0F900006449088010BD10B5FEF728
:1015B00048FF042817D1002013E09FED610A10EEC8
:1015C000101A00EB40125F4B03EB420251609FED9B
:1015D0005E0A10EE101A00EB401203EB4202116299
:1015E000401C0228E9DBFEF72CFF042801D1FFF79D
:1015F0009AFF5248B0F90000C0EB001053498860D0
:101600004E48B0F900004042C0EB0010C8600846E8
:1016100090ED001AB8EEC11AF0EE410A90ED021AF0
:10162000B8EEC11AB0EE410A464807F029FCBDEEFB
:10163000C00A464880ED080A90ED011AB8EEC11ABA
:10164000F0EE410A90ED031AB8EEC11AB0EE410A6D
:101650003C48423007F014FCBDEEC00A3B4880ED28
:10166000090A3B48008901EE100AB8EE411AF0EE73
:10167000410A374890ED011AB0EE410AFFF7F6FE35
:10168000344880ED000A314890ED080AB8EEC00AEF
:101690003048D0ED000A20EE200AF0EE402A2B4818
:1016A00090ED090AB8EEC00A2A48D0ED000A20EEF3
:1016B000200AB0EE403ABDEEE20A244880ED080A66
:1016C000BDEEC30A80ED090A006A42F21071884239
:1016D00002DD08461D4908621C48006A1E4988420E
:1016E00002DA0846194908621848406A42F2107145
:1016F000884202DD0846154948621448406A164986
:10170000884202DA08461149486210BD10B5FFF759
:101710004DFF10BDFC020020500200209A99193F95
:10172000C703002000000C43CDCCCC3D8FC2F53B5D
:10173000CDCC4C3D14060020520200204202002075
:101740000AD7A33C7C01002000C8AF473408002022
:10175000900E00204C020020F0D8FFFFDF48B0F9C7
:101760000000DE49B1F90810401A022812DADB48FD
:101770000088401C00B2D94908800846B0F9000032
:1017800000EE100AB8EEC00A084680ED010AD448FF
:101790000068C860704710B50446D2480078012838
:1017A00047D101F05EF9D049087008460078012859
:1017B0002DD1207801282AD1CC48007A032809D0DD
:1017C000CB480078032805D1C848407A022801D1C7
:1017D000FFF7C4FFC24800682321B0FBF1F201FB10
:1017E0001200A0B9C148007A032810D0BF48407A3F
:1017F00002280CD1BD494988A1F58060002801DB91
:10180000014600E04142642901DDFFF7A7FFB74828
:10181000007A03280DD0B6480078032809D1B348D0
:10182000407A012805D1207808B9012000E0002085
:101830002070AE48407AAE49087010BD10B5AD4872
:10184000FFF7A9FFA548B0F9000000EE100AB8EEB6
:10185000C00ADFEDA90A20EE200AA04880ED050AA3
:1018600010BD10B50120A5490860A24800780128E4
:1018700003D1102000F08EFF02E0002000F08AFF6C
:10188000FFF7DCFF954890ED050ABDEEC00A9C48C5
:1018900080ED050A90ED001AB8EEC11AF0EE410A8B
:1018A00090ED051AB8EEC11AB0EE410A954807F05E
:1018B000E7FABDEEC00A10EE100A00B290490883A4
:1018C00091480088C0F57A708A4909784843C0F584
:1018D0007A708E4908808A48B0F9100001EE100A2B
:1018E000B8EEC11AF0EE410A8548B0F9180001EED1
:1018F000100AB8EEC11AB0EE410A854807F0C0FAE6
:101900007F4880ED070A10BD10B503467748007C7C
:10191000012807D132B9724800887E4C208000200F
:101920007D4C2070581A002801DB044600E0444238
:10193000022C0EDA784C2478012C0AD00120764C47
:10194000207067480088754C208072480088744C6D
:10195000208072480088724C2488001B80B210BD21
:1019600014205E4908830A215C48817670477047DD
:10197000704710B50B684A69D21A6A4B1A601C4648
:101980002368002B01DB1C4600E05C42062C0CDDCA
:10199000B1F91020002A01DB144600E054420A2C61
:1019A00003DA426A521C426201E000234362426A47
:1019B000642A07D990F8202022B9012280F820203B
:1019C000594B1A7090F82020012A40D1564A1278BB
:1019D000012A04D0022A11D0032A37D124E00A6850
:1019E000323A524B1A601A4692ED000AB8EEC00A1B
:1019F00080ED050A02224C4B1A7027E04B4A92ED0B
:101A0000000AB8EEC00A80ED050A14460B68246887
:101A10001A1B002A01DB134600E05342282B02DA8E
:101A20000322414B1A7011E0002280F820203E4B27
:101A30001A7002890280B0F9002000EE102AB8EE78
:101A4000C00A80ED010A0023436200BF00BF10BD41
:101A500010B5137BD47A43EA04231BB28B80947BAA
:101A6000537B44EA03231BB20B828B898C881B1B9C
:101A70001BB2CB81B1F90E30B3F5805F04DD8B680A
:101A800003F500538B6008E0B1F90E3013F5805F69
:101A900003DA8B68A3F500538B60B1F904408B68BF
:101AA000234400EE103AB8EEC00ADFED210A80EEC2
:101AB000201ABDEEC10A81ED000A8B888B8191ED61
:101AC000000AB8EEC00ADFED0C0A80EE201ABCEE68
:101AD000C10A10EE103A1BB2038110BD5C08002051
:101AE000D4030020E1020020E002002014060020C0
:101AF000F1020020D8020020BC749341B40243429A
:101B00008408002054020020DA020020DC020020B9
:101B100096020020EE020020E8020020EC020020E5
:101B2000EA020020F4020020F8020020E402002073
:101B300000007A4401884FF6FE72914202DA018871
:101B4000491C01807047002101807047034602EB69
:101B500082004000984202DA0120087001E0002073
:101B6000087008787047494931F81010491C8AB24A
:101B7000464921F81020704700200AE0434931F817
:101B800010201A3921F8102000221A3121F81020D3
:101B9000401C0D28F2DB704710B53D4800684FF43B
:101BA0007A71B0FBF1F201FB120008B9FFF7E4FF14
:101BB000002411E03549423901EB4400FFF7BAFF38
:101BC000324B5C3B33F81420343319191A3B33F889
:101BD0001400FFF7BBFF641C0D2CEBDB2D480078D5
:101BE000012823D129485C3890F83500012809D113
:101BF00027480068B0F5FA6F04D90120264908602B
:101C000026490880FEF71DFC05280FD008200BE0B0
:101C10001E492839095C012905D1891E1E4A116017
:101C200001B21E4A1180401C0C28F1DD17485C38B7
:101C300090F83600012815D1FEF703FC012806D0E4
:101C4000FEF7FFFB18B1FEF7FCFB022803D10320CF
:101C5000FEF77EFB06E0FEF7F4FB052802D003202A
:101C6000FEF776FB0E49C97C61B90D49897C49B9FB
:101C70000B49B1F90A00002801DB014600E04142AE
:101C8000032902DD00200349087010BD580300201D
:101C9000D403002072030020780300207403002086
:101CA00014060020704770B52DED088B04469FED9B
:101CB000FE0AB0EE408A00EE104AB8EEC00ADFED30
:101CC000FB0A80EE201A11EE105A28460AF02CF872
:101CD00041EC1B0BB0EE4B0AF0EE6B0A08F008FB70
:101CE000B0EE40AAF0EE60AA9FEDF10B53EC102B82
:101CF00051EC1A0B09F058FD41EC190B09F0C8FA28
:101D000008EE100AEC4880ED008AB0EE480ABDECFF
:101D1000088B70BDDFEDE40AB0EE600A704730B5A5
:101D20002DED108B81B00446F0EE408AB2EE000A31
:101D3000F4EEC08AF1EE10FA03DDB2EE000AF0EE26
:101D4000408A94ED000ADFEDDD0A30EEC00ADFEDD7
:101D5000DC0A20EE20FA1FEE100A09F0E5FF41EC44
:101D60001A0BB0EE4A0AF0EE6A0A08F055FDB0EE22
:101D7000409AF0EE609A51EC190B09F089FA08EEDE
:101D8000100A9FEDC90A8DED000A9FEDC70AF0EE1B
:101D900040FA1FEE100A09F0C7FF41EC1B0B9FED44
:101DA000C90A68EE800AB7EE000A08EE480A20EE7B
:101DB000800ADFEDC50A08EE600ADFEDC30A80EE97
:101DC000201A11EE105A284609F0AEFF41EC1E0B06
:101DD000B0EE4E0AF0EE6E0A08F042F8B0EE40DACD
:101DE000F0EE60DA51EC1D0B09F046FA41EC1C0BE9
:101DF00053EC1B2B09F07EFA41EC1A0B9FEDB30B51
:101E000053EC102B09F0D0FC41EC190B09F040FA0F
:101E100000909DED000ADFEDAF0A20EE200AF0EE03
:101E200040FA9FEDAD0A2FEE800ADFEDAC0A80EE9E
:101E3000201A9FEDA20A30EE410A84ED000AB0EEAE
:101E40006F0A01B0BDEC108B30BDA549D1ED000A81
:101E5000B6EE001A20EE811A00EE900AF8EEE00AC3
:101E6000F6EE001A00EEA11A81ED001AD1ED000A7B
:101E7000B2EE041A60EE810AFDEEE00A10EE901A4E
:101E800009B2984A1180DFED980AB4EEE00AF1EE4B
:101E900010FA03DDDFED940AB0EE600ADFED930A7D
:101EA000B4EEE00AF1EE10FA03D2DFED900AB0EEE4
:101EB000600A2D2800DD2D2010F12D0F01DA6FF0C2
:101EC0002C008B49D1ED020AB2EE041A60EE810AB1
:101ED000FDEEE00A8749C1ED000A8549D1ED020A0D
:101EE000B2EE041A60EE810A7E49B1F9001001EEEB
:101EF000101AB8EEC11AF7EE001A41EE810A7E49B7
:101F0000C1ED050AD1ED050AFDEEE00A10EE901ACA
:101F100009B27A4A11807849D1ED060A9FED781A04
:101F200060EE810A91ED051ADFED761A41EE210A85
:101F3000C1ED060AD1ED060AFDEEE00A10EE901A98
:101F400009B2714A11806A49D1ED010AC1ED020A54
:101F5000D1ED000AC1ED010A81ED000A704770B5AC
:101F60002DED088B05460C46684890F8390001288D
:101F700003D100206049487008706548007A022843
:101F800003D15D480078012807D06148407C0128D2
:101F900007D159480078012803D1012056494877D4
:101FA00002E000205449487753480078012809D1BD
:101FB00058480078142808DA56480078401C5549DB
:101FC000087002E00020534908704B4A1289A2F2BF
:101FD000DE3211B2484AB2F91000FFF79BFE4E48BC
:101FE00080ED000A4B48007803280FDD4B48D0ED08
:101FF0000A0AB0EE600A4848D0ED000AFDEEE00A99
:1020000010EE900A00B2FFF720FF04E000209FEDE1
:10201000260AFFF71AFF3F4800780A2810DA3D48E1
:10202000007800EE100AB8EE400AF2EE040A80EEE4
:10203000201A314890ED060A21EE000A80ED060ACA
:102040002D48407F01282ED12B48408800EE100AF1
:10205000B8EE400AF2EE020A80EE801A11EE106A23
:10206000304609F061FE41EC1B0BB0EE4B0AF0EE7E
:102070006B0A08F03DF9B0EE40AAF0EE60AA9FEDC1
:10208000280B53EC102B51EC1A0B09F08DFB41EC93
:10209000190B09F0FDF808EE100A17490989A1F299
:1020A000DE3108B240E0A6E0000000000080B64447
:1020B0000000006066A64C407C03002000E8E0457C
:1020C0008010493ACDCC1C41000080430000000044
:1020D0000000E03F33336542000000460000B44397
:1020E000A80300209A03002000003442000034C2FC
:1020F000A40800208C030020280F00209C0300204F
:102100009A99193FCDCCCC3E9E030020FC020020C2
:10211000140600209803002090030020F00C0020FB
:102120000000000000E88140FFF7BDFDF2EE040A68
:1021300020EE200AFE48D0ED000AB2EE041A00EEAE
:10214000810A30EE480A85ED000AFA494989A1F56D
:10215000117108B2FFF7A7FD5FED210A20EE200AFA
:102160001FED221AC0EE010AF34890ED000AB8EE06
:10217000C00A30EE600A84ED000AEE4890ED010AD4
:10218000DFEDEE0A80EE201AF0EE418AB0EE680A2A
:102190002046FFF7C4FDEA4880ED000A94ED000AEE
:1021A000DFEDE80AB4EEE00AF1EE10FA02DD9FED91
:1021B000E50A01E094ED000A84ED000A94ED000ABE
:1021C000DFEDE10AB4EEE00AF1EE10FA02D29FED83
:1021D000DE0A01E094ED000A84ED000A95ED000AA4
:1021E000D348D0ED000AB2EE041A00EEC10AD74877
:1021F00080ED000A00BFBDEC088B70BDB0EE401A48
:10220000DFEDD32AB0EE620ADFEDD22AF4EEE20A65
:10221000F1EE10FA03DDDFEDCF2AF0EE620ADFED1A
:10222000CE2AF4EEE20AF1EE10FA03D2DFEDCA2A6A
:10223000F0EE620ADFEDC92AB4EEE21AF1EE10FA0E
:1022400028DDDFEDC62A31EE623ADFEDC12AF3EE7A
:10225000043A43EE632AB0EE620AF2EE0E2AB4EEBE
:10226000E20AF1EE10FA02D2F2EE0E2A01E0F0EEEE
:10227000402AB0EE620ADFEDB62AB4EEE20AF1EED1
:1022800010FA02DDDFEDB22A01E0F0EE402AB0EEF6
:10229000620A03E0DFEDAE2AB0EE620ADFEDAF2A9C
:1022A000B4EEE21AF1EE10FA03DDDFEDAC2AB0EE87
:1022B000621AB3EE003AC1EE032A9FEDA93A32EE5C
:1022C000832A60EE821AF4EEC01AF1EE10FA01DDF4
:1022D000F0EE401AF1EE402AF4EEE21AF1EE10FAB6
:1022E00003D2F1EE402AF0EE621AD0ED002A72EE2F
:1022F000A12AC0ED002A704770B52DED068B04466B
:10230000B0EE408A00EE104AB8EEC00AC8EE000AED
:1023100010EE906A304609F007FD41EC1A0BB0EE62
:102320004A0AF0EE6A0A07F0E3FFB0EE409AF0EED8
:10233000609A51EC190B09F0DDF9051E01DB284606
:1023400000E0684200EBC00101EB001000EE100A53
:10235000F8EEC08AB0EE680ABDEC068B70BD2DE9C0
:10236000F0412DED0A8BB0EE408A04460D46002761
:10237000642104FB01F0C11700EB11710911491D23
:1023800009EE901A00EE105AB8EEC00ADFED750A99
:1023900080EE201A11EE106A304609F0C5FC41ECBF
:1023A0001C0BB0EE4C0AF0EE6C0A07F0A1FFB0EE89
:1023B00040BAF0EE60BA1FEDC20B53EC102B51EC9B
:1023C0001B0B09F0F1F908F063FF08EE900AB8EE74
:1023D000E90A20EE080ADFED640A80EE201AB0EE6A
:1023E000419A202C2FDD292C16DDBDEEC80A10EEF7
:1023F000100A002801DB014600E041424FF47A72E6
:1024000002EB8102A4F1280101EB810102EB011131
:1024100009B2564A118055E0BDEEC80A10EE100A06
:10242000002801DB014600E041424FF4167202EB46
:102430004102A4F1140101EB810102EBC10109B2D7
:102440004A4A11803EE0BDEEC80A10EE100A00288C
:1024500001DB014600E04142282903DA4FF496707F
:1024600042490880BDEEC80A10EE100A002801DBC0
:10247000014600E041423C2904DA4FF4FA703B493E
:1024800008801FE0BDEEC80A10EE100A002801DB2C
:10249000014600E04142822904DA4FF42F703349AB
:1024A00008800FE0BDEEC80A10EE100A002801DB1C
:1024B000014600E041424FF42F7202EB410109B2A4
:1024C0002A4A1180282C00DD2824B2EE040A28EEC6
:1024D000800ABDEEC00A10EE100A00B2244908803E
:1024E000B2EE040A29EE000ABDEEC00A10EE100A90
:1024F00000B22049088039EE280AF2EE040A20EEE4
:10250000200ABDEEC00A10EE100A00B21A49088077
:102510009FED1A0A2046FFF7EFFE79EE280AFDEE3E
:10252000E00A10EE906A002E2ADB304629E0000017
:1025300004060020280F0020340000200000C842BC
:10254000800300200008E4450008B245880300200D
:1025500000008C420000C8430000C8C3CDCC4C40F2
:102560008FC2753D66E6E74400401C46A603002086
:10257000A4030020A2030020A00300203333B33EB5
:10258000704200EE900AF8EEE00AB4EEE00AF1EED6
:1025900010FA39DD45480078401C44490870084667
:1025A0000078322801DD3220087040480078022887
:1025B0002DDD3F49D1ED030A91ED000AB8EEC00AC6
:1025C00030EEC00ABDEEC00A10EE100A002801DB92
:1025D000014600E04142172919DA364991F83910CD
:1025E000A9B9354991ED060ABDEEC00A10EE100AF0
:1025F000002801DB014600E04142B1F5CD7F06DA5B
:102600002E2C04DC012702E00020284908703846FF
:10261000BDEC0A8BBDE8F08110B52748407F01284A
:1026200013D1254A1289A2F2DE3211B2224A52880F
:1026300010B2214AD2ED050AB0EE600AFFF78FFE14
:10264000012800D110BD0020FCE70020FAE700229D
:10265000184890F8390028BB174B5B89A3F5117116
:10266000002901DB0B4600E04B421E2B1BDA124B0C
:102670001B89A3F2DE30002801DB034600E0434261
:10268000052B10DA0C4991ED050ABDEEC00A10EEDB
:10269000100A002801DB014600E04142282902DA45
:1026A000012200E00022104670470000AC03002029
:1026B00034000020FC020020280F0020282801DA26
:1026C000282200E00246104640F66422904200DDD7
:1026D00000E0024610462D4AB2F90020904207D190
:1026E0002A4A1288821A520012B2294B1A804CE0F0
:1026F000264AB2F9002090421FDD244A1288821A2D
:10270000520012B2224B1A801A46B2F90020282A2F
:1027100001DA282202E01E4AB2F900201C4B1A807E
:102720001A46B2F900208A4201DD0A4602E0184A40
:10273000B2F90020164B1A8027E0144AB2F90020A3
:10274000904222DA114A1288821A520012B2104BB9
:102750001A801A46B2F9002012F1280F02DD6FF03C
:10276000270202E00A4AB2F90020094B1A801A46F1
:10277000B2F900204B429A4201DA4A4202E0044A8E
:10278000B2F9002012B2024B1A8070476006002096
:1027900042020020102803D11021254A118014E0A4
:1027A000152803D11521224A11800EE0192803D1E2
:1027B00019211F4A118008E01C2803D11C211C4A42
:1027C000118002E000211A4A11801949098809B2D2
:1027D000184A11801649098801EB81014FF47A7279
:1027E00002EB4101491D124A9180114609899288E4
:1027F000891A012905DB0E490989491E0C4A1181F4
:102800000AE00B4909890A4A9288891A04D50849BD
:102810000989491C064A118105490989064A11603E
:1028200003490989121D1160704701467047000075
:10283000AE030020C4030020340C004010B5152066
:10284000FFF7A8FF3D48007868B93D4800780128A7
:1028500009D13C4890ED000AF2EE040A20EE200A6D
:10286000394880ED080A36480078344908703748FE
:10287000007838B101203649087036480068401C9D
:102880003449086033480068B0F5FA6F06D9002073
:10289000304908602D4908702D4908702C4800788F
:1028A00020B1012824D0022845D143E02A480078ED
:1028B00001280FD14FF4B47140F66420FFF7FEFEFB
:1028C0002648B0F90000B0F5256F10DD0020224940
:1028D00008700CE04FF4B4712820FFF7EFFE1F489A
:1028E000B0F900003C2802DA01201B49087023E0FF
:1028F0001948007801280FD14FF4E67140F66420A2
:10290000FFF7DCFE1548B0F90000B0F5256F10DDCB
:102910000020114908700CE04FF4E6712820FFF701
:10292000CDFE0E48B0F900003C2802DA01200A4929
:10293000087001E000E000BF00BF10BDC803002028
:10294000280F00200406002034000020BC030020D3
:10295000C7030020C0030020C6030020600600203B
:10296000614800886149098888420CD05E48D0EDF2
:10297000010A5F48D0F8020000EE100A30EE800A2B
:10298000594880ED010A4FF4F070574908815948C1
:1029900000686E21B0FBF1F201FB1200F0BB52485F
:1029A000D0ED010A0089400000EE100AB8EEC00A1E
:1029B000F4EEC00AF1EE10FA09DD4B480089400040
:1029C00000EE100AB8EEC00A474880ED010A4648FA
:1029D00090ED010AF3EE000A30EE600A80ED010A84
:1029E00090ED010AB5EEC00AF1EE10FA02D29FEDA9
:1029F000420A02E03C4890ED010A3B4880ED010AA2
:102A00003E48408900EE100AB8EE400A3648D0ED44
:102A1000010A30EE600AF2EE040A00E016E0B4EEBD
:102A2000E00AF1EE10FA08DB3448408900EE100AA3
:102A3000B8EE400A2C4880ED010A2B4890ED010ABF
:102A4000BCEEC00A10EE100A2D4908802648008806
:102A500026490880704724480088401C2249088085
:102A60007047284890F8380020BB1F4890ED010AB5
:102A7000DFED250A70EEC00A2448B0F900004000DE
:102A800000EE100AB8EEC00AF4EEC00AF1EE10FA39
:102A900001DD012070471E4800891D490880084655
:102AA000B0F9000000EE100AB8EEC00A084680ED4A
:102AB000010A16E01548B0F90000A02393FBF0F0DE
:102AC000401E01B24FF47A7090FBF1F002B2104850
:102AD000C068084B1B68181A904201D30120D9E73F
:102AE00000BF0020D6E70000B0080020CC03002083
:102AF0003D060020D403002000000000900E0020BE
:102B0000CA030020FC0200200000F043C4030020A0
:102B10005C08002010B54FF4A06001F0ABFFA820C6
:102B200000F07CF900F054FA00F0FAF900F0E3FA52
:102B3000642000F0D5F9002000F0FEFA012000F03A
:102B4000FBFA022000F0F8FA032000F0F5FA00F09A
:102B50003FF800F0CFF805F0A4F80021084600F097
:102B60004CFD04462146092000F0F0FC00F098FBE3
:102B700000F0FEFA00F064FD4FF4FA6000F0B0F9E6
:102B8000114800F07DFE4FF4E13001F0F5FA4FF40A
:102B9000E13001F0F9FB4FF4E13001F06BFC42F25F
:102BA000107000F09DF900F0A9FD05F004FB00F0A5
:102BB00011FE4FF47A7000F093F900F02DFE012021
:102BC0000249087010BD0000A0860100CE0300205D
:102BD00000B58BB00121082003F0AFF901214806B0
:102BE00003F0F2F90121480603F043FA00214FF007
:102BF000007003F03EFA0320099002208DF82800AF
:102C000000208DF82A0003208DF8290001208DF87E
:102C10002B0009A9354802F0EFFE092200213348B4
:102C200002F075FF09220121304802F070FF0020F8
:102C30008DF81E0001208DF81F0000208DF8200067
:102C40008DF821008DF822008DF823008DF81A00F0
:102C50008DF81B0005208DF81C0001208DF81D004B
:102C60000520ADF8180006A9214801F08CFF0020CE
:102C70008DF812008DF8130001208DF8140000204B
:102C8000ADF80800ADF80A00ADF80C00ADF80E0084
:102C9000ADF8100001208DF8150002A801F0FDFF2D
:102CA00001220221124802F0F7FA14208DF80400E4
:102CB00001208DF8050000208DF8060001208DF818
:102CC000070001A801F0DBFE0BB000BD00B585B028
:102CD0000221074802F048FB30B10221044802F00B
:102CE000DEFB684604F060FD05B000BD000C02404C
:102CF0000064004000B58BB00121022003F01DF9F3
:102D00000121880603F060F90121880603F0B1F97A
:102D100000214FF0806003F0ACF94FF4405009906F
:102D200002208DF8280000208DF82A0003208DF85D
:102D3000290001208DF82B0009A9364802F05CFE1D
:102D400009220C21334802F0E2FE09220D2131480C
:102D500002F0DDFE00208DF81E0001208DF81F001E
:102D600000208DF820008DF821008DF822008DF8CC
:102D700023008DF81A008DF81B0005208DF81C002B
:102D800001208DF81D000520ADF8180006A9224885
:102D900001F0F9FE0E208DF8120000208DF81300CE
:102DA00001208DF814000020ADF80800ADF80A00ED
:102DB000ADF80C00ADF80E00ADF8100001208DF854
:102DC000150002A801F069FF01220221124802F059
:102DD00063FA40208DF8040001208DF805000020E2
:102DE0008DF8060001208DF8070001A801F047FECC
:102DF0000BB000BD00B585B00221074802F0B4FA5F
:102E000030B10221044802F04AFB684604F0B7FEE4
:102E100005B000BD000402400068004010B5044643
:102E20006FF0040001F078FEE11704EB5171C1F37B
:102E3000C701394A11701046007800EB4001C1EB20
:102E4000C0104FF6FF7101EAC0003449088010BD80
:102E50000146314A12784A434FF0E0235A6100227A
:102E60009A611A46126942F001021A6100BF4FF0DE
:102E7000E022106900F001021AB100F48032002A49
:102E8000F5D04FF0E022126922F001024FF0E0236A
:102E90001A6100229A6170470146204A12884A430B
:102EA0004FF0E0235A6100229A611A46126942F0FB
:102EB00001021A6100BF4FF0E022106900F0010228
:102EC0001AB100F48032002AF5D04FF0E0221269E6
:102ED00022F001024FF0E0231A6100229A6170474C
:102EE00070B504464FF4077094FBF0F0C6B24FF48F
:102EF000077094FBF0F100FB114085B205E04FF440
:102F00000770FFF7C9FF701EC6B2002EF7D115B1CA
:102F10002846FFF7C1FF70BDD0030020D203002078
:102F20001CB50121402003F008F84FF40050009038
:102F300001208DF8040000208DF8060003208DF894
:102F400005006946044802F057FD4FF4005102485D
:102F500002F0D0FD1CBD0000001802401CB501218C
:102F6000402002F0EAFF4FF4FF70009001208DF83E
:102F7000040000208DF8060003208DF805000120D4
:102F80008DF8070069464F4802F036FD02214D4892
:102F900002F0AEFD04214B4802F0AAFD0821494889
:102FA00002F0A6FD1021474802F0A2FD202145486D
:102FB00002F09EFD4021434802F09AFD80214148E5
:102FC00002F096FD4FF480713E4802F091FD1CBD69
:102FD0001CB50121102002F0B0FF0121202002F0D9
:102FE000ACFF4FF40060009001208DF80400002039
:102FF0008DF8060003208DF8050001208DF80700EC
:103000006946314802F0F8FC4FF4804000900120FE
:103010008DF8040000208DF8060003208DF80500CF
:1030200001208DF807006946284802F0E5FC0120E0
:103030002749086000202749C1F8AC02FFF78EFF3E
:103040001CBD10B5014601200AE0421E41FA02F201
:1030500002F00102204C04EB8003C3F88022401CE4
:103060000928F2DB10BD30B504460025082C01DD2F
:10307000082000E02046044614F1080F02DA6FF041
:10308000070000E020460446002C09DB002004E095
:10309000012181402943CDB2401CA042F8DB0BE066
:1030A000002006E0C0F10802012191402943CDB281
:1030B000401C61428842F5DBE843C5B22846FFF771
:1030C000C0FF30BD00180240001002400014024052
:1030D000B8824242000042420000434210B504461A
:1030E000032C00DD10BD0420A04081B21F4802F077
:1030F00001FD00BFF6E71CB50121802002F01DFF95
:103100003C20009001208DF8040000208DF806007E
:1031100003208DF8050001208DF80700694613484B
:1031200002F06AFC002404E02046FFF7D7FF601C91
:10313000C4B2042CF8DB1CBD10B50446032C00DD22
:1031400010BD0420A04081B2084802F0D1FC00BFAD
:10315000F6E710B50446032C00DD10BD0420A040A6
:1031600081B2024802F0CFFC00BFF6E7001C02402B
:1031700000B58BB00121802002F0DFFE01210802A2
:1031800002F0DBFE0121082002F01EFF4FF4E050A8
:10319000099002208DF8280003208DF8290009A944
:1031A000E24802F029FC0120099002208DF8280055
:1031B00003208DF8290009A9DD4802F01DFC022238
:1031C0000A21DA4802F0A3FC02220B21D74802F0C0
:1031D0009EFC02220C21D54802F099FC022200211B
:1031E000D34802F094FC40F24730ADF818000020BC
:1031F000ADF81A0040F2E73007900020ADF820004B
:1032000006A9CC4803F0D9FA7020ADF804000120DB
:10321000ADF806000020ADF808004FF47A70039076
:103220000220ADF810000020ADF81200ADF8140037
:103230004FF48070ADF8160001A9BE4803F052FBB0
:1032400001A9BC4803F087FB01A9BA4803F0D0FBF1
:1032500001A9B84803F032FC0821B64803F0CFFCBE
:103260000821B44803F0D4FC0821B24803F0DDFC87
:103270000821B04803F0E2FC0121AE4803F008FB4E
:103280000121AC4803F022FB6420AA4934310860D4
:10329000091D0860091D0860091D08600BB000BD0C
:1032A00000B58BB00121082002F047FE0121042067
:1032B00002F08AFE4FF47040099002208DF8280039
:1032C00003208DF8290009A99B4802F095FB0222F2
:1032D0000C21994802F01BFC02220D21964802F0B5
:1032E00016FC02220E21944802F011FC02220F214A
:1032F000914802F00CFC5320ADF818000020ADF806
:103300001A0041F6136007900020ADF8200006A9CE
:103310008A4803F052FA7020ADF804000120ADF89D
:1033200006000020ADF808004FF47A7003900220E8
:10333000ADF810000020ADF81200ADF814004FF405
:103340008070ADF8160001A97C4803F0CBFA01A902
:103350007A4803F000FB01A9784803F049FB01A972
:10336000764803F0ABFB0821744803F048FC0821C1
:10337000724803F04DFC0821704803F056FC082108
:103380006E4803F05BFC01216C4803F081FA0121D7
:103390006A4803F09BFA4FF47A7068493431086048
:1033A000091D0860091D0860091D08600BB000BDFB
:1033B00000B58BB00121080202F0BFFD0121802081
:1033C00002F0BBFD0121082002F0B7FD01200190B1
:1033D00002208DF8080003208DF8090000208DF8E8
:1033E0000A0001208DF80B0001A9514802F004FBEE
:1033F0004FF4E050019001A94C4802F0FDFA4FF45F
:103400008050019001A94C4802F0F6FA02220021F6
:10341000474802F07CFB02220C21444802F077FB73
:1034200002220B21414802F072FB02220A213F488E
:1034300002F06DFB02220C213F4802F068FB0121E3
:10344000082002F0C1FD0121042002F0BDFD002092
:10345000ADF82800ADF8220044F61F600990532013
:10346000ADF8200000208DF82A0008A9314803F0AB
:10347000A4F940F24730ADF8200040F2E73009905F
:1034800008A92E4803F099F96020ADF80C0001203E
:10349000ADF80E004FF47A7005900020ADF81800DA
:1034A00003A9244803F00AFB03A9224803F0A0FA69
:1034B00003A9204803F04FFA03A91E4803F012FAAB
:1034C00001211C4803F09BFB01211A4803F0A0FBDB
:1034D0000121184803F0A9FB0121164803F0AEFBB7
:1034E0000121144803F0D4F90121124803F0DFFD53
:1034F0000121104803F0EAF94FF4FA70059003A98E
:103500000E4803F0EFF901210C4803F078FB01218C
:103510000A4803F0BDF90121084803F0C8FD012164
:10352000064803F0D3F90BB000BD0000001C0240B8
:1035300000200240000C0040000C02400008004047
:1035400010B500213A4803F026FB10BD30B58BB012
:1035500004460D460121402002F036FD0121802065
:1035600002F0EBFC0121402002F083FD002140200D
:1035700002F07FFD092206212E4802F0C8FA402001
:10358000099002208DF8280003208DF829000020E2
:103590008DF82A0002208DF82B0009A9254802F099
:1035A0002BFA6020ADF804000120ADF806000020E1
:1035B000ADF8100001A91E4803F094F908211C4839
:1035C00003F01DFB01211A4803F062F9681E079001
:1035D000601E80B2ADF818000020ADF81A00ADF8FA
:1035E000200006A9124803F0E8F80121104803F072
:1035F0006DF9FFF7A5FF0BB030BD10B5024643F6DD
:10360000BD600D4B03EB021333F811300B4C94FBF0
:10361000F3F398B210BD064A28321080121D1160D3
:10362000704710B504462146014803F0B4FA10BDB6
:1036300000180040001C0240AAC40008802C800032
:1036400000B58BB00121022002F077FC2020099008
:1036500002208DF8280003208DF8290000208DF825
:103660002A0001208DF82B0009A9224802F0C4F994
:10367000022205211F4802F04AFA0121022002F02D
:10368000A3FC0020ADF82000ADF81A0044F61F603E
:1036900007905320ADF8180000208DF8220006A9ED
:1036A000154803F08AF86020ADF804000120ADF859
:1036B000060000200390ADF8100001A90E4803F0A9
:1036C0004AF901210C4803F0A3FA01210A4803F04A
:1036D000DFF80121084803F0EAFC0BB000BD44F616
:1036E0002062424344F6206392FBF3F1024A3832EF
:1036F00011607047000402400004004000B587B02C
:103700000121202002F019FC0121080502F06DFCC6
:103710004FF46070059002208DF8180000208DF89D
:103720001A0001208DF81B0003208DF8190005A94F
:10373000264802F061F905220721244802F0E7F942
:1037400005220821214802F0E2F9052209211F483B
:1037500002F0DDF94020059001208DF818000020CE
:103760008DF81A0001208DF81B0003208DF8190038
:1037700005A9164802F040F94021144802F0B8F9B2
:103780004FF48270ADF802000020ADF80400ADF8EF
:1037900000004FF40070ADF80A000020ADF80E00F4
:1037A0000120ADF808000220ADF806002020ADF899
:1037B0000C000A20ADF810006946054802F05CFDD7
:1037C0000121034802F052FE07B000BD0014024080
:1037D000005001401FB50121102002F0F5FB3620FA
:1037E0008DF8000001208DF801008DF802008DF8A1
:1037F0000300684601F043F95320ADF804000020AF
:10380000ADF80600ADF80C004FF47A70029001A9F3
:10381000194802F0D2FF1FBD10B50121164803F070
:1038200055F801221146144803F068FC01211248A2
:1038300003F078FC10BD10B501210F4803F075FCB2
:10384000C0B101210C4803F081FC01210A4803F0BA
:1038500069FCFCF7CBFF09480068401C0749086079
:10386000084600686421B0FBF1F201FB120008B9C0
:10387000FDF71CF810BD000000100040D40300202C
:1038800010B596B004460121022002F056FB01213A
:10389000102002F0AAFB072211464C4802F037F92B
:1038A00014A802F0F1F88020149002208DF8540042
:1038B00001208DF8570002208DF8550000208DF86A
:1038C000560014A9414802F097F8414803F01AFD48
:1038D00010A803F0E4FD3F4810900020ADF844002C
:1038E000ADF846004FF48060ADF848000420ADF814
:1038F0004A000020ADF84C0010A9354803F069FDDE
:103900000121334803F0EDFD01224021304803F04E
:1039100095FE314801F016FE0121880502F00DFBED
:103920004FF0006000902A48001D01902B48029043
:103930000020039012200490002005904FF4806036
:1039400006900020079008904FF4807009904FF483
:1039500040300A9000200B900C900D900E9069461C
:103960001D4801F091FE012210211B4801F053FF78
:103970000121194801F0C2FE3A208DF83C000020D8
:103980008DF83D008DF83E0001208DF83F000FA816
:1039900001F075F816B010BD10B511490E4801F0D0
:1039A00057FF88B14FF081510B4801F020FF0C49BF
:1039B000094801F077FF094804F05EFF0948FEF767
:1039C000C2F80220FEF7CFF810BD0000000402404C
:1039D00000100140A086010040640240BC080020A5
:1039E000008020101A03002010B596B00446012173
:1039F000082002F0A2FA0121480502F09EFA0121F6
:103A0000480402F0E1FAFB4803F07CFC0121F9488C
:103A100003F07BFD07220521F74802F078F8072222
:103A20000621F54802F073F86020149002208DF80A
:103A3000540000208DF8560003208DF8550000201A
:103A40008DF8570014A9EC4801F0D6FF26208DF818
:103A50003C0002208DF83D0001208DF83E008DF8DD
:103A60003F000FA801F00BF810A803F018FD109408
:103A70000020ADF84400ADF84600ADF848000C2039
:103A8000ADF84A000020ADF84C0010A9D94803F069
:103A9000A0FC012240F22441D64803F0D8FD0122C7
:103AA0004021D44803F0CAFD0021D24803F019FD9B
:103AB000D24801F047FD4FF000600090CD48001D56
:103AC0000190CF48029000200390642004900020D1
:103AD00005904FF4806006900020079008900990B0
:103AE0004FF480300A9000200B900C900D900E90B7
:103AF0006946C248603001F0C7FD10208DF83C00D7
:103B000002208DF83D0001208DF83E008DF83F0029
:103B10000FA800F0B4FF01221021B848603001F076
:103B20007AFE0022B6496431B448603001F00DFEDF
:103B30000121B248603001F014FE0121AF4860302D
:103B400001F0DCFD16B010BD00B591B001214805B3
:103B500002F0F3F9A948783001F0F4FC4FF000606E
:103B60000190A448001D0290A648039040200490B4
:103B70004FF4C8700590002006904FF480600790C5
:103B80000020089009900A904FF400300B9000201C
:103B90000C9001200D9000200E900F9001A99748E5
:103BA000783001F071FD012210219448783001F045
:103BB00032FE012280218F4803F040FD11208DF854
:103BC000400002208DF8410001208DF842008DF860
:103BD000430010A800F053FF00218848783001F01E
:103BE0008DFD11B000BD70B504460D4600BF86487E
:103BF00000780028FBD10120834908702A4621461D
:103C0000804806F019F829467C48783001F097FD85
:103C100001217A48783001F071FD70BD10B57B4903
:103C20007648783001F014FE78B1784973487830DE
:103C300001F0DDFD00217148783001F05FFD0122C7
:103C400040F226616B4803F002FD10BD10B540F252
:103C50002771684803F036FD40B9002240F2266122
:103C6000644803F0F4FC00206749087010BD014669
:103C7000B1F8C800B1F8CA20904201D1C7207047FE
:103C8000B1F8CA00B1F8C820801A012806D0B1F8EE
:103C9000CA00B1F8C820801AC73008B90020EEE782
:103CA000B1F8CA00B1F8C820801A401E002806D416
:103CB000B1F8CA00B1F8C820801A401E05E0B1F87A
:103CC000CA00B1F8C820801AC73080B2D7E72DE902
:103CD000F04104460F4615462046FFF7C8FFA842AC
:103CE00027DB002D25DDB4F8C8002844C8280CDAED
:103CF000B4F8C81008192A46394605F09DFFB4F8F3
:103D0000C8002844A4F8C80016E0B4F8C800C0F100
:103D1000C806B4F8C81008193246394605F08CFFB9
:103D2000AA1BB919204605F087FFA81BA4F8C800F4
:103D300002E00020BDE8F0810120FBE710B540F271
:103D400024412C4803F0BEFC002852D00120304909
:103D5000A1F8CE00274800882648001D0088274883
:103D6000603001F00EFDE0BB00202A4908700022FF
:103D700010212248603001F04EFD00211F486030C4
:103D800001F0BCFC24491D48603001F08BFD1B484C
:103D9000603001F0D6FCC0F1640020490860642066
:103DA00016496431086015482838D0F8880040F476
:103DB000002012492839C1F888001848008882B2CA
:103DC0001448007800EBC00303EB00100C4B03EB2E
:103DD00080010F48FFF77BFF012210210748603068
:103DE00000E01DE001F017FD01210448603001F002
:103DF00085FC52E000440040000C02402860024074
:103E0000D60800206E0A0020D80300200080202061
:103E10009E090020D903002000880020DC03002038
:103E20000120CE49087000221021CD4801F0F3FC9A
:103E30000021CB4801F062FCCA49C94801F032FDBB
:103E4000C74801F07EFCC0F16400C74908606420E7
:103E5000C349091D0860C2488838D0F8880020F49A
:103E60000020BF498839C1F88800BF48008882B265
:103E7000BA48007800EBC00303EB0010BB4B03EB28
:103E80008001BB48FFF723FF01221021B44801F055
:103E9000C2FC0121B24801F031FC10BD10B5FFF7A2
:103EA000D5FEFFF74BFF10BD10B5AE49AC4801F091
:103EB000CFFCF0B1AB49AA4801F099FCA84801F049
:103EC00060FC08B9012000E00020A4490870A9485E
:103ED0000088A848001D00880846007800EBC00252
:103EE00002EB0010A14A02EB80016422A048FFF718
:103EF000EEFE10BD0146B1F8C800B1F8CA209042EC
:103F000001D100207047B1F8CA00B1F8C820801A6A
:103F1000012806D0B1F8CA00B1F8C820801AC7300D
:103F200008B9C720EEE7B1F8C800B1F8CA20801A76
:103F300005D4B1F8C800B1F8CA20801A05E0B1F87C
:103F4000C800B1F8CA20801AC83080B2DAE72DE97B
:103F5000F04107460C4615462046FFF7CBFFA84226
:103F600027DB002D25DDB4F8CA002844C8280CDA68
:103F7000B4F8CA0001192A46384605F05DFEB4F8C7
:103F8000CA002844A4F8CA0016E0B4F8CA00C0F178
:103F9000C806B4F8CA0001193246384605F04CFE8E
:103FA000AA1B2146384605F047FEA81BA4F8CA0004
:103FB00002E00020BDE8F0810120FBE730B50346B8
:103FC00001241846FFF796FFA0421CDB002C1ADDE7
:103FD000B3F8CA002044C82808DAB3F8CA001D5C48
:103FE000B3F8CA002044A3F8CA000AE0B3F8CA1024
:103FF000C1F1C800B3F8CA105D5C211AA3F8CA1059
:1040000000BF284630BD0020FCE72DE9F0410746FF
:104010000C462046FFF76EFF0546002D25DDB4F85F
:10402000CA002844C8280CDAB4F8CA0001192A4684
:10403000384605F001FEB4F8CA002844A4F8CA00C6
:1040400016E0B4F8CA00C0F1C806B4F8CA000119F5
:104050003246384605F0F0FDAA1B2146384605F0E9
:10406000EBFDA81BA4F8CA0002E00020BDE8F08127
:104070000120FBE72DE9F04781460D4617461C4617
:104080002846FFF737FF3919884221DB002C1FDD56
:10409000B5F8CA003844C82190FBF1F201FB1206C2
:1040A0003019C82805D2A9192246484605F0C4FD92
:1040B0000DE0C6F1C808A9194246484605F0BCFD06
:1040C000A4EB08022946484605F0B6FD00BF02E011
:1040D0000020BDE8F0870120FBE770B503460C46E1
:1040E00001251846FFF706FF611988420BDB002DFA
:1040F00009DDB3F8CA002044C82290FBF2F602FBA7
:104100001601585C70BD0020FCE710B503460C4654
:104110001846FFF7EFFEA04214DB002C12DDB3F8C7
:10412000CA002044C82805DAB3F8CA002044A3F81E
:10413000CA0009E0B3F8CA10C1F1C800211AA3F8F7
:10414000CA1001E0002010BD0120FCE70020084952
:10415000A1F8C800A1F8CA0070470000D9030020E8
:104160008860024000880020DC030020D608002080
:104170009E0900200044004010B596B0044601217D
:10418000082001F0DAFE0121480501F0D6FE0121E8
:10419000880401F019FF764803F0B4F807220821DB
:1041A000744801F0B4FC07220921724801F0AFFC09
:1041B0004FF48070149002208DF8540000208DF888
:1041C000560003208DF8550000208DF8570014A9E3
:1041D000684801F011FC4FF40070149002208DF833
:1041E000540001208DF8560003208DF85500012061
:1041F0008DF8570014A95F4801F0FEFB27208DF8C9
:104200003C0002208DF83D0001208DF83E008DF825
:104210003F000FA800F033FC10A803F040F9109401
:104220000020ADF84400ADF84600ADF848000C2081
:10423000ADF84A000020ADF84C0010A94C4803F03E
:10424000C8F8012240F22441494803F000FA012253
:104250004021474803F0F2F90121454803F041F9B4
:10426000454801F06FF94FF0006000904048001D94
:1042700001904248029000200390642004900020A6
:1042800005904FF4806006900020079008900990F8
:104290004FF480300A9000200B900C900D900E90FF
:1042A0006946354801F0F0F900223449643132485A
:1042B00001F04BFA0121304801F053FA01212E4858
:1042C00001F01CFA16B010BD10B540F22441284888
:1042D00003F0F8F900284AD0254800882448001D3A
:1042E0000088254801F04DFA00BB002024490870E1
:1042F0000021214801F002FA1F4801F022FAC0F122
:1043000064002049086064201B492839C8620846B7
:10431000806A40F4002088620121174801F0EEF91C
:1043200018480178154804F0B5FB20E00120144935
:1043300008700021104801F0E1F90F4801F001FA7E
:10434000C0F164000F49086064200B492839C86235
:104350000846806A20F4002088620121064801F0A6
:10436000CDF9084801780548643004F093FB10BD8E
:1043700000480040000C024028600240FE0B002074
:10438000E2030020E403002010B588B004460121B8
:10439000402001F0D2FD0121202001F026FE08225C
:1043A0000921314801F0B3FB08220E212E4801F00B
:1043B000AEFB4FF48440069002208DF81C000020D4
:1043C0008DF81E0003208DF81D0000208DF81F00C1
:1043D00006A9254801F010FB244802F093FF02A82B
:1043E00003F05DF802940020ADF80C00ADF80E006B
:1043F000ADF810000C20ADF812000020ADF814004C
:1044000002A91A4802F0E5FF47208DF804000220B7
:104410008DF8050001208DF806008DF8070001A831
:1044200000F02DFB012240F22551104803F00FF956
:1044300001210E4803F055F808B010BD10B540F248
:1044400025510A4803F03EF968B1084803F078F8AE
:1044500007490870054800880448001D0088084680
:10446000007804F0C6FC10BD0018024000140140A2
:10447000E803002010B588B004460121102001F0A7
:104480005CFD0121880701F09FFD082207213C48BF
:1044900001F03DFB08221146394801F038FB80202D
:1044A000069002208DF81C0000208DF81E000320CD
:1044B0008DF81D0001208DF81F0006A9304801F07D
:1044C0009BFA4FF48070069002208DF81C000020AB
:1044D0008DF81E0003208DF81D0001208DF81F00AF
:1044E00006A9274801F088FA264802F00BFF02A827
:1044F00002F0D5FF02940020ADF80C00ADF80E00DC
:10450000ADF810000C20ADF812000020ADF814003A
:1045100002A91C4802F05DFF52208DF80400012022
:104520008DF805008DF806008DF8070001A800F051
:10453000A6FA012240F22551124803F088F8012121
:10454000104802F0CEFF08B010BD10B540F2255162
:104550000C4803F0B7F890B10A4802F0F1FF0A499D
:104560000870084800880748001D00880846007841
:1045700004F0BCFB05480068401C0449086010BDFD
:104580000010024000780040F0030020EC030020FF
:1045900000B58BB00121802001F0CFFC0121080281
:1045A00001F0CBFC0121082001F00EFD4FF4E0509A
:1045B000099002208DF8280003208DF8290009A910
:1045C0008B4801F019FA0120099002208DF828008B
:1045D00003208DF8290009A9864801F00DFA02226E
:1045E0000A21834801F093FA02220B21804801F04E
:1045F0008EFA02220C217E4801F089FA0222002163
:104600007C4801F084FA1220ADF818000020ADF8C3
:104610001A00052007900020ADF8200006A9764872
:1046200002F0CBF87020ADF804000120ADF80600D0
:104630000020ADF8080003900220ADF81000002023
:10464000ADF81200ADF814004FF48070ADF816000C
:1046500001A9694802F046F901A9674802F07BF90F
:1046600001A9654802F0C4F901A9634802F026FADD
:104670000821614802F0C3FA08215F4802F0C8FA35
:1046800008215D4802F0D1FA08215B4802F0D6FA11
:104690000121594802F0FCF80021574802F016F9B0
:1046A0000BB000BD00B58FB00121480501F045FCFD
:1046B0000520FEF715FC0021504801F01FF84F4877
:1046C00000F040FF4FF0406000904B483C300190BC
:1046D0004B480290402003907920049000200590E0
:1046E0004FF48060069080000790800008900020C2
:1046F00009904FF480300A9000200B9003200C901A
:1047000000200D900E9069463C4800F0BDFF01224C
:104710001102394802F022FD0021384800F0EEFF76
:104720000121354802F0D2F80FB000BD10B535496F
:10473000324801F040F818B93348007801281CD0FD
:1047400001203149087031492C4801F050F800210E
:104750002A4800F0D3FF7921284800F0F0FF01211A
:10476000264800F0CBFF24481430008840F00100B8
:10477000214914310880012010BD0020FCE72DE9FB
:10478000F04105460C46052C02DD0020BDE8F08115
:1047900000211EE0002019E0072214E001EB410394
:1047A0002B441B5C134103F00103194EF35C01EB36
:1047B0004106F60006EBC006C2F107073E44104F63
:1047C00047F82630521E002AE8DA401C0328E3DBB3
:1047D000491CA142DEDB002004EB4401082202EB6D
:1047E000C101074A42F82100FFF7A0FF0120CDE7F1
:1047F000001C024000200240000C004010600240FB
:10480000F403002020000010D805002020800010B4
:10481000DAC40008704700BFFEE700BFFEE700BF34
:10482000FEE700BFFEE77047704770477047000023
:104830000CB50020019000908348006840F480305F
:104840008149086000BF8048006800F40030009093
:104850000198401C0190009818B90198B0F5A04F3C
:10486000F1D17948006800F4003010B101200090C7
:1048700001E0002000900098012860D1724840308B
:10488000006840F080507049403108606F4800680F
:1048900040F440406D4908606B48083000686A4940
:1048A000083108600846006840F400400860084687
:1048B000006840F4A05008606548091F0860081FA0
:1048C000006840F08070091F086000BF5E48006803
:1048D00000F000700028F9D05C48006840F4803097
:1048E0005A49086000BF5948406800F480300028E9
:1048F000F9D05648006840F400305449086000BFC1
:104900005248406800F400300028F9D040F20570A9
:10491000504908604C480830006820F003004A49BC
:10492000083108600846006840F00200086000BFD7
:1049300045480830006800F00C000828F8D10CBD8C
:1049400010B54548006840F47000434908603E488F
:10495000006840F001003C49086000203A490831F5
:104960000860394800683D490840374908603C48BC
:10497000091D0860081F006820F48020091F0860D6
:10498000002031490C310860FFF752FF4FF0006002
:1049900031498039086010BD70B500200022022323
:1049A00000240221284D08352D6805F00C0020B1A7
:1049B000042806D0082834D107E02A4D2A4E356055
:1049C00033E02A4D284E35602FE01F4D2D1D2D68F8
:1049D000C5F380541C4D2D1D2D6805F03F0154B1C9
:1049E000224DB5FBF1F5184E361D3668C6F3881614
:1049F00005FB06F209E01B4DB5FBF1F5124E361D25
:104A00003668C6F3881605FB06F20F4D2D1D2D687E
:104A1000C5F301456D1C6B00B2FBF3F5124E35601A
:104A200003E0104D104E356000BF00BF064D083545
:104A30002D68C5F303150E4E705D0B4D2D68C540F6
:104A4000094E356070BD0000003802400070004023
:104A50000C544007003C024088ED00E0FFFFF6FEEA
:104A6000103000240024F400DC050020001BB700F7
:104A7000E005002032490143324A1160704770B5A9
:104A8000002100230F22C4781CB32E4C246804F4A8
:104A9000E064C4F5E064C4F30721C1F10404E3B2A7
:104AA0000A4144789C40E1B28478144021430C07C9
:104AB000210E254C05786155047804F01F0501246A
:104AC000AC4005786D11AD0005F1E025C5F8004159
:104AD00009E0047804F01F050124AC401B4D067862
:104AE000761145F8264070BD194A0A400243154B1D
:104AF0001B1F1A60704739B1124A121D1268024317
:104B0000104B1B1D1A6006E00E4A121D12688243EC
:104B10000C4B1B1D1A607047042808D14FF0E02190
:104B2000096941F004014FF0E022116107E04FF004
:104B3000E021096921F004014FF0E0221161704782
:104B40000000FA050CED00E000E400E080E100E088
:104B500080FFFF1F10B50446FE48844209D10121A1
:104B6000480601F086FA00214FF0007001F081FA4A
:104B700008E00121880601F07CFA00214FF08060F6
:104B800001F077FA10BD30B502460020002314680A
:104B900024F002041460146844F00104146000E07E
:104BA0005B1C546804F001041CB94FF6FF74A34267
:104BB000F6D1546804F001040CB900206CE08C7943
:104BC000012C04D1146844F08004146003E01468DC
:104BD00024F080041460CC79012C04D1146844F0D2
:104BE0004004146003E0146824F0400414600C7A5C
:104BF000012C04D1146844F02004146003E014680C
:104C000024F0200414604C7A012C04D1146844F080
:104C10001004146003E0146824F0100414608C7A0B
:104C2000012C04D1146844F00804146003E01468F3
:104C300024F008041460CC7A012C04D1146844F0E8
:104C40000404146003E0146824F0040414608C78F5
:104C5000A407CD7844EA05640D7944EA05444D790A
:104C600044EA05540D886D1E2C43D461146824F069
:104C700001041460002300E05B1C546804F001048C
:104C80001CB14FF6FF74A342F6D1546804F001043E
:104C90000CB1002000E0012030BD10B50021837A66
:104CA000012202FA03F1AC4A126842F00102AA4B57
:104CB0001A60A94A1C3212688A43A74B1C331A6037
:104CC000027BCAB9A44A0C3212688A43A24B0C3345
:104CD0001A604288C38842EA03439F4A4032847A7A
:104CE00042F834300288838842EA03439A4A4032C9
:104CF000847A02EBC4025360027B012A19D1964ADE
:104D00000C3212680A43944B0C331A6042880388B1
:104D100042EA0343904A4032847A42F83430C288EF
:104D2000838842EA03438C4A4032847A02EBC4020D
:104D30005360C27A3AB9884A121D12688A43864B78
:104D40001B1D1A6006E0844A121D12680A43824B3A
:104D50001B1D1A60028932B97F4A143212688A43D5
:104D60007D4B14331A600289012A06D17A4A143223
:104D700012680A43784B14331A60427B012A06D129
:104D8000754A1C3212680A43734B1C331A60724A0C
:104D9000126822F00102704B1A6010BD002181716F
:104DA000C171017241728172C1728170C17003213F
:104DB0000171022141710121018070476649096832
:104DC00041F00101644A11601146096843F60E7210
:104DD0009143614A11601146096841EA002111605E
:104DE0001146096821F001011160704721B1026884
:104DF00042F48032026003E0026822F480320260F2
:104E00007047E1B1026842F0800202604FF4C27262
:104E1000125842F480734FF4C27213504FF4CA72A6
:104E2000125842F480734FF4CA7213504FF4D27286
:104E3000125842F480734FF4D27213501BE0026890
:104E400022F0800202604FF4C272125822F4807382
:104E50004FF4C27213504FF4CA72125822F4807386
:104E60004FF4CA7213504FF4D272125822F4807366
:104E70004FF4D2721350704710B502460020936869
:104E800003F08063B3F1806F00D110E0936803F00A
:104E90000063B3F1006F01D1012008E0936803F0D3
:104EA0008053B3F1805F01D1022000E00420042888
:104EB00079D002F5C07303EB00131B6803F0010403
:104EC00002F5C07303EB00131C600B7A7BB94B7ABD
:104ED0000C8843EA445302F5C07404EB00142468C0
:104EE000234302F5C07404EB0014236010E00B7A36
:104EF0004C6843EAC4034C7A234302F5C07404EBC4
:104F000000142468234302F5C07404EB00142360EA
:104F10008B7A03F00F038B7202F5C07303EB00135F
:104F20005B6823F00F0402F5C07303EB00135C60B1
:104F300002F5C07303EB00135B688C7A234302F520
:104F4000C07404EB001463608B7B1C064B7B44EA4B
:104F5000034403E000640040006600400B7B44EA29
:104F60000323CC7A234302F5C07404EB0014A3603E
:104F70008B7C1C064B7C44EA03440B7C44EA0323F1
:104F8000CC7B234302F5C07404EB0014E36002F50C
:104F9000C07303EB00131B6843F0010402F5C073F8
:104FA00003EB00131C6010BD10B50246002321B1B5
:104FB000012907D002290FD109E09068F94C00EAD5
:104FC00004030BE09068F84C00EA040306E09068E4
:104FD000F64C00EA040301E0002300BF00BFF44CDC
:104FE000181BA34216D007DC83B16FF08060184411
:104FF00070B1022818D111E0B0F5007F10D0ED4C4F
:10500000204448B1B0F5003F0ED10BE002230DE083
:1050100000230BE0002309E0002307E0012305E063
:10502000012303E0012301E0002300BF00BFD8B249
:1050300010BD21B1012907D002290FD109E08268F2
:1050400042F0800282600AE0826842F4004282609C
:1050500005E0826842F40002826000E000BF00BF09
:10506000704710B500F5D87303EB01131B6803F00C
:1050700004031372137A53B900F5D87303EB0113C9
:105080001B6840F2FF7404EA5353136009E000F513
:10509000D87303EB01131B686FF0604404EAD30379
:1050A000536000F5D87303EB01131B6803F0020390
:1050B000537200F5D87303EB01135B6803F00F0321
:1050C000937200F5D87303EB01135B681B0AD3746A
:1050D00000F5D87303EB01139B68D37200F5D87306
:1050E00003EB01139B681C0A147300F5D87303EBE0
:1050F00001139B681C0C547300F5D87303EB011368
:105100009B681B0E937300F5D87303EB0113DB68E8
:10511000D37300F5D87303EB0113DB681C0A147416
:1051200000F5D87303EB0113DB681C0C547400F515
:10513000D87303EB0113DB681B0E937421B9C368AA
:1051400043F02003C36003E0036943F020030361DD
:1051500010BD21B9C26842F02002C26003E00269BA
:1051600042F02002026170470246002019B9D3685C
:1051700003F0030006E0012903D1136903F00300E3
:1051800000E00020704710B502460B4600204FF6A5
:10519000FF71BBB9146824F0020444F001041460E8
:1051A00000E0491E546804F00304012C01D00029DA
:1051B000F7D1546804F00304012C01D0002032E040
:1051C000012030E0012B13D1146824F00304146093
:1051D00000E0491E546804F003040CB10029F8D122
:1051E000546804F003040CB100201CE001201AE014
:1051F000022B17D1146824F0010444F00204146057
:1052000000E0491E546804F00304022C01D0002978
:10521000F7D1546804F00304022C01D0002002E00E
:10522000012000E0002010BD014600200A6822F0A5
:10523000010242F002020A604A6802F00302022AF6
:1052400000D10120704701464FF6FF7200200B6825
:1052500023F002030B6000E0521E4B6803F00203D0
:10526000022B01D1002AF7D14B6803F00203022B75
:1052700000D001207047014600208A6902F07000CA
:105280007047014600208A69100E704701460020D1
:105290008A69C2F3074070471AB143690B434361FF
:1052A00002E043698B434361704710B5024600201A
:1052B00001F4700343B19369C1F3130423400BB1AC
:1052C00001202DE000202BE001F0807343B15368F2
:1052D000C1F3130423400BB1012021E000201FE0A3
:1052E00001F0006343B19368C1F3130423400BB191
:1052F000012015E0002013E001F0007343B1D368F2
:10530000C1F3130423400BB1012009E0002007E0A2
:105310001369C1F3130423400BB1012000E0002006
:1053200010BD0022244B994202D10023836111E079
:10533000C1F3130201F000730BB1C2600AE001F087
:1053400080630BB1026105E001F000630BB1826084
:1053500000E0426070470246002002EA01030BB100
:10536000012000E00020704770B504460D4600267D
:1053700060692840002872D0B5F5807F69D01DDCB7
:10538000082D42D006DC012D2DD0022D31D0042D68
:105390007FD134E0102D3ED0202D42D0402D78D149
:1053A00045E00000030000040003000800000310B3
:1053B000000100080001FFF77000F030B5F5004F64
:1053C00061D009DCB5F5007F4AD0B5F5806F4DD0CE
:1053D000B5F5006F5DD150E0B5F5803F2DD0B5F546
:1053E000003F56D12FE0A0685549FFF7B4FF0646AD
:1053F00051E0E0680321FFF7AEFF06464BE0E068AE
:105400000821FFF7A8FF064645E0E0681021FFF7F6
:10541000A2FF06463FE020690321FFF79CFF0646F6
:1054200039E020690821FFF796FF064633E020693E
:105430001021FFF790FF06462DE060680821FFF776
:105440008AFF064627E060681021FFF784FF0646C2
:1054500021E0A0690121FFF77EFF06461BE01BE06B
:10546000A0690221FFF777FF064614E0A069042136
:10547000FFF771FF06460EE00BE0A0697021FFF711
:105480006AFF064607E060680421FFF764FF0646EE
:1054900001E0002600BF00E00026304670BDB1F5F7
:1054A000007F3AD00FDC202928D006DC01291CD04F
:1054B00004291DD0082940D11DE0402921D0B1F593
:1054C000807F3AD126E0B1F5004F31D006DCB1F54E
:1054D000806F25D0B1F5006F2FD124E0B1F5803F6A
:1054E00012D0B1F5003F28D111E0154A826025E0C5
:1054F0000822C26022E01022C2601FE0082202617E
:105500001CE01022026119E00822426016E010221D
:10551000426013E00422426010E0042242600DE089
:10552000042242600AE0002282610422426005E017
:10553000002282610422426000E000BF00BF704789
:1055400001010100016821F00101016000210160F9
:1055500041608160C160016121214161DB49884274
:1055600004D13D21D94A103A91608CE0D7491831D5
:10557000884205D14FF47461D44A103A916082E0B8
:10558000D2493031884205D14FF47411CF4A103AD4
:10559000916078E0CD494831884205D14FF074617F
:1055A000CA4A103A91606EE0C8496031884204D11D
:1055B000C749C64A103AD16065E0C449783188428B
:1055C00004D1C449C14A103AD1605CE0BF4990316E
:1055D000884204D1C049BD4A103AD16053E0BB496A
:1055E000A831884205D14FF03D51B84A103AD160F8
:1055F00049E0BA49884204D13D21B84A083A1160CD
:1056000041E0B6491831884205D14FF47461B34A7C
:10561000083A116037E0B1493031884205D14FF482
:105620007411AE4A083A11602DE0AC494831884205
:1056300005D14FF07461A94A083A116023E0A749E7
:105640006031884204D1A249A44A121F11601AE0B5
:10565000A2497831884204D19E49A04A121F1160A4
:1056600011E09E499031884204D19B499B4A121F08
:10567000116008E09949A831884204D14FF03D51AA
:10568000964A121F1160704710B500220268944BB1
:105690001A40CC680B6823434C6923438C6923432D
:1056A000CC6923430C6A23434C6A23438C6A23430B
:1056B0004C6B23438C6B23431A430260426922F0F4
:1056C0000702D1E90B3423431A4342610B6943605B
:1056D0004B6883608B68C36010BD0021016041602E
:1056E0008160C160016141618161C16101624162AA
:1056F0008162C162016341638163704721B10268C5
:1057000042F00102026003E0026822F0010202603E
:10571000704721B1026842F40042026003E002686F
:1057200022F400420260704721B1026842F0200278
:10573000026003E0026822F02002026070474160CC
:1057400070470146486880B2704722B1036843F44D
:105750000023036003E0036823F400230360016176
:10576000704721B1026842F48022026003E00268BF
:1057700022F48022026070470AB1016100E0C1603A
:105780007047014600200A6802F400220AB1012095
:1057900000E000207047014600200A6802F0010284
:1057A0000AB1012000E000207047014600204A694C
:1057B00002F03800704730B503460A460020002446
:1057C000464DAB4202D24149103901E043491039FC
:1057D00002F000550DB14C6800E00C68414D2C40C2
:1057E00004EA02050DB1012000E0002030BD0246B0
:1057F0003A4B9A4202D23548103801E03748103807
:1058000001F000531BB1374B0B40C36002E0354B36
:105810000B408360704710B501F080034BB122B19B
:10582000436943F08003436103E0436923F080034D
:10583000436180290BD02AB1036801F01E04234381
:10584000036004E0036801F01E04A343036010BD7D
:1058500070B50246002000240025204EB24202D23C
:105860001A4B103B01E01D4B103B1F4E0E4036B152
:105870001E2606EAD124166806EA040502E05669E7
:1058800006F0800501F000560EB15C6800E01C686F
:10589000144E344004EA010616B10DB1012000E0B7
:1058A000002070BD02460D4B9A4202D207481038C4
:1058B00001E00A48103801F000531BB1094B0B40BE
:1058C000C36002E0074B0B408360704710600240EA
:1058D0003D000020400F002000003D2010640240E9
:1058E0003F801CF07D0F7D0F3C0F3C0F10B5044630
:1058F0009848844208D10121084600F087FB002126
:10590000012000F083FB76E09348844208D1012116
:10591000022000F07BFB0021022000F077FB6AE010
:105920008E48844208D10121042000F06FFB002141
:10593000042000F06BFB5EE08948844208D101211D
:10594000082000F063FB0021082000F05FFB52E01C
:105950008448844208D10121102000F057FB002127
:10596000102000F053FB46E07F48844208D101211B
:10597000202000F04BFB0021202000F047FB3AE004
:105980007A48844208D10121402000F03FFB0021E9
:10599000402000F03BFB2EE07548844208D10121F5
:1059A000802000F033FB0021802000F02FFB22E05C
:1059B0007048844208D10121801500F027FB0021A6
:1059C000A01500F023FB16E06B48844208D10121AA
:1059D000401500F01BFB0021601500F017FB0AE0EA
:1059E0006648844207D10121001500F00FFB002119
:1059F000201500F00BFB10BDF0B50A460021002376
:105A0000002400BF3DE0012505FA01F3156805EA11
:105A100003049C4234D105684F000326BE40B543C1
:105A2000056015794E00B540066835430560157967
:105A3000012D02D01579022D16D185684F0003265D
:105A4000BE40B543856055794E00B5408668354304
:105A50008560456801268E40B54345604568967966
:105A60008E40B6B235434560C5684F000326BE4040
:105A7000B543C560D5794E00B540C6683543C560AD
:105A8000491C1029BFD3F0BD4FF6FF710160002102
:105A9000017141718171C171704708B54FF4803255
:105AA0000092009A0A430092009AC261C161009A72
:105AB000C261C2690092C269009208BD024600201C
:105AC00013690B400BB1012000E000207047014634
:105AD000086980B270470246002053690B400BB141
