:020000040800F2
:10000000D01C0020B18C00086D5D00086F5D0008F9
:10001000735D0008775D00087B5D0008000000004C
:100020000000000000000000000000007F5D0008EC
:10003000815D000800000000835D0008855D000808
:10004000CB8C0008CB8C0008CB8C0008CB8C000834
:10005000CB8C0008CB8C0008CB8C0008CB8C000824
:10006000CB8C0008CB8C0008CB8C0008CB8C000814
:10007000CB8C0008CB8C0008CB8C0008CB8C000804
:10008000195300088D500008CB8C0008CB8C000859
:100090003B410008CB8C0008CB8C0008CB8C0008BF
:1000A000CB8C0008CB8C0008CB8C0008CB8C0008D4
:1000B000CB8C0008CB8C0008CB8C0008CB8C0008C4
:1000C000CB8C0008CB8C0008CB8C0008CB8C0008B4
:1000D000CB8C0008CB8C00080D5300083957000862
:1000E000CB8C0008CB8C0008CB8C0008CB8C000894
:1000F000CB8C0008CB8C0008CB8C0008CB8C000884
:10010000CB8C0008CB8C0008CB8C0008CB8C000873
:10011000CB8C0008CB8C0008A94C0008CB8C0008C5
:10012000CB8C0008CB8C0008094E0008CB8C000853
:10013000CB8C0008CB8C0008CB8C0008CB8C000843
:1001400063420008CB8C0008CB8C0008CB8C0008E5
:10015000CB8C0008CB8C0008CB8C0008AB58000877
:10016000CB8C0008CB8C0008CB8C0008CB8C000813
:10017000CB8C0008CB8C0008CB8C0008CB8C000803
:10018000CB8C0008CB8C0008BB590008355D0008FB
:10019000CB8C0008CB8C0008CB8C0008CB8C0008E3
:1001A0000000000000000000CB8C000800F002F806
:1001B00000F05EF80AA090E8000C82448344AAF1A3
:1001C0000107DA4501D100F053F8AFF2090EBAE8A1
:1001D0000F0013F0010F18BFFB1A43F0010318477B
:1001E00098E00000B8E000000A444FF0000C10F85E
:1001F000013B13F0070408BF10F8014B1D1108BFA5
:1002000010F8015B641E05D010F8016B641E01F844
:10021000016BF9D113F0080F1EBF10F8014BAD1C94
:100220000C1B09D16D1E58BF01F801CBFAD505E0B2
:1002300014F8016B01F8016B6D1EF9D59142D6D30C
:10024000704700000023002400250026103A28BF34
:1002500078C1FBD8520728BF30C148BF0B60704738
:100260001FB50DF010FA0BF0A0F81FBD10B510BDB2
:100270000BF059F91146FFF7F3FF00F023F80BF0EC
:1002800077F903B4FFF7F2FF03BC0BF077F9000036
:100290000B49D1F800C04A685CF8043B1068184468
:1002A00042F8040B8C4528BFA1F1DC0C8A4228BF20
:1002B000A1F1DC02C1F800C04A6020F000407047A4
:1002C000681600204FF4A06005F080FE03F05EFE8B
:1002D000002433E02E4890F90000082805DA2C4865
:1002E0000078C01C40B22A4908702A490968C1F345
:1002F0004F0004F0CEFB04EB4402274B03EB420219
:10030000917804EB440213F8120004F0AEFB0546AA
:100310002946092004F0B7FB04EB44011E4A02EB16
:1003200041018D8805EBD571481004F011F804F0F7
:100330003FFB1E2004F00CF8601C641C162CC9DB6B
:100340000020164908600821012000F00FFC012060
:10035000134908700BE0134800684FF47A71B0FB42
:10036000F1F201FB120010B9082009490870F2E708
:10037000F0EE400AF5EEC00AF1EE10FA02D2B1EE4C
:10038000600A01E0B0EE600AF0EE400A704700003B
:100390000C0000202C18004022DB0008B8824242EA
:1003A0001A00002068040020F9490870704710B551
:1003B000C024F8480088A0F5806000EE900AF8EEAE
:1003C000E00AB0EE600AFFF7D3FFDFEDF30AB4EE08
:1003D000E00AF1EE10FA01D8012000E00020044309
:1003E000EC484088A0F5806000EE900AF8EEE00A44
:1003F000B0EE600AFFF7BCFFDFEDE70AB4EEE00AFB
:10040000F1EE10FA01D8012000E0002044EA400497
:10041000E0488088A0F5806000EE900AF8EEE00ADF
:10042000B0EE600AFFF7A4FFDFEDDB0AB4EEE00AEE
:10043000F1EE10FA01D8012000E0002044EA800427
:10044000D448C088A0F5806000EE900AF8EEE00A7B
:10045000B0EE600AFFF78CFFDFEDCF0AB4EEE00AE2
:10046000F1EE10FA01D8012000E0002044EAC004B7
:10047000C848007A012807D0C648007A022803D06D
:10048000C448007A032801D1012000E0002044EA9A
:100490000014C048407A012807D0BE48407A02289C
:1004A00003D0BC48407A032801D1012000E000209D
:1004B00044EA4014FF2C07D00320FFF775FF1422F5
:1004C000B449B6480AF07AFF10BDB14800787047C9
:1004D00010B5FFF7FAFF08287ED2DFE800F011041C
:1004E0001E872B65584B00231A461946184608F0FC
:1004F0007BFC00231A461946184608F0A4FC82E04B
:1005000000231A461946184608F06EFC00231A46C6
:100510001946184608F097FC75E000231A4619465C
:10052000184608F061FC00231A461946184608F0E0
:100530008AFC68E09A4CE48823B2994CA48822B2E1
:10054000984CA48C21B2974C248C20B208F04CFC1F
:10055000954B93ED070ABDEEC00A10EE103A1AB2A1
:10056000924B9B8A19B2914B1B8D18B2002308F055
:100570006AFC48E000231A461946184608F034FC85
:1005800000231A461946184608F05DFC3BE000239C
:100590001A461946184608F027FC00231A46194641
:1005A000184608F050FC2EE07D4CE48823B27C4CC9
:1005B000A48822B27B4CA48C21B27A4C248C20B229
:1005C00008F012FC784B93ED070ABDEEC00A10EE5E
:1005D000103A1AB2754B00E008E09B8A19B2734BCF
:1005E0001B8D18B2002308F02EFC0CE000231A46E5
:1005F0001946184608F0F8FB00231A461946184613
:1006000008F021FC00BF00BF10BD10B56148008894
:100610006049498808445F49898808445D49C98818
:100620000844A0F5805000EE900AF8EEE00AB0EE23
:10063000600AFFF79DFEF2EE080AB4EEE00AF1EE62
:1006400010FA01DD00F0D7F910BD10B5FFF73DFF3E
:10065000082847D2DFE800F01F0427372F3D38363F
:100660005348006842F21071884213D9FFF7CDFF5A
:100670000020FFF799FE9FED4F0A4C4880ED030ADA
:100680004D4890ED000AF2EE040A20EE200A474899
:1006900080ED090A26E000F096FF0220FFF784FEB5
:1006A00001F09FFA1EE00620FFF77EFE00F08BFFB0
:1006B00001F097FA16E000F086FF01F092FA01F0DF
:1006C000D9F90FE00EE00DE001F0D4F900F07BFF66
:1006D00008E003F0B5F900F076FF01F082FA01F0CE
:1006E000C9F900BF00BF10BD10B52A48008840F20C
:1006F0009461081A00EE900AF8EEE00AB0EE600A83
:10070000FFF736FEF7EE000AB4EEE00AF1EE10FA5B
:100710003CD82048408840F29461081A00EE900AC4
:10072000F8EEE00AB0EE600AFFF722FEF7EE000AEC
:10073000B4EEE00AF1EE10FA28D816488088A0F549
:10074000B67000EE900AF8EEE00AB0EE600AFFF72D
:100750000FFEF7EE000AB4EEE00AF1EE10FA15D83B
:100760000C48C08840F29461081A00EE900AF8EE36
:10077000E00AB0EE600AFFF7FBFDF7EE000AB4EE08
:10078000E00AF1EE10FA01D800F035F910BD0000D2
:1007900010000020A8060020008025446C070020DF
:1007A000EA030020DC0800202C090020440000207F
:1007B0006804002000C041459806002010B5FFF7EE
:1007C00084FE94490870FFF780FE082805D2DFE810
:1007D00000F00504066507AA3F1CB3E0B2E0B1E0F3
:1007E0008D48007A032802D10620FFF7DDFD8A48F4
:1007F000007A032807D189480078032803D1864866
:10080000407A012800D000BF9CE08348C07CA0B99A
:100810008148807C88B98048B0F90A0000EE900ACF
:10082000F8EEE00AB0EE600AFFF7A2FDF0EE080A6B
:10083000B4EEE00AF1EE10FA02DD0420FFF7B4FD99
:100840007548007A022802D10520FFF7ADFD79E056
:10085000FFF74AFF7048007A01280DD1704890EDEB
:10086000000AF2EE040A20EE200A6E4880ED090A22
:100870000420FFF799FD10E06748007A02280CD1A8
:10088000674890ED000AF2EE040A20EE200A65485F
:1008900080ED090A0520FFF787FD53E062480068F4
:1008A000401C61490860614890F8360058BB5A48BE
:1008B0000088594949880844574989880844564955
:1008C000C9880844A0F5805000EE900AF8EEE00ACE
:1008D000B0EE600AFFF74CFDF2EE040AB4EEE00A57
:1008E000F1EE10FA0FD24E4890ED000AF2EE040A33
:1008F00020EE200A4B4880ED090A0420FFF754FD42
:10090000002049490860494890F8360050B94648E7
:10091000006841F27071884204D9002042490860A1
:1009200000F069F80EE03C48007A012802D104206A
:10093000FFF73AFD3848007A032802D10620FFF776
:1009400033FD00BF00BF3448407A3449087010BD01
:1009500010B53748007830B9354890F822000128A2
:1009600001D13449087008F0B8FF33480068052108
:10097000B0FBF1F201FB120008B903F02DFA01F00F
:100980000FFBFFF71BFF2D484078042802D10520FC
:10099000FFF70AFDFFF759FEFFF79AFDFFF707FD86
:1009A000254800687821B0FBF1F201FB120078B90C
:1009B000234890F90000002805DD21480078401EFA
:1009C00040B21F4908701E4890F9000003F083FDF3
:1009D0001C48B0F9000002F0CCFB10BDF0EE400A5C
:1009E000F5EEC00AF1EE10FA02DBB0EE600A7047D5
:1009F000B1EE600AFBE7BFF34F8F1348006800F4C5
:100A0000E06012490843001D0F490860BFF34F8F93
:100A100000BFFEE713000020A806002012000020FF
:100A20009806002044000020140000201403002039
:100A3000241500201100002068040020C0060020BA
:100A40000C000020F60300200CED00E00000FA0589
:100A500010B5FB4800780A2832DAF94800780028F7
:100A60002EDDF84800684FF41661B0FBF1F201FB8F
:100A70001200F34909784900C1EB011101EB810132
:100A8000B0EB410F2BD8EF4800684FF41661B0FB74
:100A9000F1F201FB120028B94FF48041EA4806F058
:100AA000D3FA1CE0E74800689621B0FBF1F201FBA5
:100AB0001200A0B94FF48041E34806F0D0FA0EE0EE
:100AC000DF4800780A2805DB4FF48041DE4806F055
:100AD000BDFA04E04FF48041DB4806F0B5FADB488C
:100AE00000780A2832DAD948007800282EDDD54867
:100AF00000684FF41661B0FBF1F201FB1200D3491C
:100B000009784900C1EB011101EB8101B0EB410F04
:100B10002BD8CC4800684FF41661B0FBF1F201FB12
:100B2000120028B94FF40061C94806F08DFA1CE0A4
:100B3000C44800689621B0FBF1F201FB1200A0B995
:100B40004FF40061C24806F08AFA0EE0BF48007810
:100B50000A2805DB4FF40061BD4806F077FA04E08F
:100B60004FF40061BA4806F06FFA10BD0A2801DDA3
:100B70000A2200E00246B24B1A700A2901DD0A225D
:100B800000E00A46B14B1A70704710B5B1480078C2
:100B900020B1012822D0022860D140E0AE48007880
:100BA000401CAD4908700846007850280ADB012037
:100BB000A84908705020A84908700020A74908706B
:100BC000A7490870A4480078C0F15000A5494870B2
:100BD000A14800780870002088703FE09F480078A6
:100BE000401C9E4908700846007850280BDB022004
:100BF000984908700020984908705020974908705B
:100C00000020974908700020964948709348007862
:100C1000C0F1500008709148007888701EE090483C
:100C20000078401C8E49087008460078502809DB7F
:100C30000020884908708849087088490870502049
:100C400087490870864800788649487000200870F7
:100C500083480078C0F15000887000BF00BF0020BA
:100C60004FE08149095C11B1012948D124E07F4955
:100C700001EB800191ED000ADFED7D0A30EE200AE4
:100C80007A4901EB800181ED000A784901EB80018E
:100C900091ED000ADFED770AB4EEE00AF1EE10FA0A
:100CA00009DB9FED740A714901EB800181ED000AB7
:100CB00001216D4A115422E06C4901EB800191ED54
:100CC000000ADFED6B0A30EE600A684901EB800133
:100CD00081ED000A654901EB800191ED000AB5EE56
:100CE000C00AF1EE10FA09D89FED630A5F4901EBE3
:100CF000800181ED000A00215B4A115400BF00BF52
:100D0000401C0528ADDB574840785649C870084656
:100D100001784171817801710078524988710846E3
:100D2000417801728178C17180784E4948720846D5
:100D30000178C1724178817200784A490873084687
:100D4000817881734178417300201EE0002119E011
:100D500000EB4002434B1A44525C00EE102AB8EEFE
:100D6000400A424A02EB8002D2ED000A20EE200A3D
:100D7000BCEEC00A10EE102A00EB4003394C2344AD
:100D80005A54491C0329E3DB401C0528DEDB10BD57
:100D9000027802F00101027852100270027842EAF1
:100DA000C1120270704710B5264800686421B0FB7C
:100DB000F1F201FB1200002841D100BF12E0002136
:100DC0000DE02E4A1278024102F00102642312FB68
:100DD00003F200EB4003234C23445A54491C0329DB
:100DE000EFDB401C0528EADB2448FFF7D1FF24484D
:100DF0000078401C224908700878C11700EB517137
:100E0000C910A0EBC10141B91E490978052904DCCC
:100E10001C480078401C1B49087000200BE0002192
:100E200006E0642200EB40030E4C23445A54491C54
:100E30000329F6DB401C134909788842EFDB10BD1B
:100E4000180000206804002000140240190000204F
:100E5000001002401B0000201C0000201D0000208C
:100E60001E000020800700201F000020240000201A
:100E70000AD7233CCDCCCC3E000000003800002037
:100E8000390000203A00002010B52148007810B940
:100E9000FFF789FF01E0FFF778FE05211D4804F008
:100EA000A6FE04F07BFE10BD0278D109027852063E
:100EB000120E027002780A430270704716480068EA
:100EC0004FF4FA71B0FBF1F201FB1200F0B900200F
:100ED00012E012490978642211FB02F100EB400292
:100EE0000C4B1A445170002100EB4002995400EB66
:100EF00040021A449170401C0528EADB074800783C
:100F000008B9012000E00020044908707047000083
:100F10001A00002080070020680400203B00002009
:100F200010B52DED048BF0EE408AB0EE609A9FED87
:100F3000FB0AB0EE408ADFEDFA0A9FEDFA0A18EEDE
:100F4000A00AB0EE408AB0EE480AFFF711FADFEDD2
:100F5000F60AB4EEE00AF1EE10FA06D29FEDF30ABB
:100F600028EE000AB0EE408A10E0B0EE480AFFF723
:100F7000FFF9DFEDEF0AB4EEE00AF1EE10FA05D268
:100F80009FEDEC0A28EE000AB0EE408AB0EE480A67
:100F9000BDEC048B10BDE848007801287ED1E748FD
:100FA000007820B1012828D0022825D185E0E44826
:100FB000008800EB80004FF4FA6101EBC00000EE06
:100FC000100AB8EEC00ADF4880ED030A406828B96D
:100FD000DD480068401CDC49086002E00020DA4976
:100FE0000860D9480068B0F5967F05D30020D6493F
:100FF00008600120D149087073E0D448D0490988BD
:1010000000EB8100D0ED000ACE4890ED000AB8EE6A
:10101000C00A30EE800ACD48C949098800EB81003A
:1010200080ED000ACA48C649098800EB8100D0ED6E
:10103000000AC44890ED050AB8EEC00A30EE800AF6
:10104000C348BF49098800EB810080ED000ABE4813
:101050000068401CBC49086008460068B0F52F7F56
:101060002AD3002008600220B4490870B748B44968
:10107000098800EB810090ED000ADFEDB60A80EEF2
:10108000201AB248AE49098800EB810080ED001AB1
:10109000AF48AB49098800EB810000E022E090ED09
:1010A000000ADFEDAC0A80EE201AA948A44909889D
:1010B00000EB810080ED001A13E0A14800881E2893
:1010C00008DA9F480088401C9D49088000209B4901
:1010D000087005E000209849087099490880704719
:1010E00000BF00BF00BFFAE770B52DED0A8B0446C4
:1010F0000D46994800680F21B0FBF1F201FB120088
:1011000000287DD195498988A1F580600BF0EDFE1E
:1011100041EC1C0B9FED920B53EC102B0BF04CFF92
:1011200041EC1B0B9FED900B53EC102B0BF056FD7D
:1011300041EC190B834890ED090A10EE101A08468D
:101140000CF030FA41EC1A0B53EC192B0BF092FC1B
:1011500041EC180B0BF05CFC7A494862084690EDB4
:10116000090ADFED830AB4EEE00AF1EE10FA06DDBB
:1011700090ED090ADFED7F0A30EE600A02E0714867
:1011800090ED090A6F4880ED090A90ED090ADFED3C
:101190007A0AB4EEE00AF1EE10FA06D290ED090AEE
:1011A000DFED740A30EE200A02E0664890ED090A8D
:1011B000644880ED090A6949C988A1F580600BF08F
:1011C00094FE41EC1C0B9FED6D0B53EC102B0BF0C0
:1011D000F3FE41EC1B0B9FED640B53EC102B0BF05B
:1011E000FDFC41EC190B574890ED030A10EE101A64
:1011F00008460CF0D7F941EC1A0B53EC192B00E020
:101200002CE00BF037FC41EC180B0BF001FC4D49C6
:10121000C860084690ED030ADFED5A0AB4EEE00A12
:10122000F1EE10FA02D29FED570A02E0454890ED28
:10123000030A444880ED030A90ED030ADFED520AE9
:10124000B4EEE00AF1EE10FA02DD9FED4F0A02E083
:101250003C4890ED030A3B4880ED030ABDEC0A8B45
:1012600070BD10B549480078012810D04748007873
:1012700068B93A48007A012803D0454890F822001E
:1012800028B930490C3101F11800FFF72DFFFFF7A5
:101290001CF904280BD14FF4FA703E4948614042D2
:1012A00008614FF4E6703C49486140420861FFF72D
:1012B00072FE244890ED030ADFED380A20EE200A82
:1012C000D0ED040A9FED361A00EE810A80ED040A83
:1012D000D0ED040A90ED000AB8EEC00A30EEC00A64
:1012E000DFED300AB4EEE00AF1EE10FA5EDD0068E0
:1012F00000F5005001EE100AB8EEC11AF0EE410AF6
:10130000104890ED041AB0EE410A274809F05AF946
:10131000BDEEC00A0B4880ED020A81E0000000002B
:101320002506094100ECA946000096449A99193F08
:101330000000FA43CDCC4C3E7A0100207B01002016
:101340007C010020440000208C0100209C0700202C
:101350003C08002000002F4468040020A80600205C
:1013600000000000008046400000000000A0844013
:101370000000E144000061450000E1C400000000FD
:10138000000039400000FA4400204B45780100205D
:1013900024150020B200002036010020CDCCCC3D29
:1013A0006666663F0000804570000020DB48D0ED97
:1013B000040A90ED000AB8EEC00A30EEC00ADFED74
:1013C000D80AB4EEE00AF1EE10FA16D20068A0F5E1
:1013D000005001EE100AB8EEC11AF0EE410ACF48F3
:1013E00090ED041AB0EE410ACE4809F0EBF8BDEEDC
:1013F000C00ACA4880ED020A12E0C84890ED001AFF
:10140000B8EEC11AF0EE410A90ED041AB0EE410AAE
:10141000C44809F0D7F8BDEEC00AC04880ED020A02
:10142000BE4890ED090AC048D0ED000AB2EE041A99
:1014300000EEC10A5FED320AB4EEE00AF1EE10FAF6
:1014400017DDD0ED001A1FED351AB2EE042A01EEB9
:10145000821AF0EE410AB14890ED091AB0EE410A45
:10146000B24809F0AFF8BDEEC00AAC4880ED080AFA
:101470003EE0AA4890ED090AAB48D0ED000AB2EE72
:10148000041A00EEC10A5FED440AB4EEE00AF1EE80
:1014900010FA17D2D0ED001A1FED4A1AB2EE042A44
:1014A00011EE821AF0EE410A9C4890ED091AB0EE56
:1014B000410A9E4809F086F8BDEEC00A974880EDC3
:1014C000080A15E0984890ED001AF2EE041A21EE91
:1014D000211AF0EE410A914890ED091AB0EE410A46
:1014E000924809F06FF8BDEEC00A8C4880ED080AFA
:1014F0008F4890ED091AF0EE410A884890ED021AE3
:10150000B8EEC11AB0EE410A8A4809F05BF8BDEEA8
:10151000C00A824880ED050A854890ED0A1AF0EE6F
:10152000410A7E4890ED081AB8EEC11AB0EE410AA1
:10153000814809F047F8BDEEC00A784880ED0A0AF4
:1015400090ED031AF0EE410A90ED031AB0EE410A55
:10155000FFF7E6FC7148D0ED050AF8EEE00A30EE40
:10156000200ABDEEC00A80ED050A406947F23051FD
:10157000884201DD084601E06848406967494861E2
:10158000084640696D49884201DA084601E063482F
:101590004069624948610846806A47F23051884292
:1015A00001DD084601E05D48806A5C4988620846C2
:1015B000806A6249884201DA084601E05748806A39
:1015C0005649886210BD10B55948D0ED0A0AB0EEF0
:1015D000600A01F0FAFA544890ED000A01F0E2FACC
:1015E0004E48D0ED000AF8EEE00AB0EE600A01F0D5
:1015F000C6FAFFF736FE494890ED090ABDEEC00A6B
:101600004F4880ED000A10BD01464E4890ED000A9B
:10161000F7EE000A70EEC00A4B4890ED000AB8EEF3
:10162000C00A60EE800A00EE101AB8EEC00A454803
:1016300090ED001A40EE010ABDEEE00A434880ED4D
:10164000000A0068404A1060404800687047421A2B
:1016500000EE902AF8EEE00AB1EE601ADFED3C1AD7
:10166000C1EE210AB0EE001A60EE810A9FED391A30
:1016700060EE810AB0EE600A704770B50246002045
:101680000021354B1B68934202DA334B1B6800E0A4
:1016900013461A46304B1B6D934202DD2E4B1B6DD9
:1016A00000E013461A46002106E02B4B53F8313078
:1016B000934200DC02E0491C0B29F6DB00BF09293C
:1016C00001DD092300E00B461946234C4B1C04EBBB
:1016D000C3035B6804EBC10464681B1B1E4C54F815
:1016E0003140A41A63431C4C54F8315026464C1C1C
:1016F00056F834402C1B93FBF4F3344604EBC1043E
:101700006468181970BD014600207047F0EE400A69
:10171000B2EE0E0A20EE800A70470000440000205E
:10172000000080C57000002098060020F400002012
:10173000C8120020B200002036010020D08AFFFF2E
:10174000400000208801002080010020840100204A
:1017500000000046DA0F49409CD60008B0EE401A5F
:10176000F7EE001AB0EE610AB0F5FA7F0AD8C34965
:10177000897A322906DDDFEDC21AF4EEE10AF1EED4
:1017800010FA3AD8BF4991F83810012907D103213E
:10179000BD4A1170F6EE001AB0EE610A2DE0B749AD
:1017A000897A01EE901AF8EE611A70EEE11AF0EE05
:1017B000610ADFEDB61A9FEDB62A42EE201AB0EEAE
:1017C000610AF7EE001AB4EEE10AF1EE10FA02DD5A
:1017D000F7EE001A01E0F0EE401AB0EE610ADFED1C
:1017E000AB1AB4EEE10AF1EE10FA02D2DFEDA71A5D
:1017F00001E0F0EE401AB0EE610A704710B5FEF756
:1018000064FE04283CD100BFA2480088A0F5806097
:10181000A149B1F90010401A01280CDD9D4800884B
:10182000A0F580600A2806DD9C480088401C00B2B4
:101830009A4908801FE097480088A0F58060964983
:10184000B1F90010401AB0F1FF3F0DDA914800885D
:10185000A0F5806010F10A0F06DA90480088401E5B
:1018600000B28E49088006E08A480088A0F58060B2
:1018700000B28A4908808948B0F90000864908808A
:1018800010BD10B52DED048BFEF71FFE042817D1F7
:10189000002013E09FED820A10EE101A00EB4012B8
:1018A000804B03EB420251609FED7F0A10EE101A4D
:1018B00000EB401203EB42021162401C0228E9DBFC
:1018C000FEF703FE042801D1FFF798FF7348B0F933
:1018D0000000B0F5E16F02DD4FF4E16002E06F4817
:1018E000B0F900006D4908800846B0F9000010F515
:1018F000E16F01DA6D4802E06848B0F9000067491D
:1019000008800846B0F90000C0EB00106849886004
:101910006248B0F900004042C0EB0010C8600846C1
:1019200090ED001AB8EEC11AF0EE410A90ED021ADD
:10193000B8EEC11AB0EE410A5A4808F043FEBDEEB7
:10194000C00A5B4880ED080A90ED011AB8EEC11A92
:10195000F0EE410A90ED031AB8EEC11AB0EE410A5A
:101960005048423008F02EFE524880ED000A90EDBB
:10197000000ABDEEC00A4E4880ED090AFEF7A5FD3B
:10198000052806D13D48007A18B900204849086268
:1019900048624748D0ED080AF8EEE00AB0EE600A67
:1019A000FEF7E6FCB0EE409A4148D0ED090AF8EEA9
:1019B000E00AB0EE600AFEF7DBFC39EE000ABCEE8E
:1019C000C00A10EE104A3C48008901EE100AB8EE39
:1019D000411AF0EE410A3848406800EE100A2046ED
:1019E000FFF7BCFE354880ED000A314890ED080A4B
:1019F000B8EEC00A3148D0ED000A20EE200AB0EE61
:101A0000408A2B4890ED090AB8EEC00A2B48D0ED69
:101A1000000A20EE200AF0EE408ABDEEC80A2448F3
:101A200080ED080ABDEEE80A80ED090A006A42F27C
:101A30001071884202DD08461D4908621C48006A90
:101A40001F49884202DA0846194908621848406A64
:101A500042F21071884202DD084615494862144876
:101A6000406A1749884202DA084611494862BDECCB
:101A7000048B10BD10B5FFF704FF10BD0404002057
:101A80000000484214030020680200200AD7233DCA
:101A9000E73EBB3CA80600206A0200205602002058
:101AA0000AD7233C90010020007C1248F8F8FFFF81
:101AB000DC08002064020020811400206002002065
:101AC000F0D8FFFFFE48B0F90000FD49B1F9081059
:101AD000401A022812DAFA480088401C00B2F8497D
:101AE00008800846B0F9000000EE100AB8EEC00AFF
:101AF000084680ED010AF3480068C860704710B5D9
:101B00000446F1480078012853D102F0E6F9EF4984
:101B1000087008460078012835D1ED48008890B358
:101B2000EC48007A032809D0EB480078032805D157
:101B3000E848407A022801D1FFF7C4FFE148006875
:101B40005021B0FBF1F201FB1200E0B9E148007A4C
:101B5000032818D0DF48407A022814D1DD48408895
:101B6000A0F5806000EE900AF8EEE00AB0EE600AA0
:101B7000FEF7FEFBDFEDD90AB4EEE00AF1EE10FA53
:101B800001DDFFF79FFFD348007A032811D0D24828
:101B9000007803280DD1CF48407A012809D1FEF7FB
:101BA00094FC052805D0207808B9012000E0002029
:101BB0002070C848407AC849087010BD10B5C848A0
:101BC000FFF79DFFBE48B0F9000000EE100AB8EE26
:101BD000C00ADFEDC40A20EE200AB94880ED050AEC
:101BE00010BD10B5FEF771FC05280FD10020BE49CD
:101BF0000860BE48008818B1BD484078052813D158
:101C00000020B3490880B64908700DE00120B649AC
:101C10000860B3480078012803D11220AC4908803D
:101C200002E00020AA49088001F068FAFFF7C6FF29
:101C3000A34890ED050ABDEEC00AAE4880ED050A46
:101C400090ED001AB8EEC11AF0EE410A90ED051AB7
:101C5000B8EEC11AB0EE410AA74808F0B3FCBDEED9
:101C6000C00A10EE100A00B2A2490883A3480088F7
:101C7000C0F57A709A4909784843C0F57A70A0494E
:101C800008809C48B0F9100001EE100AB8EEC11AA5
:101C9000F0EE410A9748B0F9180001EE100AB8EECC
:101CA000C11AB0EE410A974808F08CFC914880EDCB
:101CB000070A10BD70B504460D4616468548007CDF
:101CC000012807D136B97F4800888F490880002055
:101CD0008E490870601B00EE900AF8EEE00AB0EE44
:101CE000600AFEF745FBF0EE000AB4EEE00AF1EE02
:101CF00010FA0ED28548007801280AD001208349C5
:101D0000087070480088824908807F4800888149AF
:101D100008807F4800887F490988401A80B270BDDA
:101D20001420674908830A21654881767047704707
:101D3000704770B504460D4629686869401A7649AF
:101D40000860084690ED000AB8EEC00AFEF710FBE6
:101D5000F1EE080AB4EEE00AF1EE10FA14DDB5F97E
:101D6000100000EE900AF8EEE00AB0EE600AFEF70E
:101D7000FFFAF2EE040AB4EEE00AF1EE10FA03D232
:101D8000606A401C606201E000216162606A642850
:101D900007D994F8200020B9012084F820005F4979
:101DA000087094F82000012848D15C480078012888
:101DB00004D0022811D003283FD12CE02868323803
:101DC00057490860084690ED000AB8EEC00A84ED55
:101DD000050A0220514908702FE0514890ED000A91
:101DE000B8EEC00A84ED050A4D4928680968401A12
:101DF00000EE900AF8EEE00AB0EE600AFEF7B8FADC
:101E0000DFED480AB4EEE00AF1EE10FA02D2032048
:101E10004249087011E0002084F820003F49087012
:101E200020892080B4F9000000EE100AB8EEC00A44
:101E300084ED010A0021616200BF00BF70BD10B5D2
:101E4000137BD47A43EA04231BB28B80947B537BAD
:101E500044EA03231BB20B828B898C881B1B1BB2A9
:101E6000CB81B1F90E30B3F5805F04DD8B6803F5EB
:101E700000538B6008E0B1F90E3013F5805F03DA90
:101E80008B68A3F500538B60B1F904408B68234441
:101E900000EE103AB8EEC00ADFED230A80EE201AF9
:101EA000BDEEC10A81ED000A8B888B8191ED000A9D
:101EB000B8EEC00ADFED0B0A80EE201A36E0000013
:101EC0000409002068040020F9020020F802002024
:101ED000EA030020A8060020090300200000C842F1
:101EE000F0020020BC749341B4024342D1060020AA
:101EF000C00600202C0900206C020020F202002005
:101F0000F4020020AE02002006030020000300209F
:101F100004030020020300200C0300201003002013
:101F2000FC0200200000204200007A44BCEEC10AFE
:101F300010EE103A1BB2038110BD000001884FF66D
:101F4000FE72914202DA0188491C0180704700212B
:101F500001807047034602EB42004000984202DADB
:101F60000120087001E0002008700878704752498D
:101F700031F81010491C8AB24F4921F810207047DF
:101F800000200AE04C4931F810201A3921F81020BD
:101F900000221A3121F81020401C0D28F2DB704776
:101FA00010B5464800684FF47A71B0FBF1F201FBBE
:101FB000120008B9FFF7E4FF002411E03E4942395E
:101FC00001EB4400FFF7BAFF3B4B5C3B33F81420B6
:101FD000343319191A3B33F81400FFF7BBFF641CA4
:101FE0000D2CEBDB34485C3890F83900012802D125
:101FF00000203349087033480078012823D12E4847
:102000005C3890F83500012809D12C480068B0F5FB
:10201000FA6F04D901202C4908602C490880FEF78A
:1020200054FA05280FD008200BE023492839095C11
:10203000012905D1891E244A116001B2234A118069
:10204000401C0C28F1DD1C485C3890F83600012853
:1020500015D1FEF73AFA012806D0FEF736FA18B184
:10206000FEF733FA022803D10320FEF79DF906E0BC
:10207000FEF72BFA052802D00520FEF795F9144843
:10208000C07CA0B91248807C88B91148B0F90A0018
:1020900000EE900AF8EEE00AB0EE600AFEF768F98A
:1020A000F0EE080AB4EEE00AF1EE10FA02DD0020CC
:1020B0000449087010BD000070030020680400206F
:1020C000241500208A030020900300208C030020A8
:1020D000A8060020704770B52DED088B04469FEDD3
:1020E000FE0AB0EE408A00EE104AB8EEC00ADFEDFC
:1020F000FB0A80EE201A11EE105A28460BF052FA15
:1021000041EC1B0BB0EE4B0AF0EE6B0A09F0B0FC91
:10211000B0EE40AAF0EE60AA9FEDF10B53EC102B4D
:1021200051EC1A0B0AF048FF41EC190B0AF070FC55
:1021300008EE100AEC4880ED008AB2EE080AB4EE10
:10214000C08AF1EE10FA02DDB2EE080A01E0B0EE4C
:10215000480AB0EE408ABAEE080AB4EEC08AF1EE40
:1021600010FA02D2BAEE080A01E0B0EE480AB0EE68
:10217000408AB0EE480ABDEC088B70BDDB4A01FB1B
:10218000012300EE903A01EE902AF8EEE11AB8EE43
:10219000E02AC1EE822AB0EE621ADFEDCF1AB0EE6D
:1021A000610A01EE900AF8EEE11A61EE811A9FEDE4
:1021B000CB2AC1EE822AB0EE620ADFEDCD1A60EEC4
:1021C000211AB0EE610A7047CA4991ED000ADFEDAD
:1021D000CA0A60EE200A00EE100AB8EE400A9FED2F
:1021E000C71A41EE000AC1ED000A91ED000ADFEDC9
:1021F000C40AB4EEE00AF1EE10FA03D20021C14A9B
:10220000117023E0BB4991ED000ADFEDBF0AB4EE87
:10221000E00AF1EE10FA0CDD91ED000ADFEDBB0AE9
:10222000B4EEE00AF1EE10FA03D20121B54A1170C2
:102230000CE0B04991ED000ADFEDB50AB4EEE00A1A
:10224000F1EE10FA02DD0221AE4A1170AD490978B3
:1022500021B1012921D002295DD13DE01021AD4AF3
:102260001180A44991ED000ADFEDA80AB4EEE00A5E
:10227000F1EE10FA03DD0221A24A11700CE09D4933
:1022800091ED000ADFEDA00AB4EEE00AF1EE10FADB
:1022900002DD01219B4A11703DE015219D4A11800C
:1022A000944991ED000ADFED9A0AB4EEE00AF1EEEE
:1022B00010FA03DD0221934A11700CE08D4991ED73
:1022C000000ADFED8F0AB4EEE00AF1EE10FA02D256
:1022D00000218C4A11701EE01A218E4A1180854916
:1022E00091ED000ADFED880AB4EEE00AF1EE10FA93
:1022F00003D20021834A11700CE07E4991ED000A5F
:10230000DFED820AB4EEE00AF1EE10FA02D201210A
:102310007C4A117000BF00BF704710B52DED088BCF
:102320000446F0EE409AB0EE608A9FED7B0AF0EE34
:10233000408A9FED7A0AB4EEC08AF1EE10FA03DD0E
:102340009FED760AB0EE408A9FED750AB4EEC08A22
:10235000F1EE10FA03D29FED720AB0EE408A9FEDC3
:10236000710A28EE000ADFED700A80EE201AB0EE46
:10237000418A19EE900A0BF015F941EC1B0B9FED09
:102380006B0B53EC102B0AF015FF03D29FED690A7B
:10239000F0EE409A684890ED000AC9EE800A9FED81
:1023A000671A9FED670AB0EE40AA00EE81AA28EEF8
:1023B0000A9AB4EEE89AF1EE10FA01DDB0EE689AEE
:1023C000B1EE680AB4EEC09AF1EE10FA03D2B1EEA3
:1023D000680AB0EE409A94ED000A30EE090A84EDE6
:1023E000000ABDEC088B10BD10B52DED088B04461E
:1023F000F0EE409AB0EE608A9FED520AF0EE408A0D
:102400009FED510AB4EEC08AF1EE10FA03DD9FEDA4
:102410004E0AB0EE408A9FED4D0AB4EEC08AF1EE4E
:1024200010FA03D29FED490AB0EE408A19EE900AE5
:102430000BF0B8F841EC1B0B9FED3C0B53EC102B51
:102440000AF0B8FE03D29FED3B0AF0EE409A3A48FC
:1024500090ED000AC9EE800A9FED3D1A9FED3D0AFE
:10246000B0EE40AA00EE81AA28EE0A9AB4EEE89AED
:10247000F1EE10FA01DDB0EE689AB1EE680AB4EE42
:10248000C09AF1EE10FA03D2B1EE680AB0EE409AAB
:1024900094ED000A30EE090A84ED000ABDEC088BC9
:1024A00010BD30B52DED108B81B00446B0EE408AE2
:1024B000B2EE000AB4EEC08AF1EE10FA03DDB2EE1D
:1024C000000AB0EE408A9FED240A38EE400AB0EED2
:1024D000408A94ED000A41E0000000000080B6440C
:1024E0000000006066A64C40940300209086200007
:1024F00000007242E40300209A99193FCDCCCC3EF3
:102500000000A543E80300200000B9430000024496
:1025100000001144EA03002000002042000016439E
:10252000000016C30000004600006145666666664E
:10253000666616403333B340A0030020CDCC8C3FF9
:102540000AD7A33D0000B4420000FA430000FAC3DA
:10255000AE47913F295C8F3DCDCCCC3DDFEDFE0AEF
:1025600030EEC00ADFEDFD0A20EE20FA1FEE100A61
:102570000BF018F841EC1A0BB0EE4A0AF0EE6A0ABA
:1025800009F00AFDB0EE409AF0EE609A51EC190B9A
:102590000AF03EFA08EE900A1FED310A8DED000AAE
:1025A0001FED330AF0EE40FA1FEE100A0AF0FAFFB0
:1025B00041EC1B0B9FEDEA0A68EE000AB7EE000A39
:1025C00008EEE80A20EE800AE648D0ED000A08EEA0
:1025D000E00AD0ED000A80EE201A11EE105A2846CB
:1025E0000AF0E0FF41EC1E0BB0EE4E0AF0EE6E0A70
:1025F00008F0F6FFB0EE40DAF0EE60DA51EC1D0BB9
:102600000AF0FAF941EC1C0B53EC1B2B0AF032FADE
:1026100041EC1A0B9FEDD40B53EC102B0AF0CCFCC1
:1026200041EC190B0AF0F4F900909DED000ADFED82
:10263000D00A20EE200AF0EE40FA1FED460A2FEEF7
:10264000800A9FEDCC1AC0EE010A9FEDC30A30EE5E
:10265000600A84ED000AB0EE6F0A01B0BDEC108B89
:1026600030BD01464F2901DD4F2200E00A461146E8
:10267000C14A1288521A10B2002802DA00F1500240
:1026800000E0024610B2BD4A02EB800292ED000A61
:10269000704701464F2901DD4F2200E00A461146EE
:1026A000B74A1288521A10B2002802DA00F150021A
:1026B00000E0024610B2B34A02EB800292ED000A3B
:1026C0007047DFEDB10AB4EEE00AF1EE10FA03DD77
:1026D000DFEDAD0AB0EE600ADFEDAC0AB4EEE00A61
:1026E000F1EE10FA03D2DFEDAA0AB0EE600A32284A
:1026F00000DD322010F1320F01DA6FF0310000EB13
:1027000080014900A34A116000EE900AF8EEE00A49
:1027100070EE800AB2EE041A60EE810A9E49C1EDA5
:10272000060AD1ED070A1FED8C1A60EE810A91EDC1
:10273000061A5FED8E1A41EE810AC1ED070AD1ED4E
:10274000060AB2EE041A60EE810AFDEEE00A934931
:10275000C1ED000A9049D1ED070AB2EE041A60EE0D
:10276000810AFDEEE00A8E49C1ED000A704701467C
:10277000632901DD632200E00A461146894A128876
:10278000521A10B2002802DA00F1640200E0024698
:1027900010B2854A02EB800292ED000A704770B5D4
:1027A0002DED0A8B05460C46FDF78FFE052803D15B
:1027B00079494888FFF708FD7C48008878B17B4854
:1027C000008800EE100AB8EE400A794880ED000A51
:1027D00090ED000A20EE000A624880ED000A75487C
:1027E00090ED0A0AF2EE040A20EE200ABDEEC00ABD
:1027F000714880ED000A714890F83900012803D132
:1028000000206549487008706D48007A022818D188
:1028100061480078012814D15F48408840F2EE21D9
:1028200088420EDC01205C4981F82200B420654911
:10283000486140420861962063494861404208610E
:102840000FE00020544981F822004FF4FA705D49EE
:102850004861404208614FF4E6705B49486140427C
:1028600008614D480078012809D15848007814289B
:1028700008DA56480078401C5449087002E00020ED
:10288000524908700A2051490870434991F82010B4
:10289000481DFFF76CFF404880ED050A90ED050AE2
:1028A000F2EE040A20EE200ABDEEC00A484880ED90
:1028B000000A394A1289A2F2C63211B2364AB2F976
:1028C0001000FFF75BFC434880ED000A3F480078AA
:1028D00003280FDD3048D0ED050AB0EE600A3D4810
:1028E000D0ED000AFDEEE00A10EE900A00B2FFF70C
:1028F000E8FE04E000209FED380AFFF7E2FE3348CF
:1029000000780A2810DA3148007800EE100AF8EE54
:10291000400AB2EE041A80EE810A1F48D0ED070A81
:1029200020EE200A80ED070A1B4890F822000128BB
:102930007DD11948408800EE100AB8EE400AF2EE48
:10294000010A80EE801A11EE106A30460AF02AFE63
:1029500041EC1C0B42E0000000C041458010493AA8
:10296000CDCC1C41A4030020000000000000E03F8B
:10297000333365420000B443CC0300204C090020EF
:10298000CE0300208C0A002000004842000034C220
:10299000000048C2B003002024150020B40300202A
:1029A000B8030020D0030020CC0B0020EA03002055
:1029B000A0030020C8120020BC0300201403002044
:1029C000A8060020B200002036010020CA03002023
:1029D000A8030020AC03002000000000B0EE4C0A69
:1029E000F0EE6C0A09F044F8B0EE40BAF0EE60BACE
:1029F0009FEDFE0B53EC102B51EC1B0B0AF0DCFA95
:102A000041EC1A0B0AF004F808EE900AF94991F823
:102A10002110083988B2FFF73CFEF2EE040A20EEDE
:102A2000200AB0EE408ABDEEC80AF34800E0A3E0F9
:102A300080ED000AEF4991F82110491F88B2FFF795
:102A400010FEB0EE409AEB490989A1F2C63108B2F6
:102A5000FFF741FBB2EE041AF0EE480A40EE010A1D
:102A600030EEE80A85ED000AE2494989A1F26221C7
:102A700008B2FFF730FBDFEDE10A60EE200A1FED40
:102A8000431A80EE810A39EE400A84ED000AD948E3
:102A900090ED010ADFEDDA0A80EE201AF0EE419A9D
:102AA000B0EE690A2046FFF7FCFCD64880ED000A2C
:102AB000D0480089D4490880CE484088B0F5C87F06
:102AC0002DDACC48408800EE100AB8EE400ADFED5F
:102AD000CC0A80EE201AF0EE419AC64890ED070A23
:102AE000F0EE400AB0EE690A2846FFF77DFCC148C7
:102AF000408800EE100AB8EE400ADFEDC10A80EE11
:102B0000201AF0EE419AC14890ED020AB8EEC00AD0
:102B1000F0EE400AB0EE690A2046FFF7FEFB94EDA6
:102B2000000ADFEDBB0AB4EEE00AF1EE10FA02DDB6
:102B30009FEDB70A01E094ED000A84ED000A94EDE0
:102B4000000ADFEDB40AB4EEE00AF1EE10FA02D2A8
:102B50009FEDB00A01E094ED000A84ED000A95EDC6
:102B6000000AAD48D0ED000AB2EE041A00EEC10A28
:102B7000AA4880ED000A00BFBDEC0A8B70BDA848D2
:102B8000A849098800EB810080ED000AA54800886B
:102B9000401CA449088008460088502801DB00201A
:102BA00008807047A048A149098800EB810080EDAA
:102BB000000A9E480088401C9C49088008460088FE
:102BC000502801DB002008807047994899490988FE
:102BD00000EB810080ED000A96480088401C954972
:102BE000088008460088642801DB002008807047C0
:102BF00070B52DED088B0446B0EE408A00EE104A09
:102C0000B8EEC00AC8EE000A10EE905A28460AF044
:102C1000C9FC41EC1B0BB0EE4B0AF0EE6B0A08F05E
:102C200027FFB0EE40AAF0EE60AA51EC1A0B09F0B3
:102C3000EFFE09EE100AB0EE490AFDF799FBF3EE3C
:102C4000090A20EE200AF0EE408AB0EE680ABDECD8
:102C5000088B70BD2DE9F0412DED0A8BB0EE409A46
:102C600004460D460026642104FB01F0C11700EB69
:102C700011710911491D09EE901A00EE105AB8EEB3
:102C8000C00ADFED6D0A80EE201A11EE107A384688
:102C90000AF088FC41EC1C0BB0EE4C0AF0EE6C0A1A
:102CA00008F0E6FEB0EE40BAF0EE60BA9FED630BBE
:102CB00053EC102B51EC1B0B0AF07EF909F0A8FE27
:102CC00008EE100AB8EEE90A20EE090ADFED5D0A07
:102CD00080EE201AF0EE418A202C3FDD292C1EDDEB
:102CE000B0EE490AFDF744FBF0EE400A9FED560AAC
:102CF000B1EE001A00EE810AA4F1280000EB80007A
:102D0000000100EE900AF8EEE00A30EE200ABDEE77
:102D1000C00A10EE100A00B24C4908805EE0B0EE26
:102D2000490AFDF725FBF0EE400A9FED490AB0EE97
:102D3000001A00EE810AA4F1140000EB8000C0002C
:102D400000EE900AF8EEE00A30EE200ABDEEC00A6E
:102D500010EE100A00B23D4908803FE0B0EE490A8B
:102D6000FDF706FBDFED3B0AB4EEE00AF1EE10FAE8
:102D700003D24FF4967035490880B0EE490AFDF74A
:102D8000F7FADFED350AB4EEE00AF1EE10FA04D2FC
:102D90004FF4FA702D49088020E0B0EE490AFDF7A3
:102DA000E7FADFED2E0AB4EEE00AF1EE10FA04D2F3
:102DB0004FF42F702549088010E0B0EE490AFDF766
:102DC000D7FADFED270AB0EE001A40EE010ABDEE99
:102DD000E00A10EE100A00B21C490880282C00DD21
:102DE0002824B2EE040A28EE000A3BE000000000AE
:102DF00000E8814024150020C403002000000046A4
:102E00000000C84298030020C803002044000020AE
:102E1000004049450080F74498060020C003002088
:102E20004C090020CC0300208C0A0020CE03002097
:102E3000CC0B0020D003002066E6E74400000060D1
:102E400066A64C4000401C4600007A44E203002085
:102E500000001644000020420000704200000243BF
:102E600000002F44BDEEC00A10EE100A00B2644903
:102E70000880B2EE040A28EE800ABDEEC00A10EE09
:102E8000100A00B25F49088038EE880AF2EE040AA0
:102E900020EE200ABDEEC00A10EE100A00B25A4918
:102EA000088078EE880AB0EE600AFDF761FAB0EEAD
:102EB00040AA9FED560A2046FFF79AFEB4EEC0AA3C
:102EC000F1EE10FA38D252480078401C5049087090
:102ED00008460078322801DD322008704C4800781E
:102EE00002282CDD4B4890ED031AD0ED000AF8EED5
:102EF000E00A71EE600AB0EE600AFDF739FAF3EE0F
:102F0000070AB4EEE00AF1EE10FA18D2424890F83F
:102F10003900A0B94148D0ED070AB0EE600AFDF7CC
:102F200027FADFED3F0AB4EEE00AF1EE10FA06D21E
:102F30002E2C04DC012602E00020354908703046C2
:102F4000BDEC0A8BBDE8F08110B5344890F8220042
:102F5000012813D1314A1289A2F2C63211B22F4A86
:102F6000528810B22D4AD2ED060AB0EE600AFFF781
:102F700071FE012800D110BD0020FCE70020FAE717
:102F800010B50024244890F83900A8BB2348408994
:102F9000A0F2622000EE900AF8EEE00AB0EE600ABD
:102FA000FDF7E6F9F3EE0E0AB4EEE00AF1EE10FAE0
:102FB00024D21A480089A0F2C63000EE900AF8EE3A
:102FC000E00AB0EE600AFDF7D3F9F1EE040AB4EEC0
:102FD000E00AF1EE10FA11D21048D0ED060AB0EE78
:102FE000600AFDF7C5F95FED650AB4EEE00AF1EE9F
:102FF00010FA03D2012401E0FFE70024204610BDAF
:10300000E0030020DE030020DC0300203333B33E66
:10301000E9030020440000201403002024150020B0
:103020000000CD43282801DA282200E0024610469D
:1030300040F65A22904200DD00E0024610462D4A3A
:103040001288824208D12B4A1288821A02EB42026D
:1030500012B2294B1A804CE0264A1288824220DAAA
:10306000244A1288821A02EB420212B2224B1A80C0
:103070001A46B2F90020322A01DA322202E01E4A50
:10308000B2F900201C4B1A801A46B2F900208A427D
:1030900001DD0A4602E0184AB2F90020164B1A80F8
:1030A00027E0144A1288824223DD124A1288821ACB
:1030B00002EB420212B2104B1A801A46B2F90020FB
:1030C00012F1320F02DD6FF0310202E00A4AB2F96A
:1030D0000020094B1A801A46B2F900204B429A424E
:1030E00001DA4A4202E0044AB2F9002012B2024B6D
:1030F0001A807047FE0600205602002066480088AD
:1031000000B266490880644800880C2804DA4FF44D
:103110007A70614988800BE06148008800F25B406A
:103120005D4909880A3901EB810108445A498880C0
:103130005948008958498988401A012805DB5648B2
:103140000089401E544908810AE0534800895249C9
:103150008988401A04D550480089401C4E4908818E
:103160004D4800894F4908604B480089091D086097
:1031700070474D494D4A128821F812004B49098881
:10318000491C4A4A118011460988962901DB002111
:10319000118070470246952A01DD952000E0104617
:1031A000024642480088801A01B2002902DA01F181
:1031B000960000E0084601B23B4830F91100704724
:1031C00010B52DED028BB0EE408AB2EE040A28EE67
:1031D000000ABCEEC00A10EE100A354908802E48DD
:1031E000008800EE900AF8EE600A78EE600AB0EE11
:1031F000600AFDF7BDF8DFED2F0AB4EEE00AF1EE4C
:1032000010FA08DD2448008828B12B480088401CAB
:103210002949088002E000202749088026480088C4
:10322000012833DD7820FFF7B5FF00EE100AB8EE75
:10323000C00A1948008800EE900AF8EE600A70EEA5
:10324000C80AB0EE001A00EE810ABDEEC00A10EE08
:10325000100A00B2124908800846B0F90000182888
:1032600001DD182002E00E48B0F900000C4908808A
:103270000846B0F9000010F1180F02DA6FF01700DD
:1032800002E00748B0F9000005490880BDEC028B58
:1032900010BD014670470000EA0300200004002032
:1032A000F60300203C0C00405C0D0020F8030020D9
:1032B000FA030020CDCC8C3FFC03002010B5FC4865
:1032C0000078FC490870FC4800684FF4FA71B0FBC4
:1032D000F1F201FB1200A8BBF8480088002804DDC9
:1032E000F6480088401EF5490880F5484088B0F54A
:1032F000C87F0EDBF2484088F2490988081A1E2868
:1033000003DB0120F049087011E00020EE4908704D
:103310000DE0EB484088EB490988081A142803DBC4
:103320000120E949087002E00020E7490870E348FD
:103330000088002802DD0020E3490870E04840884A
:10334000E0490880E148007830B101283DD00228EA
:1033500047D003287ED145E0A020DD498872DD48B2
:10336000007801280FD14FF47A7140F20460FFF722
:1033700059FED948008840F2D25188420FDD002022
:10338000D44908700BE04FF47A710020FFF74AFE31
:10339000D1480088322802DA0120CE490870C4489A
:1033A0000078012810D1C248408840F2EE218842BE
:1033B0000ADC0120C5490870C648007808B9012018
:1033C00000E00020C34908704AE00020C34908809B
:1033D000C3480068B0F5487F02D90020BB49087097
:1033E0003EE03DE0BF480068401CBE4908605A20EE
:1033F000B749887240F2DC510020FFF713FEB54850
:10340000007801280FD140F2DC5140F67E10FFF722
:1034100009FEB148008840F2DC5188420FDD0020EF
:10342000AC4908700BE040F2DC510020FFF7FAFDD8
:10343000A9480088282802DA0120A6490870A9486E
:103440000068B0F5FA6F09D30020A64908609F49CB
:10345000087000E003E00120A349087000E000BF0D
:1034600000BFA248007810B101285CD15CE0904810
:103470000078012813D18E48408840F2EE2188421E
:103480000DDC012099490870994890ED000AF2EE90
:10349000040A20EE200A974880ED090A39E0944892
:1034A000D0ED000A9FED940AB2EE041A00EE810AF4
:1034B000904880ED090A9148007810B1012827D181
:1034C00013E09FED8F0A8B4880ED030A8D4800685A
:1034D000401C8C49086008460068FA2804D900207E
:1034E000086001208549087012E09FED870A814835
:1034F00080ED030A85480068401C8449086008463E
:103500000068FA2803D9002008607C49087000BFD1
:1035100000BFA0207E4948614042086196207D4955
:103520004861404208613CE050207949486140428E
:103530000861642077494861404208615C4800782E
:10354000012809D15A48408840F2EE21884203DC24
:1035500000206349086004E061480068401C60493D
:1035600008605F480068B0F5487F02D900205F49D5
:103570000870514800685021B0FBF1F201FB1200C5
:1035800070B957480068B0F5C87F09D200F0A5FCB3
:10359000012805D160480078012801D1FEF792FA90
:1035A00000BF00BF5D4800685D49086010BD01466E
:1035B000B1F5127F01DC0120704740F26260814268
:1035C00001DC0220F8E70320F6E710B50446012CE1
:1035D00004D0022C22D0032C67D142E0514800785D
:1035E00001280ED14FF47A714FF41270FFF71AFDD3
:1035F00039480088B0F5037F0FDD00204949087085
:103600000BE04FF47A710020FFF70CFD3248008880
:10361000462802DA01204349087046E04248007813
:1036200001280FD14FF47A7140F26260FFF7FAFC83
:103630002948008840F22661884211DD00203A497D
:1036400008700DE04FF47A714FF41270FFF7EAFC46
:1036500021480088B0F5217F02DA01203249087044
:1036600023E03248007801280FD14FF47A7140F6F8
:103670007E10FFF7D7FC1848008840F642118842B8
:1036800012DD0020294908700EE04FF47A7140F2F3
:103690006260FFF7C7FC1048008840F29E618842D4
:1036A00002DA01202149087000BF00BF10BD0000F0
:1036B0002415002029040020680400202004002094
:1036C000701400203204002018040020020400209E
:1036D0000404002030040020FE06002056020020D2
:1036E00024040020340400202204002003040020CD
:1036F00098060020440000200000204331040020F0
:1037000000002F45380400200000FA443C0400204B
:10371000B200002036010020F00200201C0400202E
:103720002C0400204004002041040020420400201A
:1037300010B5FE480078052844D2DFE800F00344C5
:10374000596F9D000120FA4908720846C088F9495E
:103750000988884204DD4FF46170F749088009E068
:10376000F348C088F3490988884203DA4FF67C4061
:10377000F1490880EE48C088EE490988401A00EEF9
:10378000900AF8EEE00AB0EE600AFCF7F1FDDFED1A
:10379000EB0AB4EEE00AF1EE10FA13D2E448C08866
:1037A00018B90120E14908700CE0E148C08840F6F2
:1037B0007E11884203D10220DC49087002E0032018
:1037C000DA490870B3E0DB480088002803DD4FF6D3
:1037D0007C40D94908800020D5490872D54890F925
:1037E000040010F10A0F02DB0420D04908709EE0AB
:1037F000D048008840F67E11884203DA4FF46170A9
:10380000CD4908800020CA490872CA4890F90400CE
:103810000A2802DC0420C549087088E00020C44959
:1038200008720846C07A40B9C2480088C9888842F0
:103830000CDB0420BD49087008E0BE480088BC4984
:10384000C988884202DC0420B8490870B94890F958
:10385000040000EE900AF8EEE00AB0EE600AFCF711
:1038600087FDDFEDB70AB4EEE00AF1EE10FA02D2FE
:103870000420AE4908705AE0B248006807F080FDA5
:1038800000BFFCF705FDAA498988A94A5288891A10
:1038900090FBF1F201FB1200A54949880844A449B4
:1038A000C8800846C088A3490988401A00EE900ADB
:1038B000F8EEE00AB0EE600AFCF75AFDDFEDA20A6E
:1038C000B4EEE00AF1EE10FA00D2DAE79848C088C8
:1038D00040F67E11081A00EE900AF8EEE00AB0EE0B
:1038E000600AFCF745FDDFED990AB4EEE00AF1EE5F
:1038F00010FA04D240F67E108D49C88006E08C484C
:10390000C088FA2802DA00208949C8808848C0881F
:1039100088490988884203DD01208549C87202E090
:1039200000208349C87200208049087000BF00BF92
:1039300010BD8748007820B101282DD002287DD104
:1039400053E07C480088002803DD4FF6E0407A49C8
:1039500008807848807818B176480088642803DAAF
:1039600000207349087202E0012071490872714811
:1039700090F9040010F10A0F0DDD6E480088C82888
:1039800009DA7448007818B901207149087002E01A
:1039900002206F49087051E06648008840F67E11A9
:1039A000884203DA4FF44870634908806148C07860
:1039B00028B16048008840F61A11884203DD0020D3
:1039C0005B49087202E0012059490872594890F990
:1039D00004000A2808DA5748008840F6B6018842F1
:1039E00002DD00205A49087028E05248008840F261
:1039F000DC51884203DA4FF448704F4908804D4843
:103A0000008840F2DC51081AB0F5967F12DA0020E7
:103A100047490872474890F90400282806DB4548C2
:103A2000008840F2DC51081A3C2806DA0020484998
:103A3000087002E001203E49087200BF00BF7047D5
:103A400010B53B48007830B1012817D002282AD0A1
:103A5000032850D12BE0FFF76CFF3F480078012886
:103A600002D10220324908703148C0683B490968D8
:103A7000884202D003202E4908703CE000202C49E7
:103A800008720846C06835490968884202D0032098
:103A90002749087026480069B0F5487F02D9002000
:103AA0002349087027E001202149087023E02C48B1
:103AB0000068401C2A490860FFF73AFE2948408800
:103AC000B0F5C87F0BDB2648006842F210718842CF
:103AD00010D9002022490860154908700AE02048E2
:103AE000006847F23051884204D900201C49086020
:103AF0000F49087000BF00BF0D48C068174909682A
:103B0000884206D040F6B8301749086003200849BB
:103B100048720748C068114908601348006820B11E
:103B200011480068401E104908601FE05D04002035
:103B300004040020FE060020560200200000AF43CF
:103B400000002042680400200000164400007A4370
:103B50005C040020280400202415002044040020D8
:103B60005004002070140020480400208848006899
:103B700018B9A020874948720CE0854800680128E0
:103B800008D185480089322804DD8348007A32381C
:103B900080498872814800683221B0FBF1F201FB54
:103BA0001200E8B97B48807A7A49497A88420DDA6E
:103BB0007A480068C821B0FBF1F201FB120078B925
:103BC0007448807A401C7349887209E07148807A91
:103BD0007049497A884203DD6E48407A6D4988729F
:103BE0006C48407810B101285CD15CE06C480078EA
:103BF000012813D16A48408840F2EE2188420DDC4A
:103C0000012064494870674890ED000AF2EE040A0A
:103C100020EE200A644880ED090A39E06148D0EDC1
:103C2000000A9FED620AB2EE041A00EE810A5E48B5
:103C300080ED090A5E48007810B1012827D113E011
:103C40009FED5C0A584880ED030A5B480068401C01
:103C50005949086008460068FA2804D9002008601D
:103C600001205349087012E09FED540A4E4880ED40
:103C7000030A53480068401C514908600846006820
:103C8000FA2803D9002008604949087000BF00BF26
:103C9000AA204C4948614042086196204A4948613F
:103CA0004042086148E0502046494861404208616E
:103CB000642045494861404208613948007801283C
:103CC00009D13748408840F2EE21884203DC0020C9
:103CD0003049086104E02F480069401C2D49086103
:103CE0002C480069B0F5487F02D900202949487066
:103CF000642436480088122801DA3C2406E0334860
:103D00000088172801DA642400E07824234800683A
:103D1000B0FBF4F104FB110068B91E480069B0F56E
:103D2000C87F08D200F0D9F8012804D127480088BC
:103D300008B1FDF7C7FE00BF00BF10BD0188B1F597
:103D4000007F17D18179FE2914D1C1795A2907D171
:103D500001211F4A117040F204610E4A918009E06E
:103D6000C179A52906D10021194A117040F67E11AA
:103D7000084A9180704721B9064AD268521C054B07
:103D8000DA60032902D10422124B1A807047000026
:103D9000480400200404002081140020680400204E
:103DA0002415002098060020440000200000204335
:103DB0004C04002000002F45540400200000FA4469
:103DC00058040020B200002036010020EA03002041
:103DD00028040020200400206148008861490988E7
:103DE00088420CD05E48D0ED010A5F48D0F802004E
:103DF00000EE100A30EE800A594880ED010A4FF4B7
:103E0000F07057490881594800686E21B0FBF1F203
:103E100001FB1200F0BB5248D0ED010A00894000BE
:103E200000EE100AB8EEC00AF4EEC00AF1EE10FA85
:103E300009DD4B480089400000EE100AB8EEC00AC8
:103E4000474880ED010A464890ED010AF3EE000A6A
:103E500030EE600A80ED010A90ED010AB5EEC00A6D
:103E6000F1EE10FA02D29FED420A02E03C4890EDDA
:103E7000010A3B4880ED010A3E48408900EE100AE5
:103E8000B8EE400A3648D0ED010A30EE600AF2EE94
:103E9000040A00E016E0B4EEE00AF1EE10FA08DBE6
:103EA0003448408900EE100AB8EE400A2C4880EDF4
:103EB000010A2B4890ED010ABCEEC00A10EE100A70
:103EC0002D490880264800882649088070472448E4
:103ED0000088401C224908807047284890F8380024
:103EE00020BB1F4890ED010ADFED250A70EEC00AE5
:103EF0002448B0F90000400000EE100AB8EEC00AF5
:103F0000F4EEC00AF1EE10FA01DD012070471E4800
:103F100000891D4908800846B0F9000000EE100A2B
:103F2000B8EEC00A084680ED010A16E01548B0F95F
:103F30000000A02393FBF0F0401E01B24FF47A7012
:103F400090FBF1F002B21048C068084B1B68181AC9
:103F5000904201D30120D9E700BF0020D6E700003E
:103F6000880E0020600400209F14002068040020B8
:103F700000000000811400205E04002014030020D3
:103F80000000F043000400200409002010B54FF4A5
:103F9000A06002F01BF8A82000F078F900F050FAB9
:103FA00000F0F6F900F0DFFA642000F0D1F900200B
:103FB00000F0FAFA012000F0F7FA022000F0F4FA1B
:103FC000032000F0F1FA00F03BF800F0CBF805F028
:103FD0001BF90021084600F048FD0446214609204F
:103FE00000F0ECFC00F094FB00F0FAFA00F060FD49
:103FF000114800F07DFE4FF4E13001F0F5FA4FF486
:10400000FA2001F03FFE4FF4E13001F06BFC00F0CC
:10401000ADFD4FF4FA7000F09BF905F02CFE00F0B6
:1040200011FE4FF4FA7000F093F900F02EFE01201B
:104030000249087010BD0000A08601006204002043
:1040400000B58BB00121082003F023FA01214806B6
:1040500003F066FA0121480603F0B7FA00214FF099
:10406000007003F0B2FA0320099002208DF82800B6
:1040700000208DF82A0003208DF8290001208DF8FA
:104080002B0009A9354802F063FF092200213348BB
:1040900002F0E9FF09220121304802F0E4FF00208C
:1040A0008DF81E0001208DF81F0000208DF82000E3
:1040B0008DF821008DF822008DF823008DF81A006C
:1040C0008DF81B0008208DF81C0003208DF81D00C2
:1040D000ADF8180006A9224802F001F800208DF87A
:1040E00012008DF8130001208DF814000020ADF8A7
:1040F0000800ADF80A00ADF80C00ADF80E00ADF800
:10410000100001208DF8150002A802F072F80122BB
:104110000221134802F06CFB14208DF804000120EA
:104120008DF8050000208DF8060001208DF80700AD
:1041300001A801F050FF0BB000BD00B585B0022111
:10414000074802F0BDFB30B10221054802F053FCE4
:10415000684604F0D5FD05B000BD0000000C02402B
:104160000064004000B58BB00121022003F091F9FA
:104170000121880603F0D4F90121880603F025FA0D
:1041800000214FF0806003F020FA4FF44050099076
:1041900002208DF8280000208DF82A0003208DF8D9
:1041A000290001208DF82B0009A9364802F0D0FE25
:1041B00009220C21334802F056FF09220D21314813
:1041C00002F051FF00208DF81E0001208DF81F0025
:1041D00000208DF820008DF821008DF822008DF848
:1041E00023008DF81A008DF81B0008208DF81C00A4
:1041F00003208DF81D00ADF8180006A9224801F033
:104200006EFF0E208DF8120000208DF813000120A3
:104210008DF814000020ADF80800ADF80A00ADF8E4
:104220000C00ADF80E00ADF8100001208DF815005F
:1042300002A801F0DEFF01220221134802F0D8FAA1
:1042400040208DF8040001208DF8050000208DF835
:10425000060001208DF8070001A801F0BCFE0BB09C
:1042600000BD00B585B00221074802F029FB30B13E
:104270000221054802F0BFFB684604F02CFF05B0A0
:1042800000BD0000000402400068004010B5044674
:104290006FF0040001F0ECFEE11704EB5171C1F383
:1042A000C701394A11701046007800EB4001C1EB9C
:1042B000C0104FF6FF7101EAC0003449088010BDFC
:1042C0000146314A12784A434FF0E0235A610022F6
:1042D0009A611A46126942F001021A6100BF4FF05A
:1042E000E022106900F001021AB100F48032002AC5
:1042F000F5D04FF0E022126922F001024FF0E023E6
:104300001A6100229A6170470146204A12884A4386
:104310004FF0E0235A6100229A611A46126942F076
:1043200001021A6100BF4FF0E022106900F00102A3
:104330001AB100F48032002AF5D04FF0E022126961
:1043400022F001024FF0E0231A6100229A617047C7
:1043500070B504464FF4077094FBF0F0C6B24FF40A
:10436000077094FBF0F100FB114085B205E04FF4BB
:104370000770FFF7C9FF701EC6B2002EF7D115B146
:104380002846FFF7C1FF70BD6404002066040020CA
:104390001CB50121402003F07CF84FF40050009040
:1043A00001208DF8040000208DF8060003208DF810
:1043B00005006946044802F0CBFD4FF40051024865
:1043C00002F044FE1CBD0000001802401CB5012193
:1043D000402003F05EF84FF4FF70009001208DF84C
:1043E000040000208DF8060003208DF80500012050
:1043F0008DF8070069464F4802F0AAFD02214D489A
:1044000002F022FE04214B4802F01EFE082149481A
:1044100002F01AFE1021474802F016FE20214548FE
:1044200002F012FE4021434802F00EFE8021414876
:1044300002F00AFE4FF480713E4802F005FE1CBDFA
:104440001CB50121102003F024F80121202003F0E5
:1044500020F84FF40060009001208DF80400002047
:104460008DF8060003208DF8050001208DF8070067
:104470006946314802F06CFD4FF480400090012005
:104480008DF8040000208DF8060003208DF805004B
:1044900001208DF807006946284802F059FD0120E7
:1044A0002749086000202749C1F8AC02FFF78EFFBA
:1044B0001CBD10B5014601200AE0421E41FA02F27D
:1044C00002F00102204C04EB8003C3F88022401C60
:1044D0000928F2DB10BD30B504460025082C01DDAB
:1044E000082000E02046044614F1080F02DA6FF0BD
:1044F000070000E020460446002C09DB002004E011
:10450000012181402943CDB2401CA042F8DB0BE0E1
:10451000002006E0C0F10802012191402943CDB2FC
:10452000401C61428842F5DBE843C5B22846FFF7EC
:10453000C0FF30BD001802400010024000140240CD
:10454000B8824242000042420000434210B5044695
:10455000032C00DD10BD0420A04081B21F4802F0F2
:1045600075FD00BFF6E71CB50121802002F091FF28
:104570003C20009001208DF8040000208DF80600FA
:1045800003208DF8050001208DF8070069461348C7
:1045900002F0DEFC002404E02046FFF7D7FF601C99
:1045A000C4B2042CF8DB1CBD10B50446032C00DD9E
:1045B00010BD0420A04081B2084802F045FD00BFB4
:1045C000F6E710B50446032C00DD10BD0420A04022
:1045D00081B2024802F043FD00BFF6E7001C024032
:1045E00000B58BB00121802002F053FF01210802A9
:1045F00002F04FFF0121082002F092FF4FF4E0503B
:10460000099002208DF8280003208DF8290009A9BF
:10461000E24802F09DFC0120099002208DF828005C
:1046200003208DF8290009A9DD4802F091FC02223F
:104630000A21DA4802F017FD02220B21D74802F0C6
:1046400012FD02220C21D54802F00DFD02220021AC
:10465000D34802F008FD5320ADF818000020ADF853
:104660001A0042F20F7007900020ADF8200006A952
:10467000CC4803F04EFB7020ADF804000120ADF8EB
:1046800006000020ADF808004FF4FA600390022005
:10469000ADF810000020ADF81200ADF814004FF492
:1046A0008070ADF8160001A9BE4803F0C7FB01A950
:1046B000BC4803F0FCFB01A9BA4803F045FC01A982
:1046C000B84803F0A7FC0821B64803F044FD0821D0
:1046D000B44803F049FD0821B24803F052FD082117
:1046E000B04803F057FD0121AE4803F07DFB0121E6
:1046F000AC4803F097FB4FF47A70AA493431086054
:10470000091D0860091D0860091D08600BB000BD87
:1047100000B58BB00121082002F0BBFE012104206E
:1047200002F0FEFE4FF47040099002208DF8280040
:1047300003208DF8290009A99B4802F009FC0222F8
:104740000C21994802F08FFC02220D21964802F0BC
:104750008AFC02220E21944802F085FC02220F21DD
:10476000914802F080FC5320ADF818000020ADF80D
:104770001A0042F2107007900020ADF8200006A940
:104780008A4803F0C6FA7020ADF804000120ADF8A5
:1047900006000020ADF808004FF47A700390022064
:1047A000ADF810000020ADF81200ADF814004FF481
:1047B0008070ADF8160001A97C4803F03FFB01A909
:1047C0007A4803F074FB01A9784803F0BDFB01A906
:1047D000764803F01FFC0821744803F0BCFC082154
:1047E000724803F0C1FC0821704803F0CAFC08219C
:1047F0006E4803F0CFFC01216C4803F0F5FA01216B
:104800006A4803F00FFB4FF47A706849343108604E
:10481000091D0860091D0860091D08600BB000BD76
:1048200000B58BB00121080202F033FE0121802087
:1048300002F02FFE0121082002F02BFE0120019042
:1048400002208DF8080003208DF8090000208DF863
:104850000A0001208DF80B0001A9514802F078FBF5
:104860004FF4E050019001A94C4802F071FB4FF465
:104870008050019001A94C4802F06AFB02220021FD
:10488000474802F0F0FB02220C21444802F0EBFB07
:1048900002220B21414802F0E6FB02220A213F4896
:1048A00002F0E1FB02220C213F4802F0DCFB012177
:1048B000082002F035FE0121042002F031FE002024
:1048C000ADF82800ADF8220044F61F60099053208F
:1048D000ADF8200000208DF82A0008A9314803F027
:1048E00018FA40F24730ADF8200040F2E730099066
:1048F00008A92E4803F00DFA6020ADF80C00012045
:10490000ADF80E004FF47A7005900020ADF8180055
:1049100003A9244803F07EFB03A9224803F014FBFB
:1049200003A9204803F0C3FA03A91E4803F086FA3E
:1049300001211C4803F00FFC01211A4803F014FC6C
:104940000121184803F01DFC0121164803F022FC48
:104950000121144803F048FA0121124803F053FEE4
:104960000121104803F05EFA4FF4FA70059003A994
:104970000E4803F063FA01210C4803F0ECFB01211F
:104980000A4803F031FA0121084803F03CFE0121F6
:10499000064803F047FA0BB000BD0000001C0240BF
:1049A00000200240000C0040000C024000080040C3
:1049B00010B500213A4803F09AFB10BD30B58BB01A
:1049C00004460D460121402002F0AAFD012180206D
:1049D00002F05FFD0121402002F0F7FD00214020A0
:1049E00002F0F3FD092206212E4802F03CFB402094
:1049F000099002208DF8280003208DF8290000205E
:104A00008DF82A0002208DF82B0009A9254802F014
:104A10009FFA6020ADF804000120ADF806000020E8
:104A2000ADF8100001A91E4803F008FA08211C483F
:104A300003F091FB01211A4803F0D6F9681E079094
:104A4000601E80B2ADF818000020ADF81A00ADF875
:104A5000200006A9124803F05CF90121104803F078
:104A6000E1F9FFF7A5FF0BB030BD10B5024643F6E4
:104A7000BD600D4B03EB021333F811300B4C94FB6C
:104A8000F3F398B210BD064A28321080121D11604F
:104A9000704710B504462146014803F028FB10BDBD
:104AA00000180040001C024026DD0008802C800019
:104AB00000B58BB00121022002F0EBFC2020099010
:104AC00002208DF8280003208DF8290000208DF8A1
:104AD0002A0001208DF82B0009A9224802F038FA9B
:104AE000022205211F4802F0BEFA0121022002F035
:104AF00017FD0020ADF82000ADF81A0044F61F6045
:104B000007905320ADF8180000208DF8220006A968
:104B1000154803F0FEF86020ADF804000120ADF860
:104B2000060000200390ADF8100001A90E4803F024
:104B3000BEF901210C4803F017FB01210A4803F0DC
:104B400053F90121084803F05EFD0BB000BD44F6A7
:104B50002062424344F6206392FBF3F1024A38326A
:104B600011607047000402400004004000B587B0A7
:104B70000121202002F08DFC0121080502F0E1FC5A
:104B80004FF46070059002208DF8180000208DF819
:104B90001A0001208DF81B0003208DF8190005A9CB
:104BA000264802F0D5F905220721244802F05BFAD5
:104BB00005220821214802F056FA052209211F4842
:104BC00002F051FA4020059001208DF818000020D5
:104BD0008DF81A0001208DF81B0003208DF81900B4
:104BE00005A9164802F0B4F94021144802F02CFA45
:104BF0004FF48270ADF802000020ADF80400ADF86B
:104C000000004FF40070ADF80A000020ADF80E006F
:104C10000120ADF808000220ADF806002020ADF814
:104C20000C000A20ADF810006946054802F0D0FDDE
:104C30000121034802F0C6FE07B000BD0014024087
:104C4000005001401FB50121102002F069FC362000
:104C50008DF8000002208DF8010001208DF802007F
:104C60008DF80300684601F0B6F95320ADF8040052
:104C70000020ADF80600ADF80C004FF47A700290F9
:104C800001A9194803F045F81FBD10B501211648C8
:104C900003F0C8F801221146134803F0DBFC0121A0
:104CA000114803F0EBFC10BD10B501210E4803F0D4
:104CB000E8FCC0B101210C4803F0F4FC01210A48D2
:104CC00003F0DCFCFBF744FE08480068401C074981
:104CD0000860084600686421B0FBF1F201FB120095
:104CE00008B9FBF7B5FE10BD0010004068040020B5
:104CF00010B596B004460121022002F0CAFB012142
:104D0000102002F01EFC072211464C4802F0ABF9BD
:104D100014A802F065F98020149002208DF8540048
:104D200001208DF8570002208DF8550000208DF8E5
:104D3000560014A9414802F00BF9414803F08EFDDA
:104D400010A803F058FE3F4810900020ADF8440032
:104D5000ADF846004FF48060ADF848000420ADF88F
:104D60004A000020ADF84C0010A9354803F0DDFDE5
:104D70000121334803F061FE01224021304803F055
:104D800009FF314801F08AFE0121880502F081FB0C
:104D90004FF0006000902A48001D01902B480290BF
:104DA0000020039012200490002005904FF48060B2
:104DB00006900020079008904FF4807009904FF4FF
:104DC00040300A9000200B900C900D900E90694698
:104DD0001D4801F005FF012210211B4801F0C7FF0B
:104DE0000121194801F036FF3A208DF83C000020DF
:104DF0008DF83D008DF83E0001208DF83F000FA892
:104E000001F0E9F816B010BD10B511490E4801F0D7
:104E1000CBFF88B14FF081510B4801F094FF0C4952
:104E2000094801F0EBFF094804F0E6FF0948FDF7E7
:104E30008EF80220FDF79BF810BD00000004024030
:104E400000100140A086010040640240940E002042
:104E5000008020103203002010B596B004460121D6
:104E6000082002F016FB0121480502F012FB012187
:104E7000480402F055FBFB4803F0F0FC0121F9481F
:104E800003F0EFFD07220521F74802F0ECF80722B6
:104E90000621F54802F0E7F86020149002208DF812
:104EA000540000208DF8560003208DF85500002096
:104EB0008DF8570014A9EC4802F04AF826208DF826
:104EC0003C0002208DF83D0001208DF83E008DF859
:104ED0003F000FA801F07FF810A803F08CFD10949C
:104EE0000020ADF84400ADF84600ADF848000C20B5
:104EF000ADF84A000020ADF84C0010A9D94803F0E5
:104F000014FD012240F22441D64803F04CFE012258
:104F10004021D44803F03EFE0021D24803F08DFD2D
:104F2000D24801F0BBFD4FF000600090CD48001D5D
:104F30000190CF480290002003906420049000204C
:104F400005904FF48060069000200790089009902B
:104F50004FF480300A9000200B900C900D900E9032
:104F60006946C248603001F03BFE10208DF83C00DD
:104F700002208DF83D0001208DF83E008DF83F00A5
:104F80000FA801F028F801221021B848603001F084
:104F9000EEFE0022B6496431B448603001F081FE73
:104FA0000121B248603001F088FE0121AF48603035
:104FB00001F050FE16B010BD00B591B001214805BA
:104FC00002F067FAA948783001F068FD4FF0006000
:104FD0000190A448001D0290A64803904020049030
:104FE0004FF4C8700590002006904FF48060079041
:104FF0000020089009900A904FF400300B90002098
:105000000C9001200D9000200E900F9001A9974860
:10501000783001F0E5FD012210219448783001F04C
:10502000A6FE012280218F4803F0B4FD11208DF8E7
:10503000400002208DF8410001208DF842008DF8DB
:10504000430010A800F0C7FF00218848783001F025
:1050500001FE11B000BD70B504460D4600BF864884
:1050600000780028FBD10120834908702A46214698
:10507000804806F0A3F929467C48783001F00BFE01
:1050800001217A48783001F0E5FD70BD10B57B490B
:105090007648783001F088FE78B1784973487830E6
:1050A00001F051FE00217148783001F0D3FD01225A
:1050B00040F226616B4803F076FD10BD10B540F25A
:1050C0002771684803F0AAFD40B9002240F226612A
:1050D000644803F068FD00206749087010BD014670
:1050E000B1F8C800B1F8CA20904201D1C72070477A
:1050F000B1F8CA00B1F8C820801A012806D0B1F86A
:10510000CA00B1F8C820801AC73008B90020EEE7FD
:10511000B1F8CA00B1F8C820801A401E002806D491
:10512000B1F8CA00B1F8C820801A401E05E0B1F8F5
:10513000CA00B1F8C820801AC73080B2D7E72DE97D
:10514000F04104460F4615462046FFF7C8FFA84227
:1051500027DB002D25DDB4F8C8002844C8280CDA68
:10516000B4F8C81008192A46394606F027F9B4F8E9
:10517000C8002844A4F8C80016E0B4F8C800C0F17C
:10518000C806B4F8C81008193246394606F016F9B0
:10519000AA1BB919204606F011F9A81BA4F8C800EB
:1051A00002E00020BDE8F0810120FBE710B540F2ED
:1051B00024412C4803F032FD002852D00120304910
:1051C000A1F8CE00274800882648001D00882748FF
:1051D000603001F082FDE0BB00202A490870002207
:1051E00010212248603001F0C2FD00211F486030CC
:1051F00001F030FD24491D48603001F0FFFD1B48DF
:10520000603001F04AFDC0F164002049086064206C
:1052100016496431086015482838D0F8880040F4F1
:10522000002012492839C1F888001848008882B245
:105230001448007800EBC00303EB00100C4B03EBA9
:1052400080010F48FFF77BFF0122102107486030E3
:1052500000E01DE001F08BFD01210448603001F009
:10526000F9FC52E000440040000C0240286002407B
:10527000AE0E0020461000206C040020008020208C
:10528000760F00206D0400200088002070040020AC
:105290000120CE49087000221021CD4801F067FDA1
:1052A0000021CB4801F0D6FCCA49C94801F0A6FD4F
:1052B000C74801F0F2FCC0F16400C74908606420EF
:1052C000C349091D0860C2488838D0F8880020F416
:1052D0000020BF498839C1F88800BF48008882B2E1
:1052E000BA48007800EBC00303EB0010BB4B03EBA4
:1052F0008001BB48FFF723FF01221021B44801F0D1
:1053000036FD0121B24801F0A5FC10BD10B5FFF734
:10531000D5FEFFF74BFF10BD10B5AE49AC4801F00C
:1053200043FDF0B1AB49AA4801F00DFDA84801F0DA
:10533000D4FC08B9012000E00020A4490870A94865
:105340000088A848001D00880846007800EBC002CD
:1053500002EB0010A14A02EB80016422A048FFF793
:10536000EEFE10BD0146B1F8C800B1F8CA20904267
:1053700001D100207047B1F8CA00B1F8C820801AE6
:10538000012806D0B1F8CA00B1F8C820801AC73089
:1053900008B9C720EEE7B1F8C800B1F8CA20801AF2
:1053A00005D4B1F8C800B1F8CA20801A05E0B1F8F8
:1053B000C800B1F8CA20801AC83080B2DAE72DE9F7
:1053C000F04107460C4615462046FFF7CBFFA842A2
:1053D00027DB002D25DDB4F8CA002844C8280CDAE4
:1053E000B4F8CA0001192A46384605F0E7FFB4F8B8
:1053F000CA002844A4F8CA0016E0B4F8CA00C0F1F4
:10540000C806B4F8CA0001193246384605F0D6FF7E
:10541000AA1B2146384605F0D1FFA81BA4F8CA00F4
:1054200002E00020BDE8F0810120FBE730B5034633
:1054300001241846FFF796FFA0421CDB002C1ADD62
:10544000B3F8CA002044C82808DAB3F8CA001D5CC3
:10545000B3F8CA002044A3F8CA000AE0B3F8CA109F
:10546000C1F1C800B3F8CA105D5C211AA3F8CA10D4
:1054700000BF284630BD0020FCE72DE9F04107467B
:105480000C462046FFF76EFF0546002D25DDB4F8DB
:10549000CA002844C8280CDAB4F8CA0001192A4600
:1054A000384605F08BFFB4F8CA002844A4F8CA00B7
:1054B00016E0B4F8CA00C0F1C806B4F8CA00011971
:1054C0003246384605F07AFFAA1B2146384605F0D9
:1054D00075FFA81BA4F8CA0002E00020BDE8F08117
:1054E0000120FBE72DE9F04781460D4617461C4693
:1054F0002846FFF737FF3919884221DB002C1FDDD2
:10550000B5F8CA003844C82190FBF1F201FB12063D
:105510003019C82805D2A9192246484605F04EFF81
:105520000DE0C6F1C808A9194246484605F046FFF5
:10553000A4EB08022946484605F040FF00BF02E000
:105540000020BDE8F0870120FBE770B503460C465C
:1055500001251846FFF706FF611988420BDB002D75
:1055600009DDB3F8CA002044C82290FBF2F602FB22
:105570001601585C70BD0020FCE710B503460C46D0
:105580001846FFF7EFFEA04214DB002C12DDB3F843
:10559000CA002044C82805DAB3F8CA002044A3F89A
:1055A000CA0009E0B3F8CA10C1F1C800211AA3F873
:1055B000CA1001E0002010BD0120FCE700200849CE
:1055C000A1F8C800A1F8CA00704700006D040020CF
:1055D000886002400088002070040020AE0E002089
:1055E000760F00200044004010B596B0044601211B
:1055F000082001F04EFF0121480501F04AFF01217A
:10560000880401F08DFF764803F028F9072208216D
:10561000744801F028FD07220921724801F023FD9A
:105620004FF48070149002208DF8540000208DF803
:10563000560003208DF8550000208DF8570014A95E
:10564000684801F085FC4FF40070149002208DF83A
:10565000540001208DF8560003208DF855000120DC
:105660008DF8570014A95F4801F072FC27208DF8CF
:105670003C0002208DF83D0001208DF83E008DF8A1
:105680003F000FA800F0A7FC10A803F0B4F9109495
:105690000020ADF84400ADF84600ADF848000C20FD
:1056A000ADF84A000020ADF84C0010A94C4803F0BA
:1056B0003CF9012240F22441494803F074FA0122E6
:1056C0004021474803F066FA0121454803F0B5F947
:1056D000454801F0E3F94FF0006000904048001D9C
:1056E0000190424802900020039064200490002022
:1056F00005904FF480600690002007900890099074
:105700004FF480300A9000200B900C900D900E907A
:105710006946354801F064FA002234496431324860
:1057200001F0BFFA0121304801F0C7FA01212E48EB
:1057300001F090FA16B010BD10B540F2244128488F
:1057400003F06CFA00284AD0254800882448001D40
:105750000088254801F0C1FA00BB002024490870E8
:105760000021214801F076FA1F4801F096FAC0F1B5
:1057700064002049086064201B492839C862084633
:10578000806A40F4002088620121174801F062FA23
:1057900018480178154804F05CFC20E00120144909
:1057A00008700021104801F055FA0F4801F075FA11
:1057B000C0F164000F49086064200B492839C862B1
:1057C0000846806A20F4002088620121064801F022
:1057D00041FA084801780548643004F03AFC10BDED
:1057E00000480040000C024028600240D611002012
:1057F000760400207804002010B588B0044601210A
:10580000402001F046FE0121202001F09AFE0822EE
:105810000921314801F027FC08220E212E4801F011
:1058200022FC4FF48440069002208DF81C000020DA
:105830008DF81E0003208DF81D0000208DF81F003C
:1058400006A9254801F084FB244803F007F802A8C4
:1058500003F0D1F802940020ADF80C00ADF80E0072
:10586000ADF810000C20ADF812000020ADF81400C7
:1058700002A91A4803F059F847208DF804000120C6
:105880008DF805008DF806008DF8070001A800F0DE
:10589000A2FB012240F22551104803F084F90121B6
:1058A0000E4803F0CAF808B010BD10B540F22551FB
:1058B0000A4803F0B3F968B1084803F0EDF8084965
:1058C0000870064800880548001D008808460078D2
:1058D00004F01EFE10BD000000180240001401403C
:1058E0007C04002010B588B004460121102001F08E
:1058F000D0FD0121880701F013FE082207213C4852
:1059000001F0B1FB08221146394801F0ACFB8020C0
:10591000069002208DF81C0000208DF81E00032048
:105920008DF81D0001208DF81F0006A9304801F0F8
:105930000FFB4FF48070069002208DF81C000020B1
:105940008DF81E0003208DF81D0001208DF81F002A
:1059500006A9274801F0FCFA264802F07FFF02A8BA
:1059600003F049F802940020ADF80C00ADF80E00E9
:10597000ADF810000C20ADF812000020ADF81400B6
:1059800002A91C4802F0D1FF52208DF8040001202A
:105990008DF805008DF806008DF8070001A800F0CD
:1059A0001AFB012240F22551124803F0FCF80121B4
:1059B000104803F042F808B010BD10B540F2255170
:1059C0000C4803F02BF990B10A4803F065F80A4936
:1059D0000870084800880748001D008808460078BD
:1059E00004F001FD05480068401C0449086010BD32
:1059F0000010024000780040840400208004002051
:105A000000B58BB00121802001F043FD0121080287
:105A100001F03FFD0121082001F082FD4FF4E0502C
:105A2000099002208DF8280003208DF8290009A98B
:105A30008B4801F08DFA0120099002208DF8280092
:105A400003208DF8290009A9864801F081FA022275
:105A50000A21834801F007FB02220B21804801F054
:105A600002FB02220C217E4801F0FDFA02220021F5
:105A70007C4801F0F8FA1220ADF818000020ADF8CB
:105A80001A00052007900020ADF8200006A97648EE
:105A900002F03FF97020ADF804000120ADF80600D7
:105AA0000020ADF8080003900220ADF8100000209F
:105AB000ADF81200ADF814004FF48070ADF8160088
:105AC00001A9694802F0BAF901A9674802F0EFF9A3
:105AD00001A9654802F038FA01A9634802F09AFA70
