:020000040800F2
:10000000781400204D470008ED440008EF44000834
:10001000F3440008F7440008FB4400080000000017
:10002000000000000000000000000000FF44000885
:1000300001450008000000000345000805450008D0
:1000400067470008674700086747000867470008D8
:1000500067470008674700086747000867470008C8
:1000600067470008674700086747000867470008B8
:1000700067470008674700086747000867470008A8
:10008000813B0008F538000867470008674700080B
:10009000212B0008674700086747000867470008EA
:1000A0006747000867470008674700086747000878
:1000B0006747000867470008674700086747000868
:1000C0006747000867470008674700086747000858
:1000D0006747000867470008753B0008A13F000814
:1000E0006747000867470008674700086747000838
:1000F0006747000867470008674700086747000828
:100100006747000867470008674700086747000817
:1001100067470008674700080F3500086747000871
:1001200067470008674700087136000867470008FE
:1001300067470008674700086747000867470008E7
:10014000492C000867470008674700086747000810
:10015000674700086747000867470008154100081F
:1001600067470008674700086747000867470008B7
:1001700067470008674700086747000867470008A7
:1001800067470008674700082342000867470008E0
:100190006747000867470008674700086747000887
:1001A00000000000000000006747000800F002F8AF
:1001B00000F05CF80AA090E8000C82448344AAF1A5
:1001C0000107DA4501D100F051F8AFF2090EBAE8A3
:1001D0000F0013F0010F18BFFB1A43F0010318477B
:1001E00048C4000068C400000A444FF0000C10F836
:1001F000013B13F0070408BF10F8014B1D1108BFA5
:1002000010F8015B641E05D010F8016B641E01F844
:10021000016BF9D113F0080F1EBF10F8014BAD1C94
:100220000C1B09D16D1E58BF01F801CBFAD505E0B2
:1002300014F8016B01F8016B6D1EF9D59142D6D30C
:10024000704700000023002400250026103A28BF34
:1002500078C1FBD8520728BF30C148BF0B60704738
:100260001FB50BF0E6FB1FBD10B510BD09F0ADFBCF
:100270001146FFF7F5FF00F009F809F0CBFB03B4D6
:10028000FFF7F2FF03BC09F0CBFB00004FF4A060C6
:1002900004F07CFA02F06CFB002433E0264890F96D
:1002A0000000082805DA24480078C01C40B2224922
:1002B000087022490968C1F34F0003F01EF804EBEF
:1002C00044021F4B03EB4202917804EB440213F803
:1002D000120002F0FEFF05462946092003F007F848
:1002E00004EB4401164A02EB41018D8805EBD57100
:1002F000481002F01FFD02F08FFF1E2002F01AFDD1
:10030000601C641C162CC9DB00200E490860082103
:10031000012000F09BFB01200B4908700BE00B480B
:1003200000684FF47A71B0FBF1F201FB120010B9D2
:10033000082001490870F2E7000000202C18004056
:10034000CCBE0008B88242420E000020CC03002040
:10035000FA490870704710B5C024F9490988A1F519
:100360008060002801DB014600E0414240F2962215
:10037000914201DC012100E000210C43F049498851
:10038000A1F58060002801DB014600E0414240F217
:100390009622914201DC012100E0002144EA41045F
:1003A000E7498988A1F58060002801DB014600E06B
:1003B000414240F29622914201DC012100E00021FD
:1003C00044EA8104DE49C988A1F58060002801DB88
:1003D000014600E0414240F29622914201DC0121B7
:1003E00000E0002144EAC104D548007A012807D082
:1003F000D348007A022803D0D148007A032801D1DB
:10040000012000E0002044EA0014CD48407A012891
:1004100007D0CB48407A022803D0C948407A032845
:1004200001D1012000E0002044EA4014FF2C07D055
:100430000320FFF78DFF1422C149C24809F010FACA
:1004400010BDBE480078704710B5FFF7FAFF0828C6
:100450007ED2DFE800F011041E872B65584B002385
:100460001A461946184607F07FF800231A4619461F
:10047000184607F0A8F882E000231A4619461846E5
:1004800007F072F800231A461946184607F09BF841
:1004900075E000231A461946184607F065F8002350
:1004A0001A461946184607F08EF868E0A64CE4880C
:1004B00023B2A54CA48822B2A44CA48C21B2A34C94
:1004C000248C20B207F050F8A14B93ED070ABDEE43
:1004D000C00A10EE103A1AB29E4B1B8A19B29D4BFD
:1004E0009B8C18B2002307F06EF848E000231A46F0
:1004F0001946184607F038F800231A4619461846D8
:1005000007F061F83BE000231A461946184607F049
:100510002BF800231A461946184607F054F82EE027
:10052000894CE48823B2884CA48822B2874CA48CDE
:1005300021B2864C248C20B207F016F8844B93ED40
:10054000070ABDEEC00A10EE103A1AB2814B00E065
:1005500008E01B8A19B27F4B9B8C18B2002307F06E
:1005600032F80CE000231A461946184606F0FCFF44
:1005700000231A461946184607F025F800BF00BFA9
:1005800010BD10B56E4909886D4A528811446C4AF5
:10059000928811446A4AD2881144A1F580500028FB
:1005A00001DB014600E04142082901DD00F09BF932
:1005B00010BD10B5FFF745FF082858D2DFE800F05E
:1005C00030043848404E49476348006842F2107191
:1005D000884224D9FFF7D5FF0020FFF7B9FE9FED31
:1005E0005F0A5C4880ED030A014649695C4A12686B
:1005F000511A4FF4616201FB02F0C11700EBD141C7
:10060000491300EE101AB8EEC00A5649D1ED000A9F
:10061000B2EE041A00EE810A4E4981ED080A26E086
:1006200000F0C7FD0220FFF793FE01F084F81EE002
:100630000620FFF78DFE00F0BCFD01F07CF816E00F
:1006400000F0B7FD01F077F800F0CAFF0FE00EE010
:100650000DE000F0C5FF00F0ACFD08E002F002F88C
:1006600000F0A7FD01F067F800F0BAFF00BF00BF7F
:1006700010BD10B5FFF7E5FE3B490870FFF7E1FE3E
:10068000082805D2DFE800F00504069707E4371CC8
:10069000E6E0E5E0E4E02A48007A032802D10620FB
:1006A000FFF756FE2648007A032807D12F48007826
:1006B000032803D12248407A012800D000BFCFE0B0
:1006C0001F49C97C61B91E49897C49B91C49B1F9E6
:1006D0000A00002801DB014600E04142032902DD57
:1006E0000420FFF735FE1648007A022802D10520C3
:1006F000FFF72EFEB4E01248007A012838D11549E0
:100700004969174A1268511A4FF4616201FB02F0FD
:10071000C11700EBD141491300EE101AB8EEC00A20
:100720001049D1ED000AB2EE041A00EE810A09491F
:1007300081ED080A0420FFF70BFE3BE004000020D7
:100740000C060020B0060020A6030020D0060020E2
:100750002007002034000020CC0300200090E24558
:1007600030000020FC0500200600002005000020CD
:100770006448007A02281DD163494969634A1268B6
:10078000511A4FF4616201FB02F0C11700EBD14135
:10079000491300EE101AB8EEC00A5D49D1ED000A07
:1007A000B2EE041A00EE810A574981ED080A0520CD
:1007B000FFF7CEFD54E057480068401C55490860DB
:1007C000554991F83610A1BB4E4909884D4A5288C7
:1007D00011444C4A928811444A4AD2881144A1F5E6
:1007E0008050002801DB014600E041420A2920DA5E
:1007F00045494969454A1268511A4FF4616201FB43
:1008000002F0C11700EBD141491300EE101AB8EE07
:10081000C00A3F49D1ED000AB2EE041A00EE810A87
:10082000394981ED080A0420FFF792FD002039497B
:100830000860394890F8360048B936480068B0F585
:10084000FA5F04D900203349086000F04CF807E053
:100850002C48007A032802D10620FFF779FD00BF5B
:1008600000BF2848407A2D49087010BD10B507F028
:100870000BFD2B4800680521B0FBF1F201FB1200D3
:1008800008B901F09BFF01F0F1F8FFF7F2FEFFF766
:1008900090FEFFF7D9FDFFF75EFD21480068782143
:1008A000B0FBF1F201FB120078B91E4890F900008C
:1008B000002805DD1B480078401E40B21949087029
:1008C000184890F9000002F0F8FA10BDF0EE400A66
:1008D000F5EEC00AF1EE10FA02DBB0EE600A7047E6
:1008E000B1EE600AFBE7BFF34F8F0F48006800F4DA
:1008F000E0600E490843001D0B490860BFF34F8FAD
:1009000000BFFEE70C06002034000020300000206D
:10091000FC05002008000020F40200200500002053
:10092000CC030020000000200CED00E00000FA05E0
:1009300010B5FB4800780A2832DAF9480078002818
:100940002EDDF84800684FF41661B0FBF1F201FBB0
:100950001200F34909784900C1EB011101EB810153
:10096000B0EB410F2BD8EF4800684FF41661B0FB95
:10097000F1F201FB120028B94FF48041EA4804F07B
:1009800043FF1CE0E74800689621B0FBF1F201FB51
:100990001200A0B94FF48041E34804F040FF0EE09C
:1009A000DF4800780A2805DB4FF48041DE4804F078
:1009B0002DFF04E04FF48041DB4804F025FFDB48C5
:1009C00000780A2832DAD948007800282EDDD54888
:1009D00000684FF41661B0FBF1F201FB1200D3493D
:1009E00009784900C1EB011101EB8101B0EB410F26
:1009F0002BD8CC4800684FF41661B0FBF1F201FB34
:100A0000120028B94FF40061C94804F0FDFE1CE053
:100A1000C44800689621B0FBF1F201FB1200A0B9B6
:100A20004FF40061C24804F0FAFE0EE0BF480078BF
:100A30000A2805DB4FF40061BD4804F0E7FE04E03E
:100A40004FF40061BA4804F0DFFE10BD0A2801DD52
:100A50000A2200E00246B24B1A700A2901DD0A227E
:100A600000E00A46B14B1A70704710B5B1480078E3
:100A700020B1012822D0022860D140E0AE480078A1
:100A8000401CAD4908700846007850280ADB012058
:100A9000A84908705020A84908700020A74908708C
:100AA000A7490870A4480078C0F15000A5494870D3
:100AB000A14800780870002088703FE09F480078C7
:100AC000401C9E4908700846007850280BDB022025
:100AD000984908700020984908705020974908707C
:100AE0000020974908700020964948709348007884
:100AF000C0F1500008709148007888701EE090485E
:100B00000078401C8E49087008460078502809DBA0
:100B1000002088490870884908708849087050206A
:100B20008749087086480078864948700020087018
:100B300083480078C0F15000887000BF00BF0020DB
:100B40004FE08149095C11B1012948D124E07F4976
:100B500001EB800191ED000ADFED7D0A30EE200A05
:100B60007A4901EB800181ED000A784901EB8001AF
:100B700091ED000ADFED770AB4EEE00AF1EE10FA2B
:100B800009DB9FED740A714901EB800181ED000AD8
:100B900001216D4A115422E06C4901EB800191ED75
:100BA000000ADFED6B0A30EE600A684901EB800154
:100BB00081ED000A654901EB800191ED000AB5EE77
:100BC000C00AF1EE10FA09D89FED630A5F4901EB04
:100BD000800181ED000A00215B4A115400BF00BF73
:100BE000401C0528ADDB574840785649C870084678
:100BF0000178417181780171007852498871084605
:100C0000417801728178C17180784E4948720846F6
:100C10000178C1724178817200784A4908730846A8
:100C2000817881734178417300201EE0002119E032
:100C300000EB4002434B1A44525C00EE102AB8EE1F
:100C4000400A424A02EB8002D2ED000A20EE200A5E
:100C5000BCEEC00A10EE102A00EB4003394C2344CE
:100C60005A54491C0329E3DB401C0528DEDB10BD78
:100C7000027802F00101027852100270027842EA12
:100C8000C1120270704710B5264800686421B0FB9D
:100C9000F1F201FB1200002841D100BF12E0002157
:100CA0000DE02E4A1278024102F00102642312FB89
:100CB00003F200EB4003234C23445A54491C0329FC
:100CC000EFDB401C0528EADB2448FFF7D1FF24486E
:100CD0000078401C224908700878C11700EB517158
:100CE000C910A0EBC10141B91E490978052904DCEE
:100CF0001C480078401C1B49087000200BE00021B4
:100D000006E0642200EB40030E4C23445A54491C75
:100D10000329F6DB401C134909788842EFDB10BD3C
:100D20000C000020CC030020001402400D00002025
:100D3000001002400F0000201000002011000020D1
:100D400012000020C406002013000020180000201C
:100D50000AD7233CCDCCCC3E000000002C00002064
:100D60002D0000202E00002010B52148007810B979
:100D7000FFF789FF01E0FFF778FE05211D4803F02A
:100D80006AFB03F03FFB10BD0278D10902785206DE
:100D9000120E027002780A4302707047164800680B
:100DA0004FF4FA71B0FBF1F201FB1200F0B9002030
:100DB00012E012490978642211FB02F100EB4002B3
:100DC0000C4B1A445170002100EB4002995400EB87
:100DD00040021A449170401C0528EADB074800785D
:100DE00008B9012000E000200449087070470000A5
:100DF0000E000020C4060020CC0300202F0000209D
:100E000070B52DED0A8B04460D46FD4800680F2194
:100E1000B0FBF1F201FB120000287DD1F94989886D
:100E2000A1F580600AF0A9FA41EC1C0B9FEDF60BCE
:100E300053EC102B0AF0CCFA41EC1B0B9FEDF40B9A
:100E400053EC102B0AF012F941EC190BF24890ED1B
:100E5000080A10EE101A08460AF07AFD41EC1A0B47
:100E600053EC192B0AF05AF841EC180B0AF024F84D
:100E7000E9490862084690ED080ADFEDE80AB4EE99
:100E8000E00AF1EE10FA06DD90ED080ADFEDE40A63
:100E900030EE600A02E0E04890ED080ADE4880ED9E
:100EA000080A90ED080ADFEDDF0AB4EEE00AF1EE81
:100EB00010FA06D290ED080ADFEDD90A30EE200ACA
:100EC00002E0D54890ED080AD34880ED080ACD49E4
:100ED000C988A1F580600AF050FA41EC1C0B9FED27
:100EE000D20B53EC102B0AF073FA41EC1B0B9FED65
:100EF000C80B53EC102B0AF0B9F841EC190BC6489B
:100F000090ED030A10EE101A08460AF021FD41EC9C
:100F10001A0B53EC192B00E02CE009F0FFFF41EC19
:100F2000180B09F0C9FFBC49C860084690ED030AD8
:100F3000DFEDBF0AB4EEE00AF1EE10FA02D29FED47
:100F4000BC0A02E0B44890ED030AB34880ED030AFE
:100F500090ED030ADFEDB70AB4EEE00AF1EE10FA05
:100F600002DD9FEDB40A02E0AB4890ED030AAA4807
:100F700080ED030ABDEC0A8B70BD10B5AE48007859
:100F800001280FD0AC48007860B99E48007A01284B
:100F900002D0AA48007E28B99F490C3101F1140003
:100FA000FFF72EFF9FEDA60AA64880ED000A9448A1
:100FB00000681E21B0FBF1F201FB120028B996492E
:100FC0000C3101F1140000F076FE9348D0ED030AD5
:100FD00090ED000AB8EEC00A30EEC00ADFED9A0AC2
:100FE000B4EEE00AF1EE10FA16DD006800F50050EC
:100FF00001EE100AB8EEC11AF0EE410A864890EDF3
:10100000031AB0EE410A914807F04CFDBDEEC00A4C
:10101000814880ED020A39E07F48D0ED030A90ED67
:10102000000AB8EEC00A30EEC00ADFED890AB4EE5D
:10103000E00AF1EE10FA16D20068A0F5005001EEB9
:10104000100AB8EEC11AF0EE410A734890ED031A87
:10105000B0EE410A7D4807F025FDBDEEC00A6E489E
:1010600080ED020A12E06C4890ED001AB8EEC11A49
:10107000F0EE410A90ED031AB0EE410A734807F012
:1010800011FDBDEEC00A644880ED020A624890ED91
:10109000080A7048D0ED000AB2EE041A00EEC10A48
:1010A000DFED5E0AB4EEE00AF1EE10FA17DDD0EDE6
:1010B000001A9FED5B1AB2EE042A01EE821AF0EEDE
:1010C000410A554890ED081AB0EE410A624807F00F
:1010D000E9FCBDEEC00A504880ED070A3EE04E48EC
:1010E00090ED080A5B48D0ED000AB2EE041A00EE5B
:1010F000C10ADFED4C0AB4EEE00AF1EE10FA17D2A5
:10110000D0ED001A9FED461AB2EE042A11EE821AB3
:10111000F0EE410A404890ED081AB0EE410A4E4800
:1011200007F0C0FCBDEEC00A3B4880ED070A15E0A1
:10113000484890ED001AF2EE041A21EE211AF0EE62
:10114000410A354890ED081AB0EE410A424807F0CE
:10115000A9FCBDEEC00A304880ED070A3F4890ED7B
:10116000091AB1EE411AF0EE410A2B4890ED021A2D
:10117000B8EEC11AB0EE410A394807F093FCBDEE53
:10118000C00A254880ED040A344890ED0A1AF0EEB2
:10119000410A214890ED071AB8EEC11AB0EE410A93
:1011A000304807F07FFCBDEEC00A1B4880ED090AFD
:1011B00010BD10B5FFF7E1FE10BD01462A4890EDC5
:1011C000000AF7EE000A70EEC00A284890ED000A07
:1011D000B8EEC00A60EE800A00EE101AB8EEC00A3F
:1011E000214890ED001A40EE010ABDEEE00A2048C9
:1011F00080ED000A00681D4A10601D4800687047B5
:10120000CC0300200C0600200000000000804640B7
:101210000000000000A08440340000200000E144F1
:10122000000061450000E1C40000000000003940FA
:101230000080BB450090E24564010020C40D002001
:101240000000000048060020000080455C000020EF
:10125000000080C5FC050020E00000208C0B002071
:101260009E00002022010020700100206801002063
:101270006C010020421A00EE902AF8EEE00AB1EE6E
:10128000601ADFED2C1AC1EE210AB0EE001A60EEF2
:10129000810A9FED291A60EE810AB0EE600A70475C
:1012A00070B5024600200021244B1B68934202DAED
:1012B000224B1B6800E013461A46204B1B6D9342DD
:1012C00002DD1E4B1B6D00E013461A46002106E0AE
:1012D0001A4B53F83130934200DC02E0491C0B29D1
:1012E000F6DB00BF092901DD092300E00B461946A2
:1012F000124C4B1C04EBC3035B6804EBC104646831
:101300001B1B0E4C54F83140A41A63430B4C54F889
:10131000315026464C1C56F834402C1B93FBF4F3FA
:10132000344604EBC1046468181970BD01460020FE
:101330007047000000000046DA0F494048BA000834
:10134000B0EE401AF7EE001AB0EE610AA64890F827
:101350003800012807D10320A4490870DFEDA41A42
:10136000B0EE610A48E0A348007820B1012809D016
:10137000022815D10DE0DFEDA01A70EEE11AF0EEB3
:10138000610A14E0F3EE0E1A70EEE11AF0EE610A53
:101390000DE0F3EE0E1A70EEE11AF0EE610A06E0CF
:1013A000F3EE0E1A70EEE11AF0EE610A00BF00BF14
:1013B000DFED921A9FED922A42EE201AB0EE610AFA
:1013C000F7EE001AB4EEE10AF1EE10FA02DDF7EEE4
:1013D000001A01E0F0EE401AB0EE610ADFED891A62
:1013E000B4EEE10AF1EE10FA02D2DFED861A01E066
:1013F000F0EE401AB0EE610A704710B5FFF721F821
:1014000004283CD100BF80480088A0F580607F4957
:10141000B1F90010401A01280CDD7B480088A0F5C6
:1014200080600A2806DD7A480088401C00B27849AE
:1014300008801FE074480088A0F580607349B1F906
:101440000010401AB0F1FF3F0DDA6F480088A0F598
:10145000806010F10A0F06DA6D480088401E00B265
:101460006B49088006E068480088A0F5806000B2FB
:10147000674908806648B0F900006449088010BDDB
:1014800010B5FEF7DEFF042817D1002013E09FED12
:10149000610A10EE101A00EB40125F4B03EB4202A0
:1014A00051609FED5E0A10EE101A00EB401203EB44
:1014B00042021162401C0228E9DBFEF7C2FF042849
:1014C00001D1FFF79AFF5248B0F90000C0EB0010BD
:1014D000534988604E48B0F900004042C0EB00100C
:1014E000C860084690ED001AB8EEC11AF0EE410A45
:1014F00090ED021AB8EEC11AB0EE410A464807F064
:10150000D1FABDEEC00A464880ED080A90ED011AF6
:10151000B8EEC11AF0EE410A90ED031AB8EEC11A06
:10152000B0EE410A3C48423007F0BCFABDEEC00ABA
:101530003B4880ED090A3B48008901EE100AB8EEED
:10154000411AF0EE410A374890ED011AB0EE410A17
:10155000FFF7F6FE344880ED000A314890ED080AA6
:10156000B8EEC00A3048D0ED000A20EE200AF0EEB6
:10157000402A2B4890ED090AB8EEC00A2A48D0ED5F
:10158000000A20EE200AB0EE403ABDEEE20A2448FE
:1015900080ED080ABDEEC30A80ED090A006A42F236
:1015A0001071884202DD08461D4908621C48006A25
:1015B0001E49884202DA0846194908621848406AFA
:1015C00042F21071884202DD08461549486214480B
:1015D000406A1649884202DA08461149486210BD3D
:1015E00010B5FFF74DFF10BDF402002048020020A7
:1015F0009A99193FBF03002000000C43CDCCCC3D8D
:101600008FC2F53BCDCC4C3D0C0600204A02002099
:101610003A0200200AD7A33C7401002000C8AF475B
:10162000D00600202C0D002044020020F0D8FFFF3F
:10163000DF48B0F90000DE49B1F90810401A02286D
:1016400012DADB480088401C00B2D94908800846FD
:10165000B0F9000000EE100AB8EEC00A084680EDAE
:10166000010AD4480068C860704710B50446D248E3
:101670000078012847D101F022F9D04908700846C6
:10168000007801282DD1207801282AD1CC48007A71
:10169000032809D0CB480078032805D1C848407AF0
:1016A000022801D1FFF7C4FFC24800682321B0FB24
:1016B000F1F201FB1200A0B9C148007A012810D153
:1016C000BF48407A02280CD1BD494988A1F5806005
:1016D000002801DB014600E04142642901DDFFF7FB
:1016E000A7FFB748007A03280DD0B6480078032832
:1016F00009D1B348407A012805D1207808B90120E2
:1017000000E000202070AE48407AAE49087010BD5D
:1017100010B5AD48FFF7A9FFA548B0F9000000EEED
:10172000100AB8EEC00ADFEDA90A20EE200AA04890
:1017300080ED050A10BD10B50120A5490860A2483A
:101740000078012803D1152000F038FF02E00020C6
:1017500000F034FFFFF7DCFF954890ED050ABDEE81
:10176000C00A9C4880ED050A90ED001AB8EEC11A37
:10177000F0EE410A90ED051AB8EEC11AB0EE410A3A
:10178000954807F08FF9BDEEC00A10EE100A00B2BE
:101790009049088391480088C0F57A708A49097891
:1017A0004843C0F57A708E4908808A48B0F9100025
:1017B00001EE100AB8EEC11AF0EE410A8548B0F900
:1017C000180001EE100AB8EEC11AB0EE410A8548C1
:1017D00007F068F97F4880ED070A10BD10B5034691
:1017E0007748007C012807D132B9724800887E4CC6
:1017F000208000207D4C2070581A002801DB044610
:1018000000E04442022C0EDA784C2478012C0AD0F5
:101810000120764C207067480088754C2080724803
:101820000088744C208072480088724C2488001B09
:1018300080B210BD14205E4908830A215C4881767D
:1018400070477047704710B50B684A69D21A6A4BE7
:101850001A601C462368002B01DB1C4600E05C423A
:10186000062C0CDDB1F91020002A01DB144600E043
:1018700054420A2C03DA426A521C426201E00023FD
:101880004362426A642A07D990F8202022B90122D3
:1018900080F82020594B1A7090F82020012A40D15E
:1018A000564A1278012A04D0022A11D0032A37D1CD
:1018B00024E00A68323A524B1A601A4692ED000A46
:1018C000B8EEC00A80ED050A02224C4B1A7027E0E0
:1018D0004B4A92ED000AB8EEC00A80ED050A1446A4
:1018E0000B6824681A1B002A01DB134600E05342F0
:1018F000282B02DA0322414B1A7011E0002280F8F3
:1019000020203E4B1A7002890280B0F9002000EEC0
:10191000102AB8EEC00A80ED010A0023436200BF1E
:1019200000BF10BD10B5137BD47A43EA04231BB269
:101930008B80947B537B44EA03231BB20B828B89FD
:101940008C881B1B1BB2CB81B1F90E30B3F5805FC5
:1019500004DD8B6803F500538B6008E0B1F90E30AD
:1019600013F5805F03DA8B68A3F500538B60B1F940
:1019700004408B68234400EE103AB8EEC00ADFED55
:10198000210A80EE201ABDEEC10A81ED000A8B8883
:101990008B8191ED000AB8EEC00ADFED0C0A80EEF3
:1019A000201ABCEEC10A10EE103A1BB2038110BD22
:1019B000F8060020CC030020D9020020D802002025
:1019C0000C060020E9020020D0020020BC749341E4
:1019D000B4024342200700204C020020D202002023
:1019E000D40200208E020020E6020020E002002047
:1019F000E4020020E2020020EC020020F0020020BD
:101A0000DC02002000007A4401884FF6FE72914209
:101A100002DA0188491C018070470021018070476B
:101A2000034602EB82004000984202DA012008706F
:101A300001E00020087008787047494931F810101B
:101A4000491C8AB2464921F81020704700200AE05C
:101A5000434931F810201A3921F8102000221A3198
:101A600021F81020401C0D28F2DB704710B53D48CE
:101A700000684FF47A71B0FBF1F201FB120008B973
:101A8000FFF7E4FF002411E03549423901EB44003F
:101A9000FFF7BAFF324B5C3B33F81420343319198B
:101AA0001A3B33F81400FFF7BBFF641C0D2CEBDB73
:101AB0002D480078012823D129485C3890F835005A
:101AC000012809D127480068B0F5FA6F04D9012030
:101AD0002649086026490880FEF7B3FC05280FD088
:101AE00008200BE01E492839095C012905D1891E0F
:101AF0001E4A116001B21E4A1180401C0C28F1DD03
:101B000017485C3890F83600012815D1FEF799FC8B
:101B1000012806D0FEF795FC18B1FEF792FC0228CA
:101B200003D10320FEF714FC06E0FEF78AFC05282B
:101B300002D00320FEF70CFC0E49C97C61B90D49A7
:101B4000897C49B90B49B1F90A00002801DB01463B
:101B500000E04142032902DD00200349087010BD66
:101B600050030020CC0300206A03002070030020F3
:101B70006C0300200C0600207047DFEDFD0AB0EE7C
:101B8000600A00EE900AF8EEE00A9FEDFA1AC0EE45
:101B9000811AB0EE610A7047DFEDF50AB0EE600A17
:101BA0007047F549D1ED000AB6EE001A20EE811A11
:101BB00000EE900AF8EEE00AF6EE001A00EEA11A26
:101BC00081ED001AD1ED000AB2EE041A60EE810A2E
:101BD000FDEEE00A10EE901A09B2E84A1180DFED3E
:101BE000E80AB4EEE00AF1EE10FA03DDDFEDE40AF4
:101BF000B0EE600ADFEDE30AB4EEE00AF1EE10FAAF
:101C000003D2DFEDE00AB0EE600A2D2800DD2D20C2
:101C100010F12D0F01DA6FF02C00DB49D1ED020A33
:101C2000B2EE041A60EE810AFDEEE00AD749C1ED7A
:101C3000000AD549D1ED020AB2EE041A60EE810A1B
:101C4000CE49B1F9001001EE101AB8EEC11AF7EE44
:101C5000001A41EE810ACE49C1ED040AD1ED040A11
:101C6000FDEEE00A10EE901A09B2CA4A1180C84986
:101C7000D1ED050A9FEDC81A60EE810A91ED041AB4
:101C8000DFEDC61A41EE210AC1ED050AD1ED050AC4
:101C9000FDEEE00A10EE901A09B2C14A1180BA496D
:101CA000D1ED010AC1ED020AD1ED000AC1ED010A30
:101CB00081ED000A704710B504460B46B94890F80C
:101CC0003900012803D10020B14948700870B64896
:101CD000007A022803D1AE480078012807D0B24824
:101CE000407C012807D1AA480078012803D10120AF
:101CF000A749087602E00020A5490876A4480078A4
:101D0000012809D1A9480078142808DAA7480078E2
:101D1000401CA649087002E00020A44908709C4AB3
:101D20009288A2F2C62211B2994AB2F90C00FFF7CA
:101D300033FF9F4880ED000A9C48007803280FDDA0
:101D40009C48D0ED0A0AB0EE600A9948D0ED000A2E
:101D5000FDEEE00A10EE900A00B2FFF722FF04E069
:101D600000209FED830AFFF71CFF904800780A28A7
:101D700010DA8E48007800EE100AF8EE400AB2EE53
:101D8000041A80EE810A8248D0ED050A20EE200A6E
:101D900080ED050A7E48007E012865D17C4989884E
:101DA000A1F2C62108B2FFF7E8FEF2EE040A20EE27
:101DB000200A8148D0ED000AB2EE041A00EE810A32
:101DC00084ED000A7249C988A1F23A2108B2FFF7EE
:101DD000D4FEDFED7A0A20EE200A9FED791AC0EEDC
:101DE000010A784890ED000AB8EEC00A30EE600AA9
:101DF00083ED000A744890ED000AF2EE040A20EE2A
:101E0000200ABDEEC00A10EE100A00B26F49088029
:101E100093ED000ADFED6E0AB4EEE00AF1EE10FA7F
:101E200002DD9FED6B0A01E093ED000A83ED000AED
:101E300093ED000ADFED670AB4EEE00AF1EE10FA66
:101E400002D29FED640A01E093ED000A83ED000ADF
:101E500094ED000A5848D0ED000AB2EE041A00EEE4
:101E6000C10A5D4880ED000A10BD30B52DED108B24
:101E700081B00446B0EE408A9FED580AB4EEC08AA5
:101E8000F1EE10FA03DD9FED550AB0EE408A9FEDAA
:101E9000540A38EE000AB0EE408A94ED000ADFEDF5
:101EA000510A30EEC00ADFED500A20EE20FA1FEE94
:101EB000100A09F04DFD41EC1A0BB0EE4A0AF0EEA3
:101EC0006A0A08F0BDFAB0EE409AF0EE609A51EC62
:101ED000190B08F0F1FF08EE900A9FED250A8DED31
:101EE000000A9FED230AF0EE40FA1FEE100A09F0F7
:101EF0002FFD41EC1B0B9FED3D0A68EE000AB7EE8B
:101F0000000A08EEE80A20EE800ADFED390A08EE42
:101F1000E00ADFED370A80EE201A11EE105A28464B
:101F200009F016FD41EC1E0BB0EE4E0AF0EE6E0A03
:101F300007F0AAFDB0EE40DAF0EE60DA51EC1D0BCE
:101F400008F0AEFF41EC1C0B53EC1B2B08F0E6FF36
:101F500041EC1A0B9FED270B53EC102B09F038FACC
:101F600041EC190B08F0A8FF00909DED000A45E038
:101F700000000000EC51F641A00300209203002075
:101F800000003442000034C24007002084030020D7
:101F9000C40D0020940300209A99193FCDCCCC3E6B
:101FA00096030020F40200200C060020900300207D
:101FB000880300208C0B0020FC0500200000004658
:101FC0000000B44334000020780300207C0300208C
:101FD0000090EC450020BC45800300203333934043
:101FE0009A99193E0090E2458010493ACDCC1C41A7
:101FF00000407043000000000000E03FDFEDF70A02
:1020000020EE200AF0EE40FA1FED140A2FEE800AAF
:102010005FED150A80EE201A1FED0E0A30EE410A20
:1020200084ED000AB0EE6F0A01B0BDEC108B30BD3C
:10203000B0EE401ADFEDEA2AB0EE620ADFEDE92ADF
:10204000F4EEE20AF1EE10FA03DDDFEDE62AF0EE3F
:10205000620ADFEDE52AF4EEE20AF1EE10FA03D2AD
:10206000DFEDE12AF0EE620ADFEDE02AB4EEE21ADB
:10207000F1EE10FA28DDDFEDDD2A31EE623ADFED18
:10208000D82AF3EE043A43EE632AB0EE620AF2EE87
:102090000E2AB4EEE20AF1EE10FA02D2F2EE0E2AA5
:1020A00001E0F0EE402AB0EE620ADFEDCD2AB4EE98
:1020B000E20AF1EE10FA02DDDFEDC92A01E0F0EEEE
:1020C000402AB0EE620A03E0DFEDC52AB0EE620AF4
:1020D000DFEDC62AB4EEE21AF1EE10FA03DDDFED11
:1020E000C32AB0EE621AB2EE0F3AC1EE032A9FED98
:1020F000C03A32EE832A60EE821AF4EEC01AF1EE94
:1021000010FA01DDF0EE401AF1EE402AF4EEE21A88
:10211000F1EE10FA03D2F1EE402AF0EE621AD0EDA1
:10212000002A72EEA12AC0ED002A704770B52DED8D
:10213000068B0446B0EE408A00EE104AB8EEC00AA4
:10214000C8EE000A10EE906A304609F001FC41EC3E
:102150001A0BB0EE4A0AF0EE6A0A07F0DDFEB0EEA6
:10216000409AF0EE609A51EC190B09F0D7F8051E71
:1021700001DB284600E0684200EBC00101EB0010E3
:1021800000EE100AF8EEC08AB0EE680ABDEC068BCD
:1021900070BD2DE9F0412DED0A8BB0EE408A04466A
:1021A0000D460027642104FB01F0C11700EB1171FB
:1021B0000911491D09EE901A00EE105AB8EEC00A36
:1021C000DFED8C0A80EE201A11EE106A304609F01D
:1021D000BFFB41EC1C0BB0EE4C0AF0EE6C0A07F0B2
:1021E0009BFEB0EE40BAF0EE60BA9FED830B53EC6D
:1021F000102B51EC1B0B09F0EBF808F05DFE08EE1C
:10220000900AB8EEE90A20EE080ADFED7D0A80EEBA
:10221000201AB0EE419A202C2FDD292C16DDBDEEC0
:10222000C80A10EE100A002801DB014600E0414216
:102230004FF47A7202EB8102A4F1280101EB8101D3
:1022400002EB011109B26F4A118055E0BDEEC80AD8
:1022500010EE100A002801DB014600E041424FF475
:10226000167202EB4102A4F1140101EB810102EBB1
:10227000C10109B2634A11803EE0BDEEC80A10EE0A
:10228000100A002801DB014600E04142282903DA58
:102290004FF496705B490880BDEEC80A10EE100A34
:1022A000002801DB014600E041423C2904DA4FF4FA
:1022B000FA70544908801FE0BDEEC80A10EE100AFB
:1022C000002801DB014600E04142822904DA4FF494
:1022D0002F704C4908800FE0BDEEC80A10EE100ABE
:1022E000002801DB014600E041424FF42F7202EB6F
:1022F000410109B2434A1180282C00DD2824B2EEA6
:10230000040A28EE800ABDEEC00A10EE100A00B2E0
:102310003D490880B2EE040A29EE000ABDEEC00A6B
:1023200010EE100A00B23949088039EE280AF2EEA0
:10233000040A20EE200ABDEEC00A10EE100A00B218
:10234000334908809FED330A2046FFF7EFFE79EE10
:10235000280AFDEEE00A10EE906A002E01DB3046FE
:1023600000E0704200EE900AF8EEE00AB4EEE00AF7
:10237000F1EE10FA60DD28480078401C264908700C
:1023800008460078322801DD3220087022480078A3
:10239000022854DD2149D1ED030A91ED000AB8EE7F
:1023A000C00A30EEC00ABDEEC00A10EE100A0028C6
:1023B00001DB014600E04142172940DA184991F853
:1023C000391051B9174991ED050ABDEEC00A10EE5A
:1023D000100A002828DB014627E02CE03333654251
:1023E00000008C420000C8430000C8C3CDCC4C4064
:1023F0008FC2753D66E6E7440000006066A64C406B
:1024000000401C469E0300209C0300209A030020ED
:10241000980300203333B33EA4030020340000208F
:10242000F4020020C40D00204142B1F5CD7F06DA50
:102430002E2C04DC012702E00020274908703846D2
:10244000BDEC0A8BBDE8F08110B52448007E012860
:1024500011D1224A9288A2F2C62211B21F4A907864
:10246000D2ED040AB0EE600AFFF793FE012800D116
:1024700010BD0020FCE70020FAE70022184890F881
:10248000390028BB154BDB88A3F23A21002901DB78
:102490000B4600E04B421E2B1BDA104B9B88A3F22D
:1024A000C620002801DB034600E04342052B10DA7A
:1024B0000A4991ED040ABDEEC00A10EE100A002888
:1024C00001DB014600E04142282902DA012200E056
:1024D0000022104670470000A4030020C40D002015
:1024E000F4020020282801DA282200E002461046E3
:1024F00040F66422904200DD00E0024610462D4A7C
:10250000B2F90020904207D12A4A1288821A52005A
:1025100012B2294B1A804CE0264AB2F900209042B0
:102520001FDD244A1288821A520012B2224B1A80EE
:102530001A46B2F90020282A01DA282202E01E4AAF
:10254000B2F900201C4B1A801A46B2F900208A42C8
:1025500001DD0A4602E0184AB2F90020164B1A8043
:1025600027E0144AB2F90020904222DA114A128878
:10257000821A520012B2104B1A801A46B2F9002089
:1025800012F1280F02DD6FF0270202E00A4AB2F9C9
:102590000020094B1A801A46B2F900204B429A4299
:1025A00001DA4A4202E0044AB2F9002012B2024BB8
:1025B0001A8070474C0600203A020020102803D1F0
:1025C0001021254A118014E0152803D11521224A33
:1025D00011800EE0192803D119211F4A118008E04B
:1025E0001C2803D11C211C4A118002E000211A4A38
:1025F00011801949098809B2184A118016490988B9
:1026000001EB81014FF47A7202EB4101491D124A3C
:102610009180114609899288891A012905DB0E49A2
:102620000989491E0C4A11810AE00B4909890A4AA5
:102630009288891A04D508490989491C064A1181DA
:1026400005490989064A116003490989121D11606B
:102650007047014670470000A6030020BC0300201D
:10266000340C004010B51520FFF7A8FF484800784B
:1026700068B948480078012809D1474890ED000A18
:10268000F2EE040A20EE200A444880ED080A414890
:102690000078012810D09FED420A404880ED030ADF
:1026A0003D48D0ED000A9FED3F0AB2EE041A00EE5D
:1026B000810A3A4880ED080A3648007834490870A3
:1026C0003948007838B10120384908703848006826
:1026D000401C3749086036480068B0F5FA6F06D9E3
:1026E00000203349086030490870304908702F488D
:1026F000007820B1012824D0022845D143E02D489C
:10270000007801280FD14FF4B47140F66420FFF730
:10271000E9FE2948B0F90000B0F5256F10DD002072
:10272000244908700CE04FF4B4712820FFF7DAFE5A
:102730002148B0F900003C2802DA01201D49087048
:1027400023E01C48007801280FD14FF4E67140F6D1
:102750006420FFF7C7FE1848B0F90000B0F5256FF8
:1027600010DD0020134908700CE04FF4E6712820BA
:10277000FFF7B8FE1048B0F900003C2802DA01204B
:102780000C49087001E000E000BF00BF10BD000070
:10279000C0030020C40D0020FC05002034000020F0
:1027A0000080D4450000E143B4030020BF030020B3
:1027B000B8030020BE0300204C06002061480088BA
:1027C0006149098888420CD05E48D0ED010A5F4813
:1027D000D0F8020000EE100A30EE800A594880ED71
:1027E000010A4FF4F07057490881594800686E217A
:1027F000B0FBF1F201FB1200F0BB5248D0ED010A30
:102800000089400000EE100AB8EEC00AF4EEC00ADB
:10281000F1EE10FA09DD4B480089400000EE100A85
:10282000B8EEC00A474880ED010A464890ED010A1B
:10283000F3EE000A30EE600A80ED010A90ED010A25
:10284000B5EEC00AF1EE10FA02D29FED420A02E0A4
:102850003C4890ED010A3B4880ED010A3E48408922
:1028600000EE100AB8EE400A3648D0ED010A30EE0C
:10287000600AF2EE040A00E016E0B4EEE00AF1EEBF
:1028800010FA08DB3448408900EE100AB8EE400A1E
:102890002C4880ED010A2B4890ED010ABCEEC00ADD
:1028A00010EE100A2D490880264800882649088025
:1028B000704724480088401C2249088070472848F7
:1028C00090F8380020BB1F4890ED010ADFED250A83
:1028D00070EEC00A2448B0F90000400000EE100A73
:1028E000B8EEC00AF4EEC00AF1EE10FA01DD0120E4
:1028F00070471E4800891D4908800846B0F900004D
:1029000000EE100AB8EEC00A084680ED010A16E093
:102910001548B0F90000A02393FBF0F0401E01B26F
:102920004FF47A7090FBF1F002B21048C068084B87
:102930001B68181A904201D30120D9E700BF00207C
:10294000D6E700004C070020C40300203506002015
:10295000CC030020000000002C0D0020C20300204A
:10296000F40200200000F043BC030020F806002021
:1029700010B54FF4A06001F009FFA82000F078F92D
:1029800000F050FA00F0F6F900F0DFFA642000F0F1
:10299000D1F9002000F0FAFA012000F0F7FA022045
:1029A00000F0F4FA032000F0F1FA00F03BF800F038
:1029B000CBF804F0E2FF0021084600F08AFC044650
:1029C0002146092000F02EFC00F094FB00F0FAFAFA
:1029D00000F0A2FC4FF4FA6000F0ACF90E4800F0F1
:1029E000BBFD4FF4E13001F033FA4FF4E13001F078
:1029F00037FB0A4801F0AAFB00F0ECFC05F047FAAF
:102A000000F054FD4FF47A7000F094F900F070FD7E
:102A100001200349087010BDA086010000CA08000B
:102A2000C603002000B58BB00121082003F011F986
:102A30000121480603F054F90121480603F0A5F9E5
:102A400000214FF0007003F0A0F90320099002204C
:102A50008DF8280000208DF82A0003208DF8290029
:102A600001208DF82B0009A9354802F051FE0922FA
:102A70000021334802F0D7FE09220121304802F03C
:102A8000D2FE00208DF81E0001208DF81F000020CE
:102A90008DF820008DF821008DF822008DF823009C
:102AA0008DF81A008DF81B0005208DF81C00012000
:102AB0008DF81D000520ADF8180006A9214801F089
:102AC000EEFE00208DF812008DF8130001208DF825
:102AD00014000020ADF80800ADF80A00ADF80C00B5
:102AE000ADF80E00ADF8100001208DF8150002A819
:102AF00001F05FFF01220221124802F059FA14206E
:102B00008DF8040001208DF8050000208DF80600E6
:102B100001208DF8070001A801F03DFE0BB000BDBB
:102B200000B585B00221074802F0AAFA30B10221AF
:102B3000044802F040FB684604F0A2FC05B000BD6A
:102B4000000C02400064004000B58BB0012102205F
:102B500003F07FF80121880603F0C2F801218806FE
:102B600003F013F900214FF0806003F00EF94FF4E9
:102B70004050099002208DF8280000208DF82A008E
:102B800003208DF8290001208DF82B0009A9364873
:102B900002F0BEFD09220C21334802F044FE092256
:102BA0000D21314802F03FFE00208DF81E0001206B
:102BB0008DF81F0000208DF820008DF821008DF881
:102BC00022008DF823008DF81A008DF81B000520D7
:102BD0008DF81C0001208DF81D000520ADF81800AF
:102BE00006A9224801F05BFE0E208DF8120000209D
:102BF0008DF8130001208DF814000020ADF80800B6
:102C0000ADF80A00ADF80C00ADF80E00ADF81000FC
:102C100001208DF8150002A801F0CBFE012202214F
:102C2000124802F0C5F940208DF8040001208DF80B
:102C3000050000208DF8060001208DF8070001A88E
:102C400001F0A9FD0BB000BD00B585B00221074819
:102C500002F016FA30B10221044802F0ACFA6846DC
:102C600004F0F9FD05B000BD00040240006800401A
:102C700010B504466FF0040001F0DAFDE11704EB33
:102C80005171C1F3C701394A11701046007800EB49
:102C90004001C1EBC0104FF6FF7101EAC00034499A
:102CA000088010BD0146314A12784A434FF0E023B4
:102CB0005A6100229A611A46126942F001021A61B1
:102CC00000BF4FF0E022106900F001021AB100F4D9
:102CD0008032002AF5D04FF0E022126922F0010282
:102CE0004FF0E0231A6100229A6170470146204AA2
:102CF00012884A434FF0E0235A6100229A611A4633
:102D0000126942F001021A6100BF4FF0E02210691F
:102D100000F001021AB100F48032002AF5D04FF021
:102D2000E022126922F001024FF0E0231A61002232
:102D30009A61704770B504464FF4077094FBF0F049
:102D4000C6B24FF4077094FBF0F100FB114085B25E
:102D500005E04FF40770FFF7C9FF701EC6B2002EE2
:102D6000F7D115B12846FFF7C1FF70BDC803002099
:102D7000CA0300201CB50121402002F06AFF4FF475
:102D80000050009001208DF8040000208DF806000E
:102D900003208DF805006946044802F0B9FC4FF4A1
:102DA0000051024802F032FD1CBD00000018024034
:102DB0001CB50121402002F04CFF4FF4FF70009041
:102DC00001208DF8040000208DF8060003208DF806
:102DD000050001208DF8070069464F4802F098FC75
:102DE00002214D4802F010FD04214B4802F00CFD79
:102DF0000821494802F008FD1021474802F004FD6F
:102E00002021454802F000FD4021434802F0FCFC2F
:102E10008021414802F0F8FC4FF480713E4802F0F6
:102E2000F3FC1CBD1CB50121102002F012FF012192
:102E3000202002F00EFF4FF40060009001208DF87A
:102E4000040000208DF8060003208DF80500012005
:102E50008DF807006946314802F05AFC4FF4804073
:102E6000009001208DF8040000208DF8060003205A
:102E70008DF8050001208DF807006946284802F00A
:102E800047FC01202749086000202749C1F8AC020F
:102E9000FFF78EFF1CBD10B5014601200AE0421E5F
:102EA00041FA02F202F00102204C04EB8003C3F865
:102EB0008022401C0928F2DB10BD30B504460025F5
:102EC000082C01DD082000E02046044614F1080F1C
:102ED00002DA6FF0070000E020460446002C09DB10
:102EE000002004E0012181402943CDB2401CA042D2
:102EF000F8DB0BE0002006E0C0F108020121914060
:102F00002943CDB2401C61428842F5DBE843C5B29B
:102F10002846FFF7C0FF30BD0018024000100240F5
:102F200000140240B8824242000042420000434284
:102F300010B50446032C00DD10BD0420A04081B272
:102F40001F4802F063FC00BFF6E71CB5012180209A
:102F500002F07FFE3C20009001208DF8040000204C
:102F60008DF8060003208DF8050001208DF807007C
:102F70006946134802F0CCFB002404E02046FFF72A
:102F8000D7FF601CC4B2042CF8DB1CBD10B504468E
:102F9000032C00DD10BD0420A04081B2084802F0DF
:102FA00033FC00BFF6E710B50446032C00DD10BD6E
:102FB0000420A04081B2024802F031FC00BFF6E7D5
:102FC000001C024000B58BB00121802002F041FEC0
:102FD0000121080202F03DFE0121082002F080FEDE
:102FE0004FF4E050099002208DF8280003208DF85E
:102FF000290009A9834802F08BFB012009900220D7
:103000008DF8280003208DF8290009A97E4802F0D8
:103010007FFB02220A217B4802F005FC02220B21E1
:10302000784802F000FC02220C21764802F0FBFBFB
:1030300002220021744802F0F6FB5320ADF818007C
:103040000020ADF81A0042F2107007900020ADF891
:10305000200006A96D4803F03CFA7020ADF804008A
:103060000120ADF806000020ADF808004FF47A709A
:1030700003900220ADF810000020ADF81200ADF86A
:1030800014004FF48070ADF8160001A95F4803F0FA
:10309000B5FA01A95D4803F0EAFA01A95B4803F01B
:1030A00033FB01A9594803F095FB0821574803F069
:1030B00032FC0821554803F037FC0821534803F03F
:1030C00040FC0821514803F045FC01214F4803F022
:1030D0006BFA01214D4803F085FA4FF47A704B49A1
:1030E00034310860091D0860091D0860091D086069
:1030F0000BB000BD00B58BB00121082002F0A9FD86
:103100000121042002F0ECFD4FF4704009900220F0
:103110008DF8280003208DF8290009A93C4802F009
:10312000F7FA02220C213A4802F07DFB02220D211F
:10313000374802F078FB02220E21354802F073FB7B
:1031400002220F21324802F06EFB5320ADF8180026
:103150000020ADF81A0042F2107007900020ADF880
:10316000200006A92B4803F0B4F97020ADF8040044
:103170000120ADF806000020ADF808004FF47A7089
:1031800003900220ADF810000020ADF81200ADF859
:1031900014004FF48070ADF8160001A91D4803F02B
:1031A0002DFA01A91B4803F062FA01A9194803F09E
:1031B000ABFA01A9174803F00DFB0821154803F0ED
:1031C000AAFB0821134803F0AFFB0821114803F0C4
:1031D000B8FB08210F4803F0BDFB01210D4803F0A7
:1031E000E3F901210B4803F0FDF94FF47A70094926
:1031F00034310860091D0860091D0860091D086058
:103200000BB000BD001C024000200240000C00403A
:10321000000C02400008004010B500213A4803F0BD
:1032200046FB10BD30B58BB004460D460121402051
:1032300002F056FD0121802002F00BFD012140200B
:1032400002F0A3FD0021402002F09FFD092206218B
:103250002E4802F0E8FA4020099002208DF828005C
:1032600003208DF8290000208DF82A0002208DF817
:103270002B0009A9254802F04BFA6020ADF80400A4
:103280000120ADF806000020ADF8100001A91E488D
:1032900003F0B4F908211C4803F03DFB01211A4852
:1032A00003F082F9681E0790601E80B2ADF8180026
:1032B0000020ADF81A00ADF8200006A9124803F06E
:1032C00008F90121104803F08DF9FFF7A5FF0BB0B5
:1032D00030BD10B5024643F6BD600D4B03EB021343
:1032E00033F811300B4C94FBF3F398B210BD064A3F
:1032F00028321080121D1160704710B50446214617
:10330000014803F0D4FA10BD00180040001C024030
:10331000D0C00008802C800000B58BB001210220B5
:1033200002F097FC2020099002208DF8280003204D
:103330008DF8290000208DF82A0001208DF82B003F
:1033400009A9224802F0E4F9022205211F4802F0EF
:103350006AFA0121022002F0C3FC0020ADF820002F
:10336000ADF81A0044F61F6007905320ADF818001E
:1033700000208DF8220006A9154803F0AAF8602065
:10338000ADF804000120ADF8060000200390ADF870
:10339000100001A90E4803F06AF901210C4803F05E
:1033A000C3FA01210A4803F0FFF80121084803F09D
:1033B0000AFD0BB000BD44F62062424344F6206390
:1033C00092FBF3F1024A3832116070470004024068
:1033D0000004004000B587B00121202002F039FC34
:1033E0000121080502F08DFC4FF460700590022069
:1033F0008DF8180000208DF81A0001208DF81B00B0
:1034000003208DF8190005A9264802F081F905224C
:103410000721244802F007FA05220821214802F07A
:1034200002FA052209211F4802F0FDF9402005900B
:1034300001208DF8180000208DF81A0001208DF869
:103440001B0003208DF8190005A9164802F060F949
:103450004021144802F0D8F94FF48270ADF8020010
:103460000020ADF80400ADF800004FF40070ADF896
:103470000A000020ADF80E000120ADF8080002207F
:10348000ADF806002020ADF80C000A20ADF81000C1
:103490006946054802F07CFD0121034802F072FEF6
:1034A00007B000BD00140240005001401FB50121CB
:1034B000102002F015FC36208DF8000001208DF858
:1034C00001008DF802008DF80300684601F063F9F1
:1034D0005320ADF804000020ADF80600ADF80C0054
:1034E0004FF47A70029001A9194802F0F2FF1FBD53
:1034F00010B50121164803F075F801221146144851
:1035000003F088FC0121124803F098FC10BD10B5AF
:1035100001210F4803F095FCC0B101210C4803F0D4
:10352000A1FC01210A4803F089FCFDF79FF9094835
:103530000068401C07490860084600686421B0FB29
:10354000F1F201FB120008B9FDF7F2F910BD00001D
:1035500000100040CC03002010B596B004460121B5
:10356000022002F076FB0121102002F0CAFB0722A4
:1035700011464C4802F057F914A802F011F98020C6
:10358000149002208DF8540001208DF8570002207D
:103590008DF8550000208DF8560014A9414802F01E
:1035A000B7F8414803F03AFD10A803F004FE3F4885
:1035B00010900020ADF84400ADF846004FF4806054
:1035C000ADF848000420ADF84A000020ADF84C00EA
:1035D00010A9354803F089FD0121334803F00DFEA1
:1035E00001224021304803F0B5FE314801F036FE9B
:1035F0000121880502F02DFB4FF0006000902A4861
:10360000001D01902B48029000200390122004908E
:10361000002005904FF480600690002007900890ED
:103620004FF4807009904FF440300A9000200B90C6
:103630000C900D900E9069461D4801F0B1FE0122DC
:1036400010211B4801F073FF0121194801F0E2FE2F
:103650003A208DF83C0000208DF83D008DF83E00AA
:1036600001208DF83F000FA801F095F816B010BDAD
:1036700010B511490E4801F077FF88B14FF0815124
:103680000B4801F040FF0C49094801F097FF094839
:1036900004F05EFF0948FEF7C0F90220FEF7CDF9FD
:1036A00010BD00000004024000100140A08601008F
:1036B00040640240580700200080201012030020C0
:1036C00010B596B004460121082002F0C2FA01218B
:1036D000480502F0BEFA0121480402F001FBFB4854
:1036E00003F09CFC0121F94803F09BFD0722052112
:1036F000F74802F098F807220621F54802F093F8FF
:103700006020149002208DF8540000208DF856009F
:1037100003208DF8550000208DF8570014A9EC48BF
:1037200001F0F6FF26208DF83C0002208DF83D00C8
:1037300001208DF83E008DF83F000FA801F02BF816
:1037400010A803F038FD10940020ADF84400ADF847
:103750004600ADF848000C20ADF84A000020ADF856
:103760004C0010A9D94803F0C0FC012240F22441CA
:10377000D64803F0F8FD01224021D44803F0EAFDC9
:103780000021D24803F039FDD24801F067FD4FF027
:1037900000600090CD48001D0190CF4802900020AD
:1037A000039064200490002005904FF48060069000
:1037B00000200790089009904FF480300A90002074
:1037C0000B900C900D900E906946C248603001F04D
:1037D000E7FD10208DF83C0002208DF83D0001200F
:1037E0008DF83E008DF83F000FA800F0D4FF0122B5
:1037F0001021B848603001F09AFE0022B6496431C9
:10380000B448603001F02DFE0121B248603001F073
:1038100034FE0121AF48603001F0FCFD16B010BD50
:1038200000B591B00121480502F013FAA94878309B
:1038300001F014FD4FF000600190A448001D0290BB
:10384000A6480390402004904FF4C87005900020D3
:1038500006904FF4806007900020089009900A902D
:103860004FF400300B9000200C9001200D900020B0
:103870000E900F9001A99748783001F091FD012238
:1038800010219448783001F052FE012280218F48A7
:1038900003F060FD11208DF8400002208DF84100FA
:1038A00001208DF842008DF8430010A800F073FF4E
:1038B00000218848783001F0ADFD11B000BD70B531
:1038C00004460D4600BF864800780028FBD1012041
:1038D000834908702A462146804805F0C1FF2946E1
:1038E0007C48783001F0B7FD01217A48783001F04A
:1038F00091FD70BD10B57B497648783001F034FEFB
:1039000078B178497348783001F0FDFD00217148A5
:10391000783001F07FFD012240F226616B4803F010
:1039200022FD10BD10B540F22771684803F056FD26
:1039300040B9002240F22661644803F014FD0020E3
:103940006749087010BD0146B1F8C800B1F8CA2037
:10395000904201D1C7207047B1F8CA00B1F8C82021
:10396000801A012806D0B1F8CA00B1F8C820801A20
:10397000C73008B90020EEE7B1F8CA00B1F8C82096
:10398000801A401E002806D4B1F8CA00B1F8C82039
:10399000801A401E05E0B1F8CA00B1F8C820801AAC
:1039A000C73080B2D7E72DE9F04104460F461546EF
:1039B0002046FFF7C8FFA84227DB002D25DDB4F81D
:1039C000C8002844C8280CDAB4F8C81008192A46D8
:1039D000394605F045FFB4F8C8002844A4F8C800EB
:1039E00016E0B4F8C800C0F1C806B4F8C810081949
:1039F0003246394605F034FFAA1BB919204605F0B6
:103A00002FFFA81BA4F8C80002E00020BDE8F08149
:103A10000120FBE710B540F224412C4803F0DEFC06
:103A2000002852D001203049A1F8CE002748008854
:103A30002648001D00882748603001F02EFDE0BBBD
:103A400000202A490870002210212248603001F02D
:103A50006EFD00211F48603001F0DCFC24491D4848
:103A6000603001F0ABFD1B48603001F0F6FCC0F1A6
:103A700064002049086064201649643108601548D4
:103A80002838D0F8880040F4002012492839C1F8BD
:103A900088001848008882B21448007800EBC00300
:103AA00003EB00100C4B03EB80010F48FFF77BFF8B
:103AB000012210210748603000E01DE001F037FDD1
:103AC00001210448603001F0A5FC52E000440040B0
:103AD000000C024028600240720700200A09002002
:103AE000D0030020008020203A080020D1030020CD
:103AF00000880020D40300200120CE490870002255
:103B00001021CD4801F013FD0021CB4801F082FCCB
:103B1000CA49C94801F052FDC74801F09EFCC0F1F6
:103B20006400C74908606420C349091D0860C24891
:103B30008838D0F8880020F40020BF498839C1F8BF
:103B40008800BF48008882B2BA48007800EBC00302
:103B500003EB0010BB4B03EB8001BB48FFF723FFD7
:103B600001221021B44801F0E2FC0121B24801F029
:103B700051FC10BD10B5FFF7D5FEFFF74BFF10BD90
:103B800010B5AE49AC4801F0EFFCF0B1AB49AA4822
:103B900001F0B9FCA84801F080FC08B9012000E060
:103BA0000020A4490870A9480088A848001D008882
:103BB0000846007800EBC00202EB0010A14A02EBBD
:103BC00080016422A048FFF7EEFE10BD0146B1F867
:103BD000C800B1F8CA20904201D100207047B1F866
:103BE000CA00B1F8C820801A012806D0B1F8CA006E
:103BF000B1F8C820801AC73008B9C720EEE7B1F87D
:103C0000C800B1F8CA20801A05D4B1F8C800B1F8CC
:103C1000CA20801A05E0B1F8C800B1F8CA20801A9D
:103C2000C83080B2DAE72DE9F04107460C46154668
:103C30002046FFF7CBFFA84227DB002D25DDB4F897
:103C4000CA002844C8280CDAB4F8CA0001192A4668
:103C5000384605F005FEB4F8CA002844A4F8CA00A6
:103C600016E0B4F8CA00C0F1C806B4F8CA000119D9
:103C70003246384605F0F4FDAA1B2146384605F0C9
:103C8000EFFDA81BA4F8CA0002E00020BDE8F08107
:103C90000120FBE730B5034601241846FFF796FFE5
:103CA000A0421CDB002C1ADDB3F8CA002044C8284F
:103CB00008DAB3F8CA001D5CB3F8CA002044A3F8C0
:103CC000CA000AE0B3F8CA10C1F1C800B3F8CA10BC
:103CD0005D5C211AA3F8CA1000BF284630BD002041
:103CE000FCE72DE9F04107460C462046FFF76EFF42
:103CF0000546002D25DDB4F8CA002844C8280CDA92
:103D0000B4F8CA0001192A46384605F0A9FDB4F8EE
:103D1000CA002844A4F8CA0016E0B4F8CA00C0F1EA
:103D2000C806B4F8CA0001193246384605F098FDB5
:103D3000AA1B2146384605F093FDA81BA4F8CA002B
:103D400002E00020BDE8F0810120FBE72DE9F0470B
:103D500081460D4617461C462846FFF737FF39199E
:103D6000884221DB002C1FDDB5F8CA003844C82189
:103D700090FBF1F201FB12063019C82805D2A919EF
:103D80002246484605F06CFD0DE0C6F1C808A919A9
:103D90004246484605F064FDA4EB08022946484621
:103DA00005F05EFD00BF02E00020BDE8F0870120C5
:103DB000FBE770B503460C4601251846FFF706FFE2
:103DC000611988420BDB002D09DDB3F8CA002044DD
:103DD000C82290FBF2F602FB1601585C70BD002071
:103DE000FCE710B503460C461846FFF7EFFEA0426D
:103DF00014DB002C12DDB3F8CA002044C82805DA11
:103E0000B3F8CA002044A3F8CA0009E0B3F8CA1006
:103E1000C1F1C800211AA3F8CA1001E0002010BDAA
:103E20000120FCE700200849A1F8C800A1F8CA0059
:103E300070470000D1030020886002400088002005
:103E4000D4030020720700203A08002000440040FC
:103E500010B596B004460121082001F0FAFE0121B8
:103E6000480501F0F6FE0121880401F039FF76488B
:103E700003F0D4F807220821744801F0D4FC07228B
:103E80000921724801F0CFFC4FF480701490022099
:103E90008DF8540000208DF8560003208DF8550051
:103EA00000208DF8570014A9684801F031FC4FF448
:103EB0000070149002208DF8540001208DF85600F7
:103EC00003208DF8550001208DF8570014A95F4894
:103ED00001F01EFC27208DF83C0002208DF83D00EB
:103EE00001208DF83E008DF83F000FA800F053FC34
:103EF00010A803F060F910940020ADF84400ADF86C
:103F00004600ADF848000C20ADF84A000020ADF89E
:103F10004C0010A94C4803F0E8F8012240F224417B
:103F2000494803F020FA01224021474803F012FAE1
:103F30000121454803F061F9454801F08FF94FF040
:103F4000006000904048001D01904248029000200F
:103F5000039064200490002005904FF48060069048
:103F600000200790089009904FF480300A900020BC
:103F70000B900C900D900E906946354801F010FAA8
:103F8000002234496431324801F06BFA0121304893
:103F900001F073FA01212E4801F03CFA16B010BD71
:103FA00010B540F22441284803F018FA00284AD0FE
:103FB000254800882448001D0088254801F06DFA36
:103FC00000BB0020244908700021214801F022FA9A
:103FD0001F4801F042FAC0F16400204908606420E3
:103FE0001B492839C8620846806A40F4002088626C
:103FF0000121174801F00EFA18480178154804F01D
:10400000B5FB20E00120144908700021104801F0A0
:1040100001FA0F4801F021FAC0F164000F4908606D
:1040200064200B492839C8620846806A20F40020C1
:1040300088620121064801F0EDF908480178054839
:10404000643004F093FB10BD00480040000C0240B7
:10405000286002409A0A0020DA030020DC030020D6
:1040600010B588B004460121402001F0F2FD012185
:10407000202001F046FE08220921314801F0D3FB3F
:1040800008220E212E4801F0CEFB4FF4844006900A
:1040900002208DF81C0000208DF81E0003208DF8F2
:1040A0001D0000208DF81F0006A9254801F030FBF7
:1040B000244802F0B3FF02A803F07DF80294002028
:1040C000ADF80C00ADF80E00ADF810000C20ADF806
:1040D00012000020ADF8140002A91A4803F005F8F8
:1040E00047208DF8040002208DF8050001208DF88E
:1040F00006008DF8070001A800F04DFB012240F2F8
:104100002551104803F02FF901210E4803F075F8EE
:1041100008B010BD10B540F225510A4803F05EF911
:1041200068B1084803F098F8074908700846007815
:1041300004F071FC034800880248001D008810BD8F
:104140000018024000140140E003002010B588B0C0
:1041500004460121102001F07CFD0121880701F0B7
:10416000BFFD082207213C4801F05DFB08221146F3
:10417000394801F058FB8020069002208DF81C0081
:1041800000208DF81E0003208DF81D0000208DF802
:104190001F0006A9304801F0BBFA4FF4807006906A
:1041A00002208DF81C0000208DF81E0003208DF8E1
:1041B0001D0000208DF81F0006A9274801F0A8FA6D
:1041C000264802F02BFF02A802F0F5FF029400201F
:1041D000ADF80C00ADF80E00ADF810000C20ADF8F5
:1041E00012000020ADF8140002A91C4802F07DFF67
:1041F00052208DF8040001208DF805008DF806008E
:104200008DF8070001A800F0C6FA012240F22551FE
:10421000124803F0A8F80121104802F0EEFF08B0A0
:1042200010BD10B540F225510C4803F0D7F890B1FD
:104230000A4803F011F80A4908700846007804F0AB
:1042400081FB08480068401C064908600348008854
:104250000248001D008810BD001002400078004098
:10426000E8030020E403002000B58BB0012180208A
:1042700001F0EFFC0121080201F0EBFC0121082014
:1042800001F02EFD4FF4E050099002208DF8280037
:1042900003208DF8290009A98B4801F039FA012083
:1042A000099002208DF8280003208DF8290009A923
:1042B000864801F02DFA02220A21834801F0B3FA60
:1042C00002220B21804801F0AEFA02220C217E4826
:1042D00001F0A9FA022200217C4801F0A4FA122080
:1042E000ADF818000020ADF81A0005200790002056
:1042F000ADF8200006A9764802F0EBF87020ADF882
:1043000004000120ADF806000020ADF8080003907D
:104310000220ADF810000020ADF81200ADF8140036
:104320004FF48070ADF8160001A9694802F066F9F3
:1043300001A9674802F09BF901A9654802F0E4F978
:1043400001A9634802F046FA0821614802F0E3FA45
:1043500008215F4802F0E8FA08215D4802F0F1FA0E
:1043600008215B4802F0F6FA0121594802F01CF9D5
:104370000021574802F036F90BB000BD00B58FB0F0
:104380000121480501F065FC0520FEF7D3FC002162
:10439000504801F03FF84F4800F060FF4FF0406098
:1043A00000904B483C3001904B48029040200390D5
:1043B00079200490002005904FF4806006908000E2
:1043C000079080000890002009904FF480300A90F8
:1043D00000200B9003200C9000200D900E90694659
:1043E0003C4800F0DDFF01221102394802F042FD95
:1043F0000021384801F00EF80121354802F0F2F8AA
:104400000FB000BD10B53549324801F060F818B959
:104410003348007801281CD0012031490870314907
:104420002C4801F070F800212A4800F0F3FF7921B0
:10443000284801F010F80121264800F0EBFF24483D
:104440001430008840F00100214914310880012017
:1044500010BD0020FCE72DE9F04105460C46052C77
:1044600002DD0020BDE8F08100211EE0002019E0FF
:10447000072214E001EB41032B441B5C134103F0C2
:104480000103194EF35C01EB4106F60006EBC00692
:10449000C2F107073E44104F47F82630521E002A4B
:1044A000E8DA401C0328E3DB491CA142DEDB0020E4
:1044B00004EB4401082202EBC101074A42F8210043
:1044C000FFF7A0FF0120CDE7001C024000200240C2
:1044D000000C004010600240EC030020200000109F
:1044E000D00500202080001000C10008704700BFE8
:1044F000FEE700BFFEE700BFFEE700BFFEE7704734
:1045000070477047704700000CB500200190009084
:104510008348006840F480308149086000BF8048CB
:10452000006800F4003000900198401C0190009851
:1045300018B90198B0F5A04FF1D17948006800F49E
:10454000003010B10120009001E0002000900098A0
:10455000012860D172484030006840F080507049B6
:10456000403108606F48006840F440406D49086081
:104570006B48083000686A490831086008460068DE
:1045800040F4004008600846006840F4A05008600D
:104590006548091F0860081F006840F08070091F07
:1045A000086000BF5E48006800F000700028F9D085
:1045B0005C48006840F480305A49086000BF5948A0
:1045C000406800F480300028F9D05648006840F474
:1045D00000305449086000BF5248406800F4003081
:1045E0000028F9D040F20570504908604C48083066
:1045F000006820F003004A49083108600846006856
:1046000040F00200086000BF45480830006800F034
:104610000C000828F8D10CBD10B54548006840F4DE
:104620007000434908603E48006840F001003C4982
:10463000086000203A4908310860394800683D495F
:104640000840374908603C48091D0860081F006899
:1046500020F48020091F0860002031490C310860D7
:10466000FFF752FF4FF0006031498039086010BDFC
:1046700070B500200022022300240221284D0835B5
:104680002D6805F00C0020B1042806D0082834D18C
:1046900007E02A4D2A4E356033E02A4D284E35601A
:1046A0002FE01F4D2D1D2D68C5F380541C4D2D1D71
:1046B0002D6805F03F0154B1224DB5FBF1F5184EC0
:1046C000361D3668C6F3881605FB06F209E01B4D59
:1046D000B5FBF1F5124E361D3668C6F3881605FB9C
:1046E00006F20F4D2D1D2D68C5F301456D1C6B00A5
:1046F000B2FBF3F5124E356003E0104D104E3560FD
:1047000000BF00BF064D08352D68C5F303150E4EDA
:10471000705D0B4D2D68C540094E356070BD0000C1
:1047200000380240007000400C5A4007003C024034
:1047300088ED00E0FFFFF6FE103000240024F400B6
:10474000D4050020001BB700D80500200948804789
:1047500009480047FEE7FEE7FEE7FEE7FEE7FEE763
:10476000FEE7FEE7FEE7FEE704480549054A064B7B
:104770007047000019460008AD010008780E0020BF
:10478000781400207810002078100020324901436E
:10479000324A1160704770B5002100230F22C4789F
:1047A0001CB32E4C246804F4E064C4F5E064C4F344
:1047B0000721C1F10404E3B20A4144789C40E1B20C
:1047C0008478144021430C07210E254C057861554F
:1047D000047804F01F050124AC4005786D11AD008C
:1047E00005F1E025C5F8004109E0047804F01F0553
:1047F0000124AC401B4D0678761145F8264070BD6B
:10480000194A0A400243154B1B1F1A60704739B101
:10481000124A121D12680243104B1B1D1A6006E05B
:104820000E4A121D126882430C4B1B1D1A60704702
:10483000042808D14FF0E021096941F004014FF04C
:10484000E022116107E04FF0E021096921F0040145
:104850004FF0E022116170470000FA050CED00E016
:1048600000E400E080E100E080FFFF1F10B5044697
:10487000FE48844209D10121480601F086FA002150
:104880004FF0007001F081FA08E00121880601F084
:104890007CFA00214FF0806001F077FA10BD30B54E
:1048A000024600200023146824F0020414601468F7
:1048B00044F00104146000E05B1C546804F001043F
:1048C0001CB94FF6FF74A342F6D1546804F00104FA
:1048D0000CB900206CE08C79012C04D1146844F0F0
:1048E0008004146003E0146824F080041460CC7920
:1048F000012C04D1146844F04004146003E01468EF
:1049000024F0400414600C7A012C04D1146844F0A3
:104910002004146003E0146824F0200414604C7A2E
:10492000012C04D1146844F01004146003E01468EE
:1049300024F0100414608C7A012C04D1146844F023
:104940000804146003E0146824F008041460CC7AAE
:10495000012C04D1146844F00404146003E01468CA
:1049600024F0040414608C78A407CD7844EA05642C
:104970000D7944EA05444D7944EA05540D886D1ECD
:104980002C43D461146824F001041460002300E077
:104990005B1C546804F001041CB14FF6FF74A34281
:1049A000F6D1546804F001040CB1002000E00120AD
:1049B00030BD10B50021837A012202FA03F1AC4A1E
:1049C000126842F00102AA4B1A60A94A1C3212680E
:1049D0008A43A74B1C331A60027BCAB9A44A0C3223
:1049E00012688A43A24B0C331A604288C38842EA99
:1049F00003439F4A4032847A42F8343002888388E5
:104A000042EA03439A4A4032847A02EBC40253607A
:104A1000027B012A19D1964A0C3212680A43944B40
:104A20000C331A604288038842EA0343904A4032BA
:104A3000847A42F83430C288838842EA03438C4A3D
:104A40004032847A02EBC4025360C27A3AB9884A8F
:104A5000121D12688A43864B1B1D1A6006E0844AA9
:104A6000121D12680A43824B1B1D1A60028932B95B
:104A70007F4A143212688A437D4B14331A600289CC
:104A8000012A06D17A4A143212680A43784B143349
:104A90001A60427B012A06D1754A1C3212680A4309
:104AA000734B1C331A60724A126822F00102704B79
:104AB0001A6010BD00218171C17101724172817251
:104AC000C1728170C1700321017102214171012104
:104AD000018070476649096841F00101644A11602C
:104AE0001146096843F60E729143614A11601146FE
:104AF000096841EA002111601146096821F00101AD
:104B00001160704721B1026842F48032026003E014
:104B1000026822F4803202607047E1B1026842F01C
:104B2000800202604FF4C272125842F480734FF454
:104B3000C27213504FF4CA72125842F480734FF489
:104B4000CA7213504FF4D272125842F480734FF469
:104B5000D27213501BE0026822F0800202604FF410
:104B6000C272125822F480734FF4C27213504FF481
:104B7000CA72125822F480734FF4CA7213504FF461
:104B8000D272125822F480734FF4D27213507047CD
:104B900010B502460020936803F08063B3F1806F84
:104BA00000D110E0936803F00063B3F1006F01D10E
:104BB000012008E0936803F08053B3F1805F01D1D6
:104BC000022000E00420042879D002F5C07303EB32
:104BD00000131B6803F0010402F5C07303EB00131C
:104BE0001C600B7A7BB94B7A0C8843EA445302F57C
:104BF000C07404EB00142468234302F5C07404EB72
:104C00000014236010E00B7A4C6843EAC4034C7A2A
:104C1000234302F5C07404EB00142468234302F517
:104C2000C07404EB001423608B7A03F00F038B72C3
:104C300002F5C07303EB00135B6823F00F0402F569
:104C4000C07303EB00135C6002F5C07303EB001349
:104C50005B688C7A234302F5C07404EB0014636034
:104C60008B7B1C064B7B44EA034403E0006400405A
:104C7000006600400B7B44EA0323CC7A234302F511
:104C8000C07404EB0014A3608B7C1C064B7C44EACC
:104C900003440B7C44EA0323CC7B234302F5C0741A
:104CA00004EB0014E36002F5C07303EB00131B6810
:104CB00043F0010402F5C07303EB00131C6010BD48
:104CC00010B50246002321B1012907D002290FD1D6
:104CD00009E09068F94C00EA04030BE09068F84C96
:104CE00000EA040306E09068F64C00EA040301E0E1
:104CF000002300BF00BFF44C181BA34216D007DCF2
:104D000083B16FF08060184470B1022818D111E0AF
:104D1000B0F5007F10D0ED4C204448B1B0F5003F15
:104D20000ED10BE002230DE000230BE0002309E08D
:104D3000002307E0012305E0012303E0012301E054
:104D4000002300BF00BFD8B210BD21B1012907D098
:104D500002290FD109E0826842F0800282600AE0F5
:104D6000826842F40042826005E0826842F40002F8
:104D7000826000E000BF00BF704710B500F5D87337
:104D800003EB01131B6803F004031372137A53B986
:104D900000F5D87303EB01131B6840F2FF7404EABB
:104DA0005353136009E000F5D87303EB01131B683C
:104DB0006FF0604404EAD303536000F5D87303EB4B
:104DC00001131B6803F00203537200F5D87303EB61
:104DD00001135B6803F00F03937200F5D87303EBC4
:104DE00001135B681B0AD37400F5D87303EB01133E
:104DF0009B68D37200F5D87303EB01139B681C0A00
:104E0000147300F5D87303EB01139B681C0C5473E7
:104E100000F5D87303EB01139B681B0E937300F529
:104E2000D87303EB0113DB68D37300F5D87303EB7E
:104E30000113DB681C0A147400F5D87303EB01132B
:104E4000DB681C0C547400F5D87303EB0113DB68AA
:104E50001B0E937421B9C36843F02003C36003E0C1
:104E6000036943F02003036110BD21B9C26842F019
:104E70002002C26003E0026942F020020261704732
:104E80000246002019B9D36803F0030006E00129A7
:104E900003D1136903F0030000E00020704710B550
:104EA00002460B4600204FF6FF71BBB9146824F090
:104EB000020444F00104146000E0491E546804F048
:104EC0000304012C01D00029F7D1546804F0030435
:104ED000012C01D0002032E0012030E0012B13D161
:104EE000146824F00304146000E0491E546804F0C0
:104EF00003040CB10029F8D1546804F003040CB188
:104F000000201CE001201AE0022B17D1146824F0C5
:104F1000010444F00204146000E0491E546804F0E7
:104F20000304022C01D00029F7D1546804F00304D3
:104F3000022C01D0002002E0012000E0002010BD82
:104F4000014600200A6822F0010242F002020A60D3
:104F50004A6802F00302022A00D10120704701468C
:104F60004FF6FF7200200B6823F002030B6000E095
:104F7000521E4B6803F00203022B01D1002AF7D125
:104F80004B6803F00203022B00D00120704701465A
:104F900000208A6902F070007047014600208A698B
:104FA000100E7047014600208A69C2F3074070471F
:104FB0001AB143690B43436102E043698B43436188
:104FC000704710B50246002001F4700343B19369A5
:104FD000C1F3130423400BB101202DE000202BE08E
:104FE00001F0807343B15368C1F3130423400BB144
:104FF000012021E000201FE001F0006343B193682D
:10500000C1F3130423400BB1012015E0002013E08D
:1050100001F0007343B1D368C1F3130423400BB113
:10502000012009E0002007E01369C1F313042340C5
:105030000BB1012000E0002010BD0022244B99425A
:1050400002D10023836111E0C1F3130201F0007368
:105050000BB1C2600AE001F080630BB1026105E0B0
:1050600001F000630BB1826000E0426070470246CD
:10507000002002EA01030BB1012000E0002070478C
:1050800070B504460D46002660692840002872D09D
:10509000B5F5807F69D01DDC082D42D006DC012DDE
:1050A0002DD0022D31D0042D7FD134E0102D3ED0F3
:1050B000202D42D0402D78D145E0000003000004AF
:1050C0000003000800000310000100080001FFF7C2
:1050D0007000F030B5F5004F61D009DCB5F5007F08
:1050E0004AD0B5F5806F4DD0B5F5006F5DD150E079
:1050F000B5F5803F2DD0B5F5003F56D12FE0A06823
:105100005549FFF7B4FF064651E0E0680321FFF779
:10511000AEFF06464BE0E0680821FFF7A8FF064611
:1051200045E0E0681021FFF7A2FF06463FE0206956
:105130000321FFF79CFF064639E020690821FFF7AD
:1051400096FF064633E020691021FFF790FF0646E0
:105150002DE060680821FFF78AFF064627E06068B7
:105160001021FFF784FF064621E0A0690121FFF727
:105170007EFF06461BE01BE0A0690221FFF777FFD8
:10518000064614E0A0690421FFF771FF06460EE011
:105190000BE0A0697021FFF76AFF064607E0606830
:1051A0000421FFF764FF064601E0002600BF00E08F
:1051B0000026304670BDB1F5007F3AD00FDC2029C3
:1051C00028D006DC01291CD004291DD0082940D193
:1051D0001DE0402921D0B1F5807F3AD126E0B1F51C
:1051E000004F31D006DCB1F5806F25D0B1F5006FEE
:1051F0002FD124E0B1F5803F12D0B1F5003F28D186
:1052000011E0154A826025E00822C26022E01022E7
:10521000C2601FE0082202611CE01022026119E056
:105220000822426016E01022426013E0042242602D
:1052300010E0042242600DE0042242600AE00022F5
:1052400082610422426005E0002282610422426001
:1052500000E000BF00BF704701010100016821F0BC
:10526000010101600021016041608160C160016154
:1052700021214161DB49884204D13D21D94A103ABC
:1052800091608CE0D7491831884205D14FF47461A0
:10529000D44A103A916082E0D2493031884205D137
:1052A0004FF47411CF4A103A916078E0CD494831FB
:1052B000884205D14FF07461CA4A103A91606EE09D
:1052C000C8496031884204D1C749C64A103AD16002
:1052D00065E0C4497831884204D1C449C14A103AD2
:1052E000D1605CE0BF499031884204D1C049BD4AD9
:1052F000103AD16053E0BB49A831884205D14FF044
:105300003D51B84A103AD16049E0BA49884204D1C7
:105310003D21B84A083A116041E0B6491831884247
:1053200005D14FF47461B34A083A116037E0B149CE
:105330003031884205D14FF47411AE4A083A1160F9
:105340002DE0AC494831884205D14FF07461A94A3B
:10535000083A116023E0A7496031884204D1A2498C
:10536000A44A121F11601AE0A2497831884204D180
:105370009E49A04A121F116011E09E499031884257
:1053800004D19B499B4A121F116008E09949A8313A
:10539000884204D14FF03D51964A121F1160704768
:1053A00010B500220268944B1A40CC680B68234366
:1053B0004C6923438C692343CC6923430C6A234300
:1053C0004C6A23438C6A23434C6B23438C6B2343EB
:1053D0001A430260426922F00702D1E90B342343E9
:1053E0001A4342610B6943604B6883608B68C360FA
:1053F00010BD0021016041608160C16001614161B7
:105400008161C161016241628162C1620163416384
:105410008163704721B1026842F00102026003E03B
:10542000026822F001020260704721B1026842F472
:105430000042026003E0026822F40042026070470A
:1054400021B1026842F02002026003E0026822F00B
:10545000200202607047416070470146486880B290
:10546000704722B1036843F40023036003E003683C
:1054700023F4002303600161704721B1026842F404
:105480008022026003E0026822F4802202607047FA
:105490000AB1016100E0C1607047014600200A685E
:1054A00002F400220AB1012000E00020704701460A
:1054B00000200A6802F001020AB1012000E0002089
:1054C0007047014600204A6902F03800704730B545
:1054D00003460A4600200024464DAB4202D2414911
:1054E000103901E04349103902F000550DB14C6804
:1054F00000E00C68414D2C4004EA02050DB101208A
:1055000000E0002030BD02463A4B9A4202D23548B4
:10551000103801E03748103801F000531BB1374B09
:105520000B40C36002E0354B0B408360704710B501
:1055300001F080034BB122B1436943F08003436122
:1055400003E0436923F08003436180290BD02AB133
:10555000036801F01E042343036004E0036801F0C4
:105560001E04A343036010BD70B502460020002452
:105570000025204EB24202D21A4B103B01E01D4BD7
:10558000103B1F4E0E4036B11E2606EAD124166887
:1055900006EA040502E0566906F0800501F00056AF
:1055A0000EB15C6800E01C68144E344004EA010649
:1055B00016B10DB1012000E0002070BD02460D4B78
:1055C0009A4202D20748103801E00A48103801F028
:1055D00000531BB1094B0B40C36002E0074B0B406B
:1055E00083607047106002403D000020400F0020A3
:1055F00000003D20106402403F801CF07D0F7D0FB5
:105600003C0F3C0F10B504469848844208D1012154
:10561000084600F087FB0021012000F083FB76E0C4
:105620009348844208D10121022000F07BFB002135
:10563000022000F077FB6AE08E48844208D1012105
:10564000042000F06FFB0021042000F06BFB5EE003
:105650008948844208D10121082000F063FB002121
:10566000082000F05FFB52E08448844208D1012109
:10567000102000F057FB0021102000F053FB46E003
:105680007F48844208D10121202000F04BFB0021FB
:10569000202000F047FB3AE07A48844208D10121FB
:1056A000402000F03FFB0021402000F03BFB2EE0BB
:1056B0007548844208D10121802000F033FB00218D
:1056C000802000F02FFB22E07048844208D10121A5
:1056D000801500F027FB0021A01500F023FB16E049
:1056E0006B48844208D10121401500F01BFB0021CA
:1056F000601500F017FB0AE06648844207D10121DB
:10570000001500F00FFB0021201500F00BFB10BD71
:10571000F0B50A4600210023002400BF3DE001252A
:1057200005FA01F3156805EA03049C4234D10568C3
:105730004F000326BE40B543056015794E00B540C5
:105740000668354305601579012D02D01579022DC3
:1057500016D185684F000326BE40B5438560557954
:105760004E00B540866835438560456801268E4009
:10577000B5434560456896798E40B6B2354345607D
:10578000C5684F000326BE40B543C560D5794E00BD
:10579000B540C6683543C560491C1029BFD3F0BD6C
:1057A0004FF6FF7101600021017141718171C1717A
:1057B000704708B54FF480320092009A0A43009275
:1057C000009AC261C161009AC261C2690092C26955
:1057D000009208BD0246002013690B400BB1012066
:1057E00000E0002070470146086980B27047024619
:1057F000002053690B400BB1012000E000207047EE
:105800000146486980B27047018370474183704701
:105810000AB1018300E041837047416170474269EA
:105820004A4042617047F0B5002300244D07ED0E59
:1058300002FA05F3CE1000F1200555F826504E0768
:10584000F70E0F26BE40B543CF1000F1200646F8F4
:105850002750CE1000F1200555F8265045EA0304E4
:10586000CE1000F1200545F82640F0BD00000240B2
:105870000004024000080240000C024000100240F8
:105880000014024000180240001C024000200240A8
:105890000024024000280240F648006840F0010061
:1058A000F44908600020F34908310860F1480068B5
:1058B000F1490840EF490860F048091D0860F048C8
:1058C000EC4984310860ED481038091D0860E9484A
:1058D000006820F48020E74908600020E5490C3189
:1058E0000860E4498C31086070470121E14A921C4C
:1058F000117011460870704710B501460022002350
:1059000000204A11012A02D1DA4C236808E0022A59
:1059100003D1D84C7034236802E0D64C7434236829
:1059200001F01F02012494401C400CB1012000E052
:10593000002010BD38B5002000900024002500BFD5
:105940003120FFF7D9FF05460098401C00900098D1
:10595000B0F5A04F01D0002DF2D03120FFF7CCFFE1
:1059600008B1012400E00024204638BD0146002093
:10597000C04A106820F0F80040EAC100106070478B
:10598000C049086070470021BA4A70321170117026
:10599000012802D004280AD104E00121B54A70325E
:1059A000117005E00521B34A7032117000E000BFAC
:1059B00000BF7047B4490860704770B5049C41EA65
:1059C00082150126C6EB530645EA0645054345EA1E
:1059D0000465A84E361D356070BDAA49086670473B
:1059E00010B5830143EA016343EA0273A14C843496
:1059F000236010BDA3498866704710B5830143EA50
:105A0000016343EA02739B4C8834236010BD9D49B7
:105A1000086770479B49C864704702460020954B51
:105A20000833186820F0EC6042EA01031843914BF8
:105A3000083318607047024600208E4B0833186800
:105A400020F0784042EA010318438A4B083318607B
:105A5000704701460020874A0832106820F0030092
:105A600008431060704783480830006800F00C005D
:105A70007047014600207F4A0832106820F0F0008D
:105A8000084310607047014600207A4A08321068C7
:105A900020F4E05008431060704701460020754A2A
:105AA0000832106820F4604040EAC100106070477E
:105AB000F0B50021002200240225002602236D4FAC
:105AC00008373F6807F00C0121B1042905D00829E7
:105AD00037D105E06D4F076036E06D4F076033E06A
