:020000040800F2
:10000000701B0020498600080557000807570008A4
:100010000B5700080F570008135700080000000096
:10002000000000000000000000000000175700085A
:1000300019570008000000001B5700081D57000852
:1000400063860008638600086386000863860008EC
:1000500063860008638600086386000863860008DC
:1000600063860008638600086386000863860008CC
:1000700063860008638600086386000863860008BC
:10008000B14C0008254A0008638600086386000812
:10009000D33A000863860008638600086386000878
:1000A000638600086386000863860008638600088C
:1000B000638600086386000863860008638600087C
:1000C000638600086386000863860008638600086C
:1000D0006386000863860008A54C0008D15000081C
:1000E000638600086386000863860008638600084C
:1000F000638600086386000863860008638600083C
:10010000638600086386000863860008638600082B
:10011000638600086386000841460008638600087D
:100120006386000863860008A1470008638600080C
:1001300063860008638600086386000863860008FB
:10014000FB3B00086386000863860008638600089E
:10015000638600086386000863860008435200082F
:1001600063860008638600086386000863860008CB
:1001700063860008638600086386000863860008BB
:10018000638600086386000853530008CD560008B4
:10019000638600086386000863860008638600089B
:1001A00000000000000000006386000800F002F874
:1001B00000F05EF80AA090E8000C82448344AAF1A3
:1001C0000107DA4501D100F053F8AFF2090EBAE8A1
:1001D0000F0013F0010F18BFFB1A43F0010318477B
:1001E000E0D7000000D800000A444FF0000C10F8DF
:1001F000013B13F0070408BF10F8014B1D1108BFA5
:1002000010F8015B641E05D010F8016B641E01F844
:10021000016BF9D113F0080F1EBF10F8014BAD1C94
:100220000C1B09D16D1E58BF01F801CBFAD505E0B2
:1002300014F8016B01F8016B6D1EF9D59142D6D30C
:10024000704700000023002400250026103A28BF34
:1002500078C1FBD8520728BF30C148BF0B60704738
:100260001FB50CF0B2FD0AF0BEFC1FBD10B510BDED
:100270000AF077FD1146FFF7F3FF00F023F80AF0CC
:1002800095FD03B4FFF7F2FF03BC0AF095FD0000F3
:100290000B49D1F800C04A685CF8043B1068184468
:1002A00042F8040B8C4528BFA1F1DC0C8A4228BF20
:1002B000A1F1DC02C1F800C04A6020F000407047A4
:1002C000081500204FF4A06005F04CFB03F02AFB5A
:1002D000002433E0264890F90000082805DA244875
:1002E0000078C01C40B22249087022490968C1F355
:1002F0004F0004F09AF804EB44021F4B03EB420258
:10030000917804EB440213F8120004F07AF80546E1
:100310002946092004F083F804EB4401164A02EB55
:1003200041018D8805EBD571481003F0DDFC04F028
:100330000BF81E2003F0D8FC601C641C162CC9DBD3
:1003400000200E4908600821012000F06DFB01200B
:100350000B4908700BE00B4800684FF47A71B0FB52
:10036000F1F201FB120010B9082001490870F2E710
:10037000000000202C18004066D20008B8824242DB
:100380000E00002060040020FE490870704710B580
:10039000C024FD490988A1F58060002801DB0146E1
:1003A00000E0414240F29622914201DC012100E04E
:1003B00000210C43F4494988A1F58060002801DB45
:1003C000014600E0414240F29622914201DC0121C7
:1003D00000E0002144EA4104EB498988A1F58060EE
:1003E000002801DB014600E0414240F296229142A2
:1003F00001DC012100E0002144EA8104E249C988CE
:10040000A1F58060002801DB014600E0414240F296
:100410009622914201DC012100E0002144EAC1045E
:10042000D948007A012807D0D748007A022803D09B
:10043000D548007A032801D1012000E0002044EAD9
:100440000014D148407A012807D0CF48407A0228CA
:1004500003D0CD48407A032801D1012000E00020DC
:1004600044EA4014FF2C07D00320FFF78DFF14222D
:10047000C549C6480AF0C0FB10BDC24800787047A5
:1004800010B5FFF7FAFF08287ED2DFE800F011046C
:100490001E872B65584B00231A461946184608F04C
:1004A0006FF900231A461946184608F098F982E0B9
:1004B00000231A461946184608F062F900231A4626
:1004C0001946184608F08BF975E000231A461946BC
:1004D000184608F055F900231A461946184608F040
:1004E0007EF968E0AA4CE48823B2A94CA48822B221
:1004F000A84CA48C21B2A74C248C20B208F040F95F
:10050000A54B93ED070ABDEEC00A10EE103A1AB2E1
:10051000A24B9B8A19B2A14B1B8D18B2002308F085
:100520005EF948E000231A461946184608F028F9F3
:1005300000231A461946184608F051F93BE00023FB
:100540001A461946184608F01BF900231A461946A0
:10055000184608F044F92EE08D4CE48823B28C4C08
:10056000A48822B28B4CA48C21B28A4C248C20B259
:1005700008F006F9884B93ED070ABDEEC00A10EEAD
:10058000103A1AB2854B00E008E09B8A19B2834BFF
:100590001B8D18B2002308F022F90CE000231A4644
:1005A0001946184608F0ECF800231A461946184672
:1005B00008F015F900BF00BF10BD10B572490988D9
:1005C000714A52881144704A928811446E4AD28806
:1005D0001144A1F58050002801DB014600E04142B2
:1005E0000C2901DD00F06AF910BD10B5FFF745FFD9
:1005F000082845D2DFE800F01F0427372F3D3836A2
:100600006748006842F21071884213D9FFF7D5FF9E
:100610000020FFF7B9FE9FED630A604880ED030AF2
:10062000614890ED000AF2EE040A20EE200A5B48D1
:1006300080ED090A24E000F0C9FE0220FFF7A4FEC5
:1006400001F0BDFA1CE00620FFF79EFE00F0BEFEA2
:1006500001F0B5FA14E000F0B9FE01F0B0FA01F0D3
:1006600002FA0DE00CE00BE001F0FDF900F0AEFE47
:1006700006E000F0ABFE01F0A2FA01F0F4F900BFD1
:1006800000BF10BD10B5FFF7F8FE48490870FFF72E
:10069000F4FE082805D2DFE800F00504065B07B584
:1006A000371CBEE0BDE0BCE03748007A032802D129
:1006B0000620FFF769FE3448007A032807D13C483A
:1006C0000078032803D13048407A012800D000BFC9
:1006D000A7E02D49C97C61B92B49897C49B92A49D0
:1006E000B1F90A00002801DB014600E0414203297C
:1006F00002DD0420FFF748FE2348007A022802D1D9
:100700000520FFF741FE8CE01F48007A01280DD13B
:10071000254890ED000AF2EE040A20EE200A1F4858
:1007200080ED090A0420FFF72FFE10E01648007A3A
:1007300002280CD11C4890ED000AF2EE040A20EECB
:10074000200A164880ED090A0520FFF71DFE68E023
:1007500018480068401C17490860174991F836107E
:1007600061BB09490988084A52881144064A92889F
:100770001144054AD2881144A1F5805000281EDB9F
:1007800001461DE004000020A00600205C070020B8
:10079000EA030020CC0800201C09002038000020BB
:1007A0006004002000C041459006002007000020A2
:1007B00006000020080000201803002012E041423B
:1007C0000A290FDA454890ED000AF2EE040A20EEFD
:1007D000200A434880ED090A0420FFF7D5FD0020D8
:1007E00040490860404890F8360050B93D480068DC
:1007F00041F27071884204D900203A49086000F043
:100800005DF80EE03948007A012802D10420FFF794
:10081000BBFD3648007A032802D10620FFF7B4FD5D
:1008200000BF00BF3148407A3149087010BD10B593
:100830003048007830B92F4890F82200012801D1C3
:100840002D49087008F015FD2C4800680521B0FB03
:10085000F1F201FB120008B902F08AFF01F04EFB31
:10086000FFF710FFFFF7C1FEFFF70AFEFFF78FFD4E
:10087000224800687821B0FBF1F201FB120078B940
:100880001F4890F90000002805DD1D480078401E33
:1008900040B21B4908701A4890F9000003F0E7FACB
:1008A00010BDF0EE400AF5EEC00AF1EE10FA02DBE0
:1008B000B0EE600A7047B1EE600AFBE7BFF34F8FFE
:1008C0001048006800F4E0600F490843001D0D491E
:1008D0000860BFF34F8F00BFFEE7000090060020C6
:1008E000380000200800002018030020A006002087
:1008F00006000020C4130020050000206004002032
:10090000000000200CED00E00000FA0510B5FB48E7
:1009100000780A2832DAF948007800282EDDF848F5
:1009200000684FF41661B0FBF1F201FB1200F349CD
:1009300009784900C1EB011101EB8101B0EB410FD6
:100940002BD8EF4800684FF41661B0FBF1F201FBC1
:10095000120028B94FF48041EA4806F041F81CE043
:10096000E74800689621B0FBF1F201FB1200A0B944
:100970004FF48041E34806F03EF80EE0DF4800788F
:100980000A2805DB4FF48041DE4806F02BF804E02E
:100990004FF48041DB4806F023F8DB4800780A2852
:1009A00032DAD948007800282EDDD54800684FF4A7
:1009B0001661B0FBF1F201FB1200D349097849003E
:1009C000C1EB011101EB8101B0EB410F2BD8CC48F9
:1009D00000684FF41661B0FBF1F201FB120028B978
:1009E0004FF40061C94805F0FBFF1CE0C4480068F3
:1009F0009621B0FBF1F201FB1200A0B94FF40061A7
:100A0000C24805F0F8FF0EE0BF4800780A2805DB71
:100A10004FF40061BD4805F0E5FF04E04FF40061CC
:100A2000BA4805F0DDFF10BD0A2801DD0A2200E00A
:100A30000246B24B1A700A2901DD0A2200E00A467A
:100A4000B14B1A70704710B5B148007820B1012839
:100A500022D0022860D140E0AE480078401CAD4969
:100A600008700846007850280ADB0120A849087061
:100A70005020A84908700020A7490870A7490870AD
:100A8000A4480078C0F15000A5494870A1480078FA
:100A90000870002088703FE09F480078401C9E4905
:100AA00008700846007850280BDB0220984908702F
:100AB00000209849087050209749087000209749F5
:100AC000087000209649487093480078C0F15000A3
:100AD00008709148007888701EE090480078401CAB
:100AE0008E49087008460078502809DB00208849A4
:100AF0000870884908708849087050208749087034
:100B0000864800788649487000200870834800783D
:100B1000C0F15000887000BF00BF00204FE0814945
:100B2000095C11B1012948D124E07F4901EB800122
:100B300091ED000ADFED7D0A30EE200A7A4901EBE3
:100B4000800181ED000A784901EB800191ED000AF6
:100B5000DFED770AB4EEE00AF1EE10FA09DB9FED63
:100B6000740A714901EB800181ED000A01216D4A8F
:100B7000115422E06C4901EB800191ED000ADFED98
:100B80006B0A30EE600A684901EB800181ED000AD2
:100B9000654901EB800191ED000AB5EEC00AF1EE66
:100BA00010FA09D89FED630A5F4901EB800181EDDE
:100BB000000A00215B4A115400BF00BF401C0528F9
:100BC000ADDB574840785649C870084601784171F6
:100BD0008178017100785249887108464178017224
:100BE0008178C17180784E49487208460178C17297
:100BF0004178817200784A49087308468178817388
:100C00004178417300201EE0002119E000EB400212
:100C1000434B1A44525C00EE102AB8EE400A424A96
:100C200002EB8002D2ED000A20EE200ABCEEC00AE0
:100C300010EE102A00EB4003394C23445A54491C4F
:100C40000329E3DB401C0528DEDB10BD027802F03F
:100C50000101027852100270027842EAC112027059
:100C6000704710B5264800686421B0FBF1F201FB23
:100C70001200002841D100BF12E000210DE02E4AF1
:100C80001278024102F00102642312FB03F200EB2E
:100C90004003234C23445A54491C0329EFDB401CD6
:100CA0000528EADB2448FFF7D1FF24480078401CE0
:100CB000224908700878C11700EB5171C910A0EBE8
:100CC000C10141B91E490978052904DC1C48007896
:100CD000401C1B49087000200BE0002106E0642244
:100CE00000EB40030E4C23445A54491C0329F6DB05
:100CF000401C134909788842EFDB10BD0C0000202E
:100D000060040020001402400D000020001002408A
:100D10000F00002010000020110000201200002011
:100D20007007002013000020180000200AD7233C81
:100D3000CDCCCC3E000000002C0000202D00002077
:100D40002E00002010B52148007810B9FFF789FF68
:100D500001E0FFF778FE05211D4804F014FC04F0C3
:100D6000E9FB10BD0278D10902785206120E02701A
:100D700002780A4302707047164800684FF4FA710F
:100D8000B0FBF1F201FB1200F0B9002012E01249B1
:100D90000978642211FB02F100EB40020C4B1A446B
:100DA0005170002100EB4002995400EB40021A44BC
:100DB0009170401C0528EADB0748007808B901203B
:100DC00000E0002004490870704700000E00002079
:100DD00070070020600400202F000020FE480078EB
:100DE00001287CD1FD48007820B1012828D00228B4
:100DF00025D185E0FA48008800EB80004FF4FA61C5
:100E000001EBC00000EE100AB8EEC00AF54880ED14
:100E1000030A406828B9F4480068401CF249086099
:100E200002E00020F0490860EF480068B0F5967FC6
:100E300005D30020EC4908600120E849087073E000
:100E4000EA48E749098800EB8100D0ED000AE5484F
:100E500090ED000AB8EEC00A30EE800AE348E0499F
:100E6000098800EB810080ED000AE148DC4909882F
:100E700000EB8100D0ED000ADA4890ED050AB8EEEB
:100E8000C00A30EE800ADA48D549098800EB8100B3
:100E900080ED000AD4480068401CD3490860084629
:100EA0000068B0F52F7F2AD3002008600220CB49CC
:100EB0000870CE48CA49098800EB810090ED000A0D
:100EC000DFEDCC0A80EE201AC848C549098800EB3E
:100ED000810080ED001AC648C149098800E024E07D
:100EE00000EB810090ED000ADFEDC20A80EE201ACF
:100EF000BF48BB49098800EB810080ED001A13E070
:100F0000B74800881E2808DAB5480088401CB44954
:100F100008800020B149087005E00020AE49087043
:100F2000AF490880704700BF00BF00BFFAE770B547
:100F30002DED0A8B04460D46AF4800680F21B0FB2B
:100F4000F1F201FB120000287DD1AC498988A1F59E
:100F500080600BF0DEFB41EC1C0B9FEDA90B53EC0A
:100F6000102B0BF001FC41EC1B0B9FEDA70B53EC7E
:100F7000102B0BF047FA41EC190B9A4890ED090A37
:100F800010EE101A08460BF0AFFE41EC1A0B53ECB2
:100F9000192B0BF08FF941EC180B0BF059F9914913
:100FA0004862084690ED090ADFED990AB4EEE00ABE
:100FB000F1EE10FA06DD90ED090ADFED960A30EE4B
:100FC000600A02E0874890ED090A864880ED090A28
:100FD00090ED090ADFED900AB4EEE00AF1EE10FAA6
:100FE00006D290ED090ADFED8B0A30EE200A02E00E
:100FF0007C4890ED090A7B4880ED090A7F49C98841
:10100000A1F580600BF085FB41EC1C0B9FED830B81
:1010100053EC102B0BF0A8FB41EC1B0B9FED7A0B54
:1010200053EC102B0BF0EEF941EC190B6D4890EDE1
:10103000030A10EE101A08460BF056FE41EC1A0B8C
:1010400053EC192B00E02CE00BF034F941EC180BB9
:101050000BF0FEF86349C860084690ED030ADFED27
:10106000710AB4EEE00AF1EE10FA02D29FED6D0AB9
:1010700002E05C4890ED030A5A4880ED030A90EDC7
:10108000030ADFED690AB4EEE00AF1EE10FA02DDC0
:101090009FED650A02E0534890ED030A514880ED48
:1010A000030ABDEC0A8B70BD10B5604800780128BA
:1010B00010D05E48007868B95048007A012803D003
:1010C0005B4890F8220028B946490C3101F118001C
:1010D000FFF72DFFFFF7D1F904280BD14FF4FA7079
:1010E00054494861404208614FF4E67052494861F2
:1010F00040420861FFF772FE3A4890ED030ADFEDC7
:101100004F0A20EE200AD0ED040A9FED4D1A00EEA2
:10111000810A80ED040AD0ED040A90ED000AB8EED1
:10112000C00A30EEC00ADFED470AB4EEE00AF1EE85
:1011300010FA16DD006800F5005001EE100AB8EE56
:10114000C11AF0EE410A274890ED041AB0EE410AA8
:101150003D4808F057FEBDEEC00A224880ED020A65
:1011600039E02048D0ED040A90ED000AB8EEC00A3C
:1011700030EEC00ADFED350AB4EEE00AF1EE10FA07
:1011800016D20068A0F5005001EE100AB8EEC11AA0
:10119000F0EE410A134890ED041AB0EE410A2A48D5
:1011A00008F030FEBDEEC00A0E4880ED020A12E0E3
:1011B0000C4890ED001AB8EEC11AF0EE410A90ED1D
:1011C000041AB0EE410A204808F01CFEBDEEC00A29
:1011D000044880ED020A3BE06E0100206F01002010
:1011E0007001002038000020800100208C070020C2
:1011F0002C08002000002F4460040020A0060020DE
:1012000000000000008046400000000000A0844074
:101210000000E144000061450000E1C4000000005E
:10122000000039400000FA4400204B456C010020CA
:10123000C4130020A60000202A010020CDCCCC3D04
:101240006666663F0000804564000020000080C59F
:10125000FE4890ED090AFE48D0ED000AB2EE041AED
:1012600000EEC10A5FED160AB4EEE00AF1EE10FAE4
:1012700017DDD0ED001A1FED191AB2EE042A01EEA7
:10128000821AF0EE410AF14890ED091AB0EE410AD7
:10129000F04808F0B7FDBDEEC00AEC4880ED080A42
:1012A0003EE0EA4890ED090AE948D0ED000AB2EEC6
:1012B000041A00EEC10A5FED280AB4EEE00AF1EE6E
:1012C00010FA17D2D0ED001A1FED2E1AB2EE042A32
:1012D00011EE821AF0EE410ADC4890ED091AB0EEE8
:1012E000410ADC4808F08EFDBDEEC00AD74880ED0B
:1012F000080A15E0D64890ED001AF2EE041A21EE25
:10130000211AF0EE410AD14890ED091AB0EE410AD7
:10131000D04808F077FDBDEEC00ACC4880ED080A41
:10132000CD4890ED091AF0EE410AC84890ED021A36
:10133000B8EEC11AB0EE410AC84808F063FDBDEE30
:10134000C00AC24880ED050AC34890ED0A1AF0EEC3
:10135000410ABE4890ED081AB8EEC11AB0EE410A33
:10136000BF4808F04FFDBDEEC00AB84880ED0A0A3C
:10137000406947F23051884201DD084601E0B34838
:101380004069B249486108464069B649884201DA75
:10139000084601E0AD484069AC4948610846806AAA
:1013A00047F23051884201DD084601E0A748806AD3
:1013B000A64988620846806AAA49884201DA084636
:1013C00001E0A248806AA149886210BD10B5A24818
:1013D000D0ED0A0AB0EE600A01F008FA9C4890EDE0
:1013E000000A01F0F0F99948D0ED000AF8EEE00AA1
:1013F000B0EE600A01F0D4F9FFF756FE934890ED85
:10140000090ABDEEC00A984880ED000A10BD0146E9
:10141000964890ED000AF7EE000A70EEC00A944874
:1014200090ED000AB8EEC00A60EE800A00EE101AD5
:10143000B8EEC00A8D4890ED001A40EE010ABDEEEC
:10144000E00A8C4880ED000A0068894A10608948EB
:1014500000687047421A00EE902AF8EEE00AB1EEFA
:10146000601ADFED851AC1EE210AB0EE001A60EEB7
:10147000810A9FED821A60EE810AB0EE600A704721
:1014800070B50246002000217D4B1B68934202DAB2
:101490007B4B1B6800E013461A46794B1B6D934249
:1014A00002DD774B1B6D00E013461A46002106E073
:1014B000734B53F83130934200DC02E0491C0B2996
:1014C000F6DB00BF092901DD092300E00B461946C0
:1014D0006B4C4B1C04EBC3035B6804EBC1046468F6
:1014E0001B1B674C54F83140A41A6343644C54F8F6
:1014F000315026464C1C56F834402C1B93FBF4F319
:10150000344604EBC1046468181970BD014600201C
:101510007047B0EE401ADFED5B1AB0EE610A5A4830
:10152000D0ED001A70EEE11AB2EE042AF4EEC21AFF
:10153000F1EE10FA0ADDC0ED000A54480068401CC4
:101540005249086000205249086015E04E48D0ED2D
:10155000001A70EEE11ABAEE042AF4EEC21AF1EEA5
:1015600010FA09D2C0ED000A49480068401C4849F9
:10157000086000204549086044480068C82802D92E
:1015800000204449087042480068C82802D9012058
:10159000404908703F480078A0BBDFED3F1AB4EE29
:1015A000E11AF1EE10FA16D2DFED3C1A61EE211AC3
:1015B00061EE811A9FED3A2A42EE011A9FED392A17
:1015C00071EEC21AB0EE610A5FEDEA1A70EE611AAE
:1015D000B0EE610A93E0DFED341A61EE211A61EE9C
:1015E000811A9FED322A42EE411A9FED312A71EEA7
:1015F000821AB0EE610ADFED2F1A70EE611AB0EEBA
:10160000610A7CE0FFE7DFED241AB4EEE11AF1EEA7
:1016100010FA58D2DFED211A61EE211A61EE811A1B
:101620009FED1F2A42EE011A9FED1E2A71EEC21A8B
:10163000B0EE610ADFED201A70EE611AB0EE610AB9
:10164000DFED1E1A70EE611A3AE00000380000204B
:1016500090060020E80000208C110020A600002049
:101660002A010020D08AFFFF340000207C010020E6
:10167000740100207801002000000046DA0F494084
:10168000E0CD0008000000008C0100209001002047
:1016900094010020840100200040CE45664900BD31
:1016A000CD8CCE4380C5A549CDCC4C3C66661E434F
:1016B000803DF6480000964400007A450000FA4458
:1016C000B0EE610A1BE05FED081A61EE211A61EECF
:1016D000811A1FED0A2A42EE411A1FED0B2A71EE04
:1016E000821AB0EE610A5FED0C1A70EE611AB0EE6C
:1016F000610A5FED101A70EE611AB0EE610ADFED5B
:101700001A1AB4EEE11AF1EE10FA05D2DFED171A4B
:1017100070EE611AB0EE610ADFED151AB4EEE10A5F
:10172000F1EE10FA02DDDFED121A01E0F0EE401AE0
:10173000B0EE610ADFED0F1AB4EEE10AF1EE10FA35
:1017400002D2DFED0C1A01E0F0EE401AB0EE610AB1
:101750000948C0ED000A7047F0EE400AB2EE0E0AEA
:1017600020EE800A7047000000A0C84500401C45DC
:1017700000204B4600204BC688010020B0EE401AE6
:10178000F7EE001AB0EE610AB0F52F7F0AD8B8491B
:10179000897A322906DDDFEDB71AF4EEE10AF1EEBF
:1017A00010FA3AD8B44991F83810012907D1032129
:1017B000B24A1170DFEDB21AB0EE610A2DE0AC4909
:1017C000897A01EE901AF8EE611A70EEE11AF0EEE5
:1017D000610ADFEDAC1A9FEDAC2A42EE201AB0EEA2
:1017E000610AF7EE001AB4EEE10AF1EE10FA02DD3A
:1017F000F7EE001A01E0F0EE401AB0EE610ADFEDFC
:10180000A11AB4EEE10AF1EE10FA02D2DFED9D1A50
:1018100001E0F0EE401AB0EE610A704710B5FEF735
:101820002CFE04283CD100BF98480088A0F58060B9
:101830009749B1F90010401A01280CDD934800883F
:10184000A0F580600A2806DD92480088401C00B29E
:10185000904908801FE08D480088A0F580608C4981
:10186000B1F90010401AB0F1FF3F0DDA8748008847
:10187000A0F5806010F10A0F06DA86480088401E45
:1018800000B28449088006E080480088A0F58060A6
:1018900000B2804908807F48B0F900007C49088088
:1018A00010BD10B5FEF7E9FD042817D1002013E0A4
:1018B0009FED790A10EE101A00EB4012774B03EB04
:1018C000420251609FED760A10EE101A00EB4012B2
:1018D00003EB42021162401C0228E9DBFEF7CDFD5A
:1018E000042801D1FFF79AFF6A48B0F90000B0F56B
:1018F000E16F02DD4FF4E16002E06648B0F90000FC
:10190000644908800846B0F9000010F5E16F01DA7B
:10191000644802E05F48B0F900005E49088008466C
:10192000B0F90000C0EB00105F4988605948B0F979
:1019300000004042C0EB0010C860084690ED001A5D
:10194000B8EEC11AF0EE410A90ED021AB8EEC11AD3
:10195000B0EE410A514808F055FABDEEC00A5248AF
:1019600080ED080A90ED011AB8EEC11AF0EE410AB6
:1019700090ED031AB8EEC11AB0EE410A4748423062
:1019800008F040FABDEEC00A474880ED090AFEF7AC
:1019900074FD052806D13648007A18B9002042495E
:1019A00008624862404A116A002901DB0A4600E0E9
:1019B0004A423D4C606A002801DB044600E0444294
:1019C00013193A48008901EE100AB8EE411AF0EEF8
:1019D000410A364890ED011AB0EE410A1846FFF769
:1019E000CDFE334880ED000A2F4890ED080AB8EE8E
:1019F000C00A2F48D0ED000A60EE202A2A4890ED58
:101A0000090AB8EEC00A2A48D0ED000A20EE203AB2
:101A1000BDEEE20A244880ED080ABDEEC30A80ED5F
:101A2000090A006A42F21071884202DD08461E4926
:101A300008621D48006A1F49884202DA08461A49AE
:101A400008621948406A42F21071884202DD084675
:101A5000154948621448406A1649884202DA084625
:101A60001149486210BD10B5FFF71BFF10BD000003
:101A7000FC03002000004842180300206C020020F4
:101A80009A99193FCDCCCC3D8FC2F53BA0060020E2
:101A90006E0200205E0200200AD7A33C98010020BD
:101AA00000C8AF47F8F8FFFFCC0800202C13002037
:101AB00068020020F0D8FFFFE148B0F90000E049DB
:101AC000B1F90810401A022812DADD480088401CDB
:101AD00000B2DB4908800846B0F9000000EE100AA9
:101AE000B8EEC00A084680ED010AD6480068C86012
:101AF000704710B50446D4480078012847D101F05A
:101B0000B8FED24908700846007801282DD1207807
:101B100001282AD1CE48007A032809D0CD48007880
:101B2000032805D1CA48407A022801D1FFF7C4FF33
:101B3000C44800685021B0FBF1F201FB1200A0B9CB
:101B4000C348007A032810D0C148407A02280CD13B
:101B5000BF494988A1F58060002801DB014600E00B
:101B60004142642901DDFFF7A7FFB948007A032845
:101B70000DD0B8480078032809D1B548407A01282B
:101B800005D1207808B9012000E000202070B0487D
:101B9000407AB049087010BD10B5AF48FFF7A9FFF3
:101BA000A748B0F9000000EE100AB8EEC00ADFED59
:101BB000AB0A20EE200AA24880ED050A10BD10B540
:101BC000FEF75BFC052802D00120A5490860A24869
:101BD0000078012803D1122001F08CF802E00020E7
:101BE00001F088F8FFF7D8FF954890ED050ABDEEA3
:101BF000C00A9C4880ED050A90ED001AB8EEC11AA3
:101C0000F0EE410A90ED051AB8EEC11AB0EE410AA5
:101C1000954808F0F7F8BDEEC00A10EE100A00B2C1
:101C20009049088391480088C0F57A708A490978FC
:101C30004843C0F57A708E4908808A48B0F9100090
:101C400001EE100AB8EEC11AF0EE410A8548B0F96B
:101C5000180001EE100AB8EEC11AB0EE410A85482C
:101C600008F0D0F87F4880ED070A10BD10B5034694
:101C70007748007C012807D132B9724800887E4C31
:101C8000208000207D4C2070581A002801DB04467B
:101C900000E04442022C0EDA784C2478012C0AD061
:101CA0000120764C207067480088754C208072486F
:101CB0000088744C208072480088724C2488001B75
:101CC00080B210BD14205E4908830A215C488176E9
:101CD00070477047704710B50B684A69D21A6A4B53
:101CE0001A601C462368002B01DB1C4600E05C42A6
:101CF000062C0CDDB1F91020002A01DB144600E0AF
:101D000054420A2C03DA426A521C426201E0002368
:101D10004362426A642A07D990F8202022B901223E
:101D200080F82020594B1A7090F82020012A40D1C9
:101D3000564A1278012A04D0022A11D0032A37D138
:101D400024E00A68323A524B1A601A4692ED000AB1
:101D5000B8EEC00A80ED050A02224C4B1A7027E04B
:101D60004B4A92ED000AB8EEC00A80ED050A14460F
:101D70000B6824681A1B002A01DB134600E053425B
:101D8000282B02DA0322414B1A7011E0002280F85E
:101D900020203E4B1A7002890280B0F9002000EE2C
:101DA000102AB8EEC00A80ED010A0023436200BF8A
:101DB00000BF10BD10B5137BD47A43EA04231BB2D5
:101DC0008B80947B537B44EA03231BB20B828B8969
:101DD0008C881B1B1BB2CB81B1F90E30B3F5805F31
:101DE00004DD8B6803F500538B6008E0B1F90E3019
:101DF00013F5805F03DA8B68A3F500538B60B1F9AC
:101E000004408B68234400EE103AB8EEC00ADFEDC0
:101E1000210A80EE201ABDEEC10A81ED000A8B88EE
:101E20008B8191ED000AB8EEC00ADFED0C0A80EE5E
:101E3000201ABCEEC10A10EE103A1BB2038110BD8D
:101E4000F408002060040020FD020020FC020020B5
:101E5000A00600200D030020F4020020BC74934172
:101E6000B40243421C09002070020020F602002048
:101E7000F8020020B20200200A0300200403002020
:101E80000803002006030020100300201403002094
:101E90000003002000007A4401884FF6FE72914250
:101EA00002DA0188491C01807047002101807047D7
:101EB000034602EB82004000984202DA01200870DB
:101EC00001E00020087008787047494931F8101087
:101ED000491C8AB2464921F81020704700200AE0C8
:101EE000434931F810201A3921F8102000221A3104
:101EF00021F81020401C0D28F2DB704710B53D483A
:101F000000684FF47A71B0FBF1F201FB120008B9DE
:101F1000FFF7E4FF002411E03549423901EB4400AA
:101F2000FFF7BAFF324B5C3B33F8142034331919F6
:101F30001A3B33F81400FFF7BBFF641C0D2CEBDBDE
:101F40002D480078012823D129485C3890F83500C5
:101F5000012809D127480068B0F5FA6F04D901209B
:101F60002649086026490880FEF787FA05280FD021
:101F700008200BE01E492839095C012905D1891E7A
:101F80001E4A116001B21E4A1180401C0C28F1DD6E
:101F900017485C3890F83600012815D1FEF76DFA25
:101FA000012806D0FEF769FA18B1FEF766FA022892
:101FB00003D10320FEF7E8F906E0FEF75EFA0528F4
:101FC00002D00520FEF7E0F90E49C97C61B90D4940
:101FD000897C49B90B49B1F90A00002801DB0146A7
:101FE00000E04142032902DD00200349087010BDD2
:101FF00074030020600400208E030020940300205E
:1020000090030020A0060020704770B52DED088BCE
:1020100004469FEDFA0AB0EE408A00EE104AB8EE90
:10202000C00ADFEDF70A80EE201A11EE105A28469A
:102030000AF05AFE41EC1B0BB0EE4B0AF0EE6B0AB5
:1020400009F036F9B0EE40AAF0EE60AA9FEDED0B74
:1020500053EC102B51EC1A0B0AF086FB41EC190BD8
:102060000AF0F6F808EE100AE84880ED008AB2EEB1
:10207000080AB4EEC08AF1EE10FA02DDB2EE080AE8
:1020800001E0B0EE480AB0EE408ABAEE080AB4EEBB
:10209000C08AF1EE10FA02D2BAEE080A01E0B0EE00
:1020A000480AB0EE408AB0EE480ABDEC088B70BD1D
:1020B000D74A01FB012300EE903A01EE902AF8EE98
:1020C000E11AB8EEE02AC1EE822AB0EE621ADFED24
:1020D000CB1AB0EE610A01EE900AF8EEE11A61EE59
:1020E000811A9FEDC72AC1EE822AB0EE620ADFEDA7
:1020F000C91A60EE211AB0EE610A7047F0EE401A7C
:10210000DFEDC52AB0EE620ADFEDC42AF4EEE20A82
:10211000F1EE10FA03DDDFEDC12AF0EE620ADFED29
:10212000C02AF4EEE20AF1EE10FA03D2DFEDBC2A87
:10213000F0EE620AF1EE082AF4EEE21AF1EE10FA7D
:1021400003DDF1EE082AF0EE621AB64991ED003A8D
:10215000C1EE832AB5EE003A32EE832A20EE821ACF
:10216000B4EEC01AF1EE10FA01DDB0EE401AF1EE55
:10217000402AB4EEE21AF1EE10FA03D2F1EE402A50
:10218000B0EE621AD0ED002A72EE812AC0ED002A6C
:10219000704730B52DED108B81B00446F0EE408ACB
:1021A000B2EE000AF4EEC08AF1EE10FA03DDB2EEF0
:1021B000000AF0EE408A94ED000ADFED9B0A30EE53
:1021C000C00ADFED9A0A20EE20FA1FEE100A0AF08C
:1021D0008BFD41EC1A0BB0EE4A0AF0EE6A0A09F0E8
:1021E000FBFAB0EE409AF0EE609A51EC190B0AF04F
:1021F0002FF808EE100A9FED810A8DED000A9FED81
:102200007F0AF0EE40FA1FEE100A0AF06DFD41EC75
:102210001B0B9FED870A68EE800AB7EE000A08EEF6
:10222000480A20EE800A8348D0ED000A08EE600AD2
:10223000D0ED000A80EE201A11EE105A28460AF05E
:1022400053FD41EC1E0BB0EE4E0AF0EE6E0A08F0A4
:10225000E7FDB0EE40DAF0EE60DA51EC1D0B09F06C
:10226000EBFF41EC1C0B53EC1B2B0AF023F841EC69
:102270001A0B9FED710B53EC102B0AF075FA41EC21
:10228000190B09F0E5FF00909DED000ADFED6C0AE7
:1022900020EE200AF0EE40FA9FED6A0A2FEE800A47
:1022A0009FED691AC0EE010A9FED5F0A30EE600AE9
:1022B00084ED000AB0EE6F0A01B0BDEC108B30BDAA
:1022C00001464F2901DD4F2200E00A4611465F4AD0
:1022D0001288521A10B2002802DA00F1500200E00F
:1022E000024610B25A4A02EB800292ED000A704791
:1022F00001464F2901DD4F2200E00A461146554AAA
:102300001288521A10B2002802DA00F1500200E0DE
:10231000024610B2504A02EB800292ED000A70476A
:10232000DFED4E0AB4EEE00AF1EE10FA03DDDFED68
:102330004B0AB0EE600ADFED4A0AB4EEE00AF1EEB5
:1023400010FA03D2DFED470AB0EE600A322800DD52
:10235000322010F1320F01DA6FF0310000EB800112
:102360004900414A116000EE900AF8EEE00A70EE72
:10237000800AB2EE041A60EE810A3C49C1ED060AF9
:10238000D1ED070A9FED3A1A60EE810A91ED061A27
:10239000DFED381A41EE810AC1ED070AD1ED060AD8
:1023A000B2EE041A60EE810AFDEEE00A3249C1ED98
:1023B000000A2E49D1ED070AB2EE041A60EE810A36
:1023C000FDEEE00A2D49C1ED000A70470146632980
:1023D00001DD632200E00A461146294A1288521A9A
:1023E00010B2002802DA00F1640200E0024610B2E6
:1023F000244A02EB800292ED000A704700000000C0
:102400000080B6440000006066A64C40980300209F
:1024100090862000000072420000B4420000FA439F
:102420000000FAC3A403002000C041458010493ACF
:10243000CDCC1C41A8030020000000000000E03FBC
:1024400033336542000000460000B443D00300204F
:102450003C090020D20300207C0A002000004842F2
:10246000000034C2000048C2B4030020C41300209E
:102470009A99193FCDCCCC3EB8030020BC03002074
:10248000D4030020BC0B002070B52DED0A8B05464F
:102490000C46F948008878B1F748008800EE100A29
:1024A000B8EE400AF54880ED000A90ED000A20EEF3
:1024B000000AF34880ED000AF24890ED0A0AF2EEB5
:1024C000040A20EE200ABDEEC00AEF4880ED000AA3
:1024D000EE4890F83900012803D10020EC494870FB
:1024E0000870EC48007A022818D1E94800780128E1
:1024F00014D1E748408840F2EE2188420EDC0120EA
:10250000E34981F82200B420E34948614042086170
:102510009620E2494861404208610FE00020DC4912
:1025200081F822004FF4FA70DB49486140420861AB
:102530004FF4E670D949486140420861D4480078B8
:10254000012809D1D6480078142808DAD448007840
:10255000401CD349087002E00020D14908700A20CD
:10256000CF490870CA4991F82010C81CFFF72EFF08
:10257000C74880ED050A90ED050AF2EE040A20EE48
:10258000200ABDEEC00AC74880ED000AC04A128981
:10259000A2F2CA3211B2BE4AB2F91000FFF788FDAA
:1025A000C14880ED000ABE48007803280FDDB84816
:1025B000D0ED050AB0EE600ABB48D0ED000AFDEE92
:1025C000E00A10EE900A00B2FFF7AAFE04E0002035
:1025D0001FED760AFFF7A4FEB14800780A2810DA4A
:1025E000AF48007800EE100AF8EE400AB2EE041A86
:1025F00080EE810AA648D0ED070A20EE200A80ED81
:10260000070AA34890F8220001287DD1A0484088FD
:1026100000EE100AB8EE400AF2EE010A80EE801ACF
:1026200011EE106A30460AF05FFB41EC1C0BB0EE75
:102630004C0AF0EE6C0A08F03BFEB0EE40BAF0EE49
:1026400060BA9FED9A0B53EC102B51EC1B0B0AF068
:102650008BF841EC1A0B09F0FBFD08EE900A8C494F
:1026600091F82110083988B2FFF742FEF2EE040A11
:1026700020EE200AB0EE408ABDEEC80A8D4880EDFB
:10268000000A834991F82110491F88B2FFF718FE0C
:10269000B0EE409A7E490989A1F2CA3108B2FFF72B
:1026A000B4FCB2EE041AF0EE480A40EE010A30EE35
:1026B000E80A85ED000A76494989A1F2622108B24B
:1026C000FFF7A3FC5FEDA10A60EE200A1FEDA21A3E
:1026D00080EE810A39EE400A84ED000A6C4890EDE4
:1026E000010ADFED750A80EE201AF0EE419AB0EE95
:1026F000690A2046FFF74DFD704880ED000A6448E6
:1027000000896F49088000E047E061484088B0F5E3
:10271000167F15DA5E48408800EE100AB8EE400ACF
:10272000DFED650A80EE201AF0EE413A584890ED50
:10273000070AF0EE400AB0EE630A2846FFF7DEFC17
:1027400094ED000ADFED5F0AB4EEE00AF1EE10FA54
:1027500002DD9FED5C0A01E094ED000A84ED000AC1
:1027600094ED000ADFED580AB4EEE00AF1EE10FA3B
:1027700002D29FED550A01E094ED000A84ED000AB3
:1027800095ED000A5148D0ED000AB2EE041A00EEB1
:10279000C10A4F4880ED000A00BFBDEC0A8B70BD36
:1027A0004C484D49098800EB810080ED000A4A48F9
:1027B0000088401C4849088008460088502801DBF2
:1027C00000200880704745484549098800EB810092
:1027D00080ED000A42480088401C414908800846B4
:1027E0000088502801DB0020088070473D483E49A2
:1027F000098800EB810080ED000A3B480088401CFE
:102800003949088008460088642801DB00200880D8
:10281000704770B52DED068B0446B0EE408A00EE91
:10282000104AB8EEC00AC8EE000A10EE906A3046B0
:102830000AF05AFA41EC1A0BB0EE4A0AF0EE6A0AB4
:1028400008F036FDB0EE409AF0EE609A51EC190BAC
:1028500009F030FF051E01DB284600E0684200EB6E
:10286000C00101EB001000EE100AF8EEC08AB0EED5
:10287000680ABDEC068B70BDEA030020A4030020AB
:10288000A80300208C110020C003002018030020A2
:10289000C4130020A0060020A60000202A0100206A
:1028A000CE030020AC030020B00300200000000095
:1028B00000E88140C80300200000C8429C030020BB
:1028C000CC030020004049450080F74490060020DA
:1028D000C40300203C090020D00300207C0A002013
:1028E000D2030020BC0B0020D40300202DE9F041CE
:1028F0002DED0A8BB0EE408A04460D460027642178
:1029000004FB01F0C11700EB11710911491D09EE1B
:10291000901A00EE105AB8EEC00ADFEDB30A80EE4E
:10292000201A11EE106A30460AF0DEF941EC1C0B59
:10293000B0EE4C0AF0EE6C0A08F0BAFCB0EE40BA09
:10294000F0EE60BA9FEDA90B53EC102B51EC1B0B72
:1029500009F00AFF09F07CFC08EE900AB8EEE90ADB
:1029600020EE080ADFEDA30A80EE201AB0EE419AAD
:10297000202C2FDD292C16DDBDEEC80A10EE100A22
:10298000002801DB014600E041424FF47A7202EB7D
:102990008102A4F1280101EB810102EB011109B2CE
:1029A000954A118055E0BDEEC80A10EE100A0028C5
:1029B00001DB014600E041424FF4167202EB410296
:1029C000A4F1140101EB810102EBC10109B28A4AB1
:1029D00011803EE0BDEEC80A10EE100A002801DBAF
:1029E000014600E04142282903DA4FF496708249FB
:1029F0000880BDEEC80A10EE100A002801DB01466F
:102A000000E041423C2904DA4FF4FA707A49088028
:102A10001FE0BDEEC80A10EE100A002801DB0146D7
:102A200000E04142822904DA4FF42F707249088095
:102A30000FE0BDEEC80A10EE100A002801DB0146C7
:102A400000E041424FF42F7202EB410109B26A4AA1
:102A50001180282C00DD2824B2EE040A28EE800A1A
:102A6000BDEEC00A10EE100A00B264490880B2EE52
:102A7000040A29EE000ABDEEC00A10EE100A00B2E8
:102A80005F49088039EE280AF2EE040A20EE200A97
:102A9000BDEEC00A10EE100A00B25A4908809FED40
:102AA0005A0A2046FFF7B5FE79EE280AFDEEE00A45
:102AB00010EE906A002E01DB304600E0704200EE1E
:102AC000900AF8EEE00AB4EEE00AF1EE10FA39DD11
:102AD0004E480078401C4D4908700846007832285E
:102AE00001DD322008704948007802282DDD484970
:102AF000D1ED030A91ED000AB8EEC00A30EEC00A2B
:102B0000BDEEC00A10EE100A002801DB014600E00D
:102B10004142172919DA3F4991F83910A9B93E49BC
:102B200091ED070ABDEEC00A10EE100A002801DB85
:102B3000014600E04142B1F5CD7F06DA2E2C04DCDF
:102B4000012702E00020314908703846BDEC0A8BAD
:102B5000BDE8F08110B5304890F82200012813D16B
:102B60002D4A1289A2F2CA3211B22B4A528810B2EF
:102B7000294AD2ED060AB0EE600AFFF7B7FE012837
:102B800000D110BD0020FCE70020FAE70022214818
:102B900090F8390028BB204B5B89A3F26221002901
:102BA00001DB0B4600E04B421E2B1BDA1A4B1B8944
:102BB000A3F2CA30002801DB034600E04342052BA4
:102BC00010DA154991ED060ABDEEC00A10EE100AA2
:102BD000002801DB014600E04142282902DA0122F7
:102BE00000E000221046704766E6E74400000060FF
:102BF00066A64C4000401C46E6030020E40300208B
:102C0000E2030020E00300203333B33EE80300205A
:102C10003800002018030020C4130020282801DAFF
:102C2000282200E00246104640F65A22904200DD7B
:102C300000E0024610462D4A1288824208D12B4AF3
:102C40001288821A02EB420212B2294B1A804CE01F
:102C5000264A1288824220DA244A1288821A02EB1B
:102C6000420212B2224B1A801A46B2F90020322ACE
:102C700001DA322202E01E4AB2F900201C4B1A800F
:102C80001A46B2F900208A4201DD0A4602E0184ADB
:102C9000B2F90020164B1A8027E0144A12888242AB
:102CA00023DD124A1288821A02EB420212B2104B42
:102CB0001A801A46B2F9002012F1320F02DD6FF0CD
:102CC000310202E00A4AB2F90020094B1A801A4682
:102CD000B2F900204B429A4201DA4A4202E0044A29
:102CE000B2F9002012B2024B1A807047EE060020A3
:102CF0005E020020102803D110212C4A11801AE016
:102D0000122803D11221294A118014E0152803D179
:102D10001521264A11800EE0192803D11921234AD2
:102D2000118008E01C2803D11C21204A118002E0F8
:102D300000211E4A11801D49098809B21C4A1180D0
:102D40001A4909880C2904DA4FF47A71174A9180DC
:102D500008E0164909880A3901EB810101F25E4158
:102D6000124A918011490989104A9288891A0129C9
:102D700005DB0E490989491E0C4A11810AE00B49FD
:102D800009890A4A9288891A04D508490989491C7F
:102D9000064A118105490989064A116003490989D2
:102DA000121D11607047014670470000EA030020C1
:102DB000F80300203C0C004010B5FB480078FB49AC
:102DC0000870FB4800684FF4FA71B0FBF1F201FBA8
:102DD0001200A8BBF7480088002804DDF5480088E9
:102DE000401EF4490880F4484088B0F5C87F0EDBE7
:102DF000F1484088F1490988081A1E2803DB0120A0
:102E0000EF49087011E00020ED4908700DE0EA4834
:102E10004088EA490988081A142803DB0120E84998
:102E2000087002E00020E6490870E24800880028A7
:102E300002DD0020E2490870DF484088DF49088051
:102E4000E048007830B101283DD0022847D003285F
:102E50007ED145E0A020DC498872DC48007801285A
:102E60000FD14FF47A7140F2E560FFF7D7FED848F2
:102E7000008840F2B36188420FDD0020D34908701A
:102E80000BE04FF47A710020FFF7C8FED0480088AD
:102E9000322802DA0120CD490870C34800780128A1
:102EA00010D1C148408840F2EE2188420ADC01205E
:102EB000C4490870C548007808B9012000E0002026
:102EC000C24908704AE00020C2490880C248006830
:102ED000B0F5487F02D90020BA4908703EE03DE0D5
:102EE000BE480068401CBD4908605A20B649887237
:102EF00040F2DC510020FFF791FEB4480078012831
:102F00000FD140F2DC5140F67E10FFF787FEB0484B
:102F1000008840F2BD6188420FDD0020AB49087097
:102F20000BE040F2DC510020FFF778FEA848008853
:102F3000282802DA0120A5490870A8480068B0F5E1
:102F4000FA6F09D30020A54908609E49087000E087
:102F500003E00120A249087000E000BF00BFA148C3
:102F6000007810B101285CD15CE08F48007801281E
:102F700013D18D48408840F2EE2188420DDC0120BB
:102F800098490870984890ED000AF2EE040A20EE85
:102F9000200A964880ED090A39E09348D0ED000AEE
:102FA0009FED930AB2EE041A00EE810A8F4880ED7D
:102FB000090A9048007810B1012827D113E09FED4D
:102FC0008E0A8A4880ED030A8C480068401C8B49B1
:102FD000086008460068FA2804D90020086001202B
:102FE0008449087012E09FED860A804880ED030A4C
:102FF00084480068401C8349086008460068FA2835
:1030000003D9002008607B49087000BF00BFA020E2
:103010007D4948614042086196207C4948614042B0
:1030200008613CE0502078494861404208616420D2
:1030300076494861404208615B480078012809D11F
:103040005948408840F2EE21884203DC0020624962
:10305000086004E060480068401C5F4908605E4802
:103060000068B0F5487F02D900205E4908705048DA
:1030700000685021B0FBF1F201FB120070B9564814
:103080000068B0F5C87F09D200F0F3FB012805D134
:103090005F480078012801D1FEF70EFD00BF00BF98
:1030A0005C4800685C49086010BD0146B1F5127FBC
:1030B00001DC0120704740F2E560814201DC022022
:1030C000F8E70320F6E710B50446012C04D0022CE3
:1030D00022D0032C66D142E05048007801280ED15E
:1030E0004FF47A714FF41270FFF798FD384800885A
:1030F000B0F5037F0FDD0020484908700BE04FF466
:103100007A710020FFF78AFD31480088462802DAEC
:1031100001204249087045E04148007801280FD15C
:103120004FF47A7140F2E560FFF778FD2848008897
:1031300040F2A961884211DD0020394908700DE094
:103140004FF47A714FF41270FFF768FD2048008841
:10315000B0F5217F02DA01203149087022E03148C0
:10316000007801280FD14FF47A7140F67E10FFF7F6
:1031700055FD1748008840F64211884211DD0020B5
:10318000284908700DE04FF47A7140F2E560FFF7CE
:1031900045FD0F480088B0F5E46F02DC01202149AD
:1031A000087000BF00BF10BDC41300202004002021
:1031B0006004002018040020181300202A040020B6
:1031C00010040020FA030020FC0300202804002043
:1031D000EE0600205E0200201C0400202C040020CB
:1031E0001A040020FB030020900600203800002075
:1031F000000020432904002000002F453004002057
:103200000000FA4434040020A60000202A01002017
:10321000F4020020140400202404002038040020BC
:10322000390400203A04002010B5F748007805283A
:103230003CD2DFE800F0033C58759B000120F349C5
:1032400008720846C088F2490988884204DD4FF4B4
:103250007A70F049088009E0EC48C088EC49098898
:10326000884203DA4FF61840EA490880E749C988DE
:10327000E74A1288881A002801DB014600E0414233
:10328000FA2913DAE148C08818B90120DE4908702C
:103290000CE0DE48C08840F67E11884203D102204F
:1032A000D949087002E00320D7490870A9E0D8483E
:1032B0000088002803DD4FF61840D6490880D4481E
:1032C000807818B90020D149087202E00120CF4966
:1032D0000872CF4890F9040010F10A0F02DB0420B5
:1032E000C94908708DE0CA48008840F67E118842BE
:1032F00003DA4FF47A70C7490880C548C07818B916
:103300000020C249087202E00120C0490872C0488A
:1033100090F904000A2802DC0420BB49087070E020
:103320000020BA4908720846C07A40B9B8480088F7
:10333000C98888420CDB0420B349087008E0B4480F
:103340000088B249C988884202DC0420AE4908706E
:10335000AF4991F90400002801DB014600E0414239
:10336000282902DA0420A84908704AE0AA4800681F
:1033700007F024FC00BFFCF78BFFA4498988A34A0F
:103380005288891A90FBF1F201FB12009F4949888B
:1033900008449E49C880C9889D4A1288881A002816
:1033A00001DB014600E04142B1F5FA7F00DAE2E7D5
:1033B0009649C98840F67E12501A002801DB014662
:1033C00000E04142FA2904DA40F67E108F49C880B5
:1033D00006E08E48C088FA2802DA00208B49C880AF
:1033E0008A48C0888A490988884203DD01208749C4
:1033F000C87202E000208549C87200208249087026
:1034000000BF00BF10BD8548007810B1012838D139
:103410001AE07F480088002803DD4FF6E0407D4930
:1034200008807B48807818B900207849087202E04B
:10343000012076490872764890F90400002802DDE0
:103440000120764908701CE07148008840F67E1122
:10345000884203DA4FF448706E4908806C48C0789F
:1034600018B900206949087202E001206749087212
:10347000674890F90400002802DA002067490870C4
:1034800000BF00BF704710B56048007830B1012818
:1034900017D002282AD003283FD12BE0FFF7B3FF33
:1034A0005F480078012802D1022058490870574827
:1034B000C0685C490968884202D0032053490870FB
:1034C0002BE00020514908720846C0685549096838
:1034D000884202D003204D4908704C480069B0F57D
:1034E000487F02D900204949087016E00120474969
:1034F000087012E04C480068401C4B490860FFF718
:1035000093FE4948006842F21071884204D90020B5
:10351000454908603D49087000BF00BF3B48C0688E
:1035200040490968884206D040F6B8303F490860F3
:103530002820364948723548C0683A4908603B48F7
:10354000006820B139480068401E38490860374893
:10355000006810B9A0202D4948722F480068322118
:10356000B0FBF1F201FB1200E8B12848807A27494C
:10357000497A88420DDA28480068C821B0FBF1F288
:1035800001FB120078B12148807A401C1F498872E3
:1035900009E01E48807A1D49497A884203DD1B48AC
:1035A000407A1A4988721948407810B1012879D1B7
:1035B00079E01B480078012813D11948408840F26F
:1035C000EE2188420DDC012010494870184890ED2A
:1035D000000AF2EE040A20EE200A164880ED090ADD
:1035E00056E01348D0ED000A9FED130AB2EE041A1C
:1035F00000EE810A0F4880ED090A1048007810B1EA
:10360000012844D130E01BE055040020FC030020D9
:10361000EE0600205E02002060040020540400201A
:10362000C41300203C040020480400204004002073
:1036300090060020380000200000204344040020B1
:103640009FED3E0A3E4880ED030A3E480068401C5C
:103650003C49086008460068FA2804D90020086040
:1036600001203949087012E09FED380A344880ED96
:10367000030A37480068401C35490860084600685E
:10368000FA2803D9002008602F49087000BF00BF46
:10369000A020304948614042086196202E49486187
:1036A000404208613CE050202A494861404208619C
:1036B000642029494861404208612848007801286F
:1036C00009D12648408840F2EE21884203DC0020E0
:1036D0002349086104E022480069401C2049086130
:1036E0001F480069B0F5487F02D900201C49487086
:1036F0001C4800685021B0FBF1F201FB120070B9C8
:1037000017480069B0F5C87F09D200F0B2F8012867
:1037100005D115480078012801D1FEF7CDF900BF89
:1037200000BF10BD21B90E4AD268521C0C4BDA60A2
:10373000032902D104220D4B1A80704700002F4547
:10374000380000204C040020440400200000FA440B
:1037500050040020A60000202A010020C4130020ED
:10376000FC03002060040020F40200201804002064
:10377000614800886149098888420CD05E48D0EDD4
:10378000010A5F48D0F8020000EE100A30EE800A0D
:10379000594880ED010A4FF4F070574908815948A3
:1037A00000686E21B0FBF1F201FB1200F0BB524841
:1037B000D0ED010A0089400000EE100AB8EEC00A00
:1037C000F4EEC00AF1EE10FA09DD4B480089400022
:1037D00000EE100AB8EEC00A474880ED010A4648DC
:1037E00090ED010AF3EE000A30EE600A80ED010A66
:1037F00090ED010AB5EEC00AF1EE10FA02D29FED8B
:10380000420A02E03C4890ED010A3B4880ED010A83
:103810003E48408900EE100AB8EE400A3648D0ED26
:10382000010A30EE600AF2EE040A00E016E0B4EE9F
:10383000E00AF1EE10FA08DB3448408900EE100A85
:10384000B8EE400A2C4880ED010A2B4890ED010AA1
:10385000BCEEC00A10EE100A2D49088026480088E8
:1038600026490880704724480088401C2249088067
:103870007047284890F8380020BB1F4890ED010A97
:10388000DFED250A70EEC00A2448B0F900004000C0
:1038900000EE100AB8EEC00AF4EEC00AF1EE10FA1B
:1038A00001DD012070471E4800891D490880084637
:1038B000B0F9000000EE100AB8EEC00A084680ED2C
:1038C000010A16E01548B0F90000A02393FBF0F0C0
:1038D000401E01B24FF47A7090FBF1F002B2104832
:1038E000C068084B1B68181A904201D30120D9E721
:1038F00000BF0020D6E700004C0D00205804002037
:10390000C906002060040020000000002C130020E5
:1039100056040020180300200000F043F8030020A4
:10392000F408002010B54FF4A06002F01BF8A820A6
:1039300000F078F900F050FA00F0F6F900F0DFFA44
:10394000642000F0D1F9002000F0FAFA012000F024
:10395000F7FA022000F0F4FA032000F0F1FA00F088
:103960003BF800F0CBF805F01BF90021084600F009
:1039700048FD04462146092000F0ECFC00F094FBD1
:1039800000F0FAFA00F060FD114800F07DFE4FF4FF
:10399000E13001F0F5FA4FF4FA2001F03FFE4FF468
:1039A000E13001F06BFC00F0ADFD4FF4FA7000F077
:1039B0009BF905F02CFE00F011FE4FF4FA7000F0B8
:1039C00093F900F02EFE01200249087010BD00009E
:1039D000A08601005A04002000B58BB00121082008
:1039E00003F023FA0121480603F066FA0121480694
:1039F00003F0B7FA00214FF0007003F0B2FA032091
:103A0000099002208DF8280000208DF82A0003205C
:103A10008DF8290001208DF82B0009A9354802F006
:103A200063FF09220021334802F0E9FF0922012146
:103A3000304802F0E4FF00208DF81E0001208DF8D0
:103A40001F0000208DF820008DF821008DF8220045
:103A50008DF823008DF81A008DF81B0008208DF8D2
:103A60001C0003208DF81D00ADF8180006A922489F
:103A700002F001F800208DF812008DF813000120EB
:103A80008DF814000020ADF80800ADF80A00ADF87C
:103A90000C00ADF80E00ADF8100001208DF81500F7
:103AA00002A802F072F801220221134802F06CFB16
:103AB00014208DF8040001208DF8050000208DF8F9
:103AC000060001208DF8070001A801F050FF0BB09F
:103AD00000BD00B585B00221074802F0BDFB30B142
:103AE0000221054802F053FC684604F0D5FD05B0FC
:103AF00000BD0000000C02400064004000B58BB027
:103B00000121022003F091F90121880603F0D4F984
:103B10000121880603F025FA00214FF0806003F0B0
:103B200020FA4FF44050099002208DF82800002020
:103B30008DF82A0003208DF8290001208DF82B0034
:103B400009A9364802F0D0FE09220C21334802F0C0
:103B500056FF09220D21314802F051FF00208DF857
:103B60001E0001208DF81F0000208DF820008DF828
:103B700021008DF822008DF823008DF81A008DF8B1
:103B80001B0008208DF81C0003208DF81D00ADF8E7
:103B9000180006A9224801F06EFF0E208DF81200D1
:103BA00000208DF8130001208DF814000020ADF8DE
:103BB0000800ADF80A00ADF80C00ADF80E00ADF845
:103BC000100001208DF8150002A801F0DEFF01228F
:103BD0000221134802F0D8FA40208DF80400012099
:103BE0008DF8050000208DF8060001208DF80700F3
:103BF00001A801F0BCFE0BB000BD00B585B00221EC
:103C0000074802F029FB30B10221054802F0BFFB52
:103C1000684604F02CFF05B000BD0000000402401F
:103C20000068004010B504466FF0040001F0ECFE9F
:103C3000E11704EB5171C1F3C701394A1170104605
:103C4000007800EB4001C1EBC0104FF6FF7101EAB4
:103C5000C0003449088010BD0146314A12784A43F9
:103C60004FF0E0235A6100229A611A46126942F02D
:103C700001021A6100BF4FF0E022106900F001025A
:103C80001AB100F48032002AF5D04FF0E022126918
:103C900022F001024FF0E0231A6100229A6170477E
:103CA0000146204A12884A434FF0E0235A6100221D
:103CB0009A611A46126942F001021A6100BF4FF080
:103CC000E022106900F001021AB100F48032002AEB
:103CD000F5D04FF0E022126922F001024FF0E0230C
:103CE0001A6100229A61704770B504464FF407705C
:103CF00094FBF0F0C6B24FF4077094FBF0F100FBB8
:103D0000114085B205E04FF40770FFF7C9FF701E40
:103D1000C6B2002EF7D115B12846FFF7C1FF70BD1E
:103D20005C0400205E0400201CB50121402003F04B
:103D30007CF84FF40050009001208DF80400002022
:103D40008DF8060003208DF805006946044802F04E
:103D5000CBFD4FF40051024802F044FE1CBD0000B0
:103D6000001802401CB50121402003F05EF84FF41A
:103D7000FF70009001208DF8040000208DF80600EF
:103D800003208DF8050001208DF8070069464F4893
:103D900002F0AAFD02214D4802F022FE04214B4808
:103DA00002F01EFE0821494802F01AFE1021474881
:103DB00002F016FE2021454802F012FE4021434841
:103DC00002F00EFE8021414802F00AFE4FF480719D
:103DD0003E4802F005FE1CBD1CB50121102003F079
:103DE00024F80121202003F020F84FF40060009017
:103DF00001208DF8040000208DF8060003208DF8C6
:103E0000050001208DF807006946314802F06CFD7D
:103E10004FF48040009001208DF8040000208DF8C0
:103E2000060003208DF8050001208DF80700694683
:103E3000284802F059FD0120274908600020274941
:103E4000C1F8AC02FFF78EFF1CBD10B50146012082
:103E50000AE0421E41FA02F202F00102204C04EB99
:103E60008003C3F88022401C0928F2DB10BD30B566
:103E700004460025082C01DD082000E02046044609
:103E800014F1080F02DA6FF0070000E02046044644
:103E9000002C09DB002004E0012181402943CDB240
:103EA000401CA042F8DB0BE0002006E0C0F1080255
:103EB000012191402943CDB2401C61428842F5DB8B
:103EC000E843C5B22846FFF7C0FF30BD00180240E6
:103ED0000010024000140240B882424200004242F8
:103EE0000000434210B50446032C00DD10BD042041
:103EF000A04081B21F4802F075FD00BFF6E71CB577
:103F00000121802002F091FF3C20009001208DF8DB
:103F1000040000208DF8060003208DF80500012024
:103F20008DF807006946134802F0DEFC002404E027
:103F30002046FFF7D7FF601CC4B2042CF8DB1CBD81
:103F400010B50446032C00DD10BD0420A04081B252
:103F5000084802F045FD00BFF6E710B50446032C03
:103F600000DD10BD0420A04081B2024802F043FDF4
:103F700000BFF6E7001C024000B58BB00121802095
:103F800002F053FF0121080202F04FFF0121082037
:103F900002F092FF4FF4E050099002208DF82800C3
:103FA00003208DF8290009A9E24802F09DFC0120B8
:103FB000099002208DF8280003208DF8290009A916
:103FC000DD4802F091FC02220A21DA4802F017FDD6
:103FD00002220B21D74802F012FD02220C21D54803
:103FE00002F00DFD02220021D34802F008FD53200B
:103FF000ADF818000020ADF81A0042F20F700790DB
:104000000020ADF8200006A9CC4803F04EFB70203C
:10401000ADF804000120ADF806000020ADF808005E
:104020004FF4FA6003900220ADF810000020ADF8C4
:104030001200ADF814004FF48070ADF8160001A91D
:10404000BE4803F0C7FB01A9BC4803F0FCFB01A973
:10405000BA4803F045FC01A9B84803F0A7FC0821C1
:10406000B64803F044FD0821B44803F049FD082197
:10407000B24803F052FD0821B04803F057FD01217A
:10408000AE4803F07DFB0121AC4803F097FB4FF4F1
:104090007A70AA4934310860091D0860091D08605A
:1040A000091D08600BB000BD00B58BB001210820D0
:1040B00002F0BBFE0121042002F0FEFE4FF470402E
:1040C000099002208DF8280003208DF8290009A905
:1040D0009B4802F009FC02220C21994802F08FFC57
:1040E00002220D21964802F08AFC02220E219448F9
:1040F00002F085FC02220F21914802F080FC53203F
:10410000ADF818000020ADF81A0042F210700790C8
:104110000020ADF8200006A98A4803F0C6FA7020F6
:10412000ADF804000120ADF806000020ADF808004D
:104130004FF47A7003900220ADF810000020ADF823
:104140001200ADF814004FF48070ADF8160001A90C
:104150007C4803F03FFB01A97A4803F074FB01A9F6
:10416000784803F0BDFB01A9764803F01FFC082145
:10417000744803F0BCFC0821724803F0C1FC08211C
:10418000704803F0CAFC08216E4803F0CFFC0121FF
:104190006C4803F0F5FA01216A4803F00FFB4FF475
:1041A0007A70684934310860091D0860091D08608B
:1041B000091D08600BB000BD00B58BB001210802DD
:1041C00002F033FE0121802002F02FFE01210820A1
:1041D00002F02BFE0120019002208DF80800032040
:1041E0008DF8090000208DF80A0001208DF80B00E1
:1041F00001A9514802F078FB4FF4E050019001A969
:104200004C4802F071FB4FF48050019001A94C48DA
:1042100002F06AFB02220021474802F0F0FB022272
:104220000C21444802F0EBFB02220B21414802F032
:10423000E6FB02220A213F4802F0E1FB02220C21A8
:104240003F4802F0DCFB0121082002F035FE01218D
:10425000042002F031FE0020ADF82800ADF8220065
:1042600044F61F6009905320ADF8200000208DF81F
:104270002A0008A9314803F018FA40F24730ADF897
:10428000200040F2E730099008A92E4803F00DFA0B
:104290006020ADF80C000120ADF80E004FF47A70EC
:1042A00005900020ADF8180003A9244803F07EFB18
:1042B00003A9224803F014FB03A9204803F0C3FA22
:1042C00003A91E4803F086FA01211C4803F00FFCE5
:1042D00001211A4803F014FC0121184803F01DFCC9
:1042E0000121164803F022FC0121144803F048FA8A
:1042F0000121124803F053FE0121104803F05EFA39
:104300004FF4FA70059003A90E4803F063FA0121F7
:104310000C4803F0ECFB01210A4803F031FA0121BB
:10432000084803F03CFE0121064803F047FA0BB0B1
:1043300000BD0000001C024000200240000C0040B4
:10434000000C02400008004010B500213A4803F07C
:104350009AFB10BD30B58BB004460D4601214020BC
:1043600002F0AAFD0121802002F05FFD0121402022
:1043700002F0F7FD0021402002F0F3FD09220621A2
:104380002E4802F03CFB4020099002208DF82800C6
:1043900003208DF8290000208DF82A0002208DF8D6
:1043A0002B0009A9254802F09FFA6020ADF804000F
:1043B0000120ADF806000020ADF8100001A91E484C
:1043C00003F008FA08211C4803F091FB01211A4868
:1043D00003F0D6F9681E0790601E80B2ADF8180091
:1043E0000020ADF81A00ADF8200006A9124803F02D
:1043F0005CF90121104803F0E1F9FFF7A5FF0BB0CC
:1044000030BD10B5024643F6BD600D4B03EB021301
:1044100033F811300B4C94FBF3F398B210BD064AFD
:1044200028321080121D1160704710B504462146D5
:10443000014803F028FB10BD00180040001C02409A
:104440006AD40008802C800000B58BB001210220C6
:1044500002F0EBFC2020099002208DF828000320B8
:104460008DF8290000208DF82A0001208DF82B00FE
:1044700009A9224802F038FA022205211F4802F059
:10448000BEFA0121022002F017FD0020ADF8200045
:10449000ADF81A0044F61F6007905320ADF81800DD
:1044A00000208DF8220006A9154803F0FEF86020D0
:1044B000ADF804000120ADF8060000200390ADF82F
:1044C000100001A90E4803F0BEF901210C4803F0C9
:1044D00017FB01210A4803F053F90121084803F0B2
:1044E0005EFD0BB000BD44F62062424344F62063FB
:1044F00092FBF3F1024A3832116070470004024027
:104500000004004000B587B00121202002F08DFC9E
:104510000121080502F0E1FC4FF4607005900220D3
:104520008DF8180000208DF81A0001208DF81B006E
:1045300003208DF8190005A9264802F0D5F90522B7
:104540000721244802F05BFA05220821214802F0E5
:1045500056FA052209211F4802F051FA4020059021
:1045600001208DF8180000208DF81A0001208DF828
:104570001B0003208DF8190005A9164802F0B4F9B4
:104580004021144802F02CFA4FF48270ADF802007A
:104590000020ADF80400ADF800004FF40070ADF855
:1045A0000A000020ADF80E000120ADF8080002203E
:1045B000ADF806002020ADF80C000A20ADF8100080
:1045C0006946054802F0D0FD0121034802F0C6FE0D
:1045D00007B000BD00140240005001401FB501218A
:1045E000102002F069FC36208DF8000002208DF8C2
:1045F000010001208DF802008DF80300684601F0EB
:10460000B6F95320ADF804000020ADF80600ADF86F
:104610000C004FF47A70029001A9194803F045F894
:104620001FBD10B50121164803F0C8F8012211463C
:10463000134803F0DBFC0121114803F0EBFC10BD33
:1046400010B501210E4803F0E8FCC0B101210C486F
:1046500003F0F4FC01210A4803F0DCFCFCF7E7F866
:1046600008480068401C0749086008460068642143
:10467000B0FBF1F201FB120008B9FCF747F910BDDD
:10468000001000406004002010B596B004460121DF
:10469000022002F0CAFB0121102002F01EFC0722BA
:1046A00011464C4802F0ABF914A802F065F98020DD
:1046B000149002208DF8540001208DF8570002203C
:1046C0008DF8550000208DF8560014A9414802F0DD
:1046D0000BF9414803F08EFD10A803F058FE3F4847
:1046E00010900020ADF84400ADF846004FF4806013
:1046F000ADF848000420ADF84A000020ADF84C00A9
:1047000010A9354803F0DDFD0121334803F061FEB7
:1047100001224021304803F009FF314801F08AFEB0
:104720000121880502F081FB4FF0006000902A48CB
:10473000001D01902B48029000200390122004904D
:10474000002005904FF480600690002007900890AC
:104750004FF4807009904FF440300A9000200B9085
:104760000C900D900E9069461D4801F005FF012246
:1047700010211B4801F0C7FF0121194801F036FF45
:104780003A208DF83C0000208DF83D008DF83E0069
:1047900001208DF83F000FA801F0E9F816B010BD18
:1047A00010B511490E4801F0CBFF88B14FF081518F
:1047B0000B4801F094FF0C49094801F0EBFF094850
:1047C00004F0E6FF0948FDF770FB0220FDF77DFBD2
:1047D00010BD00000004024000100140A08601004E
:1047E00040640240580D0020008020103603002055
:1047F00010B596B004460121082002F016FB0121F5
:10480000480502F012FB0121480402F055FBFB4869
:1048100003F0F0FC0121F94803F0EFFD0722052128
:10482000F74802F0ECF807220621F54802F0E7F815
:104830006020149002208DF8540000208DF856005E
:1048400003208DF8550000208DF8570014A9EC487E
:1048500002F04AF826208DF83C0002208DF83D0039
:1048600001208DF83E008DF83F000FA801F07FF881
:1048700010A803F08CFD10940020ADF84400ADF8B2
:104880004600ADF848000C20ADF84A000020ADF815
:104890004C0010A9D94803F014FD012240F2244134
:1048A000D64803F04CFE01224021D44803F03EFEDE
:1048B0000021D24803F08DFDD24801F0BBFD4FF03E
:1048C00000600090CD48001D0190CF48029000206C
:1048D000039064200490002005904FF480600690BF
:1048E00000200790089009904FF480300A90002033
:1048F0000B900C900D900E906946C248603001F00C
:104900003BFE10208DF83C0002208DF83D00012078
:104910008DF83E008DF83F000FA801F028F8012225
:104920001021B848603001F0EEFE0022B649643133
:10493000B448603001F081FE0121B248603001F0DE
:1049400088FE0121AF48603001F050FE16B010BD66
:1049500000B591B00121480502F067FAA948783006
:1049600001F068FD4FF000600190A448001D029026
:10497000A6480390402004904FF4C8700590002092
:1049800006904FF4806007900020089009900A90EC
:104990004FF400300B9000200C9001200D9000206F
:1049A0000E900F9001A99748783001F0E5FD0122A3
:1049B00010219448783001F0A6FE012280218F4812
:1049C00003F0B4FD11208DF8400002208DF8410065
:1049D00001208DF842008DF8430010A800F0C7FFB9
:1049E00000218848783001F001FE11B000BD70B59B
:1049F00004460D4600BF864800780028FBD1012000
:104A0000834908702A462146804806F0F5F8294671
:104A10007C48783001F00BFE01217A48783001F0B3
:104A2000E5FD70BD10B57B497648783001F088FE11
:104A300078B178497348783001F051FE002171480F
:104A4000783001F0D3FD012240F226616B4803F07B
:104A500076FD10BD10B540F22771684803F0AAFD3D
:104A600040B9002240F22661644803F068FD00204E
:104A70006749087010BD0146B1F8C800B1F8CA20F6
:104A8000904201D1C7207047B1F8CA00B1F8C820E0
:104A9000801A012806D0B1F8CA00B1F8C820801ADF
:104AA000C73008B90020EEE7B1F8CA00B1F8C82055
:104AB000801A401E002806D4B1F8CA00B1F8C820F8
:104AC000801A401E05E0B1F8CA00B1F8C820801A6B
:104AD000C73080B2D7E72DE9F04104460F461546AE
:104AE0002046FFF7C8FFA84227DB002D25DDB4F8DC
:104AF000C8002844C8280CDAB4F8C81008192A4697
:104B0000394606F079F8B4F8C8002844A4F8C8007B
:104B100016E0B4F8C800C0F1C806B4F8C810081907
:104B20003246394606F068F8AA1BB919204606F045
:104B300063F8A81BA4F8C80002E00020BDE8F081DB
:104B40000120FBE710B540F224412C4803F032FD70
:104B5000002852D001203049A1F8CE002748008813
:104B60002648001D00882748603001F082FDE0BB28
:104B700000202A490870002210212248603001F0EC
:104B8000C2FD00211F48603001F030FD24491D485E
:104B9000603001F0FFFD1B48603001F04AFDC0F1BC
:104BA0006400204908606420164964310860154893
:104BB0002838D0F8880040F4002012492839C1F87C
:104BC00088001848008882B21448007800EBC003BF
:104BD00003EB00100C4B03EB80010F48FFF77BFF4A
:104BE000012210210748603000E01DE001F08BFD3C
:104BF00001210448603001F0F9FC52E0004400401B
:104C0000000C024028600240720D00200A0F0020B4
:104C100064040020008020203A0E0020650400205B
:104C200000880020680400200120CE49087000227E
:104C30001021CD4801F067FD0021CB4801F0D6FCE2
:104C4000CA49C94801F0A6FDC74801F0F2FCC0F10D
:104C50006400C74908606420C349091D0860C24850
:104C60008838D0F8880020F40020BF498839C1F87E
:104C70008800BF48008882B2BA48007800EBC003C1
:104C800003EB0010BB4B03EB8001BB48FFF723FF96
:104C900001221021B44801F036FD0121B24801F093
:104CA000A5FC10BD10B5FFF7D5FEFFF74BFF10BDFB
:104CB00010B5AE49AC4801F043FDF0B1AB49AA488C
:104CC00001F00DFDA84801F0D4FC08B9012000E076
:104CD0000020A4490870A9480088A848001D008841
:104CE0000846007800EBC00202EB0010A14A02EB7C
:104CF00080016422A048FFF7EEFE10BD0146B1F826
:104D0000C800B1F8CA20904201D100207047B1F824
:104D1000CA00B1F8C820801A012806D0B1F8CA002C
:104D2000B1F8C820801AC73008B9C720EEE7B1F83B
:104D3000C800B1F8CA20801A05D4B1F8C800B1F88B
:104D4000CA20801A05E0B1F8C800B1F8CA20801A5C
:104D5000C83080B2DAE72DE9F04107460C46154627
:104D60002046FFF7CBFFA84227DB002D25DDB4F856
:104D7000CA002844C8280CDAB4F8CA0001192A4627
:104D8000384605F039FFB4F8CA002844A4F8CA0030
:104D900016E0B4F8CA00C0F1C806B4F8CA00011998
:104DA0003246384605F028FFAA1B2146384605F052
:104DB00023FFA81BA4F8CA0002E00020BDE8F08190
:104DC0000120FBE730B5034601241846FFF796FFA4
:104DD000A0421CDB002C1ADDB3F8CA002044C8280E
:104DE00008DAB3F8CA001D5CB3F8CA002044A3F87F
:104DF000CA000AE0B3F8CA10C1F1C800B3F8CA107B
:104E00005D5C211AA3F8CA1000BF284630BD0020FF
:104E1000FCE72DE9F04107460C462046FFF76EFF00
:104E20000546002D25DDB4F8CA002844C8280CDA50
:104E3000B4F8CA0001192A46384605F0DDFEB4F878
:104E4000CA002844A4F8CA0016E0B4F8CA00C0F1A9
:104E5000C806B4F8CA0001193246384605F0CCFE3F
:104E6000AA1B2146384605F0C7FEA81BA4F8CA00B5
:104E700002E00020BDE8F0810120FBE72DE9F047CA
:104E800081460D4617461C462846FFF737FF39195D
:104E9000884221DB002C1FDDB5F8CA003844C82148
:104EA00090FBF1F201FB12063019C82805D2A919AE
:104EB0002246484605F0A0FE0DE0C6F1C808A91933
:104EC0004246484605F098FEA4EB080229464846AB
:104ED00005F092FE00BF02E00020BDE8F08701204F
:104EE000FBE770B503460C4601251846FFF706FFA1
:104EF000611988420BDB002D09DDB3F8CA0020449C
:104F0000C82290FBF2F602FB1601585C70BD00202F
:104F1000FCE710B503460C461846FFF7EFFEA0422B
:104F200014DB002C12DDB3F8CA002044C82805DACF
:104F3000B3F8CA002044A3F8CA0009E0B3F8CA10C5
:104F4000C1F1C800211AA3F8CA1001E0002010BD69
:104F50000120FCE700200849A1F8C800A1F8CA0018
:104F6000704700006504002088600240008800202F
:104F700068040020720D00203A0E0020004400401A
:104F800010B596B004460121082001F04EFF012122
:104F9000480501F04AFF0121880401F08DFF7648A1
:104FA00003F028F907220821744801F028FD0722A0
:104FB0000921724801F023FD4FF480701490022003
:104FC0008DF8540000208DF8560003208DF8550010
:104FD00000208DF8570014A9684801F085FC4FF4B3
:104FE0000070149002208DF8540001208DF85600B6
:104FF00003208DF8550001208DF8570014A95F4853
:1050000001F072FC27208DF83C0002208DF83D0055
:1050100001208DF83E008DF83F000FA800F0A7FC9E
:1050200010A803F0B4F910940020ADF84400ADF8D6
:105030004600ADF848000C20ADF84A000020ADF85D
:105040004C0010A94C4803F03CF9012240F22441E5
:10505000494803F074FA01224021474803F066FAF8
:105060000121454803F0B5F9454801F0E3F94FF057
:10507000006000904048001D0190424802900020CE
:10508000039064200490002005904FF48060069007
:1050900000200790089009904FF480300A9000207B
:1050A0000B900C900D900E906946354801F064FA13
:1050B000002234496431324801F0BFFA01213048FE
:1050C00001F0C7FA01212E4801F090FA16B010BD88
:1050D00010B540F22441284803F06CFA00284AD069
:1050E000254800882448001D0088254801F0C1FAA1
:1050F00000BB0020244908700021214801F076FA05
:105100001F4801F096FAC0F164002049086064204D
:105110001B492839C8620846806A40F4002088622A
:105120000121174801F062FA18480178154804F087
:105130003FFC20E00120144908700021104801F0D4
:1051400055FA0F4801F075FAC0F164000F49086084
:1051500064200B492839C8620846806A20F4002080
:1051600088620121064801F041FA084801780548A3
:10517000643004F01DFC10BD00480040000C0240EB
:10518000286002409A1000206E0400207004002065
:1051900010B588B004460121402001F046FE0121EF
:1051A000202001F09AFE08220921314801F027FC55
:1051B00008220E212E4801F022FC4FF48440069074
:1051C00002208DF81C0000208DF81E0003208DF8B1
:1051D0001D0000208DF81F0006A9254801F084FB62
:1051E000244803F007F802A803F0D1F80294002045
:1051F000ADF80C00ADF80E00ADF810000C20ADF8C5
:1052000012000020ADF8140002A91A4803F059F862
:1052100047208DF8040001208DF805008DF8060068
:105220008DF8070001A800F0A2FB012240F22551F1
:10523000104803F084F901210E4803F0CAF808B0C1
:1052400010BD10B540F225510A4803F0B3F968B11A
:10525000084803F0EDF8084908700648008805483A
:10526000001D00880846007804F072FD10BD0000A3
:1052700000180240001401407404002010B588B0EA
:1052800004460121102001F0D0FD0121880701F022
:1052900013FE082207213C4801F0B1FB0822114609
:1052A000394801F0ACFB8020069002208DF81C00EC
:1052B00000208DF81E0003208DF81D0001208DF8C0
:1052C0001F0006A9304801F00FFB4FF480700690D4
:1052D00002208DF81C0000208DF81E0003208DF8A0
:1052E0001D0001208DF81F0006A9274801F0FCFAD7
:1052F000264802F07FFF02A803F049F8029400203C
:10530000ADF80C00ADF80E00ADF810000C20ADF8B3
:1053100012000020ADF8140002A91C4802F0D1FFD1
:1053200052208DF8040001208DF805008DF806004C
:105330008DF8070001A800F01AFB012240F2255168
:10534000124803F0FCF80121104803F042F808B0BD
:1053500010BD10B540F225510C4803F02BF990B167
:105360000A4803F065F80A490870084800880748A9
:10537000001D00880846007804F055FC05480068C8
:10538000401C0449086010BD001002400078004035
:105390007C0400207804002000B58BB0012180201F
:1053A00001F043FD0121080201F03FFD0121082029
:1053B00001F082FD4FF4E050099002208DF82800A2
:1053C00003208DF8290009A98B4801F08DFA0120EE
:1053D000099002208DF8280003208DF8290009A9E2
:1053E000864801F081FA02220A21834801F007FB76
:1053F00002220B21804801F002FB02220C217E4890
:1054000001F0FDFA022200217C4801F0F8FA122096
:10541000ADF818000020ADF81A0005200790002014
:10542000ADF8200006A9764802F03FF97020ADF8EB
:1054300004000120ADF806000020ADF8080003903C
:105440000220ADF810000020ADF81200ADF81400F5
:105450004FF48070ADF8160001A9694802F0BAF95E
:1054600001A9674802F0EFF901A9654802F038FA8E
:1054700001A9634802F09AFA0821614802F037FB5B
:1054800008215F4802F03CFB08215D4802F045FB23
:1054900008215B4802F04AFB0121594802F070F9EB
:1054A0000021574802F08AF90BB000BD00B58FB05B
:1054B0000121480501F0B9FC0520FEF715FC00218B
:1054C000504801F093F84F4800F0B4FF4FF04060AF
:1054D00000904B483C3001904B4802904020039094
:1054E00079200490002005904FF4806006908000A1
:1054F000079080000890002009904FF480300A90B7
:1055000000200B9003200C9000200D900E90694617
:105510003C4801F031F801221102394802F096FDB1
:105520000021384801F062F80121354802F046F9BF
:105530000FB000BD10B53549324801F0B4F818B9C4
:105540003348007801281CD00120314908703149C6
:105550002C4801F0C4F800212A4801F047F87921CD
:10556000284801F064F80121264801F03FF824485A
:105570001430008840F001002149143108800120D6
:1055800010BD0020FCE72DE9F04105460C46052C36
:1055900002DD0020BDE8F08100211EE0002019E0BE
:1055A000072214E001EB41032B441B5C134103F081
:1055B0000103194EF35C01EB4106F60006EBC00651
:1055C000C2F107073E44104F47F82630521E002A0A
:1055D000E8DA401C0328E3DB491CA142DEDB0020A3
:1055E00004EB4401082202EBC101074A42F8210002
:1055F000FFF7A0FF0120CDE7001C02400020024081
:10560000000C0040106002408004002020000010C8
:1056100064060020208000109AD4000810B588B0DD
:1056200004460121102001F000FC0121C80701F00F
:1056300043FC08220021304801F0E1F90822012151
:105640002D4801F0DCF90320069002208DF81C00A3
:1056500000208DF81E0003208DF81D0001208DF81C
:105660001F0006A9244801F03FF9244802F0C2FDBA
:1056700002A802F08CFE02940020ADF80C00ADF8F8
:105680000E00ADF810000C20ADF812000020ADF8AF
:10569000140002A9194802F014FE53208DF80400EA
:1056A00001208DF805008DF806008DF8070001A88F
:1056B00000F05DF9012240F22551104802F03FFF51
:1056C00001210E4802F085FE08B010BD10B540F271
:1056D00025510A4802F06EFF68B1084802F0A8FEA2
:1056E00007490870054800880448001D00880846DE
:1056F000007804F02DFB10BD00100240007C00403B
:1057000065060020704700BFFEE700BFFEE700BF50
:10571000FEE700BFFEE77047704770477047000024
:105720000CB50020019000908348006840F4803060
:105730008149086000BF8048006800F40030009094
:105740000198401C0190009818B90198B0F5A04F3D
:10575000F1D17948006800F4003010B101200090C8
:1057600001E0002000900098012860D1724840308C
:10577000006840F080507049403108606F48006810
:1057800040F440406D4908606B48083000686A4941
:10579000083108600846006840F400400860084688
:1057A000006840F4A05008606548091F0860081FA1
:1057B000006840F08070091F086000BF5E48006804
:1057C00000F000700028F9D05C48006840F4803098
:1057D0005A49086000BF5948406800F480300028EA
:1057E000F9D05648006840F400305449086000BFC2
:1057F0005248406800F400300028F9D040F20570AB
:10580000504908604C480830006820F003004A49BD
:10581000083108600846006840F00200086000BFD8
:1058200045480830006800F00C000828F8D10CBD8D
:1058300010B54548006840F47000434908603E4890
:10584000006840F001003C49086000203A490831F6
:105850000860394800683D490840374908603C48BD
:10586000091D0860081F006820F48020091F0860D7
:10587000002031490C310860FFF752FF4FF0006003
:1058800031498039086010BD70B500200022022324
:1058900000240221284D08352D6805F00C0020B1A8
:1058A000042806D0082834D107E02A4D2A4E356056
:1058B00033E02A4D284E35602FE01F4D2D1D2D68F9
:1058C000C5F380541C4D2D1D2D6805F03F0154B1CA
:1058D000224DB5FBF1F5184E361D3668C6F3881615
:1058E00005FB06F209E01B4DB5FBF1F5124E361D26
:1058F0003668C6F3881605FB06F20F4D2D1D2D6880
:10590000C5F301456D1C6B00B2FBF3F5124E35601B
:1059100003E0104D104E356000BF00BF064D083546
:105920002D68C5F303150E4E705D0B4D2D68C540F7
:10593000094E356070BD0000003802400070004024
:105940000C544007003C024088ED00E0FFFFF6FEEB
:10595000103000240024F40068060020001BB7006B
:105960006C06002032490143324A1160704770B51D
:10597000002100230F22C4781CB32E4C246804F4A9
:10598000E064C4F5E064C4F30721C1F10404E3B2A8
:105990000A4144789C40E1B28478144021430C07CA
:1059A000210E254C05786155047804F01F0501246B
:1059B000AC4005786D11AD0005F1E025C5F800415A
:1059C00009E0047804F01F050124AC401B4D067863
:1059D000761145F8264070BD194A0A400243154B1E
:1059E0001B1F1A60704739B1124A121D1268024318
:1059F000104B1B1D1A6006E00E4A121D12688243EE
:105A00000C4B1B1D1A607047042808D14FF0E02191
:105A1000096941F004014FF0E022116107E04FF005
:105A2000E021096921F004014FF0E0221161704783
:105A30000000FA050CED00E000E400E080E100E089
:105A400080FFFF1F10B50446FE48844209D10121A2
:105A5000480601F086FA00214FF0007001F081FA4B
:105A600008E00121880601F07CFA00214FF08060F7
:105A700001F077FA10BD30B502460020002314680B
:105A800024F002041460146844F00104146000E07F
:105A90005B1C546804F001041CB94FF6FF74A34268
:105AA000F6D1546804F001040CB900206CE08C7944
:105AB000012C04D1146844F08004146003E01468DD
:105AC00024F080041460CC79012C04D1146844F0D3
:105AD0004004146003E0146824F0400414600C7A5D
