:020000040800F2
:10000000701A0020A582000861530008635300089D
:10001000675300086B5300086F530008000000008E
:100020000000000000000000000000007353000802
:10003000755300080000000077530008795300084A
:10004000BF820008BF820008BF820008BF8200088C
:10005000BF820008BF820008BF820008BF8200087C
:10006000BF820008BF820008BF820008BF8200086C
:10007000BF820008BF820008BF820008BF8200085C
:100080000D49000881460008BF820008BF820008B1
:100090002F370008BF820008BF820008BF82000817
:1000A000BF820008BF820008BF820008BF8200082C
:1000B000BF820008BF820008BF820008BF8200081C
:1000C000BF820008BF820008BF820008BF8200080C
:1000D000BF820008BF820008014900082D4D0008BA
:1000E000BF820008BF820008BF820008BF820008EC
:1000F000BF820008BF820008BF820008BF820008DC
:10010000BF820008BF820008BF820008BF820008CB
:10011000BF820008BF8200089D420008BF8200081D
:10012000BF820008BF820008FD430008BF820008AC
:10013000BF820008BF820008BF820008BF8200089B
:1001400057380008BF820008BF820008BF8200083D
:10015000BF820008BF820008BF8200089F4E0008CF
:10016000BF820008BF820008BF820008BF8200086B
:10017000BF820008BF820008BF820008BF8200085B
:10018000BF820008BF820008AF4F00082953000853
:10019000BF820008BF820008BF820008BF8200083B
:1001A0000000000000000000BF82000800F002F81C
:1001B00000F05CF80AA090E8000C82448344AAF1A5
:1001C0000107DA4501D100F051F8AFF2090EBAE8A3
:1001D0000F0013F0010F18BFFB1A43F0010318477B
:1001E000E0D3000000D400000A444FF0000C10F8E7
:1001F000013B13F0070408BF10F8014B1D1108BFA5
:1002000010F8015B641E05D010F8016B641E01F844
:10021000016BF9D113F0080F1EBF10F8014BAD1C94
:100220000C1B09D16D1E58BF01F801CBFAD505E0B2
:1002300014F8016B01F8016B6D1EF9D59142D6D30C
:10024000704700000023002400250026103A28BF34
:1002500078C1FBD8520728BF30C148BF0B60704738
:100260001FB50CF0B2FB1FBD10B510BD0AF079FB35
:100270001146FFF7F5FF00F009F80AF097FB03B409
:10028000FFF7F2FF03BC0AF097FB00004FF4A060F9
:1002900005F096F903F078F9002433E0264890F948
:1002A0000000082805DA24480078C01C40B2224922
:1002B000087022490968C1F34F0003F0E4FE04EB23
:1002C00044021F4B03EB4202917804EB440213F803
:1002D000120003F0C4FE05462946092003F0CDFEB6
:1002E00004EB4401164A02EB41018D8805EBD57100
:1002F000481003F027FB03F055FE1E2003F022FBFD
:10030000601C641C162CC9DB00200E490860082103
:10031000012000F061FB01200B4908700BE00B4845
:1003200000684FF47A71B0FBF1F201FB120010B9D2
:10033000082001490870F2E7000000202C18004056
:1003400066CE0008B88242420E000020440400201D
:10035000FE490870704710B5C024FD490988A1F511
:100360008060002801DB014600E0414240F2962215
:10037000914201DC012100E000210C43F44949884D
:10038000A1F58060002801DB014600E0414240F217
:100390009622914201DC012100E0002144EA41045F
:1003A000EB498988A1F58060002801DB014600E067
:1003B000414240F29622914201DC012100E00021FD
:1003C00044EA8104E249C988A1F58060002801DB84
:1003D000014600E0414240F29622914201DC0121B7
:1003E00000E0002144EAC104D948007A012807D07E
:1003F000D748007A022803D0D548007A032801D1D3
:10040000012000E0002044EA0014D148407A01288D
:1004100007D0CF48407A022803D0CD48407A03283D
:1004200001D1012000E0002044EA4014FF2C07D055
:100430000320FFF78DFF1422C549C6480AF0DCF9F6
:1004400010BDC2480078704710B5FFF7FAFF0828C2
:100450007ED2DFE800F011041E872B65584B002385
:100460001A461946184607F0B9FF00231A461946DE
:10047000184607F0E2FF82E000231A4619461846A4
:1004800007F0ACFF00231A461946184607F0D5FFBF
:1004900075E000231A461946184607F09FFF00230F
:1004A0001A461946184607F0C8FF68E0AA4CE488C7
:1004B00023B2A94CA48822B2A84CA48C21B2A74C88
:1004C000248C20B207F08AFFA54B93ED070ABDEEFE
:1004D000C00A10EE103A1AB2A24B9B8A19B2A14B75
:1004E0001B8D18B2002307F0A8FF48E000231A462E
:1004F0001946184607F072FF00231A461946184697
:1005000007F09BFF3BE000231A461946184607F008
:1005100065FF00231A461946184607F08EFF2EE0A5
:100520008D4CE48823B28C4CA48822B28B4CA48CD2
:1005300021B28A4C248C20B207F050FF884B93EDF7
:10054000070ABDEEC00A10EE103A1AB2854B00E061
:1005500008E09B8A19B2834B1B8D18B2002307F069
:100560006CFF0CE000231A461946184607F036FFC8
:1005700000231A461946184607F05FFF00BF00BF68
:1005800010BD10B572490988714A52881144704AE9
:10059000928811446E4AD2881144A1F580500028F7
:1005A00001DB014600E041420C2901DD00F062F967
:1005B00010BD10B5FFF745FF082847D2DFE800F06F
:1005C0001F0427372F3D38366748006842F2107104
:1005D000884213D9FFF7D5FF0020FFF7B9FE9FED42
:1005E000630A604880ED030A614890ED000AF2EE6C
:1005F000040A20EE200A5B4880ED090A26E000F09C
:10060000D9FF0220FFF7A4FE01F0BDFA1EE006208C
:10061000FFF79EFE00F0CEFF01F0B5FA16E000F005
:10062000C9FF01F0B0FA01F001FA0FE00EE00DE0B1
:1006300001F0FCF900F0BEFF08E002F065FC00F0FC
:10064000B9FF01F0A0FA01F0F1F900BF00BF10BD41
:1006500010B5FFF7F6FE47490870FFF7F2FE0828CD
:1006600005D2DFE800F00504065B07B5371CBEE0E5
:10067000BDE0BCE03648007A032802D10620FFF72F
:1006800067FE3348007A032807D13B4800780328E7
:1006900003D12F48407A012800D000BFA7E02C49A1
:1006A000C97C61B92A49897C49B92949B1F90A004B
:1006B000002801DB014600E04142032902DD04205D
:1006C000FFF746FE2248007A022802D10520FFF7F4
:1006D0003FFE8CE01E48007A01280DD1244890EDA1
:1006E000000AF2EE040A20EE200A1E4880ED090AF4
:1006F0000420FFF72DFE10E01548007A02280CD1E7
:100700001B4890ED000AF2EE040A20EE200A15487C
:1007100080ED090A0520FFF71BFE68E01748006816
:10072000401C16490860164991F8361051BB08491B
:100730000988074A52881144054A92881144044A9C
:10074000D2881144A1F5805000281CE0040000204C
:100750008406002040070020F2030020B00800209B
:1007600000090020340000204404002000E8E04597
:10077000740600200600002005000020080000206C
:100780001803002015E001DB014600E041420A2980
:100790000FDA404890ED000AF2EE040A20EE200A3B
:1007A0003D4880ED090A0420FFF7D2FD00203B49B7
:1007B00008603B4890F8360048B938480068B0F502
:1007C000FA5F04D900203549086000F053F80EE0C4
:1007D0003448007A012802D10420FFF7B9FD3148DE
:1007E000007A032802D10620FFF7B2FD00BF00BF48
:1007F0002C48407A2C49087010BD10B508F086FCD2
:100800002A4800680521B0FBF1F201FB120008B98B
:1008100002F0E0FD01F056FBFFF71AFFFFF7C9FEFB
:10082000FFF712FEFFF797FD204800687821B0FB24
:10083000F1F201FB120078B91D4890F90000002880
:1008400005DD1B480078401E40B219490870184861
:1008500090F9000003F039F910BDF0EE400AF5EE12
:10086000C00AF1EE10FA02DBB0EE600A7047B1EE9A
:10087000600AFBE7BFF34F8F0E48006800F4E060AA
:100880000D490843001D0B490860BFF34F8F00BF9F
:10089000FEE700007406002034000020080000205D
:1008A00018030020840600200500002044040020D6
:1008B000000000200CED00E00000FA0510B5FB4838
:1008C00000780A2832DAF948007800282EDDF84846
:1008D00000684FF41661B0FBF1F201FB1200F3491E
:1008E00009784900C1EB011101EB8101B0EB410F27
:1008F0002BD8EF4800684FF41661B0FBF1F201FB12
:10090000120028B94FF48041EA4805F097FE1CE038
:10091000E74800689621B0FBF1F201FB1200A0B994
:100920004FF48041E34805F094FE0EE0DF48007884
:100930000A2805DB4FF48041DE4805F081FE04E023
:100940004FF48041DB4805F079FEDB4800780A2847
:1009500032DAD948007800282EDDD54800684FF4F7
:100960001661B0FBF1F201FB1200D349097849008E
:10097000C1EB011101EB8101B0EB410F2BD8CC4849
:1009800000684FF41661B0FBF1F201FB120028B9C8
:100990004FF40061C94805F051FE1CE0C4480068EE
:1009A0009621B0FBF1F201FB1200A0B94FF40061F7
:1009B000C24805F04EFE0EE0BF4800780A2805DB6D
:1009C0004FF40061BD4805F03BFE04E04FF40061C8
:1009D000BA4805F033FE10BD0A2801DD0A2200E006
:1009E0000246B24B1A700A2901DD0A2200E00A46CB
:1009F000B14B1A70704710B5B148007820B101288A
:100A000022D0022860D140E0AE480078401CAD49B9
:100A100008700846007850280ADB0120A8490870B1
:100A20005020A84908700020A7490870A7490870FD
:100A3000A4480078C0F15000A5494870A14800784A
:100A40000870002088703FE09F480078401C9E4955
:100A500008700846007850280BDB0220984908707F
:100A60000020984908705020974908700020974945
:100A7000087000209649487093480078C0F15000F3
:100A800008709148007888701EE090480078401CFB
:100A90008E49087008460078502809DB00208849F4
:100AA0000870884908708849087050208749087084
:100AB000864800788649487000200870834800788E
:100AC000C0F15000887000BF00BF00204FE0814996
:100AD000095C11B1012948D124E07F4901EB800173
:100AE00091ED000ADFED7D0A30EE200A7A4901EB34
:100AF000800181ED000A784901EB800191ED000A47
:100B0000DFED770AB4EEE00AF1EE10FA09DB9FEDB3
:100B1000740A714901EB800181ED000A01216D4ADF
:100B2000115422E06C4901EB800191ED000ADFEDE8
:100B30006B0A30EE600A684901EB800181ED000A22
:100B4000654901EB800191ED000AB5EEC00AF1EEB6
:100B500010FA09D89FED630A5F4901EB800181ED2E
:100B6000000A00215B4A115400BF00BF401C052849
:100B7000ADDB574840785649C87008460178417146
:100B80008178017100785249887108464178017274
:100B90008178C17180784E49487208460178C172E7
:100BA0004178817200784A490873084681788173D8
:100BB0004178417300201EE0002119E000EB400263
:100BC000434B1A44525C00EE102AB8EE400A424AE7
:100BD00002EB8002D2ED000A20EE200ABCEEC00A31
:100BE00010EE102A00EB4003394C23445A54491CA0
:100BF0000329E3DB401C0528DEDB10BD027802F090
:100C00000101027852100270027842EAC1120270A9
:100C1000704710B5264800686421B0FBF1F201FB73
:100C20001200002841D100BF12E000210DE02E4A41
:100C30001278024102F00102642312FB03F200EB7E
:100C40004003234C23445A54491C0329EFDB401C26
:100C50000528EADB2448FFF7D1FF24480078401C30
:100C6000224908700878C11700EB5171C910A0EB38
:100C7000C10141B91E490978052904DC1C480078E6
:100C8000401C1B49087000200BE0002106E0642294
:100C900000EB40030E4C23445A54491C0329F6DB55
:100CA000401C134909788842EFDB10BD0C0000207E
:100CB00044040020001402400D00002000100240F7
:100CC0000F00002010000020110000201200002062
:100CD0005407002013000020180000200AD7233CEE
:100CE000CDCCCC3E000000002C0000202D000020C8
:100CF0002E00002010B52148007810B9FFF789FFB9
:100D000001E0FFF778FE05211D4804F06AFA04F0BF
:100D10003FFA10BD0278D10902785206120E027015
:100D200002780A4302707047164800684FF4FA715F
:100D3000B0FBF1F201FB1200F0B9002012E0124901
:100D40000978642211FB02F100EB40020C4B1A44BB
:100D50005170002100EB4002995400EB40021A440C
:100D60009170401C0528EADB0748007808B901208B
:100D700000E0002004490870704700000E000020C9
:100D800054070020440400202F000020F0EE400A09
:100D90009FEDFB0A20EE800A7047B0EE401ADFEDAF
:100DA000F91AB0EE610AF848D0ED001A70EEE11AB7
:100DB000B2EE042AF4EEC21AF1EE10FA0ADDC0ED2A
:100DC000000AF2480068401CF04908600020F04921
:100DD000086015E0EC48D0ED001A70EEE11ABAEEAA
:100DE000042AF4EEC21AF1EE10FA09D2C0ED000A9C
:100DF000E7480068401CE64908600020E3490860B5
:100E0000E2480068C82802D90020E2490870E0489A
:100E10000068C82802D90120DE490870DD48007842
:100E2000A0BBDFEDDD1AB4EEE11AF1EE10FA16D236
:100E3000DFEDDA1A61EE211A61EE811A9FEDD82AF0
:100E400042EE011A9FEDD72A71EEC21AB0EE610A86
:100E5000DFEDD51A70EE611AB0EE610A57E0DFEDF2
:100E6000D31A61EE211A61EE811A9FEDD12A42EE6A
:100E7000411A9FEDD02A71EE821AB0EE610ADFEDC1
:100E8000CE1A70EE611AB0EE610A40E0FFE7DFEDC6
:100E9000C21AB4EEE11AF1EE10FA1CD2DFEDBF1A5D
:100EA00061EE211A61EE811A9FEDBD2A42EE011A10
:100EB0009FEDBC2A71EEC21AB0EE610ADFEDBF1AD7
:100EC00070EE611AB0EE610ADFEDB71A70EE611ACA
:100ED000B0EE610A1BE0DFEDB51A61EE211A61EE9A
:100EE000811A9FEDB32A42EE411A9FEDB22A71EEAC
:100EF000821AB0EE610ADFEDB11A70EE611AB0EE3F
:100F0000610ADFEDAD1A70EE611AB0EE610ADFED35
:100F1000AC1AB4EEE11AF1EE10FA05D2DFEDA91A1F
:100F200070EE611AB0EE610ADFEDA71AB4EEE10AC5
:100F3000F1EE10FA02DDDFEDA41A01E0F0EE401A46
:100F4000B0EE610ADFEDA11AB4EEE10AF1EE10FA9B
:100F500002D2DFED9E1A01E0F0EE401AB0EE610A17
:100F60009B48C0ED000A70479A48007801287CD160
:100F70009948007820B1012828D0022825D185E0A1
:100F80009648008800EB800041F2AC7101EBC00094
:100F900000EE100AB8EEC00A914880ED030A4068DE
:100FA00028B990480068401C8E49086002E0002083
:100FB0008C4908608B480068B0F5967F05D3002007
:100FC0008849086001208449087073E08648834995
:100FD000098800EB8100D0ED000A814890ED000AFD
:100FE000B8EEC00A30EE800A7F487C49098800EBE1
:100FF000810080ED000A7D487849098800EB810076
:10100000D0ED000A764890ED050AB8EEC00A30EE41
:10101000800A76487149098800EB810080ED000A5A
:1010200070480068401C6F49086008460068B0F5C9
:101030002F7F2AD3002008600220674908706A4881
:101040006649098800EB810090ED000ADFED680A2F
:1010500080EE201A64486149098800EB810080ED28
:10106000001A62485D49098800E024E000EB810035
:1010700090ED000ADFED5E0A80EE201A5B485749CA
:10108000098800EB810080ED001A13E053480088C6
:101090001E2808DA51480088401C5049088000206A
:1010A0004D49087005E000204A4908704B49088006
:1010B000704700BF00BF00BFFAE770B52DED0A8B87
:1010C00004460D464B4800680F21B0FBF1F201FBCE
:1010D0001200002852D148498988A1F580600BF0A0
:1010E00018F941EC1C0B9FED450B53EC102B0BF04A
:1010F0003BF941EC1B0B9FED430B53EC102B0AF01B
:1011000081FF41EC190B364890ED090A10EE101AD8
:1011100008460BF0E9FB41EC1A0B53EC192B0AF0D3
:10112000C9FE41EC180B0AF093FE2D4948620846AF
:1011300090ED090ADFED350AB4EEE00AF1EE10FA9F
:1011400006DD90ED090ADFED320A30EE600A02E0BA
:10115000234890ED090A224880ED090A90ED090A1A
:10116000DFED2C0AB4EEE00AF1EE10FA54D290ED65
:10117000090ADFED270A30EE200A50E0A3E0000064
:1011800000000C4200000000880100208C010020BB
:1011900090010020800100200040CE45664900BD3E
:1011A000CD8CCE4380C5A5490000FA44CDCC4C3C43
:1011B00066661E43803DF6480000964400007A456E
:1011C00000A0C84500401C4500204B4600204BC6EF
:1011D000840100206A0100206B0100206C010020C6
:1011E000340000207C01002070070020100800203F
:1011F00000002F444404002084060020000000006A
:10120000008046400000000000A084400000E1444F
:10121000000061450000E1C4FE4890ED090AFD4868
:1012200080ED090AFC49C988A1F580600BF071F8CE
:1012300041EC1C0B9FEDF90B53EC102B0BF094F8C9
:1012400041EC1B0B1FED110B53EC102B0AF0DAFED7
:1012500041EC190BEF4890ED030A10EE101A084606
:101260000BF042FB41EC1A0B53EC192B0AF022FE57
:1012700041EC180B0AF0ECFDE649C860084690ED19
:10128000030ADFEDE80AB4EEE00AF1EE10FA02D24A
:101290009FEDE40A02E0DF4890ED030ADD4880EDAF
:1012A000030A90ED030ADFEDE00AB4EEE00AF1EE86
:1012B00010FA02DD9FEDDC0A02E0D64890ED030A49
:1012C000D44880ED030ABDEC0A8B70BD10B5D74839
:1012D0000078012810D0D548007868B9CE48007A47
:1012E000012803D0D24890F8210028B9C9490C310F
:1012F00001F11800FFF7E1FE1FED5E0ACD4880ED19
:10130000000AFFF731FEC34890ED030ADFEDCA0A79
:1013100020EE200AD0ED040A9FEDC81A00EE810AE3
:1013200080ED040AD0ED040A90ED000AB8EEC00A80
:1013300030EEC00ADFEDC20AB4EEE00AF1EE10FAB8
:1013400016DD006800F5005001EE100AB8EEC11A73
:10135000F0EE410AAF4890ED041AB0EE410AB948E8
:1013600008F06EFBBDEEC00AAA4880ED020A39E023
:10137000A848D0ED040A90ED000AB8EEC00A30EE9D
:10138000C00ADFEDB10AB4EEE00AF1EE10FA16D2AF
:101390000068A0F5005001EE100AB8EEC11AF0EE98
:1013A000410A9C4890ED041AB0EE410AA54808F0A5
:1013B00047FBBDEEC00A974880ED020A12E095484F
:1013C00090ED001AB8EEC11AF0EE410A90ED041A41
:1013D000B0EE410A9B4808F033FBBDEEC00A8D48D1
:1013E00080ED020A8B4890ED090A9848D0ED000A7A
:1013F000B2EE041A00EEC10A5FED7C0AB4EEE00A18
:10140000F1EE10FA17DDD0ED001A1FED7F1AB2EEE3
:10141000042A01EE821AF0EE410A7E4890ED091A84
:10142000B0EE410A8A4808F00BFBBDEEC00A7948CD
:1014300080ED080A3EE0774890ED090A8348D0ED38
:10144000000AB2EE041A00EEC10A5FED8E0AB4EE95
:10145000E00AF1EE10FA17D2D0ED001A1FED941A3F
:10146000B2EE042A11EE821AF0EE410A694890EDBC
:10147000091AB0EE410A764808F0E2FABDEEC00A59
:10148000644880ED080A15E0704890ED001AF2EE0D
:10149000041A21EE211AF0EE410A5E4890ED091A75
:1014A000B0EE410A6A4808F0CBFABDEEC00A5948CE
:1014B00080ED080A674890ED091AB1EE411AF0EE86
:1014C000410A544890ED021AB8EEC11AB0EE410A32
:1014D000614808F0B5FABDEEC00A4E4880ED050A35
:1014E0005C4890ED0A1AF0EE410A4A4890ED081A5D
:1014F000B8EEC11AB0EE410A584808F0A1FABDEEA4
:10150000C00A444880ED0A0A90ED031AF0EE410A41
:1015100090ED031AB0EE410AFFF73FFC3D48D0EDD5
:10152000050AF8EEE00A30EE200ABDEEC00A80EDB2
:10153000050AD0ED080AF8EEE00AB0EE600AFFF7FF
:1015400025FC3448D0ED0A0AF8EEE00A30EE200A15
:10155000BDEEC00A80ED0A0A406947F23051884268
:1015600001DD084601E02B4840692A4948610846E8
:1015700040693B49884201DA084601E02548406954
:10158000244948610846806A47F23051884201DDAB
:10159000084601E01F48806A1E4988620846806A42
:1015A0002F49884201DA084601E01A48806A194941
:1015B000886210BD10B52748D0ED0A0AB0EE600A67
:1015C00001F0C1F8214890ED000A01F0A9F8114896
:1015D000D0ED000AF8EEE00AB0EE600A01F08DF8F6
:1015E000FFF774FE10BD01461E4890ED000AF7EEAD
:1015F000000A70EEC00A1C4890ED000AB8EEC00A5E
:1016000060EE800A00EE101AB8EEC00A154890EDA0
:10161000001A2BE0340000208406002000000000A7
:10162000000039400028C3450030DE456801002035
:10163000A8130020C4060020CDCCCC3D6666663FD2
:101640000000804560000020000080C57406002076
:10165000E400002070110020A200002026010020DC
:10166000D08AFFFF780100207001002040EE010ABF
:10167000BDEEE00A334880ED000A0068324A10608F
:10168000304800687047421A00EE902AF8EEE00AEF
:10169000B1EE601ADFED2D1AC1EE210AB0EE001A8C
:1016A00060EE810A9FED2A1A60EE810AB0EE600AB0
:1016B000704770B5024600200021264B1B689342FC
:1016C00002DA244B1B6800E013461A46214B1B6DBF
:1016D000934202DD1F4B1B6D00E013461A460021AA
:1016E00006E01C4B53F83130934200DC02E0491C09
:1016F0000B29F6DB00BF092901DD092300E00B46B9
:101700001946144C4B1C04EBC3035B6804EBC10487
:1017100064681B1B0F4C54F83140A41A63430D4CF2
:1017200054F8315026464C1C56F834402C1B93FB81
:10173000F4F3344604EBC1046468181970BD014623
:101740000020704774010020700100200000004656
:10175000DA0F4940E0C90008B0EE401AF7EE001A6F
:10176000B0EE610AB0F52F7F0AD8B2490978322964
:1017700006DDDFEDB11AF4EEE10AF1EE10FA3AD827
:10178000AE4991F83810012907D10321AC4A1170F4
:10179000DFEDAC1AB0EE610A2DE0A649097801EE42
:1017A000901AF8EE611A70EEE11AF0EE610ADFEDC0
:1017B000A61A9FEDA62A42EE201AB0EE610AF7EEB5
:1017C000001AB4EEE10AF1EE10FA02DDF7EE001AAB
:1017D00001E0F0EE401AB0EE610ADFED9D1AB4EEC2
:1017E000E10AF1EE10FA02D2DFED991A01E0F0EE13
:1017F000401AB0EE610A704710B5FEF722FE0428C9
:101800003CD100BF93480088A0F580609249B1F9AF
:101810000010401A01280CDD8E480088A0F5806079
:101820000A2806DD8D480088401C00B28B490880DC
:101830001FE088480088A0F580608749B1F9001052
:10184000401AB0F1FF3F0DDA82480088A0F58060B1
:1018500010F10A0F06DA81480088401E00B27F4965
:10186000088006E07B480088A0F5806000B27B49D4
:1018700008807A48B0F900007749088010BD10B59B
:10188000FEF7DFFD042817D1002013E09FED740A56
:1018900010EE101A00EB4012724B03EB4202516043
:1018A0009FED710A10EE101A00EB401203EB42029A
:1018B0001162401C0228E9DBFEF7C3FD042801D1B8
:1018C000FFF79AFF6548B0F90000B0F5C87F02DD68
:1018D0004FF4C87002E06148B0F900005F49088029
:1018E0000846B0F9000010F5C87F01DA5F4802E051
:1018F0005A48B0F90000594908800846B0F900007C
:10190000C0EB00105A4988605448B0F900004042CA
:10191000C0EB0010C860084690ED001AB8EEC11A7E
:10192000F0EE410A90ED021AB8EEC11AB0EE410A8B
:101930004C4808F085F8BDEEC00A4D4880ED080A15
:1019400090ED011AB8EEC11AF0EE410A90ED031ABB
:10195000B8EEC11AB0EE410A4248423008F070F8C1
:10196000BDEEC00A424880ED090A0246116A00290C
:1019700001DB0A4600E04A423D4C606A002801DB78
:10198000044600E0444213193A48008901EE100A67
:10199000B8EE411AF0EE410A364890ED011AB0EE69
:1019A000410A1846FFF7D8FE334880ED000A304858
:1019B00090ED080AB8EEC00A2F48D0ED000A60EE9C
:1019C000202A2B4890ED090AB8EEC00A2A48D0ED2B
:1019D000000A20EE203ABDEEE20A254880ED080A12
:1019E000BDEEC30A80ED090A006A42F21071884216
:1019F00002DD08461E4908621D48006A1F498842E8
:101A000002DA08461A4908621948406A42F210711F
:101A1000884202DD0846164948621548406A17495F
:101A2000884202DA08461249486210BD10B5FFF735
:101A300026FF10BD68020020000048421803002065
:101A4000690200209A99193FCDCCCC3D8FC2F53B5D
:101A5000CDCC4C3D840600206C0200205A020020B0
:101A60000AD7A33C9401002000C8AF4770FEFFFFD7
:101A7000B00800201013002064020020F0D8FFFFFF
:101A8000E148B0F90000E049B1F90810401A022815
:101A900012DADD480088401C00B2DB4908800846A5
:101AA000B0F9000000EE100AB8EEC00A084680ED5A
:101AB000010AD6480068C860704710B50446D4488B
:101AC0000078012847D101F006FDD2490870084688
:101AD000007801282DD1207801282AD1CE48007A1B
:101AE000032809D0CD480078032805D1CA48407A98
:101AF000022801D1FFF7C4FFC44800685021B0FBA1
:101B0000F1F201FB1200A0B9C348007A032810D0FB
:101B1000C148407A02280CD1BF494988A1F58060AC
:101B2000002801DB014600E04142642901DDFFF7A6
:101B3000A7FFB948007A03280DD0B84800780328D9
:101B400009D1B548407A012805D1207808B901208B
:101B500000E000202070B048407AB049087010BD05
:101B600010B5AF48FFF7A9FFA748B0F9000000EE95
:101B7000100AB8EEC00ADFEDAB0A20EE200AA24838
:101B800080ED050A10BD10B5FEF75BFC052802D0FC
:101B90000120A5490860A2480078012803D115203A
:101BA00001F0DCF802E0002001F0D8F8FFF7D8FFE0
:101BB000954890ED050ABDEEC00A9C4880ED050AE7
:101BC00090ED001AB8EEC11AF0EE410A90ED051A38
:101BD000B8EEC11AB0EE410A954807F031FFBDEEEC
:101BE000C00A10EE100A00B290490883914800889C
:101BF000C0F57A708A4909784843C0F57A708E49F1
:101C000008808A48B0F9100001EE100AB8EEC11A37
:101C1000F0EE410A8548B0F9180001EE100AB8EE5E
:101C2000C11AB0EE410A854807F00AFF7F4880EDEF
:101C3000070A10BD10B503467748007C012807D17C
:101C400032B9724800887E4C208000207D4C207084
:101C5000581A002801DB044600E04442022C0EDA48
:101C6000784C2478012C0AD00120764C20706748EB
:101C70000088754C208072480088744C208072481F
:101C80000088724C2488001B80B210BD14205E496D
:101C900008830A215C48817670477047704710B509
:101CA0000B684A69D21A6A4B1A601C462368002BDB
:101CB00001DB1C4600E05C42062C0CDDB1F9102073
:101CC000002A01DB144600E054420A2C03DA426A7F
:101CD000521C426201E000234362426A642A07D92F
:101CE00090F8202022B9012280F82020594B1A7048
:101CF00090F82020012A40D1564A1278012A04D0B7
:101D0000022A11D0032A37D124E00A68323A524B12
:101D10001A601A4692ED000AB8EEC00A80ED050A74
:101D200002224C4B1A7027E04B4A92ED000AB8EEA3
:101D3000C00A80ED050A14460B6824681A1B002AA5
:101D400001DB134600E05342282B02DA0322414B09
:101D50001A7011E0002280F820203E4B1A70028990
:101D60000280B0F9002000EE102AB8EEC00A80ED23
:101D7000010A0023436200BF00BF10BD10B5137BF2
:101D8000D47A43EA04231BB28B80947B537B44EACE
:101D900003231BB20B828B898C881B1B1BB2CB814C
:101DA000B1F90E30B3F5805F04DD8B6803F50053A5
:101DB0008B6008E0B1F90E3013F5805F03DA8B68B1
:101DC000A3F500538B60B1F904408B68234400EE07
:101DD000103AB8EEC00ADFED210A80EE201ABDEEFF
:101DE000C10A81ED000A8B888B8191ED000AB8EE63
:101DF000C00ADFED0C0A80EE201ABCEEC10A10EE1C
:101E0000103A1BB2038110BDD80800204404002002
:101E1000FD020020FC020020840600200D030020AB
:101E2000F4020020BC749341B40243420009002034
:101E300070020020F6020020F8020020B20200200A
:101E40000A030020040300200803002006030020EA
:101E500010030020140300200003002000007A4437
:101E600001884FF6FE72914202DA0188491C018016
:101E70007047002101807047034602EB820040005A
:101E8000984202DA0120087001E00020087008780A
:101E90007047494931F81010491C8AB2464921F867
:101EA0001020704700200AE0434931F810201A3909
:101EB00021F8102000221A3121F81020401C0D2892
:101EC000F2DB704710B53D4800684FF47A71B0FB03
:101ED000F1F201FB120008B9FFF7E4FF002411E062
:101EE0003549423901EB4400FFF7BAFF324B5C3B06
:101EF00033F81420343319191A3B33F81400FFF760
:101F0000BBFF641C0D2CEBDB2D480078012823D18E
:101F100029485C3890F83500012809D12748006825
:101F2000B0F5FA6F04D901202649086026490880D7
:101F3000FEF787FA05280FD008200BE01E49283944
:101F4000095C012905D1891E1E4A116001B21E4A91
:101F50001180401C0C28F1DD17485C3890F83600E1
:101F6000012815D1FEF76DFA012806D0FEF769FAAF
:101F700018B1FEF766FA022803D10320FEF7E8F94C
:101F800006E0FEF75EFA052802D00520FEF7E0F92C
:101F90000E49C97C61B90D49897C49B90B49B1F930
:101FA0000A00002801DB014600E04142032902DD6E
:101FB00000200349087010BD740300204404002071
:101FC0008E0300209403002090030020840600204C
:101FD000704770B52DED088B04469FEDFD0AB0EEFD
:101FE000408A00EE104AB8EEC00ADFEDFA0A80EE31
:101FF000201A11EE105A28460AF076FC41EC1B0B11
:10200000B0EE4B0AF0EE6B0A08F052FFB0EE40AAB9
:10201000F0EE60AA9FEDF00B53EC102B51EC1A0B75
:102020000AF0A2F941EC190B09F012FF08EE100AB0
:10203000EB4880ED008AB2EE080AB4EEC08AF1EEF9
:1020400010FA02DDB2EE080A01E0B0EE480AB0EE86
:10205000408ABAEE080AB4EEC08AF1EE10FA02D253
:10206000BAEE080A01E0B0EE480AB0EE408AB0EEDF
:10207000480ABDEC088B70BDDA4A01FB012300EE73
:10208000903A01EE902AF8EEE11AB8EEE02AC1EE9D
:10209000822AB0EE621ADFEDCE1AB0EE610A01EECE
:1020A000900AF8EEE11A61EE811A9FEDCA2AC1EE9C
:1020B000822AB0EE620ADFEDCC1A60EE211AB0EE91
:1020C000610A704730B52DED108B81B00446B0EE3B
:1020D000408AB2EE000AB4EEC08AF1EE10FA03DDD7
:1020E000B2EE000AB0EE408A9FEDC00A38EE400A18
:1020F000B0EE408A94ED000ADFEDBD0A30EEC00A72
:10210000DFEDBC0A20EE20FA1FEE100A0AF0ECFB0D
:1021100041EC1A0BB0EE4A0AF0EE6A0A09F05CF9DB
:10212000B0EE409AF0EE609A51EC190B09F090FE77
:1021300008EE900A9FEDA60A8DED000A9FEDA40A15
:10214000F0EE40FA1FEE100A0AF0CEFB41EC1B0B3A
:102150009FEDA90A68EE000AB7EE000A08EEE80A49
:1021600020EE800AA548D0ED000A08EEE00AD0ED86
:10217000000A80EE201A11EE105A28460AF0B4FB2D
:1021800041EC1E0BB0EE4E0AF0EE6E0A08F048FC71
:10219000B0EE40DAF0EE60DA51EC1D0B09F04CFEC7
:1021A00041EC1C0B53EC1B2B09F084FE41EC1A0B89
:1021B0009FED930B53EC102B0AF0D6F841EC190B62
:1021C00009F046FE00909DED000ADFED8F0A20EE3B
:1021D000200AF0EE40FA9FED8D0A2FEE800A9FED67
:1021E0008C1AC0EE010A9FED820A30EE600A84ED7F
:1021F000000AB0EE6F0A01B0BDEC108B30BD014695
:102200004F2901DD4F2200E00A461146814A12881B
:10221000521A10B2002802DA00F1500200E0024621
:1022200010B27D4A02EB800292ED000A704701462F
:102230004F2901DD4F2200E00A461146774A1288F5
:10224000521A10B2002802DA00F1500200E00246F1
:1022500010B2734A02EB800292ED000A70473CB55F
:102260000146DFED700AB4EEE00AF1EE10FA03DD8C
:10227000DFED6C0AB0EE600ADFED6B0AB4EEE00A47
:10228000F1EE10FA03D2DFED680AB0EE600A2D29F4
:1022900000DD2D2111F12D0F01DA6FF02C0100204E
:1022A00006E0624A32F810202DF81020421CD0B20D
:1022B0000228F6DBADF80410002226E000201EE024
:1022C0003DF91040431C3DF913309C4215DA3DF9AD
:1022D000103001EE103AB8EEC11AF0EE410A431C7C
:1022E0003DF813302DF81030BDEEE01A11EE103A23
:1022F0001CB2431C2DF8134000BF431CD8B2C2F1DE
:1023000002038342DCDC501CC2B2022AD6DBBDF9D8
:10231000020000EE900AF8EEE00A4548C0ED000A1F
:102320004448D0ED000AB6EE001A60EE810A40483B
:1023300090ED001AF6EE001A41EE210A3D48C0ED7C
:10234000000AD0ED000AB2EE041A60EE810AFDEE3A
:10235000E00A10EE900A00B2374A10803548D0EDFE
:10236000000AB2EE041A60EE810AFDEEE00A33487C
:10237000C0ED000A2F48D0ED000A70EE800A304808
:10238000C0ED060AD0ED060AB2EE041A60EE810A2C
:10239000FDEEE00A2B48C0ED000A2948D0ED070AFF
:1023A000B5EE001A60EE810A90ED061AF6EE081AF4
:1023B00041EE210AC0ED070AD0ED070AB2EE041A79
:1023C00060EE810AFDEEE00A1F48C0ED000A3CBD48
:1023D000000000000080B6440000006066A64C408B
:1023E0009803002090862000000066429A99193ECA
:1023F00000E8E0458010493ACDCC1C41A8030020FC
:10240000000000000000E03F33336542000000465A
:102410000000B443CA03002020090020CC030020A0
:10242000600A002000003442000034C2E4030020AF
:10243000D8030020EC030020D0030020B4030020C8
:10244000A8130020B8030020BC0300200146632924
:1024500001DD632200E00A461146FE4A1288521A44
:1024600010B2002802DA00F1640200E0024610B265
:10247000F94A02EB800292ED000A704770B52DED2B
:102480000A8B05460C46F54890ED000A20EE000A3E
:10249000F34880ED000AF34890ED0A0AF2EE040AD0
:1024A00020EE200ABDEEC00AEF4880ED000AEF489A
:1024B00090F83900012803D10020ED4948700870D8
:1024C000EC48007A02280ED1E948007801280AD1A8
:1024D000E748408840F2EE21884204DC0120E449CC
:1024E00081F8210003E00020E14981F82100E04863
:1024F0000078012809D1E0480078142808DADE487D
:102500000078401CDC49087002E00020DA490870BD
:10251000D74991F820104800FFF798FFD44880ED84
:10252000050A90ED050AF2EE040A20EE200ABDEE3F
:10253000C00AD24880ED000ACD4A1289A2F2DE32EA
:1025400011B2CB4AB2F91000FFF796FDCC4880EDEE
:10255000000AC948007803280FDDC548D0ED050AF8
:10256000B0EE600AC648D0ED000AFDEEE00A10EEBB
:10257000900A00B2FFF773FE04E000201FED6C0A22
:10258000FFF76DFEBC4800780A2810DABA480078D8
:1025900000EE100AF8EE400AB2EE041A80EE810A4C
:1025A000B348D0ED070A20EE200A80ED070AB048B4
:1025B00090F8210001287BD1AD48408800EE100A38
:1025C000B8EE400AF2EE020A80EE801A11EE106AAE
:1025D00030460AF089F941EC1C0BB0EE4C0AF0EEE3
:1025E0006C0A08F065FCB0EE40BAF0EE60BA9FED00
:1025F000A50B53EC102B51EC1B0B09F0B5FE41EC75
:102600001A0B09F025FC08EE100A0C20FFF70FFE4C
:10261000F2EE040A20EE200AF0EE408A944991F886
:102620002000FFF7ECFDB0EE409A91490989A1F234
:10263000DE3108B2FFF7CDFCB2EE041AF0EE680A04
:1026400040EE010A30EEC80A85ED000A8849498942
:10265000A1F23A2108B2FFF7BCFC5FED940A60EEEC
:10266000200A1FED951A80EE810A39EE400A84EDAA
:10267000000A7F4890ED010ADFED840A80EE201AFF
:10268000F0EE419AB0EE690A2046FFF71BFD804844
:1026900080ED000A7648408894ED000ADFED7D0A5F
:1026A000B4EEE00AF1EE10FA03DD9FED7A0A02E0E3
:1026B00020E094ED000A84ED000A94ED000ADFEDBD
:1026C000760AB4EEE00AF1EE10FA02D29FED720A39
:1026D00001E094ED000A84ED000A95ED000A6F48D0
:1026E000D0ED000AB2EE041A00EEC10A6C4880ED8B
:1026F000000A00BFBDEC0A8B70BD6A486A490988B0
:1027000000EB810080ED000A67480088401C6649A4
:10271000088008460088502801DB002008807047A8
:1027200062486349098800EB810080ED000A604837
:102730000088401C5E49088008460088502801DB5C
:1027400000200880704744484249098800EB810016
:1027500080ED000A3F480088401C3E49088008463A
:102760000088642801DB002008807047B0EE401A22
:10277000DFED502AB0EE620ADFED4F2AF4EEE20AF6
:10278000F1EE10FA03DDDFED4C2AF0EE620ADFED28
:102790004B2AF4EEE20AF1EE10FA03D2DFED472AFB
:1027A000F0EE620AF1EE042AB4EEE21AF1EE10FA4B
:1027B00028DDDFED432A31EE623ADFED422AF3EE07
:1027C000043A43EE632AB0EE620AF2EE0E2AB4EE49
:1027D000E20AF1EE10FA02D2F2EE0E2A01E0F0EE79
:1027E000402AB0EE620ADFED372AB4EEE20AF1EEDB
:1027F00010FA02DDDFED332A01E0F0EE402AB0EE00
:10280000620A03E0DFED2B2AB0EE620AF1EE022A43
:10281000B4EEE21AF1EE10FA03DDF1EE022AB0EEA8
:10282000621A0E4991ED003AC1EE032A9FED263A55
:1028300032EE832A60EE821AF4EEC01AF1EE10FA3C
:1028400001DDF0EE401AF1EE402AF4EEE21AF1EE6C
:1028500010FA3BE0CE030020A00B0020A4030020D0
:10286000A803002070110020C003002018030020DE
:10287000A813002084060020C8030020AC03002019
:10288000B00300200000000000E881400000C842C2
:102890009C0300200008E4450008B24574060020AF
:1028A000C403002020090020CA030020600A002081
:1028B000CC0300200000A0420000FA430000FAC34D
:1028C000CDCC4C4000008C42CDCCCC3E03D2F1EEBE
:1028D000402AF0EE621AD0ED002A72EEA12AC0ED75
:1028E000002A704770B52DED068B0446B0EE408A85
:1028F00000EE104AB8EEC00AC8EE000A10EE906A68
:10290000304609F0F1FF41EC1A0BB0EE4A0AF0EE46
:102910006A0A08F0CDFAB0EE409AF0EE609A51ECF7
:10292000190B09F0C7FC051E01DB284600E06842D0
:1029300000EBC00101EB001000EE100AF8EEC08AB7
:10294000B0EE680ABDEC068B70BD2DE9F0412DEDAF
:102950000A8BB0EE408A04460D460027642104FB32
:1029600001F0C11700EB11710911491D09EE901A10
:1029700000EE105AB8EEC00ADFEDB30A80EE201A5E
:1029800011EE106A304609F0AFFF41EC1C0BB0EEBF
:102990004C0AF0EE6C0A08F08BFAB0EE40BAF0EE9A
:1029A00060BA9FEDAA0B53EC102B51EC1B0B09F0F6
:1029B000DBFC09F04DFA08EE900AB8EEE90A20EEC9
:1029C000080ADFEDA40A80EE201AB0EE419A202C0E
:1029D0002FDD292C16DDBDEEC80A10EE100A0028E6
:1029E00001DB014600E041424FF47A7202EB8102C2
:1029F000A4F1280101EB810102EB011109B2964A11
:102A0000118055E0BDEEC80A10EE100A002801DB67
:102A1000014600E041424FF4167202EB4102A4F17C
:102A2000140101EB810102EBC10109B28A4A118054
:102A30003EE0BDEEC80A10EE100A002801DB014698
:102A400000E04142282903DA4FF496708249088059
:102A5000BDEEC80A10EE100A002801DB014600E0B6
:102A600041423C2904DA4FF4FA707B4908801FE0A8
:102A7000BDEEC80A10EE100A002801DB014600E096
:102A80004142822904DA4FF42F70734908800FE025
:102A9000BDEEC80A10EE100A002801DB014600E076
:102AA00041424FF42F7202EB410109B26A4A118090
:102AB000282C00DD2824B2EE040A28EE800ABDEEA0
:102AC000C00A10EE100A00B264490880B2EE040A8F
:102AD00029EE000ABDEEC00A10EE100A00B26049ED
:102AE000088039EE280AF2EE040A20EE200ABDEE34
:102AF000C00A10EE100A00B25A4908809FED5A0A27
:102B00002046FFF7EFFE79EE280AFDEEE00A10EE10
:102B1000906A002E01DB304600E0704200EE900A21
:102B2000F8EEE00AB4EEE00AF1EE10FA39DD4F48B3
:102B30000078401C4D49087008460078322801DDB5
:102B4000322008704948007802282DDD4849D1ED2F
:102B5000030A91ED000AB8EEC00A30EEC00ABDEEDD
:102B6000C00A10EE100A002801DB014600E04142D5
:102B7000172919DA3F4991F83910A9B93E4991ED61
:102B8000070ABDEEC00A10EE100A002801DB01465C
:102B900000E04142B1F5CD7F06DA2E2C04DC01279E
:102BA00002E00020314908703846BDEC0A8BBDE8D0
:102BB000F08110B5304890F82100012813D12E4A39
:102BC0001289A2F2DE3211B22B4A528810B22A4A7E
:102BD000D2ED060AB0EE600AFFF7B7FE012800D179
:102BE00010BD0020FCE70020FAE70022214890F801
:102BF000390028BB204B5B89A3F23A21002901DB75
:102C00000B4600E04B421E2B1BDA1B4B1B89A3F229
:102C1000DE30002801DB034600E04342052B10DADA
:102C2000154991ED060ABDEEC00A10EE100A002803
:102C300001DB014600E04142282902DA012200E0DE
:102C4000002210467047000066E6E744000000607E
:102C500066A64C4000401C46E2030020E003002032
:102C6000DE030020DC0300203333B33EF0030020FA
:102C70003400002018030020A8130020282801DABF
:102C8000282200E00246104640F65A22904200DD1B
:102C900000E0024610462F4AB2F90020904208D1C7
:102CA0002C4A1288821A02EB420212B22A4B1A8074
:102CB0004EE0284AB2F90020904220DD254A1288D1
:102CC000821A02EB420212B2234B1A801A46B2F960
:102CD0000020322A01DA322202E01F4AB2F9002033
:102CE0001D4B1A801A46B2F900208A4201DD0A46BD
:102CF00002E0194AB2F90020174B1A8028E0154A61
:102D0000B2F90020904223DA124A1288821A02EBAA
:102D1000420212B2104B1A801A46B2F9002012F188
:102D2000320F02DD6FF0310202E00B4AB2F90020EF
:102D3000094B1A801A46B2F900204B429A4201DA36
:102D40004A4202E0044AB2F9002012B2024B1A8051
:102D500070470000D20600205A020020102803D13C
:102D60001021254A118014E0152803D11521224A8B
:102D700011800EE0192803D119211F4A118008E0A3
:102D80001C2803D11C211C4A118002E000211A4A90
:102D900011801949098809B2184A11801649098811
:102DA00001EB81014FF47A7202EB4101091D124AD5
:102DB0009180114609899288891A012905DB0E49FB
:102DC0000989491E0C4A11810AE00B4909890A4AFE
:102DD0009288891A04D508490989491C064A118133
:102DE00005490989064A116003490989121D1160C4
:102DF0007047014670470000F203002000040020E5
:102E0000340C004010B50446012C04D0022C24D010
:102E1000032C6AD145E0F748007801280FD14FF420
:102E2000A0714FF4FA70FFF729FFF348B0F90000E2
:102E3000B0F5DC7F10DD0020EE4908700CE04FF4A7
:102E4000A0710020FFF71AFFEB48B0F900004628F8
:102E500002DA0120E749087047E0E84800780128D5
:102E60000FD14FF4A0718800FFF708FFE248B0F9D6
:102E7000000040F2C441884212DD0020DF490870A2
:102E80000EE04FF4A0714FF4FA70FFF7F7FEDA4846
:102E9000B0F90000B0F50C7F02DA0120D7490870C4
:102EA00023E0D748007801280FD14FF4A07140F2F9
:102EB000CC60FFF7E3FED048B0F90000B0F5D26F68
:102EC00012DD0020CE4908700EE04FF4A07188009A
:102ED000FFF7D4FEC848B0F9000040F23C518842E8
:102EE00002DA0120C649087000BF00BF10BD0146CC
:102EF000B1F5FA7F01DC01207047B1F5A06F01DC6C
:102F00000220F9E70320F7E710B5BE480078BE4974
:102F10000870BE4800684FF4FA71B0FBF1F201FB93
:102F20001200A8BBBA480088002804DDB848008811
:102F3000401EB7490880B7484088B0F5C87F0EDB0F
:102F4000B4484088B4490988081A1E2803DB0120C8
:102F5000B249087011E00020B04908700DE0AD489A
:102F60004088AD490988081A142803DB0120AB49C1
:102F7000087002E00020A9490870A54800880028D0
:102F800002DD0020A5490870A2484088A2490880B7
:102F9000A3480078052874D2DFE800F0034D606193
:102FA0009600A0209F4908709F480078012810D102
:102FB0004FF48C714FF4A060FFF760FE8E48B0F9BB
:102FC000000040F2CE41884210DD00209649087092
:102FD0000CE04FF48C710020FFF750FE8648B0F9EA
:102FE0000000322802DA01208F49087085480078F5
:102FF000012810D18348408840F2EE2188420ADC43
:103000000120874908708848007808B9012000E04D
:103010000020854908708148007801280AD10320E2
:103020007F4908708048007808B9012000E000203E
:103030007D49087085E000207C4908807C48006854
:10304000B0F5487F02D900207549087073480078B0
:10305000012802D103207249087072E071E07548BE
:10306000006875490968884219D06348B0F90000C2
:10307000FFF73DFF0246012A04D103206F49087083
:1030800009E05DE0022A03D101206C49087002E0EA
:1030900002206A49087000206949086000BF67483B
:1030A0000078FFF7AFFE66480068401C644908607E
:1030B00008460068B0F57A5F05D9002008605849D5
:1030C00008705A4908803CE05E480068401C5D4931
:1030D00008605A20534908704FF4C8710020FFF768
:1030E000CDFD5148007801280FD14FF4C87140F24E
:1030F000CC60FFF7C3FD4048B0F90000B0F59B6F0E
:1031000010DD0020484908700CE04FF4AF7100203A
:10311000FFF7B4FD3848B0F90000282802DA012092
:103120004149087047480068B0F5FA6F07D300209E
:10313000444908603A49087001204349087000E09A
:1031400000BF00BF4048007801280CD14FF6E8606E
:10315000364908803D48007810B13D48007810B9E4
:10316000002039490870384890F90000401C60B9C7
:103170004FF48C702D4908803448007810B13448E1
:10318000007810B90020304908703048007838B90C
:103190002F480078012803D14FF4A07023490880FC
:1031A0002B48007838B929480078012803D14FF618
:1031B000C0601E4908802748007810B1012875D1E9
:1031C00094E01048007801284AD10E48408840F227
:1031D000EE21884244DC01201E4908701E4890ED13
:1031E000000AF2EE040A20EE200A1C4880ED090ACB
:1031F00071E0000034040020D206002035040020D5
:1032000036040020A81300201404002044040020E9
:103210000C040020FC1200201E04002004040020E6
:1032200002040020680200201C0400205A02002032
:1032300010040020180400200804002024040020AA
:1032400020040020280400200E040020D4060020C2
:10325000D50600200304002074060020340000205E
:103260004A48D0ED000A9FED4A0AB2EE041A00EE79
:10327000810A484880ED090A4748007810B10128C2
:1032800028D114E09FED450A424880ED030A4448E6
:103290000068401C4249086008460068FA2804D9C2
:1032A0000020086001203C49087013E05BE09FEDBE
:1032B0003D0A384880ED030A3B480068401C3A4903
:1032C000086008460068FA2803D9002008603249DF
:1032D000087000BF00BFB420344948614042086113
:1032E000962033494861404208613CE050202F4914
:1032F00048614042086164202D49486140420861AC
:103300002C480078012809D12A48408840F2EE2153
:10331000884203DC00202849086004E02648006851
:10332000401C2549086024480068B0F5487F02D950
:10333000002022490870224800685021B0FBF1F2B9
:1033400001FB120070B91C480068B0F5C87F09D2B3
:1033500000F0C1F8012805D11A480078012801D1F0
:10336000FEF78EFB00BF00BF1748006817490860D2
:1033700010BD21B9144A1268521C134B1A6003295C
:1033800002D10422124B1A807047000074060020FC
:1033900000002543340000201D04002000E0DD452E
:1033A0002C0400200030C04530040020A200002082
:1033B00026010020A8130020100400200304002090
:1033C00044040020F4020020080400201804002017
:1033D0000C040020614800886149098888420CD0AB
:1033E0005E48D0ED010A5F48D0F8020000EE100AF6
:1033F00030EE800A594880ED010A4FF4F0705749C9
:103400000881594800686E21B0FBF1F201FB1200FF
:10341000F0BB5248D0ED010A0089400000EE100ACE
:10342000B8EEC00AF4EEC00AF1EE10FA09DD4B481E
:103430000089400000EE100AB8EEC00A474880ED4F
:10344000010A464890ED010AF3EE000A30EE600AE8
:1034500080ED010A90ED010AB5EEC00AF1EE10FA16
:1034600002D29FED420A02E03C4890ED010A3B483F
:1034700080ED010A3E48408900EE100AB8EE400A8D
:103480003648D0ED010A30EE600AF2EE040A00E0A0
:1034900016E0B4EEE00AF1EE10FA08DB3448408999
:1034A00000EE100AB8EE400A2C4880ED010A2B48C5
:1034B00090ED010ABCEEC00A10EE100A2D490880FA
:1034C0002648008826490880704724480088401C08
:1034D000224908807047284890F8380020BB1F48D0
:1034E00090ED010ADFED250A70EEC00A2448B0F91C
:1034F0000000400000EE100AB8EEC00AF4EEC00A68
:10350000F1EE10FA01DD012070471E4800891D49C7
:1035100008800846B0F9000000EE100AB8EEC00AB4
:10352000084680ED010A16E01548B0F90000A02316
:1035300093FBF0F0401E01B24FF47A7090FBF1F073
:1035400002B21048C068084B1B68181A904201D399
:103550000120D9E700BF0020D6E70000300D002091
:103560003A040020AD0600204404002000000000C2
:103570001013002038040020180300200000F0433E
:1035800000040020D808002010B54FF4A06002F01D
:1035900017F8A82000F074F900F04CFA00F0F2F9E6
:1035A00000F0DBFA642000F0CDF9002000F0F6FA1C
:1035B000012000F0F3FA022000F0F0FA032000F0FE
:1035C000EDFA00F037F800F0C7F805F017F9002120
:1035D000084600F044FD04462146092000F0E8FCBE
:1035E00000F090FB00F0F6FA00F05CFD0F4800F0F0
:1035F00079FE4FF4E13001F0F1FA4FF47A3001F046
:103600003BFE4FF4E13001F067FC00F0A9FD05F04E
:1036100080FB00F011FE4FF47A7000F093F900F097
:103620002EFE01200249087010BD0000A086010096
:103630003C04002000B58BB00121082003F023FAE0
:103640000121480603F066FA0121480603F0B7FAA3
:1036500000214FF0007003F0B2FA0320099002201D
:103660008DF8280000208DF82A0003208DF829000D
:1036700001208DF82B0009A9354802F063FF0922CB
:103680000021334802F0E9FF09220121304802F00D
:10369000E4FF00208DF81E0001208DF81F0000209F
:1036A0008DF820008DF821008DF822008DF8230080
:1036B0008DF81A008DF81B0008208DF81C000320DF
:1036C0008DF81D00ADF8180006A9224802F001F897
:1036D00000208DF812008DF8130001208DF81400E1
:1036E0000020ADF80800ADF80A00ADF80C00ADF808
:1036F0000E00ADF8100001208DF8150002A802F0B0
:1037000072F801220221134802F06CFB14208DF89C
:10371000040001208DF8050000208DF8060001202E
:103720008DF8070001A801F050FF0BB000BD00B5F7
:1037300085B00221074802F0BDFB30B102210548E7
:1037400002F053FC684604F0D5FD05B000BD000052
:10375000000C02400064004000B58BB00121022043
:1037600003F091F90121880603F0D4F901218806BC
:1037700003F025FA00214FF0806003F020FA4FF4A7
:103780004050099002208DF8280000208DF82A0072
:1037900003208DF8290001208DF82B0009A9364857
:1037A00002F0D0FE09220C21334802F056FF092214
:1037B0000D21314802F051FF00208DF81E0001203C
:1037C0008DF81F0000208DF820008DF821008DF865
:1037D00022008DF823008DF81A008DF81B000820B8
:1037E0008DF81C0003208DF81D00ADF8180006A907
:1037F000224801F06EFF0E208DF8120000208DF897
:10380000130001208DF814000020ADF80800ADF879
:103810000A00ADF80C00ADF80E00ADF81000012064
:103820008DF8150002A801F0DEFF012202211348E5
:1038300002F0D8FA40208DF8040001208DF8050030
:1038400000208DF8060001208DF8070001A801F086
:10385000BCFE0BB000BD00B585B00221074802F0E8
:1038600029FB30B10221054802F0BFFB684604F095
:103870002CFF05B000BD00000004024000680040BD
:1038800010B504466FF0040001F0ECFEE11704EB04
:103890005171C1F3C701394A11701046007800EB2D
:1038A0004001C1EBC0104FF6FF7101EAC00034497E
:1038B000088010BD0146314A12784A434FF0E02398
:1038C0005A6100229A611A46126942F001021A6195
:1038D00000BF4FF0E022106900F001021AB100F4BD
:1038E0008032002AF5D04FF0E022126922F0010266
:1038F0004FF0E0231A6100229A6170470146204A86
:1039000012884A434FF0E0235A6100229A611A4616
:10391000126942F001021A6100BF4FF0E022106903
:1039200000F001021AB100F48032002AF5D04FF005
:10393000E022126922F001024FF0E0231A61002216
:103940009A61704770B504464FF4077094FBF0F02D
:10395000C6B24FF4077094FBF0F100FB114085B242
:1039600005E04FF40770FFF7C9FF701EC6B2002EC6
:10397000F7D115B12846FFF7C1FF70BD3E04002006
:10398000400400201CB50121402003F07CF84FF4D6
:103990000050009001208DF8040000208DF80600F2
:1039A00003208DF805006946044802F0CBFD4FF472
:1039B0000051024802F044FE1CBD00000018024005
:1039C0001CB50121402003F05EF84FF4FF70009019
:1039D00001208DF8040000208DF8060003208DF8EA
:1039E000050001208DF8070069464F4802F0AAFD46
:1039F00002214D4802F022FE04214B4802F01EFE37
:103A00000821494802F01AFE1021474802F016FE2C
:103A10002021454802F012FE4021434802F00EFEEC
:103A20008021414802F00AFE4FF480713E4802F0C6
:103A300005FE1CBD1CB50121102003F024F8012156
:103A4000202003F020F84FF40060009001208DF852
:103A5000040000208DF8060003208DF805000120E9
:103A60008DF807006946314802F06CFD4FF4804044
:103A7000009001208DF8040000208DF8060003203E
:103A80008DF8050001208DF807006946284802F0EE
:103A900059FD01202749086000202749C1F8AC02E0
:103AA000FFF78EFF1CBD10B5014601200AE0421E43
:103AB00041FA02F202F00102204C04EB8003C3F849
:103AC0008022401C0928F2DB10BD30B504460025D9
:103AD000082C01DD082000E02046044614F1080F00
:103AE00002DA6FF0070000E020460446002C09DBF4
:103AF000002004E0012181402943CDB2401CA042B6
:103B0000F8DB0BE0002006E0C0F108020121914043
:103B10002943CDB2401C61428842F5DBE843C5B27F
:103B20002846FFF7C0FF30BD0018024000100240D9
:103B300000140240B8824242000042420000434268
:103B400010B50446032C00DD10BD0420A04081B256
:103B50001F4802F075FD00BFF6E71CB5012180206B
:103B600002F091FF3C20009001208DF8040000201D
:103B70008DF8060003208DF8050001208DF8070060
:103B80006946134802F0DEFC002404E02046FFF7FB
:103B9000D7FF601CC4B2042CF8DB1CBD10B5044672
:103BA000032C00DD10BD0420A04081B2084802F0C3
:103BB00045FD00BFF6E710B50446032C00DD10BD3F
:103BC0000420A04081B2024802F043FD00BFF6E7A6
:103BD000001C024000B58BB00121802002F053FF91
:103BE0000121080202F04FFF0121082002F092FF9C
:103BF0004FF4E050099002208DF8280003208DF842
:103C0000290009A9E24802F09DFC01200990022048
:103C10008DF8280003208DF8290009A9DD4802F05D
:103C200091FC02220A21DA4802F017FD02220B2140
:103C3000D74802F012FD02220C21D54802F00DFDFA
:103C400002220021D34802F008FD5320ADF81800ED
:103C50000020ADF81A0042F20F7007900020ADF876
:103C6000200006A9CC4803F04EFB7020ADF80400FC
:103C70000120ADF806000020ADF808004FF4FA600E
:103C800003900220ADF810000020ADF81200ADF84E
:103C900014004FF48070ADF8160001A9BE4803F07F
:103CA000C7FB01A9BC4803F0FCFB01A9BA4803F01B
:103CB00045FC01A9B84803F0A7FC0821B64803F069
:103CC00044FD0821B44803F049FD0821B24803F03F
:103CD00052FD0821B04803F057FD0121AE4803F022
:103CE0007DFB0121AC4803F097FB4FF47A70AA49A1
:103CF00034310860091D0860091D0860091D08604D
:103D00000BB000BD00B58BB00121082002F0BBFE56
:103D10000121042002F0FEFE4FF4704009900220C1
:103D20008DF8280003208DF8290009A99B4802F08E
:103D300009FC02220C21994802F08FFC02220D217D
:103D4000964802F08AFC02220E21944802F085FC7B
:103D500002220F21914802F080FC5320ADF8180098
:103D60000020ADF81A0042F2107007900020ADF864
:103D7000200006A98A4803F0C6FA7020ADF80400B6
:103D80000120ADF806000020ADF808004FF47A706D
:103D900003900220ADF810000020ADF81200ADF83D
:103DA00014004FF48070ADF8160001A97C4803F0B0
:103DB0003FFB01A97A4803F074FB01A9784803F09E
:103DC000BDFB01A9764803F01FFC0821744803F0ED
:103DD000BCFC0821724803F0C1FC0821704803F0C4
:103DE000CAFC08216E4803F0CFFC01216C4803F0A7
:103DF000F5FA01216A4803F00FFB4FF47A70684925
:103E000034310860091D0860091D0860091D08603B
:103E10000BB000BD00B58BB00121080202F033FEEB
:103E20000121802002F02FFE0121082002F02BFE4C
:103E30000120019002208DF8080003208DF8090070
:103E400000208DF80A0001208DF80B0001A95148CF
:103E500002F078FB4FF4E050019001A94C4802F0C9
:103E600071FB4FF48050019001A94C4802F06AFBAD
:103E700002220021474802F0F0FB02220C214448B4
:103E800002F0EBFB02220B21414802F0E6FB02228A
:103E90000A213F4802F0E1FB02220C213F4802F0D8
:103EA000DCFB0121082002F035FE0121042002F094
:103EB00031FE0020ADF82800ADF8220044F61F6066
:103EC00009905320ADF8200000208DF82A0008A9A1
:103ED000314803F018FA40F24730ADF8200040F2C4
:103EE000E730099008A92E4803F00DFA6020ADF8DC
:103EF0000C000120ADF80E004FF47A700590002000
:103F0000ADF8180003A9244803F07EFB03A922485A
:103F100003F014FB03A9204803F0C3FA03A91E48C9
:103F200003F086FA01211C4803F00FFC01211A4816
:103F300003F014FC0121184803F01DFC0121164870
:103F400003F022FC0121144803F048FA0121124831
:103F500003F053FE0121104803F05EFA4FF4FA70AB
:103F6000059003A90E4803F063FA01210C4803F001
:103F7000ECFB01210A4803F031FA0121084803F063
:103F80003CFE0121064803F047FA0BB000BD0000DB
:103F9000001C024000200240000C0040000C0240C7
:103FA0000008004010B500213A4803F09AFB10BD0C
:103FB00030B58BB004460D460121402002F0AAFD29
:103FC0000121802002F05FFD0121402002F0F7FD79
:103FD0000021402002F0F3FD092206212E4802F0C4
:103FE0003CFB4020099002208DF8280003208DF82A
:103FF000290000208DF82A0002208DF82B0009A945
:10400000254802F09FFA6020ADF804000120ADF8C9
:1040100006000020ADF8100001A91E4803F008FAC0
:1040200008211C4803F091FB01211A4803F0D6F93E
:10403000681E0790601E80B2ADF818000020ADF831
:104040001A00ADF8200006A9124803F05CF901211E
:10405000104803F0E1F9FFF7A5FF0BB030BD10B534
:10406000024643F6BD600D4B03EB021333F81130EB
:104070000B4C94FBF3F398B210BD064A2832108023
:10408000121D1160704710B504462146014803F027
:1040900028FB10BD00180040001C02406AD0000838
:1040A000802C800000B58BB00121022002F0EBFCD7
:1040B0002020099002208DF8280003208DF8290087
:1040C00000208DF82A0001208DF82B0009A9224834
:1040D00002F038FA022205211F4802F0BEFA01213F
:1040E000022002F017FD0020ADF82000ADF81A0004
:1040F00044F61F6007905320ADF8180000208DF89B
:10410000220006A9154803F0FEF86020ADF804006F
:104110000120ADF8060000200390ADF8100001A9C1
:104120000E4803F0BEF901210C4803F017FB0121F2
:104130000A4803F053F90121084803F05EFD0BB073
:1041400000BD44F62062424344F6206392FBF3F143
:10415000024A3832116070470004024000040040F7
:1041600000B587B00121202002F08DFC0121080557
:1041700002F0E1FC4FF46070059002208DF8180009
:1041800000208DF81A0001208DF81B0003208DF807
:10419000190005A9264802F0D5F90522072124486F
:1041A00002F05BFA05220821214802F056FA0522A6
:1041B00009211F4802F051FA4020059001208DF896
:1041C000180000208DF81A0001208DF81B00032034
:1041D0008DF8190005A9164802F0B4F940211448D9
:1041E00002F02CFA4FF48270ADF802000020ADF816
:1041F0000400ADF800004FF40070ADF80A00002094
:10420000ADF80E000120ADF808000220ADF8060060
:104210002020ADF80C000A20ADF8100069460548D2
:1042200002F0D0FD0121034802F0C6FE07B000BD38
:1042300000140240005001401FB50121102002F07F
:1042400069FC36208DF8000002208DF80100012065
:104250008DF802008DF80300684601F0B6F953208E
:10426000ADF804000020ADF80600ADF80C004FF4E6
:104270007A70029001A9194803F045F81FBD10B5E6
:104280000121164803F0C8F801221146134803F033
:10429000DBFC0121114803F0EBFC10BD10B501213E
:1042A0000E4803F0E8FCC0B101210C4803F0F4FC17
:1042B00001210A4803F0DCFCFCF79FFA084800687B
:1042C000401C07490860084600686421B0FBF1F211
:1042D00001FB120008B9FCF7F1FA10BD0010004014
:1042E0004404002010B596B004460121022002F0DB
:1042F000CAFB0121102002F01EFC072211464C4887
:1043000002F0ABF914A802F065F9802014900220A5
:104310008DF8540001208DF8570002208DF85500CB
:1043200000208DF8560014A9414802F00BF94148CD
:1043300003F08EFD10A803F058FE3F4810900020B7
:10434000ADF84400ADF846004FF48060ADF8480089
:104350000420ADF84A000020ADF84C0010A9354803
:1043600003F0DDFD0121334803F061FE012240210D
:10437000304803F009FF314801F08AFE0121880529
:1043800002F081FB4FF0006000902A48001D019070
:104390002B480290002003901220049000200590EA
:1043A0004FF4806006900020079008904FF48070D2
:1043B00009904FF440300A9000200B900C900D9023
:1043C0000E9069461D4801F005FF012210211B488F
:1043D00001F0C7FF0121194801F036FF3A208DF89E
:1043E0003C0000208DF83D008DF83E0001208DF846
:1043F0003F000FA801F0E9F816B010BD10B5114943
:104400000E4801F0CBFF88B14FF081510B4801F00D
:1044100094FF0C49094801F0EBFF094804F0DAFF6A
:104420000948FDF726FD0220FDF733FD10BD000011
:104430000004024000100140A086010040640240D8
:104440003C0D0020008020103603002010B596B0EF
:1044500004460121082002F016FB0121480502F064
:1044600012FB0121480402F055FBFB4803F0F0FC6D
:104470000121F94803F0EFFD07220521F74802F07A
:10448000ECF807220621F54802F0E7F860201490C6
:1044900002208DF8540000208DF8560003208DF87E
:1044A000550000208DF8570014A9EC4802F04AF896
:1044B00026208DF83C0002208DF83D0001208DF86B
:1044C0003E008DF83F000FA801F07FF810A803F020
:1044D0008CFD10940020ADF84400ADF84600ADF816
:1044E00048000C20ADF84A000020ADF84C0010A99F
:1044F000D94803F014FD012240F22441D64803F0CC
:104500004CFE01224021D44803F03EFE0021D24857
:1045100003F08DFDD24801F0BBFD4FF0006000902C
:10452000CD48001D0190CF480290002003906420E8
:104530000490002005904FF48060069000200790C2
:10454000089009904FF480300A9000200B900C9056
:104550000D900E906946C248603001F03BFE10207D
:104560008DF83C0002208DF83D0001208DF83E00C2
:104570008DF83F000FA801F028F801221021B8485B
:10458000603001F0EEFE0022B6496431B44860307C
:1045900001F081FE0121B248603001F088FE012166
:1045A000AF48603001F050FE16B010BD00B591B0BC
:1045B0000121480502F067FAA948783001F068FD4A
:1045C0004FF000600190A448001D0290A64803909F
:1045D000402004904FF4C8700590002006904FF4DE
:1045E000806007900020089009900A904FF40030F6
:1045F0000B9000200C9001200D9000200E900F9049
:1046000001A99748783001F0E5FD01221021944876
:10461000783001F0A6FE012280218F4803F0B4FD1E
:1046200011208DF8400002208DF8410001208DF806
:1046300042008DF8430010A800F0C7FF0021884811
:10464000783001F001FE11B000BD70B504460D4692
:1046500000BF864800780028FBD1012083490870FC
:104660002A462146804806F0C7F829467C4878301B
:1046700001F00BFE01217A48783001F0E5FD70BDB4
:1046800010B57B497648783001F088FE78B17849DA
:104690007348783001F051FE00217148783001F004
:1046A000D3FD012240F226616B4803F076FD10BD78
:1046B00010B540F22771684803F0AAFD40B9002206
:1046C00040F22661644803F068FD002067490870E5
:1046D00010BD0146B1F8C800B1F8CA20904201D11E
:1046E000C7207047B1F8CA00B1F8C820801A012865
:1046F00006D0B1F8CA00B1F8C820801AC73008B98E
:104700000020EEE7B1F8CA00B1F8C820801A401EB8
:10471000002806D4B1F8CA00B1F8C820801A401E9B
:1047200005E0B1F8CA00B1F8C820801AC73080B2DD
:10473000D7E72DE9F04104460F4615462046FFF71E
:10474000C8FFA84227DB002D25DDB4F8C8002844A7
:10475000C8280CDAB4F8C81008192A46394606F0F9
:104760004BF8B4F8C8002844A4F8C80016E0B4F820
:10477000C800C0F1C806B4F8C81008193246394656
:1047800006F03AF8AA1BB919204606F035F8A81B1E
:10479000A4F8C80002E00020BDE8F0810120FBE79A
:1047A00010B540F224412C4803F032FD002852D0CD
:1047B00001203049A1F8CE00274800882648001D76
:1047C00000882748603001F082FDE0BB00202A49C4
:1047D0000870002210212248603001F0C2FD002143
:1047E0001F48603001F030FD24491D48603001F061
:1047F000FFFD1B48603001F04AFDC0F16400204914
:104800000860642016496431086015482838D0F8DB
:10481000880040F4002012492839C1F8880018485F
:10482000008882B21448007800EBC00303EB00104C
:104830000C4B03EB80010F48FFF77BFF0122102197
:104840000748603000E01DE001F08BFD01210448C5
:10485000603001F0F9FC52E000440040000C0240DE
:1048600028600240560D0020EE0E00204804002073
:10487000008020201E0E0020490400200088002017
:104880004C0400200120CE49087000221021CD48A0
:1048900001F067FD0021CB4801F0D6FCCA49C948A8
:1048A00001F0A6FDC74801F0F2FCC0F16400C74961
:1048B00008606420C349091D0860C2488838D0F8E0
:1048C000880020F40020BF498839C1F88800BF481B
:1048D000008882B2BA48007800EBC00303EB0010F6
:1048E000BB4B03EB8001BB48FFF723FF01221021E4
:1048F000B44801F036FD0121B24801F0A5FC10BD1D
:1049000010B5FFF7D5FEFFF74BFF10BD10B5AE4950
:10491000AC4801F043FDF0B1AB49AA4801F00DFDF0
:10492000A84801F0D4FC08B9012000E00020A44907
:104930000870A9480088A848001D0088084600782B
:1049400000EBC00202EB0010A14A02EB80016422DE
:10495000A048FFF7EEFE10BD0146B1F8C800B1F85F
:10496000CA20904201D100207047B1F8CA00B1F8C6
:10497000C820801A012806D0B1F8CA00B1F8C820B2
:10498000801AC73008B9C720EEE7B1F8C800B1F8FF
:10499000CA20801A05D4B1F8C800B1F8CA20801A1C
:1049A00005E0B1F8C800B1F8CA20801AC83080B25A
:1049B000DAE72DE9F04107460C4615462046FFF799
:1049C000CBFFA84227DB002D25DDB4F8CA00284420
:1049D000C8280CDAB4F8CA0001192A46384605F08E
:1049E0000BFFB4F8CA002844A4F8CA0016E0B4F8D3
:1049F000CA00C0F1C806B4F8CA00011932463846E8
:104A000005F0FAFEAA1B2146384605F0F5FEA81B64
:104A1000A4F8CA0002E00020BDE8F0810120FBE715
:104A200030B5034601241846FFF796FFA0421CDB71
:104A3000002C1ADDB3F8CA002044C82808DAB3F8FD
:104A4000CA001D5CB3F8CA002044A3F8CA000AE0FB
:104A5000B3F8CA10C1F1C800B3F8CA105D5C211ADE
:104A6000A3F8CA1000BF284630BD0020FCE72DE99E
:104A7000F04107460C462046FFF76EFF0546002D25
:104A800025DDB4F8CA002844C8280CDAB4F8CA00F6
:104A900001192A46384605F0AFFEB4F8CA0028448A
:104AA000A4F8CA0016E0B4F8CA00C0F1C806B4F809
:104AB000CA0001193246384605F09EFEAA1B21465F
:104AC000384605F099FEA81BA4F8CA0002E00020B1
:104AD000BDE8F0810120FBE72DE9F04781460D4656
:104AE00017461C462846FFF737FF3919884221DB55
:104AF000002C1FDDB5F8CA003844C82190FBF1F244
:104B000001FB12063019C82805D2A91922464846C9
:104B100005F072FE0DE0C6F1C808A91942464846E4
:104B200005F06AFEA4EB08022946484605F064FE3B
:104B300000BF02E00020BDE8F0870120FBE770B570
:104B400003460C4601251846FFF706FF6119884207
:104B50000BDB002D09DDB3F8CA002044C82290FB0E
:104B6000F2F602FB1601585C70BD0020FCE710B5A0
:104B700003460C461846FFF7EFFEA04214DB002C5C
:104B800012DDB3F8CA002044C82805DAB3F8CA0019
:104B90002044A3F8CA0009E0B3F8CA10C1F1C80064
:104BA000211AA3F8CA1001E0002010BD0120FCE783
:104BB00000200849A1F8C800A1F8CA007047000009
:104BC0004904002088600240008800204C04002036
:104BD000560D00201E0E00200044004010B596B077
:104BE00004460121082001F04EFF0121480501F093
:104BF0004AFF0121880401F08DFF764803F028F96F
:104C000007220821744801F028FD07220921724873
:104C100001F023FD4FF48070149002208DF85400B1
:104C200000208DF8560003208DF8550000208DF8E7
:104C3000570014A9684801F085FC4FF400701490E7
:104C400002208DF8540001208DF8560003208DF8C5
:104C5000550001208DF8570014A95F4801F072FC3F
:104C600027208DF83C0002208DF83D0001208DF8B2
:104C70003E008DF83F000FA800F0A7FC10A803F03D
:104C8000B4F910940020ADF84400ADF84600ADF83A
:104C900048000C20ADF84A000020ADF84C0010A9E7
:104CA0004C4803F03CF9012240F22441494803F00A
:104CB00074FA01224021474803F066FA0121454871
:104CC00003F0B5F9454801F0E3F94FF000600090BA
:104CD0004048001D0190424802900020039064204B
:104CE0000490002005904FF480600690002007900B
:104CF000089009904FF480300A9000200B900C909F
:104D00000D900E906946354801F064FA002234494E
:104D10006431324801F0BFFA0121304801F0C7FA8E
:104D200001212E4801F090FA16B010BD10B540F2E6
:104D30002441284803F06CFA00284AD0254800880E
:104D40002448001D0088254801F0C1FA00BB00205E
:104D5000244908700021214801F076FA1F4801F02B
:104D600096FAC0F164002049086064201B49283984
:104D7000C8620846806A40F4002088620121174812
:104D800001F062FA18480178154804F033FC20E07D
:104D90000120144908700021104801F055FA0F480D
:104DA00001F075FAC0F164000F49086064200B49F6
:104DB0002839C8620846806A20F4002088620121F0
:104DC000064801F041FA084801780548643004F0CB
:104DD00011FC10BD00480040000C02402860024059
:104DE0007E100020520400205404002010B588B02A
:104DF00004460121402001F046FE0121202001F05F
:104E00009AFE08220921314801F027FC08220E21D0
:104E10002E4801F022FC4FF48440069002208DF8C9
:104E20001C0000208DF81E0003208DF81D000020BE
:104E30008DF81F0006A9254801F084FB244803F0E3
:104E400007F802A803F0D1F802940020ADF80C0096
:104E5000ADF80E00ADF810000C20ADF812000020E7
:104E6000ADF8140002A91A4803F059F847208DF84C
:104E7000040001208DF805008DF806008DF807006C
:104E800001A800F0A2FB012240F22551104803F0D6
:104E900084F901210E4803F0CAF808B010BD10B51E
:104EA00040F225510A4803F0B3F968B1084803F00D
:104EB000EDF808490870064800880548001D00887C
:104EC0000846007804F05DFD10BD000000180240A7
:104ED000001401405804002010B588B00446012198
:104EE000102001F0D0FD0121880701F013FE0822F7
:104EF00007213C4801F0B1FB08221146394801F076
:104F0000ACFB8020069002208DF81C0000208DF85C
:104F10001E0003208DF81D0001208DF81F0006A93A
:104F2000304801F00FFB4FF48070069002208DF89E
:104F30001C0000208DF81E0003208DF81D000120AC
:104F40008DF81F0006A9274801F0FCFA264802F058
:104F50007FFF02A803F049F802940020ADF80C008E
:104F6000ADF80E00ADF810000C20ADF812000020D6
:104F7000ADF8140002A91C4802F0D1FF52208DF8B0
:104F8000040001208DF805008DF806008DF807005B
:104F900001A800F01AFB012240F22551124803F04B
:104FA000FCF80121104803F042F808B010BD10B51C
:104FB00040F225510C4803F02BF990B10A4803F058
:104FC00065F80A490870084800880748001D0088ED
:104FD0000846007804F046FC05480068401C044977
:104FE000086010BD001002400078004060040020FE
:104FF0005C04002000B58BB00121802001F043FD4E
:105000000121080201F03FFD0121082001F082FD8D
:105010004FF4E050099002208DF8280003208DF80D
:10502000290009A98B4801F08DFA0120099002207E
:105030008DF8280003208DF8290009A9864801F081
:1050400081FA02220A21834801F007FB02220B2188
:10505000804801F002FB02220C217E4801F0FDFA9B
:10506000022200217C4801F0F8FA1220ADF8180065
:105070000020ADF81A00052007900020ADF82000B0
:1050800006A9764802F03FF97020ADF8040001202F
:10509000ADF806000020ADF8080003900220ADF83E
:1050A00010000020ADF81200ADF814004FF480702D
:1050B000ADF8160001A9694802F0BAF901A96748DC
:1050C00002F0EFF901A9654802F038FA01A9634836
:1050D00002F09AFA0821614802F037FB08215F4884
:1050E00002F03CFB08215D4802F045FB08215B48CB
:1050F00002F04AFB0121594802F070F9002157489B
:1051000002F08AF90BB000BD00B58FB0012148054F
:1051100001F0B9FC0520FEF715FC0021504801F014
:1051200093F84F4800F0B4FF4FF0406000904B48B8
:105130003C3001904B48029040200390792004902D
:10514000002005904FF4806006908000079080005A
:105150000890002009904FF480300A9000200B90B6
:1051600003200C9000200D900E9069463C4801F001
:1051700031F801221102394802F096FD0021384829
:1051800001F062F80121354802F046F90FB000BD88
:1051900010B53549324801F0B4F818B933480078F1
:1051A00001281CD001203149087031492C4801F0F8
:1051B000C4F800212A4801F047F87921284801F075
:1051C00064F80121264801F03FF824481430008893
:1051D00040F00100214914310880012010BD002059
:1051E000FCE72DE9F04105460C46052C02DD0020C8
:1051F000BDE8F08100211EE0002019E0072214E044
:1052000001EB41032B441B5C134103F00103194ED6
:10521000F35C01EB4106F60006EBC006C2F107079E
:105220003E44104F47F82630521E002AE8DA401C50
:105230000328E3DB491CA142DEDB002004EB440130
:10524000082202EBC101074A42F82100FFF7A0FF44
:105250000120CDE7001C024000200240000C00406D
:105260001060024064040020200000104806002066
:10527000208000109AD0000810B588B004460121A3
:10528000102001F000FC0121C80701F043FC0822B6
:105290000021304801F0E1F9082201212D4801F0F8
:1052A000DCF90320069002208DF81C0000208DF808
:1052B0001E0003208DF81D0001208DF81F0006A997
:1052C000244801F03FF9244802F0C2FD02A802F090
:1052D0008CFE02940020ADF80C00ADF80E00ADF885
:1052E00010000C20ADF812000020ADF8140002A947
:1052F000194802F014FE53208DF8040001208DF8A7
:1053000005008DF806008DF8070001A800F05DF992
:10531000012240F22551104802F03FFF01210E48C2
:1053200002F085FE08B010BD10B540F225510A48C4
:1053300002F06EFF68B1084802F0A8FE0749087045
:10534000054800880448001D00880846007804F0DD
:1053500018FB10BD00100240007C004049060020F0
:10536000704700BFFEE700BFFEE700BFFEE700BFDB
:10537000FEE7704770477047704700000CB500208B
:10538000019000908348006840F4803081490860B3
:1053900000BF8048006800F4003000900198401C75
:1053A0000190009818B90198B0F5A04FF1D1794853
:1053B000006800F4003010B10120009001E00020EE
:1053C00000900098012860D172484030006840F099
:1053D00080507049403108606F48006840F4404098
:1053E0006D4908606B48083000686A4908310860F8
:1053F0000846006840F4004008600846006840F431
:10540000A05008606548091F0860081F006840F048
:105410008070091F086000BF5E48006800F00070DF
:105420000028F9D05C48006840F480305A49086090
:1054300000BF5948406800F480300028F9D0564831
:10544000006840F400305449086000BF524840688A
:1054500000F400300028F9D040F20570504908608F
:105460004C480830006820F003004A4908310860C1
:105470000846006840F00200086000BF4548083058
:10548000006800F00C000828F8D10CBD10B54548A4
:10549000006840F47000434908603E48006840F0EE
:1054A00001003C49086000203A4908310860394849
:1054B00000683D490840374908603C48091D0860BC
:1054C000081F006820F48020091F0860002031496F
:1054D0000C310860FFF752FF4FF00060314980390E
:1054E000086010BD70B500200022022300240221B4
:1054F000284D08352D6805F00C0020B1042806D091
:10550000082834D107E02A4D2A4E356033E02A4D71
:10551000284E35602FE01F4D2D1D2D68C5F380549A
:105520001C4D2D1D2D6805F03F0154B1224DB5FBDA
:10553000F1F5184E361D3668C6F3881605FB06F2DF
:1055400009E01B4DB5FBF1F5124E361D3668C6F36A
:10555000881605FB06F20F4D2D1D2D68C5F301457C
:105560006D1C6B00B2FBF3F5124E356003E0104D7D
:10557000104E356000BF00BF064D08352D68C5F3DD
:1055800003150E4E705D0B4D2D68C540094E3560FC
:1055900070BD000000380240007000400C5440070D
:1055A000003C024088ED00E0FFFFF6FE10300024D2
:1055B0000024F4004C060020001BB7005006002019
:1055C00032490143324A1160704770B5002100230F
:1055D0000F22C4781CB32E4C246804F4E064C4F594
:1055E000E064C4F30721C1F10404E3B20A41447842
:1055F0009C40E1B28478144021430C07210E254CD5
:1056000005786155047804F01F050124AC40057845
:105610006D11AD0005F1E025C5F8004109E0047801
:1056200004F01F050124AC401B4D0678761145F8A7
:10563000264070BD194A0A400243154B1B1F1A60D1
:10564000704739B1124A121D12680243104B1B1DDC
:105650001A6006E00E4A121D126882430C4B1B1D95
:105660001A607047042808D14FF0E021096941F021
:1056700004014FF0E022116107E04FF0E0210969D9
:1056800021F004014FF0E022116170470000FA059B
:105690000CED00E000E400E080E100E080FFFF1F8F
:1056A00010B50446FE48844209D10121480601F0A4
:1056B00086FA00214FF0007001F081FA08E0012124
:1056C000880601F07CFA00214FF0806001F077FA43
:1056D00010BD30B5024600200023146824F00204F7
:1056E0001460146844F00104146000E05B1C54680A
:1056F00004F001041CB94FF6FF74A342F6D15468BC
:1057000004F001040CB900206CE08C79012C04D168
:10571000146844F08004146003E0146824F08004EA
:105720001460CC79012C04D1146844F04004146056
:1057300003E0146824F0400414600C7A012C04D1B6
:10574000146844F02004146003E0146824F020047A
:1057500014604C7A012C04D1146844F010041460D5
:1057600003E0146824F0100414608C7A012C04D136
:10577000146844F00804146003E0146824F008047A
:105780001460CC7A012C04D1146844F00404146031
:1057900003E0146824F0040414608C78A407CD7826
:1057A00044EA05640D7944EA05444D7944EA055418
:1057B0000D886D1E2C43D461146824F0010414601C
:1057C000002300E05B1C546804F001041CB14FF698
:1057D000FF74A342F6D1546804F001040CB1002018
:1057E00000E0012030BD10B50021837A012202FAC9
:1057F00003F1AC4A126842F00102AA4B1A60A94AAE
:105800001C3212688A43A74B1C331A60027BCAB948
:10581000A44A0C3212688A43A24B0C331A604288A5
:10582000C38842EA03439F4A4032847A42F83430C4
:105830000288838842EA03439A4A4032847A02EB20
:10584000C4025360027B012A19D1964A0C321268B5
:105850000A43944B0C331A604288038842EA03439C
:10586000904A4032847A42F83430C288838842EACF
:1058700003438C4A4032847A02EBC4025360C27AFA
:105880003AB9884A121D12688A43864B1B1D1A605A
:1058900006E0844A121D12680A43824B1B1D1A60DF
:1058A000028932B97F4A143212688A437D4B14331D
:1058B0001A600289012A06D17A4A143212680A4310
:1058C000784B14331A60427B012A06D1754A1C3288
:1058D00012680A43734B1C331A60724A126822F032
:1058E0000102704B1A6010BD00218171C1710172FB
:1058F00041728172C1728170C170032101710221F4
:1059000041710121018070476649096841F0010138
:10591000644A11601146096843F60E729143614A68
:1059200011601146096841EA0021116011460968B9
:1059300021F001011160704721B1026842F4803208
:10594000026003E0026822F4803202607047E1B135
:10595000026842F0800202604FF4C272125842F4B0
:1059600080734FF4C27213504FF4CA72125842F44B
:1059700080734FF4CA7213504FF4D272125842F42B
:1059800080734FF4D27213501BE0026822F0800241
:1059900002604FF4C272125822F480734FF4C27244
:1059A00013504FF4CA72125822F480734FF4CA7223
:1059B00013504FF4D272125822F480734FF4D27203
:1059C0001350704710B502460020936803F08063BF
:1059D000B3F1806F00D110E0936803F00063B3F17E
:1059E000006F01D1012008E0936803F08053B3F108
:1059F000805F01D1022000E00420042879D002F564
:105A0000C07303EB00131B6803F0010402F5C073BD
:105A100003EB00131C600B7A7BB94B7A0C8843EACA
:105A2000445302F5C07404EB00142468234302F5C8
:105A3000C07404EB0014236010E00B7A4C6843EA56
:105A4000C4034C7A234302F5C07404EB00142468A9
:105A5000234302F5C07404EB001423608B7A03F037
:105A60000F038B7202F5C07303EB00135B6823F026
:105A70000F0402F5C07303EB00135C6002F5C07302
:105A800003EB00135B688C7A234302F5C07404EBCC
:105A9000001463608B7B1C064B7B44EA034403E0E9
:105AA00000640040006600400B7B44EA0323CC7A8C
:105AB000234302F5C07404EB0014A3608B7C1C0626
:105AC0004B7C44EA03440B7C44EA0323CC7B234312
:105AD00002F5C07404EB0014E36002F5C07303EB3D
