:020000040800F2
:10000000D81C0020D58C0008915D0008935D000885
:10001000975D00089B5D00089F5D000800000000E0
:10002000000000000000000000000000A35D0008C8
:10003000A55D000800000000A75D0008A95D00089C
:10004000EF8C0008EF8C0008EF8C0008EF8C0008A4
:10005000EF8C0008EF8C0008EF8C0008EF8C000894
:10006000EF8C0008EF8C0008EF8C0008EF8C000884
:10007000EF8C0008EF8C0008EF8C0008EF8C000874
:100080003D530008B1500008EF8C0008EF8C0008C9
:100090005F410008EF8C0008EF8C0008EF8C00082F
:1000A000EF8C0008EF8C0008EF8C0008EF8C000844
:1000B000EF8C0008EF8C0008EF8C0008EF8C000834
:1000C000EF8C0008EF8C0008EF8C0008EF8C000824
:1000D000EF8C0008EF8C0008315300085D570008D2
:1000E000EF8C0008EF8C0008EF8C0008EF8C000804
:1000F000EF8C0008EF8C0008EF8C0008EF8C0008F4
:10010000EF8C0008EF8C0008EF8C0008EF8C0008E3
:10011000EF8C0008EF8C0008CD4C0008EF8C000835
:10012000EF8C0008EF8C00082D4E0008EF8C0008C3
:10013000EF8C0008EF8C0008EF8C0008EF8C0008B3
:1001400087420008EF8C0008EF8C0008EF8C000855
:10015000EF8C0008EF8C0008EF8C0008CF580008E7
:10016000EF8C0008EF8C0008EF8C0008EF8C000883
:10017000EF8C0008EF8C0008EF8C0008EF8C000873
:10018000EF8C0008EF8C0008DF590008595D00086B
:10019000EF8C0008EF8C0008EF8C0008EF8C000853
:1001A0000000000000000000EF8C000800F002F8E2
:1001B00000F05EF80AA090E8000C82448344AAF1A3
:1001C0000107DA4501D100F053F8AFF2090EBAE8A1
:1001D0000F0013F0010F18BFFB1A43F0010318477B
:1001E00028E1000048E100000A444FF0000C10F83C
:1001F000013B13F0070408BF10F8014B1D1108BFA5
:1002000010F8015B641E05D010F8016B641E01F844
:10021000016BF9D113F0080F1EBF10F8014BAD1C94
:100220000C1B09D16D1E58BF01F801CBFAD505E0B2
:1002300014F8016B01F8016B6D1EF9D59142D6D30C
:10024000704700000023002400250026103A28BF34
:1002500078C1FBD8520728BF30C148BF0B60704738
:100260001FB50DF056FA0BF000F91FBD10B510BD0B
:100270000BF0B9F91146FFF7F3FF00F023F80BF08C
:10028000D7F903B4FFF7F2FF03BC0BF0D7F9000076
:100290000B49D1F800C04A685CF8043B1068184468
:1002A00042F8040B8C4528BFA1F1DC0C8A4228BF20
:1002B000A1F1DC02C1F800C04A6020F000407047A4
:1002C000701600204FF4A06005F092FE03F070FE5F
:1002D000002433E02D4890F90000082805DA2B4867
:1002E0000078C01C40B22949087029490968C1F347
:1002F0004F0004F0E0FB04EB4402264B03EB420208
:10030000917804EB440213F8120004F0C0FB054698
:100310002946092004F0C9FB04EB44011D4A02EB05
:1003200041018D8805EBD571481004F023F804F0E5
:1003300051FB1E2004F01EF8601C641C162CC9DB47
:100340000020154908600821012000F005FC01206B
:10035000124908700BE0124800684FF47A71B0FB44
:10036000F1F201FB120010B9082008490870F2E709
:10037000B5EEC00AF1EE10FA02D2F1EE400A01E049
:10038000F0EE400AB0EE600A704700000C0000205A
:100390002C180040AEDB0008B88242421A00002050
:1003A00070040020F9490870704710B5C024F8485F
:1003B0000088A0F5806000EE900AF8EEE00AB0EE4A
:1003C000600AFFF7D5FFDFEDF30AB4EEE00AF1EEC5
:1003D00010FA01D8012000E000200443EC484088D6
:1003E000A0F5806000EE900AF8EEE00AB0EE600A38
:1003F000FFF7BEFFDFEDE70AB4EEE00AF1EE10FA18
:1004000001D8012000E0002044EA4004E048808850
:10041000A0F5806000EE900AF8EEE00AB0EE600A07
:10042000FFF7A6FFDFEDDB0AB4EEE00AF1EE10FA0B
:1004300001D8012000E0002044EA8004D448C088AC
:10044000A0F5806000EE900AF8EEE00AB0EE600AD7
:10045000FFF78EFFDFEDCF0AB4EEE00AF1EE10FAFF
:1004600001D8012000E0002044EAC004C848007A16
:10047000012807D0C648007A022803D0C448007A71
:10048000032801D1012000E0002044EA0014C04804
:10049000407A012807D0BE48407A022803D0BC48E1
:1004A000407A032801D1012000E0002044EA4014F2
:1004B000FF2C07D00320FFF775FF1422B449B6487C
:1004C0000AF0DCFF10BDB1480078704710B5FFF7A7
:1004D000FAFF08287FD2DFE800F011041E7E2B65AA
:1004E000584B00231A461946184608F08FFC002383
:1004F0001A461946184608F0B8FC79E000231A4657
:100500001946184608F082FC00231A461946184678
:1005100008F0ABFC6CE000231A461946184608F0B8
:1005200075FC00231A461946184608F09EFC5FE049
:100530009A4CE48823B2994CA48822B2984CA48C9B
:1005400021B2974C248C20B208F060FC954B93EDBF
:10055000070ABDEEC00A10EE103A1AB2924B9B8AFF
:1005600019B2914B1B8D18B2002308F07EFC3FE0BE
:1005700000231A461946184608F048FC00231A467C
:100580001946184608F071FC32E000231A46194655
:10059000184608F03BFC00231A461946184608F096
:1005A00064FC25E000231A461946184608F02EFC84
:1005B0007C4B93ED070ABDEEC00A10EE103A1AB25A
:1005C000794B9B8A19B2784B1B8D18B2002308F027
:1005D0004CFC0DE0FFE700231A461946184608F0C8
:1005E00015FC00231A461946184608F03EFC00BFC9
:1005F00000BF10BD10B566480088654949880844A9
:100600006349898808446249C9880844A0F5805034
:1006100000EE900AF8EEE00AB0EE600AFFF7A8FEDE
:10062000F2EE080AB4EEE00AF1EE10FA01DD00F095
:10063000D9F910BD10B5FFF746FF082847D2DFE80B
:1006400000F01F0427372F3D38365848006842F223
:100650001071884213D9FFF7CDFF0020FFF7A2FEEB
:100660009FED530A504880ED030A524890ED000A6E
:10067000F2EE040A20EE200A4B4880ED090A26E03B
:1006800000F097FF0220FFF78DFE01F0A0FA1EE0B8
:100690000620FFF787FE00F08CFF01F098FA16E0C5
:1006A00000F087FF01F093FA01F0DAF90FE00EE0B5
:1006B0000DE001F0D5F900F07CFF08E003F0C2F98D
:1006C00000F077FF01F083FA01F0CAF900BF00BF24
:1006D00010BD10B52E48008840F29461081A00EE53
:1006E000900AF8EEE00AB0EE600AFFF741FEF7EE7E
:1006F000000AB4EEE00AF1EE10FA3CD82448408833
:1007000040F29461081A00EE900AF8EEE00AB0EEAA
:10071000600AFFF72DFEF7EE000AB4EEE00AF1EEF4
:1007200010FA28D81A488088A0F5B67000EE900A12
:10073000F8EEE00AB0EE600AFFF71AFEF7EE000AE4
:10074000B4EEE00AF1EE10FA15D81148C08840F274
:100750009461081A00EE900AF8EEE00AB0EE600A22
:10076000FFF706FEF7EE000AB4EEE00AF1EE10FA2B
:1007700001D800F037F910BD10B5FFF7A4FE0E49FF
:100780000870FFF7A0FE08281ED217E01000002016
:10079000B00600200080254474070020EC030020F0
:1007A000E4080020340900204400002070040020E8
:1007B00000D03E45A006002013000020DFE800F036
:1007C0000504066507AA3F1CB3E0B2E0B1E08D481E
:1007D000007A032802D10620FFF7E4FD8948007A59
:1007E000032807D188480078032803D18548407A38
:1007F000012800D000BF9CE08248C07CA0B981489D
:10080000807C88B97F48B0F90A0000EE900AF8EEC3
:10081000E00AB0EE600AFFF7ABFDF0EE080AB4EEB6
:10082000E00AF1EE10FA02DD0420FFF7BBFD754887
:10083000007A022802D10520FFF7B4FD79E0FFF726
:1008400048FF7048007A01280DD1704890ED000AE9
:10085000F2EE040A20EE200A6D4880ED090A042019
:10086000FFF7A0FD10E06748007A02280CD1674826
:1008700090ED000AF2EE040A20EE200A644880EDB2
:10088000090A0520FFF78EFD53E062480068401C0E
:1008900060490860604890F8360058BB59480088A5
:1008A0005849498808445749898808445549C9889E
:1008B0000844A0F5805000EE900AF8EEE00AB0EE91
:1008C000600AFFF755FDF2EE040AB4EEE00AF1EE1D
:1008D00010FA0FD24D4890ED000AF2EE040A20EE15
:1008E000200A4B4880ED090A0420FFF75BFD002039
:1008F00048490860484890F8360050B945480068B3
:1009000041F27071884204D900204249086000F029
:1009100069F80EE03B48007A012802D10420FFF775
:1009200041FD3848007A032802D10620FFF73AFD3E
:1009300000BF00BF3348407A3349087010BD10B57E
:100940003648007830B9354890F82200012801D1A6
:100950003349087008F0D3FF324800680521B0FB26
:10096000F1F201FB120008B903F048FA01F01EFB96
:10097000FFF702FF2C484078042802D10520FFF73A
:1009800011FDFFF757FEFFF7A1FDFFF70EFD25480C
:1009900000687821B0FBF1F201FB120078B923481E
:1009A00090F90000002805DD20480078401E40B284
:1009B0001E4908701D4890F9000003F09EFD1C4878
:1009C000B0F9000002F0D5FB10BDF0EE400AF5EEE4
:1009D000C00AF1EE10FA02DBB0EE600A7047B1EE29
:1009E000600AFBE7BFF34F8F1248006800F4E06035
:1009F00011490843001D0F490860BFF34F8F00BF26
:100A0000FEE70000B006002012000020A006002033
:100A10004400002014000020140300202C150020A6
:100A20001100002070040020C80600200C000020E7
:100A3000F80300200CED00E00000FA0510B5FB48BB
:100A400000780A2832DAF948007800282EDDF848C4
:100A500000684FF41661B0FBF1F201FB1200F3499C
:100A600009784900C1EB011101EB8101B0EB410FA5
:100A70002BD8EF4800684FF41661B0FBF1F201FB90
:100A8000120028B94FF48041EA4806F0EFFA1CE062
:100A9000E74800689621B0FBF1F201FB1200A0B913
:100AA0004FF48041E34806F0ECFA0EE0DF480078AE
:100AB0000A2805DB4FF48041DE4806F0D9FA04E04D
:100AC0004FF48041DB4806F0D1FADB4800780A2871
:100AD00032DAD948007800282EDDD54800684FF476
:100AE0001661B0FBF1F201FB1200D349097849000D
:100AF000C1EB011101EB8101B0EB410F2BD8CC48C8
:100B000000684FF41661B0FBF1F201FB120028B946
:100B10004FF40061C94806F0A9FA1CE0C448006817
:100B20009621B0FBF1F201FB1200A0B94FF4006175
:100B3000C24806F0A6FA0EE0BF4800780A2805DB96
:100B40004FF40061BD4806F093FA04E04FF40061F1
:100B5000BA4806F08BFA10BD0A2801DD0A2200E02F
:100B60000246B24B1A700A2901DD0A2200E00A4649
:100B7000B14B1A70704710B5B148007820B1012808
:100B800022D0022860D140E0AE480078401CAD4938
:100B900008700846007850280ADB0120A849087030
:100BA0005020A84908700020A7490870A74908707C
:100BB000A4480078C0F15000A5494870A1480078C9
:100BC0000870002088703FE09F480078401C9E49D4
:100BD00008700846007850280BDB022098490870FE
:100BE00000209849087050209749087000209749C4
:100BF000087000209649487093480078C0F1500072
:100C000008709148007888701EE090480078401C79
:100C10008E49087008460078502809DB0020884972
:100C20000870884908708849087050208749087002
:100C3000864800788649487000200870834800780C
:100C4000C0F15000887000BF00BF00204FE0814914
:100C5000095C11B1012948D124E07F4901EB8001F1
:100C600091ED000ADFED7D0A30EE200A7A4901EBB2
:100C7000800181ED000A784901EB800191ED000AC5
:100C8000DFED770AB4EEE00AF1EE10FA09DB9FED32
:100C9000740A714901EB800181ED000A01216D4A5E
:100CA000115422E06C4901EB800191ED000ADFED67
:100CB0006B0A30EE600A684901EB800181ED000AA1
:100CC000654901EB800191ED000AB5EEC00AF1EE35
:100CD00010FA09D89FED630A5F4901EB800181EDAD
:100CE000000A00215B4A115400BF00BF401C0528C8
:100CF000ADDB574840785649C870084601784171C5
:100D000081780171007852498871084641780172F2
:100D10008178C17180784E49487208460178C17265
:100D20004178817200784A49087308468178817356
:100D30004178417300201EE0002119E000EB4002E1
:100D4000434B1A44525C00EE102AB8EE400A424A65
:100D500002EB8002D2ED000A20EE200ABCEEC00AAF
:100D600010EE102A00EB4003394C23445A54491C1E
:100D70000329E3DB401C0528DEDB10BD027802F00E
:100D80000101027852100270027842EAC112027028
:100D9000704710B5264800686421B0FBF1F201FBF2
:100DA0001200002841D100BF12E000210DE02E4AC0
:100DB0001278024102F00102642312FB03F200EBFD
:100DC0004003234C23445A54491C0329EFDB401CA5
:100DD0000528EADB2448FFF7D1FF24480078401CAF
:100DE000224908700878C11700EB5171C910A0EBB7
:100DF000C10141B91E490978052904DC1C48007865
:100E0000401C1B49087000200BE0002106E0642212
:100E100000EB40030E4C23445A54491C0329F6DBD3
:100E2000401C134909788842EFDB10BD18000020F0
:100E3000700400200014024019000020001002403D
:100E40001B0000201C0000201D0000201E000020B0
:100E5000880700201F000020240000200AD7233C20
:100E6000CDCCCC3E0000000038000020390000202E
:100E70003A00002010B52148007810B9FFF789FF2B
:100E800001E0FFF778FE05211D4804F0C2FE04F0E2
:100E900097FE10BD0278D10902785206120E027038
:100EA00002780A4302707047164800684FF4FA71DE
:100EB000B0FBF1F201FB1200F0B9002012E0124980
:100EC0000978642211FB02F100EB40020C4B1A443A
:100ED0005170002100EB4002995400EB40021A448B
:100EE0009170401C0528EADB0748007808B901200A
:100EF00000E0002004490870704700001A0000203C
:100F000088070020700400203B00002010B52DED64
:100F1000048BF0EE408AB0EE609A9FEDFB0AB0EED3
:100F2000408ADFEDFA0A9FEDFA0A18EEA00AB0EE49
:100F3000408AB0EE480AFFF71BFADFEDF60AB4EE7E
:100F4000E00AF1EE10FA06D29FEDF30A28EE000A4D
:100F5000B0EE408A10E0B0EE480AFFF709FADFED84
:100F6000EF0AB4EEE00AF1EE10FA05D29FEDEC0ABA
:100F700028EE000AB0EE408AB0EE480ABDEC048BC1
:100F800010BDE848007801287ED1E748007820B1FC
:100F9000012828D0022825D185E0E448008800EB0C
:100FA00080004FF4FA6101EBC00000EE100AB8EEC9
:100FB000C00ADF4880ED030A406828B9DD480068B0
:100FC000401CDC49086002E00020DA490860D9488A
:100FD0000068B0F5967F05D30020D649086001204F
:100FE000D149087073E0D448D049098800EB8100EA
:100FF000D0ED000ACE4890ED000AB8EEC00A30EEFF
:10100000800ACD48C949098800EB810080ED000ABB
:10101000CA48C649098800EB8100D0ED000AC448DF
:1010200090ED050AB8EEC00A30EE800AC348BF4909
:10103000098800EB810080ED000ABE480068401C72
:10104000BC49086008460068B0F52F7F2AD300200D
:1010500008600220B4490870B748B449098800EB19
:10106000810090ED000ADFEDB60A80EE201AB2484A
:10107000AE49098800EB810080ED001AAF48AB490A
:10108000098800EB810000E022E090ED000ADFED2E
:10109000AC0A80EE201AA948A449098800EB810017
:1010A00080ED001A13E0A14800881E2808DA9F4846
:1010B0000088401C9D49088000209B49087005E07D
:1010C00000209849087099490880704700BF00BF08
:1010D00000BFFAE770B52DED0A8B04460D4699481E
:1010E00000680F21B0FBF1F201FB120000287DD156
:1010F00095498988A1F580600BF03DFF41EC1C0B00
:101100009FED920B53EC102B0BF09CFF41EC1B0B53
:101110009FED900B53EC102B0BF0A6FD41EC190B3F
:10112000834890ED090A10EE101A08460CF080FA78
:1011300041EC1A0B53EC192B0BF0E2FC41EC180BB1
:101140000BF0ACFC7A494862084690ED090ADFEDE5
:10115000830AB4EEE00AF1EE10FA06DD90ED090A1A
:10116000DFED7F0A30EE600A02E0714890ED090A77
:101170006F4880ED090A90ED090ADFED7A0AB4EEB6
:10118000E00AF1EE10FA06D290ED090ADFED740ADA
:1011900030EE200A02E0664890ED090A644880EDCE
:1011A000090A6949C988A1F580600BF0E4FE41ECA9
:1011B0001C0B9FED6D0B53EC102B0BF043FF41EC20
:1011C0001B0B9FED640B53EC102B0BF04DFD41EC12
:1011D000190B574890ED030A10EE101A08460CF050
:1011E00027FA41EC1A0B53EC192B00E02CE00BF022
:1011F00087FC41EC180B0BF051FC4D49C8600846C8
:1012000090ED030ADFED5A0AB4EEE00AF1EE10FAAF
:1012100002D29FED570A02E0454890ED030A444888
:1012200080ED030A90ED030ADFED520AB4EEE00A06
:10123000F1EE10FA02DD9FED4F0A02E03C4890ED1E
:10124000030A3B4880ED030ABDEC0A8B70BD10B564
:1012500049480078012810D04748007868B93A48D2
:10126000007A012803D0454890F8220028B9304977
:101270000C3101F11800FFF72DFFFFF724F90428C6
:101280000BD14FF4FA703E494861404208614FF477
:10129000E6703C49486140420861FFF772FE24480D
:1012A00090ED030ADFED380A20EE200AD0ED040AA3
:1012B0009FED361A00EE810A80ED040AD0ED040A93
:1012C00090ED000AB8EEC00A30EEC00ADFED300A39
:1012D000B4EEE00AF1EE10FA5EDD006800F50050B1
:1012E00001EE100AB8EEC11AF0EE410A104890ED76
:1012F000041AB0EE410A274809F0C4F9BDEEC00A4D
:101300000B4880ED020A81E000000000250609413B
:1013100000ECA946000096449A99193F0000FA4350
:10132000CDCC4C3E7A0100207B0100207C010020C6
:10133000440000208C010020A40700204408002065
:1013400000002F4470040020B006002000000000C0
:10135000008046400000000000A084400000E144FE
:10136000000061450000E1C40000000000003940B9
:101370000000FA4400204B45780100202C15002085
:10138000B200002036010020CDCCCC3D6666663F21
:101390000000804570000020DB48D0ED040A90ED8D
:1013A000000AB8EEC00A30EEC00ADFEDD80AB4EE8B
:1013B000E00AF1EE10FA16D20068A0F5005001EE36
:1013C000100AB8EEC11AF0EE410ACF4890ED041AA7
:1013D000B0EE410ACE4809F055F9BDEEC00ACA4840
:1013E00080ED020A12E0C84890ED001AB8EEC11A6A
:1013F000F0EE410A90ED041AB0EE410AC44809F03B
:1014000041F9BDEEC00AC04880ED020ABE4890ED29
:10141000090AC048D0ED000AB2EE041A00EEC10A73
:101420005FED320AB4EEE00AF1EE10FA17DDD0ED0E
:10143000001A1FED351AB2EE042A01EE821AF0EE00
:10144000410AB14890ED091AB0EE410AB24809F0DC
:1014500019F9BDEEC00AAC4880ED080A3EE0AA4882
:1014600090ED090AAB48D0ED000AB2EE041A00EE86
:10147000C10A5FED440AB4EEE00AF1EE10FA17D2A9
:10148000D0ED001A1FED4A1AB2EE042A11EE821AAC
:10149000F0EE410A9C4890ED091AB0EE410A9E48D0
:1014A00009F0F0F8BDEEC00A974880ED080A15E093
:1014B000984890ED001AF2EE041A21EE211AF0EE8F
:1014C000410A914890ED091AB0EE410A924809F09C
:1014D000D9F8BDEEC00A8C4880ED080A8F4890ED1F
:1014E000091AF0EE410A884890ED021AB8EEC11AC6
:1014F000B0EE410A8A4809F0C5F8BDEEC00A82483C
:1015000080ED050A854890ED0A1AF0EE410A7E4802
:1015100090ED081AB8EEC11AB0EE410A814809F000
:10152000B1F8BDEEC00A784880ED0A0A90ED031AC2
:10153000F0EE410A90ED031AB0EE410AFFF7E6FC27
:101540007148D0ED050AF8EEE00A30EE200ABDEE53
:10155000C00A80ED050A406947F23051884201DD3A
:10156000084601E0684840696749486108464069A3
:101570006D49884201DA084601E0634840696249E2
:1015800048610846806A47F23051884201DD0846CA
:1015900001E05D48806A5C4988620846806A624969
:1015A000884201DA084601E05748806A5649886255
:1015B00010BD10B55948D0ED0A0AB0EE600A01F02E
:1015C0007FFA544890ED000A01F067FA4E48D0EDDA
:1015D000000AF8EEE00AB0EE600A01F04BFAFFF7FD
:1015E00036FE494890ED090ABDEEC00A4F4880ED2D
:1015F000000A10BD01464E4890ED000AF7EE000AC1
:1016000070EEC00A4B4890ED000AB8EEC00A60EEDA
:10161000800A00EE101AB8EEC00A454890ED001A94
:1016200040EE010ABDEEE00A434880ED000A006882
:10163000404A1060404800687047421A00EE902A05
:10164000F8EEE00AB1EE601ADFED3C1AC1EE210AB5
:10165000B0EE001A60EE810A9FED391A60EE810A41
:10166000B0EE600A704770B5024600200021354B8D
:101670001B68934202DA334B1B6800E013461A469C
:10168000304B1B6D934202DD2E4B1B6D00E0134669
:101690001A46002106E02B4B53F83130934200DC10
:1016A00002E0491C0B29F6DB00BF092901DD0923F3
:1016B00000E00B461946234C4B1C04EBC3035B684C
:1016C00004EBC10464681B1B1E4C54F83140A41A7F
:1016D00063431C4C54F8315026464C1C56F8344099
:1016E0002C1B93FBF4F3344604EBC1046468181913
:1016F00070BD014600207047F0EE400AB2EE0E0ABF
:1017000020EE800A7047000044000020000080C5E1
:1017100070000020A0060020F4000020D01200205D
:10172000B200002036010020D08AFFFF40000020D8
:101730008801002080010020840100200000004674
:10174000DA0F494028D70008B0EE401AF7EE001A29
:10175000B0EE610AB0F5FA7F0AD8C349897A322916
:1017600006DDDFEDC21AF4EEE10AF1EE10FA3AD826
:10177000BF4991F83810012907D10321BD4A1170E2
:10178000F6EE001AB0EE610A2DE0B749897A01EE53
:10179000901AF8EE611A70EEE11AF0EE610ADFEDD0
:1017A000B61A9FEDB62A42EE201AB0EE610AF7EEA5
:1017B000001AB4EEE10AF1EE10FA02DDF7EE001ABB
:1017C00001E0F0EE401AB0EE610ADFEDAB1AB4EEC4
:1017D000E10AF1EE10FA02D2DFEDA71A01E0F0EE15
:1017E000401AB0EE610A704710B5FEF76CFE04288F
:1017F0003CD100BFA2480088A0F58060A149B1F9A2
:101800000010401A01280CDD9D480088A0F580607A
:101810000A2806DD9C480088401C00B29A490880CE
:101820001FE097480088A0F580609649B1F9001044
:10183000401AB0F1FF3F0DDA91480088A0F58060B2
:1018400010F10A0F06DA90480088401E00B28E4957
:10185000088006E08A480088A0F5806000B28A49C6
:1018600008808948B0F900008649088010BD10B58D
:101870002DED048BFEF727FE042817D1002013E07E
:101880009FED820A10EE101A00EB4012804B03EB22
:10189000420251609FED7F0A10EE101A00EB4012D9
:1018A00003EB42021162401C0228E9DBFEF70BFE4B
:1018B000042801D1FFF798FF7348B0F90000B0F594
:1018C000E16F02DD4FF4E16002E06F48B0F9000023
:1018D0006D4908800846B0F9000010F5E16F01DAA3
:1018E0006D4802E06848B0F9000067490880084682
:1018F000B0F90000C0EB0010684988606248B0F998
:1019000000004042C0EB0010C860084690ED001A8D
:10191000B8EEC11AF0EE410A90ED021AB8EEC11A03
:10192000B0EE410A5A4808F0ADFEBDEEC00A5B4871
:1019300080ED080A90ED011AB8EEC11AF0EE410AE6
:1019400090ED031AB8EEC11AB0EE410A5048423089
:1019500008F098FE524880ED000A90ED000ABDEEB6
:10196000C00A4E4880ED090AFEF7ADFD052806D1F4
:101970003D48007A18B90020484908624862474843
:10198000D0ED080AF8EEE00AB0EE600AFEF7F0FCCF
:10199000B0EE409A4148D0ED090AF8EEE00AB0EE08
:1019A000600AFEF7E5FC39EE000ABCEEC00A10EE54
:1019B000104A3C48008901EE100AB8EE411AF0EED8
:1019C000410A3848406800EE100A2046FFF7BCFE86
:1019D000354880ED000A314890ED080AB8EEC00A9B
:1019E0003148D0ED000A20EE200AB0EE408A2B48A4
:1019F00090ED090AB8EEC00A2B48D0ED000A20EE9F
:101A0000200AF0EE408ABDEEC80A244880ED080A9C
:101A1000BDEEE80A80ED090A006A42F210718842C0
:101A200002DD08461D4908621C48006A1F498842B9
:101A300002DA0846194908621848406A42F21071F1
:101A4000884202DD0846154948621448406A174931
:101A5000884202DA084611494862BDEC048B10BD89
:101A600010B5FFF704FF10BD0C0400200000484231
:101A700014030020680200200AD7233DE73EBB3C48
:101A8000B00600206A020020560200200AD7233C3C
:101A900090010020007C1248F8F8FFFFE4080020C5
:101AA000640200208914002060020020F0D8FFFFAB
:101AB000FD48B0F90000FC49B1F90810401A0228AD
:101AC00012DAF9480088401C00B2F749088008463D
:101AD000B0F9000000EE100AB8EEC00A084680ED2A
:101AE000010AF2480068C860704710B50446F04823
:101AF0000078012853D102F002FAEE490870084636
:101B00000078012835D1EC48008890B3EB48007A82
:101B1000032809D0EA480078032805D1E748407A2D
:101B2000022801D1FFF7C4FFE04800685021B0FB54
:101B3000F1F201FB1200E0B9E048007A032818D066
:101B4000DE48407A022814D1DC484088A0F5806045
:101B500000EE900AF8EEE00AB0EE600AFEF708FC2C
:101B6000DFEDD80AB4EEE00AF1EE10FA01DDFFF77E
:101B70009FFFD248007A032811D0D148007803286B
:101B80000DD1CE48407A012809D1FEF79CFC0528EA
:101B900005D0207808B9012000E000202070C74857
:101BA000407AC749087010BD10B5C748FFF79DFFC0
:101BB000BD48B0F9000000EE100AB8EEC00ADFED33
:101BC000C30A20EE200AB84880ED050A10BD10B502
:101BD000FEF779FC052820D1BD48007C18B1BD482E
:101BE0004078052805D10020B3490880B64908701F
:101BF00021E0B748007C01281DD1B6484078042870
:101C000019D0B1480078012803D11220AA490880D0
:101C100011E00020A84908800DE00120AE490860CD
:101C2000A9480078012803D11220A349088002E0C6
:101C30000020A149088001F047FAFFF7B5FF9A4854
:101C400090ED050ABDEEC00AA44880ED050A90EDAE
:101C5000001AB8EEC11AF0EE410A90ED051AB8EE7E
:101C6000C11AB0EE410A9E4808F00CFDBDEEC00A54
:101C700010EE100A00B2994908839A480088C0F50E
:101C80007A70914909784843C0F57A70964908807E
:101C90009248B0F9100001EE100AB8EEC11AF0EE49
:101CA000410A8E48B0F9180001EE100AB8EEC11AC8
:101CB000B0EE410A8D4808F0E5FC884880ED070A3F
:101CC00010BD70B504460D4616467C48007C0128C0
:101CD00007D136B9754800888549088000208549B4
:101CE0000870601B00EE900AF8EEE00AB0EE600AA1
:101CF000FEF73EFBF0EE000AB4EEE00AF1EE10FA59
:101D00000ED27C48007801280AD001207949087059
:101D100066480088784908807548008877490880B7
:101D20007548008875490988401A80B270BD142032
:101D30005D4908830A215C48817670477047704787
:101D400070B504460D4629686869401A6C490860F8
:101D5000084690ED000AB8EEC00AFEF709FBF1EE66
:101D6000080AB4EEE00AF1EE10FA14DDB5F910003D
:101D700000EE900AF8EEE00AB0EE600AFEF7F8FA1C
:101D8000F2EE040AB4EEE00AF1EE10FA03D2606A51
:101D9000401C606201E000216162606A642807D92A
:101DA00094F8200020B9012084F8200055490870DB
:101DB00094F82000012848D152480078012804D026
:101DC000022811D003283FD12CE0286832384E4930
:101DD0000860084690ED000AB8EEC00A84ED050AD6
:101DE0000220484908702FE0474890ED000AB8EEFD
:101DF000C00A84ED050A444928680968401A00EEC3
:101E0000900AF8EEE00AB0EE600AFEF7B1FADFEDF4
:101E10003F0AB4EEE00AF1EE10FA02D2032039498B
:101E2000087011E0002084F82000364908702089ED
:101E30002080B4F9000000EE100AB8EEC00A84ED6C
:101E4000010A0021616200BF00BF70BD10B5137BA5
:101E5000D47A43EA04231BB28B80947B537B44EAFD
:101E600003231BB20B828B898C881B1B1BB2CB817B
:101E7000B1F90E30B3F5805F04DD8B6803F50053D4
:101E80008B6008E0B1F90E3013F5805F03DA8B68E0
:101E9000A3F500538B60B1F904408B68234400EE36
:101EA000103AB8EEC00A33E00C090020700400209C
:101EB000F9020020F8020020EC030020B006002008
:101EC000090300200000C842F0020020BC749341C6
:101ED00078140020C8060020B402434234090020D0
:101EE0006C020020F2020020F4020020AE0200206A
:101EF000060300200003002004030020020300204A
:101F00000C03002010030020FC02002000002042EF
:101F1000DFED0C0A80EE201ABDEEC10A81ED000A49
:101F20008B888B8191ED000AB8EEC00A5FED190A2B
:101F300080EE201ABCEEC10A10EE103A1BB20381EB
:101F400010BD000000007A4401884FF6FE729142F5
:101F500002DA0188491C0180704700210180704726
:101F6000034602EB42004000984202DA012008706A
:101F700001E00020087008787047524931F81010CD
:101F8000491C8AB24F4921F81020704700200AE00E
:101F90004C4931F810201A3921F8102000221A314A
:101FA00021F81020401C0D28F2DB704710B5464880
:101FB00000684FF47A71B0FBF1F201FB120008B92E
:101FC000FFF7E4FF002411E03E49423901EB4400F1
:101FD000FFF7BAFF3B4B5C3B33F81420343319193D
:101FE0001A3B33F81400FFF7BBFF641C0D2CEBDB2E
:101FF00034485C3890F83900012802D10020334978
:10200000087033480078012823D12E485C3890F8B6
:102010003500012809D12C480068B0F5FA6F04D9C1
:1020200001202C4908602C490880FEF74CFA05284D
:102030000FD008200BE023492839095C012905D17C
:10204000891E244A116001B2234A1180401C0C28C9
:10205000F1DD1C485C3890F83600012815D1FEF7F8
:1020600032FA012806D0FEF72EFA18B1FEF72BFA45
:10207000022803D10320FEF795F906E0FEF723FAC4
:10208000052802D00520FEF78DF91448C07CA0B9C0
:102090001248807C88B91148B0F90A0000EE900A15
:1020A000F8EEE00AB0EE600AFEF762F9F0EE080A18
:1020B000B4EEE00AF1EE10FA02DD002004490870E7
:1020C00010BD000070030020700400202C150020BB
:1020D0008A030020900300208C030020B00600201B
:1020E000704770B52DED088B04469FEDFE0AB0EEEB
:1020F000408A00EE104AB8EEC00ADFEDFB0A80EE1F
:10210000201A11EE105A28460BF092FA41EC1B0BE4
:10211000B0EE4B0AF0EE6B0A09F00EFDB0EE40AAED
:10212000F0EE60AA9FEDF10B53EC102B51EC1A0B63
:102130000AF088FF41EC190B0AF0B0FC08EE100A17
:10214000EC4880ED008AB2EE080AB4EEC08AF1EEE7
:1021500010FA02DDB2EE080A01E0B0EE480AB0EE75
:10216000408ABAEE080AB4EEC08AF1EE10FA02D242
:10217000BAEE080A01E0B0EE480AB0EE408AB0EECE
:10218000480ABDEC088B70BDDB4A01FB012300EE61
:10219000903A01EE902AF8EEE11AB8EEE02AC1EE8C
:1021A000822AB0EE621ADFEDCF1AB0EE610A01EEBC
:1021B000900AF8EEE11A61EE811A9FEDCB2AC1EE8A
:1021C000822AB0EE620ADFEDCD1A60EE211AB0EE7F
:1021D000610A7047CA4991ED000ADFEDCA0A60EE54
:1021E000200A00EE100AB8EE400A9FEDC71A41EE31
:1021F000000AC1ED000A91ED000ADFEDC40AB4EE59
:10220000E00AF1EE10FA03D20021C14A117023E076
:10221000BB4991ED000ADFEDBF0AB4EEE00AF1EE32
:1022200010FA0CDD91ED000ADFEDBB0AB4EEE00A16
:10223000F1EE10FA03D20121B54A11700CE0B04959
:1022400091ED000ADFEDB50AB4EEE00AF1EE10FA06
:1022500002DD0221AE4A1170AD49097821B1012990
:1022600021D002295DD13DE01021AD4A1180A44961
:1022700091ED000ADFEDA80AB4EEE00AF1EE10FAE3
:1022800003DD0221A24A11700CE09D4991ED000A84
:10229000DFEDA00AB4EEE00AF1EE10FA02DD012152
:1022A0009B4A11703DE015219D4A1180944991EDA2
:1022B000000ADFED9A0AB4EEE00AF1EE10FA03DD4F
:1022C0000221934A11700CE08D4991ED000ADFED77
:1022D0008F0AB4EEE00AF1EE10FA02D200218C4A25
:1022E00011701EE01A218E4A1180854991ED000A75
:1022F000DFED880AB4EEE00AF1EE10FA03D2002115
:10230000834A11700CE07E4991ED000ADFED820AEC
:10231000B4EEE00AF1EE10FA02D201217C4A11700B
:1023200000BF00BF704710B52DED088B0446F0EEDE
:10233000409AB0EE608A9FED7B0AF0EE408A9FEDF6
:102340007A0AB4EEC08AF1EE10FA03DD9FED760A48
:10235000B0EE408A9FED750AB4EEC08AF1EE10FA35
:1023600003D29FED720AB0EE408A19EE900A0BF08C
:102370005FF941EC1B0B9FED6E0B53EC102B0AF039
:102380005FFF03D29FED6C0AF0EE409A6B4890ED30
:10239000000AC9EE800A9FED6A1A9FED6A0AB0EE44
:1023A00040AA00EE81AA28EE0A9AB4EEE89AF1EE6D
:1023B00010FA01DDB0EE689AB1EE680AB4EEC09A88
:1023C000F1EE10FA03D2B1EE680AB0EE409A94ED45
:1023D000000A30EE090A84ED000ABDEC088B10BD3E
:1023E00030B52DED108B81B00446F0EE408AB2EE90
:1023F000020AF4EEC08AF1EE10FA03DDB2EE020A30
:10240000F0EE408A94ED000ADFED4F0A30EEC00A8C
:10241000DFED4E0A20EE20FA1FEE100A0BF008F94D
:1024200041EC1A0BB0EE4A0AF0EE6A0A09F01CFE03
:10243000B0EE409AF0EE609A51EC190B0AF02EFBC8
:1024400008EE100A9FED270A8DED000A9FED250A80
:10245000F0EE40FA1FEE100A0BF0EAF841EC1B0B0D
:102460009FED3B0A68EE800AB7EE000A08EE480AC4
:1024700020EE800A3748D0ED000A08EE600AD0ED61
:10248000000A80EE201A11EE105A28460BF0D0F800
:1024900041EC1E0BB0EE4E0AF0EE6E0A09F000F9A8
:1024A000B0EE40DAF0EE60DA51EC1D0B0AF0EAFA19
:1024B00041EC1C0B53EC1B2B0AF022FB41EC1A0BDA
:1024C0009FED250B53EC102B0AF0BCFD41EC190BD2
:1024D0000AF0E4FA00909DED000ADFED210A20EEFB
:1024E000200A3FE0000000000080B64400000060C9
:1024F00066A64C40940300209086200000007242A3
:10250000E40300209A99193FCDCCCC3E0000A543AE
:10251000E80300200000B943000002440000114419
:10252000EC0300200000B4420000FA430000FAC3AC
:1025300066666666666616403333B340A0030020C5
:10254000AE47913F295C8F3D00D03E458010493A0F
:10255000CDCC1C41A4030020000000000000E03F9F
:1025600033336542F0EE40FA9FEDFE0A2FEE800A0B
:102570009FEDFD1AC0EE010A1FED0D0A30EE600A54
:1025800084ED000AB0EE6F0A01B0BDEC108B30BDD7
:1025900001464F2901DD4F2200E00A461146F34A69
:1025A0001288521A10B2002802DA00F1500200E03C
:1025B000024610B2EE4A02EB800292ED000A70472A
:1025C00001464F2901DD4F2200E00A461146E94A43
:1025D0001288521A10B2002802DA00F1500200E00C
:1025E000024610B2E44A02EB800292ED000A704704
:1025F000DFEDE20AB4EEE00AF1EE10FA03DDDFED02
:10260000DF0AB0EE600ADFEDDE0AB4EEE00AF1EEBA
:1026100010FA03D2DFEDDB0AB0EE600A322800DDEB
:10262000322010F1320F01DA6FF0310000EB80013F
:102630004900D54A116000EE900AF8EEE00A70EE0B
:10264000800AB2EE041A60EE810AD049C1ED060A92
:10265000D1ED070A1FED551A60EE810A91ED061AB9
:102660005FED571A41EE810AC1ED070AD1ED060A66
:10267000B2EE041A60EE810AFDEEE00AC449C1ED33
:10268000000AC249D1ED070AB2EE041A60EE810ACF
:10269000FDEEE00ABF49C1ED000A7047014663291B
:1026A00001DD632200E00A461146BB4A1288521A35
:1026B00010B2002802DA00F1640200E0024610B213
:1026C000B64A02EB800292ED000A704770B52DED1C
:1026D0000A8B05460C46FDF7F6FE05280AD1B048E0
:1026E000007C38B1AF484078042803D1A749488816
:1026F000FFF770FDAC48008878B1AB48008800EE69
:10270000100AB8EE400AA94880ED000A90ED000AD0
:1027100020EE000AA64880ED000AA64890ED0A0ABD
:10272000F2EE040A20EE200ABDEEC00AA24880EDB7
:10273000000AA24890F83900012803D100209349EB
:1027400048700870FDF7BFFE052817D18F48007844
:10275000012813D18D484088B0F5617F0EDC01203F
:102760008A4981F822006420954948614042086105
:102770006420944948614042086103E00020834995
:1027800081F8220081480078012809D18E4800781C
:10279000142808DA8C480078401C8B49087002E045
:1027A0000020894908700A2087490870774991F804
:1027B0002010481DFFF772FF744880ED050A90ED68
:1027C000050AF2EE040A20EE200ABDEEC00A7F4898
:1027D00080ED000A6D4A1289A2F2C53211B26B4A2D
:1027E000B2F91000FFF7D0FC794880ED000A764876
:1027F000007803280FDD6548D0ED050AB0EE600AC9
:102800007348D0ED000AFDEEE00A10EE900A00B227
:10281000FFF7EEFE04E000201FEDCE0AFFF7E8FE12
:10282000694800780A2810DA6748007800EE100A34
:10283000F8EE400AB2EE041A80EE810A5348D0ED59
:10284000070A20EE200A80ED070A504890F822007F
:1028500001287DD14D48408800EE100AB8EE400AAC
:10286000F2EE010A80EE801A11EE106A30460AF08C
:10287000DFFE41EC1C0BB0EE4C0AF0EE6C0A09F0E6
:102880005BF9B0EE40BAF0EE60BA9FED520B53EC3C
:10289000102B51EC1B0B0AF0D5FB41EC1A0B0AF084
:1028A000FDF808EE900A394991F82110083988B2EC
:1028B000FFF786FEF2EE040A20EE200AB0EE408A10
:1028C000BDEEC80A454880ED000A304991F8211054
:1028D000491F88B2FFF75CFEB0EE409A2B49098988
:1028E000A1F2C53108B2FFF7FCFBB2EE041AF0EE1C
:1028F000480A40EE010A30EEE80A85ED000A234955
:102900004989A1F51C7108B2FFF7EBFBDFED150A51
:1029100060EE200A9FED141A80EE810A39EE400A1B
:1029200084ED000A194890ED010ADFED2D0A80EED2
:10293000201AF0EE419AB0EE690A2046FFF750FDEA
:10294000284880ED000A114800892749088000E0E6
:102950008DE00E484088B0F5C87F5BDA0B484088B0
:1029600044E00000000000460000B443CC03002017
:1029700054090020CE030020940A002000004842A1
:10298000000034C2000048C2B00300202C15002013
:10299000B4030020B8030020D0030020D40B002093
:1029A00078140020C8060020EC030020A0030020BB
:1029B000A4030020D0120020BC0300201403002038
:1029C000B200002036010020CA030020A803002026
:1029D000AC0300200000000000E88140C403002098
:1029E0000000C84298030020C803002000EE100A2F
:1029F000B8EE400A5FED060A80EE201AF0EE419A2A
:102A0000FE4890ED070AF0EE400AB0EE690A28464B
:102A1000FFF789FC94ED000ADFEDF90AB4EEE00A55
:102A2000F1EE10FA02DD9FEDF60A01E094ED000AE6
:102A300084ED000A94ED000ADFEDF20AB4EEE00A3C
:102A4000F1EE10FA02D29FEDEF0A01E094ED000AD8
:102A500084ED000A95ED000AEB48D0ED000AB2EED5
:102A6000041A00EEC10AE94880ED000A00BFBDEC7F
:102A70000A8B70BDE648E749098800EB810080EDCC
:102A8000000AE4480088401CE249088008460088A3
:102A9000502801DB002008807047DF48DF490988A3
:102AA00000EB810080ED000ADC480088401CDB4917
:102AB000088008460088502801DB00200880704705
:102AC000D748D849098800EB810080ED000AD54835
:102AD0000088401CD349088008460088642801DB30
:102AE00000200880704710B52DED088B0446F0EEED
:102AF000409AB0EE608A9FEDCC0AF0EE408A9FEDDE
:102B0000CB0AB4EEC08AF1EE10FA03DD9FEDC70ADE
:102B1000B0EE408A9FEDC60AB4EEC08AF1EE10FA1C
:102B200003D29FEDC30AB0EE408A1FED720A28EE71
:102B3000000ADFEDC00A80EE201AB0EE418A19EEDD
:102B4000900A0AF075FD41EC1B0B9FEDBB0B53EC9B
:102B5000102B0AF075FB03D29FEDB90AF0EE409AF4
:102B6000B84890ED000AC9EE800A9FEDB71A9FEDB4
:102B7000B70AB0EE40AA00EE81AA28EE0A9AB4EE97
:102B8000E89AF1EE10FA01DDB0EE689AB1EE680A4B
:102B9000B4EEC09AF1EE10FA03D2B1EE680AB0EECC
:102BA000409A94ED000A30EE090A84ED000ABDEC6B
:102BB000088B10BD70B52DED088B0446B0EE408A31
:102BC00000EE104AB8EEC00AC8EE000A10EE905AA5
:102BD00028460AF02DFD41EC1B0BB0EE4B0AF0EE3F
:102BE0006B0A08F0A9FFB0EE40AAF0EE60AA51EC23
:102BF0001A0B09F053FF09EE100AB0EE490AFDF76F
:102C0000B7FBF3EE090A20EE200AF0EE408AB0EEA0
:102C1000680ABDEC088B70BD2DE9F0412DED0A8BE3
:102C2000B0EE409A04460D460026642104FB01F0F4
:102C3000C11700EB11710911491D09EE901A00EE40
:102C4000105AB8EEC00ADFED820A80EE201A11EEAB
:102C5000107A38460AF0ECFC41EC1C0BB0EE4C0A42
:102C6000F0EE6C0A08F068FFB0EE40BAF0EE60BA21
:102C70009FED780B53EC102B51EC1B0B0AF0E2F993
:102C800009F00CFF08EE100AB8EEE90A20EE090A76
:102C9000DFED720A80EE201AF0EE418A202C3FDD33
:102CA000292C1EDDB0EE490AFDF762FBF0EE400A6A
:102CB0009FED6B0AB1EE001A00EE810AA4F1280024
:102CC00000EB8000000100EE900AF8EEE00A30EE22
:102CD000200ABDEEC00A10EE100A00B26149088059
:102CE0005EE0B0EE490AFDF743FBF0EE400A9FEDCF
:102CF0005E0AB0EE001A00EE810AA4F1140000EBA7
:102D00008000C00000EE900AF8EEE00A30EE200AE3
:102D1000BDEEC00A10EE100A00B2524908803FE032
:102D2000B0EE490AFDF724FBDFED3F0AB4EEE00AFE
:102D3000F1EE10FA03D24FF496704A490880B0EED3
:102D4000490AFDF715FBDFED490AB4EEE00AF1EEA2
:102D500010FA04D24FF4FA704249088020E0B0EE35
:102D6000490AFDF705FBDFED420AB4EEE00AF1EE99
:102D700010FA04D24FF42F703A49088010E0B0EEF8
:102D8000490AFDF7F5FADFED3B0AB0EE001A40EE16
:102D9000010ABDEEE00A10EE100A00B231490880C7
:102DA000282C00DD2824B2EE040A28EE000ABDEE2D
:102DB000C00A10EE100A00B22F490880B2EE040AD1
:102DC00028EE800ABDEEC00A10EE100A00B22B49B0
:102DD000088038EE880AF2EE040A20EE200ABDEEE2
:102DE000C00A10EE100A00B22549088078EE880A61
:102DF000B0EE600AFDF7BCFA44E000002C1500209C
:102E00000050464500A0F144A0060020C003002069
:102E100054090020CC030020940A0020CE03002097
:102E2000D40B0020D00300200000204200001643F5
:102E3000000016C300006145666666666666164059
:102E40003333B340A0030020CDCC8C3F0AD7A33D41
:102E500066E6E7440000006066A64C4000401C4661
:102E600000007A44E2030020000016440000704293
:102E70000000024300002F44E0030020DE03002096
:102E8000DC030020B0EE40AA9FED530A2046FFF776
:102E900091FEB4EEC0AAF1EE10FA38D24F48007895
:102EA000401C4E49087008460078322801DD322067
:102EB00008704A48007802282CDD494890ED031A32
:102EC000D0ED000AF8EEE00A71EE600AB0EE600A9A
:102ED000FDF74EFAF3EE070AB4EEE00AF1EE10FA4F
:102EE00018D2404890F83900A0B93F48D0ED070A01
:102EF000B0EE600AFDF73CFADFED3C0AB4EEE00A02
:102F0000F1EE10FA06D22E2C04DC012602E000209D
:102F1000324908703046BDEC0A8BBDE8F08110B52F
:102F2000314890F82200012813D12F4A1289A2F2C9
:102F3000C53211B22C4A528810B22B4AD2ED060A81
:102F4000B0EE600AFFF768FE012800D110BD002036
:102F5000FCE70020FAE710B50024224890F8390079
:102F6000A8BB21484089A0F51C7000EE900AF8EE3D
:102F7000E00AB0EE600AFDF7FBF9F3EE0E0AB4EEDC
:102F8000E00AF1EE10FA24D217480089A0F2C53009
:102F900000EE900AF8EEE00AB0EE600AFDF7E8F9FC
:102FA000F1EE040AB4EEE00AF1EE10FA11D20E4886
:102FB000D0ED060AB0EE600AFDF7DAF95FED660AB9
:102FC000B4EEE00AF1EE10FA03D2012401E0FFE7CB
:102FD0000024204610BD00003333B33EE903002037
:102FE00044000020140300202C1500200000CD43D5
:102FF000282801DA282200E00246104640F65A222C
:10300000904200DD00E0024610462D4A12888242BE
:1030100008D12B4A1288821A02EB420212B2294BC3
:103020001A804CE0264A1288824220DA244A12880A
:10303000821A02EB420212B2224B1A801A46B2F9ED
:103040000020322A01DA322202E01E4AB2F90020C0
:103050001C4B1A801A46B2F900208A4201DD0A464A
:1030600002E0184AB2F90020164B1A8027E0144AF1
:103070001288824223DD124A1288821A02EB42022F
:1030800012B2104B1A801A46B2F9002012F1320F18
:1030900002DD6FF0310202E00A4AB2F90020094B6A
:1030A0001A801A46B2F900204B429A4201DA4A428B
:1030B00002E0044AB2F9002012B2024B1A807047B3
:1030C00006070020560200207348007C18B9002033
:1030D000724908600AE07148006841F2883188420C
:1030E00004D26E480068401C6C4908606B48006858
:1030F000B0F57A6F02D200206949088068480088DC
:1031000000B268490880664800880C2804DA4FF449
:103110007A70634988800BE06348008800F25B4066
:103120005F4909880A3901EB810108445C498880BC
:103130005B4800895A498988401A012805DB5848AC
:103140000089401E564908810AE0554800895449C3
:103150008988401A04D552480089401C504908818A
:103160004F480089514908604D480089091D086091
:1031700070474F494F4A128821F812004D4909887B
:10318000491C4C4A118011460988962901DB00210F
:10319000118070470246952A01DD952000E0104617
:1031A000024644480088801A01B2002902DA01F17F
:1031B000960000E0084601B23D4830F91100704722
:1031C00010B52DED028BB0EE408AB2EE040A28EE67
:1031D000000ABCEEC00A10EE100A374908803048D9
:1031E000008800EE900AF8EE600A78EE600AB0EE11
:1031F000600AFDF7BDF8F7EE000AB4EEE00AF1EE62
:1032000010FA08DD2648008828B12C480088401CA8
:103210002A49088002E000202849088027480088C1
:10322000012833DD7820FFF7B5FF00EE100AB8EE75
:10323000C00A1B48008800EE900AF8EE600A70EEA3
:10324000C80AB0EE001A00EE810ABDEEC00A10EE08
:10325000100A00B2144908800846B0F9000023287B
:1032600001DD232002E01048B0F900000E4908807B
:103270000846B0F9000010F1230F02DA6FF02200C7
:1032800002E00948B0F9000007490880BDEC028B54
:1032900010BD01467047000078140020FC03002098
:1032A000EC03002008040020F80300203C0C004040
:1032B000640D00200004002002040020040400200B
:1032C00010B5FC480078FC490870FC4800684FF4D1
:1032D000FA71B0FBF1F201FB1200A8BBF8480088BC
:1032E000002804DDF6480088401EF5490880F548AE
:1032F0004088B0F5C87F0EDBF2484088F249098863
:10330000081A1E2803DB0120F049087011E0002094
:10331000EE4908700DE0EB484088EB490988081A2F
:10332000142803DB0120E949087002E00020E74986
:103330000870E3480088002802DD0020E349087097
:10334000E0484088E0490880E148007830B1012831
:103350003DD0022847D003287ED145E0A020DD499A
:103360008872DD48007801280FD14FF47A7140F25D
:103370000460FFF73DFED948008840F2D2518842F0
:103380000FDD0020D44908700BE04FF47A71002063
:10339000FFF72EFED1480088322802DA0120CE49FC
:1033A0000870C4480078012810D1C248408840F213
:1033B000EE2188420ADC0120C5490870C648007821
:1033C00008B9012000E00020C34908704AE000204D
:1033D000C3490880C3480068B0F5487F02D900207F
:1033E000BB4908703EE03DE0BF480068401CBE4954
:1033F00008605A20B749887240F2DC510020FFF77C
:10340000F7FDB548007801280FD140F2DC5140F6B5
:103410007E10FFF7EDFDB148008840F2DC51884294
:103420000FDD0020AC4908700BE040F2DC510020B9
:10343000FFF7DEFDA9480088282802DA0120A64906
:103440000870A9480068B0F5FA6F09D30020A649B2
:1034500008609F49087000E003E00120A34908705C
:1034600000E000BF00BFA248007810B101285CD185
:103470005CE090480078012813D18E48408840F2E3
:10348000EE2188420DDC012099490870994890EDA1
:10349000000AF2EE040A20EE200A974880ED090A9D
:1034A00039E09448D0ED000A9FED940AB2EE041A78
:1034B00000EE810A904880ED090A9148007810B129
:1034C000012827D113E09FED8F0A8B4880ED030A76
:1034D0008D480068401C8C49086008460068FA283E
:1034E00004D90020086001208549087012E09FED92
:1034F000870A814880ED030A85480068401C84499A
:10350000086008460068FA2803D9002008607C4952
:10351000087000BF00BFA0207E494861404208619A
:1035200096207D494861404208613CE0502079493D
:10353000486140420861642077494861404208611F
:103540005C480078012809D15A48408840F2EE21B1
:10355000884203DC00206349086004E06148006899
:10356000401C604908605F480068B0F5487F02D998
:1035700000205F490870514800685021B0FBF1F20B
:1035800001FB120070B957480068B0F5C87F09D236
:1035900000F0B5FC012805D160480078012801D170
:1035A000FEF786FA00BF00BF5D4800685D4908600D
:1035B00010BD0146B1F5127F01DC0120704740F2D9
:1035C0006260814201DC0220F8E70320F6E710B5D3
:1035D0000446012C04D0022C22D0032C67D142E0F7
:1035E0005148007801280ED14FF47A714FF41270CF
:1035F000FFF7FEFC39480088B0F5037F0FDD00209F
:10360000494908700BE04FF47A710020FFF7F0FC95
:1036100032480088462802DA01204349087046E013
:103620004248007801280FD14FF47A7140F262606D
:10363000FFF7DEFC2948008840F22661884211DD50
:1036400000203A4908700DE04FF47A714FF412707F
:10365000FFF7CEFC21480088B0F5217F02DA012077
:103660003249087023E03248007801280FD14FF426
:103670007A7140F67E10FFF7BBFC1848008840F6D0
:103680004211884212DD0020294908700EE04FF4F3
:103690007A7140F26260FFF7ABFC1048008840F29C
:1036A0009E61884202DA01202149087000BF00BFF4
:1036B00010BD00002C1500203104002070040020F3
:1036C00028040020781400203A0400202004002060
:1036D0000A0400200C040020380400200607002003
:1036E000560200202C0400203C0400202A04002064
:1036F0000B040020A006002044000020000020430E
:103700003904002000002F45400400200000FA4446
:1037100044040020B200002036010020F002002006
:103720002404002034040020480400204904002020
:103730004A04002010B5FE480078052844D2DFE88E
:1037400000F00344596F9D000120FA4908720846B1
:10375000C088F9490988884204DD4FF46170F7494F
:10376000088009E0F348C088F3490988884203DAF1
:103770004FF67C40F1490880EE48C088EE49098840
:10378000401A00EE900AF8EEE00AB0EE600AFCF78C
:10379000EFFDDFEDEB0AB4EEE00AF1EE10FA13D222
:1037A000E448C08818B90120E14908700CE0E148FC
:1037B000C08840F67E11884203D10220DC4908709F
:1037C00002E00320DA490870B3E0DB4800880028F3
:1037D00003DD4FF67C40D94908800020D5490872A6
:1037E000D54890F9040010F10A0F02DB0420D049FB
:1037F00008709EE0D048008840F67E11884203DAC7
:103800004FF46170CD4908800020CA490872CA4847
:1038100090F904000A2802DC0420C549087088E0F9
:103820000020C44908720846C07A40B9C2480088DE
:10383000C98888420CDB0420BD49087008E0BE48F6
:103840000088BC49C988884202DC0420B849087055
:10385000B94890F9040000EE900AF8EEE00AB0EEE4
:10386000600AFCF785FDDFEDB70AB4EEE00AF1EE81
:1038700010FA02D20420AE4908705AE0B24800683B
:1038800007F0DEFD00BFFCF703FDAA498988A94ABD
:103890005288891A90FBF1F201FB1200A549498870
:1038A0000844A449C8800846C088A3490988401A2A
:1038B00000EE900AF8EEE00AB0EE600AFCF758FD60
:1038C000DFEDA20AB4EEE00AF1EE10FA00D2DAE778
:1038D0009848C08840F67E11081A00EE900AF8EE6B
:1038E000E00AB0EE600AFCF743FDDFED990AB4EEA2
:1038F000E00AF1EE10FA04D240F67E108D49C8803D
:1039000006E08C48C088FA2802DA00208949C8807D
:103910008848C08888490988884203DD0120854994
:10392000C87202E000208349C872002080490870F4
:1039300000BF00BF10BD8748007820B101282DD0FE
:1039400002287DD153E07C480088002803DD4FF633
:10395000E0407A4908807848807818B17648008835
:10396000642803DA00207349087202E001207149DB
:103970000872714890F9040010F10A0F0DDD6E48CD
:103980000088C82809DA7448007818B901207149FC
:10399000087002E002206F49087051E06648008814
:1039A00040F67E11884203DA4FF44870634908807C
:1039B0006148C07828B16048008840F61A118842F2
:1039C00003DD00205B49087202E0012059490872BA
:1039D000594890F904000A2808DA5748008840F648
:1039E000B601884202DD00205A49087028E052489A
:1039F000008840F2DC51884203DA4FF448704F49A6
:103A000008804D48008840F2DC51081AB0F5967FD6
:103A100012DA002047490872474890F90400282824
:103A200006DB4548008840F2DC51081A3C2806DADB
:103A300000204849087002E001203E49087200BF9A
:103A400000BF704710B53B48007830B101281AD04C
:103A500002282DD0032853D12EE0FFF76CFF3F48FA
:103A60000078012805D13E48007C10B10220314980
:103A700008703048C0683B490968884202D003207A
:103A80002C4908703CE000202A4908720846C068AA
:103A900034490968884202D0032026490870254825
:103AA0000069B0F5487F02D900202249087027E05C
:103AB00001202049087023E02B480068401C2A4957
:103AC0000860FFF737FE26484088B0F5C87F0BDB5B
:103AD0002548006842F21071884210D9002022491E
:103AE0000860144908700AE01F48006847F2305126
:103AF000884204D900201C4908600E49087000BFA4
:103B000000BF0C48C06817490968884206D040F6D3
:103B1000B830164908600320064948720548C06855
:103B2000104908601148006828B3104800681FE079
:103B3000650400200C040020060700205602002027
:103B40000000AF4300002042700400200000164433
:103B500000007A4364040020300400202C1500206B
:103B6000781400204C040020580400205004002049
:103B7000401E8E4908608D48006818B9A0208C4905
:103B800048720CE089480068012808D189480089FA
:103B9000322804DD8748007A3238854988728648A1
:103BA00000683221B0FBF1F201FB1200E8B9804855
:103BB000807A7F49497A88420DDA7F480068C821B7
:103BC000B0FBF1F201FB120078B97948807A401C11
:103BD0007749887209E07648807A7549497A88423F
:103BE00003DD7348407A724988727148407810B199
:103BF00001285CD15CE071480078012813D16F483E
:103C0000408840F2EE2188420DDC0120684948706E
:103C10006B4890ED000AF2EE040A20EE200A694893
:103C200080ED090A39E06648D0ED000A9FED660A8A
:103C3000B2EE041A00EE810A624880ED090A634878
:103C4000007810B1012827D113E09FED610A5D488B
:103C500080ED030A5F480068401C5E490860084622
:103C60000068FA2804D9002008600120574908702C
:103C700012E09FED590A534880ED030A5748006847
:103C8000401C5649086008460068FA2803D90020FD
:103C900008604E49087000BF00BF8C205049486141
:103CA000404208618C204F4948614042086151E020
:103CB00064204B4948614042086164204949486199
:103CC000404208613D480078012809D13B484088BE
:103CD00040F2EE21884203DC00203549086104E00F
:103CE00033480069401C3249086131480069B0F529
:103CF000487F02D900202E49487064243A48008841
:103D0000122801DA3C2406E037480088172801DA37
:103D1000642400E0782428480068B0FBF4F104FB38
:103D20001100B0B922480069B0F5C87F11D200F087
:103D3000E6F801280DD12C48008850B12B48007CB2
:103D4000012806D12A480068B0F57A6F01D9FDF73D
:103D5000AFFE00BF00BF10BD0188B1F5007F17D1D5
:103D60008179FE2914D1C1795A2907D10121214A2B
:103D7000117040F204610E4A918009E0C179A529D1
:103D800006D100211B4A117040F67E11084A91802D
:103D9000704721B9064AD268521C054BDA600329E4
:103DA00002D10422144B1A807047000050040020F6
:103DB0000C04002089140020700400202C15002021
:103DC000A00600204400002000001B4354040020F3
:103DD00000C041455C04002000C00F456004002085
:103DE000B200002036010020EC03002078140020EF
:103DF000FC030020300400202804002061480088D3
:103E00006149098888420CD05E48D0ED010A5F48BC
:103E1000D0F8020000EE100A30EE800A594880ED1A
:103E2000010A4FF4F07057490881594800686E2123
:103E3000B0FBF1F201FB1200F0BB5248D0ED010AD9
:103E40000089400000EE100AB8EEC00AF4EEC00A85
:103E5000F1EE10FA09DD4B480089400000EE100A2F
:103E6000B8EEC00A474880ED010A464890ED010AC5
:103E7000F3EE000A30EE600A80ED010A90ED010ACF
:103E8000B5EEC00AF1EE10FA02D29FED420A02E04E
:103E90003C4890ED010A3B4880ED010A3E484089CC
:103EA00000EE100AB8EE400A3648D0ED010A30EEB6
:103EB000600AF2EE040A00E016E0B4EEE00AF1EE69
:103EC00010FA08DB3448408900EE100AB8EE400AC8
:103ED0002C4880ED010A2B4890ED010ABCEEC00A87
:103EE00010EE100A2D4908802648008826490880CF
:103EF000704724480088401C2249088070472848A1
:103F000090F8380020BB1F4890ED010ADFED250A2C
:103F100070EEC00A2448B0F90000400000EE100A1C
:103F2000B8EEC00AF4EEC00AF1EE10FA01DD01208D
:103F300070471E4800891D4908800846B0F90000F6
:103F400000EE100AB8EEC00A084680ED010A16E03D
:103F50001548B0F90000A02393FBF0F0401E01B219
:103F60004FF47A7090FBF1F002B21048C068084B31
:103F70001B68181A904201D30120D9E700BF002026
:103F8000D6E70000900E002068040020A71400204F
:103F90007004002000000000891400206604002046
:103FA000140300200000F043080400200C09002046
:103FB00010B54FF4A06002F01BF8A82000F078F9CB
:103FC00000F050FA00F0F6F900F0DFFA642000F09B
:103FD000D1F9002000F0FAFA012000F0F7FA0220EF
:103FE00000F0F4FA032000F0F1FA00F03BF800F0E2
:103FF000CBF805F01BF90021084600F048FD044607
:104000002146092000F0ECFC00F094FB00F0FAFAE5
:1040100000F060FD114800F07DFE4FF4E13001F04A
:10402000F5FA4FF4FA2001F03FFE4FF4E13001F0D1
:104030006BFC00F0ADFD4FF4FA7000F09BF905F059
:1040400077FE00F011FE4FF4FA7000F093F900F0E3
:104050002EFE01200249087010BD0000A08601005C
:104060006A04002000B58BB00121082003F023FA78
:104070000121480603F066FA0121480603F0B7FA69
:1040800000214FF0007003F0B2FA032009900220E3
:104090008DF8280000208DF82A0003208DF82900D3
:1040A00001208DF82B0009A9354802F063FF092291
:1040B0000021334802F0E9FF09220121304802F0D3
:1040C000E4FF00208DF81E0001208DF81F00002065
:1040D0008DF820008DF821008DF822008DF8230046
:1040E0008DF81A008DF81B0008208DF81C000320A5
:1040F0008DF81D00ADF8180006A9224802F001F85D
:1041000000208DF812008DF8130001208DF81400A6
:104110000020ADF80800ADF80A00ADF80C00ADF8CD
:104120000E00ADF8100001208DF8150002A802F075
:1041300072F801220221134802F06CFB14208DF862
:10414000040001208DF8050000208DF806000120F4
:104150008DF8070001A801F050FF0BB000BD00B5BD
:1041600085B00221074802F0BDFB30B102210548AD
:1041700002F053FC684604F0D5FD05B000BD000018
:10418000000C02400064004000B58BB00121022009
:1041900003F091F90121880603F0D4F90121880682
:1041A00003F025FA00214FF0806003F020FA4FF46D
:1041B0004050099002208DF8280000208DF82A0038
:1041C00003208DF8290001208DF82B0009A936481D
:1041D00002F0D0FE09220C21334802F056FF0922DA
:1041E0000D21314802F051FF00208DF81E00012002
:1041F0008DF81F0000208DF820008DF821008DF82B
:1042000022008DF823008DF81A008DF81B0008207D
:104210008DF81C0003208DF81D00ADF8180006A9CC
:10422000224801F06EFF0E208DF8120000208DF85C
:10423000130001208DF814000020ADF80800ADF83F
:104240000A00ADF80C00ADF80E00ADF8100001202A
:104250008DF8150002A801F0DEFF012202211348AB
:1042600002F0D8FA40208DF8040001208DF80500F6
:1042700000208DF8060001208DF8070001A801F04C
:10428000BCFE0BB000BD00B585B00221074802F0AE
:1042900029FB30B10221054802F0BFFB684604F05B
:1042A0002CFF05B000BD0000000402400068004083
:1042B00010B504466FF0040001F0ECFEE11704EBCA
:1042C0005171C1F3C701394A11701046007800EBF3
:1042D0004001C1EBC0104FF6FF7101EAC000344944
:1042E000088010BD0146314A12784A434FF0E0235E
:1042F0005A6100229A611A46126942F001021A615B
:1043000000BF4FF0E022106900F001021AB100F482
:104310008032002AF5D04FF0E022126922F001022B
:104320004FF0E0231A6100229A6170470146204A4B
:1043300012884A434FF0E0235A6100229A611A46DC
:10434000126942F001021A6100BF4FF0E0221069C9
:1043500000F001021AB100F48032002AF5D04FF0CB
:10436000E022126922F001024FF0E0231A610022DC
:104370009A61704770B504464FF4077094FBF0F0F3
:10438000C6B24FF4077094FBF0F100FB114085B208
:1043900005E04FF40770FFF7C9FF701EC6B2002E8C
:1043A000F7D115B12846FFF7C1FF70BD6C0400209E
:1043B0006E0400201CB50121402003F07CF84FF46E
:1043C0000050009001208DF8040000208DF80600B8
:1043D00003208DF805006946044802F0CBFD4FF438
:1043E0000051024802F044FE1CBD000000180240CB
:1043F0001CB50121402003F05EF84FF4FF700090DF
:1044000001208DF8040000208DF8060003208DF8AF
:10441000050001208DF8070069464F4802F0AAFD0B
:1044200002214D4802F022FE04214B4802F01EFEFC
:104430000821494802F01AFE1021474802F016FEF2
:104440002021454802F012FE4021434802F00EFEB2
:104450008021414802F00AFE4FF480713E4802F08C
:1044600005FE1CBD1CB50121102003F024F801211C
:10447000202003F020F84FF40060009001208DF818
:10448000040000208DF8060003208DF805000120AF
:104490008DF807006946314802F06CFD4FF480400A
:1044A000009001208DF8040000208DF80600032004
:1044B0008DF8050001208DF807006946284802F0B4
:1044C00059FD01202749086000202749C1F8AC02A6
:1044D000FFF78EFF1CBD10B5014601200AE0421E09
:1044E00041FA02F202F00102204C04EB8003C3F80F
:1044F0008022401C0928F2DB10BD30B5044600259F
:10450000082C01DD082000E02046044614F1080FC5
:1045100002DA6FF0070000E020460446002C09DBB9
:10452000002004E0012181402943CDB2401CA0427B
:10453000F8DB0BE0002006E0C0F108020121914009
:104540002943CDB2401C61428842F5DBE843C5B245
:104550002846FFF7C0FF30BD00180240001002409F
:1045600000140240B882424200004242000043422E
:1045700010B50446032C00DD10BD0420A04081B21C
:104580001F4802F075FD00BFF6E71CB50121802031
:1045900002F091FF3C20009001208DF804000020E3
:1045A0008DF8060003208DF8050001208DF8070026
:1045B0006946134802F0DEFC002404E02046FFF7C1
:1045C000D7FF601CC4B2042CF8DB1CBD10B5044638
:1045D000032C00DD10BD0420A04081B2084802F089
:1045E00045FD00BFF6E710B50446032C00DD10BD05
:1045F0000420A04081B2024802F043FD00BFF6E76C
:10460000001C024000B58BB00121802002F053FF56
:104610000121080202F04FFF0121082002F092FF61
:104620004FF4E050099002208DF8280003208DF807
:10463000290009A9E24802F09DFC0120099002200E
:104640008DF8280003208DF8290009A9DD4802F023
:1046500091FC02220A21DA4802F017FD02220B2106
:10466000D74802F012FD02220C21D54802F00DFDC0
:1046700002220021D34802F008FD5320ADF81800B3
:104680000020ADF81A0042F20F7007900020ADF83C
:10469000200006A9CC4803F04EFB7020ADF80400C2
:1046A0000120ADF806000020ADF808004FF4FA60D4
:1046B00003900220ADF810000020ADF81200ADF814
:1046C00014004FF48070ADF8160001A9BE4803F045
:1046D000C7FB01A9BC4803F0FCFB01A9BA4803F0E1
:1046E00045FC01A9B84803F0A7FC0821B64803F02F
:1046F00044FD0821B44803F049FD0821B24803F005
:1047000052FD0821B04803F057FD0121AE4803F0E7
:104710007DFB0121AC4803F097FB4FF47A70AA4966
:1047200034310860091D0860091D0860091D086012
:104730000BB000BD00B58BB00121082002F0BBFE1C
:104740000121042002F0FEFE4FF470400990022087
:104750008DF8280003208DF8290009A99B4802F054
:1047600009FC02220C21994802F08FFC02220D2143
:10477000964802F08AFC02220E21944802F085FC41
:1047800002220F21914802F080FC5320ADF818005E
:104790000020ADF81A0042F2107007900020ADF82A
:1047A000200006A98A4803F0C6FA7020ADF804007C
:1047B0000120ADF806000020ADF808004FF47A7033
:1047C00003900220ADF810000020ADF81200ADF803
:1047D00014004FF48070ADF8160001A97C4803F076
:1047E0003FFB01A97A4803F074FB01A9784803F064
:1047F000BDFB01A9764803F01FFC0821744803F0B3
:10480000BCFC0821724803F0C1FC0821704803F089
:10481000CAFC08216E4803F0CFFC01216C4803F06C
:10482000F5FA01216A4803F00FFB4FF47A706849EA
:1048300034310860091D0860091D0860091D086001
:104840000BB000BD00B58BB00121080202F033FEB1
:104850000121802002F02FFE0121082002F02BFE12
:104860000120019002208DF8080003208DF8090036
:1048700000208DF80A0001208DF80B0001A9514895
:1048800002F078FB4FF4E050019001A94C4802F08F
:1048900071FB4FF48050019001A94C4802F06AFB73
:1048A00002220021474802F0F0FB02220C2144487A
:1048B00002F0EBFB02220B21414802F0E6FB022250
:1048C0000A213F4802F0E1FB02220C213F4802F09E
:1048D000DCFB0121082002F035FE0121042002F05A
:1048E00031FE0020ADF82800ADF8220044F61F602C
:1048F00009905320ADF8200000208DF82A0008A967
:10490000314803F018FA40F24730ADF8200040F289
:10491000E730099008A92E4803F00DFA6020ADF8A1
:104920000C000120ADF80E004FF47A7005900020C5
:10493000ADF8180003A9244803F07EFB03A9224820
:1049400003F014FB03A9204803F0C3FA03A91E488F
:1049500003F086FA01211C4803F00FFC01211A48DC
:1049600003F014FC0121184803F01DFC0121164836
:1049700003F022FC0121144803F048FA01211248F7
:1049800003F053FE0121104803F05EFA4FF4FA7071
:10499000059003A90E4803F063FA01210C4803F0C7
:1049A000ECFB01210A4803F031FA0121084803F029
:1049B0003CFE0121064803F047FA0BB000BD0000A1
:1049C000001C024000200240000C0040000C02408D
:1049D0000008004010B500213A4803F09AFB10BDD2
:1049E00030B58BB004460D460121402002F0AAFDEF
:1049F0000121802002F05FFD0121402002F0F7FD3F
:104A00000021402002F0F3FD092206212E4802F089
:104A10003CFB4020099002208DF8280003208DF8EF
:104A2000290000208DF82A0002208DF82B0009A90A
:104A3000254802F09FFA6020ADF804000120ADF88F
:104A400006000020ADF8100001A91E4803F008FA86
:104A500008211C4803F091FB01211A4803F0D6F904
:104A6000681E0790601E80B2ADF818000020ADF8F7
:104A70001A00ADF8200006A9124803F05CF90121E4
:104A8000104803F0E1F9FFF7A5FF0BB030BD10B5FA
:104A9000024643F6BD600D4B03EB021333F81130B1
:104AA0000B4C94FBF3F398B210BD064A28321080E9
:104AB000121D1160704710B504462146014803F0ED
:104AC00028FB10BD00180040001C0240B2DD0008A9
:104AD000802C800000B58BB00121022002F0EBFC9D
:104AE0002020099002208DF8280003208DF829004D
:104AF00000208DF82A0001208DF82B0009A92248FA
:104B000002F038FA022205211F4802F0BEFA012104
:104B1000022002F017FD0020ADF82000ADF81A00C9
:104B200044F61F6007905320ADF8180000208DF860
:104B3000220006A9154803F0FEF86020ADF8040035
:104B40000120ADF8060000200390ADF8100001A987
:104B50000E4803F0BEF901210C4803F017FB0121B8
:104B60000A4803F053F90121084803F05EFD0BB039
:104B700000BD44F62062424344F6206392FBF3F109
:104B8000024A3832116070470004024000040040BD
:104B900000B587B00121202002F08DFC012108051D
:104BA00002F0E1FC4FF46070059002208DF81800CF
:104BB00000208DF81A0001208DF81B0003208DF8CD
:104BC000190005A9264802F0D5F905220721244835
:104BD00002F05BFA05220821214802F056FA05226C
:104BE00009211F4802F051FA4020059001208DF85C
:104BF000180000208DF81A0001208DF81B000320FA
:104C00008DF8190005A9164802F0B4F9402114489E
:104C100002F02CFA4FF48270ADF802000020ADF8DB
:104C20000400ADF800004FF40070ADF80A00002059
:104C3000ADF80E000120ADF808000220ADF8060026
:104C40002020ADF80C000A20ADF810006946054898
:104C500002F0D0FD0121034802F0C6FE07B000BDFE
:104C600000140240005001401FB50121102002F045
:104C700069FC36208DF8000002208DF8010001202B
:104C80008DF802008DF80300684601F0B6F9532054
:104C9000ADF804000020ADF80600ADF80C004FF4AC
:104CA0007A70029001A9194803F045F81FBD10B5AC
:104CB0000121164803F0C8F801221146134803F0F9
:104CC000DBFC0121114803F0EBFC10BD10B5012104
:104CD0000E4803F0E8FCC0B101210C4803F0F4FCDD
:104CE00001210A4803F0DCFCFBF729FE08480068B4
:104CF000401C07490860084600686421B0FBF1F2D7
:104D000001FB120008B9FBF799FE10BD001000402E
:104D10007004002010B596B004460121022002F074
:104D2000CAFB0121102002F01EFC072211464C484C
:104D300002F0ABF914A802F065F98020149002206B
:104D40008DF8540001208DF8570002208DF8550091
:104D500000208DF8560014A9414802F00BF9414893
:104D600003F08EFD10A803F058FE3F48109000207D
:104D7000ADF84400ADF846004FF48060ADF848004F
:104D80000420ADF84A000020ADF84C0010A93548C9
:104D900003F0DDFD0121334803F061FE01224021D3
:104DA000304803F009FF314801F08AFE01218805EF
:104DB00002F081FB4FF0006000902A48001D019036
:104DC0002B480290002003901220049000200590B0
:104DD0004FF4806006900020079008904FF4807098
:104DE00009904FF440300A9000200B900C900D90E9
:104DF0000E9069461D4801F005FF012210211B4855
:104E000001F0C7FF0121194801F036FF3A208DF863
:104E10003C0000208DF83D008DF83E0001208DF80B
:104E20003F000FA801F0E9F816B010BD10B5114908
:104E30000E4801F0CBFF88B14FF081510B4801F0D3
:104E400094FF0C49094801F0EBFF094805F034F8DC
:104E50000948FDF782F80220FDF78FF810BD000029
:104E60000004024000100140A0860100406402409E
:104E70009C0E0020008020103203002010B596B058
:104E800004460121082002F016FB0121480502F02A
:104E900012FB0121480402F055FBFB4803F0F0FC33
:104EA0000121F94803F0EFFD07220521F74802F040
:104EB000ECF807220621F54802F0E7F8602014908C
:104EC00002208DF8540000208DF8560003208DF844
:104ED000550000208DF8570014A9EC4802F04AF85C
:104EE00026208DF83C0002208DF83D0001208DF831
:104EF0003E008DF83F000FA801F07FF810A803F0E6
:104F00008CFD10940020ADF84400ADF84600ADF8DB
:104F100048000C20ADF84A000020ADF84C0010A964
:104F2000D94803F014FD012240F22441D64803F091
:104F30004CFE01224021D44803F03EFE0021D2481D
:104F400003F08DFDD24801F0BBFD4FF000600090F2
:104F5000CD48001D0190CF480290002003906420AE
:104F60000490002005904FF4806006900020079088
:104F7000089009904FF480300A9000200B900C901C
:104F80000D900E906946C248603001F03BFE102043
:104F90008DF83C0002208DF83D0001208DF83E0088
:104FA0008DF83F000FA801F028F801221021B84821
:104FB000603001F0EEFE0022B6496431B448603042
:104FC00001F081FE0121B248603001F088FE01212C
:104FD000AF48603001F050FE16B010BD00B591B082
:104FE0000121480502F067FAA948783001F068FD10
:104FF0004FF000600190A448001D0290A648039065
:10500000402004904FF4C8700590002006904FF4A3
:10501000806007900020089009900A904FF40030BB
:105020000B9000200C9001200D9000200E900F900E
:1050300001A99748783001F0E5FD0122102194483C
:10504000783001F0A6FE012280218F4803F0B4FDE4
:1050500011208DF8400002208DF8410001208DF8CC
:1050600042008DF8430010A800F0C7FF00218848D7
:10507000783001F001FE11B000BD70B504460D4658
:1050800000BF864800780028FBD1012083490870C2
:105090002A462146804806F0F1F929467C487830B6
:1050A00001F00BFE01217A48783001F0E5FD70BD7A
:1050B00010B57B497648783001F088FE78B17849A0
:1050C0007348783001F051FE00217148783001F0CA
:1050D000D3FD012240F226616B4803F076FD10BD3E
:1050E00010B540F22771684803F0AAFD40B90022CC
:1050F00040F22661644803F068FD002067490870AB
:1051000010BD0146B1F8C800B1F8CA20904201D1E3
:10511000C7207047B1F8CA00B1F8C820801A01282A
:1051200006D0B1F8CA00B1F8C820801AC73008B953
:105130000020EEE7B1F8CA00B1F8C820801A401E7E
:10514000002806D4B1F8CA00B1F8C820801A401E61
:1051500005E0B1F8CA00B1F8C820801AC73080B2A3
:10516000D7E72DE9F04104460F4615462046FFF7E4
:10517000C8FFA84227DB002D25DDB4F8C80028446D
:10518000C8280CDAB4F8C81008192A46394606F0BF
:1051900075F9B4F8C8002844A4F8C80016E0B4F8BB
:1051A000C800C0F1C806B4F8C8100819324639461C
:1051B00006F064F9AA1BB919204606F05FF9A81B8E
:1051C000A4F8C80002E00020BDE8F0810120FBE760
:1051D00010B540F224412C4803F032FD002852D093
:1051E00001203049A1F8CE00274800882648001D3C
:1051F00000882748603001F082FDE0BB00202A498A
:105200000870002210212248603001F0C2FD002108
:105210001F48603001F030FD24491D48603001F026
:10522000FFFD1B48603001F04AFDC0F164002049D9
:105230000860642016496431086015482838D0F8A1
:10524000880040F4002012492839C1F88800184825
:10525000008882B21448007800EBC00303EB001012
:105260000C4B03EB80010F48FFF77BFF012210215D
:105270000748603000E01DE001F08BFD012104488B
:10528000603001F0F9FC52E000440040000C0240A4
:1052900028600240B60E00204E100020740400204A
:1052A000008020207E0F0020750400200088002050
:1052B000780400200120CE49087000221021CD483A
:1052C00001F067FD0021CB4801F0D6FCCA49C9486E
:1052D00001F0A6FDC74801F0F2FCC0F16400C74927
:1052E00008606420C349091D0860C2488838D0F8A6
:1052F000880020F40020BF498839C1F88800BF48E1
:10530000008882B2BA48007800EBC00303EB0010BB
:10531000BB4B03EB8001BB48FFF723FF01221021A9
:10532000B44801F036FD0121B24801F0A5FC10BDE2
:1053300010B5FFF7D5FEFFF74BFF10BD10B5AE4916
:10534000AC4801F043FDF0B1AB49AA4801F00DFDB6
:10535000A84801F0D4FC08B9012000E00020A449CD
:105360000870A9480088A848001D008808460078F1
:1053700000EBC00202EB0010A14A02EB80016422A4
:10538000A048FFF7EEFE10BD0146B1F8C800B1F825
:10539000CA20904201D100207047B1F8CA00B1F88C
:1053A000C820801A012806D0B1F8CA00B1F8C82078
:1053B000801AC73008B9C720EEE7B1F8C800B1F8C5
:1053C000CA20801A05D4B1F8C800B1F8CA20801AE2
:1053D00005E0B1F8C800B1F8CA20801AC83080B220
:1053E000DAE72DE9F04107460C4615462046FFF75F
:1053F000CBFFA84227DB002D25DDB4F8CA002844E6
:10540000C8280CDAB4F8CA0001192A46384606F052
:1054100035F8B4F8CA002844A4F8CA0016E0B4F875
:10542000CA00C0F1C806B4F8CA00011932463846AD
:1054300006F024F8AA1B2146384606F01FF8A81BE0
:10544000A4F8CA0002E00020BDE8F0810120FBE7DB
:1054500030B5034601241846FFF796FFA0421CDB37
:10546000002C1ADDB3F8CA002044C82808DAB3F8C3
:10547000CA001D5CB3F8CA002044A3F8CA000AE0C1
:10548000B3F8CA10C1F1C800B3F8CA105D5C211AA4
:10549000A3F8CA1000BF284630BD0020FCE72DE964
:1054A000F04107460C462046FFF76EFF0546002DEB
:1054B00025DDB4F8CA002844C8280CDAB4F8CA00BC
:1054C00001192A46384605F0D9FFB4F8CA00284425
:1054D000A4F8CA0016E0B4F8CA00C0F1C806B4F8CF
:1054E000CA0001193246384605F0C8FFAA1B2146FA
:1054F000384605F0C3FFA81BA4F8CA0002E000204C
:10550000BDE8F0810120FBE72DE9F04781460D461B
:1055100017461C462846FFF737FF3919884221DB1A
:10552000002C1FDDB5F8CA003844C82190FBF1F209
:1055300001FB12063019C82805D2A919224648468F
:1055400005F09CFF0DE0C6F1C808A919424648467F
:1055500005F094FFA4EB08022946484605F08EFFAB
:1055600000BF02E00020BDE8F0870120FBE770B536
:1055700003460C4601251846FFF706FF61198842CD
:105580000BDB002D09DDB3F8CA002044C82290FBD4
:10559000F2F602FB1601585C70BD0020FCE710B566
:1055A00003460C461846FFF7EFFEA04214DB002C22
:1055B00012DDB3F8CA002044C82805DAB3F8CA00DF
:1055C0002044A3F8CA0009E0B3F8CA10C1F1C8002A
:1055D000211AA3F8CA1001E0002010BD0120FCE749
:1055E00000200849A1F8C800A1F8CA0070470000CF
:1055F00075040020886002400088002078040020A4
:10560000B60E00207E0F00200044004010B596B07A
:1056100004460121082001F04EFF0121480501F058
:105620004AFF0121880401F08DFF764803F028F934
:1056300007220821744801F028FD07220921724839
:1056400001F023FD4FF48070149002208DF8540077
:1056500000208DF8560003208DF8550000208DF8AD
:10566000570014A9684801F085FC4FF400701490AD
:1056700002208DF8540001208DF8560003208DF88B
:10568000550001208DF8570014A95F4801F072FC05
:1056900027208DF83C0002208DF83D0001208DF878
:1056A0003E008DF83F000FA800F0A7FC10A803F003
:1056B000B4F910940020ADF84400ADF84600ADF800
:1056C00048000C20ADF84A000020ADF84C0010A9AD
:1056D0004C4803F03CF9012240F22441494803F0D0
:1056E00074FA01224021474803F066FA0121454837
:1056F00003F0B5F9454801F0E3F94FF00060009080
:105700004048001D01904248029000200390642010
:105710000490002005904FF48060069000200790D0
:10572000089009904FF480300A9000200B900C9064
:105730000D900E906946354801F064FA0022344914
:105740006431324801F0BFFA0121304801F0C7FA54
:1057500001212E4801F090FA16B010BD10B540F2AC
:105760002441284803F06CFA00284AD025480088D4
:105770002448001D0088254801F0C1FA00BB002024
:10578000244908700021214801F076FA1F4801F0F1
:1057900096FAC0F164002049086064201B4928394A
:1057A000C8620846806A40F40020886201211748D8
:1057B00001F062FA18480178154804F0AAFC20E0CC
:1057C0000120144908700021104801F055FA0F48D3
:1057D00001F075FAC0F164000F49086064200B49BC
:1057E0002839C8620846806A20F4002088620121B6
:1057F000064801F041FA084801780548643004F091
:1058000088FC10BD00480040000C024028600240A7
:10581000DE1100207E0400208004002010B588B036
:1058200004460121402001F046FE0121202001F024
:105830009AFE08220921314801F027FC08220E2196
:105840002E4801F022FC4FF48440069002208DF88F
:105850001C0000208DF81E0003208DF81D00002084
:105860008DF81F0006A9254801F084FB244803F0A9
:1058700007F802A803F0D1F802940020ADF80C005C
:10588000ADF80E00ADF810000C20ADF812000020AD
:10589000ADF8140002A91A4803F059F847208DF812
:1058A000040001208DF805008DF806008DF8070032
:1058B00001A800F0A2FB012240F22551104803F09C
:1058C00084F901210E4803F0CAF808B010BD10B5E4
:1058D00040F225510A4803F0B3F968B1084803F0D3
:1058E000EDF808490870064800880548001D008842
:1058F0000846007804F06CFE10BD0000001802405D
:10590000001401408404002010B588B00446012131
:10591000102001F0D0FD0121880701F013FE0822BC
:1059200007213C4801F0B1FB08221146394801F03B
:10593000ACFB8020069002208DF81C0000208DF822
:105940001E0003208DF81D0001208DF81F0006A900
:10595000304801F00FFB4FF48070069002208DF864
:105960001C0000208DF81E0003208DF81D00012072
:105970008DF81F0006A9274801F0FCFA264802F01E
:105980007FFF02A803F049F802940020ADF80C0054
:10599000ADF80E00ADF810000C20ADF8120000209C
:1059A000ADF8140002A91C4802F0D1FF52208DF876
:1059B000040001208DF805008DF806008DF8070021
:1059C00001A800F01AFB012240F22551124803F011
:1059D000FCF80121104803F042F808B010BD10B5E2
:1059E00040F225510C4803F02BF990B10A4803F01E
:1059F00065F80A490870084800880748001D0088B3
:105A00000846007804F04FFD05480068401C044932
:105A1000086010BD00100240007800408C04002097
:105A20008804002000B58BB00121802001F043FDE7
:105A30000121080201F03FFD0121082001F082FD53
:105A40004FF4E050099002208DF8280003208DF8D3
:105A5000290009A98B4801F08DFA01200990022044
:105A60008DF8280003208DF8290009A9864801F047
:105A700081FA02220A21834801F007FB02220B214E
:105A8000804801F002FB02220C217E4801F0FDFA61
:105A9000022200217C4801F0F8FA1220ADF818002B
:105AA0000020ADF81A00052007900020ADF8200076
:105AB00006A9764802F03FF97020ADF804000120F5
:105AC000ADF806000020ADF8080003900220ADF804
:105AD00010000020ADF81200ADF814004FF48070F3
