:020000040800F2
:10000000501B0020C582000881530008835300085C
:10001000875300088B5300088F530008000000002E
:1000200000000000000000000000000093530008E2
:1000300095530008000000009753000899530008EA
:10004000DF820008DF820008DF820008DF8200080C
:10005000DF820008DF820008DF820008DF820008FC
:10006000DF820008DF820008DF820008DF820008EC
:10007000DF820008DF820008DF820008DF820008DC
:100080002D490008A1460008DF820008DF82000831
:100090004F370008DF820008DF820008DF82000897
:1000A000DF820008DF820008DF820008DF820008AC
:1000B000DF820008DF820008DF820008DF8200089C
:1000C000DF820008DF820008DF820008DF8200088C
:1000D000DF820008DF820008214900084D4D00083A
:1000E000DF820008DF820008DF820008DF8200086C
:1000F000DF820008DF820008DF820008DF8200085C
:10010000DF820008DF820008DF820008DF8200084B
:10011000DF820008DF820008BD420008DF8200089D
:10012000DF820008DF8200081D440008DF8200082B
:10013000DF820008DF820008DF820008DF8200081B
:1001400077380008DF820008DF820008DF820008BD
:10015000DF820008DF820008DF820008BF4E00084F
:10016000DF820008DF820008DF820008DF820008EB
:10017000DF820008DF820008DF820008DF820008DB
:10018000DF820008DF820008CF4F000849530008D3
:10019000DF820008DF820008DF820008DF820008BB
:1001A0000000000000000000DF82000800F002F8FC
:1001B00000F05EF80AA090E8000C82448344AAF1A3
:1001C0000107DA4501D100F053F8AFF2090EBAE8A1
:1001D0000F0013F0010F18BFFB1A43F0010318477B
:1001E00048D4000068D400000A444FF0000C10F816
:1001F000013B13F0070408BF10F8014B1D1108BFA5
:1002000010F8015B641E05D010F8016B641E01F844
:10021000016BF9D113F0080F1EBF10F8014BAD1C94
:100220000C1B09D16D1E58BF01F801CBFAD505E0B2
:1002300014F8016B01F8016B6D1EF9D59142D6D30C
:10024000704700000023002400250026103A28BF34
:1002500078C1FBD8520728BF30C148BF0B60704738
:100260001FB50CF0E6FB0AF0F2FA1FBD10B510BD89
:100270000AF0ABFB1146FFF7F3FF00F023F80AF09A
:10028000C9FB03B4FFF7F2FF03BC0AF0C9FB00008F
:100290000B49D1F800C04A685CF8043B1068184468
:1002A00042F8040B8C4528BFA1F1DC0C8A4228BF20
:1002B000A1F1DC02C1F800C04A6020F000407047A4
:1002C000E81400204FF4A06005F08AF903F06CF9FF
:1002D000002433E0264890F90000082805DA244875
:1002E0000078C01C40B22249087022490968C1F355
:1002F0004F0003F0D8FE04EB44021F4B03EB420215
:10030000917804EB440213F8120003F0B8FE05469E
:100310002946092003F0C1FE04EB4401164A02EB12
:1003200041018D8805EBD571481003F01BFB03F0EC
:1003300049FE1E2003F016FB601C641C162CC9DB52
:1003400000200E4908600821012000F063FB012015
:100350000B4908700BE00B4800684FF47A71B0FB52
:10036000F1F201FB120010B9082001490870F2E710
:10037000000000202C180040CECE0008B882424277
:100380000E00002044040020FE490870704710B59C
:10039000C024FD490988A1F58060002801DB0146E1
:1003A00000E0414240F29622914201DC012100E04E
:1003B00000210C43F4494988A1F58060002801DB45
:1003C000014600E0414240F29622914201DC0121C7
:1003D00000E0002144EA4104EB498988A1F58060EE
:1003E000002801DB014600E0414240F296229142A2
:1003F00001DC012100E0002144EA8104E249C988CE
:10040000A1F58060002801DB014600E0414240F296
:100410009622914201DC012100E0002144EAC1045E
:10042000D948007A012807D0D748007A022803D09B
:10043000D548007A032801D1012000E0002044EAD9
:100440000014D148407A012807D0CF48407A0228CA
:1004500003D0CD48407A032801D1012000E00020DC
:1004600044EA4014FF2C07D00320FFF78DFF14222D
:10047000C549C6480AF0F4F910BDC2480078704773
:1004800010B5FFF7FAFF08287ED2DFE800F011046C
:100490001E872B65584B00231A461946184607F04D
:1004A000ADFF00231A461946184607F0D6FF82E032
:1004B00000231A461946184607F0A0FF00231A46E3
:1004C0001946184607F0C9FF75E000231A46194679
:1004D000184607F093FF00231A461946184607F0FE
:1004E000BCFF68E0AA4CE48823B2A94CA48822B2DD
:1004F000A84CA48C21B2A74C248C20B207F07EFF1C
:10050000A54B93ED070ABDEEC00A10EE103A1AB2E1
:10051000A24B9B8A19B2A14B1B8D18B2002307F086
:100520009CFF48E000231A461946184607F066FF6C
:1005300000231A461946184607F08FFF3BE00023B8
:100540001A461946184607F059FF00231A4619465D
:10055000184607F082FF2EE08D4CE48823B28C4CC5
:10056000A48822B28B4CA48C21B28A4C248C20B259
:1005700007F044FF884B93ED070ABDEEC00A10EE6A
:10058000103A1AB2854B00E008E09B8A19B2834BFF
:100590001B8D18B2002307F060FF0CE000231A4601
:1005A0001946184607F02AFF00231A46194618462E
:1005B00007F053FF00BF00BF10BD10B57249098896
:1005C000714A52881144704A928811446E4AD28806
:1005D0001144A1F58050002801DB014600E04142B2
:1005E0000C2901DD00F065F910BD10B5FFF745FFDE
:1005F000082849D2DFE800F01F0427372F3D38369E
:100600006748006842F21071884213D9FFF7D5FF9E
:100610000020FFF7B9FE9FED630A604880ED030AF2
:10062000614890ED000AF2EE040A20EE200A5B48D1
:1006300080ED090A28E000F0C8FE0220FFF7A4FEC2
:1006400001F0B7FA20E00620FFF79EFE00F0BDFEA5
:1006500001F0AFFA18E000F0B8FE01F0AAFA01F0DC
:10066000F8F911E010E00FE001F0F3F900F0ADFE51
:100670000AE002F06AFC02F02BFE00F0A6FE01F098
:1006800098FA01F0E6F900BF00BF10BD10B5FFF702
:10069000F4FE46490870FFF7F0FE082805D2DFE8AF
:1006A00000F00504065B07B6371CBFE0BEE0BDE006
:1006B0003548007A032802D10620FFF765FE32484C
:1006C000007A032807D13A480078032803D12E483E
:1006D000407A012800D000BFA8E02B49C97C61B94D
:1006E0002949897C49B92849B1F90A00002801DB68
:1006F000014600E04142032902DD0420FFF744FEE9
:100700002148007A022802D10520FFF73DFE8DE046
:100710001D48007A01280DD1234890ED000AF2EE21
:10072000040A20EE200A1D4880ED090A0420FFF784
:100730002BFE10E01448007A02280CD11A4890EDE4
:10074000000AF2EE040A20EE200A144880ED090A9D
:100750000520FFF719FE69E016480068401C15499E
:100760000860154991F8361059B907490988064AB1
:1007700052881144044A92881144034AD288114491
:100780001CE034E004000020840600204007002024
:10079000F2030020B00800200009002034000020EF
:1007A0004404002000803B45740600200600002021
:1007B000050000200800002018030020A1F580504B
:1007C000002801DB014600E041420A290FDA4048D7
:1007D00090ED000AF2EE040A20EE200A3D4880ED7A
:1007E000090A0420FFF7D0FD00203B4908603B4880
:1007F00090F8360050B93848006841F2707188426C
:1008000004D900203449086000F053F80EE0344861
:10081000007A012802D10420FFF7B6FD3048007AA3
:10082000032802D10620FFF7AFFD00BF00BF2C4810
:10083000407A2C49087010BD10B508F077FC2A48A2
:1008400000680521B0FBF1F201FB120008B902F0CB
:10085000D1FD01F04DFBFFF719FFFFF7C6FEFFF7D3
:100860000FFEFFF794FD204800687821B0FBF1F2FD
:1008700001FB120078B91D4890F90000002805DD41
:100880001A480078401E40B218490870174890F97D
:10089000000003F02AF910BDF0EE400AF5EEC00AA0
:1008A000F1EE10FA02DBB0EE600A7047B1EE600ABA
:1008B000FBE7BFF34F8F0E48006800F4E0600D497E
:1008C0000843001D0A490860BFF34F8F00BFFEE7D1
:1008D00074060020340000200800002018030020C7
:1008E00084060020050000204404002000000020B1
:1008F0000CED00E00000FA0510B5FB4800780A286E
:1009000032DAF948007800282EDDF84800684FF404
:100910001661B0FBF1F201FB1200F34909784900BE
:10092000C1EB011101EB8101B0EB410F2BD8EF4876
:1009300000684FF41661B0FBF1F201FB120028B918
:100940004FF48041EA4805F089FE1CE0E748006862
:100950009621B0FBF1F201FB1200A0B94FF48041E7
:10096000E34805F086FE0EE0DF4800780A2805DB44
:100970004FF48041DE4805F073FE04E04FF48041FF
:10098000DB4805F06BFEDB4800780A2832DAD948EC
:10099000007800282EDDD54800684FF41661B0FBC2
:1009A000F1F201FB1200D34909784900C1EB0111B2
:1009B00001EB8101B0EB410F2BD8CC4800684FF41C
:1009C0001661B0FBF1F201FB120028B94FF400618F
:1009D000C94805F043FE1CE0C44800689621B0FBFE
:1009E000F1F201FB1200A0B94FF40061C24805F01A
:1009F00040FE0EE0BF4800780A2805DB4FF4006196
:100A0000BD4805F02DFE04E04FF40061BA4805F042
:100A100025FE10BD0A2801DD0A2200E00246B24B85
:100A20001A700A2901DD0A2200E00A46B14B1A7049
:100A3000704710B5B148007820B1012822D00228B3
:100A400060D140E0AE480078401CAD4908700846CF
:100A5000007850280ADB0120A84908705020A849D6
:100A600008700020A7490870A7490870A4480078BA
:100A7000C0F15000A5494870A148007808700020D6
:100A800088703FE09F480078401C9E4908700846E7
:100A9000007850280BDB0220984908700020984904
:100AA000087050209749087000209749087000206E
:100AB0009649487093480078C0F1500008709148FA
:100AC000007888701EE090480078401C8E490870BD
:100AD00008460078502809DB0020884908708849BA
:100AE0000870884908705020874908708648007847
:100AF000864948700020087083480078C0F1500093
:100B0000887000BF00BF00204FE08149095C11B12F
:100B1000012948D124E07F4901EB800191ED000AD1
:100B2000DFED7D0A30EE200A7A4901EB800181ED8C
:100B3000000A784901EB800191ED000ADFED770AA8
:100B4000B4EEE00AF1EE10FA09DB9FED740A714988
:100B500001EB800181ED000A01216D4A115422E070
:100B60006C4901EB800191ED000ADFED6B0A30EE7C
:100B7000600A684901EB800181ED000A654901EBDB
:100B8000800191ED000AB5EEC00AF1EE10FA09D825
:100B90009FED630A5F4901EB800181ED000A0021AE
:100BA0005B4A115400BF00BF401C0528ADDB57480D
:100BB00040785649C87008460178417181780171C2
:100BC0000078524988710846417801728178C17174
:100BD00080784E49487208460178C1724178817226
:100BE00000784A49087308468178817341784173D7
:100BF00000201EE0002119E000EB4002434B1A44A4
:100C0000525C00EE102AB8EE400A424A02EB800223
:100C1000D2ED000A20EE200ABCEEC00A10EE102A27
:100C200000EB4003394C23445A54491C0329E3DBAD
:100C3000401C0528DEDB10BD027802F001010278BD
:100C400052100270027842EAC1120270704710B569
:100C5000264800686421B0FBF1F201FB1200002875
:100C600041D100BF12E000210DE02E4A127802416E
:100C700002F00102642312FB03F200EB4003234C59
:100C800023445A54491C0329EFDB401C0528EADBA6
:100C90002448FFF7D1FF24480078401C22490870FF
:100CA0000878C11700EB5171C910A0EBC10141B91F
:100CB0001E490978052904DC1C480078401C1B49A2
:100CC000087000200BE0002106E0642200EB4003E6
:100CD0000E4C23445A54491C0329F6DB401C13498B
:100CE00009788842EFDB10BD0C000020440400208E
:100CF000001402400D000020001002400F000020F0
:100D000010000020110000201200002054070020D5
:100D100013000020180000200AD7233CCDCCCC3E85
:100D2000000000002C0000202D0000202E000020DC
:100D300010B52148007810B9FFF789FF01E0FFF7EF
:100D400078FE05211D4804F05CFA04F031FA10BD6C
:100D50000278D10902785206120E027002780A4314
:100D600002707047164800684FF4FA71B0FBF1F258
:100D700001FB1200F0B9002012E012490978642248
:100D800011FB02F100EB40020C4B1A4451700021A0
:100D900000EB4002995400EB40021A449170401C51
:100DA0000528EADB0748007808B9012000E00020A8
:100DB00004490870704700000E000020540700200E
:100DC000440400202F000020F748007801287CD13F
:100DD000F648007820B1012828D0022825D185E0E6
:100DE000F348008800EB800041F2AC7101EBC000D9
:100DF00000EE100AB8EEC00AEE4880ED030A406823
:100E000028B9ED480068401CEB49086002E000206A
:100E1000E9490860E8480068B0F5967F05D30020EE
:100E2000E54908600120E149087073E0E348E049C2
:100E3000098800EB8100D0ED000ADE4890ED000A41
:100E4000B8EEC00A30EE800ADC48D949098800EBC8
:100E5000810080ED000ADA48D549098800EB81005D
:100E6000D0ED000AD34890ED050AB8EEC00A30EE86
:100E7000800AD348CE49098800EB810080ED000A42
:100E8000CD480068401CCC49086008460068B0F5B1
:100E90002F7F2AD3002008600220C4490870C74869
:100EA000C349098800EB810090ED000ADFEDC50A17
:100EB00080EE201AC148BE49098800EB810080ED10
:100EC000001ABF48BA49098800E024E000EB81001D
:100ED00090ED000ADFEDBB0A80EE201AB848B44955
:100EE000098800EB810080ED001A13E0B04800880B
:100EF0001E2808DAAE480088401CAD490880002052
:100F0000AA49087005E00020A7490870A849088090
:100F1000704700BF00BF00BFFAE770B52DED0A8B28
:100F200004460D46A84800680F21B0FBF1F201FB12
:100F3000120000287DD1A5498988A1F580600BF0B9
:100F40001CFA41EC1C0B9FEDA20B53EC102B0BF089
:100F50003FFA41EC1B0B9FEDA00B53EC102B0BF059
:100F600085F841EC190B934890ED090A10EE101A20
:100F700008460BF0EDFC41EC1A0B53EC192B0AF070
:100F8000CDFF41EC180B0AF097FF8A4948620846EA
:100F900090ED090ADFED920AB4EEE00AF1EE10FAE4
:100FA00006DD90ED090ADFED8F0A30EE600A02E0FF
:100FB000804890ED090A7F4880ED090A90ED090A02
:100FC000DFED890AB4EEE00AF1EE10FA06D290EDF8
:100FD000090ADFED840A30EE200A02E0754890ED40
:100FE000090A744880ED090A7849C988A1F580602A
:100FF0000BF0C3F941EC1C0B9FED7C0B53EC102B59
:101000000BF0E6F941EC1B0B9FED730B53EC102B2F
:101010000BF02CF841EC190B664890ED030A10EE2A
:10102000101A08460BF094FC41EC1A0B53EC192BE8
:1010300000E02CE00AF072FF41EC180B0AF03CFFD4
:101040005C49C860084690ED030ADFED6A0AB4EE19
:10105000E00AF1EE10FA02D29FED660A02E055486E
:1010600090ED030A534880ED030A90ED030ADFED8B
:10107000620AB4EEE00AF1EE10FA02DD9FED5E0ABC
:1010800002E04C4890ED030A4A4880ED030ABDECAB
:101090000A8B70BD10B559480078012810D0574808
:1010A000007868B94948007A012803D0544890F87C
:1010B000210028B93F490C3101F11800FFF72DFF3D
:1010C000FFF7DBF904280BD14FF4FA704D49486162
:1010D000404208614FF4E6704B4948614042086164
:1010E0009FED4A0A4A4880ED000AFFF76DFE31483D
:1010F00090ED030ADFED470A20EE200AD0ED040A46
:101100009FED451A00EE810A80ED040AD0ED040A35
:1011100090ED000AB8EEC00A30EEC00ADFED3F0ADB
:10112000B4EEE00AF1EE10FA16DD006800F50050AA
:1011300001EE100AB8EEC11AF0EE410A1D4890ED1A
:10114000041AB0EE410A364808F090FCBDEEC00A21
:10115000184880ED020A7AE01648D0ED040A90EDB6
:10116000000AB8EEC00A30EEC00ADFED2E0AB4EE77
:10117000E00AF1EE10FA57D20068A0F5005001EE37
:10118000100AB8EEC11AF0EE410A0A4890ED041AAE
:10119000B0EE410A224808F069FCBDEEC00A0548DD
:1011A00080ED020A53E000006A0100206B0100207C
:1011B0006C010020340000207C010020700700201A
:1011C0001008002000002F44440400208406002062
:1011D00000000000008046400000000000A08440A5
:1011E0000000E144000061450000E1C4000000008F
:1011F000000039400000FA4400003E45680100202C
:10120000A8130020A20000202601002000000000FA
:10121000C4060020CDCCCC3D6666663F000080450C
:1012200060000020000080C5FE4890ED001AB8EE76
:10123000C11AF0EE410A90ED041AB0EE410AFA48E4
:1012400008F014FCBDEEC00AF64880ED020AF5482D
:1012500090ED090AF548D0ED000AB2EE041A00EE4E
:10126000C10A5FED210AB4EEE00AF1EE10FA17DDD3
:10127000D0ED001A1FED251AB2EE042A01EE821AF3
:10128000F0EE410AE74890ED091AB0EE410AE8484D
:1012900008F0ECFBBDEEC00AE24880ED080A3EE033
:1012A000E04890ED090AE148D0ED000AB2EE041AD8
:1012B00000EEC10A5FED340AB4EEE00AF1EE10FA76
:1012C00017D2D0ED001A1FED391AB2EE042A11EE32
:1012D000821AF0EE410AD34890ED091AB0EE410AA5
:1012E000D34808F0C3FBBDEEC00ACE4880ED080A23
:1012F00015E0CE4890ED001AF2EE041A21EE211A04
:10130000F0EE410AC74890ED091AB0EE410AC8480C
:1013100008F0ACFBBDEEC00AC24880ED080AC54823
:1013200090ED091AF0EE410ABE4890ED021AB8EEAF
:10133000C11AB0EE410AC04808F098FBBDEEC00AE1
:10134000B84880ED050ABB4890ED0A1AF0EE410A54
:10135000B44890ED081AB8EEC11AB0EE410AB74889
:1013600008F084FBBDEEC00AAE4880ED0A0A406971
:1013700047F23051884201DD084601E0A948406942
:10138000A849486108464069AD49884201DA0846E3
:1013900001E0A4484069A34948610846806A47F2D1
:1013A0003051884201DD084601E09E48806A9D492F
:1013B00088620846806AA249884201DA084601E04C
:1013C0009848806A9749886210BD10B59948D0ED59
:1013D0000A0AB0EE600A01F0CCF9944890ED000AD8
:1013E00001F0B4F98F48D0ED000AF8EEE00AB0EE53
:1013F000600A01F098F9FFF74DFE10BD01469148D3
:1014000090ED000AF7EE000A70EEC00A8E4890EDEB
:10141000000AB8EEC00A60EE800A00EE101AB8EEBC
:10142000C00A884890ED001A40EE010ABDEEE00ABD
:10143000864880ED000A0068834A1060834800688F
:101440007047421A00EE902AF8EEE00AB1EE601AF8
:10145000DFED7F1AC1EE210AB0EE001A60EE810ABC
:101460009FED7C1A60EE810AB0EE600A704770B59D
:10147000024600200021784B1B68934202DA764B2B
:101480001B6800E013461A46734B1B6D934202DD46
:10149000714B1B6D00E013461A46002106E06E4BAF
:1014A00053F83130934200DC02E0491C0B29F6DB93
:1014B00000BF092901DD092300E00B461946664CEF
:1014C0004B1C04EBC3035B6804EBC10464681B1B87
:1014D000614C54F83140A41A63435F4C54F83150C6
:1014E00026464C1C56F834402C1B93FBF4F3344630
:1014F00004EBC1046468181970BD014600207047F0
:10150000B0EE401A5FEDBF1AB0EE610A5348D0ED5D
:10151000001A70EEE11AB2EE042AF4EEC21AF1EEED
:1015200010FA0ADDC0ED000A4D480068401C4C4925
:10153000086000204B49086015E04848D0ED001ACB
:1015400070EEE11ABAEE042AF4EEC21AF1EE10FAC5
:1015500009D2C0ED000A43480068401C41490860B8
:1015600000203F4908603E480068C82802D9002092
:101570003D4908703B480068C82802D901203A4913
:10158000087039480078A0BBDFED381AB4EEE11AD4
:10159000F1EE10FA16D2DFED361A61EE211A61EE85
:1015A000811A9FED342A42EE011A9FED332A71EE23
:1015B000C21AB0EE610A5FEDF11A70EE611AB0EE78
:1015C000610A8CE0DFED2D1A61EE211A61EE811ABD
:1015D0009FED2B2A42EE411A9FED2A2A71EE821AC4
:1015E000B0EE610ADFED281A70EE611AB0EE610A02
:1015F00075E0FFE7DFED1D1AB4EEE11AF1EE10FA27
:1016000051D2DFED1B1A61EE211A61EE811A9FEDB6
:10161000192A42EE011A9FED182A71EEC21AB0EE95
:10162000610A33E0340000206000002074060020CE
:10163000E400002070110020A200002026010020FC
:10164000D08AFFFF78010020700100207401002083
:1016500000000046DA0F494048CA0008880100200F
:101660008C01002090010020800100200040CE4528
:10167000664900BDCD8CCE4380C5A549CDCC4C3C40
:1016800066661E43803DF64800009644DFED2E1A44
:1016900070EE611AB0EE610ADFED2C1A70EE611A7D
:1016A000B0EE610A1BE05FED0B1A61EE211A61EEEC
:1016B000811A1FED0D2A42EE411A1FED0E2A71EE1E
:1016C000821AB0EE610ADFED201A70EE611AB0EEF8
:1016D000610A5FED131A70EE611AB0EE610ADFED78
:1016E0001C1AB4EEE11AF1EE10FA05D2DFED191A68
:1016F00070EE611AB0EE610ADFED171AB4EEE10A7E
:10170000F1EE10FA02DDDFED141A01E0F0EE401AFE
:10171000B0EE610ADFED111AB4EEE10AF1EE10FA53
:1017200002D2DFED0E1A01E0F0EE401AB0EE610ACF
:101730000B48C0ED000A7047F0EE400A9FED090A21
:1017400020EE800A7047000000007A450000FA444D
:1017500000A0C84500401C4500204B4600204BC659
:101760008401002000000C42B0EE401AF7EE001A8F
:10177000B0EE610AB0F52F7F0AD8B849097832294E
:1017800006DDDFEDB71AF4EEE10AF1EE10FA3AD811
:10179000B44991F83810012907D10321B24A1170D8
:1017A000DFEDB21AB0EE610A2DE0AC49097801EE26
:1017B000901AF8EE611A70EEE11AF0EE610ADFEDB0
:1017C000AC1A9FEDAC2A42EE201AB0EE610AF7EE99
:1017D000001AB4EEE10AF1EE10FA02DDF7EE001A9B
:1017E00001E0F0EE401AB0EE610ADFEDA31AB4EEAC
:1017F000E10AF1EE10FA02D2DFED9F1A01E0F0EEFD
:10180000401AB0EE610A704710B5FEF736FE0428A4
:101810003CD100BF99480088A0F580609849B1F993
:101820000010401A01280CDD94480088A0F5806063
:101830000A2806DD93480088401C00B291490880C0
:101840001FE08E480088A0F580608D49B1F9001036
:10185000401AB0F1FF3F0DDA88480088A0F580609B
:1018600010F10A0F06DA87480088401E00B2854949
:10187000088006E081480088A0F5806000B28149B8
:1018800008808048B0F900007D49088010BD10B57F
:10189000FEF7F3FD042817D1002013E09FED7A0A2C
:1018A00010EE101A00EB4012784B03EB420251602D
:1018B0009FED770A10EE101A00EB401203EB420284
:1018C0001162401C0228E9DBFEF7D7FD042801D194
:1018D000FFF79AFF6B48B0F90000B0F5E16F02DD49
:1018E0004FF4E16002E06748B0F900006549088004
:1018F0000846B0F9000010F5E16F01DA654802E032
:101900006048B0F900005F4908800846B0F900005F
:10191000C0EB0010604988605A48B0F900004042AE
:10192000C0EB0010C860084690ED001AB8EEC11A6E
:10193000F0EE410A90ED021AB8EEC11AB0EE410A7B
:10194000524808F093F8BDEEC00A534880ED080AEB
:1019500090ED011AB8EEC11AF0EE410A90ED031AAB
:10196000B8EEC11AB0EE410A4848423008F07EF89D
:10197000BDEEC00A484880ED090AFEF77EFD052845
:1019800006D14648007818B90020434908624862E9
:10199000414A116A002901DB0A4600E04A423E4CF6
:1019A000606A002801DB044600E0444213193C4809
:1019B000008901EE100AB8EE411AF0EE410A3848EB
:1019C00090ED011AB0EE410A1846FFF7CDFE3548FA
:1019D00080ED000A304890ED080AB8EEC00A3148A0
:1019E000D0ED000A60EE202A2B4890ED090AB8EEEF
:1019F000C00A2C48D0ED000A20EE203ABDEEE20AE3
:101A0000254880ED080ABDEEC30A80ED090A006A88
:101A100042F21071884202DD08461F4908621E48E2
:101A2000006A2149884202DA08461B4908621A48BE
:101A3000406A42F21071884202DD08461649486247
:101A40001548406A1849884202DA08461249486235
:101A500010BD10B5FFF71BFF10BD0000680200208D
:101A60000000484218030020690200209A99193F9B
:101A7000CDCCCC3D8FC2F53BCDCC4C3D8406002077
:101A80006C0200205A0200200AD7A33C94010020D7
:101A900000C8AF47F8F8FFFFB0080020140400208A
:101AA0001013002064020020F0D8FFFFE148B0F9D5
:101AB0000000E049B1F90810401A022812DADD48A6
:101AC0000088401C00B2DB4908800846B0F90000DD
:101AD00000EE100AB8EEC00A084680ED010AD648AA
:101AE0000068C860704710B50446D44800780128E3
:101AF00047D101F000FDD24908700846007801285E
:101B00002DD1207801282AD1CE48007A032809D087
:101B1000CD480078032805D1CA48407A022801D16F
:101B2000FFF7C4FFC44800685021B0FBF1F201FB8D
:101B30001200A0B9C348007A032810D0C148407AE7
:101B400002280CD1BF494988A1F58060002801DB3B
:101B5000014600E04142642901DDFFF7A7FFB948D3
:101B6000007A03280DD0B8480078032809D1B54879
:101B7000407A012805D1207808B9012000E0002032
:101B80002070B048407AB049087010BD10B5AF4819
:101B9000FFF7A9FFA748B0F9000000EE100AB8EE61
:101BA000C00ADFEDAB0A20EE200AA24880ED050A4C
:101BB00010BD10B5FEF761FC052802D00120A54933
:101BC0000860A2480078012803D1152001F0DCF854
:101BD00002E0002001F0D8F8FFF7D8FF954890ED1B
:101BE000050ABDEEC00A9C4880ED050A90ED001A7A
:101BF000B8EEC11AF0EE410A90ED051AB8EEC11A1E
:101C0000B0EE410A954807F031FFBDEEC00A10EE74
:101C1000100A00B29049088391480088C0F57A7094
:101C20008A4909784843C0F57A708E4908808A4805
:101C3000B0F9100001EE100AB8EEC11AF0EE410A38
:101C40008548B0F9180001EE100AB8EEC11AB0EEDE
:101C5000410A854807F00AFF7F4880ED070A10BD5A
:101C600010B503467748007C012807D132B9724885
:101C700000887E4C208000207D4C2070581A00285F
:101C800001DB044600E04442022C0EDA784C247852
:101C9000012C0AD00120764C207067480088754CD2
:101CA000208072480088744C208072480088724CF2
:101CB0002488001B80B210BD14205E4908830A21CD
:101CC0005C48817670477047704710B50B684A6969
:101CD000D21A6A4B1A601C462368002B01DB1C4693
:101CE00000E05C42062C0CDDB1F91020002A01DB7B
:101CF000144600E054420A2C03DA426A521C426243
:101D000001E000234362426A642A07D990F8202048
:101D100022B9012280F82020594B1A7090F8202017
:101D2000012A40D1564A1278012A04D0022A11D041
:101D3000032A37D124E00A68323A524B1A601A4615
:101D400092ED000AB8EEC00A80ED050A02224C4B63
:101D50001A7027E04B4A92ED000AB8EEC00A80EDF7
:101D6000050A14460B6824681A1B002A01DB134677
:101D700000E05342282B02DA0322414B1A7011E093
:101D8000002280F820203E4B1A7002890280B0F9B0
:101D9000002000EE102AB8EEC00A80ED010A0023F0
:101DA000436200BF00BF10BD10B5137BD47A43EA75
:101DB00004231BB28B80947B537B44EA03231BB226
:101DC0000B828B898C881B1B1BB2CB81B1F90E3027
:101DD000B3F5805F04DD8B6803F500538B6008E08A
:101DE000B1F90E3013F5805F03DA8B68A3F5005369
:101DF0008B60B1F904408B68234400EE103AB8EED2
:101E0000C00ADFED210A80EE201ABDEEC10A81ED85
:101E1000000A8B888B8191ED000AB8EEC00ADFEDD5
:101E20000C0A80EE201ABCEEC10A10EE103A1BB26A
:101E3000038110BDD808002044040020FD020020CA
:101E4000FC020020840600200D030020F402002084
:101E5000BC749341B4024342000900207002002088
:101E6000F6020020F8020020B20200200A0300203F
:101E700004030020080300200603002010030020B4
:101E8000140300200003002000007A4401884FF66C
:101E9000FE72914202DA0188491C018070470021DC
:101EA00001807047034602EB82004000984202DA4C
:101EB0000120087001E00020087008787047494947
:101EC00031F81010491C8AB2464921F81020704799
:101ED00000200AE0434931F810201A3921F8102077
:101EE00000221A3121F81020401C0D28F2DB704727
:101EF00010B53D4800684FF47A71B0FBF1F201FB78
:101F0000120008B9FFF7E4FF002411E03549423917
:101F100001EB4400FFF7BAFF324B5C3B33F814206F
:101F2000343319191A3B33F81400FFF7BBFF641C54
:101F30000D2CEBDB2D480078012823D129485C3893
:101F400090F83500012809D127480068B0F5FA6FEC
:101F500004D901202649086026490880FEF78DFA39
:101F600005280FD008200BE01E492839095C0129FB
:101F700005D1891E1E4A116001B21E4A1180401C03
:101F80000C28F1DD17485C3890F83600012815D18F
:101F9000FEF773FA012806D0FEF76FFA18B1FEF7C4
:101FA0006CFA022803D10320FEF7EEF906E0FEF7F3
:101FB00064FA052802D00520FEF7E6F90E49C97C2F
:101FC00061B90D49897C49B90B49B1F90A0000286A
:101FD00001DB014600E04142032902DD0020034904
:101FE000087010BD74030020440400208E030020FC
:101FF000940300209003002084060020704770B5F1
:102000002DED088B04469FEDFD0AB0EE408A00EEF0
:10201000104AB8EEC00ADFEDFA0A80EE201A11EE7F
:10202000105A28460AF094FC41EC1B0BB0EE4B0A08
:10203000F0EE6B0A08F070FFB0EE40AAF0EE60AA76
:102040009FEDF00B53EC102B51EC1A0B0AF0C0F97A
:1020500041EC190B09F030FF08EE100AEB4880ED57
:10206000008AB2EE080AB4EEC08AF1EE10FA02DD80
:10207000B2EE080A01E0B0EE480AB0EE408ABAEECD
:10208000080AB4EEC08AF1EE10FA02D2BAEE080ADB
:1020900001E0B0EE480AB0EE408AB0EE480ABDEC6E
:1020A000088B70BDDA4A01FB012300EE903A01EE85
:1020B000902AF8EEE11AB8EEE02AC1EE822AB0EEDC
:1020C000621ADFEDCE1AB0EE610A01EE900AF8EE68
:1020D000E11A61EE811A9FEDCA2AC1EE822AB0EEA2
:1020E000620ADFEDCC1A60EE211AB0EE610A704789
:1020F00030B52DED108B81B00446B0EE408AB2EEC3
:10210000000AB4EEC08AF1EE10FA03DDB2EE000A66
:10211000B0EE408A9FEDC00A38EE400AB0EE408A29
:1021200094ED000ADFEDBD0A30EEC00ADFEDBC0A17
:1021300020EE20FA1FEE100A0AF00AFC41EC1A0BFE
:10214000B0EE4A0AF0EE6A0A09F07AF9B0EE409A67
:10215000F0EE609A51EC190B09F0AEFE08EE900A11
:102160009FEDA60A8DED000A9FEDA40AF0EE40FA5D
:102170001FEE100A0AF0ECFB41EC1B0B9FEDA90AC5
:1021800068EE000AB7EE000A08EEE80A20EE800AC0
:10219000A548D0ED000A08EEE00AD0ED000A80EE76
:1021A000201A11EE105A28460AF0D2FB41EC1E0B01
:1021B000B0EE4E0AF0EE6E0A08F066FCB0EE40DAC1
:1021C000F0EE60DA51EC1D0B09F06AFE41EC1C0BDD
:1021D00053EC1B2B09F0A2FE41EC1A0B9FED930B65
:1021E00053EC102B0AF0F4F841EC190B09F064FEE3
:1021F00000909DED000ADFED8F0A20EE200AF0EE40
:1022000040FA9FED8D0A2FEE800A9FED8C1AC0EEEA
:10221000010A9FED820A30EE600A84ED000AB0EEFA
:102220006F0A01B0BDEC108B30BD01464F2901DDB6
:102230004F2200E00A461146814A1288521A10B213
:10224000002802DA00F1500200E0024610B27D4A96
:1022500002EB800292ED000A704701464F2901DD32
:102260004F2200E00A461146774A1288521A10B2ED
:10227000002802DA00F1500200E0024610B2734A70
:1022800002EB800292ED000A70473CB50146DFED9B
:10229000700AB4EEE00AF1EE10FA03DDDFED6C0A2D
:1022A000B0EE600ADFED6B0AB4EEE00AF1EE10FA70
:1022B00003D2DFED680AB0EE600A2D2900DD2D2182
:1022C00011F12D0F01DA6FF02C01002006E0624AB7
:1022D00032F810202DF81020421CD0B20228F6DB74
:1022E000ADF80410002226E000201EE03DF9104069
:1022F000431C3DF913309C4215DA3DF9103001EED4
:10230000103AB8EEC11AF0EE410A431C3DF8133002
:102310002DF81030BDEEE01A11EE103A1CB2431C3D
:102320002DF8134000BF431CD8B2C2F10203834210
:10233000DCDC501CC2B2022AD6DBBDF9020000EE82
:10234000900AF8EEE00A4548C0ED000A4448D0ED96
:10235000000AB6EE001A60EE810A404890ED001ABD
:10236000F6EE001A41EE210A3D48C0ED000AD0ED1C
:10237000000AB2EE041A60EE810AFDEEE00A10EEE9
:10238000900A00B2374A10803548D0ED000AB2EE0C
:10239000041A60EE810AFDEEE00A3348C0ED000A3F
:1023A0002F48D0ED000A70EE800A3048C0ED060AD2
:1023B000D0ED060AB2EE041A60EE810AFDEEE00AE4
:1023C0002B48C0ED000A2948D0ED070AB5EE001AE7
:1023D00060EE810A90ED061AF6EE081A41EE210A27
:1023E000C0ED070AD0ED070AB2EE041A60EE810ACA
:1023F000FDEEE00A1F48C0ED000A3CBD00000000F1
:102400000080B6440000006066A64C40980300209F
:1024100090862000000066429A99193E00803B4554
:102420008010493ACDCC1C41A803002000000000D8
:102430000000E03F33336542000000460000B44333
:10244000CA03002020090020CC030020600A0020DD
:1024500000003442000034C2E4030020D80300200E
:10246000EC030020D0030020B4030020A8130020B8
:10247000B8030020BC0300200146632901DD63226C
:1024800000E00A461146FE4A1288521A10B200288D
:1024900002DA00F1640200E0024610B2F94A02EBEF
:1024A000800292ED000A704770B52DED0A8B05464B
:1024B0000C46F54890ED000A20EE000AF34880ED46
:1024C000000AF34890ED0A0AF2EE040A20EE200A10
:1024D000BDEEC00AEF4880ED000AEF4890F83900E1
:1024E000012803D10020ED4948700870EC48007ABB
:1024F00002280ED1E948007801280AD1E74840882F
:1025000040F2EE21884204DC0120E44981F82100F8
:1025100003E00020E14981F82100E048007801282B
:1025200009D1E0480078142808DADE480078401C19
:10253000DC49087002E00020DA490870D74991F8B8
:1025400020104800FFF798FFD44880ED050A90ED71
:10255000050AF2EE040A20EE200ABDEEC00AD248B7
:1025600080ED000ACD4A1289A2F2DE3211B2CB4AC6
:10257000B2F91000FFF796FDCC4880ED000AC9487B
:10258000007803280FDDC548D0ED050AB0EE600ADB
:10259000C648D0ED000AFDEEE00A10EE900A00B247
:1025A000FFF773FE04E000201FED6C0AFFF76DFEDD
:1025B000BC4800780A2810DABA48007800EE100A01
:1025C000F8EE400AB2EE041A80EE810AB348D0ED6C
:1025D000070A20EE200A80ED070AB04890F8210093
:1025E00001287BD1AD48408800EE100AB8EE400AC1
:1025F000F2EE020A80EE801A11EE106A30460AF0FE
:10260000A7F941EC1C0BB0EE4C0AF0EE6C0A08F096
:1026100083FCB0EE40BAF0EE60BA9FEDA50B53EC30
:10262000102B51EC1B0B09F0D3FE41EC1A0B09F0F7
:1026300043FC08EE100A0C20FFF70FFEF2EE040A2E
:1026400020EE200AF0EE408A944991F82000FFF72E
:10265000ECFDB0EE409A91490989A1F2DE3108B251
:10266000FFF7CDFCB2EE041AF0EE680A40EE010A64
:1026700030EEC80A85ED000A88494989A1F2622135
:1026800008B2FFF7BCFC5FED940A60EE200A1FED74
:10269000951A80EE810A39EE400A84ED000A7F48DF
:1026A00090ED010ADFED840A80EE201AF0EE419AE7
:1026B000B0EE690A2046FFF71BFD804880ED000A56
:1026C0007648408894ED000ADFED7D0AB4EEE00A1A
:1026D000F1EE10FA03DD9FED7A0A02E020E094EDBE
:1026E000000A84ED000A94ED000ADFED760AB4EEEC
:1026F000E00AF1EE10FA02D29FED720A01E094EDC9
:10270000000A84ED000A95ED000A6F48D0ED000A3A
:10271000B2EE041A00EEC10A6C4880ED000A00BF58
:10272000BDEC0A8B70BD6A486A49098800EB8100DC
:1027300080ED000A67480088401C6649088008460A
:102740000088502801DB00200880704762486349F8
:10275000098800EB810080ED000A60480088401C79
:102760005E49088008460088502801DB0020088068
:10277000704744484249098800EB810080ED000A17
:102780003F480088401C3E4908800846008864286D
:1027900001DB002008807047B0EE401ADFED502AC0
:1027A000B0EE620ADFED4F2AF4EEE20AF1EE10FA23
:1027B00003DDDFED4C2AF0EE620ADFED4B2AF4EE8A
:1027C000E20AF1EE10FA03D2DFED472AF0EE620AD8
:1027D000F1EE042AB4EEE21AF1EE10FA28DDDFED94
:1027E000432A31EE623ADFED422AF3EE043A43EE39
:1027F000632AB0EE620AF2EE0E2AB4EEE20AF1EEBD
:1028000010FA02D2F2EE0E2A01E0F0EE402AB0EE0B
:10281000620ADFED372AB4EEE20AF1EE10FA02DDC9
:10282000DFED332A01E0F0EE402AB0EE620A03E069
:10283000DFED2B2AB0EE620AF1EE022AB4EEE21AC4
:10284000F1EE10FA03DDF1EE022AB0EE621A0E4943
:1028500091ED003AC1EE032A9FED263A32EE832A2B
:1028600060EE821AF4EEC01AF1EE10FA01DDF0EE1D
:10287000401AF1EE402AF4EEE21AF1EE10FA3BE0D3
:10288000CE030020A00B0020A4030020A8030020FA
:1028900070110020C003002018030020A81300209E
:1028A00084060020C8030020AC030020B0030020F1
:1028B0000000000000E881400000C8429C030020A6
:1028C00000C041450080BB4474060020C4030020C2
:1028D00020090020CA030020600A0020CC03002049
:1028E0000000A0420000FA430000FAC3CDCC4C40E7
:1028F00000008C42CDCCCC3E03D2F1EE402AF0EE6B
:10290000621AD0ED002A72EEA12AC0ED002A7047AB
:1029100070B52DED068B0446B0EE408A00EE104AED
:10292000B8EEC00AC8EE000A10EE906A30460AF00F
:102930000FF841EC1A0BB0EE4A0AF0EE6A0A08F002
:10294000EBFAB0EE409AF0EE609A51EC190B09F0F8
:10295000E5FC051E01DB284600E0684200EBC001F3
:1029600001EB001000EE100AF8EEC08AB0EE680A23
:10297000BDEC068B70BD2DE9F0412DED0A8BB0EE5C
:10298000408A04460D460027642104FB01F0C1176C
:1029900000EB11710911491D09EE901A00EE105A51
:1029A000B8EEC00ADFEDB30A80EE201A11EE106A0D
:1029B000304609F0CDFF41EC1C0BB0EE4C0AF0EEB6
:1029C0006C0A08F0A9FAB0EE40BAF0EE60BA9FEDDA
:1029D000AA0B53EC102B51EC1B0B09F0F9FC09F07E
:1029E0006BFA08EE900AB8EEE90A20EE080ADFED6D
:1029F000A40A80EE201AB0EE419A202C2FDD292C5B
:102A000016DDBDEEC80A10EE100A002801DB0146F3
:102A100000E041424FF47A7202EB8102A4F12801F6
:102A200001EB810102EB011109B2964A118055E0D8
:102A3000BDEEC80A10EE100A002801DB014600E0D6
:102A400041424FF4167202EB4102A4F1140101EB72
:102A5000810102EBC10109B28A4A11803EE0BDEE5C
:102A6000C80A10EE100A002801DB014600E04142CE
:102A7000282903DA4FF4967082490880BDEEC80A0F
:102A800010EE100A002801DB014600E041423C291B
:102A900004DA4FF4FA707B4908801FE0BDEEC80AE3
:102AA00010EE100A002801DB014600E041428229B5
:102AB00004DA4FF42F70734908800FE0BDEEC80AA6
:102AC00010EE100A002801DB014600E041424FF4FD
:102AD0002F7202EB410109B26A4A1180282C00DDF5
:102AE0002824B2EE040A28EE800ABDEEC00A10EED9
:102AF000100A00B264490880B2EE040A29EE000A06
:102B0000BDEEC00A10EE100A00B26049088039EE2E
:102B1000280AF2EE040A20EE200ABDEEC00A10EEEA
:102B2000100A00B25A4908809FED5A0A2046FFF762
:102B3000EFFE79EE280AFDEEE00A10EE906A002E14
:102B400001DB304600E0704200EE900AF8EEE00A49
:102B5000B4EEE00AF1EE10FA39DD4F480078401C7F
:102B60004D49087008460078322801DD322008708F
:102B70004948007802282DDD4849D1ED030A91ED3E
:102B8000000AB8EEC00A30EEC00ABDEEC00A10EE70
:102B9000100A002801DB014600E04142172919DA3A
:102BA0003F4991F83910A9B93E4991ED070ABDEEA8
:102BB000C00A10EE100A002801DB014600E0414285
:102BC000B1F5CD7F06DA2E2C04DC012702E00020CF
:102BD000314908703846BDEC0A8BBDE8F08110B56C
:102BE000304890F82100012813D12E4A1289A2F210
:102BF000DE3211B22B4A528810B22A4AD2ED060AAE
:102C0000B0EE600AFFF7B7FE012800D110BD00202A
:102C1000FCE70020FAE70022214890F8390028BBA1
:102C2000204B5B89A3F26221002901DB0B4600E007
:102C30004B421E2B1BDA1B4B1B89A3F2DE300028F4
:102C400001DB034600E04342052B10DA154991ED04
:102C5000060ABDEEC00A10EE100A002801DB01468C
:102C600000E04142282902DA012200E00022104659
:102C70007047000066E6E7440000006066A64C402E
:102C800000401C46E2030020E0030020DE03002099
:102C9000DC0300203333B33EF00300203400002077
:102CA00018030020A8130020282801DA282200E0B9
:102CB0000246104640F65A22904200DD00E00246ED
:102CC00010462F4AB2F90020904208D12C4A1288AF
:102CD000821A02EB420212B22A4B1A804EE0284AB4
:102CE000B2F90020904220DD254A1288821A02EBB8
:102CF000420212B2234B1A801A46B2F90020322A3D
:102D000001DA322202E01F4AB2F900201D4B1A807C
:102D10001A46B2F900208A4201DD0A4602E0194A49
:102D2000B2F90020174B1A8028E0154AB2F90020AA
:102D3000904223DA124A1288821A02EB420212B23D
:102D4000104B1A801A46B2F9002012F1320F02DD40
:102D50006FF0310202E00B4AB2F90020094B1A80F1
:102D60001A46B2F900204B429A4201DA4A4202E086
:102D7000044AB2F9002012B2024B1A8070470000D8
:102D8000D20600205A020020102803D11021294A1F
:102D9000118014E0152803D11521264A11800EE078
:102DA000192803D11921234A118008E01C2803D1D6
:102DB0001C21204A118002E000211E4A11801D4979
:102DC000098809B21C4A11801A4909880C2904DAB9
:102DD0004FF47A71174A918008E0164909880A3938
:102DE00001EB810101F25B41124A9180114909898D
:102DF000104A9288891A012905DB0E490989491E62
:102E00000C4A11810AE00B4909890A4A9288891AF9
:102E100004D508490989491C064A118105490989CF
:102E2000064A116003490989121D11607047014665
:102E300070470000F2030020000400203C0C00401A
:102E400010B50446012C04D0022C24D0032C6CD1E4
:102E500046E0FD48007801280FD14FF47A714FF415
:102E60001270FFF721FFF948B0F90000B0F5037FB9
:102E700010DD0020F44908700CE04FF47A71002056
:102E8000FFF712FFF148B0F90000462802DA0120EE
:102E9000ED49087049E0EE480078012810D14FF460
:102EA0007A7140F2E560FFF7FFFEE848B0F90000F4
:102EB00040F2A961884212DD0020E54908700EE069
:102EC0004FF47A714FF41270FFF7EEFEDF48B0F95D
:102ED0000000B0F5217F02DA0120DD49087024E00E
:102EE000DC480078012810D14FF47A7140F67E104A
:102EF000FFF7DAFED548B0F9000040F642118842EB
:102F000012DD0020D34908700EE04FF47A7140F2D0
:102F1000E560FFF7C9FECD48B0F90000B0F5E46FF9
:102F200002DC0120CB49087000BF00BF10BD014684
:102F3000B1F5127F01DC0120704740F2E56081426B
:102F400001DC0220F8E70320F6E710B5C24800785C
:102F5000C2490870C24800684FF4FA71B0FBF1F240
:102F600001FB1200A8BBBF480088002804DDBD4853
:102F70000088401EBB490880BB484088B0F5C87F28
:102F80000EDBB9484088B9490988081A1E2803DBB6
:102F90000120B749087011E00020B54908700DE024
:102FA000B1484088B1490988081A142803DB012078
:102FB000AF49087002E00020AD490870A9480088B8
:102FC000002802DD0020AA490870A7484088A749C8
:102FD0000880A8480078052872D2DFE800F00304D2
:102FE00017184F0089E00020A3490880A348006813
:102FF000B0F5487F02D900209E4908709C480078AF
:10300000012802D103209B49087076E075E05A2020
:103010009B4908709B4800689B490968884218D002
:103020008A48B0F90000FFF782FF0246012A03D167
:1030300003209649087008E0022A03D10120934931
:10304000087002E002209149087000209049086051
:1030500000BF8E480078FFF7F3FE8D480068401CE3
:103060008B49086008460068B0F57A5F05D90020F2
:10307000086080490870804908803EE08548006803
:10308000401C844908605A207D49087040F2DC5198
:103090000020FFF709FE80480078012811D140F296
:1030A000DC5140F67E10FFF7FFFD6848B0F90000E4
:1030B00040F2BD61884211DD0020774908700DE0C3
:1030C0001AE040F2DC510020FFF7EEFD5F48B0F956
:1030D0000000282802DA01206F4908706D48006856
:1030E000B0F5FA6F07D300206A490860614908709B
:1030F00001206A49087000E000BF00BF68480078FE
:1031000010B101285CD15CE053480078012813D14C
:103110005148408840F2EE2188420DDC0120604990
:103120000870604890ED000AF2EE040A20EE200AD2
:103130005D4880ED090A39E05A48D0ED000A9FED5C
:103140005B0AB2EE041A00EE810A574880ED090AC4
:103150005748007810B1012827D113E09FED550A98
:10316000514880ED030A54480068401C52490860E9
:1031700008460068FA2804D90020086001204C495C
:10318000087012E09FED4D0A474880ED030A4C4855
:103190000068401C4A49086008460068FA2803D9BC
:1031A000002008604249087000BF00BF96204549D2
:1031B00048614042086196204349486140420861A5
:1031C0003CE050203F4948614042086164203E494C
:1031D00048614042086120480078012809D11E4812
:1031E000408840F2EE21884203DC00202349086039
:1031F00004E022480068401C204908601F4800681D
:10320000B0F5487F02D900202549087014480068AD
:103210005021B0FBF1F201FB120070B917480068B1
:10322000B0F5C87F09D200F066F9012805D127481A
:103230000078012801D1FEF739FC00BF00BF124819
:1032400000681049086010BD34040020D206002038
:103250003504002036040020A813002016040020A6
:10326000440400200C040020FC1200201E04002056
:1032700004040020020400205A0200201004002050
:103280006802002018040020080400202404002004
:1032900020040020280400201C0400200E0400202C
:1032A00003040020740600203400002000000743BF
:1032B0001D04002000002F452C0400200000FA44CB
:1032C00030040020A200002026010020F40200208B
:1032D00010B53E48007810B1012869D135E03C486E
:1032E000B0F90000002803DD4FF65030394908805E
:1032F0003948007818B900203849087002E00120E8
:10330000364908703648006832304FF47A71B0FBA5
:10331000F1F201FB120078B9FCF7BAFF642190FBCF
:10332000F1F201FB1200322806DA2D48006807F09E
:1033300079FA0120254908702A4890F900000028F0
:1033400002DD01202149087032E02148B0F9000077
:1033500040F67E11884203DA4FF496601D490880DA
:103360002148007818B900201C49087002E00120AB
:103370001A4908701A4800684FF47A71B0FBF1F2EC
:1033800001FB120058B9FCF783FF642190FBF1F2B6
:1033900001FB1200322802DA00200C4908701148A3
:1033A00090F90000002802DA00200849087000BFE8
:1033B00000BF10BD21B90D4A1268521C0B4B1A6098
:1033C000032902D104220A4B1A80704715040020F9
:1033D000D20600205A020020D40600201404002047
:1033E00044040020D6060020D50600200804002052
:1033F0000C040020614800886149098888420CD08B
:103400005E48D0ED010A5F48D0F8020000EE100AD5
:1034100030EE800A594880ED010A4FF4F0705749A8
:103420000881594800686E21B0FBF1F201FB1200DF
:10343000F0BB5248D0ED010A0089400000EE100AAE
:10344000B8EEC00AF4EEC00AF1EE10FA09DD4B48FE
:103450000089400000EE100AB8EEC00A474880ED2F
:10346000010A464890ED010AF3EE000A30EE600AC8
:1034700080ED010A90ED010AB5EEC00AF1EE10FAF6
:1034800002D29FED420A02E03C4890ED010A3B481F
:1034900080ED010A3E48408900EE100AB8EE400A6D
:1034A0003648D0ED010A30EE600AF2EE040A00E080
:1034B00016E0B4EEE00AF1EE10FA08DB3448408979
:1034C00000EE100AB8EE400A2C4880ED010A2B48A5
:1034D00090ED010ABCEEC00A10EE100A2D490880DA
:1034E0002648008826490880704724480088401CE8
:1034F000224908807047284890F8380020BB1F48B0
:1035000090ED010ADFED250A70EEC00A2448B0F9FB
:103510000000400000EE100AB8EEC00AF4EEC00A47
:10352000F1EE10FA01DD012070471E4800891D49A7
:1035300008800846B0F9000000EE100AB8EEC00A94
:10354000084680ED010A16E01548B0F90000A023F6
:1035500093FBF0F0401E01B24FF47A7090FBF1F053
:1035600002B21048C068084B1B68181A904201D379
:103570000120D9E700BF0020D6E70000300D002071
:103580003A040020AD0600204404002000000000A2
:103590001013002038040020180300200000F0431E
:1035A00000040020D808002010B54FF4A06002F0FD
:1035B00017F8A82000F074F900F04CFA00F0F2F9C6
:1035C00000F0DBFA642000F0CDF9002000F0F6FAFC
:1035D000012000F0F3FA022000F0F0FA032000F0DE
:1035E000EDFA00F037F800F0C7F805F017F9002100
:1035F000084600F044FD04462146092000F0E8FC9E
:1036000000F090FB00F0F6FA00F05CFD0F4800F0CF
:1036100079FE4FF4E13001F0F1FA4FF47A3001F025
:103620003BFE4FF4E13001F067FC00F0A9FD05F02E
:1036300080FB00F011FE4FF47A7000F093F900F077
:103640002EFE01200249087010BD0000A086010076
:103650003C04002000B58BB00121082003F023FAC0
:103660000121480603F066FA0121480603F0B7FA83
:1036700000214FF0007003F0B2FA032009900220FD
:103680008DF8280000208DF82A0003208DF82900ED
:1036900001208DF82B0009A9354802F063FF0922AB
:1036A0000021334802F0E9FF09220121304802F0ED
:1036B000E4FF00208DF81E0001208DF81F0000207F
:1036C0008DF820008DF821008DF822008DF8230060
:1036D0008DF81A008DF81B0008208DF81C000320BF
:1036E0008DF81D00ADF8180006A9224802F001F877
:1036F00000208DF812008DF8130001208DF81400C1
:103700000020ADF80800ADF80A00ADF80C00ADF8E7
:103710000E00ADF8100001208DF8150002A802F08F
:1037200072F801220221134802F06CFB14208DF87C
:10373000040001208DF8050000208DF8060001200E
:103740008DF8070001A801F050FF0BB000BD00B5D7
:1037500085B00221074802F0BDFB30B102210548C7
:1037600002F053FC684604F0D5FD05B000BD000032
:10377000000C02400064004000B58BB00121022023
:1037800003F091F90121880603F0D4F9012188069C
:1037900003F025FA00214FF0806003F020FA4FF487
:1037A0004050099002208DF8280000208DF82A0052
:1037B00003208DF8290001208DF82B0009A9364837
:1037C00002F0D0FE09220C21334802F056FF0922F4
:1037D0000D21314802F051FF00208DF81E0001201C
:1037E0008DF81F0000208DF820008DF821008DF845
:1037F00022008DF823008DF81A008DF81B00082098
:103800008DF81C0003208DF81D00ADF8180006A9E6
:10381000224801F06EFF0E208DF8120000208DF876
:10382000130001208DF814000020ADF80800ADF859
:103830000A00ADF80C00ADF80E00ADF81000012044
:103840008DF8150002A801F0DEFF012202211348C5
:1038500002F0D8FA40208DF8040001208DF8050010
:1038600000208DF8060001208DF8070001A801F066
:10387000BCFE0BB000BD00B585B00221074802F0C8
:1038800029FB30B10221054802F0BFFB684604F075
:103890002CFF05B000BD000000040240006800409D
:1038A00010B504466FF0040001F0ECFEE11704EBE4
:1038B0005171C1F3C701394A11701046007800EB0D
:1038C0004001C1EBC0104FF6FF7101EAC00034495E
:1038D000088010BD0146314A12784A434FF0E02378
:1038E0005A6100229A611A46126942F001021A6175
:1038F00000BF4FF0E022106900F001021AB100F49D
:103900008032002AF5D04FF0E022126922F0010245
:103910004FF0E0231A6100229A6170470146204A65
:1039200012884A434FF0E0235A6100229A611A46F6
:10393000126942F001021A6100BF4FF0E0221069E3
:1039400000F001021AB100F48032002AF5D04FF0E5
:10395000E022126922F001024FF0E0231A610022F6
:103960009A61704770B504464FF4077094FBF0F00D
:10397000C6B24FF4077094FBF0F100FB114085B222
:1039800005E04FF40770FFF7C9FF701EC6B2002EA6
:10399000F7D115B12846FFF7C1FF70BD3E040020E6
:1039A000400400201CB50121402003F07CF84FF4B6
:1039B0000050009001208DF8040000208DF80600D2
:1039C00003208DF805006946044802F0CBFD4FF452
:1039D0000051024802F044FE1CBD000000180240E5
:1039E0001CB50121402003F05EF84FF4FF700090F9
:1039F00001208DF8040000208DF8060003208DF8CA
:103A0000050001208DF8070069464F4802F0AAFD25
:103A100002214D4802F022FE04214B4802F01EFE16
:103A20000821494802F01AFE1021474802F016FE0C
:103A30002021454802F012FE4021434802F00EFECC
:103A40008021414802F00AFE4FF480713E4802F0A6
:103A500005FE1CBD1CB50121102003F024F8012136
:103A6000202003F020F84FF40060009001208DF832
:103A7000040000208DF8060003208DF805000120C9
:103A80008DF807006946314802F06CFD4FF4804024
:103A9000009001208DF8040000208DF8060003201E
:103AA0008DF8050001208DF807006946284802F0CE
:103AB00059FD01202749086000202749C1F8AC02C0
:103AC000FFF78EFF1CBD10B5014601200AE0421E23
:103AD00041FA02F202F00102204C04EB8003C3F829
:103AE0008022401C0928F2DB10BD30B504460025B9
:103AF000082C01DD082000E02046044614F1080FE0
:103B000002DA6FF0070000E020460446002C09DBD3
:103B1000002004E0012181402943CDB2401CA04295
:103B2000F8DB0BE0002006E0C0F108020121914023
:103B30002943CDB2401C61428842F5DBE843C5B25F
:103B40002846FFF7C0FF30BD0018024000100240B9
:103B500000140240B8824242000042420000434248
:103B600010B50446032C00DD10BD0420A04081B236
:103B70001F4802F075FD00BFF6E71CB5012180204B
:103B800002F091FF3C20009001208DF804000020FD
:103B90008DF8060003208DF8050001208DF8070040
:103BA0006946134802F0DEFC002404E02046FFF7DB
:103BB000D7FF601CC4B2042CF8DB1CBD10B5044652
:103BC000032C00DD10BD0420A04081B2084802F0A3
:103BD00045FD00BFF6E710B50446032C00DD10BD1F
:103BE0000420A04081B2024802F043FD00BFF6E786
:103BF000001C024000B58BB00121802002F053FF71
:103C00000121080202F04FFF0121082002F092FF7B
:103C10004FF4E050099002208DF8280003208DF821
:103C2000290009A9E24802F09DFC01200990022028
:103C30008DF8280003208DF8290009A9DD4802F03D
:103C400091FC02220A21DA4802F017FD02220B2120
:103C5000D74802F012FD02220C21D54802F00DFDDA
:103C600002220021D34802F008FD5320ADF81800CD
:103C70000020ADF81A0042F20F7007900020ADF856
:103C8000200006A9CC4803F04EFB7020ADF80400DC
:103C90000120ADF806000020ADF808004FF4FA60EE
:103CA00003900220ADF810000020ADF81200ADF82E
:103CB00014004FF48070ADF8160001A9BE4803F05F
:103CC000C7FB01A9BC4803F0FCFB01A9BA4803F0FB
:103CD00045FC01A9B84803F0A7FC0821B64803F049
:103CE00044FD0821B44803F049FD0821B24803F01F
:103CF00052FD0821B04803F057FD0121AE4803F002
:103D00007DFB0121AC4803F097FB4FF47A70AA4980
:103D100034310860091D0860091D0860091D08602C
:103D20000BB000BD00B58BB00121082002F0BBFE36
:103D30000121042002F0FEFE4FF4704009900220A1
:103D40008DF8280003208DF8290009A99B4802F06E
:103D500009FC02220C21994802F08FFC02220D215D
:103D6000964802F08AFC02220E21944802F085FC5B
:103D700002220F21914802F080FC5320ADF8180078
:103D80000020ADF81A0042F2107007900020ADF844
:103D9000200006A98A4803F0C6FA7020ADF8040096
:103DA0000120ADF806000020ADF808004FF47A704D
:103DB00003900220ADF810000020ADF81200ADF81D
:103DC00014004FF48070ADF8160001A97C4803F090
:103DD0003FFB01A97A4803F074FB01A9784803F07E
:103DE000BDFB01A9764803F01FFC0821744803F0CD
:103DF000BCFC0821724803F0C1FC0821704803F0A4
:103E0000CAFC08216E4803F0CFFC01216C4803F086
:103E1000F5FA01216A4803F00FFB4FF47A70684904
:103E200034310860091D0860091D0860091D08601B
:103E30000BB000BD00B58BB00121080202F033FECB
:103E40000121802002F02FFE0121082002F02BFE2C
:103E50000120019002208DF8080003208DF8090050
:103E600000208DF80A0001208DF80B0001A95148AF
:103E700002F078FB4FF4E050019001A94C4802F0A9
:103E800071FB4FF48050019001A94C4802F06AFB8D
:103E900002220021474802F0F0FB02220C21444894
:103EA00002F0EBFB02220B21414802F0E6FB02226A
:103EB0000A213F4802F0E1FB02220C213F4802F0B8
:103EC000DCFB0121082002F035FE0121042002F074
:103ED00031FE0020ADF82800ADF8220044F61F6046
:103EE00009905320ADF8200000208DF82A0008A981
:103EF000314803F018FA40F24730ADF8200040F2A4
:103F0000E730099008A92E4803F00DFA6020ADF8BB
:103F10000C000120ADF80E004FF47A7005900020DF
:103F2000ADF8180003A9244803F07EFB03A922483A
:103F300003F014FB03A9204803F0C3FA03A91E48A9
:103F400003F086FA01211C4803F00FFC01211A48F6
:103F500003F014FC0121184803F01DFC0121164850
:103F600003F022FC0121144803F048FA0121124811
:103F700003F053FE0121104803F05EFA4FF4FA708B
:103F8000059003A90E4803F063FA01210C4803F0E1
:103F9000ECFB01210A4803F031FA0121084803F043
:103FA0003CFE0121064803F047FA0BB000BD0000BB
:103FB000001C024000200240000C0040000C0240A7
:103FC0000008004010B500213A4803F09AFB10BDEC
:103FD00030B58BB004460D460121402002F0AAFD09
:103FE0000121802002F05FFD0121402002F0F7FD59
:103FF0000021402002F0F3FD092206212E4802F0A4
:104000003CFB4020099002208DF8280003208DF809
:10401000290000208DF82A0002208DF82B0009A924
:10402000254802F09FFA6020ADF804000120ADF8A9
:1040300006000020ADF8100001A91E4803F008FAA0
:1040400008211C4803F091FB01211A4803F0D6F91E
:10405000681E0790601E80B2ADF818000020ADF811
:104060001A00ADF8200006A9124803F05CF90121FE
:10407000104803F0E1F9FFF7A5FF0BB030BD10B514
:10408000024643F6BD600D4B03EB021333F81130CB
:104090000B4C94FBF3F398B210BD064A2832108003
:1040A000121D1160704710B504462146014803F007
:1040B00028FB10BD00180040001C0240D2D00008B0
:1040C000802C800000B58BB00121022002F0EBFCB7
:1040D0002020099002208DF8280003208DF8290067
:1040E00000208DF82A0001208DF82B0009A9224814
:1040F00002F038FA022205211F4802F0BEFA01211F
:10410000022002F017FD0020ADF82000ADF81A00E3
:1041100044F61F6007905320ADF8180000208DF87A
:10412000220006A9154803F0FEF86020ADF804004F
:104130000120ADF8060000200390ADF8100001A9A1
:104140000E4803F0BEF901210C4803F017FB0121D2
:104150000A4803F053F90121084803F05EFD0BB053
:1041600000BD44F62062424344F6206392FBF3F123
:10417000024A3832116070470004024000040040D7
:1041800000B587B00121202002F08DFC0121080537
:1041900002F0E1FC4FF46070059002208DF81800E9
:1041A00000208DF81A0001208DF81B0003208DF8E7
:1041B000190005A9264802F0D5F90522072124484F
:1041C00002F05BFA05220821214802F056FA052286
:1041D00009211F4802F051FA4020059001208DF876
:1041E000180000208DF81A0001208DF81B00032014
:1041F0008DF8190005A9164802F0B4F940211448B9
:1042000002F02CFA4FF48270ADF802000020ADF8F5
:104210000400ADF800004FF40070ADF80A00002073
:10422000ADF80E000120ADF808000220ADF8060040
:104230002020ADF80C000A20ADF8100069460548B2
:1042400002F0D0FD0121034802F0C6FE07B000BD18
:1042500000140240005001401FB50121102002F05F
:1042600069FC36208DF8000002208DF80100012045
:104270008DF802008DF80300684601F0B6F953206E
:10428000ADF804000020ADF80600ADF80C004FF4C6
:104290007A70029001A9194803F045F81FBD10B5C6
:1042A0000121164803F0C8F801221146134803F013
:1042B000DBFC0121114803F0EBFC10BD10B501211E
:1042C0000E4803F0E8FCC0B101210C4803F0F4FCF7
:1042D00001210A4803F0DCFCFCF7AEFA084800684C
:1042E000401C07490860084600686421B0FBF1F2F1
:1042F00001FB120008B9FCF7FFFA10BD00100040E6
:104300004404002010B596B004460121022002F0BA
:10431000CAFB0121102002F01EFC072211464C4866
:1043200002F0ABF914A802F065F980201490022085
:104330008DF8540001208DF8570002208DF85500AB
:1043400000208DF8560014A9414802F00BF94148AD
:1043500003F08EFD10A803F058FE3F481090002097
:10436000ADF84400ADF846004FF48060ADF8480069
:104370000420ADF84A000020ADF84C0010A93548E3
:1043800003F0DDFD0121334803F061FE01224021ED
:10439000304803F009FF314801F08AFE0121880509
:1043A00002F081FB4FF0006000902A48001D019050
:1043B0002B480290002003901220049000200590CA
:1043C0004FF4806006900020079008904FF48070B2
:1043D00009904FF440300A9000200B900C900D9003
:1043E0000E9069461D4801F005FF012210211B486F
:1043F00001F0C7FF0121194801F036FF3A208DF87E
:104400003C0000208DF83D008DF83E0001208DF825
:104410003F000FA801F0E9F816B010BD10B5114922
:104420000E4801F0CBFF88B14FF081510B4801F0ED
:1044300094FF0C49094801F0EBFF094804F0DAFF4A
:104440000948FDF72CFD0220FDF739FD10BD0000E5
:104450000004024000100140A086010040640240B8
:104460003C0D0020008020103603002010B596B0CF
:1044700004460121082002F016FB0121480502F044
:1044800012FB0121480402F055FBFB4803F0F0FC4D
:104490000121F94803F0EFFD07220521F74802F05A
:1044A000ECF807220621F54802F0E7F860201490A6
:1044B00002208DF8540000208DF8560003208DF85E
:1044C000550000208DF8570014A9EC4802F04AF876
:1044D00026208DF83C0002208DF83D0001208DF84B
:1044E0003E008DF83F000FA801F07FF810A803F000
:1044F0008CFD10940020ADF84400ADF84600ADF8F6
:1045000048000C20ADF84A000020ADF84C0010A97E
:10451000D94803F014FD012240F22441D64803F0AB
:104520004CFE01224021D44803F03EFE0021D24837
:1045300003F08DFDD24801F0BBFD4FF0006000900C
:10454000CD48001D0190CF480290002003906420C8
:104550000490002005904FF48060069000200790A2
:10456000089009904FF480300A9000200B900C9036
:104570000D900E906946C248603001F03BFE10205D
:104580008DF83C0002208DF83D0001208DF83E00A2
:104590008DF83F000FA801F028F801221021B8483B
:1045A000603001F0EEFE0022B6496431B44860305C
:1045B00001F081FE0121B248603001F088FE012146
:1045C000AF48603001F050FE16B010BD00B591B09C
:1045D0000121480502F067FAA948783001F068FD2A
:1045E0004FF000600190A448001D0290A64803907F
:1045F000402004904FF4C8700590002006904FF4BE
:10460000806007900020089009900A904FF40030D5
:104610000B9000200C9001200D9000200E900F9028
:1046200001A99748783001F0E5FD01221021944856
:10463000783001F0A6FE012280218F4803F0B4FDFE
:1046400011208DF8400002208DF8410001208DF8E6
:1046500042008DF8430010A800F0C7FF00218848F1
:10466000783001F001FE11B000BD70B504460D4672
:1046700000BF864800780028FBD1012083490870DC
:104680002A462146804806F0EBF829467C487830D7
:1046900001F00BFE01217A48783001F0E5FD70BD94
:1046A00010B57B497648783001F088FE78B17849BA
:1046B0007348783001F051FE00217148783001F0E4
:1046C000D3FD012240F226616B4803F076FD10BD58
:1046D00010B540F22771684803F0AAFD40B90022E6
:1046E00040F22661644803F068FD002067490870C5
:1046F00010BD0146B1F8C800B1F8CA20904201D1FE
:10470000C7207047B1F8CA00B1F8C820801A012844
:1047100006D0B1F8CA00B1F8C820801AC73008B96D
:104720000020EEE7B1F8CA00B1F8C820801A401E98
:10473000002806D4B1F8CA00B1F8C820801A401E7B
:1047400005E0B1F8CA00B1F8C820801AC73080B2BD
:10475000D7E72DE9F04104460F4615462046FFF7FE
:10476000C8FFA84227DB002D25DDB4F8C800284487
:10477000C8280CDAB4F8C81008192A46394606F0D9
:104780006FF8B4F8C8002844A4F8C80016E0B4F8DC
:10479000C800C0F1C806B4F8C81008193246394636
:1047A00006F05EF8AA1BB919204606F059F8A81BB6
:1047B000A4F8C80002E00020BDE8F0810120FBE77A
:1047C00010B540F224412C4803F032FD002852D0AD
:1047D00001203049A1F8CE00274800882648001D56
:1047E00000882748603001F082FDE0BB00202A49A4
:1047F0000870002210212248603001F0C2FD002123
:104800001F48603001F030FD24491D48603001F040
:10481000FFFD1B48603001F04AFDC0F164002049F3
:104820000860642016496431086015482838D0F8BB
:10483000880040F4002012492839C1F8880018483F
:10484000008882B21448007800EBC00303EB00102C
:104850000C4B03EB80010F48FFF77BFF0122102177
:104860000748603000E01DE001F08BFD01210448A5
:10487000603001F0F9FC52E000440040000C0240BE
:1048800028600240560D0020EE0E00204804002053
:10489000008020201E0E00204904002000880020F7
:1048A0004C0400200120CE49087000221021CD4880
:1048B00001F067FD0021CB4801F0D6FCCA49C94888
:1048C00001F0A6FDC74801F0F2FCC0F16400C74941
:1048D00008606420C349091D0860C2488838D0F8C0
:1048E000880020F40020BF498839C1F88800BF48FB
:1048F000008882B2BA48007800EBC00303EB0010D6
:10490000BB4B03EB8001BB48FFF723FF01221021C3
:10491000B44801F036FD0121B24801F0A5FC10BDFC
:1049200010B5FFF7D5FEFFF74BFF10BD10B5AE4930
:10493000AC4801F043FDF0B1AB49AA4801F00DFDD0
:10494000A84801F0D4FC08B9012000E00020A449E7
:104950000870A9480088A848001D0088084600780B
:1049600000EBC00202EB0010A14A02EB80016422BE
:10497000A048FFF7EEFE10BD0146B1F8C800B1F83F
:10498000CA20904201D100207047B1F8CA00B1F8A6
:10499000C820801A012806D0B1F8CA00B1F8C82092
:1049A000801AC73008B9C720EEE7B1F8C800B1F8DF
:1049B000CA20801A05D4B1F8C800B1F8CA20801AFC
:1049C00005E0B1F8C800B1F8CA20801AC83080B23A
:1049D000DAE72DE9F04107460C4615462046FFF779
:1049E000CBFFA84227DB002D25DDB4F8CA00284400
:1049F000C8280CDAB4F8CA0001192A46384605F06E
:104A00002FFFB4F8CA002844A4F8CA0016E0B4F88E
:104A1000CA00C0F1C806B4F8CA00011932463846C7
:104A200005F01EFFAA1B2146384605F019FFA81BFA
:104A3000A4F8CA0002E00020BDE8F0810120FBE7F5
:104A400030B5034601241846FFF796FFA0421CDB51
:104A5000002C1ADDB3F8CA002044C82808DAB3F8DD
:104A6000CA001D5CB3F8CA002044A3F8CA000AE0DB
:104A7000B3F8CA10C1F1C800B3F8CA105D5C211ABE
:104A8000A3F8CA1000BF284630BD0020FCE72DE97E
:104A9000F04107460C462046FFF76EFF0546002D05
:104AA00025DDB4F8CA002844C8280CDAB4F8CA00D6
:104AB00001192A46384605F0D3FEB4F8CA00284446
:104AC000A4F8CA0016E0B4F8CA00C0F1C806B4F8E9
:104AD000CA0001193246384605F0C2FEAA1B21461B
:104AE000384605F0BDFEA81BA4F8CA0002E000206D
:104AF000BDE8F0810120FBE72DE9F04781460D4636
:104B000017461C462846FFF737FF3919884221DB34
:104B1000002C1FDDB5F8CA003844C82190FBF1F223
:104B200001FB12063019C82805D2A91922464846A9
:104B300005F096FE0DE0C6F1C808A91942464846A0
:104B400005F08EFEA4EB08022946484605F088FED3
:104B500000BF02E00020BDE8F0870120FBE770B550
:104B600003460C4601251846FFF706FF61198842E7
:104B70000BDB002D09DDB3F8CA002044C82290FBEE
:104B8000F2F602FB1601585C70BD0020FCE710B580
:104B900003460C461846FFF7EFFEA04214DB002C3C
:104BA00012DDB3F8CA002044C82805DAB3F8CA00F9
:104BB0002044A3F8CA0009E0B3F8CA10C1F1C80044
:104BC000211AA3F8CA1001E0002010BD0120FCE763
:104BD00000200849A1F8C800A1F8CA0070470000E9
:104BE0004904002088600240008800204C04002016
:104BF000560D00201E0E00200044004010B596B057
:104C000004460121082001F04EFF0121480501F072
:104C10004AFF0121880401F08DFF764803F028F94E
:104C200007220821744801F028FD07220921724853
:104C300001F023FD4FF48070149002208DF8540091
:104C400000208DF8560003208DF8550000208DF8C7
:104C5000570014A9684801F085FC4FF400701490C7
:104C600002208DF8540001208DF8560003208DF8A5
:104C7000550001208DF8570014A95F4801F072FC1F
:104C800027208DF83C0002208DF83D0001208DF892
:104C90003E008DF83F000FA800F0A7FC10A803F01D
:104CA000B4F910940020ADF84400ADF84600ADF81A
:104CB00048000C20ADF84A000020ADF84C0010A9C7
:104CC0004C4803F03CF9012240F22441494803F0EA
:104CD00074FA01224021474803F066FA0121454851
:104CE00003F0B5F9454801F0E3F94FF0006000909A
:104CF0004048001D0190424802900020039064202B
:104D00000490002005904FF48060069000200790EA
:104D1000089009904FF480300A9000200B900C907E
:104D20000D900E906946354801F064FA002234492E
:104D30006431324801F0BFFA0121304801F0C7FA6E
:104D400001212E4801F090FA16B010BD10B540F2C6
:104D50002441284803F06CFA00284AD025480088EE
:104D60002448001D0088254801F0C1FA00BB00203E
:104D7000244908700021214801F076FA1F4801F00B
:104D800096FAC0F164002049086064201B49283964
:104D9000C8620846806A40F40020886201211748F2
:104DA00001F062FA18480178154804F033FC20E05D
:104DB0000120144908700021104801F055FA0F48ED
:104DC00001F075FAC0F164000F49086064200B49D6
:104DD0002839C8620846806A20F4002088620121D0
:104DE000064801F041FA084801780548643004F0AB
:104DF00011FC10BD00480040000C02402860024039
:104E00007E100020520400205404002010B588B009
:104E100004460121402001F046FE0121202001F03E
:104E20009AFE08220921314801F027FC08220E21B0
:104E30002E4801F022FC4FF48440069002208DF8A9
:104E40001C0000208DF81E0003208DF81D0000209E
:104E50008DF81F0006A9254801F084FB244803F0C3
:104E600007F802A803F0D1F802940020ADF80C0076
:104E7000ADF80E00ADF810000C20ADF812000020C7
:104E8000ADF8140002A91A4803F059F847208DF82C
:104E9000040001208DF805008DF806008DF807004C
:104EA00001A800F0A2FB012240F22551104803F0B6
:104EB00084F901210E4803F0CAF808B010BD10B5FE
:104EC00040F225510A4803F0B3F968B1084803F0ED
:104ED000EDF808490870064800880548001D00885C
:104EE0000846007804F062FD10BD00000018024082
:104EF000001401405804002010B588B00446012178
:104F0000102001F0D0FD0121880701F013FE0822D6
:104F100007213C4801F0B1FB08221146394801F055
:104F2000ACFB8020069002208DF81C0000208DF83C
:104F30001E0003208DF81D0001208DF81F0006A91A
:104F4000304801F00FFB4FF48070069002208DF87E
:104F50001C0000208DF81E0003208DF81D0001208C
:104F60008DF81F0006A9274801F0FCFA264802F038
:104F70007FFF02A803F049F802940020ADF80C006E
:104F8000ADF80E00ADF810000C20ADF812000020B6
:104F9000ADF8140002A91C4802F0D1FF52208DF890
:104FA000040001208DF805008DF806008DF807003B
:104FB00001A800F01AFB012240F22551124803F02B
:104FC000FCF80121104803F042F808B010BD10B5FC
:104FD00040F225510C4803F02BF990B10A4803F038
:104FE00065F80A490870084800880748001D0088CD
:104FF0000846007804F046FC05480068401C044957
:10500000086010BD001002400078004060040020DD
:105010005C04002000B58BB00121802001F043FD2D
:105020000121080201F03FFD0121082001F082FD6D
:105030004FF4E050099002208DF8280003208DF8ED
:10504000290009A98B4801F08DFA0120099002205E
:105050008DF8280003208DF8290009A9864801F061
:1050600081FA02220A21834801F007FB02220B2168
:10507000804801F002FB02220C217E4801F0FDFA7B
:10508000022200217C4801F0F8FA1220ADF8180045
:105090000020ADF81A00052007900020ADF8200090
:1050A00006A9764802F03FF97020ADF8040001200F
:1050B000ADF806000020ADF8080003900220ADF81E
:1050C00010000020ADF81200ADF814004FF480700D
:1050D000ADF8160001A9694802F0BAF901A96748BC
:1050E00002F0EFF901A9654802F038FA01A9634816
:1050F00002F09AFA0821614802F037FB08215F4864
:1051000002F03CFB08215D4802F045FB08215B48AA
:1051100002F04AFB0121594802F070F9002157487A
:1051200002F08AF90BB000BD00B58FB0012148052F
:1051300001F0B9FC0520FEF715FC0021504801F0F4
:1051400093F84F4800F0B4FF4FF0406000904B4898
:105150003C3001904B48029040200390792004900D
:10516000002005904FF4806006908000079080003A
:105170000890002009904FF480300A9000200B9096
:1051800003200C9000200D900E9069463C4801F0E1
:1051900031F801221102394802F096FD0021384809
:1051A00001F062F80121354802F046F90FB000BD68
:1051B00010B53549324801F0B4F818B933480078D1
:1051C00001281CD001203149087031492C4801F0D8
:1051D000C4F800212A4801F047F87921284801F055
:1051E00064F80121264801F03FF824481430008873
:1051F00040F00100214914310880012010BD002039
:10520000FCE72DE9F04105460C46052C02DD0020A7
:10521000BDE8F08100211EE0002019E0072214E023
:1052200001EB41032B441B5C134103F00103194EB6
:10523000F35C01EB4106F60006EBC006C2F107077E
:105240003E44104F47F82630521E002AE8DA401C30
:105250000328E3DB491CA142DEDB002004EB440110
:10526000082202EBC101074A42F82100FFF7A0FF24
:105270000120CDE7001C024000200240000C00404D
:105280001060024064040020200000104806002046
:105290002080001002D1000810B588B0044601211A
:1052A000102001F000FC0121C80701F043FC082296
:1052B0000021304801F0E1F9082201212D4801F0D8
:1052C000DCF90320069002208DF81C0000208DF8E8
:1052D0001E0003208DF81D0001208DF81F0006A977
:1052E000244801F03FF9244802F0C2FD02A802F070
:1052F0008CFE02940020ADF80C00ADF80E00ADF865
:1053000010000C20ADF812000020ADF8140002A926
:10531000194802F014FE53208DF8040001208DF886
:1053200005008DF806008DF8070001A800F05DF972
:10533000012240F22551104802F03FFF01210E48A2
:1053400002F085FE08B010BD10B540F225510A48A4
:1053500002F06EFF68B1084802F0A8FE0749087025
:10536000054800880448001D00880846007804F0BD
:105370001DFB10BD00100240007C004049060020CB
:10538000704700BFFEE700BFFEE700BFFEE700BFBB
:10539000FEE7704770477047704700000CB500206B
:1053A000019000908348006840F480308149086093
:1053B00000BF8048006800F4003000900198401C55
:1053C0000190009818B90198B0F5A04FF1D1794833
:1053D000006800F4003010B10120009001E00020CE
:1053E00000900098012860D172484030006840F079
:1053F00080507049403108606F48006840F4404078
:105400006D4908606B48083000686A4908310860D7
:105410000846006840F4004008600846006840F410
:10542000A05008606548091F0860081F006840F028
:105430008070091F086000BF5E48006800F00070BF
:105440000028F9D05C48006840F480305A49086070
:1054500000BF5948406800F480300028F9D0564811
:10546000006840F400305449086000BF524840686A
:1054700000F400300028F9D040F20570504908606F
:105480004C480830006820F003004A4908310860A1
:105490000846006840F00200086000BF4548083038
:1054A000006800F00C000828F8D10CBD10B5454884
:1054B000006840F47000434908603E48006840F0CE
:1054C00001003C49086000203A4908310860394829
:1054D00000683D490840374908603C48091D08609C
:1054E000081F006820F48020091F0860002031494F
:1054F0000C310860FFF752FF4FF0006031498039EE
:10550000086010BD70B50020002202230024022193
:10551000284D08352D6805F00C0020B1042806D070
:10552000082834D107E02A4D2A4E356033E02A4D51
:10553000284E35602FE01F4D2D1D2D68C5F380547A
:105540001C4D2D1D2D6805F03F0154B1224DB5FBBA
:10555000F1F5184E361D3668C6F3881605FB06F2BF
:1055600009E01B4DB5FBF1F5124E361D3668C6F34A
:10557000881605FB06F20F4D2D1D2D68C5F301455C
:105580006D1C6B00B2FBF3F5124E356003E0104D5D
:10559000104E356000BF00BF064D08352D68C5F3BD
:1055A00003150E4E705D0B4D2D68C540094E3560DC
:1055B00070BD000000380240007000400C544007ED
:1055C000003C024088ED00E0FFFFF6FE10300024B2
:1055D0000024F4004C060020001BB70050060020F9
:1055E00032490143324A1160704770B500210023EF
:1055F0000F22C4781CB32E4C246804F4E064C4F574
:10560000E064C4F30721C1F10404E3B20A41447821
:105610009C40E1B28478144021430C07210E254CB4
:1056200005786155047804F01F050124AC40057825
:105630006D11AD0005F1E025C5F8004109E00478E1
:1056400004F01F050124AC401B4D0678761145F887
:10565000264070BD194A0A400243154B1B1F1A60B1
:10566000704739B1124A121D12680243104B1B1DBC
:105670001A6006E00E4A121D126882430C4B1B1D75
:105680001A607047042808D14FF0E021096941F001
:1056900004014FF0E022116107E04FF0E0210969B9
:1056A00021F004014FF0E022116170470000FA057B
:1056B0000CED00E000E400E080E100E080FFFF1F6F
:1056C00010B50446FE48844209D10121480601F084
:1056D00086FA00214FF0007001F081FA08E0012104
:1056E000880601F07CFA00214FF0806001F077FA23
:1056F00010BD30B5024600200023146824F00204D7
:105700001460146844F00104146000E05B1C5468E9
:1057100004F001041CB94FF6FF74A342F6D154689B
:1057200004F001040CB900206CE08C79012C04D148
:10573000146844F08004146003E0146824F08004CA
:105740001460CC79012C04D1146844F04004146036
:1057500003E0146824F0400414600C7A012C04D196
:10576000146844F02004146003E0146824F020045A
:1057700014604C7A012C04D1146844F010041460B5
:1057800003E0146824F0100414608C7A012C04D116
:10579000146844F00804146003E0146824F008045A
:1057A0001460CC7A012C04D1146844F00404146011
:1057B00003E0146824F0040414608C78A407CD7806
:1057C00044EA05640D7944EA05444D7944EA0554F8
:1057D0000D886D1E2C43D461146824F001041460FC
:1057E000002300E05B1C546804F001041CB14FF678
:1057F000FF74A342F6D1546804F001040CB10020F8
:1058000000E0012030BD10B50021837A012202FAA8
:1058100003F1AC4A126842F00102AA4B1A60A94A8D
:105820001C3212688A43A74B1C331A60027BCAB928
:10583000A44A0C3212688A43A24B0C331A60428885
:10584000C38842EA03439F4A4032847A42F83430A4
:105850000288838842EA03439A4A4032847A02EB00
:10586000C4025360027B012A19D1964A0C32126895
:105870000A43944B0C331A604288038842EA03437C
:10588000904A4032847A42F83430C288838842EAAF
:1058900003438C4A4032847A02EBC4025360C27ADA
:1058A0003AB9884A121D12688A43864B1B1D1A603A
:1058B00006E0844A121D12680A43824B1B1D1A60BF
:1058C000028932B97F4A143212688A437D4B1433FD
:1058D0001A600289012A06D17A4A143212680A43F0
:1058E000784B14331A60427B012A06D1754A1C3268
:1058F00012680A43734B1C331A60724A126822F012
:105900000102704B1A6010BD00218171C1710172DA
:1059100041728172C1728170C170032101710221D3
:1059200041710121018070476649096841F0010118
:10593000644A11601146096843F60E729143614A48
:1059400011601146096841EA002111601146096899
:1059500021F001011160704721B1026842F48032E8
:10596000026003E0026822F4803202607047E1B115
:10597000026842F0800202604FF4C272125842F490
:1059800080734FF4C27213504FF4CA72125842F42B
:1059900080734FF4CA7213504FF4D272125842F40B
:1059A00080734FF4D27213501BE0026822F0800221
:1059B00002604FF4C272125822F480734FF4C27224
:1059C00013504FF4CA72125822F480734FF4CA7203
:1059D00013504FF4D272125822F480734FF4D272E3
:1059E0001350704710B502460020936803F080639F
:1059F000B3F1806F00D110E0936803F00063B3F15E
:105A0000006F01D1012008E0936803F08053B3F1E7
:105A1000805F01D1022000E00420042879D002F543
:105A2000C07303EB00131B6803F0010402F5C0739D
:105A300003EB00131C600B7A7BB94B7A0C8843EAAA
:105A4000445302F5C07404EB00142468234302F5A8
:105A5000C07404EB0014236010E00B7A4C6843EA36
:105A6000C4034C7A234302F5C07404EB0014246889
:105A7000234302F5C07404EB001423608B7A03F017
:105A80000F038B7202F5C07303EB00135B6823F006
:105A90000F0402F5C07303EB00135C6002F5C073E2
:105AA00003EB00135B688C7A234302F5C07404EBAC
:105AB000001463608B7B1C064B7B44EA034403E0C9
:105AC00000640040006600400B7B44EA0323CC7A6C
:105AD000234302F5C07404EB0014A3608B7C1C0606
