:020000040800F2
:10000000E01C0020B98A0008755B0008775B0008D7
:100010007B5B00087F5B0008835B0008000000003A
:10002000000000000000000000000000875B0008E6
:10003000895B0008000000008B5B00088D5B0008F6
:10004000D38A0008D38A0008D38A0008D38A00081C
:10005000D38A0008D38A0008D38A0008D38A00080C
:10006000D38A0008D38A0008D38A0008D38A0008FC
:10007000D38A0008D38A0008D38A0008D38A0008EC
:1000800021510008954E0008D38A0008D38A000841
:10009000433F0008D38A0008D38A0008D38A0008A7
:1000A000D38A0008D38A0008D38A0008D38A0008BC
:1000B000D38A0008D38A0008D38A0008D38A0008AC
:1000C000D38A0008D38A0008D38A0008D38A00089C
:1000D000D38A0008D38A000815510008415500084A
:1000E000D38A0008D38A0008D38A0008D38A00087C
:1000F000D38A0008D38A0008D38A0008D38A00086C
:10010000D38A0008D38A0008D38A0008D38A00085B
:10011000D38A0008D38A0008B14A0008D38A0008AD
:10012000D38A0008D38A0008114C0008D38A00083B
:10013000D38A0008D38A0008D38A0008D38A00082B
:100140006B400008D38A0008D38A0008D38A0008CD
:10015000D38A0008D38A0008D38A0008B35600085F
:10016000D38A0008D38A0008D38A0008D38A0008FB
:10017000D38A0008D38A0008D38A0008D38A0008EB
:10018000D38A0008D38A0008C35700083D5B0008E3
:10019000D38A0008D38A0008D38A0008D38A0008CB
:1001A0000000000000000000D38A000800F002F800
:1001B00000F05EF80AA090E8000C82448344AAF1A3
:1001C0000107DA4501D100F053F8AFF2090EBAE8A1
:1001D0000F0013F0010F18BFFB1A43F0010318477B
:1001E000A8DD0000C8DD00000A444FF0000C10F844
:1001F000013B13F0070408BF10F8014B1D1108BFA5
:1002000010F8015B641E05D010F8016B641E01F844
:10021000016BF9D113F0080F1EBF10F8014BAD1C94
:100220000C1B09D16D1E58BF01F801CBFAD505E0B2
:1002300014F8016B01F8016B6D1EF9D59142D6D30C
:10024000704700000023002400250026103A28BF34
:1002500078C1FBD8520728BF30C148BF0B60704738
:100260001FB50DF096F80AF0A4FF1FBD10B510BD24
:100270000BF05DF81146FFF7F3FF00F023F80BF0E9
:100280007BF803B4FFF7F2FF03BC0BF07BF8000030
:100290000B49D1F800C04A685CF8043B1068184468
:1002A00042F8040B8C4528BFA1F1DC0C8A4228BF20
:1002B000A1F1DC02C1F800C04A6020F000407047A4
:1002C000781600204FF4A06005F084FD03F062FD75
:1002D000002433E02E4890F90000082805DA2C4865
:1002E0000078C01C40B22A4908702A490968C1F345
:1002F0004F0004F0D2FA04EB4402274B03EB420216
:10030000917804EB440213F8120004F0B2FA0546A7
:100310002946092004F0BBFA04EB44011E4A02EB13
:1003200041018D8805EBD571481003F015FF04F0ED
:1003300043FA1E2003F010FF601C641C162CC9DB5E
:100340000020164908600821012000F00FFC012060
:10035000134908700BE0134800684FF47A71B0FB42
:10036000F1F201FB120010B9082009490870F2E708
:10037000F0EE400AF5EEC00AF1EE10FA02D2B1EE4C
:10038000600A01E0B0EE600AF0EE400A704700003B
:100390000C0000202C1800402ED80008B8824242E1
:1003A0001A00002078040020F9490870704710B541
:1003B000C024F8480088A0F5806000EE900AF8EEAE
:1003C000E00AB0EE600AFFF7D3FFDFEDF30AB4EE08
:1003D000E00AF1EE10FA01D8012000E00020044309
:1003E000EC484088A0F5806000EE900AF8EEE00A44
:1003F000B0EE600AFFF7BCFFDFEDE70AB4EEE00AFB
:10040000F1EE10FA01D8012000E0002044EA400497
:10041000E0488088A0F5806000EE900AF8EEE00ADF
:10042000B0EE600AFFF7A4FFDFEDDB0AB4EEE00AEE
:10043000F1EE10FA01D8012000E0002044EA800427
:10044000D448C088A0F5806000EE900AF8EEE00A7B
:10045000B0EE600AFFF78CFFDFEDCF0AB4EEE00AE2
:10046000F1EE10FA01D8012000E0002044EAC004B7
:10047000C848007A012807D0C648007A022803D06D
:10048000C448007A032801D1012000E0002044EA9A
:100490000014C048407A012807D0BE48407A02289C
:1004A00003D0BC48407A032801D1012000E000209D
:1004B00044EA4014FF2C07D00320FFF775FF1422F5
:1004C000B449B6480AF07EFE10BDB14800787047C6
:1004D00010B5FFF7FAFF08287ED2DFE800F011041C
:1004E0001E872B65584B00231A461946184608F0FC
:1004F0007FFB00231A461946184608F0A8FB82E045
:1005000000231A461946184608F072FB00231A46C3
:100510001946184608F09BFB75E000231A46194659
:10052000184608F065FB00231A461946184608F0DD
:100530008EFB68E09A4CE48823B2994CA48822B2DE
:10054000984CA48C21B2974C248C20B208F050FB1C
:10055000954B93ED070ABDEEC00A10EE103A1AB2A1
:10056000924B9B8A19B2914B1B8D18B2002308F055
:100570006EFB48E000231A461946184608F038FB7F
:1005800000231A461946184608F061FB3BE0002399
:100590001A461946184608F02BFB00231A4619463E
:1005A000184608F054FB2EE07D4CE48823B27C4CC6
:1005B000A48822B27B4CA48C21B27A4C248C20B229
:1005C00008F016FB784B93ED070ABDEEC00A10EE5B
:1005D000103A1AB2754B00E008E09B8A19B2734BCF
:1005E0001B8D18B2002308F032FB0CE000231A46E2
:1005F0001946184608F0FCFA00231A461946184610
:1006000008F025FB00BF00BF10BD10B56148008891
:100610006049498808445F49898808445D49C98818
:100620000844A0F5805000EE900AF8EEE00AB0EE23
:10063000600AFFF79DFEF2EE080AB4EEE00AF1EE62
:1006400010FA01DD00F0D7F910BD10B5FFF73DFF3E
:10065000082847D2DFE800F01F0427372F3D38363F
:100660005348006842F21071884213D9FFF7CDFF5A
:100670000020FFF799FE9FED4F0A4C4880ED030ADA
:100680004D4890ED000AF2EE040A20EE200A474899
:1006900080ED090A26E000F03BFF0220FFF784FE10
:1006A00001F04DFB1EE00620FFF77EFE00F030FF5C
:1006B00001F045FB16E000F02BFF01F040FB01F0DC
:1006C0008BFA0FE00EE00DE001F086FA00F020FF5B
:1006D00008E003F0D9F800F01BFF01F030FB01F057
:1006E0007BFA00BF00BF10BD10B52A48008840F259
:1006F0009461081A00EE900AF8EEE00AB0EE600A83
:10070000FFF736FEF7EE000AB4EEE00AF1EE10FA5B
:100710003CD82048408840F29461081A00EE900AC4
:10072000F8EEE00AB0EE600AFFF722FEF7EE000AEC
:10073000B4EEE00AF1EE10FA28D816488088A0F549
:10074000B67000EE900AF8EEE00AB0EE600AFFF72D
:100750000FFEF7EE000AB4EEE00AF1EE10FA15D83B
:100760000C48C08840F29461081A00EE900AF8EE36
:10077000E00AB0EE600AFFF7FBFDF7EE000AB4EE08
:10078000E00AF1EE10FA01D800F035F910BD0000D2
:1007900010000020B8060020008025447C070020BF
:1007A000FA030020EC0800203C090020440000204F
:1007B0007804002000C04145A806002010B5FFF7CE
:1007C00084FE94490870FFF780FE082805D2DFE810
:1007D00000F00504066507AA3F1CB3E0B2E0B1E0F3
:1007E0008D48007A032802D10620FFF7DDFD8A48F4
:1007F000007A032807D189480078032803D1864866
:10080000407A012800D000BF9CE08348C07CA0B99A
:100810008148807C88B98048B0F90A0000EE900ACF
:10082000F8EEE00AB0EE600AFFF7A2FDF0EE080A6B
:10083000B4EEE00AF1EE10FA02DD0420FFF7B4FD99
:100840007548007A022802D10520FFF7ADFD79E056
:10085000FFF74AFF7048007A01280DD1704890EDEB
:10086000000AF2EE040A20EE200A6E4880ED090A22
:100870000420FFF799FD10E06748007A02280CD1A8
:10088000674890ED000AF2EE040A20EE200A65485F
:1008900080ED090A0520FFF787FD53E062480068F4
:1008A000401C61490860614890F8360058BB5A48BE
:1008B0000088594949880844574989880844564955
:1008C000C9880844A0F5805000EE900AF8EEE00ACE
:1008D000B0EE600AFFF74CFDF2EE040AB4EEE00A57
:1008E000F1EE10FA0FD24E4890ED000AF2EE040A33
:1008F00020EE200A4B4880ED090A0420FFF754FD42
:10090000002049490860494890F8360050B94648E7
:10091000006841F27071884204D9002042490860A1
:1009200000F069F80EE03C48007A012802D104206A
:10093000FFF73AFD3848007A032802D10620FFF776
:1009400033FD00BF00BF3448407A3449087010BD01
:1009500010B53748007830B9354890F822000128A2
:1009600001D13449087008F0BCFE33480068052105
:10097000B0FBF1F201FB120008B903F031F901F00C
:10098000A7FBFFF71BFF2D484078042802D1052064
:10099000FFF70AFDFFF759FEFFF79AFDFFF707FD86
:1009A000254800687821B0FBF1F201FB120078B90C
:1009B000234890F90000002805DD21480078401EFA
:1009C00040B21F4908701E4890F9000003F087FCF0
:1009D0001C48B0F9000002F0F0FA10BDF0EE400A39
:1009E000F5EEC00AF1EE10FA02DBB0EE600A7047D5
:1009F000B1EE600AFBE7BFF34F8F1348006800F4C5
:100A0000E06012490843001D0F490860BFF34F8F93
:100A100000BFFEE713000020B806002012000020EF
:100A2000A806002044000020140000202803002015
:100A3000341500201100002078040020D00600208A
:100A40000C000020060400200CED00E00000FA0578
:100A500010B5FB4800780A2832DAF94800780028F7
:100A60002EDDF84800684FF41661B0FBF1F201FB8F
:100A70001200F34909784900C1EB011101EB810132
:100A8000B0EB410F2BD8EF4800684FF41661B0FB74
:100A9000F1F201FB120028B94FF48041EA4806F058
:100AA000D7F91CE0E74800689621B0FBF1F201FBA2
:100AB0001200A0B94FF48041E34806F0D4F90EE0EB
:100AC000DF4800780A2805DB4FF48041DE4806F055
:100AD000C1F904E04FF48041DB4806F0B9F9DB4886
:100AE00000780A2832DAD948007800282EDDD54867
:100AF00000684FF41661B0FBF1F201FB1200D3491C
:100B000009784900C1EB011101EB8101B0EB410F04
:100B10002BD8CC4800684FF41661B0FBF1F201FB12
:100B2000120028B94FF40061C94806F091F91CE0A1
:100B3000C44800689621B0FBF1F201FB1200A0B995
:100B40004FF40061C24806F08EF90EE0BF4800780D
:100B50000A2805DB4FF40061BD4806F07BF904E08C
:100B60004FF40061BA4806F073F910BD0A2801DDA0
:100B70000A2200E00246B24B1A700A2901DD0A225D
:100B800000E00A46B14B1A70704710B5B1480078C2
:100B900020B1012822D0022860D140E0AE48007880
:100BA000401CAD4908700846007850280ADB012037
:100BB000A84908705020A84908700020A74908706B
:100BC000A7490870A4480078C0F15000A5494870B2
:100BD000A14800780870002088703FE09F480078A6
:100BE000401C9E4908700846007850280BDB022004
:100BF000984908700020984908705020974908705B
:100C00000020974908700020964948709348007862
:100C1000C0F1500008709148007888701EE090483C
:100C20000078401C8E49087008460078502809DB7F
:100C30000020884908708849087088490870502049
:100C400087490870864800788649487000200870F7
:100C500083480078C0F15000887000BF00BF0020BA
:100C60004FE08149095C11B1012948D124E07F4955
:100C700001EB800191ED000ADFED7D0A30EE200AE4
:100C80007A4901EB800181ED000A784901EB80018E
:100C900091ED000ADFED770AB4EEE00AF1EE10FA0A
:100CA00009DB9FED740A714901EB800181ED000AB7
:100CB00001216D4A115422E06C4901EB800191ED54
:100CC000000ADFED6B0A30EE600A684901EB800133
:100CD00081ED000A654901EB800191ED000AB5EE56
:100CE000C00AF1EE10FA09D89FED630A5F4901EBE3
:100CF000800181ED000A00215B4A115400BF00BF52
:100D0000401C0528ADDB574840785649C870084656
:100D100001784171817801710078524988710846E3
:100D2000417801728178C17180784E4948720846D5
:100D30000178C1724178817200784A490873084687
:100D4000817881734178417300201EE0002119E011
:100D500000EB4002434B1A44525C00EE102AB8EEFE
:100D6000400A424A02EB8002D2ED000A20EE200A3D
:100D7000BCEEC00A10EE102A00EB4003394C2344AD
:100D80005A54491C0329E3DB401C0528DEDB10BD57
:100D9000027802F00101027852100270027842EAF1
:100DA000C1120270704710B5264800686421B0FB7C
:100DB000F1F201FB1200002841D100BF12E0002136
:100DC0000DE02E4A1278024102F00102642312FB68
:100DD00003F200EB4003234C23445A54491C0329DB
:100DE000EFDB401C0528EADB2448FFF7D1FF24484D
:100DF0000078401C224908700878C11700EB517137
:100E0000C910A0EBC10141B91E490978052904DCCC
:100E10001C480078401C1B49087000200BE0002192
:100E200006E0642200EB40030E4C23445A54491C54
:100E30000329F6DB401C134909788842EFDB10BD1B
:100E4000180000207804002000140240190000203F
:100E5000001002401B0000201C0000201D0000208C
:100E60001E000020900700201F000020240000200A
:100E70000AD7233CCDCCCC3E000000003800002037
:100E8000390000203A00002010B52148007810B940
:100E9000FFF789FF01E0FFF778FE05211D4804F008
:100EA000AAFD04F07FFD10BD0278D1090278520638
:100EB000120E027002780A430270704716480068EA
:100EC0004FF4FA71B0FBF1F201FB1200F0B900200F
:100ED00012E012490978642211FB02F100EB400292
:100EE0000C4B1A445170002100EB4002995400EB66
:100EF00040021A449170401C0528EADB074800783C
:100F000008B9012000E00020044908707047000083
:100F10001A00002090070020780400203B000020E9
:100F2000FE48007801287CD1FD48007820B10128D6
:100F300028D0022825D185E0FA48008800EB8000FF
:100F40004FF4FA6101EBC00000EE100AB8EEC00ADF
:100F5000F54880ED030A406828B9F4480068401C51
:100F6000F249086002E00020F0490860EF4800689C
:100F7000B0F5967F05D30020EC4908600120E849D0
:100F8000087073E0EA48E749098800EB8100D0ED7A
:100F9000000AE54890ED000AB8EEC00A30EE800A7B
:100FA000E348E049098800EB810080ED000AE14850
:100FB000DC49098800EB8100D0ED000ADA4890EDA9
:100FC000050AB8EEC00A30EE800ADA48D549098829
:100FD00000EB810080ED000AD4480068401CD34932
:100FE000086008460068B0F52F7F2AD3002008600B
:100FF0000220CB490870CE48CA49098800EB81001D
:1010000090ED000ADFEDCC0A80EE201AC848C549F1
:10101000098800EB810080ED001AC648C1490988A3
:1010200000E024E000EB810090ED000ADFEDC20A51
:1010300080EE201ABF48BB49098800EB810080ED93
:10104000001A13E0B74800881E2808DAB54800885F
:10105000401CB44908800020B149087005E0002018
:10106000AE490870AF490880704700BF00BF00BF9D
:10107000FAE770B52DED0A8B04460D46AF480068BF
:101080000F21B0FBF1F201FB120000287DD1AC4929
:101090008988A1F580600BF020FE41EC1C0B9FEDD0
:1010A000A90B53EC102B0BF043FE41EC1B0B9FEDF7
:1010B000A70B53EC102B0BF089FC41EC190B9A4851
:1010C00090ED090A10EE101A08460CF0F1F841EC08
:1010D0001A0B53EC192B0BF0D1FB41EC180B0BF056
:1010E0009BFB91494862084690ED090ADFED990A99
:1010F000B4EEE00AF1EE10FA06DD90ED090ADFED3C
:10110000960A30EE600A02E0874890ED090A8648A8
:1011100080ED090A90ED090ADFED900AB4EEE00ACD
:10112000F1EE10FA06D290ED090ADFED8B0A30EEEF
:10113000200A02E07C4890ED090A7B4880ED090A0C
:101140007F49C988A1F580600BF0C7FD41EC1C0BFD
:101150009FED830B53EC102B0BF0EAFD41EC1B0BC6
:101160009FED7A0B53EC102B0BF030FC41EC190B7C
:101170006D4890ED030A10EE101A08460CF098F82E
:1011800041EC1A0B53EC192B00E02CE00BF076FB32
:1011900041EC180B0BF040FB6349C860084690ED2A
:1011A000030ADFED710AB4EEE00AF1EE10FA02D2A2
:1011B0009FED6D0A02E05C4890ED030A5A4880ED0D
:1011C000030A90ED030ADFED690AB4EEE00AF1EEDE
:1011D00010FA02DD9FED650A02E0534890ED030A24
:1011E000514880ED030ABDEC0A8B70BD10B5604814
:1011F0000078012810D05E48007868B95048007A1D
:10120000012803D05B4890F8220028B946490C31E8
:1012100001F11800FFF72DFFFFF757F904280BD154
:101220004FF4FA7054494861404208614FF4E67047
:101230005249486140420861FFF772FE3A4890ED1A
:10124000030ADFED4F0A20EE200AD0ED040A9FEDDD
:101250004D1A00EE810A80ED040AD0ED040A90EDEB
:10126000000AB8EEC00A30EEC00ADFED470AB4EE5D
:10127000E00AF1EE10FA16DD006800F5005001EE0C
:10128000100AB8EEC11AF0EE410A274890ED041A90
:10129000B0EE410A3D4809F099F8BDEEC00A224877
:1012A00080ED020A39E02048D0ED040A90ED000AF2
:1012B000B8EEC00A30EEC00ADFED350AB4EEE00A3F
:1012C000F1EE10FA16D20068A0F5005001EE100AF7
:1012D000B8EEC11AF0EE410A134890ED041AB0EED0
:1012E000410A2A4809F072F8BDEEC00A0E4880EDA6
:1012F000020A12E00C4890ED001AB8EEC11AF0EEA6
:10130000410A90ED041AB0EE410A204809F05EF857
:10131000BDEEC00A044880ED020A3BE07A010020DD
:101320007B0100207C010020440000208C01002073
:10133000AC0700204C08002000002F447804002057
:10134000B8060020000000000080464000000000B9
:1013500000A084400000E144000061450000E1C4B9
:1013600000000000000039400000FA4400204B4516
:101370007801002034150020B20000203601002042
:10138000CDCCCC3D6666663F0000804570000020F5
:10139000000080C5FE4890ED090AFE48D0ED000A25
:1013A000B2EE041A00EEC10A5FED160AB4EEE00ACE
:1013B000F1EE10FA17DDD0ED001A1FED191AB2EE9A
:1013C000042A01EE821AF0EE410AF14890ED091A62
:1013D000B0EE410AF04808F0F9FFBDEEC00AEC4853
:1013E00080ED080A3EE0EA4890ED090AE948D0EDB0
:1013F000000AB2EE041A00EEC10A5FED280AB4EE4C
:10140000E00AF1EE10FA17D2D0ED001A1FED2E1AF5
:10141000B2EE042A11EE821AF0EE410ADC4890ED99
:10142000091AB0EE410ADC4808F0D0FFBDEEC00A50
:10143000D74880ED080A15E0D64890ED001AF2EE84
:10144000041A21EE211AF0EE410AD14890ED091A52
:10145000B0EE410AD04808F0B9FFBDEEC00ACC4852
:1014600080ED080ACD4890ED091AF0EE410AC8480F
:1014700090ED021AB8EEC11AB0EE410AC84808F061
:10148000A5FFBDEEC00AC24880ED050AC34890ED35
:101490000A1AF0EE410ABE4890ED081AB8EEC11AD9
:1014A000B0EE410ABF4808F091FFBDEEC00AB8484F
:1014B00080ED0A0A406947F23051884201DD084652
:1014C00001E0B3484069B249486108464069B649FD
:1014D000884201DA084601E0AD484069AC494861FC
:1014E0000846806A47F23051884201DD084601E033
:1014F000A748806AA64988620846806AAA49884245
:1015000001DA084601E0A248806AA149886210BD5C
:1015100010B5A248D0ED0A0AB0EE600A01F064FAF4
:101520009C4890ED000A01F04CFA9948D0ED000A71
:10153000F8EEE00AB0EE600A01F030FAFFF756FE6E
:10154000934890ED090ABDEEC00A984880ED000A64
:1015500010BD0146964890ED000AF7EE000A70EEC5
:10156000C00A944890ED000AB8EEC00A60EE800A06
:1015700000EE101AB8EEC00A8D4890ED001A40EE49
:10158000010ABDEEE00A8C4880ED000A0068894A35
:101590001060894800687047421A00EE902AF8EE01
:1015A000E00AB1EE601ADFED851AC1EE210AB0EE55
:1015B000001A60EE810A9FED821A60EE810AB0EE99
:1015C000600A704770B50246002000217D4B1B6801
:1015D000934202DA7B4B1B6800E013461A46794BB4
:1015E0001B6D934202DD774B1B6D00E013461A46DC
:1015F000002106E0734B53F83130934200DC02E0E7
:10160000491C0B29F6DB00BF092901DD092300E095
:101610000B4619466B4C4B1C04EBC3035B6804EB95
:10162000C10464681B1B674C54F83140A41A63431F
:10163000644C54F8315026464C1C56F834402C1B50
:1016400093FBF4F3344604EBC1046468181970BDCD
:10165000014600207047B0EE401ADFED5B1AB0EE95
:10166000610A5A48D0ED001A70EEE11AB2EE042A6F
:10167000F4EEC21AF1EE10FA0ADDC0ED000A544889
:101680000068401C5249086000205249086015E07B
:101690004E48D0ED001A70EEE11ABAEE042AF4EECC
:1016A000C21AF1EE10FA09D2C0ED000A49480068EA
:1016B000401C4849086000204549086044480068CB
:1016C000C82802D900204449087042480068C82848
:1016D00002D90120404908703F480078A0BBDFEDE7
:1016E0003F1AB4EEE11AF1EE10FA16D2DFED3C1A11
:1016F00061EE211A61EE811A9FED3A2A42EE011A3B
:101700009FED392A71EEC21AB0EE610A5FEDEA1A56
:1017100070EE611AB0EE610A93E0DFED341A61EE0B
:10172000211A61EE811A9FED322A42EE411A9FED95
:10173000312A71EE821AB0EE610ADFED2F1A70EED7
:10174000611AB0EE610A7CE0FFE7DFED241AB4EE27
:10175000E11AF1EE10FA58D2DFED211A61EE211AEA
:1017600061EE811A9FED1F2A42EE011A9FED1E2A9B
:1017700071EEC21AB0EE610ADFED201A70EE611A46
:10178000B0EE610ADFED1E1A70EE611A3AE0000059
:1017900044000020A8060020F4000020D8120020F9
:1017A000B200002036010020D08AFFFF4000002058
:1017B00088010020800100208401002000000046F4
:1017C000DA0F4940A8D3000800000000980100206B
:1017D0009C010020A0010020900100200040CE4587
:1017E000664900BDCD8CCE4380C5A549CDCC4C3CCF
:1017F00066661E43803DF6480000964400007A4528
:101800000000FA44B0EE610A1BE05FED081A61EED9
:10181000211A61EE811A1FED0A2A42EE411A1FEDCC
:101820000B2A71EE821AB0EE610A5FED0C1A70EEAF
:10183000611AB0EE610A5FED101A70EE611AB0EE37
:10184000610ADFED1A1AB4EEE11AF1EE10FA05D2D0
:10185000DFED171A70EE611AB0EE610ADFED151AAE
:10186000B4EEE10AF1EE10FA02DDDFED121A01E04A
:10187000F0EE401AB0EE610ADFED0F1AB4EEE10AA5
:10188000F1EE10FA02D2DFED0C1A01E0F0EE401A90
:10189000B0EE610A0948C0ED000A7047F0EE400A58
:1018A000B2EE0E0A20EE800A7047000000A0C84584
:1018B00000401C4500204B4600204BC694010020F0
:1018C000B0EE401AF7EE001AB0EE610AB0F5FA7FFA
:1018D0000AD8C349897A322906DDDFEDC21AF4EE4F
:1018E000E10AF1EE10FA3AD8BF4991F8381001290F
:1018F00007D10321BD4A1170F6EE001AB0EE610A5D
:101900002DE0B749897A01EE901AF8EE611A70EE6F
:10191000E11AF0EE610ADFEDB61A9FEDB62A42EE4B
:10192000201AB0EE610AF7EE001AB4EEE10AF1EE09
:1019300010FA02DDF7EE001A01E0F0EE401AB0EE08
:10194000610ADFEDAB1AB4EEE10AF1EE10FA02D251
:10195000DFEDA71A01E0F0EE401AB0EE610A704721
:1019600010B5FEF7B2FD04283CD100BFA2480088A4
:10197000A0F58060A149B1F90010401A01280CDDE2
:101980009D480088A0F580600A2806DD9C480088F4
:10199000401C00B29A4908801FE097480088A0F5D3
:1019A00080609649B1F90010401AB0F1FF3F0DDA9E
:1019B00091480088A0F5806010F10A0F06DA90487F
:1019C0000088401E00B28E49088006E08A480088E0
:1019D000A0F5806000B28A4908808948B0F900000B
:1019E0008649088010BD10B52DED048BFEF76DFD06
:1019F000042817D1002013E09FED820A10EE101A80
:101A000000EB4012804B03EB420251609FED7F0AD6
:101A100010EE101A00EB401203EB42021162401C60
:101A20000228E9DBFEF751FD042801D1FFF798FFFA
:101A30007348B0F90000B0F5E16F02DD4FF4E160EA
:101A400002E06F48B0F900006D4908800846B0F91F
:101A5000000010F5E16F01DA6D4802E06848B0F966
:101A60000000674908800846B0F90000C0EB00108C
:101A7000684988606248B0F900004042C0EB00103D
:101A8000C860084690ED001AB8EEC11AF0EE410A9F
:101A900090ED021AB8EEC11AB0EE410A5A4808F0A9
:101AA00095FCBDEEC00A5B4880ED080A90ED011A76
:101AB000B8EEC11AF0EE410A90ED031AB8EEC11A61
:101AC000B0EE410A5048423008F080FC524880EDA8
:101AD000000A90ED000ABDEEC00A4E4880ED090AEA
:101AE000FEF7F3FC052806D13D48007A18B900201E
:101AF0004849086248624748D0ED080AF8EEE00A13
:101B0000B0EE600AFEF734FCB0EE409A4148D0EDEA
:101B1000090AF8EEE00AB0EE600AFEF729FC39EE99
:101B2000000ABCEEC00A10EE104A3C48008901EEE3
:101B3000100AB8EE411AF0EE410A3848406800EE4B
:101B4000100A2046FFF7BCFE354880ED000A3148F8
:101B500090ED080AB8EEC00A3148D0ED000A20EE38
:101B6000200AB0EE408A2B4890ED090AB8EEC00A70
:101B70002B48D0ED000A20EE200AF0EE408ABDEEA0
:101B8000C80A244880ED080ABDEEE80A80ED090A7B
:101B9000006A42F21071884202DD08461D4908625F
:101BA0001C48006A1F49884202DA0846194908623F
:101BB0001848406A42F21071884202DD0846154911
:101BC00048621448406A1749884202DA08461149B7
:101BD0004862BDEC048B10BD10B5FFF704FF10BDCB
:101BE0001404002000004842280300207C0200204A
:101BF0000AD7233DE73EBB3CB80600207E0200200A
:101C00006A0200200AD7233CA4010020007C12486D
:101C1000F8F8FFFFEC080020780200209114002063
:101C200074020020F0D8FFFFF748B0F90000F64931
:101C3000B1F90810401A022812DAF3480088401C53
:101C400000B2F14908800846B0F9000000EE100A21
:101C5000B8EEC00A084680ED010AEC480068C8608A
:101C6000704710B50446EA48007801284FD102F0C9
:101C700038F8E849087008460078012835D12078FE
:101C8000012832D1E448007A032809D0E3480078DB
:101C9000032805D1E048407A022801D1FFF7C4FFAC
:101CA000DA4800685021B0FBF1F201FB1200E0B904
:101CB000D948007A032818D0D748407A022814D18E
:101CC000D5484088A0F5806000EE900AF8EEE00A62
:101CD000B0EE600AFEF74CFBDFEDD10AB4EEE00A8D
:101CE000F1EE10FA01DDFFF79FFFCB48007A0328E1
:101CF0000DD0CA480078032809D1C748407A012886
:101D000005D1207808B9012000E000202070C248E9
:101D1000407AC249087010BD10B5C248FFF7A1FF54
:101D2000B948B0F9000000EE100AB8EEC00ADFEDC5
:101D3000BE0A20EE200AB44880ED050A10BD10B599
:101D4000FEF7C3FB05280DD00120B8490860B5484F
:101D50000078012803D11220B549088002E0002054
:101D6000B349088001F0EEF8FFF7D6FFA64890EDE2
:101D7000050ABDEEC00AAF4880ED050A90ED001AD5
:101D8000B8EEC11AF0EE410A90ED051AB8EEC11A8C
:101D9000B0EE410AA84808F019FBBDEEC00A10EEEB
:101DA000100A00B2A3490883A4480088C0F57A70DD
:101DB0009C4909784843C0F57A70A14908809D483C
:101DC000B0F9100001EE100AB8EEC11AF0EE410AA7
:101DD0009848B0F9180001EE100AB8EEC11AB0EE3A
:101DE000410A984808F0F2FA924880ED070A10BDBF
:101DF00070B504460D4616468748007C012807D179
:101E000036B9824800889049088000208F490870C0
:101E1000601B00EE900AF8EEE00AB0EE600AFEF7F2
:101E2000A7FAF0EE000AB4EEE00AF1EE10FA0ED2D4
:101E30008648007801280AD0012084490870734838
:101E4000008883490880804800888249088080484B
:101E5000008880490988401A80B270BD14206A4900
:101E600008830A216848817670477047704770B5CB
:101E700004460D4629686869401A77490860084693
:101E800090ED000AB8EEC00AFEF772FAF1EE080A09
:101E9000B4EEE00AF1EE10FA14DDB5F9100000EE30
:101EA000900AF8EEE00AB0EE600AFEF761FAF2EE90
:101EB000040AB4EEE00AF1EE10FA03D2606A401CA4
:101EC000606201E000216162606A642807D994F8C9
:101ED000200020B9012084F820006049087094F89F
:101EE0002000012848D15D480078012804D002284C
:101EF00011D003283FD12CE02868323858490860B7
:101F0000084690ED000AB8EEC00A84ED050A0220EA
:101F1000524908702FE0524890ED000AB8EEC00A0E
:101F200084ED050A4E4928680968401A00EE900AB7
:101F3000F8EEE00AB0EE600AFEF71AFADFED490AA1
:101F4000B4EEE00AF1EE10FA02D203204349087021
:101F500011E0002084F8200040490870208920808A
:101F6000B4F9000000EE100AB8EEC00A84ED010AD0
:101F70000021616200BF00BF70BD10B5137BD47A31
:101F800043EA04231BB28B80947B537B44EA0323F4
:101F90001BB20B828B898C881B1B1BB2CB81B1F9C6
:101FA0000E30B3F5805F04DD8B6803F500538B6062
:101FB00008E0B1F90E3013F5805F03DA8B68A3F502
:101FC00000538B60B1F904408B68234400EE103A53
:101FD000B8EEC00ADFED240A80EE201ABDEEC10A79
:101FE00081ED000A8B888B8191ED000AB8EEC00A62
:101FF000DFED0D0A80EE201ABCEEC10A10EE103A99
:102000001BB2038110BD00001409002078040020D9
:102010000D0300200C030020B80600201D03002043
:102020000000C84204030020BC749341B402434240
:10203000FA0300203C090020800200200603002053
:1020400008030020C20200201A030020140300200D
:102050001803002016030020200300202403002082
:10206000100300200000204200007A4401884FF64F
:10207000FE72914202DA0188491C018070470021FA
:1020800001807047034602EB42004000984202DAAA
:102090000120087001E0002008700878704752495C
:1020A00031F81010491C8AB24F4921F810207047AE
:1020B00000200AE04C4931F810201A3921F810208C
:1020C00000221A3121F81020401C0D28F2DB704745
:1020D00010B5464800684FF47A71B0FBF1F201FB8D
:1020E000120008B9FFF7E4FF002411E03E4942392D
:1020F00001EB4400FFF7BAFF3B4B5C3B33F8142085
:10210000343319191A3B33F81400FFF7BBFF641C72
:102110000D2CEBDB34485C3890F83900012802D1F3
:1021200000203349087033480078012823D12E4815
:102130005C3890F83500012809D12C480068B0F5CA
:10214000FA6F04D901202C4908602C490880FEF759
:10215000BCF905280FD008200BE023492839095C79
:10216000012905D1891E244A116001B2234A118038
:10217000401C0C28F1DD1C485C3890F83600012822
:1021800015D1FEF7A2F9012806D0FEF79EF918B185
:10219000FEF79BF9022803D10320FEF705F906E0BC
:1021A000FEF793F9052802D00520FEF7FDF8144844
:1021B000C07CA0B91248807C88B91148B0F90A00E7
:1021C00000EE900AF8EEE00AB0EE600AFEF7D0F8F2
:1021D000F0EE080AB4EEE00AF1EE10FA02DD00209B
:1021E0000449087010BD000084030020780400201A
:1021F000341500209E030020A4030020A00300202B
:10220000B8060020704770B52DED088B04469FED91
:10221000FA0AB0EE408A00EE104AB8EEC00ADFEDCE
:10222000F70A80EE201A11EE105A28460BF040F8FB
:1022300041EC1B0BB0EE4B0AF0EE6B0A09F01CFBF5
:10224000B0EE40AAF0EE60AA9FEDED0B53EC102B20
:1022500051EC1A0B0AF06CFD41EC190B0AF0DCFA98
:1022600008EE100AE84880ED008AB2EE080AB4EEE3
:10227000C08AF1EE10FA02DDB2EE080A01E0B0EE1B
:10228000480AB0EE408ABAEE080AB4EEC08AF1EE0F
:1022900010FA02D2BAEE080A01E0B0EE480AB0EE37
:1022A000408AB0EE480ABDEC088B70BDD74A01FBEE
:1022B000012300EE903A01EE902AF8EEE11AB8EE12
:1022C000E02AC1EE822AB0EE621ADFEDCB1AB0EE40
:1022D000610A01EE900AF8EEE11A61EE811A9FEDB3
:1022E000C72AC1EE822AB0EE620ADFEDC91A60EE9B
:1022F000211AB0EE610A7047F0EE401ADFEDC52AF0
:10230000B0EE620ADFEDC42AF4EEE20AF1EE10FA52
:1023100003DDDFEDC12AF0EE620ADFEDC02AF4EE44
:10232000E20AF1EE10FA03D2DFEDBC2AF0EE620A07
:10233000F1EE082AF4EEE21AF1EE10FA03DDF1EE06
:10234000082AF0EE621AB64991ED003AC1EE832AEE
:10235000B5EE003A32EE832A20EE821AB4EEC01AAD
:10236000F1EE10FA01DDB0EE401AF1EE402AB4EEC3
:10237000E21AF1EE10FA03D2F1EE402AB0EE621A40
:10238000D0ED002A72EE812AC0ED002A704730B5E8
:102390002DED108B81B00446F0EE408AB2EE000ABB
:1023A000F4EEC08AF1EE10FA03DDB2EE000AF0EEB0
:1023B000408A94ED000ADFED9B0A30EEC00ADFEDA3
:1023C0009A0A20EE20FA1FEE100A0AF071FF41EC83
:1023D0001A0BB0EE4A0AF0EE6A0A09F0E1FCB0EE20
:1023E000409AF0EE609A51EC190B0AF015FA08EEDB
:1023F000100A9FED810A8DED000A9FED7F0AF0EE35
:1024000040FA1FEE100A0AF053FF41EC1B0B9FED40
:10241000870A68EE800AB7EE000A08EE480A20EE46
:10242000800A8348D0ED000A08EE600AD0ED000A69
:1024300080EE201A11EE105A28460AF039FF41ECBE
:102440001E0BB0EE4E0AF0EE6E0A08F0CDFFB0EEB5
:1024500040DAF0EE60DA51EC1D0B0AF0D1F941ECF4
:102460001C0B53EC1B2B0AF009FA41EC1A0B9FEDE5
:10247000710B53EC102B0AF05BFC41EC190B0AF0CA
:10248000CBF900909DED000ADFED6C0A20EE200AEA
:10249000F0EE40FA9FED6A0A2FEE800A9FED691A6E
:1024A000C0EE010A9FED5F0A30EE600A84ED000A7B
:1024B000B0EE6F0A01B0BDEC108B30BD01464F2964
:1024C00001DD4F2200E00A4611465F4A1288521A87
:1024D00010B2002802DA00F1500200E0024610B209
:1024E0005A4A02EB800292ED000A704701464F29DA
:1024F00001DD4F2200E00A461146554A1288521A61
:1025000010B2002802DA00F1500200E0024610B2D8
:10251000504A02EB800292ED000A7047DFED4E0A4E
:10252000B4EEE00AF1EE10FA03DDDFED4B0AB0EE97
:10253000600ADFED4A0AB4EEE00AF1EE10FA03D2C7
:10254000DFED470AB0EE600A322800DD322010F1DC
:10255000320F01DA6FF0310000EB80014900414A8F
:10256000116000EE900AF8EEE00A70EE800AB2EE1A
:10257000041A60EE810A3C49C1ED060AD1ED070A52
:102580009FED3A1A60EE810A91ED061ADFED381AD6
:1025900041EE810AC1ED070AD1ED060AB2EE041A36
:1025A00060EE810AFDEEE00A3249C1ED000A2E49D3
:1025B000D1ED070AB2EE041A60EE810AFDEEE00AE0
:1025C0002D49C1ED000A70470146632901DD6322F0
:1025D00000E00A461146294A1288521A10B2002811
:1025E00002DA00F1640200E0024610B2244A02EB73
:1025F000800292ED000A7047000000000080B6449F
:102600000000006066A64C40A803002090862000D1
:10261000000072420000B4420000FA430000FAC316
:10262000B403002000C041458010493ACDCC1C4184
:10263000B8030020000000000000E03F3333654293
:10264000000000460000B443E00300205C090020C5
:10265000E20300209C0A002000004842000034C22F
:10266000000048C2C4030020341500209A99193F85
:10267000CDCCCC3EC8030020CC030020E4030020D6
:10268000DC0B002070B52DED0A8B05460C46F94891
:10269000008878B1F748008800EE100AB8EE400ACA
:1026A000F54880ED000A90ED000A20EE000AF3489C
:1026B00080ED000AF24890ED0A0AF2EE040A20EEDC
:1026C000200ABDEEC00AEF4880ED000AEE4890F8FF
:1026D0003900012803D10020EC4948700870EC480B
:1026E000007A022818D1E9480078012814D1E74877
:1026F000408840F2EE2188420EDC0120E34981F857
:102700002200B420E3494861404208619620E24932
:102710004861404208610FE00020DC4981F8220056
:102720004FF4FA70DB494861404208614FF4E670AB
:10273000D949486140420861D4480078012809D14C
:10274000D6480078142808DAD4480078401CD349C9
:10275000087002E00020D14908700A20CF490870B3
:10276000CA4991F82010C81CFFF72EFFC74880ED1A
:10277000050A90ED050AF2EE040A20EE200ABDEEED
:10278000C00AC74880ED000AC04A1289A2F2CA32C4
:1027900011B2BE4AB2F91000FFF788FDC14880EDC2
:1027A000000ABE48007803280FDDB848D0ED050ABE
:1027B000B0EE600ABB48D0ED000AFDEEE00A10EE74
:1027C000900A00B2FFF7AAFE04E000201FED760A8F
:1027D000FFF7A4FEB14800780A2810DAAF48007865
:1027E00000EE100AF8EE400AB2EE041A80EE810AFA
:1027F000A648D0ED070A20EE200A80ED070AA3487C
:1028000090F8220001287DD1A048408800EE100AEF
:10281000B8EE400AF2EE010A80EE801A11EE106A5C
:1028200030460AF045FD41EC1C0BB0EE4C0AF0EED0
:102830006C0A09F021F8B0EE40BAF0EE60BA9FEDF4
:102840009A0B53EC102B51EC1B0B0AF071FA41EC74
:102850001A0B09F0E1FF08EE900A8C4991F821105B
:10286000083988B2FFF742FEF2EE040A20EE200A91
:10287000B0EE408ABDEEC80A8D4880ED000A83495B
:1028800091F82110491F88B2FFF718FEB0EE409A68
:102890007E490989A1F2CA3108B2FFF7B4FCB2EE51
:1028A000041AF0EE480A40EE010A30EEE80A85ED1F
:1028B000000A76494989A1F2622108B2FFF7A3FC18
:1028C0005FEDA10A60EE200A1FEDA21A80EE810AD8
:1028D00039EE400A84ED000A6C4890ED010ADFED04
:1028E000750A80EE201AF0EE419AB0EE690A204691
:1028F000FFF74DFD704880ED000A644800896F497C
:10290000088000E047E061484088B0F5167F15DA9E
:102910005E48408800EE100AB8EE400ADFED650A16
:1029200080EE201AF0EE413A584890ED070AF0EE9A
:10293000400AB0EE630A2846FFF7DEFC94ED000A79
:10294000DFED5F0AB4EEE00AF1EE10FA02DD9FED72
:102950005C0A01E094ED000A84ED000A94ED000A9F
:10296000DFED580AB4EEE00AF1EE10FA02D29FED64
:10297000550A01E094ED000A84ED000A95ED000A85
:102980005148D0ED000AB2EE041A00EEC10A4F48D9
:1029900080ED000A00BFBDEC0A8B70BD4C484D496C
:1029A000098800EB810080ED000A4A480088401C3D
:1029B0004849088008460088502801DB002008802C
:1029C000704745484549098800EB810080ED000AC1
:1029D00042480088401C4149088008460088502829
:1029E00001DB0020088070473D483E49098800EB24
:1029F000810080ED000A3B480088401C394908806E
:102A000008460088642801DB00200880704770B504
:102A10002DED088B0446B0EE408A00EE104AB8EE69
:102A2000C00AC8EE000A10EE905A28460AF040FC90
:102A300041EC1B0BB0EE4B0AF0EE6B0A08F01CFFEA
:102A4000B0EE40AAF0EE60AA51EC1A0B09F0E4FED9
:102A500009EE100AB0EE490AFDF78AFCF3EE090A06
:102A600020EE200AF0EE408AB0EE680ABDEC088B3A
:102A700070BD0000FA030020B4030020B80300205A
:102A8000D8120020D0030020280300203415002095
:102A9000B8060020B200002036010020DE0300202E
:102AA000BC030020C00300200000000000E88140BB
:102AB000D80300200000C842AC030020DC03002043
:102AC000004049450080F744A8060020D4030020B8
:102AD0005C090020E00300209C0A0020E2030020A3
:102AE000DC0B0020E40300202DE9F0412DED0A8BE2
:102AF000B0EE409A04460D460026642104FB01F026
:102B0000C11700EB11710911491D09EE901A00EE71
:102B1000105AB8EEC00ADFEDC10A80EE201A11EE9D
:102B2000107A38460AF0C4FB41EC1C0BB0EE4C0A9C
:102B3000F0EE6C0A08F0A0FEB0EE40BAF0EE60BA1B
:102B40009FEDB70B53EC102B51EC1B0B0AF0F0F878
:102B500009F062FE08EE100AB8EEE90A20EE090A52
:102B6000DFEDB10A80EE201AF0EE418A202C3FDD25
:102B7000292C1EDDB0EE490AFDF7FAFBF0EE400A03
:102B80009FEDAA0AB1EE001A00EE810AA4F1280016
:102B900000EB8000000100EE900AF8EEE00A30EE53
:102BA000200ABDEEC00A10EE100A00B2A04908804B
:102BB0005EE0B0EE490AFDF7DBFBF0EE400A9FED68
:102BC0009D0AB0EE001A00EE810AA4F1140000EB99
:102BD0008000C00000EE900AF8EEE00A30EE200A15
:102BE000BDEEC00A10EE100A00B2914908803FE025
:102BF000B0EE490AFDF7BCFBDFED8F0AB4EEE00A48
:102C0000F1EE10FA03D24FF4967089490880B0EEC5
:102C1000490AFDF7ADFBDFED890AB4EEE00AF1EEFB
:102C200010FA04D24FF4FA708149088020E0B0EE27
:102C3000490AFDF79DFBDFED820AB4EEE00AF1EEF2
:102C400010FA04D24FF42F707949088010E0B0EEEA
:102C5000490AFDF78DFBDFED7B0AB0EE001A40EE6E
:102C6000010ABDEEE00A10EE100A00B270490880B9
:102C7000282C00DD2824B2EE040A28EE000ABDEE5E
:102C8000C00A10EE100A00B26F490880B2EE040AC2
:102C900028EE800ABDEEC00A10EE100A00B26B49A1
:102CA000088038EE880AF2EE040A20EE200ABDEE13
:102CB000C00A10EE100A00B26549088078EE880A52
:102CC000B0EE600AFDF754FBB0EE40AA9FED610A3A
:102CD0002046FFF79CFEB4EEC0AAF1EE10FA38D2FF
:102CE0005D480078401C5C4908700846007832282E
:102CF00001DD322008705848007802282CDD574842
:102D000090ED031AD0ED000AF8EEE00A71EE600AC9
:102D1000B0EE600AFDF72CFBF3EE070AB4EEE00A12
:102D2000F1EE10FA18D24E4890F83900A0B94D488B
:102D3000D0ED070AB0EE600AFDF71AFBDFED4A0A94
:102D4000B4EEE00AF1EE10FA06D22E2C04DC0126D5
:102D500002E00020404908703046BDEC0A8BBDE817
:102D6000F08110B53F4890F82200012813D13D4A68
:102D70001289A2F2CA3211B23A4A528810B2394AC2
:102D8000D2ED060AB0EE600AFFF7AEFE012800D1D0
:102D900010BD0020FCE70020FAE710B50024304801
:102DA00090F83900A8BB2F484089A0F2622000EEBD
:102DB000900AF8EEE00AB0EE600AFDF7D9FAF3EEF9
:102DC0000E0AB4EEE00AF1EE10FA24D2254800898A
:102DD000A0F2CA3000EE900AF8EEE00AB0EE600A07
:102DE000FDF7C6FAF1EE040AB4EEE00AF1EE10FACD
:102DF00011D21C48D0ED060AB0EE600AFDF7B8FA11
:102E0000DFED0D0AB4EEE00AF1EE10FA03D2012470
:102E100001E0FFE70024204610BD000066E6E7441D
:102E20000000006066A64C4000401C4600007A444A
:102E3000F60300200000164400002042000070420B
:102E40000000024300002F44F4030020F20300209E
:102E5000F00300203333B33EF80300204400002089
:102E600028030020341500200000CD43282801DA73
:102E7000282200E00246104640F65A22904200DD29
:102E800000E0024610462D4A1288824208D12B4AA1
:102E90001288821A02EB420212B2294B1A804CE0CD
:102EA000264A1288824220DA244A1288821A02EBC9
:102EB000420212B2224B1A801A46B2F90020322A7C
:102EC00001DA322202E01E4AB2F900201C4B1A80BD
:102ED0001A46B2F900208A4201DD0A4602E0184A89
:102EE000B2F90020164B1A8027E0144A1288824259
:102EF00023DD124A1288821A02EB420212B2104BF0
:102F00001A801A46B2F9002012F1320F02DD6FF07A
:102F1000310202E00A4AB2F90020094B1A801A462F
:102F2000B2F900204B429A4201DA4A4202E0044AD6
:102F3000B2F9002012B2024B1A8070470E0700202F
:102F40006A0200206648008800B26649088064482A
:102F500000880C2804DA4FF47A70614988800BE00D
:102F60006148008800F25B405D4909880A3901EB3D
:102F7000810108445A4988805948008958498988FC
:102F8000401A012805DB56480089401E5449088133
:102F90000AE05348008952498988401A04D55048AC
:102FA0000089401C4E4908814D4800894F490860FE
:102FB0004B480089091D086070474D494D4A1288E9
:102FC00021F812004B490988491C4A4A11801146D0
:102FD0000988962901DB0021118070470246952A55
:102FE00001DD952000E01046024642480088801A24
:102FF00001B2002902DA01F1960000E0084601B2B0
:103000003B4830F91100704710B52DED028BB0EE42
:10301000408AB2EE040A28EE000ABCEEC00A10EEA6
:10302000100A354908802E48008800EE900AF8EE14
:10303000600A78EE600AB0EE600AFDF799F9DFEDFC
:103040002F0AB4EEE00AF1EE10FA08DD24480088F9
:1030500028B12B480088401C2949088002E0002044
:103060002749088026480088012833DD7820FFF7AB
:10307000B5FF00EE100AB8EEC00A1948008800EE4D
:10308000900AF8EE600A70EEC80AB0EE001A00EE80
:10309000810ABDEEC00A10EE100A00B21249088083
:1030A0000846B0F90000182801DD182002E00E489B
:1030B000B0F900000C4908800846B0F9000010F192
:1030C000180F02DA6FF0170002E00748B0F90000AD
:1030D00005490880BDEC028B10BD01467047000019
:1030E000FA03002010040020060400203C0C0040DD
:1030F0006C0D0020080400200A040020CDCC8C3F79
:103100000C04002010B5FC480078FC490870FC480D
:1031100000684FF4FA71B0FBF1F201FB1200A8BB9A
:10312000F8480088002804DDF6480088401EF5496C
:103130000880F5484088B0F5C87F0EDBF24840882B
:10314000F2490988081A1E2803DB0120F04908709B
:1031500011E00020EE4908700DE0EB484088EB4993
:103160000988081A142803DB0120E949087002E0E5
:103170000020E7490870E3480088002802DD0020AD
:10318000E3490870E0484088E0490880E148007859
:1031900030B101283DD0022847D003287ED145E038
:1031A000A020DD498872DD48007801280FD14FF456
:1031B0007A7140F20460FFF759FED948008840F266
:1031C000D25188420FDD0020D44908700BE04FF443
:1031D0007A710020FFF74AFED1480088322802DACF
:1031E0000120CE490870C4480078012810D1C24897
:1031F000408840F2EE2188420ADC0120C54908706F
:10320000C648007808B9012000E00020C3490870D2
:103210004AE00020C3490880C3480068B0F5487FF1
:1032200002D90020BB4908703EE03DE0BF4800687D
:10323000401CBE4908605A20B749887240F2DC51F0
:103240000020FFF713FEB548007801280FD140F2A7
:10325000DC5140F67E10FFF709FEB148008840F2CD
:10326000DC5188420FDD0020AC4908700BE040F2D1
:10327000DC510020FFF7FAFDA9480088282802DA6F
:103280000120A6490870A9480068B0F5FA6F09D373
:103290000020A64908609F49087000E003E0012073
:1032A000A349087000E000BF00BFA248007810B139
:1032B00001285CD15CE090480078012813D18E4849
:1032C000408840F2EE2188420DDC012099490870C7
:1032D000994890ED000AF2EE040A20EE200A974881
:1032E00080ED090A39E09448D0ED000A9FED940A78
:1032F000B2EE041A00EE810A904880ED090A914866
:10330000007810B1012827D113E09FED8F0A8B4878
:1033100080ED030A8D480068401C8C49086008460F
:103320000068FA2804D90020086001208549087047
:1033300012E09FED870A814880ED030A8548006806
:10334000401C8449086008460068FA2803D9002018
:1033500008607C49087000BF00BFA0207E4948611A
:103360004042086196207D494861404208613CE046
:10337000502079494861404208616420774948619A
:10338000404208615C480078012809D15A484088C9
:1033900040F2EE21884203DC00206349086004E02B
:1033A00061480068401C604908605F480068B0F5EB
:1033B000487F02D900205F490870514800685021B9
:1033C000B0FBF1F201FB120070B957480068B0F58C
:1033D000C87F09D200F085FC012805D1604800783B
:1033E000012801D1FEF720FC00BF00BF5D48006846
:1033F0005D49086010BD0146B1F5127F01DC012076
:10340000704740F26260814201DC0220F8E703204D
:10341000F6E710B50446012C04D0022C22D0032C70
:1034200067D142E05148007801280ED14FF47A71FB
:103430004FF41270FFF71AFD39480088B0F5037F8A
:103440000FDD0020494908700BE04FF47A7100202D
:10345000FFF70CFD32480088462802DA0120434974
:10346000087046E04248007801280FD14FF47A7185
:1034700040F26260FFF7FAFC2948008840F22661BA
:10348000884211DD00203A4908700DE04FF47A714E
:103490004FF41270FFF7EAFC21480088B0F5217F55
:1034A00002DA01203249087023E03248007801280E
:1034B0000FD14FF47A7140F67E10FFF7D7FC184811
:1034C000008840F64211884212DD00202949087028
:1034D0000EE04FF47A7140F26260FFF7C7FC1048CB
:1034E000008840F29E61884202DA0120214908707A
:1034F00000BF00BF10BD00003415002039040020BB
:1035000078040020300400208014002042040020B1
:10351000280400201204002014040020400400208D
:103520000E0700206A02002034040020440400201A
:103530003204002013040020A806002044000020CC
:10354000000020434104002000002F4548040020D3
:103550000000FA444C040020B20000203601002094
:10356000040300202C0400203C0400205004002010
:10357000510400205204002010B5F94800780528B5
:1035800044D2DFE800F00344596F9D000120F54963
:1035900008720846C088F4490988884204DD4FF45F
:1035A0006170F249088009E0EE48C088EE49098858
:1035B000884203DA4FF67C40EC490880E948C0882D
:1035C000E9490988401A00EE900AF8EEE00AB0EEE8
:1035D000600AFCF7CDFEDFEDE60AB4EEE00AF1EE9C
:1035E00010FA13D2DF48C08818B90120DC490870EE
:1035F0000CE0DC48C08840F67E11884203D10220EE
:10360000D749087002E00320D5490870B3E0D648D6
:103610000088002803DD4FF67C40D4490880002054
:10362000D0490872D04890F9040010F10A0F02DB6B
:103630000420CB4908709EE0CB48008840F67E11FC
:10364000884203DA4FF46170C84908800020C549F8
:103650000872C54890F904000A2802DC0420C04919
:10366000087088E00020BF4908720846C07A40B957
:10367000BD480088C98888420CDB0420B84908701E
:1036800008E0B9480088B749C988884202DC0420AC
:10369000B3490870B44890F9040000EE900AF8EEBF
:1036A000E00AB0EE600AFCF763FEDFEDB20AB4EEAA
:1036B000E00AF1EE10FA02D20420A94908705AE09B
:1036C000AD48006807F060FD00BFFCF7E1FDA549CB
:1036D0008988A44A5288891A90FBF1F201FB1200F2
:1036E000A049498808449F49C8800846C0889E4927
:1036F0000988401A00EE900AF8EEE00AB0EE600A7F
:10370000FCF736FEDFED9D0AB4EEE00AF1EE10FAAA
:1037100000D2DAE79348C08840F67E11081A00EE1E
:10372000900AF8EEE00AB0EE600AFCF721FEDFED49
:10373000940AB4EEE00AF1EE10FA04D240F67E10DC
:103740008849C88006E08748C088FA2802DA002045
:103750008449C8808348C08883490988884203DD3A
:1037600001208049C87202E000207E49C872002012
:103770007B49087000BF00BF10BD8248007820B1AF
:1037800001282DD002287DD153E0774800880028F9
:1037900003DD4FF6E040754908807348807818B122
:1037A00071480088642803DA00206E49087202E03C
:1037B00001206C4908726C4890F9040010F10A0F5E
:1037C0000DDD69480088C82809DA6F48007818B903
:1037D00001206C49087002E002206A49087051E03B
:1037E0006148008840F67E11884203DA4FF4487041
:1037F0005E4908805C48C07828B15B48008840F684
:103800001A11884203DD00205649087202E00120A7
:1038100054490872544890F904000A2808DA5248BA
:10382000008840F6B601884202DD00205549087044
:1038300028E04D48008840F2DC51884203DA4FF41A
:1038400048704A4908804848008840F2DC51081A0C
:10385000B0F5967F12DA002042490872424890F98A
:103860000400282806DB4048008840F2DC51081A92
:103870003C2806DA00204349087002E0012039495B
:10388000087200BF00BF704710B53648007830B1ED
:10389000012817D002282AD003283FD12BE0FFF7B8
:1038A0006CFF3A480078012802D102202D490870A7
:1038B0002C48C06836490968884202D0032029494B
:1038C00008702BE00020274908720846C06830497C
:1038D0000968884202D00320224908702148006903
:1038E000B0F5487F02D900201E49087016E001207B
:1038F0001C49087012E027480068401C25490860F0
:10390000FFF73AFE2348006842F21071884204D95A
:103910000020204908601349087000BF00BF11480B
:10392000C0681B490968884206D040F6B8301A4979
:10393000086003200B4948720A48C06814490860AF
:103940001548006820B114480068401E12490860FC
:103950001148006818B9A020024948722BE01DE008
:103960006D040020140400200E0700206A020020CD
:103970000000AF43000020427804002000001644FD
:1039800000007A436C040020380400203415002025
:103990005404002060040020580400207E48006881
:1039A000012808D17D480089322804DD7B48007A4F
:1039B00032387B4988727B4800683221B0FBF1F2D3
:1039C00001FB1200E8B97648807A7549497A884245
:1039D0000DDA74480068C821B0FBF1F201FB120057
:1039E00078B96F48807A401C6D49887209E06C484C
:1039F000807A6B49497A884203DD6948407A684990
:103A000088726748407810B101285CD15CE0664854
:103A10000078012813D16448408840F2EE218842A2
:103A20000DDC01205E494870604890ED000AF2EE1E
:103A3000040A20EE200A5E4880ED090A39E05B485E
:103A4000D0ED000A9FED5B0AB2EE041A00EE810A87
:103A5000574880ED090A5848007810B1012827D14D
:103A600013E09FED560A524880ED030A544800685F
:103A7000401C5349086008460068FA2804D9002011
:103A8000086001204C49087012E09FED4E0A48483A
:103A900080ED030A4C480068401C4B49086008460A
:103AA0000068FA2803D9002008604349087000BF65
:103AB00000BFAA2045494861404208619620444918
:103AC0004861404208613CE0502040494861404222
:103AD000086164203E4948614042086132480078EC
:103AE000012809D13048408840F2EE21884203DCA9
:103AF00000202B49086104E029480069401C28493E
:103B0000086127480069B0F5487F02D900202449A0
:103B10004870244800685021B0FBF1F201FB12000C
:103B200070B91F480069B0F5C87F09D200F0D9F814
:103B3000012805D127480078012801D1FEF774F843
:103B400000BF00BF10BD0188B1F5007F17D181799A
:103B5000FE2914D1C1795A2907D101211E4A1170B9
:103B600040F204610E4A918009E0C179A52906D18D
:103B70000021194A117040F67E11094A9180704760
:103B800021B9074AD268521C054BDA60032902D1D9
:103B90000422124B1A807047580400209114002010
:103BA000140400207804002034150020A80600200A
:103BB00044000020000020435C04002000002F454A
:103BC000640400200000FA4468040020B2000020D1
:103BD00036010020040300203804002030040020B7
:103BE000614800886149098888420CD05E48D0ED60
:103BF000010A5F48D0F8020000EE100A30EE800A99
:103C0000594880ED010A4FF4F0705749088159482E
:103C100000686E21B0FBF1F201FB1200F0BB5248CC
:103C2000D0ED010A0089400000EE100AB8EEC00A8B
:103C3000F4EEC00AF1EE10FA09DD4B4800894000AD
:103C400000EE100AB8EEC00A474880ED010A464867
:103C500090ED010AF3EE000A30EE600A80ED010AF1
:103C600090ED010AB5EEC00AF1EE10FA02D29FED16
:103C7000420A02E03C4890ED010A3B4880ED010A0F
:103C80003E48408900EE100AB8EE400A3648D0EDB2
:103C9000010A30EE600AF2EE040A00E016E0B4EE2B
:103CA000E00AF1EE10FA08DB3448408900EE100A11
:103CB000B8EE400A2C4880ED010A2B4890ED010A2D
:103CC000BCEEC00A10EE100A2D4908802648008874
:103CD00026490880704724480088401C22490880F3
:103CE0007047284890F8380020BB1F4890ED010A23
:103CF000DFED250A70EEC00A2448B0F9000040004C
:103D000000EE100AB8EEC00AF4EEC00AF1EE10FAA6
:103D100001DD012070471E4800891D4908800846C2
:103D2000B0F9000000EE100AB8EEC00A084680EDB7
:103D3000010A16E01548B0F90000A02393FBF0F04B
:103D4000401E01B24FF47A7090FBF1F002B21048BD
:103D5000C068084B1B68181A904201D30120D9E7AC
:103D600000BF0020D6E70000980E0020700400205D
:103D7000AF140020780400200000000091140020FF
:103D80006E040020280300200000F04310040020EF
:103D90001409002010B54FF4A06002F01BF8A82011
:103DA00000F078F900F050FA00F0F6F900F0DFFAD0
:103DB000642000F0D1F9002000F0FAFA012000F0B0
:103DC000F7FA022000F0F4FA032000F0F1FA00F014
:103DD0003BF800F0CBF805F01BF90021084600F095
:103DE00048FD04462146092000F0ECFC00F094FB5D
:103DF00000F0FAFA00F060FD114800F07DFE4FF48B
:103E0000E13001F0F5FA4FF4FA2001F03FFE4FF4F3
:103E1000E13001F06BFC00F0ADFD4FF4FA7000F002
:103E20009BF905F02CFE00F011FE4FF4FA7000F043
:103E300093F900F02EFE01200249087010BD000029
:103E4000A08601007204002000B58BB0012108207B
:103E500003F023FA0121480603F066FA012148061F
:103E600003F0B7FA00214FF0007003F0B2FA03201C
:103E7000099002208DF8280000208DF82A000320E8
:103E80008DF8290001208DF82B0009A9354802F092
:103E900063FF09220021334802F0E9FF09220121D2
:103EA000304802F0E4FF00208DF81E0001208DF85C
:103EB0001F0000208DF820008DF821008DF82200D1
:103EC0008DF823008DF81A008DF81B0008208DF85E
:103ED0001C0003208DF81D00ADF8180006A922482B
:103EE00002F001F800208DF812008DF81300012077
:103EF0008DF814000020ADF80800ADF80A00ADF808
:103F00000C00ADF80E00ADF8100001208DF8150082
:103F100002A802F072F801220221134802F06CFBA1
:103F200014208DF8040001208DF8050000208DF884
:103F3000060001208DF8070001A801F050FF0BB02A
:103F400000BD00B585B00221074802F0BDFB30B1CD
:103F50000221054802F053FC684604F0D5FD05B087
:103F600000BD0000000C02400064004000B58BB0B2
:103F70000121022003F091F90121880603F0D4F910
:103F80000121880603F025FA00214FF0806003F03C
:103F900020FA4FF44050099002208DF828000020AC
:103FA0008DF82A0003208DF8290001208DF82B00C0
:103FB00009A9364802F0D0FE09220C21334802F04C
:103FC00056FF09220D21314802F051FF00208DF8E3
:103FD0001E0001208DF81F0000208DF820008DF8B4
:103FE00021008DF822008DF823008DF81A008DF83D
:103FF0001B0008208DF81C0003208DF81D00ADF873
:10400000180006A9224801F06EFF0E208DF812005C
:1040100000208DF8130001208DF814000020ADF869
:104020000800ADF80A00ADF80C00ADF80E00ADF8D0
:10403000100001208DF8150002A801F0DEFF01221A
:104040000221134802F0D8FA40208DF80400012024
:104050008DF8050000208DF8060001208DF807007E
:1040600001A801F0BCFE0BB000BD00B585B0022177
:10407000074802F029FB30B10221054802F0BFFBDE
:10408000684604F02CFF05B000BD000000040240AB
:104090000068004010B504466FF0040001F0ECFE2B
:1040A000E11704EB5171C1F3C701394A1170104691
:1040B000007800EB4001C1EBC0104FF6FF7101EA40
:1040C000C0003449088010BD0146314A12784A4385
:1040D0004FF0E0235A6100229A611A46126942F0B9
:1040E00001021A6100BF4FF0E022106900F00102E6
:1040F0001AB100F48032002AF5D04FF0E0221269A4
:1041000022F001024FF0E0231A6100229A61704709
:104110000146204A12884A434FF0E0235A610022A8
:104120009A611A46126942F001021A6100BF4FF00B
:10413000E022106900F001021AB100F48032002A76
:10414000F5D04FF0E022126922F001024FF0E02397
:104150001A6100229A61704770B504464FF40770E7
:1041600094FBF0F0C6B24FF4077094FBF0F100FB43
:10417000114085B205E04FF40770FFF7C9FF701ECC
:10418000C6B2002EF7D115B12846FFF7C1FF70BDAA
:1041900074040020760400201CB50121402003F0A7
:1041A0007CF84FF40050009001208DF804000020AE
:1041B0008DF8060003208DF805006946044802F0DA
:1041C000CBFD4FF40051024802F044FE1CBD00003C
:1041D000001802401CB50121402003F05EF84FF4A6
:1041E000FF70009001208DF8040000208DF806007B
:1041F00003208DF8050001208DF8070069464F481F
:1042000002F0AAFD02214D4802F022FE04214B4893
:1042100002F01EFE0821494802F01AFE102147480C
:1042200002F016FE2021454802F012FE40214348CC
:1042300002F00EFE8021414802F00AFE4FF4807128
:104240003E4802F005FE1CBD1CB50121102003F004
:1042500024F80121202003F020F84FF400600090A2
:1042600001208DF8040000208DF8060003208DF851
:10427000050001208DF807006946314802F06CFD09
:104280004FF48040009001208DF8040000208DF84C
:10429000060003208DF8050001208DF8070069460F
:1042A000284802F059FD01202749086000202749CD
:1042B000C1F8AC02FFF78EFF1CBD10B5014601200E
:1042C0000AE0421E41FA02F202F00102204C04EB25
:1042D0008003C3F88022401C0928F2DB10BD30B5F2
:1042E00004460025082C01DD082000E02046044695
:1042F00014F1080F02DA6FF0070000E020460446D0
:10430000002C09DB002004E0012181402943CDB2CB
:10431000401CA042F8DB0BE0002006E0C0F10802E0
:10432000012191402943CDB2401C61428842F5DB16
:10433000E843C5B22846FFF7C0FF30BD0018024071
:104340000010024000140240B88242420000424283
:104350000000434210B50446032C00DD10BD0420CC
:10436000A04081B21F4802F075FD00BFF6E71CB502
:104370000121802002F091FF3C20009001208DF867
:10438000040000208DF8060003208DF805000120B0
:104390008DF807006946134802F0DEFC002404E0B3
:1043A0002046FFF7D7FF601CC4B2042CF8DB1CBD0D
:1043B00010B50446032C00DD10BD0420A04081B2DE
:1043C000084802F045FD00BFF6E710B50446032C8F
:1043D00000DD10BD0420A04081B2024802F043FD80
:1043E00000BFF6E7001C024000B58BB00121802021
:1043F00002F053FF0121080202F04FFF01210820C3
:1044000002F092FF4FF4E050099002208DF828004E
:1044100003208DF8290009A9E24802F09DFC012043
:10442000099002208DF8280003208DF8290009A9A1
:10443000DD4802F091FC02220A21DA4802F017FD61
:1044400002220B21D74802F012FD02220C21D5488E
:1044500002F00DFD02220021D34802F008FD532096
:10446000ADF818000020ADF81A0042F20F70079066
:104470000020ADF8200006A9CC4803F04EFB7020C8
:10448000ADF804000120ADF806000020ADF80800EA
:104490004FF4FA6003900220ADF810000020ADF850
:1044A0001200ADF814004FF48070ADF8160001A9A9
:1044B000BE4803F0C7FB01A9BC4803F0FCFB01A9FF
:1044C000BA4803F045FC01A9B84803F0A7FC08214D
:1044D000B64803F044FD0821B44803F049FD082123
:1044E000B24803F052FD0821B04803F057FD012106
:1044F000AE4803F07DFB0121AC4803F097FB4FF47D
:104500007A70AA4934310860091D0860091D0860E5
:10451000091D08600BB000BD00B58BB0012108205B
:1045200002F0BBFE0121042002F0FEFE4FF47040B9
:10453000099002208DF8280003208DF8290009A990
:104540009B4802F009FC02220C21994802F08FFCE2
:1045500002220D21964802F08AFC02220E21944884
:1045600002F085FC02220F21914802F080FC5320CA
:10457000ADF818000020ADF81A0042F21070079054
:104580000020ADF8200006A98A4803F0C6FA702082
:10459000ADF804000120ADF806000020ADF80800D9
:1045A0004FF47A7003900220ADF810000020ADF8AF
:1045B0001200ADF814004FF48070ADF8160001A998
:1045C0007C4803F03FFB01A97A4803F074FB01A982
:1045D000784803F0BDFB01A9764803F01FFC0821D1
:1045E000744803F0BCFC0821724803F0C1FC0821A8
:1045F000704803F0CAFC08216E4803F0CFFC01218B
:104600006C4803F0F5FA01216A4803F00FFB4FF400
:104610007A70684934310860091D0860091D086016
:10462000091D08600BB000BD00B58BB00121080268
:1046300002F033FE0121802002F02FFE012108202C
:1046400002F02BFE0120019002208DF808000320CB
:104650008DF8090000208DF80A0001208DF80B006C
:1046600001A9514802F078FB4FF4E050019001A9F4
:104670004C4802F071FB4FF48050019001A94C4866
:1046800002F06AFB02220021474802F0F0FB0222FE
:104690000C21444802F0EBFB02220B21414802F0BE
:1046A000E6FB02220A213F4802F0E1FB02220C2134
:1046B0003F4802F0DCFB0121082002F035FE012119
:1046C000042002F031FE0020ADF82800ADF82200F1
:1046D00044F61F6009905320ADF8200000208DF8AB
:1046E0002A0008A9314803F018FA40F24730ADF823
:1046F000200040F2E730099008A92E4803F00DFA97
:104700006020ADF80C000120ADF80E004FF47A7077
:1047100005900020ADF8180003A9244803F07EFBA3
:1047200003A9224803F014FB03A9204803F0C3FAAD
:1047300003A91E4803F086FA01211C4803F00FFC70
:1047400001211A4803F014FC0121184803F01DFC54
:104750000121164803F022FC0121144803F048FA15
:104760000121124803F053FE0121104803F05EFAC4
:104770004FF4FA70059003A90E4803F063FA012183
:104780000C4803F0ECFB01210A4803F031FA012147
:10479000084803F03CFE0121064803F047FA0BB03D
:1047A00000BD0000001C024000200240000C004040
:1047B000000C02400008004010B500213A4803F008
:1047C0009AFB10BD30B58BB004460D460121402048
:1047D00002F0AAFD0121802002F05FFD01214020AE
:1047E00002F0F7FD0021402002F0F3FD092206212E
:1047F0002E4802F03CFB4020099002208DF8280052
:1048000003208DF8290000208DF82A0002208DF861
:104810002B0009A9254802F09FFA6020ADF804009A
:104820000120ADF806000020ADF8100001A91E48D7
:1048300003F008FA08211C4803F091FB01211A48F3
:1048400003F0D6F9681E0790601E80B2ADF818001C
:104850000020ADF81A00ADF8200006A9124803F0B8
:104860005CF90121104803F0E1F9FFF7A5FF0BB057
:1048700030BD10B5024643F6BD600D4B03EB02138D
:1048800033F811300B4C94FBF3F398B210BD064A89
:1048900028321080121D1160704710B50446214661
:1048A000014803F028FB10BD00180040001C024026
:1048B00032DA0008802C800000B58BB00121022084
:1048C00002F0EBFC2020099002208DF82800032044
:1048D0008DF8290000208DF82A0001208DF82B008A
:1048E00009A9224802F038FA022205211F4802F0E5
:1048F000BEFA0121022002F017FD0020ADF82000D1
:10490000ADF81A0044F61F6007905320ADF8180068
:1049100000208DF8220006A9154803F0FEF860205B
:10492000ADF804000120ADF8060000200390ADF8BA
:10493000100001A90E4803F0BEF901210C4803F054
:1049400017FB01210A4803F053F90121084803F03D
:104950005EFD0BB000BD44F62062424344F6206386
:1049600092FBF3F1024A38321160704700040240B2
:104970000004004000B587B00121202002F08DFC2A
:104980000121080502F0E1FC4FF46070059002205F
:104990008DF8180000208DF81A0001208DF81B00FA
:1049A00003208DF8190005A9264802F0D5F9052243
:1049B0000721244802F05BFA05220821214802F071
:1049C00056FA052209211F4802F051FA40200590AD
:1049D00001208DF8180000208DF81A0001208DF8B4
:1049E0001B0003208DF8190005A9164802F0B4F940
:1049F0004021144802F02CFA4FF48270ADF8020006
:104A00000020ADF80400ADF800004FF40070ADF8E0
:104A10000A000020ADF80E000120ADF808000220C9
:104A2000ADF806002020ADF80C000A20ADF810000B
:104A30006946054802F0D0FD0121034802F0C6FE98
:104A400007B000BD00140240005001401FB5012115
:104A5000102002F069FC36208DF8000002208DF84D
:104A6000010001208DF802008DF80300684601F076
:104A7000B6F95320ADF804000020ADF80600ADF8FB
:104A80000C004FF47A70029001A9194803F045F820
:104A90001FBD10B50121164803F0C8F801221146C8
:104AA000134803F0DBFC0121114803F0EBFC10BDBF
:104AB00010B501210E4803F0E8FCC0B101210C48FB
:104AC00003F0F4FC01210A4803F0DCFCFBF740FF93
:104AD00008480068401C07490860084600686421CF
:104AE000B0FBF1F201FB120008B9FBF7B1FF10BDFA
:104AF000001000407804002010B596B00446012153
:104B0000022002F0CAFB0121102002F01EFC072245
:104B100011464C4802F0ABF914A802F065F9802068
:104B2000149002208DF8540001208DF857000220C7
:104B30008DF8550000208DF8560014A9414802F068
:104B40000BF9414803F08EFD10A803F058FE3F48D2
:104B500010900020ADF84400ADF846004FF480609E
:104B6000ADF848000420ADF84A000020ADF84C0034
:104B700010A9354803F0DDFD0121334803F061FE43
:104B800001224021304803F009FF314801F08AFE3C
:104B90000121880502F081FB4FF0006000902A4857
:104BA000001D01902B4802900020039012200490D9
:104BB000002005904FF48060069000200790089038
:104BC0004FF4807009904FF440300A9000200B9011
:104BD0000C900D900E9069461D4801F005FF0122D2
:104BE00010211B4801F0C7FF0121194801F036FFD1
:104BF0003A208DF83C0000208DF83D008DF83E00F5
:104C000001208DF83F000FA801F0E9F816B010BDA3
:104C100010B511490E4801F0CBFF88B14FF081511A
:104C20000B4801F094FF0C49094801F0EBFF0948DB
:104C300004F0E6FF0948FDF722FA0220FDF72FFAFB
:104C400010BD00000004024000100140A0860100D9
:104C500040640240A40E0020008020104603002083
:104C600010B596B004460121082002F016FB012180
:104C7000480502F012FB0121480402F055FBFB48F5
:104C800003F0F0FC0121F94803F0EFFD07220521B4
:104C9000F74802F0ECF807220621F54802F0E7F8A1
:104CA0006020149002208DF8540000208DF85600EA
:104CB00003208DF8550000208DF8570014A9EC480A
:104CC00002F04AF826208DF83C0002208DF83D00C5
:104CD00001208DF83E008DF83F000FA801F07FF80D
:104CE00010A803F08CFD10940020ADF84400ADF83E
:104CF0004600ADF848000C20ADF84A000020ADF8A1
:104D00004C0010A9D94803F014FD012240F22441BF
:104D1000D64803F04CFE01224021D44803F03EFE69
:104D20000021D24803F08DFDD24801F0BBFD4FF0C9
:104D300000600090CD48001D0190CF4802900020F7
:104D4000039064200490002005904FF4806006904A
:104D500000200790089009904FF480300A900020BE
:104D60000B900C900D900E906946C248603001F097
:104D70003BFE10208DF83C0002208DF83D00012004
:104D80008DF83E008DF83F000FA801F028F80122B1
:104D90001021B848603001F0EEFE0022B6496431BF
:104DA000B448603001F081FE0121B248603001F06A
:104DB00088FE0121AF48603001F050FE16B010BDF2
:104DC00000B591B00121480502F067FAA948783092
:104DD00001F068FD4FF000600190A448001D0290B2
:104DE000A6480390402004904FF4C870059000201E
:104DF00006904FF4806007900020089009900A9078
:104E00004FF400300B9000200C9001200D900020FA
:104E10000E900F9001A99748783001F0E5FD01222E
:104E200010219448783001F0A6FE012280218F489D
:104E300003F0B4FD11208DF8400002208DF84100F0
:104E400001208DF842008DF8430010A800F0C7FF44
:104E500000218848783001F001FE11B000BD70B526
:104E600004460D4600BF864800780028FBD101208B
:104E7000834908702A462146804806F0A3F929464E
:104E80007C48783001F00BFE01217A48783001F03F
:104E9000E5FD70BD10B57B497648783001F088FE9D
:104EA00078B178497348783001F051FE002171489B
:104EB000783001F0D3FD012240F226616B4803F007
:104EC00076FD10BD10B540F22771684803F0AAFDC9
:104ED00040B9002240F22661644803F068FD0020DA
:104EE0006749087010BD0146B1F8C800B1F8CA2082
:104EF000904201D1C7207047B1F8CA00B1F8C8206C
:104F0000801A012806D0B1F8CA00B1F8C820801A6A
:104F1000C73008B90020EEE7B1F8CA00B1F8C820E0
:104F2000801A401E002806D4B1F8CA00B1F8C82083
:104F3000801A401E05E0B1F8CA00B1F8C820801AF6
:104F4000C73080B2D7E72DE9F04104460F46154639
:104F50002046FFF7C8FFA84227DB002D25DDB4F867
:104F6000C8002844C8280CDAB4F8C81008192A4622
:104F7000394606F027F9B4F8C8002844A4F8C80058
:104F800016E0B4F8C800C0F1C806B4F8C810081993
:104F90003246394606F016F9AA1BB919204606F022
:104FA00011F9A81BA4F8C80002E00020BDE8F081B8
:104FB0000120FBE710B540F224412C4803F032FDFC
:104FC000002852D001203049A1F8CE00274800889F
:104FD0002648001D00882748603001F082FDE0BBB4
:104FE00000202A490870002210212248603001F078
:104FF000C2FD00211F48603001F030FD24491D48EA
:10500000603001F0FFFD1B48603001F04AFDC0F147
:10501000640020490860642016496431086015481E
:105020002838D0F8880040F4002012492839C1F807
:1050300088001848008882B21448007800EBC0034A
:1050400003EB00100C4B03EB80010F48FFF77BFFD5
:10505000012210210748603000E01DE001F08BFDC7
:1050600001210448603001F0F9FC52E000440040A6
:10507000000C024028600240BE0E002056100020A6
:105080007C04002000802020860F00207D0400206A
:1050900000880020800400200120CE4908700022F2
:1050A0001021CD4801F067FD0021CB4801F0D6FC6E
:1050B000CA49C94801F0A6FDC74801F0F2FCC0F199
:1050C0006400C74908606420C349091D0860C248DC
:1050D0008838D0F8880020F40020BF498839C1F80A
:1050E0008800BF48008882B2BA48007800EBC0034D
:1050F00003EB0010BB4B03EB8001BB48FFF723FF22
:1051000001221021B44801F036FD0121B24801F01E
:10511000A5FC10BD10B5FFF7D5FEFFF74BFF10BD86
:1051200010B5AE49AC4801F043FDF0B1AB49AA4817
:1051300001F00DFDA84801F0D4FC08B9012000E001
:105140000020A4490870A9480088A848001D0088CC
:105150000846007800EBC00202EB0010A14A02EB07
:1051600080016422A048FFF7EEFE10BD0146B1F8B1
:10517000C800B1F8CA20904201D100207047B1F8B0
:10518000CA00B1F8C820801A012806D0B1F8CA00B8
:10519000B1F8C820801AC73008B9C720EEE7B1F8C7
:1051A000C800B1F8CA20801A05D4B1F8C800B1F817
:1051B000CA20801A05E0B1F8C800B1F8CA20801AE8
:1051C000C83080B2DAE72DE9F04107460C461546B3
:1051D0002046FFF7CBFFA84227DB002D25DDB4F8E2
:1051E000CA002844C8280CDAB4F8CA0001192A46B3
:1051F000384605F0E7FFB4F8CA002844A4F8CA000E
:1052000016E0B4F8CA00C0F1C806B4F8CA00011923
:105210003246384605F0D6FFAA1B2146384605F02F
:10522000D1FFA81BA4F8CA0002E00020BDE8F0816D
:105230000120FBE730B5034601241846FFF796FF2F
:10524000A0421CDB002C1ADDB3F8CA002044C82899
:1052500008DAB3F8CA001D5CB3F8CA002044A3F80A
:10526000CA000AE0B3F8CA10C1F1C800B3F8CA1006
:105270005D5C211AA3F8CA1000BF284630BD00208B
:10528000FCE72DE9F04107460C462046FFF76EFF8C
:105290000546002D25DDB4F8CA002844C8280CDADC
:1052A000B4F8CA0001192A46384605F08BFFB4F855
:1052B000CA002844A4F8CA0016E0B4F8CA00C0F135
:1052C000C806B4F8CA0001193246384605F07AFF1C
:1052D000AA1B2146384605F075FFA81BA4F8CA0092
:1052E00002E00020BDE8F0810120FBE72DE9F04756
:1052F00081460D4617461C462846FFF737FF3919E9
:10530000884221DB002C1FDDB5F8CA003844C821D3
:1053100090FBF1F201FB12063019C82805D2A91939
:105320002246484605F04EFF0DE0C6F1C808A9190F
:105330004246484605F046FFA4EB08022946484687
:1053400005F040FF00BF02E00020BDE8F08701202B
:10535000FBE770B503460C4601251846FFF706FF2C
:10536000611988420BDB002D09DDB3F8CA00204427
:10537000C82290FBF2F602FB1601585C70BD0020BB
:10538000FCE710B503460C461846FFF7EFFEA042B7
:1053900014DB002C12DDB3F8CA002044C82805DA5B
:1053A000B3F8CA002044A3F8CA0009E0B3F8CA1051
:1053B000C1F1C800211AA3F8CA1001E0002010BDF5
:1053C0000120FCE700200849A1F8C800A1F8CA00A4
:1053D000704700007D0400208860024000880020A3
:1053E00080040020BE0E0020860F002000440040F4
:1053F00010B596B004460121082001F04EFF0121AE
:10540000480501F04AFF0121880401F08DFF76482C
:1054100003F028F907220821744801F028FD07222B
:105420000921724801F023FD4FF48070149002208E
:105430008DF8540000208DF8560003208DF855009B
:1054400000208DF8570014A9684801F085FC4FF43E
:105450000070149002208DF8540001208DF8560041
:1054600003208DF8550001208DF8570014A95F48DE
:1054700001F072FC27208DF83C0002208DF83D00E1
:1054800001208DF83E008DF83F000FA800F0A7FC2A
:1054900010A803F0B4F910940020ADF84400ADF862
:1054A0004600ADF848000C20ADF84A000020ADF8E9
:1054B0004C0010A94C4803F03CF9012240F2244171
:1054C000494803F074FA01224021474803F066FA84
:1054D0000121454803F0B5F9454801F0E3F94FF0E3
:1054E000006000904048001D01904248029000205A
:1054F000039064200490002005904FF48060069093
:1055000000200790089009904FF480300A90002006
:105510000B900C900D900E906946354801F064FA9E
:10552000002234496431324801F0BFFA0121304889
:1055300001F0C7FA01212E4801F090FA16B010BD13
:1055400010B540F22441284803F06CFA00284AD0F4
:10555000254800882448001D0088254801F0C1FA2C
:1055600000BB0020244908700021214801F076FA90
:105570001F4801F096FAC0F16400204908606420D9
:105580001B492839C8620846806A40F400208862B6
:105590000121174801F062FA18480178154804F013
:1055A0005CFC20E00120144908700021104801F043
:1055B00055FA0F4801F075FAC0F164000F49086010
:1055C00064200B492839C8620846806A20F400200C
:1055D00088620121064801F041FA0848017805482F
:1055E000643004F03AFC10BD00480040000C02405A
:1055F00028600240E6110020860400208804002074
:1056000010B588B004460121402001F046FE01217A
:10561000202001F09AFE08220921314801F027FCE0
:1056200008220E212E4801F022FC4FF484400690FF
:1056300002208DF81C0000208DF81E0003208DF83C
:105640001D0000208DF81F0006A9254801F084FBED
:10565000244803F007F802A803F0D1F802940020D0
:10566000ADF80C00ADF80E00ADF810000C20ADF850
:1056700012000020ADF8140002A91A4803F059F8EE
:1056800047208DF8040001208DF805008DF80600F4
:105690008DF8070001A800F0A2FB012240F225517D
:1056A000104803F084F901210E4803F0CAF808B04D
:1056B00010BD10B540F225510A4803F0B3F968B1A6
:1056C000084803F0EDF808490870064800880548C6
:1056D000001D00880846007804F01EFE10BD000082
:1056E00000180240001401408C04002010B588B05E
:1056F00004460121102001F0D0FD0121880701F0AE
:1057000013FE082207213C4801F0B1FB0822114694
:10571000394801F0ACFB8020069002208DF81C0077
:1057200000208DF81E0003208DF81D0001208DF84B
:105730001F0006A9304801F00FFB4FF4807006905F
:1057400002208DF81C0000208DF81E0003208DF82B
:105750001D0001208DF81F0006A9274801F0FCFA62
:10576000264802F07FFF02A803F049F802940020C7
:10577000ADF80C00ADF80E00ADF810000C20ADF83F
:1057800012000020ADF8140002A91C4802F0D1FF5D
:1057900052208DF8040001208DF805008DF80600D8
:1057A0008DF8070001A800F01AFB012240F22551F4
:1057B000124803F0FCF80121104803F042F808B049
:1057C00010BD10B540F225510C4803F02BF990B1F3
:1057D0000A4803F065F80A49087008480088074835
:1057E000001D00880846007804F001FD05480068A7
:1057F000401C0449086010BD0010024000780040C1
:10580000940400209004002000B58BB0012180207A
:1058100001F043FD0121080201F03FFD01210820B4
:1058200001F082FD4FF4E050099002208DF828002D
:1058300003208DF8290009A98B4801F08DFA012079
:10584000099002208DF8280003208DF8290009A96D
:10585000864801F081FA02220A21834801F007FB01
:1058600002220B21804801F002FB02220C217E481B
:1058700001F0FDFA022200217C4801F0F8FA122022
:10588000ADF818000020ADF81A00052007900020A0
:10589000ADF8200006A9764802F03FF97020ADF877
:1058A00004000120ADF806000020ADF808000390C8
:1058B0000220ADF810000020ADF81200ADF8140081
:1058C0004FF48070ADF8160001A9694802F0BAF9EA
:1058D00001A9674802F0EFF901A9654802F038FA1A
:1058E00001A9634802F09AFA0821614802F037FBE7
:1058F00008215F4802F03CFB08215D4802F045FBAF
:1059000008215B4802F04AFB0121594802F070F976
:105910000021574802F08AF90BB000BD00B58FB0E6
:105920000121480501F0B9FC0520FEF715FC002116
:10593000504801F093F84F4800F0B4FF4FF040603A
:1059400000904B483C3001904B480290402003901F
:1059500079200490002005904FF48060069080002C
:10596000079080000890002009904FF480300A9042
:1059700000200B9003200C9000200D900E906946A3
:105980003C4801F031F801221102394802F096FD3D
:105990000021384801F062F80121354802F046F94B
:1059A0000FB000BD10B53549324801F0B4F818B950
:1059B0003348007801281CD0012031490870314952
:1059C0002C4801F0C4F800212A4801F047F8792159
:1059D000284801F064F80121264801F03FF82448E6
:1059E0001430008840F00100214914310880012062
:1059F00010BD0020FCE72DE9F04105460C46052CC2
:105A000002DD0020BDE8F08100211EE0002019E049
:105A1000072214E001EB41032B441B5C134103F00C
:105A20000103194EF35C01EB4106F60006EBC006DC
:105A3000C2F107073E44104F47F82630521E002A95
:105A4000E8DA401C0328E3DB491CA142DEDB00202E
:105A500004EB4401082202EBC101074A42F821008D
:105A6000FFF7A0FF0120CDE7001C0240002002400C
:105A7000000C00401060024098040020200000103C
:105A80007C0600202080001062DA000810B588B083
:105A900004460121102001F000FC0121C80701F09B
:105AA00043FC08220021304801F0E1F908220121DD
:105AB0002D4801F0DCF90320069002208DF81C002F
:105AC00000208DF81E0003208DF81D0001208DF8A8
:105AD0001F0006A9244801F03FF9244802F0C2FD46
