:020000040800F2
:1000000098140020C13E0008613C0008633C0008D1
:10001000673C00086B3C00086F3C000800000000D3
:10002000000000000000000000000000733C000819
:10003000753C000800000000773C0008793C00088F
:10004000DB3E0008DB3E0008DB3E0008DB3E00082C
:10005000DB3E0008DB3E0008DB3E0008DB3E00081C
:10006000DB3E0008DB3E0008DB3E0008DB3E00080C
:10007000DB3E0008DB3E0008DB3E0008DB3E0008FC
:1000800079350008ED320008DB3E0008DB3E000851
:100090001D260008DB3E0008DB3E0008DB3E0008B2
:1000A000DB3E0008DB3E0008DB3E0008DB3E0008CC
:1000B000DB3E0008DB3E0008DB3E0008DB3E0008BC
:1000C000DB3E0008DB3E0008DB3E0008DB3E0008AC
:1000D000DB3E0008DB3E00086D350008993900085A
:1000E000DB3E0008DB3E0008DB3E0008DB3E00088C
:1000F000DB3E0008DB3E0008DB3E0008DB3E00087C
:10010000DB3E0008DB3E0008DB3E0008DB3E00086B
:10011000DB3E0008DB3E00080F2F0008DB3E000836
:10012000DB3E0008DB3E000871300008DB3E0008C3
:10013000DB3E0008DB3E0008DB3E0008DB3E00083B
:1001400045270008DB3E0008DB3E0008DB3E0008D8
:10015000DB3E0008DB3E0008DB3E00080D3B0008EC
:10016000DB3E0008DB3E0008DB3E0008DB3E00080B
:10017000DB3E0008DB3E0008DB3E0008DB3E0008FB
:10018000DB3E0008DB3E00081B3C0008DB3E0008AD
:10019000DB3E0008DB3E0008DB3E0008DB3E0008DB
:1001A0000000000000000000DB3E000800F002F844
:1001B00000F060F80AA090E8000C82448344AAF1A1
:1001C0000107DA4501D100F055F8AFF2090EBAE89F
:1001D0000F0013F0010F18BFFB1A43F0010318477B
:1001E00000D0000020D000000A444FF0000C10F8AE
:1001F000013B13F0070408BF10F8014B1D1108BFA5
:1002000010F8015B641E05D010F8016B641E01F844
:10021000016BF9D113F0080F1EBF10F8014BAD1C94
:100220000C1B09D16D1E58BF01F801CBFAD505E0B2
:1002300014F8016B01F8016B6D1EF9D59142D6D30C
:10024000704700000023002400250026103A28BF34
:1002500078C1FBD8520728BF30C148BF0B60704738
:100260001FB50CF0A2F89DE8030009F0B1FF1FBD17
:1002700010B510BD0AF018F81146FFF7F1FF00F0B5
:1002800009F80AF036F803B4FFF7F2FF03BC0AF0EE
:1002900063F800004FF4A06003F032FE02F0E0F8D3
:1002A000002436E02F4890F90000082805DA2D4890
:1002B0000078C01C40B22B4908702B4800683221DE
:1002C000B0FBF1F085B2284602F019FD04EB4402C0
:1002D000264B03EB4202917804EB440213F8120020
:1002E00002F0F9FC05462946092002F002FD04EB64
:1002F00044011E4A02EB41018D8805EBD57148107F
:1003000002F096FA02F08AFC1E2002F091FA601CBC
:10031000641C282CC6DB0121154806F028FB0321AC
:1003200014A002F0C8FF4FF4167002F081FA00200A
:10033000114908600821012000F062FB11E00F481C
:1003400000684FF47A71B0FBF1F201FB120010B9B2
:1003500008200449087007F0F3FF08F018FB01F0CB
:1003600077FFECE7000000202C1800408AC7000847
:10037000004400402B2B2B00B8824242E4040020B2
:10038000FC490870704710B5C024FB490988A1F5E5
:100390008060002801DB014600E0414240F29622E5
:1003A000914201DC012100E000210C43F24949881F
:1003B000A1F58060002801DB014600E0414240F2E7
:1003C0009622914201DC012100E0002144EA41042F
:1003D000E9498988A1F58060002801DB014600E039
:1003E000414240F29622914201DC012100E00021CD
:1003F00044EA8104E049C988A1F58060002801DB56
:10040000014600E0414240F29622914201DC012186
:1004100000E0002144EAC104D748007A012807D04F
:10042000D548007A022803D0D348007A032801D1A6
:10043000012000E0002044EA0014CF48407A01285F
:1004400007D0CD48407A022803D0CB48407A032811
:1004500001D1012000E0002044EA4014FF2C07D025
:100460000320FFF78DFF1422C349C44809F0B1FDF2
:1004700010BDC0480078704710B5FFF7FAFF082894
:100480007ED2DFE800F011041E872B65584B002355
:100490001A461946184606F02AFC00231A46194641
:1004A000184606F053FC82E000231A461946184607
:1004B00006F01DFC00231A461946184606F046FCB5
:1004C00075E000231A461946184606F010FC002372
:1004D0001A461946184606F039FC68E0A84CA48C68
:1004E00023B2A74C248C22B2A64CA48C21B2A54CDA
:1004F000248C20B206F0FBFBA34B93ED070ABDEE64
:10050000C00A10EE103A1AB2A04B1B8A19B29F4BC8
:100510009B8C18B2002306F019FC48E000231A4611
:100520001946184606F0E3FB00231A4619461846FA
:1005300006F00CFC3BE000231A461946184606F06C
:10054000D6FB00231A461946184606F0FFFB2EE09C
:100550008B4CA48C23B28A4C248C22B2894CA48C60
:1005600021B2884C248C20B206F0C1FB864B93ED5F
:10057000070ABDEEC00A10EE103A1AB2834B00E033
:1005800008E01B8A19B2814B9B8C18B2002306F03D
:10059000DDFB0CE000231A461946184606F0A7FBBF
:1005A00000231A461946184606F0D0FB00BF00BFCC
:1005B00010BD10B5704909886F4A528811446E4ABF
:1005C000928811446C4AD2881144A1F580500028C9
:1005D00001DB014600E04142082901DD00F05DF940
:1005E00010BD10B5FFF745FF08285CD2DFE800F02A
:1005F0003004384A40504B496548006842F2107157
:10060000884224D9FFF7D5FF0020FFF7B9FE9FED00
:10061000610A5E4880ED030A014649695E4A126834
:10062000511A4FF4616201FB02F0C11700EBD14196
:10063000491300EE101AB8EEC00A5849D1ED000A6D
:10064000B2EE041A00EE810A504981ED080A2AE050
:1006500000F0CBFB0220FFF793FE00F0BBFE22E090
:100660000620FFF78DFE00F0C0FB00F0B3FE1AE09D
:1006700000F0BBFB00F0AEFE01F087FE00F0AFFD26
:1006800011E010E00FE000F0AAFD00F0AEFB0AE080
:1006900001F0ACFE00F0A9FB00F09CFE01F075FE3D
:1006A00000F09DFD00BF00BF10BD10B5FFF7E1FEDB
:1006B0003B490870FFF7DDFE082805D2DFE800F0AF
:1006C0000504064007AC301CAEE0ADE0ACE02A48C3
:1006D000007A032802D10620FFF752FE2648007A4E
:1006E000032807D12F480078032803D12248407AF5
:1006F000012800D000BF97E01F49C97C61B91E499D
:10070000897C49B91C49B1F90A00002801DB01467E
:1007100000E04142032902DD0420FFF731FE83E0BF
:100720001548007A012803D10420FFF729FE06E0CE
:100730001148007A022802D10520FFF721FE73E05C
:1007400019480068401C18490860184991F836108B
:1007500071BB09490988084A52881144064A92889F
:100760001144054AD2881144A1F58050002820DBAD
:1007700001461FE0040000203C0500203806002050
:100780000C0700204C0600209406002014000020D6
:10079000E40400200040A644100000202C050020A6
:1007A000060000200500002008000020580300205B
:1007B00023E041420A2920DA3F4949693F4A126849
:1007C000511A4FF4616201FB02F0C11700EBD141F5
:1007D000491300EE101AB8EEC00A3949D1ED000AEB
:1007E000B2EE041A00EE810A334981ED080A0420B2
:1007F000FFF7C6FD002033490860334890F8360003
:1008000048B930480068B0F5FA5F04D900202D4996
:10081000086000F042F807E02C48007A032802D173
:100820000620FFF7ADFD00BF00BF2848407A2849E9
:10083000087010BD10B507F0EDF800F045FFFFF7A8
:1008400034FFFFF7CEFEFFF717FEFFF79CFD2148B0
:1008500000687821B0FBF1F201FB120078B91E4864
:1008600090F90000002805DD1B480078401E40B2CA
:1008700019490870184890F9000002F09CF810BD62
:10088000F0EE400AF5EEC00AF1EE10FA02DBB0EE2F
:10089000600A7047B1EE600AFBE7BFF34F8F0F4865
:1008A000006800F4E0600E490843001D0B49086031
:1008B000BFF34F8F00BFFEE71400002010000020A0
:1008C0002C05002008000020580300203C050020D3
:1008D00005000020E4040020000000200CED00E0F2
:1008E0000000FA0510B54E4800780A2832DA4C4864
:1008F000007800282EDD4B4800684FF41661B0FBED
:10090000F1F201FB1200464909784900C1EB0111DF
:1009100001EB8101B0EB410F2BD8424800684FF446
:100920001661B0FBF1F201FB120028B94FF48041CF
:100930003D4804F023FB1CE03A4800689621B0FBD8
:10094000F1F201FB1200A0B94FF48041364804F0E7
:1009500020FB0EE0324800780A2805DB4FF4804186
:10096000314804F00DFB04E04FF480412E4804F0C0
:1009700005FB2E4800780A2832DA2C480078002837
:100980002EDD284800684FF41661B0FBF1F201FB40
:100990001200264909784900C1EB011101EB8101E0
:1009A000B0EB410F2BD81F4800684FF41661B0FB25
:1009B000F1F201FB120028B94FF400611C4804F069
:1009C000DDFA1CE0174800689621B0FBF1F201FB4C
:1009D0001200A0B94FF40061154804F0DAFA0EE0F5
:1009E000124800780A2805DB4FF40061104804F033
:1009F000C7FA04E04FF400610D4804F0BFFA10BDDF
:100A00000A2801DD0A2200E00246054B1A700A2975
:100A100001DD0A2200E00A46044B1A70704700000C
:100A20000C000020E4040020001402400D0000200F
:100A30000010024070B52DED0A8B04460D46FE48AD
:100A400000680F21B0FBF1F201FB120000287DD1FC
:100A5000FA498988A1F580600BF04BF941EC1C0B39
:100A60009FEDF70B53EC102B0BF06EF941EC1B0BC9
:100A70009FEDF50B53EC102B0AF0B4FF41EC190B72
:100A8000F34890ED080A10EE101A08460BF01CFC13
:100A900041EC1A0B53EC192B0AF0FCFE41EC180B3D
:100AA0000AF0C6FEEA490862084690ED080ADFED42
:100AB000E90AB4EEE00AF1EE10FA06DD90ED080A5C
:100AC000DFEDE50A30EE600A02E0E14890ED080A49
:100AD000DF4880ED080A90ED080ADFEDE00AB4EE89
:100AE000E00AF1EE10FA06D290ED080ADFEDDA0A1C
:100AF00030EE200A02E0D64890ED080AD44880ED96
:100B0000080ACE49C988A1F580600BF0F2F841ECE3
:100B10001C0B9FEDD30B53EC102B0BF015F941EC94
:100B20001B0B9FEDC90B53EC102B0AF05BFF41EC44
:100B3000190BC74890ED030A10EE101A08460BF087
:100B4000C3FB41EC1A0B53EC192B00E02CE00AF02C
:100B5000A1FE41EC180B0AF06BFEBD49C8600846C7
:100B600090ED030ADFEDC00AB4EEE00AF1EE10FAF0
:100B700002D29FEDBD0A02E0B54890ED030AB448E9
:100B800080ED030A90ED030ADFEDB80AB4EEE00A47
:100B9000F1EE10FA02DD9FEDB50A02E0AC4890EDEF
:100BA000030AAB4880ED030ABDEC0A8B70BD10B59B
:100BB000AF48007801280FD0AD48007860B99F4851
:100BC000007A012802D0AB48007E28B9A0490C3138
:100BD00001F11400FFF72EFF9FEDA70AA74880ED53
:100BE000000A954800681E21B0FBF1F201FB1200DB
:100BF00028B997490C3101F1140000F00EFF944818
:100C0000D0ED030A90ED000AB8EEC00A30EEC00A3B
:100C1000DFED9B0AB4EEE00AF1EE10FA16DD006893
:100C200000F5005001EE100AB8EEC11AF0EE410ACC
:100C3000874890ED031AB0EE410A924808F058FA3E
:100C4000BDEEC00A824880ED020A39E08048D0ED4E
:100C5000030A90ED000AB8EEC00A30EEC00ADFEDDC
:100C60008A0AB4EEE00AF1EE10FA16D20068A0F596
:100C7000005001EE100AB8EEC11AF0EE410A7448B5
:100C800090ED031AB0EE410A7E4808F031FABDEE4D
:100C9000C00A6F4880ED020A12E06D4890ED001A1C
:100CA000B8EEC11AF0EE410A90ED031AB0EE410A17
:100CB000744808F01DFABDEEC00A654880ED020ACE
:100CC000634890ED080A7148D0ED000AB2EE041AAC
:100CD00000EEC10ADFED5F0AB4EEE00AF1EE10FAB1
:100CE00017DDD0ED001A9FED5C1AB2EE042A01EE7A
:100CF000821AF0EE410A564890ED081AB0EE410A09
:100D0000634808F0F5F9BDEEC00A514880ED070AC6
:100D10003EE04F4890ED080A5C48D0ED000AB2EE84
:100D2000041A00EEC10ADFED4D0AB4EEE00AF1EE5E
:100D300010FA17D2D0ED001A9FED471AB2EE042A2E
:100D400011EE821AF0EE410A414890ED081AB0EE19
:100D5000410A4F4808F0CCF9BDEEC00A3C4880ED8E
:100D6000070A15E0494890ED001AF2EE041A21EE48
:100D7000211AF0EE410A364890ED081AB0EE410A09
:100D8000434808F0B5F9BDEEC00A314880ED070AC6
:100D9000404890ED081AB1EE411AF0EE410A2C4895
:100DA00090ED021AB8EEC11AB0EE410A3A4808F0C6
:100DB0009FF9BDEEC00A264880ED040A354890ED43
:100DC0000A1AB1EE411AF0EE410A214890ED071AD5
:100DD000B8EEC11AB0EE410A304808F089F9BDEE0C
:100DE000C00A1B4880ED090A10BD10B5FFF7DFFEF1
:100DF00010BD01462A4890ED000AF7EE000A70EE99
:100E0000C00A284890ED000AB8EEC00A60EE800AD9
:100E100000EE101AB8EEC00A214890ED001A40EE1C
:100E2000010ABDEEE00A204880ED000A00681D4A74
:100E300010601D4800687047E40400203C05002055
:100E400000000000008046400000000000A0844038
:100E5000140000200000E144000061450000E1C4EE
:100E600000000000000039400000C8420040CE44AD
:100E700044010020E40D002000000000D005002007
:100E8000000080453C000020000080C52C050020AB
:100E9000C0000020680B00207E000020020100201E
:100EA00050010020480100204C010020421A00EEB1
:100EB000902AF8EEE00AB1EE601ADFED2C1AC1EECE
:100EC000210AB0EE001A60EE810A9FED291A60EE49
:100ED000810AB0EE600A704770B50246002000211A
:100EE000244B1B68934202DA224B1B6800E0134636
:100EF0001A46204B1B6D934202DD1E4B1B6D00E01A
:100F000013461A46002106E01A4B53F8313093423B
:100F100000DC02E0491C0B29F6DB00BF092901DDDA
:100F2000092300E00B461946124C4B1C04EBC3038B
:100F30005B6804EBC10464681B1B0E4C54F8314021
:100F4000A41A63430B4C54F8315026464C1C56F8F7
:100F500034402C1B93FBF4F3344604EBC104646867
:100F6000181970BD014600207047000000000046BF
:100F7000DA0F494090C90008B0EE401AF7EE001AA7
:100F8000B0EE610A984890F83800012807D1032094
:100F900096490870DFED961AB0EE610A29E0F3EE8B
:100FA0000E1A70EEE11AF0EE610ADFED921A9FED73
:100FB000922A42EE201AB0EE610AF7EE001AB4EE61
:100FC000E10AF1EE10FA02DDF7EE001A01E0F0EEB0
:100FD000401AB0EE610ADFED891AB4EEE10AF1EED3
:100FE00010FA02D2DFED851A01E0F0EE401AB0EE01
:100FF000610A704710B5FFF73CFA04283CD100BFE6
:101000007F480088A0F580607E49B1F90010401A41
:1010100001280CDD7A480088A0F580600A2806DDEA
:1010200079480088401C00B2774908801FE0744866
:101030000088A0F580607349B1F90010401AB0F142
:10104000FF3F0DDA6E480088A0F5806010F10A0FAE
:1010500006DA6D480088401E00B26B49088006E041
:1010600067480088A0F5806000B26749088066483C
:10107000B0F900006349088010BD10B5FFF7F9F919
:10108000042817D1002013E09FED600A10EE101A1B
:1010900000EB40125E4B03EB420251609FED5D0A94
:1010A00010EE101A00EB401203EB42021162401CDA
:1010B0000228E9DBFFF7DDF9042801D1FFF79AFFE9
:1010C0005148B0F9000000EB8000400052498860B0
:1010D0004D48B0F90000404200EB80004000C8607D
:1010E000084690ED001AB8EEC11AF0EE410A90EDF4
:1010F000021AB8EEC11AB0EE410A454807F0F8FFEF
:10110000BDEEC00A444880ED080A90ED011AB8EE21
:10111000C11AF0EE410A90ED031AB8EEC11AB0EE12
:10112000410A3B48423007F0E3FFBDEEC00A3A48AF
:1011300080ED090A3948008901EE100AB8EE411A1B
:10114000F0EE410A354890ED011AB0EE410AFFF782
:1011500013FF334880ED000A2F4890ED080AB8EEDF
:10116000C00A2F48D0ED000A20EE200AF0EE402AF7
:10117000294890ED090AB8EEC00A2948D0ED000AC6
:1011800020EE200AB0EE403ABDEEE20A224880EDA1
:10119000080ABDEEC30A80ED090A006A42F2107126
:1011A000884202DD08461C4908621B48006A1D4946
:1011B000884202DA0846184908621748406A42F233
:1011C0001071884202DD0846134948621248406A9D
:1011D0001449884202DA08460F49486210BD10B52A
:1011E000FFF74BFF10BD000058030020280200202D
:1011F0009A99193FCDCCCC3D8FC2F53BCDCC4C3D1F
:101200003C0500202A0200201A0200200AD7A33C35
:101210005401002000C8AF474C0600204C0D0020B0
:1012200024020020F0D8FFFF10B50B684A69D21ADB
:10123000F44B1A601C462368002B01DB1C4600E0BF
:101240005C42062C0CDDB1F91020002A01DB1446AB
:1012500000E054420A2C03DAC269521CC26101E068
:101260000023C361C269642A05D9027E1AB901222A
:101270000276E54B1A70027E012A37D1E24A1278D3
:10128000012A04D0022A11D0032A2ED124E00A68B0
:10129000323ADE4B1A601A4692ED000AB8EEC00AE6
:1012A00080ED030A0222D84B1A701EE0D74A92ED55
:1012B000000AB8EEC00A80ED030A14460B682468E1
:1012C0001A1B002A01DB134600E05342282B02DAE6
:1012D0000322CD4B1A7008E000220276CA4B1A7026
:1012E000428802800023C36100BF00BF10BDC8490F
:1012F000097801294ED1C749097A032910D0C64976
:10130000097803290CD1C349497A022908D1C34974
:101310000988891E09B2C14A1180C1490968516012
:10132000BF4909682822B1FBF2F302FB1311F9B996
:10133000B849097A01291BD1B649497A022917D13E
:10134000B44A5288A2F58061002901DB0A4600E018
:101350004A4212B24FF4967392FBF3F2AF4B1B88E2
:101360009A1A12B2AD4B1A80AD4909681A465160FB
:10137000A849097A03290DD0A7490978032909D179
:10138000A449497A012905D1017809B9012100E070
:10139000002101709F49497A9F4A1170704700B53A
:1013A000A048FFF7A4FF9D48B0F9000000EE100A26
:1013B000B8EEC00ADFED9C0A20EE200A974880EDC7
:1013C000030A4FF254209949088399499348FFF73B
:1013D0002BFF00BD10B501209649086091480078A8
:1013E000012803D1152000F0A7FF02E0002000F043
:1013F000A3FFFFF7D4FF894890ED030ABDEEC00AB2
:101400008B4880ED050A90ED001AB8EEC11AF0EE97
:10141000410A90ED051AB8EEC11AB0EE410A8648AD
:1014200007F066FEBDEEC00A10EE100A00B2804959
:10143000088382480088C0F57A707A490978484361
:10144000C0F57A707E4908807948B0F9100001EE45
:10145000100AB8EEC11AF0EE410A7548B0F918004A
:1014600001EE100AB8EEC11AB0EE410A754807F055
:101470003FFE6F4880ED070A6C48B0F9100001EE9E
:10148000100AB8EEC11AF0EE410A6848B0F9180027
:1014900001EE100AB8EEC11AB0EE410A6A4807F030
:1014A00027FE624880ED070A6548008867490860A2
:1014B00063480088091D086010BD10B503465548F3
:1014C000007C012807D132B955480088604C208043
:1014D0000020604C2070581A002801DB044600E010
:1014E0004442022C0EDA5B4C2478012C0AD00120F5
:1014F000584C20704A480088574C20805448008837
:10150000564C208054480088544C2488001B80B2DC
:1015100010BD1420414908820A2140488174704757
:101520007047704730B503460C4604FB04F5A8B27B
:1015300040F2DC5595FBF0F529B21D68DDB100EBFA
:101540008005954206DD4500954203DC8DB26D1C99
:101550001D6010E0824202DC00251D600BE082422B
:1015600009DB4500954206DD4D1E002D00DD00E043
:101570000025ADB21D6030BD10B5137BD47A43EAAF
:1015800004231BB28B80947B537B44EA03231BB25E
:101590000B828B898C881B1B1BB2CB81B1F90E305F
:1015A000B3F5805F04DD8B6803F500538B6008E0C2
:1015B000B1F90E3013F5805F03DA8B68A3F50053A1
:1015C0008B60B1F904408B68234400EE103AB8EE0A
:1015D000C00ADFED230A80EE201ABDEEC10A81EDBC
:1015E000000A8B888B8191ED000AB8EEC00ADFED0E
:1015F0000E0A80EE201ABCEEC10A10EE103A1BB2A1
:10160000438010BD500300205403002040030020FD
:101610003C0300203C0500204D0300207406002000
:10162000E4040020340300204D04E941D4060020E6
:1016300094060020B40243422C020020360300200E
:10164000380300206E020020F20200203C0400401B
:101650004A030020440300204803002046030020E2
:1016600000007A4401884FF6FE72914202DA018846
:10167000491C01807047002101807047034602EB3E
:1016800082004000984202DA0120087001E0002048
:101690000870087870474C4931F81010491C8AB21C
:1016A000494921F81020704700200AE0464931F8E6
:1016B00010201A3921F8102000221A3121F81020A8
:1016C000401C0D28F2DB704710B5404800684FF40D
:1016D0007A71B0FBF1F201FB120008B9FFF7E4FFE9
:1016E000002411E03849423901EB4400FFF7BAFF0A
:1016F000354B5C3B33F81420343319191A3B33F85B
:101700001400FFF7BBFF641C0D2CEBDB30480078A6
:10171000012829D12C485C3890F8350001280CD1DB
:101720002A480068B0F5FA6F07D9012029490860F6
:10173000294908800720FEF723FEFEF79AFE0528B8
:1017400012D006240EE020482838005D012808D178
:10175000801E2049086020B21F4908800720FEF73C
:101760000FFE641C0C2CEEDD17485C3890F8360038
:10177000012815D1FEF77DFE012806D0FEF779FE7F
:1017800018B1FEF776FE022803D10320FEF7F8FD1C
:1017900006E0FEF76EFE052802D00320FEF7F0FDFE
:1017A0000E49C97C61B90D49897C49B90B49B1F928
:1017B0000A00002801DB014600E04142032902DD66
:1017C00000200349087010BDB4030020E404002089
:1017D000CE030020D4030020D00300203C050020CD
:1017E0007047DFEDFB0AB0EE600A00EE900AF8EEFB
:1017F000E00A9FEDF81AC0EE811AB0EE610A704758
:10180000DFEDF30AB0EE600A7047B0EE401ADFED8C
:10181000F22AB0EE620ADFEDF12AF4EEE20AF1EE0E
:1018200010FA03DDDFEDED2AF0EE620ADFEDEC2ABF
:10183000F4EEE20AF1EE10FA03D2DFEDE92AF0EE5F
:10184000620ADFEDE82AB4EEE21AF1EE10FA28DDC2
:10185000DFEDE42A31EE623ADFEDDF2AF3EE043AFF
:1018600043EE632AB0EE620AF2EE0E2AB4EEE20A0A
:10187000F1EE10FA02D2F2EE0E2A01E0F0EE402A6A
:10188000B0EE620ADFEDD42AB4EEE20AF1EE10FA0D
:1018900002DDDFEDD12A01E0F0EE402AB0EE620A6F
:1018A00003E0DFEDCD2AB0EE620ADFEDCE2AB4EE22
:1018B000E21AF1EE10FA03DDDFEDCA2AB0EE621A89
:1018C000B2EE0F3AC1EE032A9FEDC73A32EE832AF9
:1018D00060EE821AF4EEC01AF1EE10FA01DDF0EEBD
:1018E000401AF1EE402AF4EEE21AF1EE10FA03D2B9
:1018F000F1EE402AF0EE621AD0ED002A72EEA12A33
:10190000C0ED002A7047B949D1ED000AB6EE001AC1
:1019100020EE811A00EE900AF8EEE00AF6EE001AC8
:1019200000EEA11A81ED001AD1ED000AB2EE041A00
:1019300060EE810AFDEEE00A10EE901A09B2AC4AA0
:101940001180DFEDAC0AB4EEE00AF1EE10FA03DD2F
:10195000DFEDA80AB0EE600ADFEDA70AB4EEE00AF8
:10196000F1EE10FA03D2DFEDA40AB0EE600A2D28E2
:1019700000DD2D2010F12D0F01DA6FF02C009F49B2
:10198000D1ED020AB2EE041A60EE810AFDEEE00A21
:101990009B49C1ED000A9949D1ED020AB2EE041A41
:1019A00060EE810A9249B1F9001001EE101AB8EE0A
:1019B000C11AF7EE001A41EE810A9249C1ED040AFC
:1019C000D1ED040AFDEEE00A10EE901A09B28E4A3B
:1019D00011808C49D1ED050A9FED8C1A60EE810AC9
:1019E00091ED041ADFED8A1A41EE210AC1ED050AD4
:1019F000D1ED050AFDEEE00A10EE901A09B2854A13
:101A000011807E49D1ED010AC1ED020AD1ED000A33
:101A1000C1ED010A81ED000A704710B504460B467E
:101A20007D4890F83900012802D10020754948709E
:101A30007A48007A022806D172484078012802D1FB
:101A40007049087602E000206E4908766D480078FB
:101A5000012809D172480078142808DA7048007803
:101A6000401C6F49087002E000206D490870654A0B
:101A70009288A2F2C62211B2624AB2F90C00FFF7B4
:101A8000BFFE684880ED000A6548007803280FDD36
:101A90006548D0ED0A0AB0EE600A6248D0ED000A4F
:101AA000FDEEE00A10EE900A00B2FFF72CFF04E012
:101AB00000209FED470AFFF726FF594800780A28C3
:101AC00010DA5748007800EE100AF8EE400AB2EE3D
:101AD000041A80EE810A4B48D0ED050A20EE200A58
:101AE00080ED050A4748007E01286FD14549898865
:101AF000A1F2C62108B2FFF774FEF2EE040A20EE4E
:101B0000200A4A48D0ED000AB2EE041A00EE810A1B
:101B100084ED000A3B49C988A1F23A2108B2FFF7D7
:101B200060FEDFED430A20EE200A9FED421AC0EE70
:101B3000010A414890ED000AB8EEC00A30EE600A92
:101B400083ED000A2F488078282815DA2D48807800
:101B500000EE100AB8EE400AF2EE040A80EE201AF7
:101B6000B0EE414A274890ED050AF0EE400AB0EE8B
:101B7000440A2046FFF749FE304890ED000AF2EE95
:101B8000040A20EE200ABDEEC00A10EE100A00B2D0
:101B90002B49088093ED000ADFED2A0AB4EEE00A33
:101BA000F1EE10FA02DD9FED270A01E093ED000A45
:101BB00083ED000A93ED000ADFED230AB4EEE00A9C
:101BC000F1EE10FA42D29FED200A41E04EE0000013
:101BD00000000000EC51F64100008C420000C843B8
:101BE0000000C8C3CDCC4C408FC2753D040400201A
:101BF000F603002000003442000034C2F406002046
:101C0000E8030020E40D0020F80300209A99193F12
:101C1000CDCCCC3EFA030020580300203C05002028
:101C2000F4030020EC030020680B00202C050020AA
:101C3000000000460000B44314000020DC03002034
:101C4000E00300200040CE440000C84293ED000AAB
:101C500083ED000A94ED000AFE48D0ED000AB2EED2
:101C6000041A00EEC10AFC4880ED000A10BD30B530
:101C70002DED108B81B00446B0EE408A9FEDF70A3F
:101C8000B4EEC08AF1EE10FA03DD9FEDF40AB0EE77
:101C9000408A9FEDF30A38EE000AB0EE408A94EDD8
:101CA000000ADFEDF00A30EEC00ADFEDEF0A20EEA9
:101CB00020FA1FEE100A0AF007FB41EC1A0BB0EEF7
:101CC0004A0AF0EE6A0A09F077F8B0EE409AF0EEB0
:101CD000609A51EC190B09F0ABFD08EE900A1FED6C
:101CE000440A8DED000A1FED460AF0EE40FA1FEEA1
:101CF000100A0AF0E9FA41EC1B0B9FEDDC0A68EED2
:101D0000000AB7EE000A08EEE80A20EE800ADFEDCE
:101D1000D80A08EEE00ADFEDD60A80EE201A11EEAE
:101D2000105A28460AF0D0FA41EC1E0BB0EE4E0ACB
:101D3000F0EE6E0A08F064FBB0EE40DAF0EE60DA26
:101D400051EC1D0B09F068FD41EC1C0B53EC1B2BF7
:101D500009F0A0FD41EC1A0B9FEDC60B53EC102BC4
:101D600009F0F2FF41EC190B09F062FD00909DEDC6
:101D7000000ADFEDC20A20EE200AF0EE40FA1FED65
:101D8000540A2FEE800A5FED550A80EE201A9FED6F
:101D9000B50A30EE410A84ED000AB0EE6F0A01B0D8
:101DA000BDEC108B30BD70B52DED068B0446B0EE4A
:101DB000408A00EE104AB8EEC00AC8EE000A10EEE3
:101DC000906A30460AF080FA41EC1A0BB0EE4A0AEB
:101DD000F0EE6A0A08F05CFDB0EE409AF0EE609A10
:101DE00051EC190B09F056FF051E01DB284600E0F7
:101DF000684200EBC00101EB001000EE100AF8EEA3
:101E0000C08AB0EE680ABDEC068B70BD2DE9F041CA
:101E10002DED0A8BB0EE408A04460D460027642162
:101E200004FB01F0C11700EB11710911491D09EE06
:101E3000901A00EE105AB8EEC00ADFED910A80EE5B
:101E4000201A11EE106A30460AF03EFA41EC1C0BE3
:101E5000B0EE4C0AF0EE6C0A08F01AFDB0EE40BA93
:101E6000F0EE60BA9FED870B53EC102B51EC1B0B7F
:101E700009F06AFF09F0DCFC08EE900AB8EEE90A06
:101E800020EE080ADFED810A80EE201AB0EE419ABA
:101E9000202C2FDD292C16DDBDEEC80A10EE100A0D
:101EA000002801DB014600E041424FF47A7202EB68
:101EB0008102A4F1280101EB810102EB011109B2B9
:101EC000734A118055E0BDEEC80A10EE100A0028D2
:101ED00001DB014600E041424FF4167202EB410281
:101EE000A4F1140101EB810102EBC10109B2684ABE
:101EF00011803EE0BDEEC80A10EE100A002801DB9A
:101F0000014600E04142282903DA4FF49670604907
:101F10000880BDEEC80A10EE100A002801DB014659
:101F200000E041423C2904DA4FF4FA705849088035
:101F30001FE0BDEEC80A10EE100A002801DB0146C2
:101F400000E04142822904DA4FF42F7050490880A2
:101F50000FE0BDEEC80A10EE100A002801DB0146B2
:101F600000E041424FF42F7202EB410109B2484AAE
:101F70001180282C00DD2824B2EE040A28EE800A05
:101F8000BDEEC00A10EE100A00B242490880B2EE5F
:101F9000040A29EE000ABDEEC00A10EE100A00B2D3
:101FA0003D49088039EE280AF2EE040A20EE200AA4
:101FB000BDEEC00A10EE100A00B2384908809FED4D
:101FC000380A2046FFF7EFFE79EE280AFDEEE00A18
:101FD00010EE906A002E01DB304600E0704200EE09
:101FE000900AF8EEE00AB4EEE00AF1EE10FA6ADDCB
:101FF0002C480078401C2B4908700846007832288D
:1020000001DD322008702748007802285EDD26496D
:10201000D1ED030A91ED000AB8EEC00A30EEC00A15
:10202000BDEEC00A10EE100A002801DB014600E0F8
:10203000414217294ADA1D4991F83910D1BB1C4990
:1020400091ED050ABDEEC00A10EE100A002832DB41
:10205000014631E02C050020E40300203333934097
:102060009A99193E0040A6448010493ACDCC1C41B3
:1020700000407043000000000000E03F3333654241
:1020800066E6E7440000006066A64C4000401C463F
:102090000204002000040020FE030020FC030020B6
:1020A0003333B33E080400201400002058030020FE
:1020B000E40D002006E04142B1F5CD7F06DA2E2C7A
:1020C00004DC012702E00020264908703846BDECF8
:1020D0000A8BBDE8F08110B52348007E012811D19C
:1020E000214A9288A2F2C62211B21F4A9078D2EDFC
:1020F000040AB0EE600AFFF789FE012800D110BD86
:102100000020FCE70020FAE70022184890F8390088
:1021100028BB154BDB88A3F23A21002901DB0B46D3
:1021200000E04B421E2B1BDA0F4B9B88A3F2C6200C
:10213000002801DB034600E04342052B10DA0A4980
:1021400091ED040ABDEEC00A10EE100A002801DB72
:10215000014600E04142282902DA012200E0002283
:102160001046704708040020E40D002058030020AA
:10217000282801DA282200E00246104640F65A22BA
:10218000904200DD00E0024610462F4AB2F90020DE
:10219000904208D12C4A1288821AC8235A4312B29C
:1021A0002A4B1A804EE0284AB2F90020904220DDE6
:1021B000254A1288821AC8235A4312B2234B1A8026
:1021C0001A46B2F90020322A01DA322202E01F4A0E
:1021D000B2F900201D4B1A801A46B2F900208A423B
:1021E00001DD0A4602E0194AB2F90020174B1A80B5
:1021F00028E0154AB2F90020904223DA124A1288E8
:10220000821AC8235A4312B2104B1A801A46B2F9E6
:10221000002012F1320F02DD6FF0310202E00B4AB2
:10222000B2F90020094B1A801A46B2F900204B423D
:102230009A4201DA4A4202E0044AB2F9002012B29C
:10224000024B1A8070470000D40500201A020020BB
:1022500010B52D480078022854D12C4800682C492C
:102260000968401A07284DD32848006828490860A3
:1022700028480068401C2749086027482749096802
:1022800001602749496841602548007A00122249C7
:1022900048722348007A08722248008800EB8001C7
:1022A000214800EB41001C490A6802604A6842600C
:1022B000098901811B480088401C1A49088008468A
:1022C000008804281EDB1948007817490F39487325
:1022D00016480078401C15490870084600783928CF
:1022E00001DD3020087010481C3011A10A68C2605E
:1022F000097901743C212B3800F0DDFF00200949E9
:102300000880088010BD000056050020E40400206D
:10231000540400204C040020000700202402002068
:102320004C0D0020500400201B0400205804002005
:102330003B23454E44000000102806D141F288316D
:10234000284A91604942D1601EE0152806D141F229
:102350007071244A91604942D16015E0192806D174
:1023600041F658311F4A91604942D1600CE01C2867
:1023700006D14FF4FA511B4A91604942D16003E003
:102380000021184A9160D160704710B5154890ED52
:10239000001AB8EEC11AF0EE410A90ED021AB8EE3A
:1023A000C11AB0EE410A104806F0A2FEBDEEC00A06
:1023B0000C4880ED080A90ED011AB8EEC11AF0EE53
:1023C000410A90ED031AB8EEC11AB0EE410A064870
:1023D000423006F08DFEBDEEC00A024880ED090ACB
:1023E00010BD00000C0700205904002010B5152076
:1023F000FFF7A2FF1748007820B1012825D0022856
:1024000025D123E014480078012810D14FF402713F
:1024100040F65A20FFF7ACFE1048B0F9000040F635
:102420004621884210DD00200B4908700CE04FF473
:1024300002712820FFF79CFE0848B0F900003C28F4
:1024400002DA01200449087002E001E000E000BF68
:1024500000BF10BDDE040020DD040020D4050020F4
:1024600010B54FF4A06001F04BFDA82000F07EF9FC
:1024700000F056FA00F0FCF900F0E5FA642000F0F4
:10248000D7F9002000F000FB012000F0FDFA022047
:1024900000F0FAFA032000F0F7FA00F041F800F03B
:1024A000D1F804F030FE4FF4FA6000F0C1F90021D9
:1024B000084600F010FC04462146092000F0B4FB59
:1024C00000F0FEFA00F02AFC114800F045FD11482A
:1024D00000F0F2FD00F0A0FE4FF4E13001F0B4F99D
:1024E0004FF47A3001F0B8FA0B4801F02BFB00F002
:1024F00073FC05F092F800F0D9FC4FF47A7000F00C
:1025000097F900F0F5FC01200449087010BD0000A7
:10251000A086010040420F0000CA0800DF0400202E
:1025200000B58BB00121082002F04DFF01214806C3
:1025300002F090FF0121480602F0E1FF00214FF078
:10254000007002F0DCFF0320099002208DF82800C3
:1025500000208DF82A0003208DF8290001208DF835
:102560002B0009A9354802F08DFC092200213348CF
:1025700002F013FD09220121304802F00EFD002077
:102580008DF81E0001208DF81F0000208DF820001E
:102590008DF821008DF822008DF823008DF81A00A7
:1025A0008DF81B0005208DF81C0001208DF81D0002
:1025B0000520ADF8180006A9214801F02AFD0020E9
:1025C0008DF812008DF8130001208DF81400002002
:1025D000ADF80800ADF80A00ADF80C00ADF80E003B
:1025E000ADF8100001208DF8150002A801F09BFD48
:1025F00001220221124802F095F814208DF80400FF
:1026000001208DF8050000208DF8060001208DF8CE
:10261000070001A801F079FC0BB000BD00B585B042
:102620000221074802F0E6F830B10221044802F026
:102630007CF9684604F0DEFA05B000BD000C0240EB
:102640000064004000B58BB00121022002F0BBFE07
:102650000121880602F0FEFE0121880602F04FFFEC
:1026600000214FF0806002F04AFF4FF44050099083
:1026700002208DF8280000208DF82A0003208DF814
:10268000290001208DF82B0009A9364802F0FAFB39
:1026900009220C21334802F080FC09220D21314827
:1026A00002F07BFC00208DF81E0001208DF81F0039
:1026B00000208DF820008DF821008DF822008DF883
:1026C00023008DF81A008DF81B0005208DF81C00E2
:1026D00001208DF81D000520ADF8180006A922483C
:1026E00001F097FC0E208DF8120000208DF81300E9
:1026F00001208DF814000020ADF80800ADF80A00A4
:10270000ADF80C00ADF80E00ADF8100001208DF80A
:10271000150002A801F007FD01220221124802F073
:1027200001F840208DF8040001208DF805000020FC
:102730008DF8060001208DF8070001A801F0E5FBE7
:102740000BB000BD00B585B00221074802F052F879
:1027500030B10221044802F0E8F8684604F041FC78
:1027600005B000BD000402400068004010B50446FA
:102770006FF0040001F016FCE11704EB5171C1F396
:10278000C701394A11701046007800EB4001C1EBD7
:10279000C0104FF6FF7101EAC0003449088010BD37
:1027A0000146314A12784A434FF0E0235A61002231
:1027B0009A611A46126942F001021A6100BF4FF095
:1027C000E022106900F001021AB100F48032002A00
:1027D000F5D04FF0E022126922F001024FF0E02321
:1027E0001A6100229A6170470146204A12884A43C2
:1027F0004FF0E0235A6100229A611A46126942F0B2
:1028000001021A6100BF4FF0E022106900F00102DE
:102810001AB100F48032002AF5D04FF0E02212699C
:1028200022F001024FF0E0231A6100229A61704702
:1028300070B504464FF4077094FBF0F0C6B24FF445
:10284000077094FBF0F100FB114085B205E04FF4F6
:102850000770FFF7C9FF701EC6B2002EF7D115B181
:102860002846FFF7C1FF70BDE0040020E20400200D
:102870001CB50121402002F0A6FD4FF4005000904D
:1028800001208DF8040000208DF8060003208DF84B
:1028900005006946044802F0F5FA4FF40051024879
:1028A00002F06EFB1CBD0000001802401CB50121A7
:1028B000402002F088FD4FF4FF70009001208DF859
:1028C000040000208DF8060003208DF8050001208B
:1028D0008DF8070069464F4802F0D4FA02214D48AE
:1028E00002F04CFB04214B4802F048FB0821494808
:1028F00002F044FB1021474802F040FB20214548EC
:1029000002F03CFB4021434802F038FB8021414863
:1029100002F034FB4FF480713E4802F02FFB1CBDE7
:102920001CB50121102002F04EFD0121202002F0F3
:102930004AFD4FF40060009001208DF80400002053
:102940008DF8060003208DF8050001208DF80700A2
:102950006946314802F096FA4FF480400090012019
:102960008DF8040000208DF8060003208DF8050086
:1029700001208DF807006946284802F083FA0120FB
:102980002749086000202749C1F8AC02FFF78EFFF5
:102990001CBD10B5014601200AE0421E41FA02F2B8
:1029A00002F00102204C04EB8003C3F88022401C9B
:1029B0000928F2DB10BD30B504460025082C01DDE6
:1029C000082000E02046044614F1080F02DA6FF0F8
:1029D000070000E020460446002C09DB002004E04C
:1029E000012181402943CDB2401CA042F8DB0BE01D
:1029F000002006E0C0F10802012191402943CDB238
:102A0000401C61428842F5DBE843C5B22846FFF727
:102A1000C0FF30BD00180240001002400014024008
:102A2000B8824242000042420000434210B50446D0
:102A3000032C00DD10BD0420A04081B21F4802F02D
:102A40009FFA00BFF6E71CB50121802002F0BBFC15
:102A50003C20009001208DF8040000208DF8060035
:102A600003208DF8050001208DF807006946134802
:102A700002F008FA002404E02046FFF7D7FF601CAC
:102A8000C4B2042CF8DB1CBD10B50446032C00DDD9
:102A900010BD0420A04081B2084802F06FFA00BFC8
:102AA000F6E710B50446032C00DD10BD0420A0405D
:102AB00081B2024802F06DFA00BFF6E7001C024046
:102AC00000B58BB00121802002F07DFC01210802BD
:102AD00002F079FC0121082002F0BCFC4FF4E05028
:102AE000099002208DF8280003208DF8290009A9FB
:102AF000474802F0C7F90120099002208DF828000C
:102B000003208DF8290009A9424802F0BBF90222EE
:102B10000A213F4802F041FA02220B213C4802F010
:102B20003CFA02220C213A4802F037FA0222002134
:102B3000384802F032FA5320ADF818000020ADF802
:102B40001A0044F6206007900020ADF820005320C2
:102B5000ADF818000020ADF81A0044F62060079088
:102B60000020ADF8200006A92B4803F06CF8702077
:102B7000ADF804000120ADF806000020ADF8080013
:102B80004FF47A7003900220ADF810000020ADF8E9
:102B90001200ADF814004FF48070ADF816004FF439
:102BA0007A70039001A91C4803F0E2F801A91A48C1
:102BB00003F017F901A9184803F060F901A91648B4
:102BC00003F0C2F90821144803F05FFA0821124803
:102BD00003F064FA0821104803F06DFA08210E484A
:102BE00003F072FA01210C4803F098F801210A4819
:102BF00003F0B2F84FF47A70074934310860091DC8
:102C00000860091D0860091D08600BB000BD0000C8
:102C1000001C024000200240000C004010B50021C2
:102C20003A4803F0FEF910BD30B58BB004460D46AE
:102C30000121402002F00EFC0121802002F0C3FBA4
:102C40000121402002F05BFC0021402002F057FCF3
:102C5000092206212E4802F0A0F940200990022006
:102C60008DF8280003208DF8290000208DF82A0017
:102C700002208DF82B0009A9254802F003F96020F5
:102C8000ADF804000120ADF806000020ADF81000FA
:102C900001A91E4803F06CF808211C4803F0F5F95F
:102CA00001211A4803F03AF8681E0790601E80B2AE
:102CB000ADF818000020ADF81A00ADF8200006A904
:102CC000124802F0C0FF0121104803F045F8FFF759
:102CD000A5FF0BB030BD10B5024643F6BD600D4BED
:102CE00003EB021333F811300B4C94FBF3F398B25F
:102CF00010BD064A28321080121D1160704710B5B1
:102D000004462146014803F08CF910BD001800402C
:102D1000001C024048CA0008802C800000B58BB01F
:102D20000121022002F04FFB2020099002208DF8A3
:102D3000280003208DF8290000208DF82A000120AA
:102D40008DF82B0009A9224802F09CF802220521E7
:102D50001F4802F022F90121022002F07BFB002033
:102D6000ADF82000ADF81A0044F61F60079053201C
:102D7000ADF8180000208DF8220006A9154802F0D1
:102D800062FF6020ADF804000120ADF806000020CD
:102D90000390ADF8100001A90E4803F022F80121BC
:102DA0000C4803F07BF901210A4802F0B7FF01212A
:102DB000084803F0C2FB0BB000BD44F6206242435A
:102DC00044F6206392FBF3F1024A383211607047F7
:102DD000000402400004004000B587B0012120201B
:102DE00002F0F1FA0121080502F045FB4FF4607092
:102DF000059002208DF8180000208DF81A0001209F
:102E00008DF81B0003208DF8190005A9254802F054
:102E100039F805220721234802F0BFF805220821CE
:102E2000204802F0BAF8052209211E4802F0B5F840
:102E30004020059001208DF8180000208DF81A0020
:102E400001208DF81B0003208DF8190005A91548F5
:102E500002F018F84021134802F090F84FF4827005
:102E6000ADF802000020ADF80400ADF800004FF40A
:102E70000070ADF80A000020ADF80E00ADF80800B3
:102E8000ADF806002020ADF80C000A20ADF81000C7
:102E90006946054802F036FC0121034802F02CFD8A
:102EA00007B000BD00140240005001401FB50121D1
:102EB000102002F0CFFA36208DF8000001208DF8A6
:102EC00001008DF802008DF80300684601F01DF83E
:102ED0005320ADF804000020ADF80600ADF80C005A
:102EE0004FF47A70029001A9194802F0ACFE1FBDA0
:102EF00010B50121164802F02FFF01221146144897
:102F000003F042FB0121124803F052FB10BD10B543
:102F100001210F4803F04FFBC0B101210C4803F021
:102F20005BFB01210A4803F043FBFDF783FC0948E2
:102F30000068401C07490860084600686421B0FB2F
:102F4000F1F201FB120008B9FDF7CCFC10BD000046
:102F500000100040E404002010B596B004460121A2
:102F6000022002F030FA0121102002F084FA072238
:102F700011464A4802F011F814A801F0CBFF802056
:102F8000149002208DF8540001208DF85700022083
:102F90008DF8550000208DF8560014A93F4801F027
:102FA00071FF3F4803F0F4FB10A803F0BEFC3D485E
:102FB00010900020ADF84400ADF846004FF480605A
:102FC000ADF848000420ADF84A000020ADF84C00F0
:102FD00010A9334803F043FC0121314803F0C7FC3A
:102FE000012240212E4803F06FFD2F4801F0F0FC34
:102FF0000121880502F0E7F94FF0006000902848B1
:10300000001D019029480290002003901220049096
:10301000002005904FF480600690002007900890F3
:103020004FF4807009904FF440300A9000200B90CC
:103030000C900D900E9069461B4801F06BFD01222B
:103040001021194801F02DFE0121174801F09CFDC7
:103050003A208DF83C0000208DF83D008DF83E00B0
:1030600001208DF83F000FA800F04FFF16B010BDF3
:1030700010B50F490C4801F031FE70B14FF081518D
:10308000094801F0FAFD0A49074801F051FE0748D6
:1030900004F024FE0748FEF7EEFA10BD00040240DB
:1030A00000100140A0860100406402403407002067
:1030B000008020107603002010B596B00446012150
:1030C000082002F080F90121480502F07CF9012175
:1030D000480402F0BFF9FB4803F05AFB0121F9480C
:1030E00003F059FC07220521F74801F056FF07229B
:1030F0000621F54801F051FF6020149002208DF860
:10310000540000208DF8560003208DF85500002053
:103110008DF8570014A9EC4801F0B4FE26208DF874
:103120003C0002208DF83D0001208DF83E008DF816
:103130003F000FA800F0E9FE10A803F0F6FB109482
:103140000020ADF84400ADF84600ADF848000C2072
:10315000ADF84A000020ADF84C0010A9D94803F0A2
:103160007EFB012240F22441D64803F0B6FC012246
:103170004021D44803F0A8FC0021D24803F0F7FB1B
:10318000D24801F025FC4FF000600090CD48001DB2
:103190000190CF480290002003906420049000200A
:1031A00005904FF4806006900020079008900990E9
:1031B0004FF480300A9000200B900C900D900E90F0
:1031C0006946C248603001F0A5FC10208DF83C0033
:1031D00002208DF83D0001208DF83E008DF83F0063
:1031E0000FA800F092FE01221021B848603001F0D3
:1031F00058FD0022B6496431B448603001F0EBFC60
:103200000121B248603001F0F2FC0121AF4860308A
:1032100001F0BAFC16B010BD00B591B0012148050F
:1032200002F0D1F8A948783001F0D2FB4FF00060ED
:103230000190A448001D0290A648039040200490ED
:103240004FF4C8700590002006904FF480600790FE
:103250000020089009900A904FF400300B90002055
:103260000C9001200D9000200E900F9001A997481E
:10327000783001F04FFC012210219448783001F0A1
:1032800010FD012280218F4803F01EFC11208DF8D3
:10329000400002208DF8410001208DF842008DF899
:1032A000430010A800F031FE00218848783001F07A
:1032B0006BFC11B000BD70B504460D4600BF8648DA
:1032C00000780028FBD10120834908702A46214656
:1032D000804806F07EFE29467C48783001F075FC77
:1032E00001217A48783001F04FFC70BD10B57B4960
:1032F0007648783001F0F2FC78B17849734878303C
:1033000001F0BBFC00217148783001F03DFC012246
:1033100040F226616B4803F0E0FB10BD10B540F2AF
:103320002771684803F014FC40B9002240F226617E
:10333000644803F0D2FB00206749087010BD0146C5
:10334000B1F8C800B1F8CA20904201D1C720704737
:10335000B1F8CA00B1F8C820801A012806D0B1F827
:10336000CA00B1F8C820801AC73008B90020EEE7BB
:10337000B1F8CA00B1F8C820801A401E002806D44F
:10338000B1F8CA00B1F8C820801A401E05E0B1F8B3
:10339000CA00B1F8C820801AC73080B2D7E72DE93B
:1033A000F04104460F4615462046FFF7C8FFA842E5
:1033B00027DB002D25DDB4F8C8002844C8280CDA26
:1033C000B4F8C81008192A46394606F002FEB4F8C7
:1033D000C8002844A4F8C80016E0B4F8C800C0F13A
:1033E000C806B4F8C81008193246394606F0F1FD8F
:1033F000AA1BB919204606F0ECFDA81BA4F8C800CA
:1034000002E00020BDE8F0810120FBE710B540F2AA
:1034100024412C4803F09CFB002852D00120304965
:10342000A1F8CE00274800882648001D00882748BC
:10343000603001F0ECFBE0BB00202A49087000225C
:1034400010212248603001F02CFC00211F48603020
:1034500001F09AFB24491D48603001F069FC1B48CB
:10346000603001F0B4FBC0F16400204908606420C2
:1034700016496431086015482838D0F8880040F4AF
:10348000002012492839C1F888001848008882B203
:103490001448007800EBC00303EB00100C4B03EB67
:1034A00080010F48FFF77BFF0122102107486030A1
:1034B00000E01DE001F0F5FB01210448603001F05F
:1034C00063FB52E000440040000C024028600240D0
:1034D0004E070020E6080020E8040020008020209D
:1034E00016080020E904002000880020EC040020D9
:1034F0000120CE49087000221021CD4801F0D1FBF7
:103500000021CB4801F040FBCA49C94801F010FC3A
:10351000C74801F05CFBC0F16400C7490860642043
:10352000C349091D0860C2488838D0F8880020F4D3
:103530000020BF498839C1F88800BF48008882B29E
:10354000BA48007800EBC00303EB0010BB4B03EB61
:103550008001BB48FFF723FF01221021B44801F08E
:10356000A0FB0121B24801F00FFB10BD10B5FFF721
:10357000D5FEFFF74BFF10BD10B5AE49AC4801F0CA
:10358000ADFBF0B1AB49AA4801F077FBA84801F0C8
:103590003EFB08B9012000E00020A4490870A948BA
:1035A0000088A848001D00880846007800EBC0028B
:1035B00002EB0010A14A02EB80016422A048FFF751
:1035C000EEFE10BD0146B1F8C800B1F8CA20904225
:1035D00001D100207047B1F8CA00B1F8C820801AA4
:1035E000012806D0B1F8CA00B1F8C820801AC73047
:1035F00008B9C720EEE7B1F8C800B1F8CA20801AB0
:1036000005D4B1F8C800B1F8CA20801A05E0B1F8B5
:10361000C800B1F8CA20801AC83080B2DAE72DE9B4
:10362000F04107460C4615462046FFF7CBFFA8425F
:1036300027DB002D25DDB4F8CA002844C8280CDAA1
:10364000B4F8CA0001192A46384606F0C2FCB4F89C
:10365000CA002844A4F8CA0016E0B4F8CA00C0F1B1
:10366000C806B4F8CA0001193246384606F0B1FC63
:10367000AA1B2146384606F0ACFCA81BA4F8CA00D9
:1036800002E00020BDE8F0810120FBE730B50346F1
:1036900001241846FFF796FFA0421CDB002C1ADD20
:1036A000B3F8CA002044C82808DAB3F8CA001D5C81
:1036B000B3F8CA002044A3F8CA000AE0B3F8CA105D
:1036C000C1F1C800B3F8CA105D5C211AA3F8CA1092
:1036D00000BF284630BD0020FCE72DE9F041074639
:1036E0000C462046FFF76EFF0546002D25DDB4F899
:1036F000CA002844C8280CDAB4F8CA0001192A46BE
:10370000384606F066FCB4F8CA002844A4F8CA009B
:1037100016E0B4F8CA00C0F1C806B4F8CA0001192E
:103720003246384606F055FCAA1B2146384606F0BC
:1037300050FCA81BA4F8CA0002E00020BDE8F081FC
:103740000120FBE72DE9F04781460D4617461C4650
:103750002846FFF737FF3919884221DB002C1FDD8F
:10376000B5F8CA003844C82190FBF1F201FB1206FB
:103770003019C82805D2A9192246484606F029FC66
:103780000DE0C6F1C808A9194246484606F021FCDA
:10379000A4EB08022946484606F01BFC00BF02E0E5
:1037A0000020BDE8F0870120FBE770B503460C461A
:1037B00001251846FFF706FF611988420BDB002D33
:1037C00009DDB3F8CA002044C82290FBF2F602FBE0
:1037D0001601585C70BD0020FCE710B503460C468E
:1037E0001846FFF7EFFEA04214DB002C12DDB3F801
:1037F000CA002044C82805DAB3F8CA002044A3F858
:10380000CA0009E0B3F8CA10C1F1C800211AA3F830
:10381000CA1001E0002010BD0120FCE7002008498B
:10382000A1F8C800A1F8CA0070470000E904002010
:103830008860024000880020EC0400204E07002031
:10384000160800200044004010B596B0044601213F
:10385000082001F0B8FD0121480501F0B4FD012167
:10386000880401F0F7FD764802F092FF0722082154
:10387000744801F092FB07220921724801F08DFB88
:103880004FF48070149002208DF8540000208DF8C1
:10389000560003208DF8550000208DF8570014A91C
:1038A000684801F0EFFA4FF40070149002208DF890
:1038B000540001208DF8560003208DF8550001209A
:1038C0008DF8570014A95F4801F0DCFA27208DF825
:1038D0003C0002208DF83D0001208DF83E008DF85F
:1038E0003F000FA800F011FB10A803F01EF8109481
:1038F0000020ADF84400ADF84600ADF848000C20BB
:10390000ADF84A000020ADF84C0010A94C4802F078
:10391000A6FF012240F22441494803F0DEF80122CB
:103920004021474803F0D0F80121454803F01FF833
:10393000454801F04DF84FF0006000904048001DF0
:1039400001904248029000200390642004900020DF
:1039500005904FF480600690002007900890099031
:103960004FF480300A9000200B900C900D900E9038
:103970006946354801F0CEF80022344964313248B6
:1039800001F029F90121304801F031F901212E48D7
:1039900001F0FAF816B010BD10B540F224412848E5
:1039A00003F0D6F800284AD0254800882448001D96
:1039B0000088254801F02BF900BB0020244908703D
:1039C0000021214801F0E0F81F4801F000F9C0F1A2
:1039D00064002049086064201B492839C8620846F1
:1039E000806A40F4002088620121174801F0CCF879
:1039F00018480178154805F0E5F920E00120144940
:103A000008700021104801F0BFF80F4801F0DFF8FE
:103A1000C0F164000F49086064200B492839C8626E
:103A20000846806A20F4002088620121064801F0DF
:103A3000ABF8084801780548643005F0C3F910BDBB
:103A400000480040000C024028600240760A002036
:103A5000F2040020F404002010B588B004460121CF
:103A6000402001F0B0FC0121202001F004FD0822DB
:103A70000921314801F091FA08220E212E4801F067
:103A80008CFA4FF48440069002208DF81C00002030
:103A90008DF81E0003208DF81D0000208DF81F00FA
:103AA00006A9254801F0EEF9244802F071FE02A8AB
:103AB00002F03BFF02940020ADF80C00ADF80E00C0
:103AC000ADF810000C20ADF812000020ADF8140085
:103AD00002A91A4802F0C3FE47208DF80400022014
:103AE0008DF8050001208DF806008DF8070001A86B
:103AF00000F00BFA012240F22551104802F0EDFFD0
:103B000001210E4802F033FF08B010BD10B540F29D
:103B100025510A4803F01CF868B1084802F056FF26
:103B2000074908700846007805F09DFA03480088A8
:103B30000248001D008810BD00180240001401401A
:103B4000F804002010B588B004460121102001F0CF
:103B50003AFC0121880701F07DFC082207213C483E
:103B600001F01BFA08221146394801F016FA8020AC
:103B7000069002208DF81C0000208DF81E00032006
:103B80008DF81D0000208DF81F0006A9304801F0B7
:103B900079F94FF48070069002208DF81C00002007
:103BA0008DF81E0003208DF81D0000208DF81F00E9
:103BB00006A9274801F066F9264802F0E9FD02A8A7
:103BC00002F0B3FE02940020ADF80C00ADF80E0038
:103BD000ADF810000C20ADF812000020ADF8140074
:103BE00002A91C4802F03BFE52208DF8040001207F
:103BF0008DF805008DF806008DF8070001A800F08B
:103C000084F9012240F22551124802F066FF012199
:103C1000104802F0ACFE08B010BD10B540F22551BE
:103C20000C4802F095FF90B10A4802F0CFFE0A4915
:103C300008700846007805F0ADF908480068401C97
:103C400006490860034800880248001D008810BD2E
:103C5000001002400078004000050020FC04002015
:103C6000704700BFFEE700BFFEE700BFFEE700BFF2
:103C7000FEE7704770477047704700000CB50020A2
:103C8000019000908348006840F4803081490860CA
:103C900000BF8048006800F4003000900198401C8C
:103CA0000190009818B90198B0F5A04FF1D179486A
:103CB000006800F4003010B10120009001E0002005
:103CC00000900098012860D172484030006840F0B0
:103CD00080507049403108606F48006840F44040AF
:103CE0006D4908606B48083000686A49083108600F
:103CF0000846006840F4004008600846006840F448
:103D0000A05008606548091F0860081F006840F05F
:103D10008070091F086000BF5E48006800F00070F6
:103D20000028F9D05C48006840F480305A490860A7
:103D300000BF5948406800F480300028F9D0564848
:103D4000006840F400305449086000BF52484068A1
:103D500000F400300028F9D040F2057050490860A6
:103D60004C480830006820F003004A4908310860D8
:103D70000846006840F00200086000BF454808306F
:103D8000006800F00C000828F8D10CBD10B54548BB
:103D9000006840F47000434908603E48006840F005
:103DA00001003C49086000203A4908310860394860
:103DB00000683D490840374908603C48091D0860D3
:103DC000081F006820F48020091F08600020314986
:103DD0000C310860FFF752FF4FF000603149803925
:103DE000086010BD70B500200022022300240221CB
:103DF000284D08352D6805F00C0020B1042806D0A8
:103E0000082834D107E02A4D2A4E356033E02A4D88
:103E1000284E35602FE01F4D2D1D2D68C5F38054B1
:103E20001C4D2D1D2D6805F03F0154B1224DB5FBF1
:103E3000F1F5184E361D3668C6F3881605FB06F2F6
:103E400009E01B4DB5FBF1F5124E361D3668C6F381
:103E5000881605FB06F20F4D2D1D2D68C5F3014593
:103E60006D1C6B00B2FBF3F5124E356003E0104D94
:103E7000104E356000BF00BF064D08352D68C5F3F4
:103E800003150E4E705D0B4D2D68C540094E356013
:103E900070BD000000380240007000400C5A40071E
:103EA000003C024088ED00E0FFFFF6FE10300024E9
:103EB0000024F40004050020001BB70008050020C2
:103EC0000948804709480047FEE7FEE7FEE7FEE7AE
:103ED000FEE7FEE7FEE7FEE7FEE7FEE704480549EA
:103EE000054A064B704700008D3D0008AD010008F3
:103EF000980E0020981400209810002098100020A0
:103F000032490143324A1160704770B500210023E5
:103F10000F22C4781CB32E4C246804F4E064C4F56A
:103F2000E064C4F30721C1F10404E3B20A41447818
:103F30009C40E1B28478144021430C07210E254CAB
:103F400005786155047804F01F050124AC4005781C
:103F50006D11AD0005F1E025C5F8004109E00478D8
:103F600004F01F050124AC401B4D0678761145F87E
:103F7000264070BD194A0A400243154B1B1F1A60A8
:103F8000704739B1124A121D12680243104B1B1DB3
:103F90001A6006E00E4A121D126882430C4B1B1D6C
:103FA0001A607047042808D14FF0E021096941F0F8
:103FB00004014FF0E022116107E04FF0E0210969B0
:103FC00021F004014FF0E022116170470000FA0572
:103FD0000CED00E000E400E080E100E080FFFF1F66
:103FE00010B50446FE48844209D10121480601F07B
:103FF00086FA00214FF0007001F081FA08E00121FB
:10400000880601F07CFA00214FF0806001F077FA19
:1040100010BD30B5024600200023146824F00204CD
:104020001460146844F00104146000E05B1C5468E0
:1040300004F001041CB94FF6FF74A342F6D1546892
:1040400004F001040CB900206CE08C79012C04D13F
:10405000146844F08004146003E0146824F08004C1
:104060001460CC79012C04D1146844F0400414602D
:1040700003E0146824F0400414600C7A012C04D18D
:10408000146844F02004146003E0146824F0200451
:1040900014604C7A012C04D1146844F010041460AC
:1040A00003E0146824F0100414608C7A012C04D10D
:1040B000146844F00804146003E0146824F0080451
:1040C0001460CC7A012C04D1146844F00404146008
:1040D00003E0146824F0040414608C78A407CD78FD
:1040E00044EA05640D7944EA05444D7944EA0554EF
:1040F0000D886D1E2C43D461146824F001041460F3
:10410000002300E05B1C546804F001041CB14FF66E
:10411000FF74A342F6D1546804F001040CB10020EE
:1041200000E0012030BD10B50021837A012202FA9F
:1041300003F1AC4A126842F00102AA4B1A60A94A84
:104140001C3212688A43A74B1C331A60027BCAB91F
:10415000A44A0C3212688A43A24B0C331A6042887C
:10416000C38842EA03439F4A4032847A42F834309B
:104170000288838842EA03439A4A4032847A02EBF7
:10418000C4025360027B012A19D1964A0C3212688C
:104190000A43944B0C331A604288038842EA034373
:1041A000904A4032847A42F83430C288838842EAA6
:1041B00003438C4A4032847A02EBC4025360C27AD1
:1041C0003AB9884A121D12688A43864B1B1D1A6031
:1041D00006E0844A121D12680A43824B1B1D1A60B6
:1041E000028932B97F4A143212688A437D4B1433F4
:1041F0001A600289012A06D17A4A143212680A43E7
:10420000784B14331A60427B012A06D1754A1C325E
:1042100012680A43734B1C331A60724A126822F008
:104220000102704B1A6010BD00218171C1710172D1
:1042300041728172C1728170C170032101710221CA
:1042400041710121018070476649096841F001010F
:10425000644A11601146096843F60E729143614A3F
:1042600011601146096841EA002111601146096890
:1042700021F001011160704721B1026842F48032DF
:10428000026003E0026822F4803202607047E1B10C
:10429000026842F0800202604FF4C272125842F487
:1042A00080734FF4C27213504FF4CA72125842F422
:1042B00080734FF4CA7213504FF4D272125842F402
:1042C00080734FF4D27213501BE0026822F0800218
:1042D00002604FF4C272125822F480734FF4C2721B
:1042E00013504FF4CA72125822F480734FF4CA72FA
:1042F00013504FF4D272125822F480734FF4D272DA
:104300001350704710B502460020936803F0806395
:10431000B3F1806F00D110E0936803F00063B3F154
:10432000006F01D1012008E0936803F08053B3F1DE
:10433000805F01D1022000E00420042879D002F53A
:10434000C07303EB00131B6803F0010402F5C07394
:1043500003EB00131C600B7A7BB94B7A0C8843EAA1
:10436000445302F5C07404EB00142468234302F59F
:10437000C07404EB0014236010E00B7A4C6843EA2D
:10438000C4034C7A234302F5C07404EB0014246880
:10439000234302F5C07404EB001423608B7A03F00E
:1043A0000F038B7202F5C07303EB00135B6823F0FD
:1043B0000F0402F5C07303EB00135C6002F5C073D9
:1043C00003EB00135B688C7A234302F5C07404EBA3
:1043D000001463608B7B1C064B7B44EA034403E0C0
:1043E00000640040006600400B7B44EA0323CC7A63
:1043F000234302F5C07404EB0014A3608B7C1C06FD
:104400004B7C44EA03440B7C44EA0323CC7B2343E8
:1044100002F5C07404EB0014E36002F5C07303EB13
:1044200000131B6843F0010402F5C07303EB001393
:104430001C6010BD10B50246002321B1012907D030
:1044400002290FD109E09068F94C00EA04030BE05F
:104450009068F84C00EA040306E09068F64C00EA25
:10446000040301E0002300BF00BFF44C181BA3426B
:1044700016D007DC83B16FF08060184470B1022859
:1044800018D111E0B0F5007F10D0ED4C204448B1B8
:10449000B0F5003F0ED10BE002230DE000230BE04E
:1044A000002309E0002307E0012305E0012303E0E6
:1044B000012301E0002300BF00BFD8B210BD21B12D
:1044C000012907D002290FD109E0826842F0800259
:1044D00082600AE0826842F40042826005E08268FD
:1044E00042F40002826000E000BF00BF704710B5D8
:1044F00000F5D87303EB01131B6803F00403137278
:10450000137A53B900F5D87303EB01131B6840F21B
:10451000FF7404EA5353136009E000F5D87303EB0A
:1045200001131B686FF0604404EAD303536000F585
:10453000D87303EB01131B6803F00203537200F5F9
:10454000D87303EB01135B6803F00F03937200F55C
:10455000D87303EB01135B681B0AD37400F5D8739F
:1045600003EB01139B68D37200F5D87303EB0113BF
:104570009B681C0A147300F5D87303EB01139B6846
:104580001C0C547300F5D87303EB01139B681B0ECE
:10459000937300F5D87303EB0113DB68D37300F555
:1045A000D87303EB0113DB681C0A147400F5D8738D
:1045B00003EB0113DB681C0C547400F5D87303EB98
:1045C0000113DB681B0E937421B9C36843F0200309
:1045D000C36003E0036943F02003036110BD21B908
:1045E000C26842F02002C26003E0026942F0200289
:1045F000026170470246002019B9D36803F0030036
:1046000006E0012903D1136903F0030000E0002054
:10461000704710B502460B4600204FF6FF71BBB93C
:10462000146824F0020444F00104146000E0491E00
:10463000546804F00304012C01D00029F7D1546818
:1046400004F00304012C01D0002032E0012030E00E
:10465000012B13D1146824F00304146000E0491EF8
:10466000546804F003040CB10029F8D1546804F034
:1046700003040CB100201CE001201AE0022B17D12A
:10468000146824F0010444F00204146000E0491EA0
:10469000546804F00304022C01D00029F7D15468B7
:1046A00004F00304022C01D0002002E0012000E00D
:1046B000002010BD014600200A6822F0010242F0ED
:1046C00002020A604A6802F00302022A00D10120B5
:1046D000704701464FF6FF7200200B6823F002037B
:1046E0000B6000E0521E4B6803F00203022B01D165
:1046F000002AF7D14B6803F00203022B00D00120FF
:104700007047014600208A6902F070007047014638
:1047100000208A69100E7047014600208A69C2F3A2
:10472000074070471AB143690B43436102E0436994
:104730008B434361704710B50246002001F47003BB
:1047400043B19369C1F3130423400BB101202DE061
:1047500000202BE001F0807343B15368C1F31304D0
:1047600023400BB1012021E000201FE001F0006395
:1047700043B19368C1F3130423400BB1012015E04A
:10478000002013E001F0007343B1D368C1F31304B8
:1047900023400BB1012009E0002007E01369C1F3B9
:1047A000130423400BB1012000E0002010BD0022C3
:1047B000244B994202D10023836111E0C1F313021B
:1047C00001F000730BB1C2600AE001F080630BB12D
:1047D000026105E001F000630BB1826000E042601D
:1047E00070470246002002EA01030BB1012000E0FD
:1047F0000020704770B504460D46002660692840C9
:10480000002872D0B5F5807F69D01DDC082D42D01C
:1048100006DC012D2DD0022D31D0042D7FD134E0C6
:10482000102D3ED0202D42D0402D78D145E0000003
:10483000030000040003000800000310000100084A
:104840000001FFF77000F030B5F5004F61D009DCD2
:10485000B5F5007F4AD0B5F5806F4DD0B5F5006F46
:104860005DD150E0B5F5803F2DD0B5F5003F56D174
:104870002FE0A0685549FFF7B4FF064651E0E06815
:104880000321FFF7AEFF06464BE0E0680821FFF783
:10489000A8FF064645E0E0681021FFF7A2FF0646A4
:1048A0003FE020690321FFF79CFF064639E02069BD
:1048B0000821FFF796FF064633E020691021FFF735
:1048C00090FF06462DE060680821FFF78AFF064644
:1048D00027E060681021FFF784FF064621E0A06909
:1048E0000121FFF77EFF06461BE01BE0A0690221C5
:1048F000FFF777FF064614E0A0690421FFF771FF78
:1049000006460EE00BE0A0697021FFF76AFF06463D
:1049100007E060680421FFF764FF064601E0002617
:1049200000BF00E00026304670BDB1F5007F3AD0F0
:104930000FDC202928D006DC01291CD004291DD039
:10494000082940D11DE0402921D0B1F5807F3AD11E
:1049500026E0B1F5004F31D006DCB1F5806F25D0EF
:10496000B1F5006F2FD124E0B1F5803F12D0B1F541
:10497000003F28D111E0154A826025E00822C2607C
:1049800022E01022C2601FE0082202611CE0102217
:10499000026119E00822426016E01022426013E032
:1049A0000422426010E0042242600DE004224260D2
:1049B0000AE0002282610422426005E00022826156
:1049C0000422426000E000BF00BF70470101010007
:1049D000016821F0010101600021016041608160F6
:1049E000C160016121214161DB49884204D13D213F
:1049F000D94A103A91608CE0D7491831884205D1E4
:104A00004FF47461D44A103A916082E0D249303157
:104A1000884205D14FF47411CF4A103A916078E082
:104A2000CD494831884205D14FF07461CA4A103AE5
:104A300091606EE0C8496031884204D1C749C64AD6
:104A4000103AD16065E0C4497831884204D1C44944
:104A5000C14A103AD1605CE0BF499031884204D12C
:104A6000C049BD4A103AD16053E0BB49A8318842E1
:104A700005D14FF03D51B84A103AD16049E0BA49EA
:104A8000884204D13D21B84A083A116041E0B64954
:104A90001831884205D14FF47461B34A083A116065
:104AA00037E0B1493031884205D14FF47411AE4A34
:104AB000083A11602DE0AC494831884205D14FF0E9
:104AC0007461A94A083A116023E0A749603188421D
:104AD00004D1A249A44A121F11601AE0A2497831F8
:104AE000884204D19E49A04A121F116011E09E49DC
:104AF0009031884204D19B499B4A121F116008E003
:104B00009949A831884204D14FF03D51964A121F6D
:104B10001160704710B500220268944B1A40CC68AF
:104B20000B6823434C6923438C692343CC6923439B
:104B30000C6A23434C6A23438C6A23434C6B234304
:104B40008C6B23431A430260426922F00702D1E9C9
:104B50000B3423431A4342610B6943604B68836003
:104B60008B68C36010BD0021016041608160C1603D
:104B7000016141618161C161016241628162C16221
:104B8000016341638163704721B1026842F0010211
:104B9000026003E0026822F001020260704721B166
:104BA000026842F40042026003E0026822F400421C
:104BB0000260704721B1026842F02002026003E007
:104BC000026822F02002026070474160704701468F
:104BD000486880B2704722B1036843F40023036041
:104BE00003E0036823F4002303600161704721B1EF
:104BF000026842F48022026003E0026822F480220C
:104C0000026070470AB1016100E0C160704701466F
:104C100000200A6802F400220AB1012000E000200E
:104C20007047014600200A6802F001020AB1012023
:104C300000E000207047014600204A6902F0380079
:104C4000704730B503460A4600200024464DAB426B
:104C500002D24149103901E04349103902F00055B0
:104C60000DB14C6800E00C68414D2C4004EA02058F
:104C70000DB1012000E0002030BD02463A4B9A42BF
:104C800002D23548103801E03748103801F000539F
:104C90001BB1374B0B40C36002E0354B0B408360C8
:104CA000704710B501F080034BB122B1436943F066
:104CB0008003436103E0436923F08003436180295B
:104CC0000BD02AB1036801F01E042343036004E003
:104CD000036801F01E04A343036010BD70B50246D3
:104CE000002000240025204EB24202D21A4B103B75
:104CF00001E01D4B103B1F4E0E4036B11E2606EA4A
:104D0000D124166806EA040502E0566906F080051B
:104D100001F000560EB15C6800E01C68144E34408F
:104D200004EA010616B10DB1012000E0002070BDBB
:104D300002460D4B9A4202D20748103801E00A4859
:104D4000103801F000531BB1094B0B40C36002E067
:104D5000074B0B4083607047106002403D0000200D
:104D6000400F002000003D20106402403F801CF0F6
:104D70007D0F7D0F3C0F3C0F10B5044698488442D0
:104D800008D10121084600F087FB0021012000F036
:104D900083FB76E09348844208D10121022000F091
:104DA0007BFB0021022000F077FB6AE08E48844202
:104DB00008D10121042000F06FFB0021042000F045
:104DC0006BFB5EE08948844208D10121082000F095
:104DD00063FB0021082000F05FFB52E0844884421E
:104DE00008D10121102000F057FB0021102000F015
:104DF00053FB46E07F48844208D10121202000F087
:104E00004BFB0021202000F047FB3AE07A48844227
:104E100008D10121402000F03FFB0021402000F09C
:104E20003BFB2EE07548844208D10121802000F030
:104E300033FB0021802000F02FFB22E070488442E9
:104E400008D10121801500F027FB0021A01500F0FA
:104E500023FB16E06B48844208D10121401500F085
:104E60001BFB0021601500F017FB0AE06648844236
:104E700007D10121001500F00FFB0021201500F0E3
:104E80000BFB10BDF0B50A4600210023002400BF33
:104E90003DE0012505FA01F3156805EA03049C428B
:104EA00034D105684F000326BE40B543056015792F
:104EB0004E00B5400668354305601579012D02D0D6
:104EC0001579022D16D185684F000326BE40B543E3
:104ED000856055794E00B5408668354385604568E4
:104EE00001268E40B5434560456896798E40B6B23E
:104EF00035434560C5684F000326BE40B543C560D5
:104F0000D5794E00B540C6683543C560491C1029A7
:104F1000BFD3F0BD4FF6FF710160002101714171F7
:104F20008171C171704708B54FF480320092009AC8
:104F30000A430092009AC261C161009AC261C269CB
:104F40000092C269009208BD0246002013690B401E
:104F50000BB1012000E0002070470146086980B2D3
:104F600070470246002053690B400BB1012000E05E
:104F7000002070470146486980B27047018370473E
:104F8000418370470AB1018300E04183704741616A
:104F9000704742694A4042617047F0B500230024DF
:104FA0004D07ED0E02FA05F3CE1000F1200555F87D
:104FB00026504E07F70E0F26BE40B543CF1000F126
:104FC000200646F82750CE1000F1200555F826504F
:104FD00045EA0304CE1000F1200545F82640F0BD57
:104FE000000002400004024000080240000C0240A1
:104FF000001002400014024000180240001C024051
:10500000002002400024024000280240F6480068C8
:1050100040F00100F44908600020F34908310860BD
:10502000F1480068F1490840EF490860F048091D5F
:105030000860F048EC4984310860ED481038091DDB
:105040000860E948006820F48020E74908600020F3
:10505000E5490C310860E4498C3108607047012152
:10506000E14A921C117011460870704710B5014654
:105070000022002300204A11012A02D1DA4C2368C1
:1050800008E0022A03D1D84C7034236802E0D64CE1
:105090007434236801F01F02012494401C400CB1B9
:1050A000012000E0002010BD38B500200090002451
:1050B000002500BF3120FFF7D9FF05460098401CAE
:1050C00000900098B0F5A04F01D0002DF2D0312013
:1050D000FFF7CCFF08B1012400E00024204638BDD2
:1050E00001460020C04A106820F0F80040EAC100E4
:1050F00010607047C049086070470021BA4A70329A
:1051000011701170012802D004280AD104E0012195
:10511000B54A7032117005E00521B34A7032117042
:1051200000E000BF00BF7047B4490860704770B529
:10513000049C41EA82150126C6EB530645EA064562
:10514000054345EA0465A84E361D356070BDAA4981
:105150000866704710B5830143EA016343EA0273AE
:10516000A14C8434236010BDA3498866704710B5F4
:10517000830143EA016343EA02739B4C8834236052
:1051800010BD9D49086770479B49C8647047024637
:105190000020954B0833186820F0EC6042EA0103C8
:1051A0001843914B083318607047024600208E4B1D
:1051B0000833186820F0784042EA010318438A4B0C
:1051C00008331860704701460020874A083210688B
:1051D00020F00300084310607047834808300068DF
:1051E00000F00C007047014600207F4A083210682A
:1051F00020F0F000084310607047014600207A4A12
:105200000832106820F4E0500843106070470146EF
:105210000020754A0832106820F4604040EAC1005E
:1052200010607047F0B500210022002402250026FE
:1052300002236D4F08373F6807F00C0121B10429A4
:1052400005D0082937D105E06D4F076036E06D4F76
:10525000076033E0644F3F1D3F68C7F38056624FDD
:105260003F1D3F6807F03F036EB1664FB7FBF3F792
:10527000DFF874C10CF1040CDCF800C0CCF3881C1E
:1052800007FB0CF40CE05E4FB7FBF3F7DFF858C1F7
:105290000CF1040CDCF800C0CCF3881C07FB0CF408
:1052A000514F3F1D3F68C7F301477F1C7D00B4FB92
:1052B000F5F7076002E0524F076000BF00BF4A4F9A
:1052C00008373F6807F0F00109094F4F7A5C07681B
:1052D000D7404760444F08373F6807F4E051890AD8
:1052E000494F7A5C4768D74087603F4F08373F682F
:1052F00007F46041490B444F7A5C4768D740C76068
:10530000F0BD002100F44072B2F5407F0AD1364A68
:105310000832116821F4F8113C4A02401143324A24
:1053200008321160304A70321268C0F30B031A431E
:105330002D4B70331A60704730494439086070470C
:105340002E4940390860704731490860704701466E
:105350000020254A8C32106820F01F004A1E10439E
:10536000214A8C3210607047014600201E4A8C3260
:10537000106820F4F8504A1E40EA02201A4A8C3283
:105380001060704701460020174A8C32106820F4E4
:10539000401008431060704701460020124A8C32CA
:1053A000106820F440000843106070470146002058
:1053B0000D4A8C32106820F440300843106070476A
:1053C00014490860704739B1074A30321268024305
:1053D000054B30331A6006E0034A303212688243CC
:1053E000014B30331A60704700380240FFFFF6EA85
:1053F000103000240030002000004742800E474259
:105400000024F400001BB70018050020FFFCFF0F6C
:105410005C014742E011474229B1934A12680243B6
:10542000914B1A6004E0904A126882438E4B1A60D6
:10543000704739B18C4A121D126802438A4B1B1DFA
:105440001A6006E0884A121D12688243864B1B1DB3
:105450001A60704739B1844A0C3212680243824B99
:105460000C331A6006E0804A0C32126882437E4B8D
:105470000C331A60704739B17B4A1032126802430C
:10548000794B10331A6006E0774A10321268824373
:10549000754B10331A60704739B1734A243A126859
:1054A0000243714B243B1A6006E06F4A243A1268AB
:1054B00082436D4B243B1A60704739B16A4A203AE7
:1054C00012680243684B203B1A6006E0664A203AA5
:1054D00012688243644B203B1A60704739B1624ABC
:1054E0001C3A12680243604B1C3B1A6006E05E4A9D
:1054F0001C3A126882435C4B1C3B1A60704739B1FE
:10550000594A143A12680243574B143B1A6006E09A
:10551000554A143A12688243534B143B1A60704741
:1055200039B1514A103A126802434F4B103B1A608E
:1055300006E04D4A103A126882434B4B103B1A600A
:10554000704739B1484A1C3212680243464B1C333B
:105550001A6006E0444A1C3212688243424B1C33F4
:105560001A60704739B1404A2032126802433E4BFC
:1055700020331A6006E03C4A2032126882433A4BDC
:1055800020331A60704739B1374A24321268024317
:10559000354B24331A6006E0334A243212688243C2
:1055A000314B24331A60704739B12F4A2C321268BC
:1055B00002432D4B2C331A6006E02B4A2C32126822
:1055C0008243294B2C331A60704739B1264A303256
:1055D00012680243244B30331A6006E0224A30320C
:1055E00012688243204B30331A607047012808D17B
:1055F0001D493C31096841F008011B4A3C321160E9
:1056000007E019493C31096821F00801164A3C328B
:105610001160704739B1144A273A12780243124B8D
:10562000273B1A7006E0104A273A127882430E4B45
:10563000273B1A7070470C484030006840F080707B
:10564000094940310860704701460020064A283A5F
:1056500012680A400AB1012000E0002070470249A8
:1056600026390870704700003438024010B50446EF
:10567000FB48844208D101218014FFF751FF00212B
:10568000A014FFF74DFF3CE0F648844208D1012109
:105690000014FFF734FF00212014FFF730FF30E043
:1056A000F148844208D10121C013FFF728FF0021EF
:1056B000E013FFF724FF24E0EC48844208D10121E5
:1056C0004014FFF72DFF00216014FFF729FF18E0B9
:1056D000E748844209D101210805FFF721FF002195
:1056E0004FF48010FFF71CFF0BE0E248844208D122
:1056F00001214805FFF714FF00214FF40010FFF7C8
:105700000FFF10BD10B50022028802F441520B8831
:105710004C8823438C882343CC8823430C89234320
:105720004C8923438C892343CC8923431A43028029
:10573000838B4FF2FF74234083830B8A038210BD57
:105740002DE9F04F0025022300244FF0010900222B
:105750000026002794469046B0F81CA04FF2400B5C
:105760000AEA0B0AA0F81CA04FF0020AA0F820A039
:10577000858BD1F808A0BAF1020F01D100BF82E0F9
:10578000B1F804A0BAF1000F02D14FF0010901E015
:105790004FF00209DFF8E0A2DAF800A00AF4000AEC
:1057A000BAF1000F09D0DFF8D0A2DAF800A02AF48D
:1057B000000ADFF8C4B2CBF800A0DFF8BCA20AF1FF
:1057C0007C0ADAF800A0CAF3881CDFF8ACA20AF160
:1057D0007C0ADAF800A0CAF30278DFF89CA2AAF1EA
:1057E000040ADAF800A00AF03F07DFF88CA2AAF159
:1057F000040ADAF800A00AF4800ABAF5800F08D18A
:10580000DFF878A2BAFBF7FA0AFB0CFABAFBF8F653
:1058100007E0DFF86CA2BAFBF7FA0AFB0CFABAFB56
:10582000F8F6B1F806A0BAF5007F0ED14FEA162AB5
:105830000AEB8A0A4FEA4A0AD1F808B0BAFBFBFA27
:105840000AF1050A1FFA8AF20FE04FEA491AB6FB7D
:10585000FAFA0AEB8A0A4FEA4A0AD1F808B0BAFB08
:10586000FBFA0AF1050A1FFA8AF24FF00A0AB2FBA4
:10587000FAF202F00104A2EB040ACAF34F034FF656
:10588000FF7A0AEA0424022B01DBFF2B01DD02234D
:105890000024B1F806A04AEA040A4AEA030AA0F87A
:1058A00020A0B1F804A0B1F80CB04AEA0B0AB1F894
:1058B00002B04AEA0B0AB1F800B04AEA0B0A4AF40D
:1058C000006A4AEA05058583BDE8F08F0021018062
:1058D00041808180C180018141818181C181072115
:1058E000018270470021018041808180C1800221B6
:1058F000816000218181704721B1028842F040021D
:10590000028004E002884FF6BF731A40028070479D
:1059100021B1828B42F48062828304E0828B4FF655
:10592000FF331A408283704702884FF2FF731A4098
:10593000028002880A4302807047B1F5804F04D18B
:10594000028842F48042028004E002884BF6FF7332
:105950001A40028070474FF6FF62914204D00288DD
:1059600042F48072028004E002884FF6FF631A401E
:105970000280704721B1828842F00402828004E0F4
:1059800082884FF6FB731A408280704721B182886B
:1059900042F01002828004E082884FF6EF731A40D2
:1059A0008280704730B500220023848B4FF240057F
:1059B0002C40848302240484828B0C88B4F5007FFD
:1059C00001D00C8814B94FF4807308E00C88B4F54A
:1059D000407F03D00C88B4F5807F00D100238C88F1
:1059E0008D892C434D882C431C4344F4006422438E
:1059F000828330BD0146888970478181704721B11B
:105A0000028842F40052028004E002884DF6FF73DF
:105A10001A4002807047018841F48051018070472C
:105A200002460020012901D0108B00E0908A7047C7
:105A30000146088A70471AB183880B43838002E0CD
:105A400083888B438380704730B5002400230C117A
:105A50000125A540ABB2AAB185881D43858014E01D
:105A60000030014000380040003C0040003401405C
:105A7000005001400054014008380240001BB700AC
:105A80000024F40085889D43858030BD02460020B7
:105A900013890B400BB1012000E000207047CA437E
:105AA00002817047F0B50246002000240023002543
:105AB00001F00F070126BE40B4B20B1101269E4033
:105AC000B3B2968806EA03051689264016B10DB1D1
:105AD000012000E00020F0BD10B5002201F00F040D
