:020000040800F2
:10000000E0160020697A0008254B0008274B0008FD
:100010002B4B00082F4B0008334B0008000000005A
:10002000000000000000000000000000374B000846
:10003000394B0008000000003B4B00083D4B000816
:10004000837A0008837A0008837A0008837A00089C
:10005000837A0008837A0008837A0008837A00088C
:10006000837A0008837A0008837A0008837A00087C
:10007000837A0008837A0008837A0008837A00086C
:10008000D1400008453E0008837A0008837A0008C2
:10009000F32E0008837A0008837A0008837A000828
:1000A000837A0008837A0008837A0008837A00083C
:1000B000837A0008837A0008837A0008837A00082C
:1000C000837A0008837A0008837A0008837A00081C
:1000D000837A0008837A0008C5400008F1440008CC
:1000E000837A0008837A0008837A0008837A0008FC
:1000F000837A0008837A0008837A0008837A0008EC
:10010000837A0008837A0008837A0008837A0008DB
:10011000837A0008837A0008613A0008837A00082D
:10012000837A0008837A0008C13B0008837A0008BC
:10013000837A0008837A0008837A0008837A0008AB
:100140001B300008837A0008837A0008837A00084D
:10015000837A0008837A0008837A000863460008DF
:10016000837A0008837A0008837A0008837A00087B
:10017000837A0008837A0008837A0008837A00086B
:10018000837A0008837A000873470008ED4A000864
:10019000837A0008837A0008837A0008837A00084B
:1001A0000000000000000000837A000800F002F860
:1001B00000F05CF80AA090E8000C82448344AAF1A5
:1001C0000107DA4501D100F051F8AFF2090EBAE8A3
:1001D0000F0013F0010F18BFFB1A43F0010318477B
:1001E00088CB0000A8CB00000A444FF0000C10F8A8
:1001F000013B13F0070408BF10F8014B1D1108BFA5
:1002000010F8015B641E05D010F8016B641E01F844
:10021000016BF9D113F0080F1EBF10F8014BAD1C94
:100220000C1B09D16D1E58BF01F801CBFAD505E0B2
:1002300014F8016B01F8016B6D1EF9D59142D6D30C
:10024000704700000023002400250026103A28BF34
:1002500078C1FBD8520728BF30C148BF0B60704738
:100260001FB50BF086FF1FBD10B510BD09F04DFF87
:100270001146FFF7F5FF00F009F809F06BFF03B432
:10028000FFF7F2FF03BC09F06BFF00004FF4A06022
:1002900004F078FD02F05AFD002433E0264890F97E
:1002A0000000082805DA24480078C01C40B2224922
:1002B000087022490968C1F34F0003F0C6FA04EB45
:1002C00044021F4B03EB4202917804EB440213F803
:1002D000120003F0A6FA05462946092003F0AFFAFA
:1002E00004EB4401164A02EB41018D8805EBD57100
:1002F000481002F009FF03F037FA1E2002F004FF55
:10030000601C641C162CC9DB00200E490860082103
:10031000012000F059FB01200B4908700BE00B484D
:1003200000684FF47A71B0FBF1F201FB120010B9D2
:10033000082001490870F2E7000000202C18004056
:100340000EC60008B88242420E00002004040020BD
:10035000FE490870704710B5C024FD490988A1F511
:100360008060002801DB014600E0414240F2962215
:10037000914201DC012100E000210C43F44949884D
:10038000A1F58060002801DB014600E0414240F217
:100390009622914201DC012100E0002144EA41045F
:1003A000EB498988A1F58060002801DB014600E067
:1003B000414240F29622914201DC012100E00021FD
:1003C00044EA8104E249C988A1F58060002801DB84
:1003D000014600E0414240F29622914201DC0121B7
:1003E00000E0002144EAC104D948007A012807D07E
:1003F000D748007A022803D0D548007A032801D1D3
:10040000012000E0002044EA0014D148407A01288D
:1004100007D0CF48407A022803D0CD48407A03283D
:1004200001D1012000E0002044EA4014FF2C07D055
:100430000320FFF78DFF1422C549C64809F0B0FD1F
:1004400010BDC2480078704710B5FFF7FAFF0828C2
:100450007ED2DFE800F011041E872B65584B002385
:100460001A461946184607F09BFB00231A46194600
:10047000184607F0C4FB82E000231A4619461846C6
:1004800007F08EFB00231A461946184607F0B7FB03
:1004900075E000231A461946184607F081FB002331
:1004A0001A461946184607F0AAFB68E0AA4CE488E9
:1004B00023B2A94CA48822B2A84CA48C21B2A74C88
:1004C000248C20B207F06CFBA54B93ED070ABDEE20
:1004D000C00A10EE103A1AB2A24B1B8A19B2A14BF5
:1004E0009B8C18B2002307F08AFB48E000231A46D1
:1004F0001946184607F054FB00231A4619461846B9
:1005000007F07DFB3BE000231A461946184607F02A
:1005100047FB00231A461946184607F070FB2EE0E9
:100520008D4CE48823B28C4CA48822B28B4CA48CD2
:1005300021B28A4C248C20B207F032FB884B93ED19
:10054000070ABDEEC00A10EE103A1AB2854B00E061
:1005500008E01B8A19B2834B9B8C18B2002307F06A
:100560004EFB0CE000231A461946184607F018FB0C
:1005700000231A461946184607F041FB00BF00BF8A
:1005800010BD10B572490988714A52881144704AE9
:10059000928811446E4AD2881144A1F580500028F7
:1005A00001DB014600E04142082901DD00F05BF972
:1005B00010BD10B5FFF745FF082847D2DFE800F06F
:1005C0001F0427372F3D38366748006842F2107104
:1005D000884213D9FFF7D5FF0020FFF7B9FE9FED42
:1005E000630A604880ED030A614890ED000AF2EE6C
:1005F000040A20EE200A5B4880ED080A26E000F09D
:1006000022FE0220FFF7A4FE01F089F91EE0062079
:10061000FFF79EFE00F017FE01F081F916E000F0F2
:1006200012FE01F07CF901F0CFF80FE00EE00DE0D2
:1006300001F0CAF800F007FE08E002F0C3F900F08C
:1006400002FE01F06CF901F0BFF800BF00BF10BD61
:1006500010B5FFF7F6FE47490870FFF7F2FE0828CD
:1006600005D2DFE800F00504065B07B5371CB7E0EC
:10067000B6E0B5E03648007A032802D10620FFF73D
:1006800067FE3348007A032807D13B4800780328E7
:1006900003D12F48407A012800D000BFA0E02C49A8
:1006A000C97C61B92A49897C49B92949B1F90A004B
:1006B000002801DB014600E04142032902DD04205D
:1006C000FFF746FE2248007A022802D10520FFF7F4
:1006D0003FFE85E01E48007A01280DD1244890EDA8
:1006E000000AF2EE040A20EE200A1E4880ED080AF5
:1006F0000420FFF72DFE10E01548007A02280CD1E7
:100700001B4890ED000AF2EE040A20EE200A15487C
:1007100080ED080A0520FFF71BFE61E0174800681E
:10072000401C16490860164991F8361051BB08491B
:100730000988074A52881144054A92881144044A9C
:10074000D2881144A1F5805000281CE0040000204C
:1007500044060020FC060020CA0300206C0800208C
:10076000BC080020340000200404002000E8E0451C
:1007700034060020060000200500002008000020AC
:10078000FC02002015E001DB014600E041420A299D
:100790000FDA3C4890ED000AF2EE040A20EE200A3F
:1007A000394880ED080A0420FFF7D2FD00203749C0
:1007B0000860374890F8360048B934480068B0F50A
:1007C000FA5F04D900203149086000F04CF807E0D6
:1007D0003048007A032802D10620FFF7B9FD00BF98
:1007E00000BF2C48407A2C49087010BD10B508F0A5
:1007F0006FF82A4800680521B0FBF1F201FB1200F6
:1008000008B902F0C9F901F025FAFFF721FFFFF757
:10081000D0FEFFF719FEFFF79EFD20480068782103
:10082000B0FBF1F201FB120078B91D4890F900000D
:10083000002805DD1A480078401E40B218490870AB
:10084000174890F9000002F022FD10BDF0EE400ABA
:10085000F5EEC00AF1EE10FA02DBB0EE600A704766
:10086000B1EE600AFBE7BFF34F8F0E48006800F45B
:10087000E0600D490843001D0A490860BFF34F8F2F
:1008800000BFFEE7340600203400002008000020EE
:10089000FC02002044060020050000200404002083
:1008A000000000200CED00E00000FA0510B5FB4848
:1008B00000780A2832DAF948007800282EDDF84856
:1008C00000684FF41661B0FBF1F201FB1200F3492E
:1008D00009784900C1EB011101EB8101B0EB410F37
:1008E0002BD8EF4800684FF41661B0FBF1F201FB22
:1008F000120028B94FF48041EA4805F081FA1CE063
:10090000E74800689621B0FBF1F201FB1200A0B9A4
:100910004FF48041E34805F07EFA0EE0DF480078AE
:100920000A2805DB4FF48041DE4805F06BFA04E04D
:100930004FF48041DB4805F063FADB4800780A2871
:1009400032DAD948007800282EDDD54800684FF407
:100950001661B0FBF1F201FB1200D349097849009E
:10096000C1EB011101EB8101B0EB410F2BD8CC4859
:1009700000684FF41661B0FBF1F201FB120028B9D8
:100980004FF40061C94805F03BFA1CE0C448006818
:100990009621B0FBF1F201FB1200A0B94FF4006107
:1009A000C24805F038FA0EE0BF4800780A2805DB97
:1009B0004FF40061BD4805F025FA04E04FF40061F2
:1009C000BA4805F01DFA10BD0A2801DD0A2200E030
:1009D0000246B24B1A700A2901DD0A2200E00A46DB
:1009E000B14B1A70704710B5B148007820B101289A
:1009F00022D0022860D140E0AE480078401CAD49CA
:100A000008700846007850280ADB0120A8490870C1
:100A10005020A84908700020A7490870A74908700D
:100A2000A4480078C0F15000A5494870A14800785A
:100A30000870002088703FE09F480078401C9E4965
:100A400008700846007850280BDB0220984908708F
:100A50000020984908705020974908700020974955
:100A6000087000209649487093480078C0F1500003
:100A700008709148007888701EE090480078401C0B
:100A80008E49087008460078502809DB0020884904
:100A90000870884908708849087050208749087094
:100AA000864800788649487000200870834800789E
:100AB000C0F15000887000BF00BF00204FE08149A6
:100AC000095C11B1012948D124E07F4901EB800183
:100AD00091ED000ADFED7D0A30EE200A7A4901EB44
:100AE000800181ED000A784901EB800191ED000A57
:100AF000DFED770AB4EEE00AF1EE10FA09DB9FEDC4
:100B0000740A714901EB800181ED000A01216D4AEF
:100B1000115422E06C4901EB800191ED000ADFEDF8
:100B20006B0A30EE600A684901EB800181ED000A32
:100B3000654901EB800191ED000AB5EEC00AF1EEC6
:100B400010FA09D89FED630A5F4901EB800181ED3E
:100B5000000A00215B4A115400BF00BF401C052859
:100B6000ADDB574840785649C87008460178417156
:100B70008178017100785249887108464178017284
:100B80008178C17180784E49487208460178C172F7
:100B90004178817200784A490873084681788173E8
:100BA0004178417300201EE0002119E000EB400273
:100BB000434B1A44525C00EE102AB8EE400A424AF7
:100BC00002EB8002D2ED000A20EE200ABCEEC00A41
:100BD00010EE102A00EB4003394C23445A54491CB0
:100BE0000329E3DB401C0528DEDB10BD027802F0A0
:100BF0000101027852100270027842EAC1120270BA
:100C0000704710B5264800686421B0FBF1F201FB83
:100C10001200002841D100BF12E000210DE02E4A51
:100C20001278024102F00102642312FB03F200EB8E
:100C30004003234C23445A54491C0329EFDB401C36
:100C40000528EADB2448FFF7D1FF24480078401C40
:100C5000224908700878C11700EB5171C910A0EB48
:100C6000C10141B91E490978052904DC1C480078F6
:100C7000401C1B49087000200BE0002106E06422A4
:100C800000EB40030E4C23445A54491C0329F6DB65
:100C9000401C134909788842EFDB10BD0C0000208E
:100CA00004040020001402400D0000200010024047
:100CB0000F00002010000020110000201200002072
:100CC0001007002013000020180000200AD7233C42
:100CD000CDCCCC3E000000002C0000202D000020D8
:100CE0002E00002010B52148007810B9FFF789FFC9
:100CF00001E0FFF778FE05211D4803F054FE03F0E4
:100D000029FE10BD0278D10902785206120E027037
:100D100002780A4302707047164800684FF4FA716F
:100D2000B0FBF1F201FB1200F0B9002012E0124911
:100D30000978642211FB02F100EB40020C4B1A44CB
:100D40005170002100EB4002995400EB40021A441C
:100D50009170401C0528EADB0748007808B901209B
:100D600000E0002004490870704700000E000020D9
:100D700010070020040400202F000020F0EE400A9D
:100D8000B3EE0E0A20EE800A7047F0EE400A9FEDA7
:100D9000FE0A9FEDFE1A11EE200A704770B52DED88
:100DA0000A8B04460D46FA4800680F21B0FBF1F2A9
:100DB00001FB120000287DD1F6498988A1F58060E9
:100DC0000AF07BFE41EC1C0B9FEDF30B53EC102B58
:100DD0000AF09EFE41EC1B0B9FEDF10B53EC102B28
:100DE0000AF0E4FC41EC190BEF4890ED080A10EE14
:100DF000101A08460BF04CF941EC1A0B53EC192B66
:100E00000AF02CFC41EC180B0AF0F6FBE6490862EC
:100E1000084690ED080ADFEDE50AB4EEE00AF1EECF
:100E200010FA06DD90ED080ADFEDE10A30EE600A07
:100E300002E0DD4890ED080ADB4880ED080A90EDFD
:100E4000080ADFEDDC0AB4EEE00AF1EE10FA06D291
:100E500090ED080ADFEDD60A30EE200A02E0D24813
:100E600090ED080AD04880ED080ACA49C988A1F562
:100E700080600AF022FE41EC1C0B9FEDCF0B53EC7F
:100E8000102B0AF045FE41EC1B0B9FEDC50B53ECFC
:100E9000102B0AF08BFC41EC190BC34890ED030AB0
:100EA00010EE101A08460BF0F3F841EC1A0B53EC55
:100EB000192B00E02CE00AF0D1FB41EC180B0AF0F2
:100EC0009BFBB949C860084690ED030ADFEDBC0AF8
:100ED000B4EEE00AF1EE10FA02D29FEDB90A02E098
:100EE000B14890ED030AB04880ED030A90ED030A83
:100EF000DFEDB40AB4EEE00AF1EE10FA02DD9FED88
:100F0000B10A02E0A84890ED030AA74880ED030A61
:100F1000BDEC0A8B70BD10B5AB480078012810D02D
:100F2000A948007868B99B48007A012803D0A748EF
:100F300090F8210028B99C490C3101F11400FFF709
:100F40002DFF9FEDA30AA34880ED000A9648D0ED3F
:100F5000030A90ED000AB8EEC00A30EEC00ADFEDD9
:100F60009E0AB4EEE00AF1EE10FA16DD006800F514
:100F7000005001EE100AB8EEC11AF0EE410A8A489C
:100F800090ED031AB0EE410A944808F02DF9BDEE39
:100F9000C00A854880ED020A39E08348D0ED030A93
:100FA00090ED000AB8EEC00A30EEC00ADFED8C0A00
:100FB000B4EEE00AF1EE10FA16D20068A0F5005087
:100FC00001EE100AB8EEC11AF0EE410A764890ED33
:100FD000031AB0EE410A814808F006F9BDEEC00AD6
:100FE000714880ED020A12E06F4890ED001AB8EEE9
:100FF000C11AF0EE410A90ED031AB0EE410A7748AB
:1010000008F0F2F8BDEEC00A674880ED020A6648B3
:1010100090ED080A7348D0ED000AB2EE041A00EE13
:10102000C10ADFED620AB4EEE00AF1EE10FA17DD54
:10103000D0ED001A9FED5E1AB2EE042A01EE821A7C
:10104000F0EE410A584890ED081AB0EE410A6648A1
:1010500008F0CAF8BDEEC00A534880ED070A3EE02A
:10106000514890ED080A5F48D0ED000AB2EE041A2C
:1010700000EEC10ADFED4F0AB4EEE00AF1EE10FA1D
:1010800017D2D0ED001A9FED4A1AB2EE042A11EEE3
:10109000821AF0EE410A444890ED081AB0EE410A77
:1010A000514808F0A1F8BDEEC00A3F4880ED070A9C
:1010B00015E04C4890ED001AF2EE041A21EE211AC8
:1010C000F0EE410A384890ED081AB0EE410A464861
:1010D00008F08AF8BDEEC00A334880ED070A43489D
:1010E00090ED091AB1EE411AF0EE410A2E4890ED4A
:1010F000021AB8EEC11AB0EE410A3D4808F074F881
:10110000BDEEC00A284880ED040A384890ED0A1A5E
:10111000F0EE410A244890ED071AB8EEC11AB0EE7D
:10112000410A344808F060F8BDEEC00A1E4880ED60
:10113000090AD0ED030AB0EE600AFFF726FE1A484E
:10114000D0ED040AF8EEE00A30EE200ABDEEC00A47
:1011500080ED040AD0ED070AF8EEE00AB0EE600A6E
:10116000FFF70CFE1048D0ED090AF8EEE00A30EE69
:10117000200ABDEEC00A80ED090A006947F230512D
:10118000884239DD084639E000CA3C47D122EF40A9
:1011900004040020440600200000000000804640B7
:1011A0000000000000A08440340000200000E14462
:1011B000000061450000E1C400000000000039406B
:1011C0000090B5450040E245640100201C1000205D
:1011D0000000000084060020000080455C00002024
:1011E000000080C534060020E0000020E40D00204F
:1011F0009E00002022010020AE480069AD49086130
:1012000008460069AC49884201DA084601E0A9486D
:101210000069A84908610846406A47F2305188428F
:1012200001DD084601E0A348406AA2494862084639
:10123000406AA149884201DA084601E09D48406AB7
:101240009C49486210BD10B59C48D0ED0A0AB0EE2A
:10125000600A01F0D7F8FFF75EFE10BD014698481E
:1012600090ED000AF7EE000A70EEC00A954890ED86
:10127000000AB8EEC00A60EE800A00EE101AB8EE5E
:10128000C00A8F4890ED001A40EE010ABDEEE00A58
:101290008D4880ED000A00688A4A10608A4800681C
:1012A0007047421A00EE902AF8EEE00AB1EE601A9A
:1012B000DFED861AC1EE210AB0EE001A60EE810A57
:1012C0009FED831A60EE810AB0EE600A704770B538
:1012D0000246002000217F4B1B68934202DA7D4BBF
:1012E0001B6800E013461A467A4B1B6D934202DDE1
:1012F000784B1B6D00E013461A46002106E0754B43
:1013000053F83130934200DC02E0491C0B29F6DB34
:1013100000BF092901DD092300E00B4619466D4C89
:101320004B1C04EBC3035B6804EBC10464681B1B28
:10133000684C54F83140A41A6343664C54F8315059
:1013400026464C1C56F834402C1B93FBF4F33446D1
:1013500004EBC1046468181970BD01460020704791
:101360005D48007801287CD15C48007820B10128D4
:1013700028D0022825D185E05948008800EB80005C
:1013800041F2A86101EBC00000EE100AB8EEC00AFD
:10139000484880ED030A406828B952480068401C5C
:1013A0005049086002E000204E4908604D4800683E
:1013B000B0F5967F05D300204A49086001204749CF
:1013C000087073E048484649098800EB8100D0ED79
:1013D000000A384890ED000AB8EEC00A30EE800AE4
:1013E00041483F49098800EB810080ED000A3F48F1
:1013F0003B49098800EB8100D0ED000A2D4890EDB3
:10140000040AB8EEC00A30EE800A38483449098828
:1014100000EB810080ED000A32480068401C314931
:10142000086008460068B0F5167F2AD300200860DF
:1014300002202A4908702C482949098800EB8100BC
:1014400090ED000ADFED2A0A80EE201A2648244992
:10145000098800EB810080ED001A244820490988A2
:1014600000E024E000EB810090ED000ADFED200AAF
:1014700080EE201A1D481A49098800EB810080ED92
:10148000001A13E016480088232808DA1448008858
:10149000401C1349088000201049087005E0002016
:1014A0000D4908700E490880704700BF00BF00BF9B
:1014B000FAE7000034000020D08AFFFFE40D00208E
:1014C000740100206C010020700100200000004623
:1014D000DA0F494088C1000866010020670100203A
:1014E00068010020780100202C070020CC07002094
:1014F00000001644B0EE401AF7EE001AB0EE610A92
:10150000B34890F83800012807D10320B14908708A
:10151000DFEDB11AB0EE610A48E0B048007820B1C2
:10152000012809D0022815D10DE0DFEDAD1A70EECB
:10153000E11AF0EE610A14E0F3EE0E1A70EEE11A11
:10154000F0EE610A0DE0F3EE0E1A70EEE11AF0EE25
:10155000610A06E0F3EE0E1A70EEE11AF0EE610A8F
:1015600000BF00BFDFED9F1A9FED9F2A42EE201AB9
:10157000B0EE610AF7EE001AB4EEE10AF1EE10FAED
:1015800002DDF7EE001A01E0F0EE401AB0EE610A5B
:10159000DFED961AB4EEE10AF1EE10FA02D2DFEDB9
:1015A000931A01E0F0EE401AB0EE610A704710B5F0
:1015B000FEF747FF04283CD100BF8D480088A0F506
:1015C00080608C49B1F90010401A01280CDD884870
:1015D0000088A0F580600A2806DD87480088401C46
:1015E00000B2854908801FE081480088A0F580602E
:1015F0008049B1F90010401AB0F1FF3F0DDA7C4884
:101600000088A0F5806010F10A0F06DA7A48008899
:10161000401E00B27849088006E075480088A0F5B1
:10162000806000B2744908807348B0F900007149C5
:10163000088010BD10B5FEF704FF042817D1002064
:1016400013E09FED6E0A10EE101A00EB40126C4B87
:1016500003EB420251609FED6B0A10EE101A00EB93
:10166000401203EB42021162401C0228E9DBFEF744
:10167000E8FE042801D1FFF79AFF5F48B0F90000A7
:10168000DC2801DDDC2002E05B48B0F900005A49AB
:1016900008800846B0F9000010F1DC0F02DA6FF0A4
:1016A000DB0002E05448B0F90000534908800846C6
:1016B000B0F90000C0EB0010534988604E48B0F903
:1016C00000004042C0EB0010C860084690ED001AD0
:1016D000B8EEC11AF0EE410A90ED021AB8EEC11A46
:1016E000B0EE410A464807F07FFDBDEEC00A46480D
:1016F00080ED080A90ED011AB8EEC11AF0EE410A29
:1017000090ED031AB8EEC11AB0EE410A3C484230DF
:1017100007F06AFDBDEEC00A3B4880ED090A3B4870
:10172000008901EE100AB8EE411AF0EE410A37487E
:1017300090ED011AB0EE410AFFF7DCFE344880ED6F
:10174000000A314890ED080AB8EEC00A3048D0EDE2
:10175000000A20EE200AF0EE402A2B4890ED090AFC
:10176000B8EEC00A2A48D0ED000A20EE200AB0EEFA
:10177000403ABDEEE20A244880ED080ABDEEC30AF5
:1017800080ED090A006A42F21071884202DD0846C3
:101790001D4908621C48006A1E49884202DA084650
:1017A000194908621848406A42F21071884202DD05
:1017B0000846154948621448406A1649884202DAC8
:1017C00008461149486210BD10B5FFF733FF10BD40
:1017D000FC020020500200209A99193FE3030020E8
:1017E00000000C43CDCCCC3D8FC2F53BCDCC4C3D65
:1017F0004406002052020020420200200AD7A33CE7
:101800007C01002000C8AF476C080020840F002036
:101810004C020020F0D8FFFFDF48B0F90000DE499D
:10182000B1F90810401A022812DADB480088401C7F
:1018300000B2D94908800846B0F9000000EE100A4D
:10184000B8EEC00A084680ED010AD4480068C860B6
:10185000704710B50446D2480078012847D101F0FE
:101860001CFAD04908700846007801282DD120784C
:1018700001282AD1CC48007A032809D0CB48007827
:10188000032805D1C848407A022801D1FFF7C4FFD8
:10189000C24800682321B0FBF1F201FB1200A0B99D
:1018A000C148007A032810D0BF48407A02280CD1E2
:1018B000BD494988A1F58060002801DB014600E0B0
:1018C0004142642901DDFFF7A7FFB748007A0328EA
:1018D0000DD0B6480078032809D1B348407A0128D2
:1018E00005D1207808B9012000E000202070AE4822
:1018F000407AAE49087010BD10B5AD48FFF7A9FF9A
:10190000A548B0F9000000EE100AB8EEC00ADFEDFD
:10191000A90A20EE200AA04880ED050A10BD10B5E6
:101920000120A5490860A2480078012803D11520AC
:1019300000F0F4FF02E0002000F0F0FFFFF7DCFF12
:10194000954890ED050ABDEEC00A9C4880ED050A59
:1019500090ED001AB8EEC11AF0EE410A90ED051AAA
:10196000B8EEC11AB0EE410A954807F03DFCBDEE55
:10197000C00A10EE100A00B290490883914800880E
:10198000C0F57A708A4909784843C0F57A708E4963
:1019900008808A48B0F9100001EE100AB8EEC11AAA
:1019A000F0EE410A8548B0F9180001EE100AB8EED1
:1019B000C11AB0EE410A854807F016FC7F4880ED59
:1019C000070A10BD10B503467748007C012807D1EF
:1019D00032B9724800887E4C208000207D4C2070F7
:1019E000581A002801DB044600E04442022C0EDABB
:1019F000784C2478012C0AD00120764C207067485E
:101A00000088754C208072480088744C2080724891
:101A10000088724C2488001B80B210BD14205E49DF
:101A200008830A215C48817670477047704710B57B
:101A30000B684A69D21A6A4B1A601C462368002B4D
:101A400001DB1C4600E05C42062C0CDDB1F91020E5
:101A5000002A01DB144600E054420A2C03DA426AF1
:101A6000521C426201E000234362426A642A07D9A1
:101A700090F8202022B9012280F82020594B1A70BA
:101A800090F82020012A40D1564A1278012A04D029
:101A9000022A11D0032A37D124E00A68323A524B85
:101AA0001A601A4692ED000AB8EEC00A80ED050AE7
:101AB00002224C4B1A7027E04B4A92ED000AB8EE16
:101AC000C00A80ED050A14460B6824681A1B002A18
:101AD00001DB134600E05342282B02DA0322414B7C
:101AE0001A7011E0002280F820203E4B1A70028903
:101AF0000280B0F9002000EE102AB8EEC00A80ED96
:101B0000010A0023436200BF00BF10BD10B5137B64
:101B1000D47A43EA04231BB28B80947B537B44EA40
:101B200003231BB20B828B898C881B1B1BB2CB81BE
:101B3000B1F90E30B3F5805F04DD8B6803F5005317
:101B40008B6008E0B1F90E3013F5805F03DA8B6823
:101B5000A3F500538B60B1F904408B68234400EE79
:101B6000103AB8EEC00ADFED210A80EE201ABDEE71
:101B7000C10A81ED000A8B888B8191ED000AB8EED5
:101B8000C00ADFED0C0A80EE201ABCEEC10A10EE8E
:101B9000103A1BB2038110BD9408002004040020F9
:101BA000E1020020E002002044060020F1020020B3
:101BB000D8020020BC749341B4024342BC08002008
:101BC00054020020DA020020DC02002096020020ED
:101BD000EE020020E8020020EC020020EA020020D1
:101BE000F4020020F8020020E402002000007A4401
:101BF00001884FF6FE72914202DA0188491C018089
:101C00007047002101807047034602EB82004000CC
:101C1000984202DA0120087001E00020087008787C
:101C20007047494931F81010491C8AB2464921F8D9
:101C30001020704700200AE0434931F810201A397B
:101C400021F8102000221A3121F81020401C0D2804
:101C5000F2DB704710B53D4800684FF47A71B0FB75
:101C6000F1F201FB120008B9FFF7E4FF002411E0D4
:101C70003549423901EB4400FFF7BAFF324B5C3B78
:101C800033F81420343319191A3B33F81400FFF7D2
:101C9000BBFF641C0D2CEBDB2D480078012823D101
:101CA00029485C3890F83500012809D12748006898
:101CB000B0F5FA6F04D9012026490860264908804A
:101CC000FEF7BFFB05280FD008200BE01E4928397E
:101CD000095C012905D1891E1E4A116001B21E4A04
:101CE0001180401C0C28F1DD17485C3890F8360054
:101CF000012815D1FEF7A5FB012806D0FEF7A1FBB0
:101D000018B1FEF79EFB022803D10320FEF720FB4B
:101D100006E0FEF796FB052802D00320FEF718FB2D
:101D20000E49C97C61B90D49897C49B90B49B1F9A2
:101D30000A00002801DB014600E04142032902DDE0
:101D400000200349087010BD58030020040400203F
:101D50007203002078030020740300204406002052
:101D6000704770B52DED088B04469FEDFE0AB0EE6E
:101D7000408A00EE104AB8EEC00ADFEDFB0A80EEA2
:101D8000201A11EE105A28460AF082F941EC1B0B7A
:101D9000B0EE4B0AF0EE6B0A08F05EFCB0EE40AA23
:101DA000F0EE60AA9FEDF10B53EC102B51EC1A0BE7
:101DB00009F0AEFE41EC190B09F01EFC08EE100A0A
:101DC000EC4880ED008AB2EE080AB4EEC08AF1EE6B
:101DD00010FA02DDB2EE080A01E0B0EE480AB0EEF9
:101DE000408ABAEE080AB4EEC08AF1EE10FA02D2C6
:101DF000BAEE080A01E0B0EE480AB0EE408AB0EE52
:101E0000480ABDEC088B70BDDB4A01FB012300EEE4
:101E1000903A01EE902AF8EEE11AB8EEE02AC1EE0F
:101E2000822AB0EE621ADFEDCF1AB0EE610A01EE3F
:101E3000900AF8EEE11A61EE811A9FEDCB2AC1EE0D
:101E4000822AB0EE620ADFEDCD1A60EE211AB0EE02
:101E5000610A704730B52DED108B81B00446F0EE6D
:101E6000408AB2EE000AF4EEC08AF1EE10FA03DD09
:101E7000B2EE000AF0EE408A94ED000ADFEDC00AEF
:101E800030EEC00ADFEDBF0A20EE20FA1FEE100A86
:101E90000AF0FEF841EC1A0BB0EE4A0AF0EE6A0ABC
:101EA00008F06EFEB0EE409AF0EE609A51EC190B1D
:101EB00009F0A2FB08EE100A9FEDAA0A8DED000AB8
:101EC0009FEDA80AF0EE40FA1FEE100A0AF0E0F8C3
:101ED00041EC1B0B9FEDAC0A68EE800AB7EE000ADE
:101EE00008EE480A20EE800ADFEDA80A08EE600A34
:101EF000DFEDA60A80EE201A11EE105A28460AF0ED
:101F0000C7F841EC1E0BB0EE4E0AF0EE6E0A08F078
:101F10005BF9B0EE40DAF0EE60DA51EC1D0B09F03F
:101F20005FFB41EC1C0B53EC1B2B09F097FB41ECC6
:101F30001A0B9FED970B53EC102B09F0E9FD41ECC8
:101F4000190B09F059FB00909DED000ADFED920A94
:101F500020EE200AF0EE40FA9FED900A2FEE800A64
:101F6000DFED8F0A80EE201A9FED850A30EE410AE0
:101F700084ED000AB0EE6F0A01B0BDEC108B30BDED
:101F80003CB50146DFED870AB4EEE00AF1EE10FA47
:101F900003DDDFED840AB0EE600ADFED830AB4EE04
:101FA000E00AF1EE10FA03D2DFED7F0AB0EE600A2C
:101FB0002D2900DD2D2111F12D0F01DA6FF02C01FB
:101FC000002006E0794A32F810202DF81020421C3B
:101FD000D0B20228F6DBADF80410002226E0002083
:101FE0001EE03DF91040431C3DF913309C4215DAC8
:101FF0003DF9103001EE103AB8EEC11AF0EE410A88
:10200000431C3DF813302DF81030BDEEE01A11EEF0
:10201000103A1CB2431C2DF8134000BF431CD8B229
:10202000C2F102038342DCDC501CC2B2022AD6DBBE
:10203000BDF9020000EE900AF8EEE00A5C48C0ED3F
:10204000000A5C48D0ED000AB6EE001A60EE810A84
:10205000574890ED001AF6EE001A41EE210A554855
:10206000C0ED000AD0ED000AB2EE041A60EE810A5B
:10207000FDEEE00A10EE900A00B24F4A10804D4883
:10208000D0ED000AB2EE041A60EE810AFDEEE00A1D
:102090004A48C0ED000A4748D0ED000A70EE800AB9
:1020A0004748C0ED060AD0ED060AB2EE041A60EE0B
:1020B000810AFDEEE00A4348C0ED000A4048D0ED39
:1020C000070AB5EE001A60EE810A90ED061AF6EEE8
:1020D000081A41EE210AC0ED070AD0ED070AB2EE58
:1020E000041A60EE810AFDEEE00A3748C0ED000AEE
:1020F0003CBD0146312901DD312200E00A4611468E
:10210000324A1288521A10B2002802DA00F1320262
:1021100000E0024610B22E4A02EB800292ED000A65
:10212000704770B52DED088B05460C46294890ED9B
:102130000A0AF2EE040A20EE200ABDEEC00A264882
:1021400080ED000A254890F83900012803D10020CD
:102150001B49487008702248007A022844D1184868
:1021600000783FE0000000000080B64400000060FE
:1021700066A64C407C03002090862000000066424A
:1021800000E8E0458010493ACDCC1C41866BF6430F
:10219000000000000000E03F3333654200000046CD
:1021A0000000B44300003442000034C2BC030020ED
:1021B000B0030020C4030020A803002090030020E7
:1021C0001C1000209403002098030020A603002088
:1021D000DC080020E40D00209C030020FC0200200D
:1021E00044060020012807D0FE48407C012808D181
:1021F000FD480078012804D10120FB4981F8210025
:1022000003E00020F84981F82100F7480078012810
:1022100009D1F6480078142808DAF4480078401C00
:10222000F249087002E00020F04908701620FFF71C
:1022300060FFED4880ED050A90ED050AF2EE040A14
:1022400020EE200ABDEEC00AE94880ED000AE64A09
:102250001289A2F2DE3211B2E34AB2F91000FFF79E
:10226000D3FDE44880ED000AE048007803280FDD44
:10227000DD48D0ED050AB0EE600ADE48D0ED000A78
:10228000FDEEE00A10EE900A00B2FFF779FE04E0DE
:1022900000201FED4C0AFFF773FED44800780A288F
:1022A00010DAD248007800EE100AF8EE400AB2EEDA
:1022B000041A80EE810ACC48D0ED070A20EE200AED
:1022C00080ED070AC84890F82100012875D1C6485A
:1022D000408800EE100AB8EE400AF2EE020A80EEE4
:1022E000801A11EE106A304609F0D2FE41EC1B0B49
:1022F000B0EE4B0AF0EE6B0A08F0AEF9B0EE40AA71
:10230000F0EE60AA9FEDBC0B53EC102B51EC1A0BB6
:1023100009F0FEFB41EC190B09F06EF908EE100A0A
:10232000B1490989A1F2DE3108B2FFF71AFDF2EED8
:10233000040A20EE200AB248D0ED000AB2EE041AD8
:1023400000EE810A30EE480A85ED000AA649498967
:10235000A1F5117108B2FFF704FD5FED700A20EEE0
:10236000200A1FED711AC0EE010AA64890ED000A7E
:10237000B8EEC00A30EE600A84ED000A9A4890ED8B
:10238000010ADFEDA10A80EE201AF0EE418AB0EEDC
:10239000680A2046FFF75EFD9C4880ED000A9248DF
:1023A000408894ED000ADFED9A0AB4EEE00AF1EEFF
:1023B00010FA03DD9FED960A02E020E094ED000A9A
:1023C00084ED000A94ED000ADFED920AB4EEE00A13
:1023D000F1EE10FA02D29FED8F0A01E094ED000AAF
:1023E00084ED000A95ED000A8548D0ED000AB2EEB2
:1023F000041A00EEC10A884880ED000A00BFBDEC57
:10240000088B70BD85488649098800EB810080ED06
:10241000000A83480088401C8149088008460088DB
:10242000322801DB002008807047B0EE401ADFED53
:102430007D2AB0EE620ADFED7C2AF4EEE20AF1EECC
:1024400010FA03DDDFED782AF0EE620ADFED772A7D
:10245000F4EEE20AF1EE10FA03D2DFED742AF0EEA8
:10246000620AF1EE042AB4EEE21AF1EE10FA28DD67
:10247000DFED6F2A31EE623ADFED6E2AF3EE043AB9
:1024800043EE632AB0EE620AF2EE0E2AB4EEE20ADE
:10249000F1EE10FA02D2F2EE0E2A01E0F0EE402A3E
:1024A000B0EE620ADFED632AB4EEE20AF1EE10FA52
:1024B00002DDDFED602A01E0F0EE402AB0EE620AB4
:1024C00003E0DFED582AB0EE620AF1EE022AB4EE24
:1024D000E21AF1EE10FA03DDF1EE022AB0EE621A12
:1024E0009FED553AC1EE032A9FED543A32EE832A0E
:1024F00060EE821AF4EEC01AF1EE10FA01DDF0EE91
:10250000401AF1EE402AF4EEE21AF1EE10FA03D28C
:10251000F1EE402AF0EE621AD0ED002A72EEA12A06
:10252000C0ED002A704770B52DED068B0446B0EE65
:10253000408A00EE104AB8EEC00AC8EE000A10EE5B
:10254000906A304609F0A4FD41EC1A0BB0EE4A0A3D
:10255000F0EE6A0A08F080F8B0EE409AF0EE609A69
:1025600051EC190B09F07AFA051E01DB284600E050
:10257000684200EBC00101EB001000EE100AF8EE1B
:10258000C08AB0EE680ABDEC068B70BD2DE9F04143
:102590002DED0A8BB0EE408A04460D4600276421DB
:1025A00004FB01F0C11700EB11710911491D09EE7F
:1025B000901A00EE105AB8EEC00ADFED210A80EE44
:1025C000201A11EE106A304609F062FD41EC1C0B36
:1025D000B0EE4C0AF0EE6C0A08F03EF8B0EE40BAED
:1025E00030E00000440600201C100020A40300205E
:1025F000880300208C0300200000000000E88140D8
:1026000034060020340000200000C842800300206F
:102610000008E4450008B245A0030020DC080020C3
:10262000A60300200000A0420000FA430000FAC305
:10263000CDCC4C4000008C429A99B141CDCCCC3EDF
:1026400066E6E744F0EE60BA9FEDA80B53EC102B62
:1026500051EC1B0B09F05CFA08F0CEFF08EE900A73
:10266000B8EEE90A20EE080ADFEDA20A80EE201A91
:10267000B0EE419A202C2FDD292C16DDBDEEC80AC4
:1026800010EE100A002801DB014600E041424FF441
:102690007A7202EB8102A4F1280101EB810102EBC5
:1026A000011109B2944A118055E0BDEEC80A10EE3E
:1026B000100A002801DB014600E041424FF4167287
:1026C00002EB4102A4F1140101EB810102EBC10113
:1026D00009B2894A11803EE0BDEEC80A10EE100A28
:1026E000002801DB014600E04142282903DA4FF4CB
:1026F000967081490880BDEEC80A10EE100A0028C5
:1027000001DB014600E041423C2904DA4FF4FA7053
:10271000794908801FE0BDEEC80A10EE100A0028B3
:1027200001DB014600E04142822904DA4FF42F70B8
:10273000714908800FE0BDEEC80A10EE100A0028AB
:1027400001DB014600E041424FF42F7202EB4101F0
:1027500009B2694A1180282C00DD2824B2EE040A4F
:1027600028EE800ABDEEC00A10EE100A00B26349DE
:102770000880B2EE040A29EE000ABDEEC00A10EE8F
:10278000100A00B25E49088039EE280AF2EE040A07
:1027900020EE200ABDEEC00A10EE100A00B2594920
:1027A00008809FED590A2046FFF7BDFE79EE280A02
:1027B000FDEEE00A10EE906A002E01DB304600E0EC
:1027C000704200EE900AF8EEE00AB4EEE00AF1EE94
:1027D00010FA39DD4D480078401C4C490870084615
:1027E0000078322801DD322008704848007802283D
:1027F0002DDD4749D1ED030A91ED000AB8EEC00A7C
:1028000030EEC00ABDEEC00A10EE100A002801DB4F
:10281000014600E04142172919DA3E4991F8391082
:10282000A9B93D4991ED070ABDEEC00A10EE100AA4
:10283000002801DB014600E04142B1F5CD7F06DA18
:102840002E2C04DC012702E00020304908703846B5
:10285000BDEC0A8BBDE8F08110B52F4890F821003F
:10286000012813D12C4A1289A2F2DE3211B22A4A6F
:10287000528810B2284AD2ED060AB0EE600AFFF77D
:1028800085FE012800D110BD0020FCE70020FAE7FA
:102890000022204890F8390028BB1F4B5B89A3F524
:1028A0001171002901DB0B4600E04B421E2B1BDAA5
:1028B000194B1B89A3F2DE30002801DB034600E040
:1028C0004342052B10DA144991ED060ABDEEC00A09
:1028D00010EE100A002801DB014600E041422829E1
:1028E00002DA012200E0002210467047000000607A
:1028F00066A64C4000401C46BA030020B8030020E6
:10290000B6030020B40300203333B33EC8030020D5
:1029100034000020FC0200201C100020102803D1ED
:102920001021254A118014E0152803D11521224ACF
:1029300011800EE0192803D119211F4A118008E0E7
:102940001C2803D11C211C4A118002E000211A4AD4
:1029500011801949098809B2184A11801649098855
:1029600001EB81014FF47A7202EB4101491D124AD9
:102970009180114609899288891A012905DB0E493F
:102980000989491E0C4A11810AE00B4909890A4A42
:102990009288891A04D508490989491C064A118177
:1029A00005490989064A116003490989121D116008
:1029B0007047014670470000CA030020E003002072
:1029C000340C004010B51520FFF7A8FF61480078CF
:1029D00008B961480078604800785F4800785D4930
:1029E00008705E48007820B101281AD0022831D141
:1029F0002FE05B48007801280AD15A48B0F900005E
:102A000040F2B27188420BDD00205549087007E0A2
:102A10005448B0F90000462802DA012050490870F5
:102A200019E04F48007801280AD14E48B0F900005B
:102A300040F6462188420BDD00204949087007E036
:102A40004848B0F900003C2802DA012044490870E7
:102A500001E000E000BF00BF4348007810B101284A
:102A600076D155E03C48007801280CD13E490870E9
:102A70003E4890ED000AF2EE040A20EE200A3C489F
:102A800080ED080A39E03948D0ED000A9FED390A97
:102A9000B2EE041A00EE810A354880ED080A364885
:102AA000007810B1012827D113E09FED340A304897
:102AB00080ED030A32480068401C3149086008462E
:102AC0000068DC2804D90020086001202A49087029
:102AD00012E09FED2C0A264880ED030A2A48006880
:102AE000401C2949086008460068DC2803D90020FA
:102AF00008602149087000BF00BFBE20234948611B
:102B000040420861962022494861404208611FE026
:102B100050201E4948614042086164201C494861B8
:102B2000404208610C480078012803D1002019496F
:102B3000086004E017480068401C16490860154802
:102B40000068B0F5167F02D900200749087000BF61
:102B500000BF10BDEC0300201C100020E303002088
:102B6000E203002092060020E40300203406002047
:102B70003400002000003443ED03002000C0DF4596
:102B8000F003002000E0C445F40300209E00002074
:102B900022010020E803002061480088614909887B
:102BA00088420CD05E48D0ED010A5F48D0F80200A0
:102BB00000EE100A30EE800A594880ED010A4FF409
:102BC000F07057490881594800686E21B0FBF1F256
:102BD00001FB1200F0BB5248D0ED010A0089400011
:102BE00000EE100AB8EEC00AF4EEC00AF1EE10FAD8
:102BF00009DD4B480089400000EE100AB8EEC00A1B
:102C0000474880ED010A464890ED010AF3EE000ABC
:102C100030EE600A80ED010A90ED010AB5EEC00ABF
:102C2000F1EE10FA02D29FED420A02E03C4890ED2C
:102C3000010A3B4880ED010A3E48408900EE100A37
:102C4000B8EE400A3648D0ED010A30EE600AF2EEE6
:102C5000040A00E016E0B4EEE00AF1EE10FA08DB38
:102C60003448408900EE100AB8EE400A2C4880ED46
:102C7000010A2B4890ED010ABCEEC00A10EE100AC2
:102C80002D49088026480088264908807047244836
:102C90000088401C224908807047284890F8380076
:102CA00020BB1F4890ED010ADFED250A70EEC00A37
:102CB0002448B0F90000400000EE100AB8EEC00A47
:102CC000F4EEC00AF1EE10FA01DD012070471E4853
:102CD00000891D4908800846B0F9000000EE100A7E
:102CE000B8EEC00A084680ED010A16E01548B0F9B2
:102CF0000000A02393FBF0F0401E01B24FF47A7065
:102D000090FBF1F002B21048C068084B1B68181A1B
:102D1000904201D30120D9E700BF0020D6E7000090
:102D2000A4090020FA0300206D06002004040020FE
:102D300000000000840F0020F8030020FC020020A7
:102D40000000F043E00300209408002010B54FF489
:102D5000A06002F017F8A82000F074F900F04CFA17
:102D600000F0F2F900F0DBFA642000F0CDF9002069
:102D700000F0F6FA012000F0F3FA022000F0F0FA79
:102D8000032000F0EDFA00F037F800F0C7F805F086
:102D900017F90021084600F044FD044621460920A9
:102DA00000F0E8FC00F090FB00F0F6FA00F05CFDAB
:102DB0000F4800F079FE4FF4E13001F0F1FA4FF4E2
:102DC0007A3001F03BFE4FF4E13001F067FC00F097
:102DD000A9FD05F080FB00F011FE4FF47A7000F0C1
:102DE00093F900F02EFE01200249087010BD00008A
:102DF000A0860100FC03002000B58BB00121082053
:102E000003F023FA0121480603F066FA012148067F
:102E100003F0B7FA00214FF0007003F0B2FA03207C
:102E2000099002208DF8280000208DF82A00032048
:102E30008DF8290001208DF82B0009A9354802F0F2
:102E400063FF09220021334802F0E9FF0922012132
:102E5000304802F0E4FF00208DF81E0001208DF8BC
:102E60001F0000208DF820008DF821008DF8220031
:102E70008DF823008DF81A008DF81B0008208DF8BE
:102E80001C0003208DF81D00ADF8180006A922488B
:102E900002F001F800208DF812008DF813000120D7
:102EA0008DF814000020ADF80800ADF80A00ADF868
:102EB0000C00ADF80E00ADF8100001208DF81500E3
:102EC00002A802F072F801220221134802F06CFB02
:102ED00014208DF8040001208DF8050000208DF8E5
:102EE000060001208DF8070001A801F050FF0BB08B
:102EF00000BD00B585B00221074802F0BDFB30B12E
:102F00000221054802F053FC684604F0D5FD05B0E7
:102F100000BD0000000C02400064004000B58BB012
:102F20000121022003F091F90121880603F0D4F970
:102F30000121880603F025FA00214FF0806003F09C
:102F400020FA4FF44050099002208DF8280000200C
:102F50008DF82A0003208DF8290001208DF82B0020
:102F600009A9364802F0D0FE09220C21334802F0AC
:102F700056FF09220D21314802F051FF00208DF843
:102F80001E0001208DF81F0000208DF820008DF814
:102F900021008DF822008DF823008DF81A008DF89D
:102FA0001B0008208DF81C0003208DF81D00ADF8D3
:102FB000180006A9224801F06EFF0E208DF81200BD
:102FC00000208DF8130001208DF814000020ADF8CA
:102FD0000800ADF80A00ADF80C00ADF80E00ADF831
:102FE000100001208DF8150002A801F0DEFF01227B
:102FF0000221134802F0D8FA40208DF80400012085
:103000008DF8050000208DF8060001208DF80700DE
:1030100001A801F0BCFE0BB000BD00B585B00221D7
:10302000074802F029FB30B10221054802F0BFFB3E
:10303000684604F02CFF05B000BD0000000402400B
:103040000068004010B504466FF0040001F0ECFE8B
:10305000E11704EB5171C1F3C701394A11701046F1
:10306000007800EB4001C1EBC0104FF6FF7101EAA0
:10307000C0003449088010BD0146314A12784A43E5
:103080004FF0E0235A6100229A611A46126942F019
:1030900001021A6100BF4FF0E022106900F0010246
:1030A0001AB100F48032002AF5D04FF0E022126904
:1030B00022F001024FF0E0231A6100229A6170476A
:1030C0000146204A12884A434FF0E0235A61002209
:1030D0009A611A46126942F001021A6100BF4FF06C
:1030E000E022106900F001021AB100F48032002AD7
:1030F000F5D04FF0E022126922F001024FF0E023F8
:103100001A6100229A61704770B504464FF4077047
:1031100094FBF0F0C6B24FF4077094FBF0F100FBA3
:10312000114085B205E04FF40770FFF7C9FF701E2C
:10313000C6B2002EF7D115B12846FFF7C1FF70BD0A
:10314000FE030020000400201CB50121402003F0F4
:103150007CF84FF40050009001208DF8040000200E
:103160008DF8060003208DF805006946044802F03A
:10317000CBFD4FF40051024802F044FE1CBD00009C
:10318000001802401CB50121402003F05EF84FF406
:10319000FF70009001208DF8040000208DF80600DB
:1031A00003208DF8050001208DF8070069464F487F
:1031B00002F0AAFD02214D4802F022FE04214B48F4
:1031C00002F01EFE0821494802F01AFE102147486D
:1031D00002F016FE2021454802F012FE402143482D
:1031E00002F00EFE8021414802F00AFE4FF4807189
:1031F0003E4802F005FE1CBD1CB50121102003F065
:1032000024F80121202003F020F84FF40060009002
:1032100001208DF8040000208DF8060003208DF8B1
:10322000050001208DF807006946314802F06CFD69
:103230004FF48040009001208DF8040000208DF8AC
:10324000060003208DF8050001208DF8070069466F
:10325000284802F059FD012027490860002027492D
:10326000C1F8AC02FFF78EFF1CBD10B5014601206E
:103270000AE0421E41FA02F202F00102204C04EB85
:103280008003C3F88022401C0928F2DB10BD30B552
:1032900004460025082C01DD082000E020460446F5
:1032A00014F1080F02DA6FF0070000E02046044630
:1032B000002C09DB002004E0012181402943CDB22C
:1032C000401CA042F8DB0BE0002006E0C0F1080241
:1032D000012191402943CDB2401C61428842F5DB77
:1032E000E843C5B22846FFF7C0FF30BD00180240D2
:1032F0000010024000140240B882424200004242E4
:103300000000434210B50446032C00DD10BD04202C
:10331000A04081B21F4802F075FD00BFF6E71CB562
:103320000121802002F091FF3C20009001208DF8C7
:10333000040000208DF8060003208DF80500012010
:103340008DF807006946134802F0DEFC002404E013
:103350002046FFF7D7FF601CC4B2042CF8DB1CBD6D
:1033600010B50446032C00DD10BD0420A04081B23E
:10337000084802F045FD00BFF6E710B50446032CEF
:1033800000DD10BD0420A04081B2024802F043FDE0
:1033900000BFF6E7001C024000B58BB00121802081
:1033A00002F053FF0121080202F04FFF0121082023
:1033B00002F092FF4FF4E050099002208DF82800AF
:1033C00003208DF8290009A9E24802F09DFC0120A4
:1033D000099002208DF8280003208DF8290009A902
:1033E000DD4802F091FC02220A21DA4802F017FDC2
:1033F00002220B21D74802F012FD02220C21D548EF
:1034000002F00DFD02220021D34802F008FD5320F6
:10341000ADF818000020ADF81A0042F20F700790C6
:103420000020ADF8200006A9CC4803F04EFB702028
:10343000ADF804000120ADF806000020ADF808004A
:103440004FF4FA6003900220ADF810000020ADF8B0
:103450001200ADF814004FF48070ADF8160001A909
:10346000BE4803F0C7FB01A9BC4803F0FCFB01A95F
:10347000BA4803F045FC01A9B84803F0A7FC0821AD
:10348000B64803F044FD0821B44803F049FD082183
:10349000B24803F052FD0821B04803F057FD012166
:1034A000AE4803F07DFB0121AC4803F097FB4FF4DD
:1034B0007A70AA4934310860091D0860091D086046
:1034C000091D08600BB000BD00B58BB001210820BC
:1034D00002F0BBFE0121042002F0FEFE4FF470401A
:1034E000099002208DF8280003208DF8290009A9F1
:1034F0009B4802F009FC02220C21994802F08FFC43
:1035000002220D21964802F08AFC02220E219448E4
:1035100002F085FC02220F21914802F080FC53202A
:10352000ADF818000020ADF81A0041F613600790BE
:103530000020ADF8200006A98A4803F0C6FA7020E2
:10354000ADF804000120ADF806000020ADF8080039
:103550004FF47A7003900220ADF810000020ADF80F
:103560001200ADF814004FF48070ADF8160001A9F8
:103570007C4803F03FFB01A97A4803F074FB01A9E2
:10358000784803F0BDFB01A9764803F01FFC082131
:10359000744803F0BCFC0821724803F0C1FC082108
:1035A000704803F0CAFC08216E4803F0CFFC0121EB
:1035B0006C4803F0F5FA01216A4803F00FFB4FF461
:1035C0007A70684934310860091D0860091D086077
:1035D000091D08600BB000BD00B58BB001210802C9
:1035E00002F033FE0121802002F02FFE012108208D
:1035F00002F02BFE0120019002208DF8080003202C
:103600008DF8090000208DF80A0001208DF80B00CC
:1036100001A9514802F078FB4FF4E050019001A954
:103620004C4802F071FB4FF48050019001A94C48C6
:1036300002F06AFB02220021474802F0F0FB02225E
:103640000C21444802F0EBFB02220B21414802F01E
:10365000E6FB02220A213F4802F0E1FB02220C2194
:103660003F4802F0DCFB0121082002F035FE012179
:10367000042002F031FE0020ADF82800ADF8220051
:1036800044F61F6009905320ADF8200000208DF80B
:103690002A0008A9314803F018FA40F24730ADF883
:1036A000200040F2E730099008A92E4803F00DFAF7
:1036B0006020ADF80C000120ADF80E004FF47A70D8
:1036C00005900020ADF8180003A9244803F07EFB04
:1036D00003A9224803F014FB03A9204803F0C3FA0E
:1036E00003A91E4803F086FA01211C4803F00FFCD1
:1036F00001211A4803F014FC0121184803F01DFCB5
:103700000121164803F022FC0121144803F048FA75
:103710000121124803F053FE0121104803F05EFA24
:103720004FF4FA70059003A90E4803F063FA0121E3
:103730000C4803F0ECFB01210A4803F031FA0121A7
:10374000084803F03CFE0121064803F047FA0BB09D
:1037500000BD0000001C024000200240000C0040A0
:10376000000C02400008004010B500213A4803F068
:103770009AFB10BD30B58BB004460D4601214020A8
:1037800002F0AAFD0121802002F05FFD012140200E
:1037900002F0F7FD0021402002F0F3FD092206218E
:1037A0002E4802F03CFB4020099002208DF82800B2
:1037B00003208DF8290000208DF82A0002208DF8C2
:1037C0002B0009A9254802F09FFA6020ADF80400FB
:1037D0000120ADF806000020ADF8100001A91E4838
:1037E00003F008FA08211C4803F091FB01211A4854
:1037F00003F0D6F9681E0790601E80B2ADF818007D
:103800000020ADF81A00ADF8200006A9124803F018
:103810005CF90121104803F0E1F9FFF7A5FF0BB0B7
:1038200030BD10B5024643F6BD600D4B03EB0213ED
:1038300033F811300B4C94FBF3F398B210BD064AE9
:1038400028321080121D1160704710B504462146C1
:10385000014803F028FB10BD00180040001C024086
:1038600012C80008802C800000B58BB00121022016
:1038700002F0EBFC2020099002208DF828000320A4
:103880008DF8290000208DF82A0001208DF82B00EA
:1038900009A9224802F038FA022205211F4802F045
:1038A000BEFA0121022002F017FD0020ADF8200031
:1038B000ADF81A0044F61F6007905320ADF81800C9
:1038C00000208DF8220006A9154803F0FEF86020BC
:1038D000ADF804000120ADF8060000200390ADF81B
:1038E000100001A90E4803F0BEF901210C4803F0B5
:1038F00017FB01210A4803F053F90121084803F09E
:103900005EFD0BB000BD44F62062424344F62063E6
:1039100092FBF3F1024A3832116070470004024012
:103920000004004000B587B00121202002F08DFC8A
:103930000121080502F0E1FC4FF4607005900220BF
:103940008DF8180000208DF81A0001208DF81B005A
:1039500003208DF8190005A9264802F0D5F90522A3
:103960000721244802F05BFA05220821214802F0D1
:1039700056FA052209211F4802F051FA402005900D
:1039800001208DF8180000208DF81A0001208DF814
:103990001B0003208DF8190005A9164802F0B4F9A0
:1039A0004021144802F02CFA4FF48270ADF8020066
:1039B0000020ADF80400ADF800004FF40070ADF841
:1039C0000A000020ADF80E000120ADF8080002202A
:1039D000ADF806002020ADF80C000A20ADF810006C
:1039E0006946054802F0D0FD0121034802F0C6FEF9
:1039F00007B000BD00140240005001401FB5012176
:103A0000102002F069FC36208DF8000002208DF8AD
:103A1000010001208DF802008DF80300684601F0D6
:103A2000B6F95320ADF804000020ADF80600ADF85B
:103A30000C004FF47A70029001A9194803F045F880
:103A40001FBD10B50121164803F0C8F80122114628
:103A5000134803F0DBFC0121114803F0EBFC10BD1F
:103A600010B501210E4803F0E8FCC0B101210C485B
:103A700003F0F4FC01210A4803F0DCFCFCF7B6FE7D
:103A800008480068401C074908600846006864212F
:103A9000B0FBF1F201FB120008B9FCF707FF10BD03
:103AA000001000400404002010B596B00446012127
:103AB000022002F0CAFB0121102002F01EFC0722A6
:103AC00011464C4802F0ABF914A802F065F98020C9
:103AD000149002208DF8540001208DF85700022028
:103AE0008DF8550000208DF8560014A9414802F0C9
:103AF0000BF9414803F08EFD10A803F058FE3F4833
:103B000010900020ADF84400ADF846004FF48060FE
:103B1000ADF848000420ADF84A000020ADF84C0094
:103B200010A9354803F0DDFD0121334803F061FEA3
:103B300001224021304803F009FF314801F08AFE9C
:103B40000121880502F081FB4FF0006000902A48B7
:103B5000001D01902B480290002003901220049039
:103B6000002005904FF48060069000200790089098
:103B70004FF4807009904FF440300A9000200B9071
:103B80000C900D900E9069461D4801F005FF012232
:103B900010211B4801F0C7FF0121194801F036FF31
:103BA0003A208DF83C0000208DF83D008DF83E0055
:103BB00001208DF83F000FA801F0E9F816B010BD04
:103BC00010B511490E4801F0CBFF88B14FF081517B
:103BD0000B4801F094FF0C49094801F0EBFF09483C
:103BE00004F0DAFF0948FEF70CF80220FEF719F896
:103BF00010BD00000004024000100140A08601003A
:103C000040640240B0090020008020101A03002008
:103C100010B596B004460121082002F016FB0121E0
:103C2000480502F012FB0121480402F055FBFB4855
:103C300003F0F0FC0121F94803F0EFFD0722052114
:103C4000F74802F0ECF807220621F54802F0E7F801
:103C50006020149002208DF8540000208DF856004A
:103C600003208DF8550000208DF8570014A9EC486A
:103C700002F04AF826208DF83C0002208DF83D0025
:103C800001208DF83E008DF83F000FA801F07FF86D
:103C900010A803F08CFD10940020ADF84400ADF89E
:103CA0004600ADF848000C20ADF84A000020ADF801
:103CB0004C0010A9D94803F014FD012240F2244120
:103CC000D64803F04CFE01224021D44803F03EFECA
:103CD0000021D24803F08DFDD24801F0BBFD4FF02A
:103CE00000600090CD48001D0190CF480290002058
:103CF000039064200490002005904FF480600690AB
:103D000000200790089009904FF480300A9000201E
:103D10000B900C900D900E906946C248603001F0F7
:103D20003BFE10208DF83C0002208DF83D00012064
:103D30008DF83E008DF83F000FA801F028F8012211
:103D40001021B848603001F0EEFE0022B64964311F
:103D5000B448603001F081FE0121B248603001F0CA
:103D600088FE0121AF48603001F050FE16B010BD52
:103D700000B591B00121480502F067FAA9487830F2
:103D800001F068FD4FF000600190A448001D029012
:103D9000A6480390402004904FF4C870059000207E
:103DA00006904FF4806007900020089009900A90D8
:103DB0004FF400300B9000200C9001200D9000205B
:103DC0000E900F9001A99748783001F0E5FD01228F
:103DD00010219448783001F0A6FE012280218F48FE
:103DE00003F0B4FD11208DF8400002208DF8410051
:103DF00001208DF842008DF8430010A800F0C7FFA5
:103E000000218848783001F001FE11B000BD70B586
:103E100004460D4600BF864800780028FBD10120EB
:103E2000834908702A462146804806F0B9F8294699
:103E30007C48783001F00BFE01217A48783001F09F
:103E4000E5FD70BD10B57B497648783001F088FEFD
:103E500078B178497348783001F051FE00217148FB
:103E6000783001F0D3FD012240F226616B4803F067
:103E700076FD10BD10B540F22771684803F0AAFD29
:103E800040B9002240F22661644803F068FD00203A
:103E90006749087010BD0146B1F8C800B1F8CA20E2
:103EA000904201D1C7207047B1F8CA00B1F8C820CC
:103EB000801A012806D0B1F8CA00B1F8C820801ACB
:103EC000C73008B90020EEE7B1F8CA00B1F8C82041
:103ED000801A401E002806D4B1F8CA00B1F8C820E4
:103EE000801A401E05E0B1F8CA00B1F8C820801A57
:103EF000C73080B2D7E72DE9F04104460F4615469A
:103F00002046FFF7C8FFA84227DB002D25DDB4F8C7
:103F1000C8002844C8280CDAB4F8C81008192A4682
:103F2000394606F03DF8B4F8C8002844A4F8C800A3
:103F300016E0B4F8C800C0F1C806B4F8C8100819F3
:103F40003246394606F02CF8AA1BB919204606F06D
:103F500027F8A81BA4F8C80002E00020BDE8F08103
:103F60000120FBE710B540F224412C4803F032FD5C
:103F7000002852D001203049A1F8CE0027480088FF
:103F80002648001D00882748603001F082FDE0BB14
:103F900000202A490870002210212248603001F0D8
:103FA000C2FD00211F48603001F030FD24491D484A
:103FB000603001F0FFFD1B48603001F04AFDC0F1A8
:103FC000640020490860642016496431086015487F
:103FD0002838D0F8880040F4002012492839C1F868
:103FE00088001848008882B21448007800EBC003AB
:103FF00003EB00100C4B03EB80010F48FFF77BFF36
:10400000012210210748603000E01DE001F08BFD27
:1040100001210448603001F0F9FC52E00044004006
:10402000000C024028600240CA090020620B0020F8
:104030000804002000802020920A002009040020AB
:10404000008800200C0400200120CE4908700022C6
:104050001021CD4801F067FD0021CB4801F0D6FCCE
:10406000CA49C94801F0A6FDC74801F0F2FCC0F1F9
:104070006400C74908606420C349091D0860C2483C
:104080008838D0F8880020F40020BF498839C1F86A
:104090008800BF48008882B2BA48007800EBC003AD
:1040A00003EB0010BB4B03EB8001BB48FFF723FF82
:1040B00001221021B44801F036FD0121B24801F07F
:1040C000A5FC10BD10B5FFF7D5FEFFF74BFF10BDE7
:1040D00010B5AE49AC4801F043FDF0B1AB49AA4878
:1040E00001F00DFDA84801F0D4FC08B9012000E062
:1040F0000020A4490870A9480088A848001D00882D
:104100000846007800EBC00202EB0010A14A02EB67
:1041100080016422A048FFF7EEFE10BD0146B1F811
:10412000C800B1F8CA20904201D100207047B1F810
:10413000CA00B1F8C820801A012806D0B1F8CA0018
:10414000B1F8C820801AC73008B9C720EEE7B1F827
:10415000C800B1F8CA20801A05D4B1F8C800B1F877
:10416000CA20801A05E0B1F8C800B1F8CA20801A48
:10417000C83080B2DAE72DE9F04107460C46154613
:104180002046FFF7CBFFA84227DB002D25DDB4F842
:10419000CA002844C8280CDAB4F8CA0001192A4613
:1041A000384605F0FDFEB4F8CA002844A4F8CA0059
:1041B00016E0B4F8CA00C0F1C806B4F8CA00011984
:1041C0003246384605F0ECFEAA1B2146384605F07B
:1041D000E7FEA81BA4F8CA0002E00020BDE8F081B9
:1041E0000120FBE730B5034601241846FFF796FF90
:1041F000A0421CDB002C1ADDB3F8CA002044C828FA
:1042000008DAB3F8CA001D5CB3F8CA002044A3F86A
:10421000CA000AE0B3F8CA10C1F1C800B3F8CA1066
:104220005D5C211AA3F8CA1000BF284630BD0020EB
:10423000FCE72DE9F04107460C462046FFF76EFFEC
:104240000546002D25DDB4F8CA002844C8280CDA3C
:10425000B4F8CA0001192A46384605F0A1FEB4F8A0
:10426000CA002844A4F8CA0016E0B4F8CA00C0F195
:10427000C806B4F8CA0001193246384605F090FE67
:10428000AA1B2146384605F08BFEA81BA4F8CA00DD
:1042900002E00020BDE8F0810120FBE72DE9F047B6
:1042A00081460D4617461C462846FFF737FF391949
:1042B000884221DB002C1FDDB5F8CA003844C82134
:1042C00090FBF1F201FB12063019C82805D2A9199A
:1042D0002246484605F064FE0DE0C6F1C808A9195B
:1042E0004246484605F05CFEA4EB080229464846D3
:1042F00005F056FE00BF02E00020BDE8F087012077
:10430000FBE770B503460C4601251846FFF706FF8C
:10431000611988420BDB002D09DDB3F8CA00204487
:10432000C82290FBF2F602FB1601585C70BD00201B
:10433000FCE710B503460C461846FFF7EFFEA04217
:1043400014DB002C12DDB3F8CA002044C82805DABB
:10435000B3F8CA002044A3F8CA0009E0B3F8CA10B1
:10436000C1F1C800211AA3F8CA1001E0002010BD55
:104370000120FCE700200849A1F8C800A1F8CA0004
:104380007047000009040020886002400088002077
:104390000C040020CA090020920A002000440040BA
:1043A00010B596B004460121082001F04EFF01210E
:1043B000480501F04AFF0121880401F08DFF76488D
:1043C00003F028F907220821744801F028FD07228C
:1043D0000921724801F023FD4FF4807014900220EF
:1043E0008DF8540000208DF8560003208DF85500FC
:1043F00000208DF8570014A9684801F085FC4FF49F
:104400000070149002208DF8540001208DF85600A1
:1044100003208DF8550001208DF8570014A95F483E
:1044200001F072FC27208DF83C0002208DF83D0041
:1044300001208DF83E008DF83F000FA800F0A7FC8A
:1044400010A803F0B4F910940020ADF84400ADF8C2
:104450004600ADF848000C20ADF84A000020ADF849
:104460004C0010A94C4803F03CF9012240F22441D1
:10447000494803F074FA01224021474803F066FAE4
:104480000121454803F0B5F9454801F0E3F94FF043
:10449000006000904048001D0190424802900020BA
:1044A000039064200490002005904FF480600690F3
:1044B00000200790089009904FF480300A90002067
:1044C0000B900C900D900E906946354801F064FAFF
:1044D000002234496431324801F0BFFA01213048EA
:1044E00001F0C7FA01212E4801F090FA16B010BD74
:1044F00010B540F22441284803F06CFA00284AD055
:10450000254800882448001D0088254801F0C1FA8C
:1045100000BB0020244908700021214801F076FAF0
:104520001F4801F096FAC0F1640020490860642039
:104530001B492839C8620846806A40F40020886216
:104540000121174801F062FA18480178154804F073
:1045500031FC20E00120144908700021104801F0CE
:1045600055FA0F4801F075FAC0F164000F49086070
:1045700064200B492839C8620846806A20F400206C
:1045800088620121064801F041FA0848017805488F
:10459000643004F00FFC10BD00480040000C0240E5
:1045A00028600240F20C00201204002014040020B5
:1045B00010B588B004460121402001F046FE0121DB
:1045C000202001F09AFE08220921314801F027FC41
:1045D00008220E212E4801F022FC4FF48440069060
:1045E00002208DF81C0000208DF81E0003208DF89D
:1045F0001D0000208DF81F0006A9254801F084FB4E
:10460000244803F007F802A803F0D1F80294002030
:10461000ADF80C00ADF80E00ADF810000C20ADF8B0
:1046200012000020ADF8140002A91A4803F059F84E
:1046300047208DF8040001208DF805008DF8060054
:104640008DF8070001A800F0A2FB012240F22551DD
:10465000104803F084F901210E4803F0CAF808B0AD
:1046600010BD10B540F225510A4803F0B3F968B106
:10467000084803F0EDF80849087006480088054826
:10468000001D00880846007804F053FD10BD0000AE
:1046900000180240001401401804002010B588B032
:1046A00004460121102001F0D0FD0121880701F00E
:1046B00013FE082207213C4801F0B1FB08221146F5
:1046C000394801F0ACFB8020069002208DF81C00D8
:1046D00000208DF81E0003208DF81D0001208DF8AC
:1046E0001F0006A9304801F00FFB4FF480700690C0
:1046F00002208DF81C0000208DF81E0003208DF88C
:104700001D0001208DF81F0006A9274801F0FCFAC2
:10471000264802F07FFF02A803F049F80294002027
:10472000ADF80C00ADF80E00ADF810000C20ADF89F
:1047300012000020ADF8140002A91C4802F0D1FFBD
:1047400052208DF8040001208DF805008DF8060038
:104750008DF8070001A800F01AFB012240F2255154
:10476000124803F0FCF80121104803F042F808B0A9
:1047700010BD10B540F225510C4803F02BF990B153
:104780000A4803F065F80A49087008480088074895
:10479000001D00880846007804F046FC05480068C3
:1047A000401C0449086010BD001002400078004021
:1047B000200400201C04002000B58BB001218020C3
:1047C00001F043FD0121080201F03FFD0121082015
:1047D00001F082FD4FF4E050099002208DF828008E
:1047E00003208DF8290009A98B4801F08DFA0120DA
:1047F000099002208DF8280003208DF8290009A9CE
:10480000864801F081FA02220A21834801F007FB61
:1048100002220B21804801F002FB02220C217E487B
:1048200001F0FDFA022200217C4801F0F8FA122082
:10483000ADF818000020ADF81A0005200790002000
:10484000ADF8200006A9764802F03FF97020ADF8D7
:1048500004000120ADF806000020ADF80800039028
:104860000220ADF810000020ADF81200ADF81400E1
:104870004FF48070ADF8160001A9694802F0BAF94A
:1048800001A9674802F0EFF901A9654802F038FA7A
:1048900001A9634802F09AFA0821614802F037FB47
:1048A00008215F4802F03CFB08215D4802F045FB0F
:1048B00008215B4802F04AFB0121594802F070F9D7
:1048C0000021574802F08AF90BB000BD00B58FB047
:1048D0000121480501F0B9FC0520FEF715FC002177
:1048E000504801F093F84F4800F0B4FF4FF040609B
:1048F00000904B483C3001904B4802904020039080
:1049000079200490002005904FF48060069080008C
:10491000079080000890002009904FF480300A90A2
:1049200000200B9003200C9000200D900E90694603
:104930003C4801F031F801221102394802F096FD9D
:104940000021384801F062F80121354802F046F9AB
:104950000FB000BD10B53549324801F0B4F818B9B0
:104960003348007801281CD00120314908703149B2
:104970002C4801F0C4F800212A4801F047F87921B9
:10498000284801F064F80121264801F03FF8244846
:104990001430008840F001002149143108800120C2
:1049A00010BD0020FCE72DE9F04105460C46052C22
:1049B00002DD0020BDE8F08100211EE0002019E0AA
:1049C000072214E001EB41032B441B5C134103F06D
:1049D0000103194EF35C01EB4106F60006EBC0063D
:1049E000C2F107073E44104F47F82630521E002AF6
:1049F000E8DA401C0328E3DB491CA142DEDB00208F
:104A000004EB4401082202EBC101074A42F82100ED
:104A1000FFF7A0FF0120CDE7001C0240002002406C
:104A2000000C004010600240240400202000001010
:104A3000080600202080001042C8000810B588B089
:104A400004460121102001F000FC0121C80701F0FB
:104A500043FC08220021304801F0E1F9082201213D
:104A60002D4801F0DCF90320069002208DF81C008F
:104A700000208DF81E0003208DF81D0001208DF808
:104A80001F0006A9244801F03FF9244802F0C2FDA6
:104A900002A802F08CFE02940020ADF80C00ADF8E4
:104AA0000E00ADF810000C20ADF812000020ADF89B
:104AB000140002A9194802F014FE53208DF80400D6
:104AC00001208DF805008DF806008DF8070001A87B
:104AD00000F05DF9012240F22551104802F03FFF3D
:104AE00001210E4802F085FE08B010BD10B540F25D
:104AF00025510A4802F06EFF68B1084802F0A8FE8E
:104B000007490870054800880448001D00880846C9
:104B1000007804F00EFB10BD00100240007C004045
:104B200009060020704700BFFEE700BFFEE700BF98
:104B3000FEE700BFFEE77047704770477047000010
:104B40000CB50020019000908348006840F480304C
:104B50008149086000BF8048006800F40030009080
:104B60000198401C0190009818B90198B0F5A04F29
:104B7000F1D17948006800F4003010B101200090B4
:104B800001E0002000900098012860D17248403078
:104B9000006840F080507049403108606F480068FC
:104BA00040F440406D4908606B48083000686A492D
:104BB000083108600846006840F400400860084674
:104BC000006840F4A05008606548091F0860081F8D
:104BD000006840F08070091F086000BF5E480068F0
:104BE00000F000700028F9D05C48006840F4803084
:104BF0005A49086000BF5948406800F480300028D6
:104C0000F9D05648006840F400305449086000BFAD
:104C10005248406800F400300028F9D040F2057096
:104C2000504908604C480830006820F003004A49A9
:104C3000083108600846006840F00200086000BFC4
:104C400045480830006800F00C000828F8D10CBD79
:104C500010B54548006840F47000434908603E487C
:104C6000006840F001003C49086000203A490831E2
:104C70000860394800683D490840374908603C48A9
:104C8000091D0860081F006820F48020091F0860C3
:104C9000002031490C310860FFF752FF4FF00060EF
:104CA00031498039086010BD70B500200022022310
:104CB00000240221284D08352D6805F00C0020B194
:104CC000042806D0082834D107E02A4D2A4E356042
:104CD00033E02A4D284E35602FE01F4D2D1D2D68E5
:104CE000C5F380541C4D2D1D2D6805F03F0154B1B6
:104CF000224DB5FBF1F5184E361D3668C6F3881601
:104D000005FB06F209E01B4DB5FBF1F5124E361D11
:104D10003668C6F3881605FB06F20F4D2D1D2D686B
:104D2000C5F301456D1C6B00B2FBF3F5124E356007
:104D300003E0104D104E356000BF00BF064D083532
:104D40002D68C5F303150E4E705D0B4D2D68C540E3
:104D5000094E356070BD0000003802400070004010
:104D60000C544007003C024088ED00E0FFFFF6FED7
:104D7000103000240024F4000C060020001BB700B3
:104D80001006002032490143324A1160704770B565
:104D9000002100230F22C4781CB32E4C246804F495
:104DA000E064C4F5E064C4F30721C1F10404E3B294
:104DB0000A4144789C40E1B28478144021430C07B6
:104DC000210E254C05786155047804F01F05012457
:104DD000AC4005786D11AD0005F1E025C5F8004146
:104DE00009E0047804F01F050124AC401B4D06784F
:104DF000761145F8264070BD194A0A400243154B0A
:104E00001B1F1A60704739B1124A121D1268024303
:104E1000104B1B1D1A6006E00E4A121D12688243D9
:104E20000C4B1B1D1A607047042808D14FF0E0217D
:104E3000096941F004014FF0E022116107E04FF0F1
:104E4000E021096921F004014FF0E022116170476F
:104E50000000FA050CED00E000E400E080E100E075
:104E600080FFFF1F10B50446FE48844209D101218E
:104E7000480601F086FA00214FF0007001F081FA37
:104E800008E00121880601F07CFA00214FF08060E3
:104E900001F077FA10BD30B50246002000231468F7
:104EA00024F002041460146844F00104146000E06B
:104EB0005B1C546804F001041CB94FF6FF74A34254
:104EC000F6D1546804F001040CB900206CE08C7930
:104ED000012C04D1146844F08004146003E01468C9
:104EE00024F080041460CC79012C04D1146844F0BF
:104EF0004004146003E0146824F0400414600C7A49
:104F0000012C04D1146844F02004146003E01468F8
:104F100024F0200414604C7A012C04D1146844F06D
:104F20001004146003E0146824F0100414608C7AF8
:104F3000012C04D1146844F00804146003E01468E0
:104F400024F008041460CC7A012C04D1146844F0D5
:104F50000404146003E0146824F0040414608C78E2
:104F6000A407CD7844EA05640D7944EA05444D79F7
:104F700044EA05540D886D1E2C43D461146824F056
:104F800001041460002300E05B1C546804F0010479
:104F90001CB14FF6FF74A342F6D1546804F001042B
:104FA0000CB1002000E0012030BD10B50021837A53
:104FB000012202FA03F1AC4A126842F00102AA4B44
:104FC0001A60A94A1C3212688A43A74B1C331A6024
:104FD000027BCAB9A44A0C3212688A43A24B0C3332
:104FE0001A604288C38842EA03439F4A4032847A67
:104FF00042F834300288838842EA03439A4A4032B6
:10500000847A02EBC4025360027B012A19D1964ACA
:105010000C3212680A43944B0C331A60428803889E
:1050200042EA0343904A4032847A42F83430C288DC
:10503000838842EA03438C4A4032847A02EBC402FA
:105040005360C27A3AB9884A121D12688A43864B65
:105050001B1D1A6006E0844A121D12680A43824B27
:105060001B1D1A60028932B97F4A143212688A43C2
:105070007D4B14331A600289012A06D17A4A143210
:1050800012680A43784B14331A60427B012A06D116
:10509000754A1C3212680A43734B1C331A60724AF9
:1050A000126822F00102704B1A6010BD002181715C
:1050B000C171017241728172C1728170C17003212C
:1050C000017102214171012101807047664909681F
:1050D00041F00101644A11601146096843F60E72FD
:1050E0009143614A11601146096841EA002111604B
:1050F0001146096821F001011160704721B1026871
:1051000042F48032026003E0026822F480320260DE
:105110007047E1B1026842F0800202604FF4C2724F
:10512000125842F480734FF4C27213504FF4CA7293
:10513000125842F480734FF4CA7213504FF4D27273
:10514000125842F480734FF4D27213501BE002687D
:1051500022F0800202604FF4C272125822F480736F
:105160004FF4C27213504FF4CA72125822F4807373
:105170004FF4CA7213504FF4D272125822F4807353
:105180004FF4D2721350704710B502460020936856
:1051900003F08063B3F1806F00D110E0936803F0F7
:1051A0000063B3F1006F01D1012008E0936803F0C0
:1051B0008053B3F1805F01D1022000E00420042875
:1051C00079D002F5C07303EB00131B6803F00104F0
:1051D00002F5C07303EB00131C600B7A7BB94B7AAA
:1051E0000C8843EA445302F5C07404EB00142468AD
:1051F000234302F5C07404EB0014236010E00B7A23
:105200004C6843EAC4034C7A234302F5C07404EBB0
:1052100000142468234302F5C07404EB00142360D7
:105220008B7A03F00F038B7202F5C07303EB00134C
:105230005B6823F00F0402F5C07303EB00135C609E
:1052400002F5C07303EB00135B688C7A234302F50D
:10525000C07404EB001463608B7B1C064B7B44EA38
:10526000034403E000640040006600400B7B44EA16
:105270000323CC7A234302F5C07404EB0014A3602B
:105280008B7C1C064B7C44EA03440B7C44EA0323DE
:10529000CC7B234302F5C07404EB0014E36002F5F9
:1052A000C07303EB00131B6843F0010402F5C073E5
:1052B00003EB00131C6010BD10B50246002321B1A2
:1052C000012907D002290FD109E09068F94C00EAC2
:1052D00004030BE09068F84C00EA040306E09068D1
:1052E000F64C00EA040301E0002300BF00BFF44CC9
:1052F000181BA34216D007DC83B16FF080601844FE
:1053000070B1022818D111E0B0F5007F10D0ED4C3B
:10531000204448B1B0F5003F0ED10BE002230DE070
:1053200000230BE0002309E0002307E0012305E050
:10533000012303E0012301E0002300BF00BFD8B236
:1053400010BD21B1012907D002290FD109E08268DF
:1053500042F0800282600AE0826842F40042826089
:1053600005E0826842F40002826000E000BF00BFF6
:10537000704710B500F5D87303EB01131B6803F0F9
:1053800004031372137A53B900F5D87303EB0113B6
:105390001B6840F2FF7404EA5353136009E000F500
:1053A000D87303EB01131B686FF0604404EAD30366
:1053B000536000F5D87303EB01131B6803F002037D
:1053C000537200F5D87303EB01135B6803F00F030E
:1053D000937200F5D87303EB01135B681B0AD37457
:1053E00000F5D87303EB01139B68D37200F5D873F3
:1053F00003EB01139B681C0A147300F5D87303EBCD
:1054000001139B681C0C547300F5D87303EB011354
:105410009B681B0E937300F5D87303EB0113DB68D5
:10542000D37300F5D87303EB0113DB681C0A147403
:1054300000F5D87303EB0113DB681C0C547400F502
:10544000D87303EB0113DB681B0E937421B9C36897
:1054500043F02003C36003E0036943F020030361CA
:1054600010BD21B9C26842F02002C26003E00269A7
:1054700042F02002026170470246002019B9D36849
:1054800003F0030006E0012903D1136903F00300D0
:1054900000E00020704710B502460B4600204FF692
:1054A000FF71BBB9146824F0020444F001041460D5
:1054B00000E0491E546804F00304012C01D00029C7
:1054C000F7D1546804F00304012C01D0002032E02D
:1054D000012030E0012B13D1146824F00304146080
:1054E00000E0491E546804F003040CB10029F8D10F
:1054F000546804F003040CB100201CE001201AE001
:10550000022B17D1146824F0010444F00204146043
:1055100000E0491E546804F00304022C01D0002965
:10552000F7D1546804F00304022C01D0002002E0FB
:10553000012000E0002010BD014600200A6822F092
:10554000010242F002020A604A6802F00302022AE3
:1055500000D10120704701464FF6FF7200200B6812
:1055600023F002030B6000E0521E4B6803F00203BD
:10557000022B01D1002AF7D14B6803F00203022B62
:1055800000D001207047014600208A6902F07000B7
:105590007047014600208A69100E704701460020BE
:1055A0008A69C2F3074070471AB143690B434361EC
:1055B00002E043698B434361704710B50246002007
:1055C00001F4700343B19369C1F3130423400BB199
:1055D00001202DE000202BE001F0807343B15368DF
:1055E000C1F3130423400BB1012021E000201FE090
:1055F00001F0006343B19368C1F3130423400BB17E
:10560000012015E0002013E001F0007343B1D368DE
:10561000C1F3130423400BB1012009E0002007E08F
:105620001369C1F3130423400BB1012000E00020F3
:1056300010BD0022244B994202D10023836111E066
:10564000C1F3130201F000730BB1C2600AE001F074
:1056500080630BB1026105E001F000630BB1826071
:1056600000E0426070470246002002EA01030BB1ED
:10567000012000E00020704770B504460D4600266A
:1056800060692840002872D0B5F5807F69D01DDCA4
:10569000082D42D006DC012D2DD0022D31D0042D55
:1056A0007FD134E0102D3ED0202D42D0402D78D136
:1056B00045E00000030000040003000800000310A0
:1056C000000100080001FFF77000F030B5F5004F51
:1056D00061D009DCB5F5007F4AD0B5F5806F4DD0BB
:1056E000B5F5006F5DD150E0B5F5803F2DD0B5F533
:1056F000003F56D12FE0A0685549FFF7B4FF06469A
:1057000051E0E0680321FFF7AEFF06464BE0E0689A
:105710000821FFF7A8FF064645E0E0681021FFF7E3
:10572000A2FF06463FE020690321FFF79CFF0646E3
:1057300039E020690821FFF796FF064633E020692B
:105740001021FFF790FF06462DE060680821FFF763
:105750008AFF064627E060681021FFF784FF0646AF
:1057600021E0A0690121FFF77EFF06461BE01BE058
:10577000A0690221FFF777FF064614E0A069042123
:10578000FFF771FF06460EE00BE0A0697021FFF7FE
:105790006AFF064607E060680421FFF764FF0646DB
:1057A00001E0002600BF00E00026304670BDB1F5E4
:1057B000007F3AD00FDC202928D006DC01291CD03C
:1057C00004291DD0082940D11DE0402921D0B1F580
:1057D000807F3AD126E0B1F5004F31D006DCB1F53B
:1057E000806F25D0B1F5006F2FD124E0B1F5803F57
:1057F00012D0B1F5003F28D111E0154A826025E0B2
:105800000822C26022E01022C2601FE0082202616A
:105810001CE01022026119E00822426016E010220A
:10582000426013E00422426010E0042242600DE076
:10583000042242600AE0002282610422426005E004
:10584000002282610422426000E000BF00BF704776
:1058500001010100016821F00101016000210160E6
:1058600041608160C160016121214161DB49884261
:1058700004D13D21D94A103A91608CE0D7491831C2
:10588000884205D14FF47461D44A103A916082E0A5
:10589000D2493031884205D14FF47411CF4A103AC1
:1058A000916078E0CD494831884205D14FF074616C
:1058B000CA4A103A91606EE0C8496031884204D10A
:1058C000C749C64A103AD16065E0C4497831884278
:1058D00004D1C449C14A103AD1605CE0BF4990315B
:1058E000884204D1C049BD4A103AD16053E0BB4957
:1058F000A831884205D14FF03D51B84A103AD160E5
:1059000049E0BA49884204D13D21B84A083A1160B9
:1059100041E0B6491831884205D14FF47461B34A69
:10592000083A116037E0B1493031884205D14FF46F
:105930007411AE4A083A11602DE0AC4948318842F2
:1059400005D14FF07461A94A083A116023E0A749D4
:105950006031884204D1A249A44A121F11601AE0A2
:10596000A2497831884204D19E49A04A121F116091
:1059700011E09E499031884204D19B499B4A121FF5
:10598000116008E09949A831884204D14FF03D5197
:10599000964A121F1160704710B500220268944B9E
:1059A0001A40CC680B6823434C6923438C6923431A
:1059B000CC6923430C6A23434C6A23438C6A2343F8
:1059C0004C6B23438C6B23431A430260426922F0E1
:1059D0000702D1E90B3423431A4342610B69436048
:1059E0004B6883608B68C36010BD0021016041601B
:1059F0008160C160016141618161C1610162416297
:105A00008162C162016341638163704721B10268B1
:105A100042F00102026003E0026822F0010202602B
:105A2000704721B1026842F40042026003E002685C
:105A300022F400420260704721B1026842F0200265
:105A4000026003E0026822F02002026070474160B9
:105A500070470146486880B2704722B1036843F43A
:105A60000023036003E0036823F400230360016163
:105A7000704721B1026842F48022026003E00268AC
:105A800022F48022026070470AB1016100E0C16027
:105A90007047014600200A6802F400220AB1012082
:105AA00000E000207047014600200A6802F0010271
:105AB0000AB1012000E000207047014600204A6939
:105AC00002F03800704730B503460A460020002433
:105AD000464DAB4202D24149103901E043491039E9
