:020000040800F2
:1000000070130020413F0008E13C0008E33C000879
:10001000E73C0008EB3C0008EF3C00080000000053
:10002000000000000000000000000000F33C000899
:10003000F53C000800000000F73C0008F93C00080F
:100040005B3F00085B3F00085B3F00085B3F000828
:100050005B3F00085B3F00085B3F00085B3F000818
:100060005B3F00085B3F00085B3F00085B3F000808
:100070005B3F00085B3F00085B3F00085B3F0008F8
:10008000B93100082D2F00085B3F00085B3F0008D6
:10009000992200085B3F00085B3F00085B3F0008B7
:1000A0005B3F00085B3F00085B3F00085B3F0008C8
:1000B0005B3F00085B3F00085B3F00085B3F0008B8
:1000C0005B3F00085B3F00085B3F00085B3F0008A8
:1000D0005B3F00085B3F0008AD310008F7380008BF
:1000E0005B3F00085B3F00085B3F00085B3F000888
:1000F0005B3F00085B3F00085B3F00085B3F000878
:100100005B3F00085B3F00085B3F00085B3F000867
:100110005B3F00085B3F00084F2B00085B3F000877
:100120005B3F00085B3F0008B12C00085B3F000804
:100130005B3F00085B3F00085B3F00085B3F000837
:10014000C12300085B3F00085B3F00085B3F0008DD
:100150005B3F00085B3F00085B3F0008933B0008E3
:100160005B3F00085B3F00085B3F00085B3F000807
:100170005B3F00085B3F00085B3F00085B3F0008F7
:100180005B3F00085B3F00089B3C00085B3F0008AA
:100190005B3F00085B3F00085B3F00085B3F0008D7
:1001A00000000000000000005B3F000800F002F8C3
:1001B00000F060F80AA090E8000C82448344AAF1A1
:1001C0000107DA4501D100F055F8AFF2090EBAE89F
:1001D0000F0013F0010F18BFFB1A43F0010318477B
:1001E00080CC0000A0CC00000A444FF0000C10F8B6
:1001F000013B13F0070408BF10F8014B1D1108BFA5
:1002000010F8015B641E05D010F8016B641E01F844
:10021000016BF9D113F0080F1EBF10F8014BAD1C94
:100220000C1B09D16D1E58BF01F801CBFAD505E0B2
:1002300014F8016B01F8016B6D1EF9D59142D6D30C
:10024000704700000023002400250026103A28BF34
:1002500078C1FBD8520728BF30C148BF0B60704738
:100260001FB50BF0E0FE9DE8030009F009FE1FBD7D
:1002700010B510BD09F070FE1146FFF7F1FF00F058
:1002800009F809F08EFE03B4FFF7F2FF03BC09F092
:10029000BBFE00004FF4A06003F072FE01F02CFFE3
:1002A000002433E0324890F90000082805DA30488D
:1002B0000078C01C40B22E4908702E4800683221D8
:1002C000B0FBF1F085B2284602F039FB04EB4402A2
:1002D000294B03EB4202917804EB440213F812001D
:1002E00002F019FB05462946092002F022FB04EB27
:1002F0004401214A02EB4101888802F0D7F802F05C
:10030000ADFA1E2002F0D2F8601C641C282CC9DB58
:1003100001211A4806F06BFB032119A002F0EBFD46
:100320004FF4167002F0C2F802E0162002F0BEF898
:10033000002008F012FA0028F7D0002011490860C8
:100340000821012000F02CFB11E00F4800684FF459
:100350007A71B0FBF1F201FB120010B908200449D8
:10036000087008F00FF808F034FB01F05FFEECE7CE
:10037000000000202C18004006C400080044004083
:100380002B2B2B00B882424228040020FE49087023
:10039000704710B5C024FD490988A1F58060002888
:1003A00001DB014600E0414240F29622914201DC2D
:1003B000012100E000210C43F4494988A1F5806047
:1003C000002801DB014600E0414240F296229142C2
:1003D00001DC012100E0002144EA4104EB49898865
:1003E000A1F58060002801DB014600E0414240F2B7
:1003F0009622914201DC012100E0002144EA8104BF
:10040000E249C988A1F58060002801DB014600E0CF
:10041000414240F29622914201DC012100E000219C
:1004200044EAC104D948007A012807D0D748007AA5
:10043000022803D0D548007A032801D1012000E02A
:10044000002044EA0014D148407A012807D0CF4860
:10045000407A022803D0CD48407A032801D10120F8
:1004600000E0002044EA4014FF2C07D00320FFF7EF
:100470008DFF1422C549C64809F003FC10BDC248CF
:100480000078704770B5FFF7FAFF08286ED2DFE8F2
:1004900000F011041E6D2B6D605300231A4619469F
:1004A000184606F046FC00231A461946184606F080
:1004B0006FFC68E000231A461946184606F039FC1E
:1004C00000231A461946184606F062FC5BE000233A
:1004D0001A461946184606F02CFC00231A461946FF
:1004E000184606F055FC4EE0AA4C24784EF2C005A2
:1004F00014FB05F423B2A74C24784FF4FA5514FBEF
:1005000005F422B2A44CA48C21B2A34C248C20B2BA
:1005100006F00FFCA14B93ED070ABDEEC00A10EEEA
:10052000103A1AB29E4B1B8A19B29D4B9B8C18B283
:10053000002306F02DFC26E000231A461946184633
:1005400006F0F7FB00231A461946184606F020FC71
:1005500019E000231A461946184606F0EAFB002364
:100560001A461946184606F013FC0CE000231A46FA
:100570001946184606F0DDFB00231A4619461846B0
:1005800006F006FC00BF00BF70BD10B57F490988AA
:100590007E4A528811447D4A928811447B4AD2880F
:1005A0001144A1F58050002801DB014600E04142E2
:1005B000082901DD00F049F910BD10B5FFF75FFF14
:1005C00008284FD2DFE800F030043848404E494751
:1005D0007448006842F21071884224D9FFF7D5FFB1
:1005E0000020FFF7D3FE9FED700A6D4880ED030AEF
:1005F000014649696D4A1268511A4FF4616201FB64
:1006000002F0C11700EBD141491300EE101AB8EE09
:10061000C00A6749D1ED000AB2EE041A00EE810A61
:100620005F4981ED080A1DE000F0AFFB0220FFF7F3
:10063000ADFE00F03DFE15E00620FFF7A7FE00F03E
:10064000A4FB00F035FE0DE000F09FFB00F030FE53
:1006500000F003FD06E005E004E000F0FEFC00F021
:1006600094FB00BF00BF10BD10B5FFF708FF514954
:100670000870FFF704FF092806D2DFE800F006053E
:10068000073D08AD311DA900A6E0A5E0A4E03F4864
:10069000007A032802D10620FFF778FE3B48007A53
:1006A000032807D144480078032803D13748407A0B
:1006B000012800D000BF8FE03449C97C61B93349BB
:1006C000897C49B93149B1F90A00002801DB0146AA
:1006D00000E04142032902DD0420FFF757FE7BE0E2
:1006E0002A48007A012803D02848007A022802D13B
:1006F0000420FFF74BFE6FE030480068401C2F4994
:1007000008602F4991F83110A1BB204909881F4A80
:10071000528811441D4A928811441C4AD2881144BF
:10072000A1F58050002801DB014600E041420A2982
:1007300020DA1B4949691D4A1268511A4FF4616257
:1007400001FB02F0C11700EBD141491300EE101A72
:10075000B8EEC00A1649D1ED000AB2EE041A00EE56
:10076000810A0F4981ED080A0420FFF70FFE0020DF
:1007700012490860124890F8310040BB0F480068E9
:10078000B0F5FA5F23D91DE004000020E00400204A
:10079000A805002030030020BC050020040600202E
:1007A00014000020280400200040A644100000206F
:1007B000D0040020060000200500002008000020D2
:1007C0005403002000202849086000F03EF803E0B0
:1007D0000620FFF7DBFD00BF00BF2448407A244914
:1007E000087010BD10B507F037F900F0B8FEFFF73C
:1007F0003BFFFFF7E2FEFFF745FEFFF7CAFD1D488E
:1008000000687821B0FBF1F201FB120078B91A48B8
:1008100090F90000002805DD17480078401E40B21E
:1008200015490870144890F9000001F0E4FE10BD6D
:10083000F0EE400AF5EEC00AF1EE10FA02DBB0EE7F
:10084000600A7047B1EE600AFBE7BFF34F8F0B48B9
:10085000006800F4E0600A490843001D0749086089
:10086000BFF34F8F00BFFEE708000020E004002028
:100870000500002028040020000000200CED00E00E
:100880000000FA0510B54E4800780A2832DA4C48C4
:10089000007800282EDD4B4800684FF41661B0FB4D
:1008A000F1F201FB1200464909784900C1EB011140
:1008B00001EB8101B0EB410F2BD8424800684FF4A7
:1008C0001661B0FBF1F201FB120028B94FF4804130
:1008D0003D4804F093FB1CE03A4800689621B0FBC9
:1008E000F1F201FB1200A0B94FF48041364804F048
:1008F00090FB0EE0324800780A2805DB4FF4804177
:10090000314804F07DFB04E04FF480412E4804F0B0
:1009100075FB2E4800780A2832DA2C480078002827
:100920002EDD284800684FF41661B0FBF1F201FBA0
:100930001200264909784900C1EB011101EB810140
:10094000B0EB410F2BD81F4800684FF41661B0FB85
:10095000F1F201FB120028B94FF400611C4804F0C9
:100960004DFB1CE0174800689621B0FBF1F201FB3B
:100970001200A0B94FF40061154804F04AFB0EE0E4
:10098000124800780A2805DB4FF40061104804F093
:1009900037FB04E04FF400610D4804F02FFB10BD5D
:1009A0000A2801DD0A2200E00246054B1A700A29D6
:1009B00001DD0A2200E00A46044B1A70704700006D
:1009C0000C00002028040020001402400D0000202C
:1009D0000010024070B52DED0A8B04460D46FE480E
:1009E00000680F21B0FBF1F201FB120000287DD15D
:1009F000FA498988A1F580600AF0B9FF41EC1C0B27
:100A00009FEDF70B53EC102B0AF0DCFF41EC1B0BB6
:100A10009FEDF50B53EC102B0AF022FE41EC190B65
:100A2000F34890ED080A10EE101A08460BF08AFA07
:100A300041EC1A0B53EC192B0AF06AFD41EC180B30
:100A40000AF034FDEA490862084690ED080ADFED35
:100A5000E90AB4EEE00AF1EE10FA06DD90ED080ABC
:100A6000DFEDE50A30EE600A02E0E14890ED080AA9
:100A7000DF4880ED080A90ED080ADFEDE00AB4EEE9
:100A8000E00AF1EE10FA06D290ED080ADFEDDA0A7C
:100A900030EE200A02E0D64890ED080AD44880EDF6
:100AA000080ACE49C988A1F580600AF060FF41ECD0
:100AB0001C0B9FEDD30B53EC102B0AF083FF41EC82
:100AC0001B0B9FEDC90B53EC102B0AF0C9FD41EC39
:100AD000190BC74890ED030A10EE101A08460BF0E8
:100AE00031FA41EC1A0B53EC192B00E02CE00AF020
:100AF0000FFD41EC180B0AF0D9FCBD49C86008464F
:100B000090ED030ADFEDC00AB4EEE00AF1EE10FA50
:100B100002D29FEDBD0A02E0B54890ED030AB44849
:100B200080ED030A90ED030ADFEDB80AB4EEE00AA7
:100B3000F1EE10FA02DD9FEDB50A02E0AC4890ED4F
:100B4000030AAB4880ED030ABDEC0A8B70BD10B5FB
:100B5000AF48007801280FD0AD48007860B99F48B1
:100B6000007A012802D0AB48007E28B9A0490C3198
:100B700001F11400FFF72EFF9FEDA70AA74880EDB3
:100B8000000A954800681E21B0FBF1F201FB12003B
:100B900028B997490C3101F1140000F09DFE9448EA
:100BA000D0ED030A90ED000AB8EEC00A30EEC00A9C
:100BB000DFED9B0AB4EEE00AF1EE10FA16DD0068F4
:100BC00000F5005001EE100AB8EEC11AF0EE410A2D
:100BD000874890ED031AB0EE410A924808F00AF9EE
:100BE000BDEEC00A824880ED020A39E08048D0EDAF
:100BF000030A90ED000AB8EEC00A30EEC00ADFED3D
:100C00008A0AB4EEE00AF1EE10FA16D20068A0F5F6
:100C1000005001EE100AB8EEC11AF0EE410A744815
:100C200090ED031AB0EE410A7E4808F0E3F8BDEEFD
:100C3000C00A6F4880ED020A12E06D4890ED001A7C
:100C4000B8EEC11AF0EE410A90ED031AB0EE410A77
:100C5000744808F0CFF8BDEEC00A654880ED020A7E
:100C6000634890ED080A7148D0ED000AB2EE041A0C
:100C700000EEC10ADFED5F0AB4EEE00AF1EE10FA11
:100C800017DDD0ED001A9FED5C1AB2EE042A01EEDA
:100C9000821AF0EE410A564890ED081AB0EE410A69
:100CA000634808F0A7F8BDEEC00A514880ED070A76
:100CB0003EE04F4890ED080A5C48D0ED000AB2EEE5
:100CC000041A00EEC10ADFED4D0AB4EEE00AF1EEBF
:100CD00010FA17D2D0ED001A9FED471AB2EE042A8F
:100CE00011EE821AF0EE410A414890ED081AB0EE7A
:100CF000410A4F4808F07EF8BDEEC00A3C4880ED3E
:100D0000070A15E0494890ED001AF2EE041A21EEA8
:100D1000211AF0EE410A364890ED081AB0EE410A69
:100D2000434808F067F8BDEEC00A314880ED070A75
:100D3000404890ED081AB1EE411AF0EE410A2C48F5
:100D400090ED021AB8EEC11AB0EE410A3A4808F026
:100D500051F8BDEEC00A264880ED040A354890EDF2
:100D60000A1AB1EE411AF0EE410A214890ED071A35
:100D7000B8EEC11AB0EE410A304808F03BF8BDEEBB
:100D8000C00A1B4880ED090A10BD10B5FFF7DFFE51
:100D900010BD01462A4890ED000AF7EE000A70EEF9
:100DA000C00A284890ED000AB8EEC00A60EE800A3A
:100DB00000EE101AB8EEC00A214890ED001A40EE7D
:100DC000010ABDEEE00A204880ED000A00681D4AD5
:100DD00010601D480068704728040020E0040020CF
:100DE00000000000008046400000000000A0844099
:100DF000140000200000E144000061450000E1C44F
:100E000000000000000039400000C8420040CE440D
:100E100044010020BC0C002000000000540500200C
:100E2000000080453C000020000080C5D004002068
:100E3000C0000020EC0A00207E00002002010020FB
:100E400050010020480100204C010020421A00EE11
:100E5000902AF8EEE00AB1EE601ADFED2C1AC1EE2E
:100E6000210AB0EE001A60EE810A9FED291A60EEA9
:100E7000810AB0EE600A704770B50246002000217A
:100E8000244B1B68934202DA224B1B6800E0134696
:100E90001A46204B1B6D934202DD1E4B1B6D00E07A
:100EA00013461A46002106E01A4B53F8313093429C
:100EB00000DC02E0491C0B29F6DB00BF092901DD3B
:100EC000092300E00B461946124C4B1C04EBC303EC
:100ED0005B6804EBC10464681B1B0E4C54F8314082
:100EE000A41A63430B4C54F8315026464C1C56F858
:100EF00034402C1B93FBF4F3344604EBC1046468C8
:100F0000181970BD0146002070470000000000461F
:100F1000DA0F49400CC6000810B5FFF7B0FA0428F4
:100F20003CD100BF6A480088A0F580606949B1F9EA
:100F30000010401A01280CDD65480088A0F580608B
:100F40000A2806DD64480088401C00B26249088017
:100F50001FE05F480088A0F580605E49B1F900108D
:100F6000401AB0F1FF3F0DDA59480088A0F58060C3
:100F700010F10A0F06DA58480088401E00B25649A0
:100F8000088006E052480088A0F5806000B252490F
:100F900008805148B0F900004E49088010BD10B5D6
:100FA000FFF76DFA042817D1002013E09FED4B0ADC
:100FB00010EE101A00EB4012494B03EB4202516055
:100FC0009FED480A10EE101A00EB401203EB4202AC
:100FD0001162401C0228E9DBFFF751FA042801D115
:100FE000FFF79AFF3C48B0F9000000EB800040009A
:100FF0003D4988603848B0F90000404200EB80006D
:101000004000C860084690ED001AB8EEC11AF0EE34
:10101000410A90ED021AB8EEC11AB0EE410A30480A
:1010200007F0E8FEBDEEC00A2F4880ED080A90EDFB
:10103000011AB8EEC11AF0EE410A90ED031AB8EEAB
:10104000C11AB0EE410A2648423007F0D3FEBDEE89
:10105000C00A254880ED090A10BD10B5FFF79FFFB3
:1010600010BDB0EE401AF7EE001AB0EE610ADFEDE7
:101070001F1A9FED1F2A42EE201AB0EE610AF7EE0A
:10108000001AB4EEE10AF1EE10FA02DDF7EE001AF2
:1010900001E0F0EE401AB0EE610ADFED161AB4EE90
:1010A000E10AF1EE10FA02D2DFED121A01E0F0EEE1
:1010B000401AB0EE610A104890F83300012806D1BA
:1010C00003200E490870DFED0E1AB0EE610A70477A
:1010D000E0040020240200201A0200200AD7A33CCA
:1010E0005401002000C8AF47BC0500203D0A573E10
:1010F0006F12833CCDCCCC3D540300202102002054
:101100009A99193F10B50B684A69D21AEF4B1A60C9
:101110001C462368002B01DB1C4600E05C42062CC9
:101120000CDDB1F91020002A01DB144600E0544226
:101130000A2C03DAC269521CC26101E00023C361B8
:10114000C269642A05D9027E1AB901220276E04BEF
:101150001A70027E012A37D1DD4A1278012A04D0A2
:10116000022A11D0032A2ED124E00A68323AD94B40
:101170001A601A4692ED000AB8EEC00A80ED030A22
:101180000222D34B1A701EE0D24A92ED000AB8EE4A
:10119000C00A80ED030A14460B6824681A1B002A53
:1011A00001DB134600E05342282B02DA0322C84B2E
:1011B0001A7008E000220276C54B1A70428802803D
:1011C0000023C36100BF00BF10BDC34909780129D6
:1011D0004ED1C249097A032910D0C149097803299F
:1011E0000CD1BE49497A022908D1BE490988891E15
:1011F00009B2BC4A1180BC4909685160BA49096802
:101200002822B1FBF2F302FB1311F9B9B349097AB1
:1012100001291BD1B149497A022917D1AF4A528815
:10122000A2F58061002901DB0A4600E04A4212B2C1
:101230004FF4967392FBF3F2AA4B1B889A1A12B2E0
:10124000A84B1A80A84909681A465160A349097A2F
:1012500003290DD0A2490978032909D19F49497A68
:10126000012905D1017809B9012100E000210170AF
:101270009A49497A9A4A1170704700B59B48FFF71E
:10128000A4FF9848B0F9000000EE100AB8EEC00ABA
:10129000DFED970A20EE200A924880ED030A4FF214
:1012A00054209449088394498E48FFF72BFF00BDD2
:1012B00010B58E48007891490860FFF7DEFF894835
:1012C00090ED030ABDEEC00A8B4880ED050A90ED53
:1012D000001AB8EEC11AF0EE410A90ED051AB8EE08
:1012E000C11AB0EE410A864807F084FDBDEEC00A7F
:1012F00010EE100A00B28049088382480088C0F5C9
:101300007A707A4909784843C0F57A707E49088036
:101310007948B0F9100001EE100AB8EEC11AF0EEEB
:10132000410A7548B0F9180001EE100AB8EEC11A6A
:10133000B0EE410A754807F05DFD6F4880ED070A81
:101340006C48B0F9100001EE100AB8EEC11AF0EEC8
:10135000410A6848B0F9180001EE100AB8EEC11A47
:10136000B0EE410A6A4807F045FD624880ED070A81
:10137000654800886749086063480088091D08605F
:1013800010BD10B503465548007C012807D132B97D
:1013900055480088604C20800020604C2070581A0E
:1013A000002801DB044600E04442022C0EDA5B4CCC
:1013B0002478012C0AD00120584C20704A4800881B
:1013C000574C208054480088564C20805448008850
:1013D000544C2488001B80B210BD1420414908825F
:1013E0000A214048817470477047704730B5034602
:1013F0000C4604FB04F5A8B240F2DC5595FBF0F571
:1014000029B21D68DDB100EB8005954206DD45007F
:10141000954203DC8DB26D1C1D6010E0824202DC3F
:1014200000251D600BE0824209DB4500954206DD88
:101430004D1E002D00DD00E00025ADB21D6030BD69
:1014400010B5137BD47A43EA04231BB28B80947BC0
:10145000537B44EA03231BB20B828B898C881B1BB2
:101460001BB2CB81B1F90E30B3F5805F04DD8B6820
:1014700003F500538B6008E0B1F90E3013F5805F7F
:1014800003DA8B68A3F500538B60B1F904408B68D5
:10149000234400EE103AB8EEC00ADFED230A80EED6
:1014A000201ABDEEC10A81ED000A8B888B8191ED77
:1014B000000AB8EEC00ADFED0E0A80EE201ABCEE7C
:1014C000C10A10EE103A1BB2438010BD4C0300203D
:1014D000500300203C03002038030020E0040020DB
:1014E00049030020E40500202804002030030020E8
:1014F0004D04E9414406002004060020B4024342A2
:101500002802002032030020340300206A02002059
:10151000EE0200203C04004046030020400300206F
:10152000440300204203002000007A4401884FF663
:10153000FE72914202DA0188491C01807047002145
:1015400001807047034602EB82004000984202DAB5
:101550000120087001E0002008700878704710B57D
:10156000002410E0344901EB4400FFF7DFFF324B69
:10157000183B33F8142030331919183B33F8140092
:10158000FFF7E0FF641C0C2CECDB2C4800780128F2
:1015900026D12948183890F8300001280DD1284864
:1015A0000068B0F5FA6F08D90120264908600020CC
:1015B000254908800720FEF7E9FE07240EE01E48B3
:1015C0001830005D012808D1801E1E49086020B235
:1015D0001D4908800720FEF7D9FE641C092CEEDDAA
:1015E0001548183890F83100012811D1FEF747FF4F
:1015F000012806D0FEF743FF18B1FEF740FF02288E
:1016000003D10320FEF7C2FE02E00320FEF7BEFE78
:101610000E49C97C61B90D49897C49B90B49B1F9B9
:101620000A00002801DB014600E04142032902DDF7
:1016300000200249087010BD6C03002090030020B8
:10164000280400209403002092030020E0040020DE
:1016500070B52DED088B04469FEDFE0AB0EE408A72
:1016600000EE104AB8EEC00ADFEDFB0A80EE201A49
:1016700011EE105A28460AF065FC41EC1B0BB0EE47
:101680004B0AF0EE6B0A08F05FFFB0EE40AAF0EEF6
:1016900060AA9FEDF20B53EC102B51EC1A0B0AF0E1
:1016A00091F941EC190B09F001FF08EE100AED4821
:1016B00080ED008AB0EE480ABDEC088B70BDDFED0E
:1016C000E50AB0EE600A7047B0EE401ADFEDE62A98
:1016D000B0EE620ADFEDE52AF4EEE20AF1EE10FA6E
:1016E00003DDDFEDE22AF0EE620ADFEDE12AF4EE3F
:1016F000E20AF1EE10FA03D2DFEDDD2AF0EE620A23
:10170000DFEDDC2AB4EEE21AF1EE10FA28DDDFEDAF
:10171000D92A31EE623ADFEDD42AF3EE043A43EEF1
:10172000632AB0EE620AF2EE0E2AB4EEE20AF1EE9D
:1017300010FA02D2F2EE0E2A01E0F0EE402AB0EEEC
:10174000620ADFEDC92AB4EEE20AF1EE10FA02DD18
:10175000DFEDC52A01E0F0EE402AB0EE620A03E0B8
:10176000DFEDC12AB0EE620ADFEDC22AB4EEE21A62
:10177000F1EE10FA03DDDFEDBF2AB0EE621AB2EE31
:101780000F3AC1EE032A9FEDBC3A32EE832A60EE97
:10179000821AF4EEC01AF1EE10FA01DDF0EE401AF2
:1017A000F1EE402AF4EEE21AF1EE10FA03D2F1EE75
:1017B000402AF0EE621AD0ED002A72EEA12AC0EDA6
:1017C000002A7047AD49D1ED000AB6EE001A20EEAE
:1017D000811A00EE900AF8EEE00AF6EE001A00EE2A
:1017E000A11A81ED001AD1ED000AB2EE041A60EEE2
:1017F000810AFDEEE00A10EE901A09B2A04A1180AB
:10180000DFEDA00AB4EEE00AF1EE10FA03DDDFED41
:101810009D0AB0EE600ADFED9C0AB4EEE00AF1EE3C
:1018200010FA03D2DFED980AB0EE600A2D2800DD31
:101830002D2010F12D0F01DA6FF02C009349D1ED1E
:10184000020AB2EE041A60EE810AFDEEE00A904947
:10185000C1ED000A8D49D1ED020AB2EE041A60EE24
:10186000810A8749B1F9001001EE101AB8EEC11AC9
:10187000F7EE001A41EE810A8649C1ED040AD1ED66
:10188000040AFDEEE00A10EE901A09B2824A1180B5
:101890008049D1ED050A9FED811A60EE810A91ED34
:1018A000041ADFED7F1A41EE210AC1ED050AD1EDE0
:1018B000050AFDEEE00A10EE901A09B2794A11808D
:1018C0007249D1ED010AC1ED020AD1ED000AC1ED64
:1018D000010A81ED000A704770B505460C46724852
:1018E00090F83400012802D100206A4948706F48FE
:1018F000007A022806D167484078012802D165495C
:10190000087602E0002063490876624800780128E2
:1019100009D167480078142808DA65480078401C27
:101920006349087002E0002061490870594A9288B2
:10193000A2F2B22211B2574AB2F90C00FFF7BFFE71
:101940005C4880ED000A5A48007803280FDD5A48A9
:10195000D0ED0A0AB0EE600A5648D0ED000AFDEE5E
:10196000E00A10EE900A00B2FFF72CFF04E000201E
:101970009FED380AFFF726FF4D4800780A2810DA55
:101980004B48007800EE100AF8EE400AB2EE041A56
:1019900080EE810A3F48D0ED050A20EE200A80ED56
:1019A000050A3C48007E012852D13A498988A1F2B3
:1019B000B22108B2FFF74CFEF2EE040A20EE200A34
:1019C0003E48D0ED000AB2EE041A00EE810A85ED21
:1019D000000A3049C988A1F23A2108B2FFF738FE5F
:1019E000DFED370A20EE200A9FED361AC0EE010A1D
:1019F000354890ED000AB8EEC00A30EE600A84ED7A
:101A0000000A24488078282815DA2248807800EED9
:101A1000100AB8EE400AF2EE040A80EE201AB0EE88
:101A2000414A1C4890ED050AF0EE400AB0EE440A27
:101A30002846FFF749FE254890ED000AF2EE040A19
:101A400020EE200ABDEEC00A10EE100A00B23FE000
:101A50006CE00000000000000080ED440000006029
:101A600066A64C409803002000008C420000C8434A
:101A70000000C8C3CDCC4C408FC2753DC4030020CC
:101A8000B603002000003442000034C26406002087
:101A9000A8030020BC0C0020B80300209A99193F2D
:101AA000CDCCCC3EBA03002054030020E00400203B
:101AB000B4030020AC030020EC0A0020D004002076
:101AC000000000460000B443140000209C030020E6
:101AD000FE49088094ED000ADFEDFD0AB4EEE00A4D
:101AE000F1EE10FA02DD9FEDFA0A01E094ED000A32
:101AF00084ED000A94ED000ADFEDF60AB4EEE00A88
:101B0000F1EE10FA02D29FEDF30A01E094ED000A23
:101B100084ED000A95ED000AEF48D0ED000AB2EE20
:101B2000041A00EEC10AED4880ED000A70BD30B520
:101B30002DED108B81B00446B0EE408A9FEDE80A8F
:101B4000B4EEC08AF1EE10FA03DD9FEDE50AB0EEC7
:101B5000408A9FEDE40A38EE000AB0EE408A94ED28
:101B6000000ADFEDE10A30EEC00ADFEDE00A20EE08
:101B700020FA1FEE100A0AF0E5F941EC1A0BB0EE5C
:101B80004A0AF0EE6A0A08F077FFB0EE409AF0EEEB
:101B9000609A51EC190B09F089FC08EE900A1FEDD0
:101BA000530A8DED000A1FED550AF0EE40FA1FEEC4
:101BB000100A0AF0C7F941EC1B0B9FEDCD0A68EE45
:101BC000000AB7EE000A08EEE80A20EE800ADFED10
:101BD000C90A08EEE00ADFEDC70A80EE201A11EE0E
:101BE000105A28460AF0AEF941EC1E0BB0EE4E0A30
:101BF000F0EE6E0A08F05CFAB0EE40DAF0EE60DA71
:101C000051EC1D0B09F046FC41EC1C0B53EC1B2B5B
:101C100009F07EFC41EC1A0B9FEDB70B53EC102B37
:101C200009F0D0FE41EC190B09F040FC00909DED4D
:101C3000000ADFEDB30A20EE200AF0EE40FA1FEDB5
:101C4000600A2FEE800A5FED610A80EE201A9FED98
:101C5000A60A30EE410A84ED000AB0EE6F0A01B028
:101C6000BDEC108B30BD70B52DED068B0446B0EE8B
:101C7000408A00EE104AB8EEC00AC8EE000A10EE24
:101C8000906A30460AF05EF941EC1A0BB0EE4A0A4F
:101C9000F0EE6A0A08F058FCB0EE409AF0EE609A56
:101CA00051EC190B09F034FE051E01DB284600E05B
:101CB000684200EBC00101EB001000EE100AF8EEE4
:101CC000C08AB0EE680ABDEC068B70BD2DE9F0410C
:101CD0002DED0A8BB0EE408A04460D4600276421A4
:101CE00004FB01F0C11700EB11710911491D09EE48
:101CF000901A00EE105AB8EEC00ADFED820A80EEAC
:101D0000201A11EE106A30460AF01CF941EC1C0B47
:101D1000B0EE4C0AF0EE6C0A08F016FCB0EE40BAD9
:101D2000F0EE60BA1FEDB30B53EC102B51EC1B0B14
:101D300009F048FE09F0BAFB08EE900AB8EEE90A8D
:101D400020EE080ADFED700A80EE201AB0EE419A0C
:101D5000202C2FDD292C16DDBDEEC80A10EE100A4E
:101D6000002801DB014600E041424FF47A7202EBA9
:101D70008102A4F1280101EB810102EB011109B2FA
:101D8000624A118055E0BDEEC80A10EE100A002824
:101D900001DB014600E041424FF4167202EB4102C2
:101DA000A4F1140101EB810102EBC10109B2574A10
:101DB00011803EE0BDEEC80A10EE100A002801DBDB
:101DC000014600E04142282903DA4FF496704F495A
:101DD0000880BDEEC80A10EE100A002801DB01469B
:101DE00000E041423C2904DA4FF4FA704749088088
:101DF0001FE0BDEEC80A10EE100A002801DB014604
:101E000000E04142822904DA4FF42F703F490880F4
:101E10000FE0BDEEC80A10EE100A002801DB0146F3
:101E200000E041424FF42F7202EB410109B2374A00
:101E30001180282C00DD2824B2EE040A28EE800A46
:101E4000BDEEC00A10EE100A00B231490880B2EEB1
:101E5000040A29EE000ABDEEC00A10EE100A00B214
:101E60002C49088039EE280AF2EE040A20EE200AF6
:101E7000BDEEC00A10EE100A00B2274908809FED9F
:101E8000270A2046FFF7EFFE79EE280AFDEEE00A6A
:101E900010EE906A002E01DB304600E0704200EE4A
:101EA000900AF8EEE00AB4EEE00AF1EE10FA66DD10
:101EB0001B480078401C1A490870084600783228F0
:101EC00001DD32200870164800782BE0A0030020C6
:101ED0000040CE440000C842D0040020A4030020EB
:101EE000333393409A99193E0040A6448010493AF2
:101EF000CDCC1C4100407043000000000000E03FDA
:101F00003333654266E6E74400401C46C2030020C6
:101F1000C0030020BE030020BC0300203333B33EC7
:101F2000C803002002282DDD3C49D1ED030A91EDC4
:101F3000000AB8EEC00A30EEC00ABDEEC00A10EECC
:101F4000100A002801DB014600E04142172919DA96
:101F5000334991F83410A9B9324991ED050ABDEE23
:101F6000C00A10EE100A002801DB014600E04142E1
:101F7000B1F5CD7F06DA2E2C04DC012702E000202B
:101F8000294908703846BDEC0A8BBDE8F08110B5D0
:101F90002448007E012811D1224A9288A2F2B2225E
:101FA00011B2204A9078D2ED040AB0EE600AFFF731
:101FB0008DFE012800D110BD0020FCE70020FAE7CB
:101FC0000022174890F8340028BB164BDB88A3F298
:101FD0003A21002901DB0B4600E04B421E2B1BDAA5
:101FE000104B9B88A3F2B220002801DB034600E0DF
:101FF0004342052B10DA0B4991ED040ABDEEC00AED
:1020000010EE100A002801DB014600E041422829B9
:1020100002DA012200E0002210467047140000207E
:1020200054030020BC0C0020C803002010B5274832
:102030000078022849D12648006826490968401AD4
:10204000062842D3224800682249086022480068D6
:10205000401C2149086021482149096A0160014664
:102060001F48806A48601F4800881F4901EBC00074
:102070001A490A680260496841601A480088401C91
:10208000184908800846008805281EDB1748007894
:1020900015490F39487315480078401C13490870DA
:1020A00008460078392801DD302008700E481C30C1
:1020B0000FA10A68C260097901743C212B3800F035
:1020C0001AFF002007490880088010BDFA0400208C
:1020D000280400201C04002014040020CC0300204D
:1020E000EC0A002018040020E30300202004002054
:1020F0003B23454E4400000010B54FF4A06001F0B2
:102100003FFFA82000F070F900F02AFA00F0BBFAB7
:10211000642000F0CBF9002000F0D6FA012000F096
:10212000D3FA022000F0D0FA032000F0CDFA00F03C
:1021300035F800F0C5F8642000F0B8F90021084631
:1021400000F0E9FB04462146092000F08DFB00F079
:10215000D7FA00F003FC0D4800F01EFD0C4800F01B
:10216000CBFD00F079FE0B4801F02CFD00F054FC93
:1021700005F075FA00F0BAFC4FF47A7000F096F9A9
:1021800000F0D6FC01200449087010BDA0860100B3
:1021900040420F0000CA08002104002000B58BB0A7
:1021A0000121082003F04FF90121480603F092F9BC
:1021B0000121480603F0E3F900214FF0007003F01D
:1021C000DEF90320099002208DF8280000208DF808
:1021D0002A0003208DF8290001208DF82B0009A981
:1021E000354802F08FFE09220021334802F015FF26
:1021F00009220121304802F010FF00208DF81E0056
:1022000001208DF81F0000208DF820008DF821009E
:102210008DF822008DF823008DF81A008DF81B0030
:1022200005208DF81C0001208DF81D000520ADF85B
:10223000180006A9214801F02CFF00208DF812009B
:102240008DF8130001208DF814000020ADF808006F
:10225000ADF80A00ADF80C00ADF80E00ADF81000B6
:1022600001208DF8150002A801F09DFF0122022136
:10227000124802F097FA14208DF8040001208DF81E
:10228000050000208DF8060001208DF8070001A848
:1022900001F07BFE0BB000BD00B585B00221074800
:1022A00002F0E8FA30B10221044802F07EFB6846F1
:1022B00004F0E0FC05B000BD000C024000640040EA
:1022C00000B58BB00121022003F0BDF80121880682
:1022D00003F000F90121880603F051F900214FF0C5
:1022E000806003F04CF94FF44050099002208DF8C3
:1022F000280000208DF82A0003208DF829000120F5
:102300008DF82B0009A9364802F0FCFD09220C21AA
:10231000334802F082FE09220D21314802F07DFE91
:1023200000208DF81E0001208DF81F0000208DF880
:1023300020008DF821008DF822008DF823008DF803
:102340001A008DF81B0005208DF81C0001208DF867
:102350001D000520ADF8180006A9224801F099FEDD
:102360000E208DF8120000208DF8130001208DF84A
:1023700014000020ADF80800ADF80A00ADF80C001C
:10238000ADF80E00ADF8100001208DF8150002A880
:1023900001F009FF01220221124802F003FA402055
:1023A0008DF8040001208DF8050000208DF806004E
:1023B00001208DF8070001A801F0E7FD0BB000BD7A
:1023C00000B585B00221074802F054FA30B102216D
:1023D000044802F0EAFA684604F027FE05B000BDA2
:1023E000000402400068004010B504466FF004008D
:1023F00001F018FEE11704EB5171C1F3C701394A2E
:1024000011701046007800EB4001C1EBC0104FF690
:10241000FF7101EAC0003449088010BD0146314A0D
:1024200012784A434FF0E0235A6100229A611A461B
:10243000126942F001021A6100BF4FF0E0221069F8
:1024400000F001021AB100F48032002AF5D04FF0FA
:10245000E022126922F001024FF0E0231A6100220B
:102460009A6170470146204A12884A434FF0E023A0
:102470005A6100229A611A46126942F001021A61F9
:1024800000BF4FF0E022106900F001021AB100F421
:102490008032002AF5D04FF0E022126922F00102CA
:1024A0004FF0E0231A6100229A61704770B504462C
:1024B0004FF4077094FBF0F0C6B24FF4077094FB32
:1024C000F0F100FB114085B205E04FF40770FFF713
:1024D000C9FF701EC6B2002EF7D115B12846FFF70E
:1024E000C1FF70BD22040020240400201CB501217E
:1024F000402002F0A8FF4FF4FF70009001208DF8FB
:10250000040000208DF8060003208DF8050001204E
:102510008DF8070069464F4802F0F4FC02214D484F
:1025200002F06CFD04214B4802F068FD0821494887
:1025300002F064FD1021474802F060FD202145486B
:1025400002F05CFD4021434802F058FD80214148E3
:1025500002F054FD4FF480713E4802F04FFD1CBD67
:102560001CB50121102002F06EFF0121202002F095
:102570006AFF4FF40060009001208DF804000020F5
:102580008DF8060003208DF8050001208DF8070066
:102590006946314802F0B6FC4FF4804000900120BB
:1025A0008DF8040000208DF8060003208DF805004A
:1025B00001208DF807006946284802F0A3FC01209D
:1025C0002749086000202749C1F8AC02FFF78EFFB9
:1025D0001CBD10B5014601200AE0421E41FA02F27C
:1025E00002F00102204C04EB8003C3F88022401C5F
:1025F0000928F2DB10BD30B504460025082C01DDAA
:10260000082000E02046044614F1080F02DA6FF0BB
:10261000070000E020460446002C09DB002004E00F
:10262000012181402943CDB2401CA042F8DB0BE0E0
:10263000002006E0C0F10802012191402943CDB2FB
:10264000401C61428842F5DBE843C5B22846FFF7EB
:10265000C0FF30BD001802400010024000140240CC
:10266000B8824242000042420000434210B5044694
:10267000032C00DD10BD0420A04081B21F4802F0F1
:10268000BFFC00BFF6E71CB50121802002F0DBFE95
:102690003C20009001208DF8040000208DF80600F9
:1026A00003208DF8050001208DF8070069461348C6
:1026B00002F028FC002404E02046FFF7D7FF601C4E
:1026C000C4B2042CF8DB1CBD10B50446032C00DD9D
:1026D00010BD0420A04081B2084802F08FFC00BF6A
:1026E000F6E710B50446032C00DD10BD0420A04021
:1026F00081B2024802F08DFC00BFF6E7001C0240E8
:1027000000B58BB00121802002F09DFE012108025E
:1027100002F099FE0121082002F0DCFE4FF4E050A7
:10272000099002208DF8280003208DF8290009A9BE
:10273000474802F0E7FB0120099002208DF82800AD
:1027400003208DF8290009A9424802F0DBFB022290
:102750000A213F4802F061FC02220B213C4802F0B2
:102760005CFC02220C213A4802F057FC02220021B4
:10277000384802F052FC5320ADF818000020ADF8A4
:102780001A0044F6206007900020ADF82000532086
:10279000ADF818000020ADF81A0044F6206007904C
:1027A0000020ADF8200006A92B4803F08CFA702019
:1027B000ADF804000120ADF806000020ADF80800D7
:1027C0004FF47A7003900220ADF810000020ADF8AD
:1027D0001200ADF814004FF48070ADF816004FF4FD
:1027E0007A70039001A91C4803F002FB01A91A4862
:1027F00003F037FB01A9184803F080FB01A9164834
:1028000003F0E2FB0821144803F07FFC0821124882
:1028100003F084FC0821104803F08DFC08210E48C9
:1028200003F092FC01210C4803F0B8FA01210A4898
:1028300003F0D2FA4FF47A70074934310860091D69
:102840000860091D0860091D08600BB000BD00008C
:10285000001C024000200240000C004010B5002186
:102860003A4803F01EFC10BD30B58BB004460D464F
:102870000121402002F02EFE0121802002F0E3FD24
:102880000121402002F07BFE0021402002F077FE73
:10289000092206212E4802F0C0FB402009900220A8
:1028A0008DF8280003208DF8290000208DF82A00DB
:1028B00002208DF82B0009A9254802F023FB602097
:1028C000ADF804000120ADF806000020ADF81000BE
:1028D00001A91E4803F08CFA08211C4803F015FCDE
:1028E00001211A4803F05AFA681E0790601E80B250
:1028F000ADF818000020ADF81A00ADF8200006A9C8
:10290000124803F0E0F90121104803F065FAFFF7DF
:10291000A5FF0BB030BD10B5024643F6BD600D4BB0
:1029200003EB021333F811300B4C94FBF3F398B222
:1029300010BD064A28321080121D1160704710B574
:1029400004462146014803F0ACFB10BD00180040CE
:10295000001C0240C4C60008802C800000B58BB06B
:102960000121022002F06FFD2020099002208DF845
:10297000280003208DF8290000208DF82A0001206E
:102980008DF82B0009A9224802F0BCFA0222052189
:102990001F4802F042FB0121022002F09BFD0020B3
:1029A000ADF82000ADF81A0044F61F6007905320E0
:1029B000ADF8180000208DF8220006A9154803F094
:1029C00082F96020ADF804000120ADF80600002077
:1029D0000390ADF8100001A90E4803F042FA01215E
:1029E0000C4803F09BFB01210A4803F0D7F90121B1
:1029F000084803F0E2FD0BB000BD44F620624243FC
:102A000044F6206392FBF3F1024A383211607047BA
:102A1000000402400004004000B587B001212020DE
:102A200002F011FD0121080502F065FD4FF4607010
:102A3000059002208DF8180000208DF81A00012062
:102A40008DF81B0003208DF8190005A9254802F018
:102A500059FA05220721234802F0DFFA052208214E
:102A6000204802F0DAFA052209211E4802F0D5FAC0
:102A70004020059001208DF8180000208DF81A00E4
:102A800001208DF81B0003208DF8190005A91548B9
:102A900002F038FA4021134802F0B0FA4FF4827085
:102AA000ADF802000020ADF80400ADF800004FF4CE
:102AB0000070ADF80A000020ADF80E00ADF8080077
:102AC000ADF806002020ADF80C000A20ADF810008B
:102AD0006946054802F056FE0121034802F04CFF0A
:102AE00007B000BD00140240005001401FB5012195
:102AF000102002F0EFFC36208DF8000001208DF848
:102B000001008DF802008DF80300684601F03DFADF
:102B10005320ADF804000020ADF80600ADF80C001D
:102B20004FF47A70029001A9194803F0CCF81FBD48
:102B300010B50121164803F04FF90122114614483F
:102B400003F062FD0121124803F072FD10BD10B5C3
:102B500001210F4803F06FFDC0B101210C4803F0C3
:102B60007BFD01210A4803F063FDFDF73BFE0948A8
:102B70000068401C07490860084600686421B0FBF3
:102B8000F1F201FB120008B9FDF77CFE10BD000058
:102B9000001000402804002010B596B00446012122
:102BA000022002F050FC0121102002F0A4FC0722B8
:102BB00011464A4802F031FA14A802F0EBF98020DD
:102BC000149002208DF8540001208DF85700022047
:102BD0008DF8550000208DF8560014A93F4802F0EA
:102BE00091F93F4803F014FE10A803F0DEFE3D48C3
:102BF00010900020ADF84400ADF846004FF480601E
:102C0000ADF848000420ADF84A000020ADF84C00B3
:102C100010A9334803F063FE0121314803F0E7FEB9
:102C2000012240212E4803F08FFF2F4801F010FFB2
:102C30000121880502F007FC4FF000600090284851
:102C4000001D01902948029000200390122004905A
:102C5000002005904FF480600690002007900890B7
:102C60004FF4807009904FF440300A9000200B9090
:102C70000C900D900E9069461B4801F08BFF0122CD
:102C80001021194802F04DF80121174801F0BCFF4E
:102C90003A208DF83C0000208DF83D008DF83E0074
:102CA00001208DF83F000FA801F06FF916B010BD9C
:102CB00010B50F490C4802F051F870B14FF0815136
:102CC000094802F01AF80A49074802F071F8074863
:102CD00005F026F80748FEF732FC10BD000402405C
:102CE00000100140A08601004064024070060020F0
:102CF000008020106E03002010B596B0044601211C
:102D0000082002F0A0FB0121480502F09CFB0121F4
:102D1000480402F0DFFBFB4803F07AFD0121F9488B
:102D200003F079FE07220521F74802F076F9072221
:102D30000621F54802F071F96020149002208DF808
:102D4000540000208DF8560003208DF85500002017
:102D50008DF8570014A9EC4802F0D4F826208DF81D
:102D60003C0002208DF83D0001208DF83E008DF8DA
:102D70003F000FA801F009F910A803F016FE109407
:102D80000020ADF84400ADF84600ADF848000C2036
:102D9000ADF84A000020ADF84C0010A9D94803F066
:102DA0009EFD012240F22441D64803F0D6FE0122C6
:102DB0004021D44803F0C8FE0021D24803F017FE9A
:102DC000D24801F045FE4FF000600090CD48001D54
:102DD0000190CF48029000200390642004900020CE
:102DE00005904FF4806006900020079008900990AD
:102DF0004FF480300A9000200B900C900D900E90B4
:102E00006946C248603001F0C5FE10208DF83C00D4
:102E100002208DF83D0001208DF83E008DF83F0026
:102E20000FA801F0B2F801221021B848603001F07B
:102E300078FF0022B6496431B448603001F00BFFDE
:102E40000121B248603001F012FF0121AF4860302B
:102E500001F0DAFE16B010BD00B591B001214805B1
:102E600002F0F1FAA948783001F0F2FD4FF000606D
:102E70000190A448001D0290A648039040200490B1
:102E80004FF4C8700590002006904FF480600790C2
:102E90000020089009900A904FF400300B90002019
:102EA0000C9001200D9000200E900F9001A99748E2
:102EB000783001F06FFE012210219448783001F043
:102EC00030FF012280218F4803F03EFE11208DF853
:102ED000400002208DF8410001208DF842008DF85D
:102EE000430010A801F051F800218848783001F023
:102EF0008BFE11B000BD70B504460D4600BF86487C
:102F000000780028FBD10120834908702A46214619
:102F1000804806F0B6FE29467C48783001F095FEE0
:102F200001217A48783001F06FFE70BD10B57B4901
:102F30007648783001F012FF78B1784973487830DC
:102F400001F0DBFE00217148783001F05DFE0122C6
:102F500040F226616B4803F000FE10BD10B540F250
:102F60002771684803F034FE40B9002240F2266120
:102F7000644803F0F2FD00206749087010BD014667
:102F8000B1F8C800B1F8CA20904201D1C7207047FB
:102F9000B1F8CA00B1F8C820801A012806D0B1F8EB
:102FA000CA00B1F8C820801AC73008B90020EEE77F
:102FB000B1F8CA00B1F8C820801A401E002806D413
:102FC000B1F8CA00B1F8C820801A401E05E0B1F877
:102FD000CA00B1F8C820801AC73080B2D7E72DE9FF
:102FE000F04104460F4615462046FFF7C8FFA842A9
:102FF00027DB002D25DDB4F8C8002844C8280CDAEA
:10300000B4F8C81008192A46394606F03AFEB4F852
:10301000C8002844A4F8C80016E0B4F8C800C0F1FD
:10302000C806B4F8C81008193246394606F029FE19
:10303000AA1BB919204606F024FEA81BA4F8C80054
:1030400002E00020BDE8F0810120FBE710B540F26E
:1030500024412C4803F0BCFD002852D00120304907
:10306000A1F8CE00274800882648001D0088274880
:10307000603001F00CFEE0BB00202A4908700022FD
:1030800010212248603001F04CFE00211F486030C2
:1030900001F0BAFD24491D48603001F089FE1B484B
:1030A000603001F0D4FDC0F1640020490860642064
:1030B00016496431086015482838D0F8880040F473
:1030C000002012492839C1F888001848008882B2C7
:1030D0001448007800EBC00303EB00100C4B03EB2B
:1030E00080010F48FFF77BFF012210210748603065
:1030F00000E01DE001F015FE01210448603001F000
:1031000083FD52E000440040000C02402860024071
:103110008A060020220800202C04002000802020A5
:10312000520700202D0400200088002030040020D9
:103130000120CE49087000221021CD4801F0F1FD98
:103140000021CB4801F060FDCA49C94801F030FEBA
:10315000C74801F07CFDC0F16400C74908606420E5
:10316000C349091D0860C2488838D0F8880020F497
:103170000020BF498839C1F88800BF48008882B262
:10318000BA48007800EBC00303EB0010BB4B03EB25
:103190008001BB48FFF723FF01221021B44801F052
:1031A000C0FD0121B24801F02FFD10BD10B5FFF7A1
:1031B000D5FEFFF74BFF10BD10B5AE49AC4801F08E
:1031C000CDFDF0B1AB49AA4801F097FDA84801F048
:1031D0005EFD08B9012000E00020A4490870A9485C
:1031E0000088A848001D00880846007800EBC0024F
:1031F00002EB0010A14A02EB80016422A048FFF715
:10320000EEFE10BD0146B1F8C800B1F8CA209042E8
:1032100001D100207047B1F8CA00B1F8C820801A67
:10322000012806D0B1F8CA00B1F8C820801AC7300A
:1032300008B9C720EEE7B1F8C800B1F8CA20801A73
:1032400005D4B1F8C800B1F8CA20801A05E0B1F879
:10325000C800B1F8CA20801AC83080B2DAE72DE978
:10326000F04107460C4615462046FFF7CBFFA84223
:1032700027DB002D25DDB4F8CA002844C8280CDA65
:10328000B4F8CA0001192A46384606F0FAFCB4F828
:10329000CA002844A4F8CA0016E0B4F8CA00C0F175
:1032A000C806B4F8CA0001193246384606F0E9FCEF
:1032B000AA1B2146384606F0E4FCA81BA4F8CA0065
:1032C00002E00020BDE8F0810120FBE730B50346B5
:1032D00001241846FFF796FFA0421CDB002C1ADDE4
:1032E000B3F8CA002044C82808DAB3F8CA001D5C45
:1032F000B3F8CA002044A3F8CA000AE0B3F8CA1021
:10330000C1F1C800B3F8CA105D5C211AA3F8CA1055
:1033100000BF284630BD0020FCE72DE9F0410746FC
:103320000C462046FFF76EFF0546002D25DDB4F85C
:10333000CA002844C8280CDAB4F8CA0001192A4681
:10334000384606F09EFCB4F8CA002844A4F8CA0027
:1033500016E0B4F8CA00C0F1C806B4F8CA000119F2
:103360003246384606F08DFCAA1B2146384606F048
:1033700088FCA81BA4F8CA0002E00020BDE8F08188
:103380000120FBE72DE9F04781460D4617461C4614
:103390002846FFF737FF3919884221DB002C1FDD53
:1033A000B5F8CA003844C82190FBF1F201FB1206BF
:1033B0003019C82805D2A9192246484606F061FCF2
:1033C0000DE0C6F1C808A9194246484606F059FC66
:1033D000A4EB08022946484606F053FC00BF02E071
:1033E0000020BDE8F0870120FBE770B503460C46DE
:1033F00001251846FFF706FF611988420BDB002DF7
:1034000009DDB3F8CA002044C82290FBF2F602FBA3
:103410001601585C70BD0020FCE710B503460C4651
:103420001846FFF7EFFEA04214DB002C12DDB3F8C4
:10343000CA002044C82805DAB3F8CA002044A3F81B
:10344000CA0009E0B3F8CA10C1F1C800211AA3F8F4
:10345000CA1001E0002010BD0120FCE7002008494F
:10346000A1F8C800A1F8CA00704700002D04002090
:103470008860024000880020300400208A06002076
:10348000520700200044004010B596B004460121C8
:10349000022001F0D8FF0121480501F0D4FF0121ED
:1034A000880402F017F8FE4803F0B2F907220A2157
:1034B000FC4801F0B2FD07220B21FA4801F0ADFDF6
:1034C0004FF44060149002208DF8540000208DF8D5
:1034D000560003208DF8550000208DF8570014A9E0
:1034E000F04801F00FFD27208DF83C0002208DF8F8
:1034F0003D0001208DF83E008DF83F000FA800F040
:1035000044FD10A803F051FA10940020ADF84400D7
:10351000ADF84600ADF848000C20ADF84A00002098
:10352000ADF84C0010A9DE4803F0D9F9012240F2B1
:103530002441DB4803F011FB01224021D84803F06D
:1035400003FB0121D64803F052FAD74801F080FA74
:103550004FF000600090D248001D0190D3480290C7
:103560000020039064200490002005904FF48060B8
:10357000069000200790089009904FF480300A9040
:1035800000200B900C900D900E906946C64801F0FB
:1035900001FB0022C5496431C34801F05CFB0121F5
:1035A000C14801F064FB0121BF4801F02DFB16B0BA
:1035B00010BD30B5034605E013F8010B80EA0204A4
:1035C000BB48025D0800A1F10105A9B2F4D1104683
:1035D00030BD70B505460C4600260DB1022C01DC4D
:1035E000002070BD601E81B2FF222846FFF7E1FF78
:1035F0000646601E285CB04201D10120F1E70020A0
:10360000EFE770B505460C4600260DB1022C00DC34
:1036100070BD601E81B2FF222846FFF7CAFF064632
:10362000601E2E5400BFF3E730B5034613B94FF6C2
:10363000FF7030BD09E013F8014B82EA0400C0B20C
:103640009C4D35F8100080EA22220800A1F101010A
:10365000F1D11046EDE770B505460C4600260DB1D8
:10366000022C01D8002070BDA11E93480288284674
:10367000FFF7DAFF0646F1B2A01E285C814206D1B0
:10368000601E285CB0EB162F01D10120EBE7002073
:10369000E9E770B505460C4600260DB1022C00D8AE
:1036A00070BDA11E844802882846FFF7BDFF06466C
:1036B000A01E2E54310A601E295400BFF0E710B539
:1036C00005247E48007800EBC00101EB001077492B
:1036D00001EB800001197A4809880180A01C794912
:1036E00008807748008804280FD17448007800EBE0
:1036F000C00202EB00106D4A02EB80000A461288FD
:1037000081181422704806F0BCFA6D48008803281E
:1037100016D16A48007800EBC00101EB0010634944
:1037200001EB8000674909880844684902680A601B
:103730008088888066480088401C00B26449088000
:103740005F48008807283ED15C48007800EBC00144
:1037500001EB0010554901EB80005A490988405C93
:10376000C0F300105B49C8705448007800EBC001FA
:1037700001EB00104D4901EB800052490988405C83
:10378000C0F34010534948704C48007800EBC0012A
:1037900001EB0010454901EB80004A490988405C73
:1037A000C0F380104B4988704448007800EBC0019A
:1037B00001EB00103D4901EB800042490988405C63
:1037C000C009444908703E480088022824D13B487B
:1037D000007800EBC00101EB0010344901EB8000E0
:1037E00038490988405C3C49097860F303013A484C
:1037F00001703248007800EBC00101EB00102B494A
:1038000001EB80002F490988405C010932480078AB
:1038100061F30710304908702848007800EBC001B8
:1038200001EB0010214901EB800001192448B1F897
:103830001D10018004F11F002249088020480088E3
:1038400008280FD11D48007800EBC00202EB0010E1
:10385000164A02EB80000A461288811810221F487F
:1038600006F00FFA1548007800EBC00101EB0010DC
:103870000E4901EB800001191148C98E018004F145
:103880003800104908800E480088012832D10B48C2
:10389000007800EBC00101EB0010044920E00000BB
:1038A000004800400004024028600240B2090020A5
:1038B000F5C60008F6C7000878040020360400208A
:1038C000380400203C040020900A00205804002006
:1038D000440400206104002057040020A40A0020B2
:1038E00001EB8000714909880844714902680A6047
:1038F0004068486010BD10B540F224416D4803F0A7
:1039000067F9002843D06B4800886A48001D00888A
:10391000694801F0BCF9E8B9002068490870002145
:10392000654801F071F9644801F091F9C0F1640053
:1039300063490860642060492839C8620846806A83
:1039400040F40020886201215B4801F05DF9FFF737
:10395000B6FE1CE00120594908700021564801F0CC
:1039600053F9554801F073F9C0F1640054490860F7
:10397000642051492839C8620846806A20F4002032
:10398000886201214C4801F03FF9FFF798FE10BD15
:1039900070B52DED048BB0EE408AF0EE608AB0EE8B
:1039A000419A0546002447480079401C4549087162
:1039B00018EE100AC1F8060018EE900AC1F80A00C5
:1039C00019EE100AC1F80E0008468574A5203E497C
:1039D00008703C48807848703A48408800128870E7
:1039E00038484079C87005213748FFF70AFE0020A3
:1039F00035494871012088713248D0F806003349B2
:103A0000086001203049C87100200872487288722D
:103A10002C48D0F80A002E49086002202A49C872B2
:103A200000200873487388732648D0F80E0029498F
:103A3000086003202449C8730020087448748874FF
:103A40002048807C00EE100AB8EE400A224880ED43
:103A5000000A0420C87416211B48FFF71AFE00BF95
:103A60000CE01948015D134802F0ECFF00BF402153
:103A7000104803F097F80028F9D0641C162CF0DBEE
:103A8000BDEC048B70BDF0B50446DDE9055644EA93
:103A9000410040EA820040EAC30040EA051040EAE3
:103AA00046100E4F387038460078F0BD3C040020B8
:103AB0004F040020004800402860024036040020E7
:103AC00090040020650400207A0A00207C04002075
:103AD0008004002084040020880400209404002036
:103AE00010B588B004460121042001F0ACFC01218E
:103AF000202001F000FD082206212F4801F08DFA58
:103B0000082207212C4801F088FAC02006900220E4
:103B10008DF81C0000208DF81E0003208DF81D007C
:103B200000208DF81F0006A9234801F0EBF9234877
:103B300002F06EFE02A802F038FF02940020ADF8F9
:103B40000C00ADF80E00ADF810000C20ADF812001E
:103B50000020ADF8140002A9184802F0C0FE47206A
:103B60008DF8040002208DF8050001208DF8060074
:103B70008DF8070001A800F008FA012240F2255153
:103B80000E4802F0EAFF01210C4802F030FF08B0B5
:103B900010BD10B540F22551084803F019F848B19E
:103BA000064802F053FF064908700448008803489D
:103BB000001D008810BD00000008024000140140F4
:103BC0009504002010B588B004460121102001F0B2
:103BD0003AFC0121880701F07DFC082207213C48BE
:103BE00001F01BFA08221146394801F016FA80202C
:103BF000069002208DF81C0000208DF81E00032086
:103C00008DF81D0000208DF81F0006A9304801F036
:103C100079F94FF48070069002208DF81C00002086
:103C20008DF81E0003208DF81D0000208DF81F0068
:103C300006A9274801F066F9264802F0E9FD02A826
:103C400002F0B3FE02940020ADF80C00ADF80E00B7
:103C5000ADF810000C20ADF812000020ADF81400F3
:103C600002A91C4802F03BFE52208DF804000120FE
:103C70008DF805008DF806008DF8070001A800F00A
:103C800084F9012240F22551124802F066FF012119
:103C9000104802F0ACFE08B010BD10B540F225513E
:103CA0000C4802F095FF90B10A4802F0CFFE0A4995
:103CB00008700846007805F047F808480068401C7E
:103CC00006490860034800880248001D008810BDAE
:103CD00000100240007800409C040020980400205E
:103CE000704700BFFEE700BFFEE700BFFEE700BF72
:103CF000FEE7704770477047704700000CB5002022
:103D0000019000908348006840F480308149086049
:103D100000BF8048006800F4003000900198401C0B
:103D20000190009818B90198B0F5A04FF1D17948E9
:103D3000006800F4003010B10120009001E0002084
:103D400000900098012860D172484030006840F02F
:103D500080507049403108606F48006840F440402E
:103D60006D4908606B48083000686A49083108608E
:103D70000846006840F4004008600846006840F4C7
:103D8000A05008606548091F0860081F006840F0DF
:103D90008070091F086000BF5E48006800F0007076
:103DA0000028F9D05C48006840F480305A49086027
:103DB00000BF5948406800F480300028F9D05648C8
:103DC000006840F400305449086000BF5248406821
:103DD00000F400300028F9D040F205705049086026
:103DE0004C480830006820F003004A490831086058
:103DF0000846006840F00200086000BF45480830EF
:103E0000006800F00C000828F8D10CBD10B545483A
:103E1000006840F47000434908603E48006840F084
:103E200001003C49086000203A49083108603948DF
:103E300000683D490840374908603C48091D086052
:103E4000081F006820F48020091F08600020314905
:103E50000C310860FFF752FF4FF0006031498039A4
:103E6000086010BD70B5002000220223002402214A
:103E7000284D08352D6805F00C0020B1042806D027
:103E8000082834D107E02A4D2A4E356033E02A4D08
:103E9000284E35602FE01F4D2D1D2D68C5F3805431
:103EA0001C4D2D1D2D6805F03F0154B1224DB5FB71
:103EB000F1F5184E361D3668C6F3881605FB06F276
:103EC00009E01B4DB5FBF1F5124E361D3668C6F301
:103ED000881605FB06F20F4D2D1D2D68C5F3014513
:103EE0006D1C6B00B2FBF3F5124E356003E0104D14
:103EF000104E356000BF00BF064D08352D68C5F374
:103F000003150E4E705D0B4D2D68C540094E356092
:103F100070BD000000380240007000400C5A40079D
:103F2000003C024088ED00E0FFFFF6FE1030002468
:103F30000024F400A0040020001BB700A40400200B
:103F40000948804709480047FEE7FEE7FEE7FEE72D
:103F5000FEE7FEE7FEE7FEE7FEE7FEE70448054969
:103F6000054A064B704700000D3E0008AD010008F1
:103F7000700D002070130020700F0020700F0020C3
:103F800032490143324A1160704770B50021002365
:103F90000F22C4781CB32E4C246804F4E064C4F5EA
:103FA000E064C4F30721C1F10404E3B20A41447898
:103FB0009C40E1B28478144021430C07210E254C2B
:103FC00005786155047804F01F050124AC4005789C
:103FD0006D11AD0005F1E025C5F8004109E0047858
:103FE00004F01F050124AC401B4D0678761145F8FE
:103FF000264070BD194A0A400243154B1B1F1A6028
:10400000704739B1124A121D12680243104B1B1D32
:104010001A6006E00E4A121D126882430C4B1B1DEB
:104020001A607047042808D14FF0E021096941F077
:1040300004014FF0E022116107E04FF0E02109692F
:1040400021F004014FF0E022116170470000FA05F1
:104050000CED00E000E400E080E100E080FFFF1FE5
:1040600010B50446FE48844209D10121480601F0FA
:1040700086FA00214FF0007001F081FA08E001217A
:10408000880601F07CFA00214FF0806001F077FA99
:1040900010BD30B5024600200023146824F002044D
:1040A0001460146844F00104146000E05B1C546860
:1040B00004F001041CB94FF6FF74A342F6D1546812
:1040C00004F001040CB900206CE08C79012C04D1BF
:1040D000146844F08004146003E0146824F0800441
:1040E0001460CC79012C04D1146844F040041460AD
:1040F00003E0146824F0400414600C7A012C04D10D
:10410000146844F02004146003E0146824F02004D0
:1041100014604C7A012C04D1146844F0100414602B
:1041200003E0146824F0100414608C7A012C04D18C
:10413000146844F00804146003E0146824F00804D0
:104140001460CC7A012C04D1146844F00404146087
:1041500003E0146824F0040414608C78A407CD787C
:1041600044EA05640D7944EA05444D7944EA05546E
:104170000D886D1E2C43D461146824F00104146072
:10418000002300E05B1C546804F001041CB14FF6EE
:10419000FF74A342F6D1546804F001040CB100206E
:1041A00000E0012030BD10B50021837A012202FA1F
:1041B00003F1AC4A126842F00102AA4B1A60A94A04
:1041C0001C3212688A43A74B1C331A60027BCAB99F
:1041D000A44A0C3212688A43A24B0C331A604288FC
:1041E000C38842EA03439F4A4032847A42F834301B
:1041F0000288838842EA03439A4A4032847A02EB77
:10420000C4025360027B012A19D1964A0C3212680B
:104210000A43944B0C331A604288038842EA0343F2
:10422000904A4032847A42F83430C288838842EA25
:1042300003438C4A4032847A02EBC4025360C27A50
:104240003AB9884A121D12688A43864B1B1D1A60B0
:1042500006E0844A121D12680A43824B1B1D1A6035
:10426000028932B97F4A143212688A437D4B143373
:104270001A600289012A06D17A4A143212680A4366
:10428000784B14331A60427B012A06D1754A1C32DE
:1042900012680A43734B1C331A60724A126822F088
:1042A0000102704B1A6010BD00218171C171017251
:1042B00041728172C1728170C1700321017102214A
:1042C00041710121018070476649096841F001018F
:1042D000644A11601146096843F60E729143614ABF
:1042E00011601146096841EA002111601146096810
:1042F00021F001011160704721B1026842F480325F
:10430000026003E0026822F4803202607047E1B18B
:10431000026842F0800202604FF4C272125842F406
:1043200080734FF4C27213504FF4CA72125842F4A1
:1043300080734FF4CA7213504FF4D272125842F481
:1043400080734FF4D27213501BE0026822F0800297
:1043500002604FF4C272125822F480734FF4C2729A
:1043600013504FF4CA72125822F480734FF4CA7279
:1043700013504FF4D272125822F480734FF4D27259
:104380001350704710B502460020936803F0806315
:10439000B3F1806F00D110E0936803F00063B3F1D4
:1043A000006F01D1012008E0936803F08053B3F15E
:1043B000805F01D1022000E00420042879D002F5BA
:1043C000C07303EB00131B6803F0010402F5C07314
:1043D00003EB00131C600B7A7BB94B7A0C8843EA21
:1043E000445302F5C07404EB00142468234302F51F
:1043F000C07404EB0014236010E00B7A4C6843EAAD
:10440000C4034C7A234302F5C07404EB00142468FF
:10441000234302F5C07404EB001423608B7A03F08D
:104420000F038B7202F5C07303EB00135B6823F07C
:104430000F0402F5C07303EB00135C6002F5C07358
:1044400003EB00135B688C7A234302F5C07404EB22
:10445000001463608B7B1C064B7B44EA034403E03F
:1044600000640040006600400B7B44EA0323CC7AE2
:10447000234302F5C07404EB0014A3608B7C1C067C
:104480004B7C44EA03440B7C44EA0323CC7B234368
:1044900002F5C07404EB0014E36002F5C07303EB93
:1044A00000131B6843F0010402F5C07303EB001313
:1044B0001C6010BD10B50246002321B1012907D0B0
:1044C00002290FD109E09068F94C00EA04030BE0DF
:1044D0009068F84C00EA040306E09068F64C00EAA5
:1044E000040301E0002300BF00BFF44C181BA342EB
:1044F00016D007DC83B16FF08060184470B10228D9
:1045000018D111E0B0F5007F10D0ED4C204448B137
:10451000B0F5003F0ED10BE002230DE000230BE0CD
:10452000002309E0002307E0012305E0012303E065
:10453000012301E0002300BF00BFD8B210BD21B1AC
:10454000012907D002290FD109E0826842F08002D8
:1045500082600AE0826842F40042826005E082687C
:1045600042F40002826000E000BF00BF704710B557
:1045700000F5D87303EB01131B6803F004031372F7
:10458000137A53B900F5D87303EB01131B6840F29B
:10459000FF7404EA5353136009E000F5D87303EB8A
:1045A00001131B686FF0604404EAD303536000F505
:1045B000D87303EB01131B6803F00203537200F579
:1045C000D87303EB01135B6803F00F03937200F5DC
:1045D000D87303EB01135B681B0AD37400F5D8731F
:1045E00003EB01139B68D37200F5D87303EB01133F
:1045F0009B681C0A147300F5D87303EB01139B68C6
:104600001C0C547300F5D87303EB01139B681B0E4D
:10461000937300F5D87303EB0113DB68D37300F5D4
:10462000D87303EB0113DB681C0A147400F5D8730C
:1046300003EB0113DB681C0C547400F5D87303EB17
:104640000113DB681B0E937421B9C36843F0200388
:10465000C36003E0036943F02003036110BD21B987
:10466000C26842F02002C26003E0026942F0200208
:10467000026170470246002019B9D36803F00300B5
:1046800006E0012903D1136903F0030000E00020D4
:10469000704710B502460B4600204FF6FF71BBB9BC
:1046A000146824F0020444F00104146000E0491E80
:1046B000546804F00304012C01D00029F7D1546898
:1046C00004F00304012C01D0002032E0012030E08E
:1046D000012B13D1146824F00304146000E0491E78
:1046E000546804F003040CB10029F8D1546804F0B4
:1046F00003040CB100201CE001201AE0022B17D1AA
:10470000146824F0010444F00204146000E0491E1F
:10471000546804F00304022C01D00029F7D1546836
:1047200004F00304022C01D0002002E0012000E08C
:10473000002010BD014600200A6822F0010242F06C
:1047400002020A604A6802F00302022A00D1012034
:10475000704701464FF6FF7200200B6823F00203FA
:104760000B6000E0521E4B6803F00203022B01D1E4
:10477000002AF7D14B6803F00203022B00D001207E
:104780007047014600208A6902F0700070470146B8
:1047900000208A69100E7047014600208A69C2F322
:1047A000074070471AB143690B43436102E0436914
:1047B0008B434361704710B50246002001F470033B
:1047C00043B19369C1F3130423400BB101202DE0E1
:1047D00000202BE001F0807343B15368C1F3130450
:1047E00023400BB1012021E000201FE001F0006315
:1047F00043B19368C1F3130423400BB1012015E0CA
:10480000002013E001F0007343B1D368C1F3130437
:1048100023400BB1012009E0002007E01369C1F338
:10482000130423400BB1012000E0002010BD002242
:10483000244B994202D10023836111E0C1F313029A
:1048400001F000730BB1C2600AE001F080630BB1AC
:10485000026105E001F000630BB1826000E042609C
:1048600070470246002002EA01030BB1012000E07C
:104870000020704770B504460D4600266069284048
:10488000002872D0B5F5807F69D01DDC082D42D09C
:1048900006DC012D2DD0022D31D0042D7FD134E046
:1048A000102D3ED0202D42D0402D78D145E0000083
:1048B00003000004000300080000031000010008CA
:1048C0000001FFF77000F030B5F5004F61D009DC52
:1048D000B5F5007F4AD0B5F5806F4DD0B5F5006FC6
:1048E0005DD150E0B5F5803F2DD0B5F5003F56D1F4
:1048F0002FE0A0685549FFF7B4FF064651E0E06895
:104900000321FFF7AEFF06464BE0E0680821FFF702
:10491000A8FF064645E0E0681021FFF7A2FF064623
:104920003FE020690321FFF79CFF064639E020693C
:104930000821FFF796FF064633E020691021FFF7B4
:1049400090FF06462DE060680821FFF78AFF0646C3
:1049500027E060681021FFF784FF064621E0A06988
:104960000121FFF77EFF06461BE01BE0A069022144
:10497000FFF777FF064614E0A0690421FFF771FFF7
:1049800006460EE00BE0A0697021FFF76AFF0646BD
:1049900007E060680421FFF764FF064601E0002697
:1049A00000BF00E00026304670BDB1F5007F3AD070
:1049B0000FDC202928D006DC01291CD004291DD0B9
:1049C000082940D11DE0402921D0B1F5807F3AD19E
:1049D00026E0B1F5004F31D006DCB1F5806F25D06F
:1049E000B1F5006F2FD124E0B1F5803F12D0B1F5C1
:1049F000003F28D111E0154A826025E00822C260FC
:104A000022E01022C2601FE0082202611CE0102296
:104A1000026119E00822426016E01022426013E0B1
:104A20000422426010E0042242600DE00422426051
:104A30000AE0002282610422426005E000228261D5
:104A40000422426000E000BF00BF70470101010086
:104A5000016821F001010160002101604160816075
:104A6000C160016121214161DB49884204D13D21BE
:104A7000D94A103A91608CE0D7491831884205D163
:104A80004FF47461D44A103A916082E0D2493031D7
:104A9000884205D14FF47411CF4A103A916078E002
:104AA000CD494831884205D14FF07461CA4A103A65
:104AB00091606EE0C8496031884204D1C749C64A56
:104AC000103AD16065E0C4497831884204D1C449C4
:104AD000C14A103AD1605CE0BF499031884204D1AC
:104AE000C049BD4A103AD16053E0BB49A831884261
:104AF00005D14FF03D51B84A103AD16049E0BA496A
:104B0000884204D13D21B84A083A116041E0B649D3
:104B10001831884205D14FF47461B34A083A1160E4
:104B200037E0B1493031884205D14FF47411AE4AB3
:104B3000083A11602DE0AC494831884205D14FF068
:104B40007461A94A083A116023E0A749603188429C
:104B500004D1A249A44A121F11601AE0A249783177
:104B6000884204D19E49A04A121F116011E09E495B
:104B70009031884204D19B499B4A121F116008E082
:104B80009949A831884204D14FF03D51964A121FED
:104B90001160704710B500220268944B1A40CC682F
:104BA0000B6823434C6923438C692343CC6923431B
:104BB0000C6A23434C6A23438C6A23434C6B234384
:104BC0008C6B23431A430260426922F00702D1E949
:104BD0000B3423431A4342610B6943604B68836083
:104BE0008B68C36010BD0021016041608160C160BD
:104BF000016141618161C161016241628162C162A1
:104C0000016341638163704721B1026842F0010290
:104C1000026003E0026822F001020260704721B1E5
:104C2000026842F40042026003E0026822F400429B
:104C30000260704721B1026842F02002026003E086
:104C4000026822F02002026070474160704701460E
:104C5000486880B2704722B1036843F400230360C0
:104C600003E0036823F4002303600161704721B16E
:104C7000026842F48022026003E0026822F480228B
:104C8000026070470AB1016100E0C16070470146EF
:104C900000200A6802F400220AB1012000E000208E
:104CA0007047014600200A6802F001020AB10120A3
:104CB00000E000207047014600204A6902F03800F9
:104CC000704730B503460A4600200024464DAB42EB
:104CD00002D24149103901E04349103902F0005530
:104CE0000DB14C6800E00C68414D2C4004EA02050F
:104CF0000DB1012000E0002030BD02463A4B9A423F
:104D000002D23548103801E03748103801F000531E
:104D10001BB1374B0B40C36002E0354B0B40836047
:104D2000704710B501F080034BB122B1436943F0E5
:104D30008003436103E0436923F0800343618029DA
:104D40000BD02AB1036801F01E042343036004E082
:104D5000036801F01E04A343036010BD70B5024652
:104D6000002000240025204EB24202D21A4B103BF4
:104D700001E01D4B103B1F4E0E4036B11E2606EAC9
:104D8000D124166806EA040502E0566906F080059B
:104D900001F000560EB15C6800E01C68144E34400F
:104DA00004EA010616B10DB1012000E0002070BD3B
:104DB00002460D4B9A4202D20748103801E00A48D9
:104DC000103801F000531BB1094B0B40C36002E0E7
:104DD000074B0B4083607047106002403D0000208D
:104DE000400F002000003D20106402403F801CF076
:104DF0007D0F7D0F3C0F3C0F10B504469848844250
:104E000008D10121084600F087FB0021012000F0B5
:104E100083FB76E09348844208D10121022000F010
:104E20007BFB0021022000F077FB6AE08E48844281
:104E300008D10121042000F06FFB0021042000F0C4
:104E40006BFB5EE08948844208D10121082000F014
:104E500063FB0021082000F05FFB52E0844884429D
:104E600008D10121102000F057FB0021102000F094
:104E700053FB46E07F48844208D10121202000F006
:104E80004BFB0021202000F047FB3AE07A488442A7
:104E900008D10121402000F03FFB0021402000F01C
:104EA0003BFB2EE07548844208D10121802000F0B0
:104EB00033FB0021802000F02FFB22E07048844269
:104EC00008D10121801500F027FB0021A01500F07A
:104ED00023FB16E06B48844208D10121401500F005
:104EE0001BFB0021601500F017FB0AE066488442B6
:104EF00007D10121001500F00FFB0021201500F063
:104F00000BFB10BDF0B50A4600210023002400BFB2
:104F10003DE0012505FA01F3156805EA03049C420A
:104F200034D105684F000326BE40B54305601579AE
:104F30004E00B5400668354305601579012D02D055
:104F40001579022D16D185684F000326BE40B54362
:104F5000856055794E00B540866835438560456863
:104F600001268E40B5434560456896798E40B6B2BD
:104F700035434560C5684F000326BE40B543C56054
:104F8000D5794E00B540C6683543C560491C102927
:104F9000BFD3F0BD4FF6FF71016000210171417177
:104FA0008171C171704708B54FF480320092009A48
:104FB0000A430092009AC261C161009AC261C2694B
:104FC0000092C269009208BD0246002013690B409E
:104FD0000BB1012000E0002070470146086980B253
:104FE00070470246002053690B400BB1012000E0DE
:104FF000002070470146486980B2704701837047BE
:10500000418370470AB1018300E0418370474161E9
:10501000704742694A4042617047F0B5002300245E
:105020004D07ED0E02FA05F3CE1000F1200555F8FC
:1050300026504E07F70E0F26BE40B543CF1000F1A5
:10504000200646F82750CE1000F1200555F82650CE
:1050500045EA0304CE1000F1200545F82640F0BDD6
:10506000000002400004024000080240000C024020
:10507000001002400014024000180240001C0240D0
:10508000002002400024024000280240F648006848
:1050900040F00100F44908600020F349083108603D
:1050A000F1480068F1490840EF490860F048091DDF
:1050B0000860F048EC4984310860ED481038091D5B
:1050C0000860E948006820F48020E7490860002073
:1050D000E5490C310860E4498C31086070470121D2
:1050E000E14A921C117011460870704710B50146D4
:1050F0000022002300204A11012A02D1DA4C236841
:1051000008E0022A03D1D84C7034236802E0D64C60
:105110007434236801F01F02012494401C400CB138
:10512000012000E0002010BD38B5002000900024D0
:10513000002500BF3120FFF7D9FF05460098401C2D
:1051400000900098B0F5A04F01D0002DF2D0312092
:10515000FFF7CCFF08B1012400E00024204638BD51
:1051600001460020C04A106820F0F80040EAC10063
:1051700010607047C049086070470021BA4A703219
:1051800011701170012802D004280AD104E0012115
:10519000B54A7032117005E00521B34A70321170C2
:1051A00000E000BF00BF7047B4490860704770B5A9
:1051B000049C41EA82150126C6EB530645EA0645E2
:1051C000054345EA0465A84E361D356070BDAA4901
:1051D0000866704710B5830143EA016343EA02732E
:1051E000A14C8434236010BDA3498866704710B574
:1051F000830143EA016343EA02739B4C88342360D2
:1052000010BD9D49086770479B49C86470470246B6
:105210000020954B0833186820F0EC6042EA010347
:105220001843914B083318607047024600208E4B9C
:105230000833186820F0784042EA010318438A4B8B
:1052400008331860704701460020874A083210680A
:1052500020F003000843106070478348083000685E
:1052600000F00C007047014600207F4A08321068A9
:1052700020F0F000084310607047014600207A4A91
:105280000832106820F4E05008431060704701466F
:105290000020754A0832106820F4604040EAC100DE
:1052A00010607047F0B5002100220024022500267E
:1052B00002236D4F08373F6807F00C0121B1042924
:1052C00005D0082937D105E06D4F076036E06D4FF6
:1052D000076033E0644F3F1D3F68C7F38056624F5D
:1052E0003F1D3F6807F03F036EB1664FB7FBF3F712
:1052F000DFF874C10CF1040CDCF800C0CCF3881C9E
:1053000007FB0CF40CE05E4FB7FBF3F7DFF858C176
:105310000CF1040CDCF800C0CCF3881C07FB0CF487
:10532000514F3F1D3F68C7F301477F1C7D00B4FB11
:10533000F5F7076002E0524F076000BF00BF4A4F19
:1053400008373F6807F0F00109094F4F7A5C07689A
:10535000D7404760444F08373F6807F4E051890A57
:10536000494F7A5C4768D74087603F4F08373F68AE
:1053700007F46041490B444F7A5C4768D740C760E7
:10538000F0BD002100F44072B2F5407F0AD1364AE8
:105390000832116821F4F8113C4A02401143324AA4
:1053A00008321160304A70321268C0F30B031A439E
:1053B0002D4B70331A60704730494439086070478C
:1053C0002E494039086070473149086070470146EE
:1053D0000020254A8C32106820F01F004A1E10431E
:1053E000214A8C3210607047014600201E4A8C32E0
:1053F000106820F4F8504A1E40EA02201A4A8C3203
:105400001060704701460020174A8C32106820F463
:10541000401008431060704701460020124A8C3249
:10542000106820F4400008431060704701460020D7
:105430000D4A8C32106820F44030084310607047E9
:1054400014490860704739B1074A30321268024384
:10545000054B30331A6006E0034A3032126882434B
:10546000014B30331A60704700380240FFFFF6EA04
:10547000103000240030002000004742800E4742D8
:105480000024F400001BB700B4040020FFFCFF0F51
:105490005C014742E011474229B1934A1268024336
:1054A000914B1A6004E0904A126882438E4B1A6056
:1054B000704739B18C4A121D126802438A4B1B1D7A
:1054C0001A6006E0884A121D12688243864B1B1D33
:1054D0001A60704739B1844A0C3212680243824B19
:1054E0000C331A6006E0804A0C32126882437E4B0D
:1054F0000C331A60704739B17B4A1032126802438C
:10550000794B10331A6006E0774A103212688243F2
:10551000754B10331A60704739B1734A243A1268D8
:105520000243714B243B1A6006E06F4A243A12682A
:1055300082436D4B243B1A60704739B16A4A203A66
:1055400012680243684B203B1A6006E0664A203A24
:1055500012688243644B203B1A60704739B1624A3B
:105560001C3A12680243604B1C3B1A6006E05E4A1C
:105570001C3A126882435C4B1C3B1A60704739B17D
:10558000594A143A12680243574B143B1A6006E01A
:10559000554A143A12688243534B143B1A607047C1
:1055A00039B1514A103A126802434F4B103B1A600E
:1055B00006E04D4A103A126882434B4B103B1A608A
:1055C000704739B1484A1C3212680243464B1C33BB
:1055D0001A6006E0444A1C3212688243424B1C3374
:1055E0001A60704739B1404A2032126802433E4B7C
:1055F00020331A6006E03C4A2032126882433A4B5C
:1056000020331A60704739B1374A24321268024396
:10561000354B24331A6006E0334A24321268824341
:10562000314B24331A60704739B12F4A2C3212683B
:1056300002432D4B2C331A6006E02B4A2C321268A1
:105640008243294B2C331A60704739B1264A3032D5
:1056500012680243244B30331A6006E0224A30328B
:1056600012688243204B30331A607047012808D1FA
:105670001D493C31096841F008011B4A3C32116068
:1056800007E019493C31096821F00801164A3C320B
:105690001160704739B1144A273A12780243124B0D
:1056A000273B1A7006E0104A273A127882430E4BC5
:1056B000273B1A7070470C484030006840F08070FB
:1056C000094940310860704701460020064A283ADF
:1056D00012680A400AB1012000E000207047024928
:1056E00026390870704700003438024010B504466F
:1056F000FB48844208D101218014FFF751FF0021AB
:10570000A014FFF74DFF3CE0F648844208D1012188
:105710000014FFF734FF00212014FFF730FF30E0C2
:10572000F148844208D10121C013FFF728FF00216E
:10573000E013FFF724FF24E0EC48844208D1012164
:105740004014FFF72DFF00216014FFF729FF18E038
:10575000E748844209D101210805FFF721FF002114
:105760004FF48010FFF71CFF0BE0E248844208D1A1
:1057700001214805FFF714FF00214FF40010FFF747
:105780000FFF10BD10B50022028802F441520B88B1
:105790004C8823438C882343CC8823430C892343A0
:1057A0004C8923438C892343CC8923431A430280A9
:1057B000838B4FF2FF74234083830B8A038210BDD7
:1057C0002DE9F04F0025022300244FF001090022AB
:1057D0000026002794469046B0F81CA04FF2400BDC
:1057E0000AEA0B0AA0F81CA04FF0020AA0F820A0B9
:1057F000858BD1F808A0BAF1020F01D100BF82E079
:10580000B1F804A0BAF1000F02D14FF0010901E094
:105810004FF00209DFF8E0A2DAF800A00AF4000A6B
:10582000BAF1000F09D0DFF8D0A2DAF800A02AF40C
:10583000000ADFF8C4B2CBF800A0DFF8BCA20AF17E
:105840007C0ADAF800A0CAF3881CDFF8ACA20AF1DF
:105850007C0ADAF800A0CAF30278DFF89CA2AAF169
:10586000040ADAF800A00AF03F07DFF88CA2AAF1D8
:10587000040ADAF800A00AF4800ABAF5800F08D109
:10588000DFF878A2BAFBF7FA0AFB0CFABAFBF8F6D3
:1058900007E0DFF86CA2BAFBF7FA0AFB0CFABAFBD6
:1058A000F8F6B1F806A0BAF5007F0ED14FEA162A35
:1058B0000AEB8A0A4FEA4A0AD1F808B0BAFBFBFAA7
:1058C0000AF1050A1FFA8AF20FE04FEA491AB6FBFD
:1058D000FAFA0AEB8A0A4FEA4A0AD1F808B0BAFB88
:1058E000FBFA0AF1050A1FFA8AF24FF00A0AB2FB24
:1058F000FAF202F00104A2EB040ACAF34F034FF6D6
:10590000FF7A0AEA0424022B01DBFF2B01DD0223CC
:105910000024B1F806A04AEA040A4AEA030AA0F8F9
:1059200020A0B1F804A0B1F80CB04AEA0B0AB1F813
:1059300002B04AEA0B0AB1F800B04AEA0B0A4AF48C
:10594000006A4AEA05058583BDE8F08F00210180E1
:1059500041808180C180018141818181C181072194
:10596000018270470021018041808180C180022135
:10597000816000218181704721B1028842F040029C
:10598000028004E002884FF6BF731A40028070471D
:1059900021B1828B42F48062828304E0828B4FF6D5
:1059A000FF331A408283704702884FF2FF731A4018
:1059B000028002880A4302807047B1F5804F04D10B
:1059C000028842F48042028004E002884BF6FF73B2
:1059D0001A40028070474FF6FF62914204D002885D
:1059E00042F48072028004E002884FF6FF631A409E
:1059F0000280704721B1828842F00402828004E074
:105A000082884FF6FB731A408280704721B18288EA
:105A100042F01002828004E082884FF6EF731A4051
:105A20008280704730B500220023848B4FF24005FE
:105A30002C40848302240484828B0C88B4F5007F7C
:105A400001D00C8814B94FF4807308E00C88B4F5C9
:105A5000407F03D00C88B4F5807F00D100238C8870
:105A60008D892C434D882C431C4344F4006422430D
:105A7000828330BD0146888970478181704721B19A
:105A8000028842F40052028004E002884DF6FF735F
:105A90001A4002807047018841F4805101807047AC
:105AA00002460020012901D0108B00E0908A704747
:105AB0000146088A70471AB183880B43838002E04D
:105AC00083888B438380704730B5002400230C11FA
:105AD0000125A540ABB2AAB185881D43858014E09D
